{"contracts/DynamicClueNFT.sol":{"DynamicClueNFT":{"abi":[{"inputs":[{"internalType":"uint64","name":"subscriptionId","type":"uint64"}],"stateMutability":"nonpayable","type":"constructor"},{"inputs":[{"internalType":"address","name":"have","type":"address"},{"internalType":"address","name":"want","type":"address"}],"name":"OnlyCoordinatorCanFulfill","type":"error"},{"anonymous":false,"inputs":[{"indexed":true,"internalType":"address","name":"owner","type":"address"},{"indexed":true,"internalType":"address","name":"approved","type":"address"},{"indexed":true,"internalType":"uint256","name":"tokenId","type":"uint256"}],"name":"Approval","type":"event"},{"anonymous":false,"inputs":[{"indexed":true,"internalType":"address","name":"owner","type":"address"},{"indexed":true,"internalType":"address","name":"operator","type":"address"},{"indexed":false,"internalType":"bool","name":"approved","type":"bool"}],"name":"ApprovalForAll","type":"event"},{"anonymous":false,"inputs":[{"indexed":false,"internalType":"uint256","name":"_fromTokenId","type":"uint256"},{"indexed":false,"internalType":"uint256","name":"_toTokenId","type":"uint256"}],"name":"BatchMetadataUpdate","type":"event"},{"anonymous":false,"inputs":[{"indexed":true,"internalType":"address","name":"requester","type":"address"},{"indexed":false,"internalType":"uint256","name":"durationSeconds","type":"uint256"}],"name":"BlockRevealRequested","type":"event"},{"anonymous":false,"inputs":[{"indexed":true,"internalType":"uint256","name":"tokenId","type":"uint256"},{"indexed":true,"internalType":"address","name":"creator","type":"address"},{"indexed":false,"internalType":"enum DynamicClueNFT.Faction","name":"faction","type":"uint8"},{"indexed":false,"internalType":"uint256","name":"difficulty","type":"uint256"}],"name":"ClueMinted","type":"event"},{"anonymous":false,"inputs":[{"indexed":true,"internalType":"uint256","name":"tokenId","type":"uint256"},{"indexed":true,"internalType":"address","name":"solver","type":"address"},{"indexed":false,"internalType":"uint256","name":"points","type":"uint256"}],"name":"ClueSolved","type":"event"},{"anonymous":false,"inputs":[{"indexed":true,"internalType":"uint256","name":"tokenId","type":"uint256"},{"indexed":true,"internalType":"address","name":"stealer","type":"address"},{"indexed":true,"internalType":"address","name":"victim","type":"address"},{"indexed":false,"internalType":"uint256","name":"stolenMultiplier","type":"uint256"}],"name":"ClueStolen","type":"event"},{"anonymous":false,"inputs":[{"indexed":true,"internalType":"address","name":"solver","type":"address"},{"indexed":false,"internalType":"uint256","name":"day","type":"uint256"},{"indexed":false,"internalType":"uint256","name":"reward","type":"uint256"}],"name":"DailyChallengeSolved","type":"event"},{"anonymous":false,"inputs":[{"indexed":false,"internalType":"uint256","name":"newDifficulty","type":"uint256"}],"name":"DifficultyScaled","type":"event"},{"anonymous":false,"inputs":[{"indexed":false,"internalType":"uint256","name":"_tokenId","type":"uint256"}],"name":"MetadataUpdate","type":"event"},{"anonymous":false,"inputs":[{"indexed":true,"internalType":"uint256","name":"tokenId","type":"uint256"},{"indexed":true,"internalType":"address","name":"seller","type":"address"},{"indexed":false,"internalType":"uint256","name":"price","type":"uint256"}],"name":"NFTListed","type":"event"},{"anonymous":false,"inputs":[{"indexed":true,"internalType":"uint256","name":"tokenId","type":"uint256"},{"indexed":true,"internalType":"address","name":"buyer","type":"address"},{"indexed":true,"internalType":"address","name":"seller","type":"address"},{"indexed":false,"internalType":"uint256","name":"price","type":"uint256"}],"name":"NFTSold","type":"event"},{"anonymous":false,"inputs":[{"indexed":true,"internalType":"uint256","name":"tokenId","type":"uint256"},{"indexed":true,"internalType":"address","name":"staker","type":"address"},{"indexed":false,"internalType":"uint256","name":"duration","type":"uint256"}],"name":"NFTStaked","type":"event"},{"anonymous":false,"inputs":[{"indexed":true,"internalType":"uint256","name":"tokenId","type":"uint256"},{"indexed":true,"internalType":"address","name":"staker","type":"address"},{"indexed":false,"internalType":"uint256","name":"reward","type":"uint256"}],"name":"NFTUnstaked","type":"event"},{"anonymous":false,"inputs":[{"indexed":true,"internalType":"address","name":"previousOwner","type":"address"},{"indexed":true,"internalType":"address","name":"newOwner","type":"address"}],"name":"OwnershipTransferred","type":"event"},{"anonymous":false,"inputs":[{"indexed":true,"internalType":"address","name":"requester","type":"address"},{"indexed":false,"internalType":"uint256","name":"numReveals","type":"uint256"},{"indexed":false,"internalType":"uint256","name":"durationSeconds","type":"uint256"}],"name":"RandomRevealRequested","type":"event"},{"anonymous":false,"inputs":[{"indexed":true,"internalType":"address","name":"referrer","type":"address"},{"indexed":true,"internalType":"address","name":"referee","type":"address"},{"indexed":false,"internalType":"uint256","name":"reward","type":"uint256"}],"name":"ReferralReward","type":"event"},{"anonymous":false,"inputs":[{"indexed":true,"internalType":"uint256","name":"tournamentId","type":"uint256"},{"indexed":false,"internalType":"string","name":"name","type":"string"},{"indexed":false,"internalType":"uint256","name":"entryFee","type":"uint256"},{"indexed":false,"internalType":"uint256","name":"endTime","type":"uint256"}],"name":"TournamentCreated","type":"event"},{"anonymous":false,"inputs":[{"indexed":true,"internalType":"uint256","name":"tournamentId","type":"uint256"},{"indexed":true,"internalType":"address","name":"winner","type":"address"},{"indexed":false,"internalType":"uint256","name":"prize","type":"uint256"}],"name":"TournamentEnded","type":"event"},{"anonymous":false,"inputs":[{"indexed":true,"internalType":"uint256","name":"tournamentId","type":"uint256"},{"indexed":true,"internalType":"address","name":"participant","type":"address"}],"name":"TournamentJoined","type":"event"},{"anonymous":false,"inputs":[{"indexed":true,"internalType":"address","name":"from","type":"address"},{"indexed":true,"internalType":"address","name":"to","type":"address"},{"indexed":true,"internalType":"uint256","name":"tokenId","type":"uint256"}],"name":"Transfer","type":"event"},{"inputs":[],"name":"BASE_BLOCK_FEE","outputs":[{"internalType":"uint256","name":"","type":"uint256"}],"stateMutability":"view","type":"function"},{"inputs":[],"name":"BASE_REVEAL_FEE","outputs":[{"internalType":"uint256","name":"","type":"uint256"}],"stateMutability":"view","type":"function"},{"inputs":[],"name":"FACTION_DISCOUNT","outputs":[{"internalType":"uint256","name":"","type":"uint256"}],"stateMutability":"view","type":"function"},{"inputs":[],"name":"MINT_PRICE","outputs":[{"internalType":"uint256","name":"","type":"uint256"}],"stateMutability":"view","type":"function"},{"inputs":[],"name":"REFERRAL_REWARD","outputs":[{"internalType":"uint256","name":"","type":"uint256"}],"stateMutability":"view","type":"function"},{"inputs":[],"name":"STAKING_REWARD_RATE","outputs":[{"internalType":"uint256","name":"","type":"uint256"}],"stateMutability":"view","type":"function"},{"inputs":[{"internalType":"uint256","name":"eventId","type":"uint256"}],"name":"activateEvent","outputs":[],"stateMutability":"nonpayable","type":"function"},{"inputs":[],"name":"activeEventId","outputs":[{"internalType":"uint256","name":"","type":"uint256"}],"stateMutability":"view","type":"function"},{"inputs":[{"internalType":"uint256","name":"tokenId","type":"uint256"},{"internalType":"uint256","name":"amount","type":"uint256"},{"internalType":"string","name":"reason","type":"string"}],"name":"addExperience","outputs":[],"stateMutability":"nonpayable","type":"function"},{"inputs":[],"name":"advanceDay","outputs":[],"stateMutability":"nonpayable","type":"function"},{"inputs":[{"internalType":"address","name":"to","type":"address"},{"internalType":"uint256","name":"tokenId","type":"uint256"}],"name":"approve","outputs":[],"stateMutability":"nonpayable","type":"function"},{"inputs":[{"internalType":"address","name":"owner","type":"address"}],"name":"balanceOf","outputs":[{"internalType":"uint256","name":"","type":"uint256"}],"stateMutability":"view","type":"function"},{"inputs":[{"internalType":"uint256","name":"durationSeconds","type":"uint256"}],"name":"blockReveal","outputs":[],"stateMutability":"payable","type":"function"},{"inputs":[{"internalType":"uint256","name":"tokenId","type":"uint256"}],"name":"buyNFT","outputs":[],"stateMutability":"payable","type":"function"},{"inputs":[{"internalType":"uint256","name":"durationHours","type":"uint256"},{"internalType":"address","name":"user","type":"address"}],"name":"calculateBlockFee","outputs":[{"internalType":"uint256","name":"","type":"uint256"}],"stateMutability":"view","type":"function"},{"inputs":[{"internalType":"uint256","name":"numReveals","type":"uint256"},{"internalType":"uint256","name":"durationHours","type":"uint256"},{"internalType":"address","name":"user","type":"address"}],"name":"calculateFee","outputs":[{"internalType":"uint256","name":"","type":"uint256"}],"stateMutability":"view","type":"function"},{"inputs":[{"internalType":"uint256","name":"tokenId","type":"uint256"}],"name":"cancelListing","outputs":[],"stateMutability":"nonpayable","type":"function"},{"inputs":[{"internalType":"uint256","name":"eventId","type":"uint256"}],"name":"claimEventReward","outputs":[],"stateMutability":"nonpayable","type":"function"},{"inputs":[],"name":"claimReferralReward","outputs":[],"stateMutability":"nonpayable","type":"function"},{"inputs":[{"internalType":"uint256","name":"","type":"uint256"}],"name":"clues","outputs":[{"internalType":"uint256","name":"tokenId","type":"uint256"},{"internalType":"enum DynamicClueNFT.Faction","name":"faction","type":"uint8"},{"internalType":"uint256","name":"difficulty","type":"uint256"},{"internalType":"bytes32","name":"clueHash","type":"bytes32"},{"internalType":"address","name":"creator","type":"address"},{"internalType":"uint256","name":"createdAt","type":"uint256"},{"internalType":"bool","name":"solved","type":"bool"},{"internalType":"address","name":"solver","type":"address"},{"internalType":"uint256","name":"solvedAt","type":"uint256"},{"internalType":"uint256","name":"points","type":"uint256"}],"stateMutability":"view","type":"function"},{"inputs":[{"internalType":"string","name":"description","type":"string"},{"internalType":"bytes32","name":"solutionHash","type":"bytes32"},{"internalType":"uint256","name":"reward","type":"uint256"}],"name":"createDailyChallenge","outputs":[],"stateMutability":"nonpayable","type":"function"},{"inputs":[{"internalType":"string","name":"name","type":"string"},{"internalType":"string","name":"theme","type":"string"},{"internalType":"uint256","name":"startTime","type":"uint256"},{"internalType":"uint256","name":"endTime","type":"uint256"},{"internalType":"uint256","name":"tournamentMultiplier","type":"uint256"},{"internalType":"uint256","name":"challengeMultiplier","type":"uint256"},{"internalType":"uint256","name":"stakingMultiplier","type":"uint256"},{"internalType":"uint256","name":"maxSpecialNFTs","type":"uint256"}],"name":"createSeasonalEvent","outputs":[],"stateMutability":"nonpayable","type":"function"},{"inputs":[{"internalType":"string","name":"name","type":"string"},{"internalType":"uint256","name":"entryFee","type":"uint256"},{"internalType":"uint256","name":"durationHours","type":"uint256"}],"name":"createTournament","outputs":[],"stateMutability":"nonpayable","type":"function"},{"inputs":[],"name":"currentDay","outputs":[{"internalType":"uint256","name":"","type":"uint256"}],"stateMutability":"view","type":"function"},{"inputs":[{"internalType":"uint256","name":"","type":"uint256"}],"name":"dailyChallenges","outputs":[{"internalType":"uint256","name":"day","type":"uint256"},{"internalType":"string","name":"description","type":"string"},{"internalType":"bytes32","name":"solutionHash","type":"bytes32"},{"internalType":"uint256","name":"reward","type":"uint256"},{"internalType":"bool","name":"active","type":"bool"},{"internalType":"address","name":"winner","type":"address"},{"internalType":"uint256","name":"solvedAt","type":"uint256"}],"stateMutability":"view","type":"function"},{"inputs":[{"internalType":"uint256","name":"tournamentId","type":"uint256"}],"name":"endTournament","outputs":[],"stateMutability":"nonpayable","type":"function"},{"inputs":[{"internalType":"uint256","name":"","type":"uint256"},{"internalType":"address","name":"","type":"address"}],"name":"eventParticipations","outputs":[{"internalType":"uint256","name":"eventId","type":"uint256"},{"internalType":"address","name":"participant","type":"address"},{"internalType":"uint256","name":"tournamentsJoined","type":"uint256"},{"internalType":"uint256","name":"challengesCompleted","type":"uint256"},{"internalType":"uint256","name":"nftsStaked","type":"uint256"},{"internalType":"uint256","name":"totalBonusEarned","type":"uint256"},{"internalType":"bool","name":"claimedReward","type":"bool"}],"stateMutability":"view","type":"function"},{"inputs":[{"internalType":"uint256","name":"","type":"uint256"}],"name":"evolutionStates","outputs":[{"internalType":"uint256","name":"level","type":"uint256"},{"internalType":"uint256","name":"experience","type":"uint256"},{"internalType":"uint256","name":"cluesCollected","type":"uint256"},{"internalType":"uint256","name":"lastEvolution","type":"uint256"}],"stateMutability":"view","type":"function"},{"inputs":[{"internalType":"enum DynamicClueNFT.Faction","name":"","type":"uint8"}],"name":"factionScores","outputs":[{"internalType":"uint256","name":"","type":"uint256"}],"stateMutability":"view","type":"function"},{"inputs":[{"internalType":"uint256","name":"tokenId","type":"uint256"}],"name":"generateSVG","outputs":[{"internalType":"string","name":"","type":"string"}],"stateMutability":"view","type":"function"},{"inputs":[],"name":"getActiveEvent","outputs":[{"components":[{"internalType":"uint256","name":"id","type":"uint256"},{"internalType":"string","name":"name","type":"string"},{"internalType":"string","name":"theme","type":"string"},{"internalType":"uint256","name":"startTime","type":"uint256"},{"internalType":"uint256","name":"endTime","type":"uint256"},{"internalType":"uint256","name":"tournamentMultiplier","type":"uint256"},{"internalType":"uint256","name":"challengeMultiplier","type":"uint256"},{"internalType":"uint256","name":"stakingMultiplier","type":"uint256"},{"internalType":"bool","name":"active","type":"bool"},{"internalType":"uint256","name":"specialNFTsMinted","type":"uint256"},{"internalType":"uint256","name":"maxSpecialNFTs","type":"uint256"}],"internalType":"struct DynamicClueNFT.SeasonalEvent","name":"","type":"tuple"}],"stateMutability":"view","type":"function"},{"inputs":[],"name":"getActiveListings","outputs":[{"internalType":"uint256[]","name":"","type":"uint256[]"}],"stateMutability":"view","type":"function"},{"inputs":[{"internalType":"uint256","name":"tokenId","type":"uint256"}],"name":"getApproved","outputs":[{"internalType":"address","name":"","type":"address"}],"stateMutability":"view","type":"function"},{"inputs":[{"internalType":"uint256","name":"eventId","type":"uint256"},{"internalType":"address","name":"participant","type":"address"}],"name":"getEventParticipation","outputs":[{"components":[{"internalType":"uint256","name":"eventId","type":"uint256"},{"internalType":"address","name":"participant","type":"address"},{"internalType":"uint256","name":"tournamentsJoined","type":"uint256"},{"internalType":"uint256","name":"challengesCompleted","type":"uint256"},{"internalType":"uint256","name":"nftsStaked","type":"uint256"},{"internalType":"uint256","name":"totalBonusEarned","type":"uint256"},{"internalType":"bool","name":"claimedReward","type":"bool"}],"internalType":"struct DynamicClueNFT.EventParticipation","name":"","type":"tuple"}],"stateMutability":"view","type":"function"},{"inputs":[{"internalType":"uint256","name":"tokenId","type":"uint256"}],"name":"getEvolutionState","outputs":[{"components":[{"internalType":"uint256","name":"level","type":"uint256"},{"internalType":"uint256","name":"experience","type":"uint256"},{"internalType":"uint256","name":"cluesCollected","type":"uint256"},{"internalType":"uint256","name":"lastEvolution","type":"uint256"}],"internalType":"struct DynamicClueNFT.EvolutionState","name":"","type":"tuple"}],"stateMutability":"view","type":"function"},{"inputs":[{"internalType":"uint256","name":"faction","type":"uint256"}],"name":"getFactionScore","outputs":[{"internalType":"uint256","name":"","type":"uint256"}],"stateMutability":"view","type":"function"},{"inputs":[{"internalType":"address","name":"player","type":"address"}],"name":"getPlayerClues","outputs":[{"internalType":"uint256[]","name":"","type":"uint256[]"}],"stateMutability":"view","type":"function"},{"inputs":[{"internalType":"uint256","name":"tournamentId","type":"uint256"}],"name":"getTournamentParticipants","outputs":[{"internalType":"address[]","name":"","type":"address[]"}],"stateMutability":"view","type":"function"},{"inputs":[{"internalType":"address","name":"user","type":"address"}],"name":"getUserStakes","outputs":[{"internalType":"uint256[]","name":"","type":"uint256[]"}],"stateMutability":"view","type":"function"},{"inputs":[{"internalType":"address","name":"user","type":"address"}],"name":"getUserTournaments","outputs":[{"internalType":"uint256[]","name":"","type":"uint256[]"}],"stateMutability":"view","type":"function"},{"inputs":[{"internalType":"address","name":"owner","type":"address"},{"internalType":"address","name":"operator","type":"address"}],"name":"isApprovedForAll","outputs":[{"internalType":"bool","name":"","type":"bool"}],"stateMutability":"view","type":"function"},{"inputs":[{"internalType":"uint256","name":"tournamentId","type":"uint256"}],"name":"joinTournament","outputs":[],"stateMutability":"payable","type":"function"},{"inputs":[{"internalType":"address","name":"","type":"address"}],"name":"lastChallengeCompletion","outputs":[{"internalType":"uint256","name":"","type":"uint256"}],"stateMutability":"view","type":"function"},{"inputs":[{"internalType":"uint256","name":"tokenId","type":"uint256"},{"internalType":"uint256","name":"price","type":"uint256"}],"name":"listNFT","outputs":[],"stateMutability":"nonpayable","type":"function"},{"inputs":[{"internalType":"uint256","name":"","type":"uint256"}],"name":"listings","outputs":[{"internalType":"uint256","name":"tokenId","type":"uint256"},{"internalType":"address","name":"seller","type":"address"},{"internalType":"uint256","name":"price","type":"uint256"},{"internalType":"bool","name":"active","type":"bool"}],"stateMutability":"view","type":"function"},{"inputs":[{"internalType":"address","name":"to","type":"address"},{"internalType":"uint256","name":"faction","type":"uint256"},{"internalType":"uint256","name":"difficulty","type":"uint256"},{"internalType":"bytes32","name":"clueHash","type":"bytes32"}],"name":"mintClue","outputs":[],"stateMutability":"payable","type":"function"},{"inputs":[{"internalType":"address","name":"to","type":"address"},{"internalType":"uint256","name":"eventId","type":"uint256"}],"name":"mintSpecialEventNFT","outputs":[],"stateMutability":"nonpayable","type":"function"},{"inputs":[],"name":"name","outputs":[{"internalType":"string","name":"","type":"string"}],"stateMutability":"view","type":"function"},{"inputs":[],"name":"nextEventId","outputs":[{"internalType":"uint256","name":"","type":"uint256"}],"stateMutability":"view","type":"function"},{"inputs":[],"name":"nextTournamentId","outputs":[{"internalType":"uint256","name":"","type":"uint256"}],"stateMutability":"view","type":"function"},{"inputs":[],"name":"owner","outputs":[{"internalType":"address","name":"","type":"address"}],"stateMutability":"view","type":"function"},{"inputs":[{"internalType":"uint256","name":"tokenId","type":"uint256"}],"name":"ownerOf","outputs":[{"internalType":"address","name":"","type":"address"}],"stateMutability":"view","type":"function"},{"inputs":[{"internalType":"address","name":"","type":"address"},{"internalType":"uint256","name":"","type":"uint256"}],"name":"playerClues","outputs":[{"internalType":"uint256","name":"","type":"uint256"}],"stateMutability":"view","type":"function"},{"inputs":[{"internalType":"address","name":"","type":"address"}],"name":"playerFactions","outputs":[{"internalType":"enum DynamicClueNFT.Faction","name":"","type":"uint8"}],"stateMutability":"view","type":"function"},{"inputs":[{"internalType":"address","name":"","type":"address"}],"name":"playerPoints","outputs":[{"internalType":"uint256","name":"","type":"uint256"}],"stateMutability":"view","type":"function"},{"inputs":[{"internalType":"address","name":"player","type":"address"}],"name":"playerToken","outputs":[{"internalType":"uint256","name":"","type":"uint256"}],"stateMutability":"view","type":"function"},{"inputs":[{"internalType":"uint256","name":"numReveals","type":"uint256"},{"internalType":"uint256","name":"durationSeconds","type":"uint256"}],"name":"randomReveal","outputs":[],"stateMutability":"payable","type":"function"},{"inputs":[{"internalType":"uint256","name":"requestId","type":"uint256"},{"internalType":"uint256[]","name":"randomWords","type":"uint256[]"}],"name":"rawFulfillRandomWords","outputs":[],"stateMutability":"nonpayable","type":"function"},{"inputs":[{"internalType":"address","name":"","type":"address"}],"name":"referralRewards","outputs":[{"internalType":"uint256","name":"","type":"uint256"}],"stateMutability":"view","type":"function"},{"inputs":[{"internalType":"address","name":"","type":"address"}],"name":"referrers","outputs":[{"internalType":"address","name":"","type":"address"}],"stateMutability":"view","type":"function"},{"inputs":[],"name":"renounceOwnership","outputs":[],"stateMutability":"nonpayable","type":"function"},{"inputs":[{"internalType":"uint256","name":"","type":"uint256"}],"name":"s_requests","outputs":[{"internalType":"uint256","name":"","type":"uint256"}],"stateMutability":"view","type":"function"},{"inputs":[{"internalType":"address","name":"from","type":"address"},{"internalType":"address","name":"to","type":"address"},{"internalType":"uint256","name":"tokenId","type":"uint256"}],"name":"safeTransferFrom","outputs":[],"stateMutability":"nonpayable","type":"function"},{"inputs":[{"internalType":"address","name":"from","type":"address"},{"internalType":"address","name":"to","type":"address"},{"internalType":"uint256","name":"tokenId","type":"uint256"},{"internalType":"bytes","name":"data","type":"bytes"}],"name":"safeTransferFrom","outputs":[],"stateMutability":"nonpayable","type":"function"},{"inputs":[{"internalType":"uint256","name":"","type":"uint256"}],"name":"seasonalEvents","outputs":[{"internalType":"uint256","name":"id","type":"uint256"},{"internalType":"string","name":"name","type":"string"},{"internalType":"string","name":"theme","type":"string"},{"internalType":"uint256","name":"startTime","type":"uint256"},{"internalType":"uint256","name":"endTime","type":"uint256"},{"internalType":"uint256","name":"tournamentMultiplier","type":"uint256"},{"internalType":"uint256","name":"challengeMultiplier","type":"uint256"},{"internalType":"uint256","name":"stakingMultiplier","type":"uint256"},{"internalType":"bool","name":"active","type":"bool"},{"internalType":"uint256","name":"specialNFTsMinted","type":"uint256"},{"internalType":"uint256","name":"maxSpecialNFTs","type":"uint256"}],"stateMutability":"view","type":"function"},{"inputs":[{"internalType":"address","name":"operator","type":"address"},{"internalType":"bool","name":"approved","type":"bool"}],"name":"setApprovalForAll","outputs":[],"stateMutability":"nonpayable","type":"function"},{"inputs":[{"internalType":"address","name":"referee","type":"address"},{"internalType":"address","name":"referrer","type":"address"}],"name":"setReferrer","outputs":[],"stateMutability":"nonpayable","type":"function"},{"inputs":[{"internalType":"string","name":"solution","type":"string"}],"name":"solveDailyChallenge","outputs":[],"stateMutability":"nonpayable","type":"function"},{"inputs":[{"internalType":"uint256","name":"tokenId","type":"uint256"},{"internalType":"uint256","name":"durationDays","type":"uint256"}],"name":"stakeNFT","outputs":[],"stateMutability":"nonpayable","type":"function"},{"inputs":[{"internalType":"uint256","name":"","type":"uint256"}],"name":"stakes","outputs":[{"internalType":"uint256","name":"tokenId","type":"uint256"},{"internalType":"address","name":"staker","type":"address"},{"internalType":"uint256","name":"stakedAt","type":"uint256"},{"internalType":"uint256","name":"duration","type":"uint256"},{"internalType":"uint256","name":"rewardMultiplier","type":"uint256"}],"stateMutability":"view","type":"function"},{"inputs":[{"internalType":"bytes4","name":"interfaceId","type":"bytes4"}],"name":"supportsInterface","outputs":[{"internalType":"bool","name":"","type":"bool"}],"stateMutability":"view","type":"function"},{"inputs":[],"name":"symbol","outputs":[{"internalType":"string","name":"","type":"string"}],"stateMutability":"view","type":"function"},{"inputs":[{"internalType":"uint256","name":"tokenId","type":"uint256"}],"name":"tokenURI","outputs":[{"internalType":"string","name":"","type":"string"}],"stateMutability":"view","type":"function"},{"inputs":[{"internalType":"uint256","name":"","type":"uint256"}],"name":"tournaments","outputs":[{"internalType":"uint256","name":"id","type":"uint256"},{"internalType":"string","name":"name","type":"string"},{"internalType":"uint256","name":"entryFee","type":"uint256"},{"internalType":"uint256","name":"startTime","type":"uint256"},{"internalType":"uint256","name":"endTime","type":"uint256"},{"internalType":"uint256","name":"prizePool","type":"uint256"},{"internalType":"bool","name":"active","type":"bool"},{"internalType":"address","name":"winner","type":"address"}],"stateMutability":"view","type":"function"},{"inputs":[{"internalType":"address","name":"from","type":"address"},{"internalType":"address","name":"to","type":"address"},{"internalType":"uint256","name":"tokenId","type":"uint256"}],"name":"transferFrom","outputs":[],"stateMutability":"nonpayable","type":"function"},{"inputs":[{"internalType":"address","name":"newOwner","type":"address"}],"name":"transferOwnership","outputs":[],"stateMutability":"nonpayable","type":"function"},{"inputs":[{"internalType":"uint256","name":"tokenId","type":"uint256"}],"name":"unstakeNFT","outputs":[],"stateMutability":"nonpayable","type":"function"},{"inputs":[{"internalType":"address","name":"","type":"address"},{"internalType":"uint256","name":"","type":"uint256"}],"name":"userStakes","outputs":[{"internalType":"uint256","name":"","type":"uint256"}],"stateMutability":"view","type":"function"},{"inputs":[{"internalType":"address","name":"","type":"address"},{"internalType":"uint256","name":"","type":"uint256"}],"name":"userTournaments","outputs":[{"internalType":"uint256","name":"","type":"uint256"}],"stateMutability":"view","type":"function"},{"inputs":[{"internalType":"uint256","name":"","type":"uint256"}],"name":"vrfRequests","outputs":[{"internalType":"enum DynamicClueNFT.RequestType","name":"requestType","type":"uint8"},{"internalType":"address","name":"requester","type":"address"},{"internalType":"uint256","name":"targetTokenId","type":"uint256"},{"internalType":"enum DynamicClueNFT.Faction","name":"targetFaction","type":"uint8"},{"internalType":"enum DynamicClueNFT.Faction","name":"thiefFaction","type":"uint8"}],"stateMutability":"view","type":"function"}],"evm":{"bytecode":{"linkReferences":{},"object":"60a03462000443576001600160401b0390601f1990601f906200574e3881900383810185168301868111848210176200042d578392829160405283396020928391810103126200044357519184831683036200044357600b546001600160a01b0395908616916200006f62000448565b93600e85526d111e5b985b5a58d0db1d5953919560921b818601526200009462000448565b9060058252641110d3919560da1b818301528551978489116200042d576000988954976001988981811c9116801562000422575b858210146200040e57908187849311620003bb575b5084908783116001146200035a578c926200034e575b5050600019600383901b1c191690881b1789555b82519485116200033a5786548781811c911680156200032f575b838210146200031b57908185879695949311620002c2575b50819385116001146200025d575050879262000251575b5050600019600383901b1c191690831b1782555b608052600780546001600160a01b0319808216339081179093556040519690959291167f8be0079c531659141344cd1fd0a4f28419497f9722a3daafe3b4186f6b6457e08380a381600855735c210ef41cd1a72de73bf76ec39637bb0d3d7bee8094600b541617600b5566010003000186a060018060501b0319600d541617600d558160215560225580602355602455600a5490600160a01b600160e01b039060a01b169063ffffffff60e01b161717600a557f9e1344a1247c8a1785d0a6751e63be47de3e7b5c7fd7e0f24df0e0e1e3f0e8f8600c556152e5908162000469823960805181613dd20152f35b01519050388062000150565b87959392919316858a52838a20938a905b828210620002a857505084116200028e575b505050811b01825562000164565b015160001960f88460031b161c1916905538808062000280565b84840151865589979095019493840193908101906200026e565b909192939450878a52828a208580880160051c82019285891062000311575b9188978b9297969594930160051c01915b8281106200030257505062000139565b8c81558897508a9101620002f2565b92508192620002e1565b634e487b7160e01b8a52602260045260248afd5b90607f169062000121565b634e487b7160e01b89526041600452602489fd5b015190503880620000f3565b908c91858c9516838052878420935b88828210620003a457505084116200038a575b505050811b01895562000107565b015160001960f88460031b161c191690553880806200037c565b8385015186558e9790950194938401930162000369565b9091508b8052848c208780850160051c82019287861062000404575b918c91869594930160051c01915b828110620003f5575050620000dd565b8e81558594508c9101620003e5565b92508192620003d7565b634e487b7160e01b8c52602260045260248cfd5b90607f1690620000c8565b634e487b7160e01b600052604160045260246000fd5b600080fd5b60408051919082016001600160401b038111838210176200042d5760405256fe608080604052600436101561001357600080fd5b60003560e01c90816301352be7146142615750806301ffc9a7146141d957806306fdde0314614136578063081812fc14614118578063095ea7b314613f9e5780630d796cb814613f765780630f1a290514613f5a5780631a1d925214613ed15780631fe543e314613d5757806323b872dd14613d33578063268da74d14613968578063305a67a8146138e657806330f37c7f1461383c57806333ae955e146137f8578063394c779a1461358a5780633f706d911461356e57806342842e0e1461353b578063431744c3146124ae57806346be4cb5146132245780634a3b68cc146131e95780634f84d9fd146131b457806351cecc8014612fe357806351ed828814612e425780635223ab2d14612df457806353aaa63b14612dba5780635c9302c914612d9c5780636352211e14612d6c57806365a372e014612ca0578063685ad31514612bf55780636dcee4ca146129155780636f6cb6bc146128f357806370a082311461285c578063715018a6146128115780637503e1b7146127725780637a2bf2771461262757806381872b5e146125af57806381a96af51461257557806384147b611461252b578063842e2981146124b357806384a3a0f3146124ae578063852efc3d1461249057806387c35bc0146123745780638a78ec4d146120f55780638da5cb5b146120cc5780638f4d99641461207e57806394383f1414611f7357806395d89b4114611eae5780639b211fc414611e745780639b4b2c9c14611d945780639f9d903a14611d76578063a168fa8914611d4a578063a22cb46514611c7f578063a69d25ab14611bfb578063aa3b47c014611a33578063b06ae5b0146119a4578063b3cbc19e146117c6578063b5d5b5fa1461177c578063b88d4fde146116f5578063bbddaca31461164c578063c002d23d1461162a578063c13d4ec414611601578063c1dfa0bb14611376578063c2a8b11b146112bb578063c50a57f314611049578063c87b56dd14610f30578063c8b1f25c14610eff578063d115cac614610c93578063d2a3d24014610bff578063d4d9a7fb14610be1578063d5a44f8614610b82578063d932098514610acc578063d981cab41461086f578063dbd486a614610769578063de74e57b1461070e578063e985e9c5146106b8578063ebf03feb14610560578063eed5e8d614610508578063f2fde38b14610457578063f31229cc146103c25763f7316de71461038f57600080fd5b346103bd5760403660031901126103bd5760206103b56103ad614457565b600435614db0565b604051908152f35b600080fd5b346103bd5760203660031901126103bd576004356000526018602052604060002080546103f1600183016146a9565b916002810154906003810154906005600482015491015491610425604051968796875260e0602088015260e087019061441c565b6040860194909452606085015260ff81161515608085015260081c6001600160a01b031660a084015260c08301520390f35b346103bd5760203660031901126103bd57610470614441565b6104786147bb565b6001600160a01b039081169081156104b457600780546001600160a01b03198116841790915516600080516020615230833981519152600080a3005b60405162461bcd60e51b815260206004820152602660248201527f4f776e61626c653a206e6577206f776e657220697320746865207a65726f206160448201526564647265737360d01b6064820152608490fd5b346103bd5760403660031901126103bd57610521614441565b6001600160a01b03166000908152601760205260409020805460243591908210156103bd576020916105529161478a565b90546040519160031b1c8152f35b346103bd576020806003193601126103bd576004359061057e6147bb565b81600052601f81526003604060002001541561067d5781600052601f815260036040600020015442106106415781600052601f8152600460406000200154421161060b57601f90602254806105ef575b5082600052526008604060002001600160ff19825416179055602255600080f35b600052818152600860406000200160ff198154169055836105ce565b6064906040519062461bcd60e51b82526004820152600f60248201526e115d995b9d081a185cc8195b991959608a1b6044820152fd5b6064906040519062461bcd60e51b825260048201526015602482015274115d995b9d081b9bdd081cdd185c9d1959081e595d605a1b6044820152fd5b6064906040519062461bcd60e51b825260048201526014602482015273115d995b9d08191bd95cc81b9bdd08195e1a5cdd60621b6044820152fd5b346103bd5760403660031901126103bd576106d1614441565b6106d9614457565b9060018060a01b03809116600052600560205260406000209116600052602052602060ff604060002054166040519015158152f35b346103bd5760203660031901126103bd57600435600052601c6020526080604060002080549060018060a01b036001820154169060ff6003600283015492015416916040519384526020840152604083015215156060820152f35b346103bd5760403660031901126103bd5760e0610784614457565b60405161079081614507565b60008152600060c060209282848201528260408201528260608201528260808201528260a08201520152600435600052808052604060002060018060a01b0380931660005281526040600020604051916107e983614507565b815493848452806001840154169180850192835260028401549060408601918252600385015492606087019384526004860154946080880195865260c060ff600660058a01549960a08c019a8b52015416980197151588526040519889525116908701525160408601525160608501525160808401525160a083015251151560c0820152f35b61087836614659565b61089261088a33610e10840485614d55565b341015614fc4565b600a54600c5490600d5491604051906305d3b1d360e41b8252600482015260249160018060401b038160a01c168383015260209361ffff81861c16604484015263ffffffff90818116606485015260301c166084830152838260a481600060018060a01b038096165af1918215610ac057600092610a91575b50604051610918816144b5565b60028152848101903382526040810160008152606082019360008552608083019360008552601554600160401b811015610a7c5780600161095c920160155561446d565b949094610a6757516003811015610a52579161098b91600295949360ff80198754169116178555511683614e24565b5160018201550191516004811015610a3d576109a79083614e0c565b516004811015610a2857815461ff00191660089190911b61ff0016179055601554600019810192908311610a145750600052601082526040600020556040519283528201527f236ea7d9908e78ae51aa5c8c4f7c86966899c44c432a0e0d009ebbbb8375540460403392a2005b634e487b7160e01b60009081526011600452fd5b83634e487b7160e01b60005260216004526000fd5b84634e487b7160e01b60005260216004526000fd5b88634e487b7160e01b60005260216004526000fd5b88634e487b7160e01b60005260006004526000fd5b88634e487b7160e01b60005260416004526000fd5b9091508381813d8311610ab9575b610aa98183614558565b810103126103bd5751908661090b565b503d610a9f565b6040513d6000823e3d90fd5b346103bd5760603660031901126103bd576004356044356001600160401b0381116103bd57610aff903690600401614619565b50610b086147bb565b80600052600f6020526001604060002001610b266024358254615003565b905580600052600f6020526064600160406000200154049060018201809211610b6c57600052600f60205260406000209081548111610b6157005b815542600390910155005b634e487b7160e01b600052601160045260246000fd5b346103bd5760203660031901126103bd57600435600052601d60205260a06040600020805490600180841b0360018201541690600281015460046003830154920154926040519485526020850152604084015260608301526080820152f35b346103bd5760003660031901126103bd576020602254604051908152f35b346103bd5760203660031901126103bd5760006060604051610c20816144ec565b8281528260208201528260408201520152600435600052600f60205260806040600020604051610c4f816144ec565b815491828252600181015460208301908152606060036002840154936040860194855201549301928352604051938452516020840152516040830152516060820152f35b6020806003193601126103bd5760043590610cac614e6c565b8160005260168152604060002060ff60078201541615610ec2576004810154421015610e8a5760028101543410610e4c57600090600681018054925b838110610de65750600160401b831015610dd05782610d0e91600160059501815561478a565b81549060031b9033821b9160018060a01b03901b191617905501610d33348254615003565b90553360005260178152610d4b826040600020614e49565b60225480151580610db6575b610d8a575b33837f089ca95d0269f7f17639b228ef19cf566aac5ec3343bf708a77a0b924ab96ab8600080a36001600855005b60005280805260406000209033600052526002604060002001610dad8154615172565b90558180610d5c565b5080600052601f825260ff60086040600020015416610d57565b634e487b7160e01b600052604160045260246000fd5b610df0818361478a565b905460039190911b1c6001600160a01b03163314610e1657610e1190615172565b610ce8565b60405162461bcd60e51b815260048101869052600e60248201526d105b1c9958591e481a9bda5b995960921b6044820152606490fd5b60405162461bcd60e51b8152600481018390526016602482015275496e73756666696369656e7420656e7472792066656560501b6044820152606490fd5b60405162461bcd60e51b815260048101839052601060248201526f151bdd5c9b985b595b9d08195b99195960821b6044820152606490fd5b60405162461bcd60e51b8152600481018390526015602482015274546f75726e616d656e74206e6f742061637469766560581b6044820152606490fd5b346103bd5760203660031901126103bd5760043560048110156103bd57610f276020916147a2565b54604051908152f35b346103bd576020806003193601126103bd5760043560008181526002835260409020546001600160a01b03161561100d57610f6a90615010565b90610ff56048610f7942615010565b936040519485917f68747470733a2f2f7661756c74776172732e76657263656c2e6170702f61706986840152642f6e66742f60d81b6040840152610fc681518092886045870191016143f9565b8201623f763d60e81b6045820152610fe6825180938887850191016143f9565b01036028810185520183614558565b61100960405192828493845283019061441c565b0390f35b60405162461bcd60e51b8152600481018390526014602482015273151bdad95b88191bd95cc81b9bdd08195e1a5cdd60621b6044820152606490fd5b346103bd5760403660031901126103bd57611062614441565b60243561106d6147bb565b80600052602091601f835260ff60086040600020015416156112835781600052601f83526040600020600a6009820154910154111561124357600954916001830160095580600052601f845260096040600020016110cb8154615172565b90556110d78383614f0d565b604051848101917014dc1958da585b08115d995b9d08139195607a1b835260318201528360518201526051815261110d816144ec565b5190209060405161111d816144d0565b83815284810160038152604082019060058252606083019485526080830130815260a084019542875260c085016000815260e08601926000845261010087019360008552610120880195606487528b600052600e8d526040600020985189555193600485101561122d5760089761119a6111ea9660018c01614e0c565b5160028a015551600389015590516004880180546001600160a01b0319166001600160a01b03928316179055985160058801559051600687019189916111e290151584614b46565b511690614e24565b51600784015551910155166000526013825261120a816040600020614e49565b6005604051926003845283015260008051602061529083398151915260403093a3005b634e487b7160e01b600052602160045260246000fd5b60405162461bcd60e51b815260048101849052601860248201527713585e081cdc1958da585b081391951cc81c995858da195960421b6044820152606490fd5b60405162461bcd60e51b815260048101849052601060248201526f4576656e74206e6f742061637469766560801b6044820152606490fd5b346103bd576020806003193601126103bd5760043560005260168152600660406000200160405190818382549182815201908192600052846000209060005b8682821061135957868661131082880383614558565b604051928392818401908285525180915260408401929160005b82811061133957505050500390f35b83516001600160a01b03168552869550938101939281019260010161132a565b83546001600160a01b0316855290930192600192830192016112fa565b346103bd576020806003193601126103bd576004359081600052601d8152604060002091604051916113a7836144b5565b8354835260019260018060a01b038486015416948583830152600281015460408301908152600396608060048985015494606087019586520154940193845233036115cf575190516113f891615003565b421061158c575166038d7ea4c6800090818102918183041490151715610b6c5760649004938460008115611583575b600080809381933390f115610ac05782600052601d82526000600460408220828155828782015582600282015582848201550155836000905b611482575b8584600080516020615270833981519152856040519384523393a3005b33600052601e8084526040600020805483101561157c576114a483879261478a565b905490851b1c146114bf57506114b990615172565b84611460565b9093945033600052808352604060002080549460001995868101908111610b6c576114f0611508916115219461478a565b905490861b1c9133600052848752604060002061478a565b90919082549060031b91821b91600019901b1916179055565b336000528252604060002080549384156115665780600080516020615270833981519152950192611552848461478a565b81939154921b1b1916905555829185611465565b634e487b7160e01b600052603160045260246000fd5b5050611465565b506108fc611427565b60405162461bcd60e51b815260048101839052601b60248201527a5374616b696e6720706572696f64206e6f7420636f6d706c65746560281b6044820152606490fd5b60405162461bcd60e51b815260048101859052600a6024820152692737ba1039ba30b5b2b960b11b6044820152606490fd5b346103bd5760003660031901126103bd5761161a6147bb565b611625602454615172565b602455005b346103bd5760003660031901126103bd576020604051662386f26fc100008152f35b346103bd5760403660031901126103bd57611665614441565b61166d614457565b906116766147bb565b6001600160a01b039081166000818152601a602052604090205482166116b9576000908152601a6020526040902080546001600160a01b03191691909216179055005b60405162461bcd60e51b8152602060048201526014602482015273149959995c9c995c88185b1c9958591e481cd95d60621b6044820152606490fd5b346103bd5760803660031901126103bd5761170e614441565b611716614457565b90606435906044356001600160401b0383116103bd57366023840112156103bd5761177a936117526117759436906024816004013591016145e2565b926117656117608433614982565b6148a9565b611770838383614a4a565b614c94565b61495e565b005b346103bd5760403660031901126103bd57611795614441565b6001600160a01b03166000908152601e60205260409020805460243591908210156103bd576020916105529161478a565b346103bd5760603660031901126103bd576001600160401b036004358181116103bd576117f7903690600401614619565b906118006147bb565b602454906040519261181184614507565b828452602090818501908152604085016024358152606086019160443583526080870194600180875260a08901956000875260c08a019860008a5260005260188152604060002099518a55818a0193518051938411610dd057611874855461466f565b601f8111611969575b5081601f85116001146118f45750928060059a9997959381936118e39a98966000946118e9575b50501b916000199060031b1c19161790555b5160028801555160038701556118d3600487019251151583614b46565b516001600160a01b031690614e24565b51910155005b015192508d806118a4565b9190601f9493941984168660005283600020936000905b828210611952575050916118e399979593918560059d9c9a98969410611939575b505050811b0190556118b6565b015160001960f88460031b161c191690558b808061192c565b80888697829497870151815501960194019061190b565b611994908660005283600020601f870160051c81019185881061199a575b601f0160051c0190615181565b8b61187d565b9091508190611987565b346103bd5760403660031901126103bd5760e06119bf614457565b60043560005260208052604060002060018060a01b038092166000526020526040600020805491600182015416906002810154600382015460048301549160ff600660058601549501541694604051968752602087015260408601526060850152608084015260a0830152151560c0820152f35b346103bd576020806003193601126103bd57600435611a506147bb565b80600052601682526040600020916007830190815460ff811615611bbb5760048501544210801590611bac575b15611b6c5760ff19168255600684018054908115908115611a9a57005b6040805142868201908152818301899052918152606081016001600160401b03811182821017610dd05760405251902091611b5657611af692611ade92069061478a565b90546001600160a01b03929160031b1c821684614e24565b6000808080600587549901988954908683918315611b4c575b60081c1690f115610ac0577f8941bade03a3d102784a43ef492d1a5dc2ad4f31419c6f7786234532b108d099925460081c169354604051908152a3005b6108fc9250611b0f565b634e487b7160e01b600052601260045260246000fd5b60405162461bcd60e51b8152600481018390526018602482015277546f75726e616d656e74207374696c6c2072756e6e696e6760401b6044820152606490fd5b50600a60068601541015611a7d565b60405162461bcd60e51b8152600481018390526018602482015277151bdd5c9b985b595b9d08185b1c9958591e48195b99195960421b6044820152606490fd5b346103bd576020806003193601126103bd576001600160a01b03611c1d614441565b1660005260138152604060002090604051908181845491828152019360005281600020916000905b828210611c685761100985611c5c81890382614558565b6040519182918261474f565b835486529485019460019384019390910190611c45565b346103bd5760403660031901126103bd57611c98614441565b60243590811515908183036103bd576001600160a01b031691338314611d0957611cdb903360005260056020526040600020846000526020526040600020614b46565b6040519081527f17307eab39ab6107e8899845ad3d59bd9653f200f220920489ca2b5937696c3160203392a3005b60405162461bcd60e51b815260206004820152601960248201527822a9219b99189d1030b8383937bb32903a379031b0b63632b960391b6044820152606490fd5b346103bd5760203660031901126103bd5760043560005260106020526020604060002054604051908152f35b346103bd5760003660031901126103bd576020602154604051908152f35b346103bd5760003660031901126103bd57336000526020601a815260018060a01b0390816040600020541615611e3e5733600052601b8152611ddb60406000205415615198565b33600052601b815266038d7ea4c6800091826040600020556000808080863382f115610ac0577f53958b9c644a1d5529da7c36929d59417eb9a996f08e02a52632bfe20c92ef489033600052601a835260406000205416916040519384523393a3005b6064906040519062461bcd60e51b82526004820152600f60248201526e139bc81c9959995c9c995c881cd95d608a1b6044820152fd5b346103bd5760203660031901126103bd576001600160a01b03611e95614441565b1660005260146020526020604060002054604051908152f35b346103bd5760003660031901126103bd5760405160009060018054611ed28161466f565b80845290828116908115611f4b5750600114611f0d575b61100983611ef981870382614558565b60405191829160208352602083019061441c565b92508060005260209283600020916000925b828410611f3857505050810190910190611ef981611ee9565b8054858501870152928501928101611f1f565b6110099550611ef993506020915091849260ff191682840152151560051b8201019350611ee9565b346103bd57611f8136614659565b90611f8b8161485a565b6001600160a01b0390611fa190821633146151dd565b821561203a5761200c90600360405191611fba836144ec565b84835260208301338152604084019087825260608501926001845287600052601c6020526040600020955186556001860191511660018060a01b03198254161790555160028401555115159101614b46565b6040519182527f5f9c03de076f5063cd3ebcfe8ef7aa8af378e4b35a83c77ba9777e97083879a260203393a3005b60405162461bcd60e51b815260206004820152601c60248201527b05072696365206d7573742062652067726561746572207468616e20360241b6044820152606490fd5b60203660031901126103bd5760043561209e61088a33610e108404614db0565b6040519081527f0ee8cfda0c67f1acd18ff57b5828f18514d204f62f1a359e195515a940a2b77a60203392a2005b346103bd5760003660031901126103bd576007546040516001600160a01b039091168152602090f35b346103bd576020806003193601126103bd576004356001600160401b0381116103bd57612126903690600401614619565b6024908154908160005260188452604060002091600483019182549160ff83161561233a57336000526019875260406000205410156122fc5760405161218887828161217b81830196878151938492016143f9565b8101038084520182614558565b5190206002840154036122c75760ff19168155600391906121aa903390614e24565b42600582015582543360005260198552604060002055019081549160225490811515806122ad575b61222e575b50508160008115612225575b600080809381933390f115610ac05754916040519283528201527f523e61d558556aa27ac8542575a674429f457748b192afb77e231a53f8e1b9b560403392a2005b506108fc6121e3565b606461224f839561227d94600052601f885260066040600020015490614d35565b0493600052848052604060002033600052855260036040600020016122748154615172565b90555483614d48565b60225460005283805260406000203360005284526122a46005604060002001918254615003565b905583806121d7565b5081600052601f855260ff600860406000200154166121d2565b60405162461bcd60e51b815260048101869052600e818601526d2bb937b7339039b7b63aba34b7b760911b6044820152606490fd5b60405162461bcd60e51b81526004810187905260178187015276416c726561647920636f6d706c6574656420746f64617960481b6044820152606490fd5b60405162461bcd60e51b815260048101889052601381880152724e6f20616374697665206368616c6c656e676560681b6044820152606490fd5b346103bd5760003660031901126103bd57604051610ca081016001600160401b03811182821017610dd0576040526064808252602091610c80368483013760095460009260019182805b612430575b505050506123d08261457b565b926123de6040519485614558565b828452601f196123ed8461457b565b0190369085013760005b82811061240c5760405180611009868261474f565b8061241a61242b928461521b565b51612425828761521b565b52615172565b6123f7565b8181111580612487575b156124825780600052601c875260ff60036040600020015416612467575b61246190615172565b836123be565b9461247a8187612425612461948961521b565b959050612458565b6123c3565b5082861061243a565b346103bd5760003660031901126103bd576020602354604051908152f35b614637565b346103bd576020806003193601126103bd576001600160a01b036124d5614441565b16600052601e8152604060002090604051908181845491828152019360005281600020916000905b8282106125145761100985611c5c81890382614558565b8354865294850194600193840193909101906124fd565b346103bd5760403660031901126103bd57612544614441565b6001600160a01b03166000908152601360205260409020805460243591908210156103bd576020916105529161478a565b346103bd5760203660031901126103bd576001600160a01b03612596614441565b1660005260196020526020604060002054604051908152f35b346103bd576020806003193601126103bd576001600160a01b036125d1614441565b1660005260178152604060002090604051908181845491828152019360005281600020916000905b8282106126105761100985611c5c81890382614558565b8354865294850194600193840193909101906125f9565b346103bd576020806003193601126103bd5760043590612645614e6c565b81600052601f815260046040600020015442111561273957816000528080526040600020336000528152600560406000200154156126ff57600080808481948183528080526040832033845281526126a760ff60066040862001541615615198565b818352808052604083203384528152600560408420015491835280805260408320903384525260066040832001600160ff198254161790558181156126f6575b3390f115610ac0576001600855005b506108fc6126e7565b6064906040519062461bcd60e51b8252600482015260136024820152724e6f207265776172647320746f20636c61696d60681b6044820152fd5b6064906040519062461bcd60e51b8252600482015260126024820152714576656e74207374696c6c2061637469766560701b6044820152fd5b346103bd5760203660031901126103bd576004356000526016602052604060002080546127a1600183016146a9565b91600281015490600381015490600481015460076005830154920154926127da60405197889788526101008060208a015288019061441c565b60408701959095526060860152608085015260a084015260ff8116151560c084015260081c6001600160a01b031660e08301520390f35b346103bd5760003660031901126103bd5761282a6147bb565b600780546001600160a01b031981169091556000906001600160a01b03166000805160206152308339815191528280a3005b346103bd5760203660031901126103bd576001600160a01b0361287d614441565b16801561289c5760005260036020526020604060002054604051908152f35b60405162461bcd60e51b815260206004820152602960248201527f4552433732313a2061646472657373207a65726f206973206e6f7420612076616044820152683634b21037bbb732b960b91b6064820152608490fd5b346103bd5760003660031901126103bd57602060405166071afd498d00008152f35b346103bd576020806003193601126103bd576004359081600052600e81526040600020604051612944816144d0565b81548152610120600860ff600185015416936129638685019586614e00565b600281015460408501526003810154606085015260018060a01b03806004830154166080860152600582015460a0860152600682015460ff8116151560c0870152831c1660e08501526007810154610100850152015491015282600052600f8252604060002090604051906129d7826144ec565b82548252600360018401549385840194855260028101546040850152015460608301528051600481101561122d57612b235750605d90610ff592612a54612a4d612a46604051612a268161453d565b600e81526d21b934b6b9b7b7102632b3b4b7b760911b8982015298615010565b9351615010565b9151615010565b90604051968793767b226e616d65223a2244796e616d696320436c7565202360481b88860152612a8d815180928a6037890191016143f9565b84016c1116113330b1ba34b7b7111d1160991b6037820152612ab8825180938a6044850191016143f9565b01691116113632bb32b6111d60b11b6044820152612adf8251809389604e850191016143f9565b016d161132bc3832b934b2b731b2911d60911b604e820152612b0a8251809388605c850191016143f9565b01607d60f81b605c82015203603d810185520183614558565b8051600481101561122d57600103612b6f5750605d90610ff592612a54612a4d612a46604051612b528161453d565b600b81526a20bd3ab9329027b93232b960a91b8982015298615010565b5190600482101561122d57610ff592605d92600203612bbf57612a54612a4d612a46604051612b9d8161453d565b601081526f56657264616e7420416c6c69616e636560801b8982015298615010565b612a54612a4d612a46604051612bd48161453d565b600f81526e23b7b63232b7102237b6b4b734b7b760891b8982015298615010565b346103bd576020806003193601126103bd576001600160a01b03612c17614441565b16806000526013825260406000205415612c6457600052601381526040600020805415612c4e576000528060002054604051908152f35b634e487b7160e01b600052603260045260246000fd5b60405162461bcd60e51b8152600481018390526014602482015273506c6179657220686173206e6f20746f6b656e7360601b6044820152606490fd5b346103bd5760203660031901126103bd57600435600052601f60205260406000208054612ccf600183016146a9565b91612cdc600282016146a9565b60038201549160048101546005820154600683015460078401549160ff60088601541693612d3a600a600988015497015497612d2c6040519c8d9c8d5260208d61016091829101528d019061441c565b908b820360408d015261441c565b9760608a0152608089015260a088015260c087015260e086015215156101008501526101208401526101408301520390f35b346103bd5760203660031901126103bd576020612d8a60043561485a565b6040516001600160a01b039091168152f35b346103bd5760003660031901126103bd576020602454604051908152f35b346103bd5760203660031901126103bd576001600160a01b03612ddb614441565b16600052601b6020526020604060002054604051908152f35b346103bd5760203660031901126103bd57600435600052600f602052608060406000208054906001810154906003600282015491015491604051938452602084015260408301526060820152f35b6020806003193601126103bd5760043590612e5b614e6c565b81600052601c8152604060002091604051612e75816144ec565b8354815260018060a01b03806001860154169184810192835260ff600360028801549760408401988952015416159060608215910152612fad5784513410612f7157612ec683828451163390614a4a565b600080808084865116895190828215612f68575bf115610ac0578451803411612f3a575b507f8562eb94748e30bb0071e932744ce902b460c683474fcb3bfd567ffa16b1afb29183600052601c8552600360406000200160ff19815416905551169351926040519384523393a46001600855005b60008080612f49819434614d48565b818115612f5f575b3390f115610ac05785612eea565b506108fc612f51565b506108fc612eda565b60405162461bcd60e51b8152600481018590526014602482015273125b9cdd59999a58da595b9d081c185e5b595b9d60621b6044820152606490fd5b60405162461bcd60e51b815260048101859052600e60248201526d139195081b9bdd081b1a5cdd195960921b6044820152606490fd5b346103bd57612ff136614659565b90612ffb8161485a565b6001600160a01b039061301190821633146151dd565b6001831015806131a8575b156131705782600a02600a81048403610b6c576022548181151580613155575b613104575b50506201518090818502918583041485151715610b6c5760049160405193613068856144b5565b858552602085013381526040860191428352606087019384526080870194855287600052601d6020526040600020965187556001870191511660018060a01b03198254161790555160028501555160038401555191015533600052601e6020526130d6816040600020614e49565b6040519182527f7c403feabc47b424ca9fce0347ba2dbf96bc829f0ea06c10ebc13b50e6f6590360203393a3005b81925061312590606492600052601f60205260076040600020015490614d35565b049060005260208052604060002033600052602052600460406000200161314c8154615172565b90558480613041565b5081600052601f60205260ff6008604060002001541661303c565b60405162461bcd60e51b815260206004820152601060248201526f24b73b30b634b210323ab930ba34b7b760811b6044820152606490fd5b5061016d83111561301c565b346103bd5760603660031901126103bd576044356001600160a01b03811681036103bd576103b5602091602435600435614d55565b346103bd5760203660031901126103bd5760206001600160a01b038061320d614441565b16600052601a825260406000205416604051908152f35b346103bd5760603660031901126103bd576004356001600160401b0381116103bd57613254903690600401614619565b604435906132606147bb565b6023549161326d83615172565b602355610e1090818102918183041490151715610b6c5761328e9042615003565b60405161329a81614522565b600081526040519061012082016001600160401b03811183821017610dd05760405284825260208201908482526024356040840152426060840152836080840152600060a084015260c0830152600160e08301526000610100830152846000526016602052604060002090825182555180519060018060401b038211610dd0578190613329600185015461466f565b601f8111613506575b50602090601f831160011461349457600092613489575b50508160011b916000199060031b1c19161760018201555b60408201516002820155606082015160038201556080820151600482015560a0820151600582015560c082015180519060068301906001600160401b038311610dd057600160401b8311610dd057602090825484845580851061346c575b500190600052602060002060005b83811061344f57887ff921e1476612bff3a21b96b63ae8a3ac03579129aad3ed13624285327365837c61343c8a8a6134288b60078c019061341460e0820151151583614b46565b61010001516001600160a01b031690614e24565b60405192839260608452606084019061441c565b90602435602084015260408301520390a2005b82516001600160a01b0316818301556020909201916001016133cd565b613483908460005285846000209182019101615181565b896133bf565b015190508780613349565b9250600184016000526020600020906000935b601f19841685106134eb576001945083601f198116106134d2575b505050811b016001820155613361565b015160001960f88460031b161c191690558780806134c2565b818101518355602094850194600190930192909101906134a7565b61353590600186016000526020600020601f850160051c8101916020861061199a57601f0160051c0190615181565b88613332565b346103bd5761177a61177561354f36614592565b906040519261355d84614522565b600084526117656117608433614982565b346103bd5760003660031901126103bd57602060405160148152f35b60803660031901126103bd5761359e614441565b6024356135a9614e6c565b662386f26fc1000034106137b957600381116137825760095490600182016009556135f16117756040516135dc81614522565b600081526135ea8587614f0d565b8486614b74565b600481101561122d57604051613606816144d0565b82815260208101916136188184614e00565b6040820191604435835260608101926064358452608082019460018060a01b038098169788875260a0840142815260c085016000815260e08601926000845261010087019360008552610120880195600087528c600052600e6020526040600020985189555193600485101561122d576000805160206152908339815191529b60409b6008996136ae6136e79860018e01614e0c565b5160028c01555160038b01558360048b0191511660018060a01b03198254161790555160058901556111e2600689019351151584614b46565b5160078401555191015581516136fc816144ec565b600181526003602082016000815284830160008152606084019142835288600052600f6020528660002094518555516001850155516002840155519101558460005260116020526137508183600020614e0c565b8460005260136020526137668483600020614e49565b6137728251809261448c565b6044356020820152a36001600855005b60405162461bcd60e51b815260206004820152600f60248201526e24b73b30b634b2103330b1ba34b7b760891b6044820152606490fd5b60405162461bcd60e51b8152602060048201526017602482015276496e73756666696369656e74206d696e7420707269636560481b6044820152606490fd5b346103bd5760203660031901126103bd576001600160a01b03613819614441565b166000526011602052602060ff6040600020541661383a604051809261448c565bf35b346103bd5760203660031901126103bd57600435600052600e602052610140604060002080549060ff60018201541690600281015460038201549060018060a01b0391826004850154166005850154916006860154936138b060086007890154980154986040519a8b5260208b019061448c565b60408901526060880152608087015260a086015260ff8116151560c086015260081c1660e0840152610100830152610120820152f35b346103bd5760203660031901126103bd576004356000818152601c60205260409020600101546001600160a01b03163303613936576000908152601c60205260409020600301805460ff19169055005b60405162461bcd60e51b815260206004820152600a6024820152692737ba1039b2b63632b960b11b6044820152606490fd5b346103bd57610100806003193601126103bd576004356001600160401b0381116103bd5761399a903690600401614619565b906024356001600160401b0381116103bd576139ba903690600401614619565b906044356064356139c96147bb565b80821015613cf95742821115613cb55760215491604051946139ea86614499565b8386526020860196875260408601526060850152608084015260843560a084015260a43560c084015260c43560e0840152600082840152600061012084015260e435610140840152600052601f602052604060002092825184555180519060018060401b038211610dd0576001918083870192613a67845461466f565b601f8111613c83575b50602090601f8311600114613c1f57600092613c14575b5050600019600383901b1c191690831b1790555b6040830151805190916001600160401b038211610dd0576002860192613ac1845461466f565b601f8111613be2575b50602090601f8411600114613b6f579280806101409794600a999794613b4497600094613b64575b50501b916000199060031b1c19161790555b606083015160038701556080830151600487015560a0830151600587015560c0830151600687015560e08301516007870155820151151560088601614b46565b61012081015160098501550151910155613b5f602154615172565b602155005b015192508b80613af2565b90601f939293198316918560005260206000209260005b818110613bcc575092613b44959285926101409996600a9b999610613bb3575b505050811b019055613b04565b015160001960f88460031b161c19169055898080613ba6565b8284015185559386019360209384019301613b86565b613c0e90856000526020600020601f860160051c8101916020871061199a57601f0160051c0190615181565b87613aca565b015190508780613a87565b90859350846000526020600020916000601f198516905b818110613c6b57508411613c52575b505050811b019055613a9b565b015160001960f88460031b161c19169055878080613c45565b82840151855588969094019360209384019301613c36565b613caf90856000526020600020601f850160051c8101916020861061199a57601f0160051c0190615181565b88613a70565b60405162461bcd60e51b815260206004820152601c60248201527b53746172742074696d65206d75737420626520696e2066757475726560201b6044820152606490fd5b60405162461bcd60e51b8152602060048201526012602482015271496e76616c69642074696d652072616e676560701b6044820152606490fd5b346103bd5761177a613d4436614592565b91613d526117608433614982565b614a4a565b346103bd5760403660031901126103bd5760248035906001600160401b0382116103bd57366023830112156103bd57816004013591613d958361457b565b92613da36040519485614558565b8084528260208095019160051b830101913683116103bd578301905b828210613ec25783856001600160a01b037f0000000000000000000000000000000000000000000000000000000000000000811633819003613ea5575060043560005260108252613e1460406000205461446d565b509060405191613e23836144b5565b80549060ff8216906003821015613e9057600395613e739460ff94600294885260081c1690860152600181015460408601520154613e6682821660608601614e00565b60081c1660808301614e00565b511015613e7c57005b634e487b7160e01b60009081526021600452fd5b86634e487b7160e01b60005260216004526000fd5b836044916040519163073e64fd60e21b8352336004840152820152fd5b81358152908401908401613dbf565b346103bd5760203660031901126103bd576004356015548110156103bd57613ef89061446d565b5080549060ff82166002600183015492015460405192600383101561122d5791835260089390931c6001600160a01b03166020830152604082015260a09161383a90613f4a6060840160ff831661448c565b60ff608084019160081c1661448c565b346103bd5760003660031901126103bd576020604051600a8152f35b346103bd5760203660031901126103bd57600435600481101561122d57610f276020916147a2565b346103bd5760403660031901126103bd57613fb7614441565b602435906001600160a01b038080613fce8561485a565b169216918083146140c9578033149081156140a4575b501561403957600083815260046020526040902080546001600160a01b031916831790556140118361485a565b167f8c5be1e5ebec7d5bd14f71427d1e84f3dd0314c0f7b2291e5b200ac8c7c3b925600080a4005b60405162461bcd60e51b815260206004820152603d60248201527f4552433732313a20617070726f76652063616c6c6572206973206e6f7420746f60448201527f6b656e206f776e6572206f7220617070726f76656420666f7220616c6c0000006064820152608490fd5b9050600052600560205260406000203360005260205260ff6040600020541684613fe4565b60405162461bcd60e51b815260206004820152602160248201527f4552433732313a20617070726f76616c20746f2063757272656e74206f776e656044820152603960f91b6064820152608490fd5b346103bd5760203660031901126103bd576020612d8a60043561487d565b346103bd5760003660031901126103bd576040516000906000546141598161466f565b808352600191808316908115611f4b57506001146141815761100983611ef981870382614558565b600080805260209450917f290decd9548b62a8d60345a988386fc84ba6bc95484008f6362f93160ef3e5635b8284106141c657505050810190910190611ef981611ee9565b80548585018701529285019281016141ad565b346103bd5760203660031901126103bd5760043563ffffffff60e01b81168091036103bd57602090632483248360e11b811490811561421e575b506040519015158152f35b6380ac58cd60e01b811491508115614250575b811561423f575b5082614213565b6301ffc9a760e01b14905082614238565b635b5e139f60e01b81149150614231565b346103bd5760003660031901126103bd5761014081614281600093614499565b82815260606020820152606060408201528260608201528260808201528260a08201528260c08201528260e082015282610100820152826101208201520152602254600052601f6020526040600020600a604051916142df83614499565b805483526142ef600182016146a9565b6020840152614300600282016146a9565b60408401526003810154606084015260048101546080840152600581015460a0840152600681015460c0840152600781015460e084015260ff6008820154161515610100840152600981015461012084015201546101408201526040518091602082528051602083015260208101516101406143a361438d6101609384604088015261018087019061441c565b6040850151868203601f1901606088015261441c565b9260608101516080860152608081015160a086015260a081015160c086015260c081015160e086015260e08101516101008601526101008101511515610120860152610120810151828601520151908301520390f35b60005b83811061440c5750506000910152565b81810151838201526020016143fc565b90602091614435815180928185528580860191016143f9565b601f01601f1916010190565b600435906001600160a01b03821682036103bd57565b602435906001600160a01b03821682036103bd57565b601554811015612c4e5760156000526003602060002091020190600090565b90600482101561122d5752565b61016081019081106001600160401b03821117610dd057604052565b60a081019081106001600160401b03821117610dd057604052565b61014081019081106001600160401b03821117610dd057604052565b608081019081106001600160401b03821117610dd057604052565b60e081019081106001600160401b03821117610dd057604052565b602081019081106001600160401b03821117610dd057604052565b604081019081106001600160401b03821117610dd057604052565b601f909101601f19168101906001600160401b03821190821017610dd057604052565b6001600160401b038111610dd05760051b60200190565b60609060031901126103bd576001600160a01b039060043582811681036103bd579160243590811681036103bd579060443590565b6001600160401b038111610dd057601f01601f191660200190565b9291926145ee826145c7565b916145fc6040519384614558565b8294818452818301116103bd578281602093846000960137010152565b9080601f830112156103bd57816020614634933591016145e2565b90565b346103bd5760003660031901126103bd57602060405166038d7ea4c680008152f35b60409060031901126103bd576004359060243590565b90600182811c9216801561469f575b602083101461468957565b634e487b7160e01b600052602260045260246000fd5b91607f169161467e565b90604051918260008254926146bd8461466f565b90818452600194858116908160001461472c57506001146146e9575b50506146e792500383614558565b565b9093915060005260209081600020936000915b8183106147145750506146e7935082010138806146d9565b855488840185015294850194879450918301916146fc565b9150506146e794506020925060ff191682840152151560051b82010138806146d9565b6020908160408183019282815285518094520193019160005b828110614776575050505090565b835185529381019392810192600101614768565b8054821015612c4e5760005260206000200190600090565b600481101561122d576000526012602052604060002090565b6007546001600160a01b031633036147cf57565b606460405162461bcd60e51b815260206004820152602060248201527f4f776e61626c653a2063616c6c6572206973206e6f7420746865206f776e65726044820152fd5b1561481a57565b60405162461bcd60e51b8152602060048201526018602482015277115490cdcc8c4e881a5b9d985b1a59081d1bdad95b88125160421b6044820152606490fd5b6000908152600260205260409020546001600160a01b0316614634811515614813565b61488e61488982614b57565b614813565b6000908152600460205260409020546001600160a01b031690565b156148b057565b60405162461bcd60e51b815260206004820152602d60248201527f4552433732313a2063616c6c6572206973206e6f7420746f6b656e206f776e6560448201526c1c881bdc88185c1c1c9bdd9959609a1b6064820152608490fd5b60809060208152603260208201527f4552433732313a207472616e7366657220746f206e6f6e20455243373231526560408201527131b2b4bb32b91034b6b83632b6b2b73a32b960711b60608201520190565b1561496557565b60405162461bcd60e51b81528061497e6004820161490b565b0390fd5b906001600160a01b0380806149968461485a565b169316918383149384156149c9575b5083156149b3575b50505090565b6149bf9192935061487d565b16143880806149ad565b909350600052600560205260406000208260005260205260ff6040600020541692386149a5565b156149f757565b60405162461bcd60e51b815260206004820152602560248201527f4552433732313a207472616e736665722066726f6d20696e636f72726563742060448201526437bbb732b960d91b6064820152608490fd5b90614a7291614a588461485a565b6001600160a01b03939184169284929091831684146149f0565b16918215614af55781614a8f91614a888661485a565b16146149f0565b600080516020615250833981519152600084815260046020526040812060018060a01b03199081815416905583825260036020526040822060001981540190558482526040822060018154019055858252600260205284604083209182541617905580a4565b60405162461bcd60e51b8152602060048201526024808201527f4552433732313a207472616e7366657220746f20746865207a65726f206164646044820152637265737360e01b6064820152608490fd5b9060ff801983541691151516179055565b6000908152600260205260409020546001600160a01b0316151590565b9192600092909190803b15614c8a57614bc2946040518092630a85bd0160e11b9485835233600484015287602484015260448301526080606483015281878160209a8b96608483019061441c565b03926001600160a01b03165af1849181614c46575b50614c35575050503d600014614c2d573d614bf1816145c7565b90614bff6040519283614558565b81528091833d92013e5b80519182614c2a5760405162461bcd60e51b81528061497e6004820161490b565b01fd5b506060614c09565b6001600160e01b0319161492509050565b9091508581813d8311614c83575b614c5e8183614558565b81010312614c7f57516001600160e01b031981168103614c7f579038614bd7565b8480fd5b503d614c54565b5050915050600190565b9293600093909291803b15614d1457948491614cee9660405180948193630a85bd0160e11b9788845233600485015260018060a01b0380921660248501526044840152608060648401528260209b8c97608483019061441c565b0393165af1849181614c465750614c35575050503d600014614c2d573d614bf1816145c7565b505050915050600190565b90605082029180830460501490151715610b6c57565b81810292918115918404141715610b6c57565b91908203918211610b6c57565b9066038d7ea4c680009180830292830403610b6c57614d7391614d35565b6001600160a01b0390911660009081526011602052604090205460ff16600481101561122d5715614da15790565b614dac606491614d1f565b0490565b66071afd498d00009080820291820403610b6c57809160018060a01b0316600052601160205260ff60406000205416600481101561122d57600114614df3575090565b60649150614dac90614d1f565b600482101561122d5752565b90600481101561122d5760ff80198354169116179055565b8054610100600160a81b03191660089290921b610100600160a81b0316919091179055565b80549190600160401b831015610dd057826115089160016146e79501815561478a565b600260085414614e7d576002600855565b60405162461bcd60e51b815260206004820152601f60248201527f5265656e7472616e637947756172643a207265656e7472616e742063616c6c006044820152606490fd5b15614ec957565b60405162461bcd60e51b815260206004820152601c60248201527b115490cdcc8c4e881d1bdad95b88185b1c9958591e481b5a5b9d195960221b6044820152606490fd5b6001600160a01b03168015614f8057614f2e614f2883614b57565b15614ec2565b614f3a614f2883614b57565b6000818152600360209081526040808320805460010190558483526002909152812080546001600160a01b031916831790556000805160206152508339815191528180a4565b606460405162461bcd60e51b815260206004820152602060248201527f4552433732313a206d696e7420746f20746865207a65726f20616464726573736044820152fd5b15614fcb57565b60405162461bcd60e51b815260206004820152601060248201526f496e73756666696369656e742066656560801b6044820152606490fd5b91908201809211610b6c57565b6000908072184f03e93ff9f4daa797ed6e38ed64bf6a1f0160401b80821015615164575b506904ee2d6d415b85acef8160201b80831015615155575b50662386f26fc1000080831015615146575b506305f5e10080831015615137575b5061271080831015615128575b506064821015615118575b600a8092101561510e575b600190816021818601956150a3876145c7565b966150b16040519889614558565b8088526150c0601f19916145c7565b01366020890137860101905b6150d8575b5050505090565b600019019083906f181899199a1a9b1b9c1cb0b131b232b360811b8282061a835304918215615109579190826150cc565b6150d1565b9160010191615090565b9190606460029104910191615085565b6004919392049101913861507a565b6008919392049101913861506d565b6010919392049101913861505e565b6020919392049101913861504c565b604093508104915038615034565b6000198114610b6c5760010190565b81811061518c575050565b60008155600101615181565b1561519f57565b60405162461bcd60e51b815260206004820152601660248201527514995dd85c9908185b1c9958591e4818db185a5b595960521b6044820152606490fd5b156151e457565b60405162461bcd60e51b815260206004820152600f60248201526e2737ba103a37b5b2b71037bbb732b960891b6044820152606490fd5b8051821015612c4e5760209160051b01019056fe8be0079c531659141344cd1fd0a4f28419497f9722a3daafe3b4186f6b6457e0ddf252ad1be2c89b69c2b068fc378daa952ba7f163c4a11628f55a4df523b3ef3ae380bb6fbc0ce7bfc28639ae95e9af825ce794cb6f5a46d4cc13a36adec83ba77d621fb0f24834c2724c3ec9489aa7abf14a8cb8999794cc14bfae9a3f9654a26469706673582212209305692dcbc6e7e78a368db2a50769a22d3b9580446d88e9e18f827e33db642e64736f6c63430008130033","opcodes":"PUSH1 0xA0 CALLVALUE PUSH3 0x443 JUMPI PUSH1 0x1 PUSH1 0x1 PUSH1 0x40 SHL SUB SWAP1 PUSH1 0x1F NOT SWAP1 PUSH1 0x1F SWAP1 PUSH3 0x574E CODESIZE DUP2 SWAP1 SUB DUP4 DUP2 ADD DUP6 AND DUP4 ADD DUP7 DUP2 GT DUP5 DUP3 LT OR PUSH3 0x42D JUMPI DUP4 SWAP3 DUP3 SWAP2 PUSH1 0x40 MSTORE DUP4 CODECOPY PUSH1 0x20 SWAP3 DUP4 SWAP2 DUP2 ADD SUB SLT PUSH3 0x443 JUMPI MLOAD SWAP2 DUP5 DUP4 AND DUP4 SUB PUSH3 0x443 JUMPI PUSH1 0xB SLOAD PUSH1 0x1 PUSH1 0x1 PUSH1 0xA0 SHL SUB SWAP6 SWAP1 DUP7 AND SWAP2 PUSH3 0x6F PUSH3 0x448 JUMP JUMPDEST SWAP4 PUSH1 0xE DUP6 MSTORE PUSH14 0x111E5B985B5A58D0DB1D59539195 PUSH1 0x92 SHL DUP2 DUP7 ADD MSTORE PUSH3 0x94 PUSH3 0x448 JUMP JUMPDEST SWAP1 PUSH1 0x5 DUP3 MSTORE PUSH5 0x1110D39195 PUSH1 0xDA SHL DUP2 DUP4 ADD MSTORE DUP6 MLOAD SWAP8 DUP5 DUP10 GT PUSH3 0x42D JUMPI PUSH1 0x0 SWAP9 DUP10 SLOAD SWAP8 PUSH1 0x1 SWAP9 DUP10 DUP2 DUP2 SHR SWAP2 AND DUP1 ISZERO PUSH3 0x422 JUMPI JUMPDEST DUP6 DUP3 LT EQ PUSH3 0x40E JUMPI SWAP1 DUP2 DUP8 DUP5 SWAP4 GT PUSH3 0x3BB JUMPI JUMPDEST POP DUP5 SWAP1 DUP8 DUP4 GT PUSH1 0x1 EQ PUSH3 0x35A JUMPI DUP13 SWAP3 PUSH3 0x34E JUMPI JUMPDEST POP POP PUSH1 0x0 NOT PUSH1 0x3 DUP4 SWAP1 SHL SHR NOT AND SWAP1 DUP9 SHL OR DUP10 SSTORE JUMPDEST DUP3 MLOAD SWAP5 DUP6 GT PUSH3 0x33A JUMPI DUP7 SLOAD DUP8 DUP2 DUP2 SHR SWAP2 AND DUP1 ISZERO PUSH3 0x32F JUMPI JUMPDEST DUP4 DUP3 LT EQ PUSH3 0x31B JUMPI SWAP1 DUP2 DUP6 DUP8 SWAP7 SWAP6 SWAP5 SWAP4 GT PUSH3 0x2C2 JUMPI JUMPDEST POP DUP2 SWAP4 DUP6 GT PUSH1 0x1 EQ PUSH3 0x25D JUMPI POP POP DUP8 SWAP3 PUSH3 0x251 JUMPI JUMPDEST POP POP PUSH1 0x0 NOT PUSH1 0x3 DUP4 SWAP1 SHL SHR NOT AND SWAP1 DUP4 SHL OR DUP3 SSTORE JUMPDEST PUSH1 0x80 MSTORE PUSH1 0x7 DUP1 SLOAD PUSH1 0x1 PUSH1 0x1 PUSH1 0xA0 SHL SUB NOT DUP1 DUP3 AND CALLER SWAP1 DUP2 OR SWAP1 SWAP4 SSTORE PUSH1 0x40 MLOAD SWAP7 SWAP1 SWAP6 SWAP3 SWAP2 AND PUSH32 0x8BE0079C531659141344CD1FD0A4F28419497F9722A3DAAFE3B4186F6B6457E0 DUP4 DUP1 LOG3 DUP2 PUSH1 0x8 SSTORE PUSH20 0x5C210EF41CD1A72DE73BF76EC39637BB0D3D7BEE DUP1 SWAP5 PUSH1 0xB SLOAD AND OR PUSH1 0xB SSTORE PUSH7 0x10003000186A0 PUSH1 0x1 DUP1 PUSH1 0x50 SHL SUB NOT PUSH1 0xD SLOAD AND OR PUSH1 0xD SSTORE DUP2 PUSH1 0x21 SSTORE PUSH1 0x22 SSTORE DUP1 PUSH1 0x23 SSTORE PUSH1 0x24 SSTORE PUSH1 0xA SLOAD SWAP1 PUSH1 0x1 PUSH1 0xA0 SHL PUSH1 0x1 PUSH1 0xE0 SHL SUB SWAP1 PUSH1 0xA0 SHL AND SWAP1 PUSH4 0xFFFFFFFF PUSH1 0xE0 SHL AND OR OR PUSH1 0xA SSTORE PUSH32 0x9E1344A1247C8A1785D0A6751E63BE47DE3E7B5C7FD7E0F24DF0E0E1E3F0E8F8 PUSH1 0xC SSTORE PUSH2 0x52E5 SWAP1 DUP2 PUSH3 0x469 DUP3 CODECOPY PUSH1 0x80 MLOAD DUP2 PUSH2 0x3DD2 ADD MSTORE RETURN JUMPDEST ADD MLOAD SWAP1 POP CODESIZE DUP1 PUSH3 0x150 JUMP JUMPDEST DUP8 SWAP6 SWAP4 SWAP3 SWAP2 SWAP4 AND DUP6 DUP11 MSTORE DUP4 DUP11 KECCAK256 SWAP4 DUP11 SWAP1 JUMPDEST DUP3 DUP3 LT PUSH3 0x2A8 JUMPI POP POP DUP5 GT PUSH3 0x28E JUMPI JUMPDEST POP POP POP DUP2 SHL ADD DUP3 SSTORE PUSH3 0x164 JUMP JUMPDEST ADD MLOAD PUSH1 0x0 NOT PUSH1 0xF8 DUP5 PUSH1 0x3 SHL AND SHR NOT AND SWAP1 SSTORE CODESIZE DUP1 DUP1 PUSH3 0x280 JUMP JUMPDEST DUP5 DUP5 ADD MLOAD DUP7 SSTORE DUP10 SWAP8 SWAP1 SWAP6 ADD SWAP5 SWAP4 DUP5 ADD SWAP4 SWAP1 DUP2 ADD SWAP1 PUSH3 0x26E JUMP JUMPDEST SWAP1 SWAP2 SWAP3 SWAP4 SWAP5 POP DUP8 DUP11 MSTORE DUP3 DUP11 KECCAK256 DUP6 DUP1 DUP9 ADD PUSH1 0x5 SHR DUP3 ADD SWAP3 DUP6 DUP10 LT PUSH3 0x311 JUMPI JUMPDEST SWAP2 DUP9 SWAP8 DUP12 SWAP3 SWAP8 SWAP7 SWAP6 SWAP5 SWAP4 ADD PUSH1 0x5 SHR ADD SWAP2 JUMPDEST DUP3 DUP2 LT PUSH3 0x302 JUMPI POP POP PUSH3 0x139 JUMP JUMPDEST DUP13 DUP2 SSTORE DUP9 SWAP8 POP DUP11 SWAP2 ADD PUSH3 0x2F2 JUMP JUMPDEST SWAP3 POP DUP2 SWAP3 PUSH3 0x2E1 JUMP JUMPDEST PUSH4 0x4E487B71 PUSH1 0xE0 SHL DUP11 MSTORE PUSH1 0x22 PUSH1 0x4 MSTORE PUSH1 0x24 DUP11 REVERT JUMPDEST SWAP1 PUSH1 0x7F AND SWAP1 PUSH3 0x121 JUMP JUMPDEST PUSH4 0x4E487B71 PUSH1 0xE0 SHL DUP10 MSTORE PUSH1 0x41 PUSH1 0x4 MSTORE PUSH1 0x24 DUP10 REVERT JUMPDEST ADD MLOAD SWAP1 POP CODESIZE DUP1 PUSH3 0xF3 JUMP JUMPDEST SWAP1 DUP13 SWAP2 DUP6 DUP13 SWAP6 AND DUP4 DUP1 MSTORE DUP8 DUP5 KECCAK256 SWAP4 JUMPDEST DUP9 DUP3 DUP3 LT PUSH3 0x3A4 JUMPI POP POP DUP5 GT PUSH3 0x38A JUMPI JUMPDEST POP POP POP DUP2 SHL ADD DUP10 SSTORE PUSH3 0x107 JUMP JUMPDEST ADD MLOAD PUSH1 0x0 NOT PUSH1 0xF8 DUP5 PUSH1 0x3 SHL AND SHR NOT AND SWAP1 SSTORE CODESIZE DUP1 DUP1 PUSH3 0x37C JUMP JUMPDEST DUP4 DUP6 ADD MLOAD DUP7 SSTORE DUP15 SWAP8 SWAP1 SWAP6 ADD SWAP5 SWAP4 DUP5 ADD SWAP4 ADD PUSH3 0x369 JUMP JUMPDEST SWAP1 SWAP2 POP DUP12 DUP1 MSTORE DUP5 DUP13 KECCAK256 DUP8 DUP1 DUP6 ADD PUSH1 0x5 SHR DUP3 ADD SWAP3 DUP8 DUP7 LT PUSH3 0x404 JUMPI JUMPDEST SWAP2 DUP13 SWAP2 DUP7 SWAP6 SWAP5 SWAP4 ADD PUSH1 0x5 SHR ADD SWAP2 JUMPDEST DUP3 DUP2 LT PUSH3 0x3F5 JUMPI POP POP PUSH3 0xDD JUMP JUMPDEST DUP15 DUP2 SSTORE DUP6 SWAP5 POP DUP13 SWAP2 ADD PUSH3 0x3E5 JUMP JUMPDEST SWAP3 POP DUP2 SWAP3 PUSH3 0x3D7 JUMP JUMPDEST PUSH4 0x4E487B71 PUSH1 0xE0 SHL DUP13 MSTORE PUSH1 0x22 PUSH1 0x4 MSTORE PUSH1 0x24 DUP13 REVERT JUMPDEST SWAP1 PUSH1 0x7F AND SWAP1 PUSH3 0xC8 JUMP JUMPDEST PUSH4 0x4E487B71 PUSH1 0xE0 SHL PUSH1 0x0 MSTORE PUSH1 0x41 PUSH1 0x4 MSTORE PUSH1 0x24 PUSH1 0x0 REVERT JUMPDEST PUSH1 0x0 DUP1 REVERT JUMPDEST PUSH1 0x40 DUP1 MLOAD SWAP2 SWAP1 DUP3 ADD PUSH1 0x1 PUSH1 0x1 PUSH1 0x40 SHL SUB DUP2 GT DUP4 DUP3 LT OR PUSH3 0x42D JUMPI PUSH1 0x40 MSTORE JUMP INVALID PUSH1 0x80 DUP1 PUSH1 0x40 MSTORE PUSH1 0x4 CALLDATASIZE LT ISZERO PUSH2 0x13 JUMPI PUSH1 0x0 DUP1 REVERT JUMPDEST PUSH1 0x0 CALLDATALOAD PUSH1 0xE0 SHR SWAP1 DUP2 PUSH4 0x1352BE7 EQ PUSH2 0x4261 JUMPI POP DUP1 PUSH4 0x1FFC9A7 EQ PUSH2 0x41D9 JUMPI DUP1 PUSH4 0x6FDDE03 EQ PUSH2 0x4136 JUMPI DUP1 PUSH4 0x81812FC EQ PUSH2 0x4118 JUMPI DUP1 PUSH4 0x95EA7B3 EQ PUSH2 0x3F9E JUMPI DUP1 PUSH4 0xD796CB8 EQ PUSH2 0x3F76 JUMPI DUP1 PUSH4 0xF1A2905 EQ PUSH2 0x3F5A JUMPI DUP1 PUSH4 0x1A1D9252 EQ PUSH2 0x3ED1 JUMPI DUP1 PUSH4 0x1FE543E3 EQ PUSH2 0x3D57 JUMPI DUP1 PUSH4 0x23B872DD EQ PUSH2 0x3D33 JUMPI DUP1 PUSH4 0x268DA74D EQ PUSH2 0x3968 JUMPI DUP1 PUSH4 0x305A67A8 EQ PUSH2 0x38E6 JUMPI DUP1 PUSH4 0x30F37C7F EQ PUSH2 0x383C JUMPI DUP1 PUSH4 0x33AE955E EQ PUSH2 0x37F8 JUMPI DUP1 PUSH4 0x394C779A EQ PUSH2 0x358A JUMPI DUP1 PUSH4 0x3F706D91 EQ PUSH2 0x356E JUMPI DUP1 PUSH4 0x42842E0E EQ PUSH2 0x353B JUMPI DUP1 PUSH4 0x431744C3 EQ PUSH2 0x24AE JUMPI DUP1 PUSH4 0x46BE4CB5 EQ PUSH2 0x3224 JUMPI DUP1 PUSH4 0x4A3B68CC EQ PUSH2 0x31E9 JUMPI DUP1 PUSH4 0x4F84D9FD EQ PUSH2 0x31B4 JUMPI DUP1 PUSH4 0x51CECC80 EQ PUSH2 0x2FE3 JUMPI DUP1 PUSH4 0x51ED8288 EQ PUSH2 0x2E42 JUMPI DUP1 PUSH4 0x5223AB2D EQ PUSH2 0x2DF4 JUMPI DUP1 PUSH4 0x53AAA63B EQ PUSH2 0x2DBA JUMPI DUP1 PUSH4 0x5C9302C9 EQ PUSH2 0x2D9C JUMPI DUP1 PUSH4 0x6352211E EQ PUSH2 0x2D6C JUMPI DUP1 PUSH4 0x65A372E0 EQ PUSH2 0x2CA0 JUMPI DUP1 PUSH4 0x685AD315 EQ PUSH2 0x2BF5 JUMPI DUP1 PUSH4 0x6DCEE4CA EQ PUSH2 0x2915 JUMPI DUP1 PUSH4 0x6F6CB6BC EQ PUSH2 0x28F3 JUMPI DUP1 PUSH4 0x70A08231 EQ PUSH2 0x285C JUMPI DUP1 PUSH4 0x715018A6 EQ PUSH2 0x2811 JUMPI DUP1 PUSH4 0x7503E1B7 EQ PUSH2 0x2772 JUMPI DUP1 PUSH4 0x7A2BF277 EQ PUSH2 0x2627 JUMPI DUP1 PUSH4 0x81872B5E EQ PUSH2 0x25AF JUMPI DUP1 PUSH4 0x81A96AF5 EQ PUSH2 0x2575 JUMPI DUP1 PUSH4 0x84147B61 EQ PUSH2 0x252B JUMPI DUP1 PUSH4 0x842E2981 EQ PUSH2 0x24B3 JUMPI DUP1 PUSH4 0x84A3A0F3 EQ PUSH2 0x24AE JUMPI DUP1 PUSH4 0x852EFC3D EQ PUSH2 0x2490 JUMPI DUP1 PUSH4 0x87C35BC0 EQ PUSH2 0x2374 JUMPI DUP1 PUSH4 0x8A78EC4D EQ PUSH2 0x20F5 JUMPI DUP1 PUSH4 0x8DA5CB5B EQ PUSH2 0x20CC JUMPI DUP1 PUSH4 0x8F4D9964 EQ PUSH2 0x207E JUMPI DUP1 PUSH4 0x94383F14 EQ PUSH2 0x1F73 JUMPI DUP1 PUSH4 0x95D89B41 EQ PUSH2 0x1EAE JUMPI DUP1 PUSH4 0x9B211FC4 EQ PUSH2 0x1E74 JUMPI DUP1 PUSH4 0x9B4B2C9C EQ PUSH2 0x1D94 JUMPI DUP1 PUSH4 0x9F9D903A EQ PUSH2 0x1D76 JUMPI DUP1 PUSH4 0xA168FA89 EQ PUSH2 0x1D4A JUMPI DUP1 PUSH4 0xA22CB465 EQ PUSH2 0x1C7F JUMPI DUP1 PUSH4 0xA69D25AB EQ PUSH2 0x1BFB JUMPI DUP1 PUSH4 0xAA3B47C0 EQ PUSH2 0x1A33 JUMPI DUP1 PUSH4 0xB06AE5B0 EQ PUSH2 0x19A4 JUMPI DUP1 PUSH4 0xB3CBC19E EQ PUSH2 0x17C6 JUMPI DUP1 PUSH4 0xB5D5B5FA EQ PUSH2 0x177C JUMPI DUP1 PUSH4 0xB88D4FDE EQ PUSH2 0x16F5 JUMPI DUP1 PUSH4 0xBBDDACA3 EQ PUSH2 0x164C JUMPI DUP1 PUSH4 0xC002D23D EQ PUSH2 0x162A JUMPI DUP1 PUSH4 0xC13D4EC4 EQ PUSH2 0x1601 JUMPI DUP1 PUSH4 0xC1DFA0BB EQ PUSH2 0x1376 JUMPI DUP1 PUSH4 0xC2A8B11B EQ PUSH2 0x12BB JUMPI DUP1 PUSH4 0xC50A57F3 EQ PUSH2 0x1049 JUMPI DUP1 PUSH4 0xC87B56DD EQ PUSH2 0xF30 JUMPI DUP1 PUSH4 0xC8B1F25C EQ PUSH2 0xEFF JUMPI DUP1 PUSH4 0xD115CAC6 EQ PUSH2 0xC93 JUMPI DUP1 PUSH4 0xD2A3D240 EQ PUSH2 0xBFF JUMPI DUP1 PUSH4 0xD4D9A7FB EQ PUSH2 0xBE1 JUMPI DUP1 PUSH4 0xD5A44F86 EQ PUSH2 0xB82 JUMPI DUP1 PUSH4 0xD9320985 EQ PUSH2 0xACC JUMPI DUP1 PUSH4 0xD981CAB4 EQ PUSH2 0x86F JUMPI DUP1 PUSH4 0xDBD486A6 EQ PUSH2 0x769 JUMPI DUP1 PUSH4 0xDE74E57B EQ PUSH2 0x70E JUMPI DUP1 PUSH4 0xE985E9C5 EQ PUSH2 0x6B8 JUMPI DUP1 PUSH4 0xEBF03FEB EQ PUSH2 0x560 JUMPI DUP1 PUSH4 0xEED5E8D6 EQ PUSH2 0x508 JUMPI DUP1 PUSH4 0xF2FDE38B EQ PUSH2 0x457 JUMPI DUP1 PUSH4 0xF31229CC EQ PUSH2 0x3C2 JUMPI PUSH4 0xF7316DE7 EQ PUSH2 0x38F JUMPI PUSH1 0x0 DUP1 REVERT JUMPDEST CALLVALUE PUSH2 0x3BD JUMPI PUSH1 0x40 CALLDATASIZE PUSH1 0x3 NOT ADD SLT PUSH2 0x3BD JUMPI PUSH1 0x20 PUSH2 0x3B5 PUSH2 0x3AD PUSH2 0x4457 JUMP JUMPDEST PUSH1 0x4 CALLDATALOAD PUSH2 0x4DB0 JUMP JUMPDEST PUSH1 0x40 MLOAD SWAP1 DUP2 MSTORE RETURN JUMPDEST PUSH1 0x0 DUP1 REVERT JUMPDEST CALLVALUE PUSH2 0x3BD JUMPI PUSH1 0x20 CALLDATASIZE PUSH1 0x3 NOT ADD SLT PUSH2 0x3BD JUMPI PUSH1 0x4 CALLDATALOAD PUSH1 0x0 MSTORE PUSH1 0x18 PUSH1 0x20 MSTORE PUSH1 0x40 PUSH1 0x0 KECCAK256 DUP1 SLOAD PUSH2 0x3F1 PUSH1 0x1 DUP4 ADD PUSH2 0x46A9 JUMP JUMPDEST SWAP2 PUSH1 0x2 DUP2 ADD SLOAD SWAP1 PUSH1 0x3 DUP2 ADD SLOAD SWAP1 PUSH1 0x5 PUSH1 0x4 DUP3 ADD SLOAD SWAP2 ADD SLOAD SWAP2 PUSH2 0x425 PUSH1 0x40 MLOAD SWAP7 DUP8 SWAP7 DUP8 MSTORE PUSH1 0xE0 PUSH1 0x20 DUP9 ADD MSTORE PUSH1 0xE0 DUP8 ADD SWAP1 PUSH2 0x441C JUMP JUMPDEST PUSH1 0x40 DUP7 ADD SWAP5 SWAP1 SWAP5 MSTORE PUSH1 0x60 DUP6 ADD MSTORE PUSH1 0xFF DUP2 AND ISZERO ISZERO PUSH1 0x80 DUP6 ADD MSTORE PUSH1 0x8 SHR PUSH1 0x1 PUSH1 0x1 PUSH1 0xA0 SHL SUB AND PUSH1 0xA0 DUP5 ADD MSTORE PUSH1 0xC0 DUP4 ADD MSTORE SUB SWAP1 RETURN JUMPDEST CALLVALUE PUSH2 0x3BD JUMPI PUSH1 0x20 CALLDATASIZE PUSH1 0x3 NOT ADD SLT PUSH2 0x3BD JUMPI PUSH2 0x470 PUSH2 0x4441 JUMP JUMPDEST PUSH2 0x478 PUSH2 0x47BB JUMP JUMPDEST PUSH1 0x1 PUSH1 0x1 PUSH1 0xA0 SHL SUB SWAP1 DUP2 AND SWAP1 DUP2 ISZERO PUSH2 0x4B4 JUMPI PUSH1 0x7 DUP1 SLOAD PUSH1 0x1 PUSH1 0x1 PUSH1 0xA0 SHL SUB NOT DUP2 AND DUP5 OR SWAP1 SWAP2 SSTORE AND PUSH1 0x0 DUP1 MLOAD PUSH1 0x20 PUSH2 0x5230 DUP4 CODECOPY DUP2 MLOAD SWAP2 MSTORE PUSH1 0x0 DUP1 LOG3 STOP JUMPDEST PUSH1 0x40 MLOAD PUSH3 0x461BCD PUSH1 0xE5 SHL DUP2 MSTORE PUSH1 0x20 PUSH1 0x4 DUP3 ADD MSTORE PUSH1 0x26 PUSH1 0x24 DUP3 ADD MSTORE PUSH32 0x4F776E61626C653A206E6577206F776E657220697320746865207A65726F2061 PUSH1 0x44 DUP3 ADD MSTORE PUSH6 0x646472657373 PUSH1 0xD0 SHL PUSH1 0x64 DUP3 ADD MSTORE PUSH1 0x84 SWAP1 REVERT JUMPDEST CALLVALUE PUSH2 0x3BD JUMPI PUSH1 0x40 CALLDATASIZE PUSH1 0x3 NOT ADD SLT PUSH2 0x3BD JUMPI PUSH2 0x521 PUSH2 0x4441 JUMP JUMPDEST PUSH1 0x1 PUSH1 0x1 PUSH1 0xA0 SHL SUB AND PUSH1 0x0 SWAP1 DUP2 MSTORE PUSH1 0x17 PUSH1 0x20 MSTORE PUSH1 0x40 SWAP1 KECCAK256 DUP1 SLOAD PUSH1 0x24 CALLDATALOAD SWAP2 SWAP1 DUP3 LT ISZERO PUSH2 0x3BD JUMPI PUSH1 0x20 SWAP2 PUSH2 0x552 SWAP2 PUSH2 0x478A JUMP JUMPDEST SWAP1 SLOAD PUSH1 0x40 MLOAD SWAP2 PUSH1 0x3 SHL SHR DUP2 MSTORE RETURN JUMPDEST CALLVALUE PUSH2 0x3BD JUMPI PUSH1 0x20 DUP1 PUSH1 0x3 NOT CALLDATASIZE ADD SLT PUSH2 0x3BD JUMPI PUSH1 0x4 CALLDATALOAD SWAP1 PUSH2 0x57E PUSH2 0x47BB JUMP JUMPDEST DUP2 PUSH1 0x0 MSTORE PUSH1 0x1F DUP2 MSTORE PUSH1 0x3 PUSH1 0x40 PUSH1 0x0 KECCAK256 ADD SLOAD ISZERO PUSH2 0x67D JUMPI DUP2 PUSH1 0x0 MSTORE PUSH1 0x1F DUP2 MSTORE PUSH1 0x3 PUSH1 0x40 PUSH1 0x0 KECCAK256 ADD SLOAD TIMESTAMP LT PUSH2 0x641 JUMPI DUP2 PUSH1 0x0 MSTORE PUSH1 0x1F DUP2 MSTORE PUSH1 0x4 PUSH1 0x40 PUSH1 0x0 KECCAK256 ADD SLOAD TIMESTAMP GT PUSH2 0x60B JUMPI PUSH1 0x1F SWAP1 PUSH1 0x22 SLOAD DUP1 PUSH2 0x5EF JUMPI JUMPDEST POP DUP3 PUSH1 0x0 MSTORE MSTORE PUSH1 0x8 PUSH1 0x40 PUSH1 0x0 KECCAK256 ADD PUSH1 0x1 PUSH1 0xFF NOT DUP3 SLOAD AND OR SWAP1 SSTORE PUSH1 0x22 SSTORE PUSH1 0x0 DUP1 RETURN JUMPDEST PUSH1 0x0 MSTORE DUP2 DUP2 MSTORE PUSH1 0x8 PUSH1 0x40 PUSH1 0x0 KECCAK256 ADD PUSH1 0xFF NOT DUP2 SLOAD AND SWAP1 SSTORE DUP4 PUSH2 0x5CE JUMP JUMPDEST PUSH1 0x64 SWAP1 PUSH1 0x40 MLOAD SWAP1 PUSH3 0x461BCD PUSH1 0xE5 SHL DUP3 MSTORE PUSH1 0x4 DUP3 ADD MSTORE PUSH1 0xF PUSH1 0x24 DUP3 ADD MSTORE PUSH15 0x115D995B9D081A185CC8195B991959 PUSH1 0x8A SHL PUSH1 0x44 DUP3 ADD MSTORE REVERT JUMPDEST PUSH1 0x64 SWAP1 PUSH1 0x40 MLOAD SWAP1 PUSH3 0x461BCD PUSH1 0xE5 SHL DUP3 MSTORE PUSH1 0x4 DUP3 ADD MSTORE PUSH1 0x15 PUSH1 0x24 DUP3 ADD MSTORE PUSH21 0x115D995B9D081B9BDD081CDD185C9D1959081E595D PUSH1 0x5A SHL PUSH1 0x44 DUP3 ADD MSTORE REVERT JUMPDEST PUSH1 0x64 SWAP1 PUSH1 0x40 MLOAD SWAP1 PUSH3 0x461BCD PUSH1 0xE5 SHL DUP3 MSTORE PUSH1 0x4 DUP3 ADD MSTORE PUSH1 0x14 PUSH1 0x24 DUP3 ADD MSTORE PUSH20 0x115D995B9D08191BD95CC81B9BDD08195E1A5CDD PUSH1 0x62 SHL PUSH1 0x44 DUP3 ADD MSTORE REVERT JUMPDEST CALLVALUE PUSH2 0x3BD JUMPI PUSH1 0x40 CALLDATASIZE PUSH1 0x3 NOT ADD SLT PUSH2 0x3BD JUMPI PUSH2 0x6D1 PUSH2 0x4441 JUMP JUMPDEST PUSH2 0x6D9 PUSH2 0x4457 JUMP JUMPDEST SWAP1 PUSH1 0x1 DUP1 PUSH1 0xA0 SHL SUB DUP1 SWAP2 AND PUSH1 0x0 MSTORE PUSH1 0x5 PUSH1 0x20 MSTORE PUSH1 0x40 PUSH1 0x0 KECCAK256 SWAP2 AND PUSH1 0x0 MSTORE PUSH1 0x20 MSTORE PUSH1 0x20 PUSH1 0xFF PUSH1 0x40 PUSH1 0x0 KECCAK256 SLOAD AND PUSH1 0x40 MLOAD SWAP1 ISZERO ISZERO DUP2 MSTORE RETURN JUMPDEST CALLVALUE PUSH2 0x3BD JUMPI PUSH1 0x20 CALLDATASIZE PUSH1 0x3 NOT ADD SLT PUSH2 0x3BD JUMPI PUSH1 0x4 CALLDATALOAD PUSH1 0x0 MSTORE PUSH1 0x1C PUSH1 0x20 MSTORE PUSH1 0x80 PUSH1 0x40 PUSH1 0x0 KECCAK256 DUP1 SLOAD SWAP1 PUSH1 0x1 DUP1 PUSH1 0xA0 SHL SUB PUSH1 0x1 DUP3 ADD SLOAD AND SWAP1 PUSH1 0xFF PUSH1 0x3 PUSH1 0x2 DUP4 ADD SLOAD SWAP3 ADD SLOAD AND SWAP2 PUSH1 0x40 MLOAD SWAP4 DUP5 MSTORE PUSH1 0x20 DUP5 ADD MSTORE PUSH1 0x40 DUP4 ADD MSTORE ISZERO ISZERO PUSH1 0x60 DUP3 ADD MSTORE RETURN JUMPDEST CALLVALUE PUSH2 0x3BD JUMPI PUSH1 0x40 CALLDATASIZE PUSH1 0x3 NOT ADD SLT PUSH2 0x3BD JUMPI PUSH1 0xE0 PUSH2 0x784 PUSH2 0x4457 JUMP JUMPDEST PUSH1 0x40 MLOAD PUSH2 0x790 DUP2 PUSH2 0x4507 JUMP JUMPDEST PUSH1 0x0 DUP2 MSTORE PUSH1 0x0 PUSH1 0xC0 PUSH1 0x20 SWAP3 DUP3 DUP5 DUP3 ADD MSTORE DUP3 PUSH1 0x40 DUP3 ADD MSTORE DUP3 PUSH1 0x60 DUP3 ADD MSTORE DUP3 PUSH1 0x80 DUP3 ADD MSTORE DUP3 PUSH1 0xA0 DUP3 ADD MSTORE ADD MSTORE PUSH1 0x4 CALLDATALOAD PUSH1 0x0 MSTORE DUP1 DUP1 MSTORE PUSH1 0x40 PUSH1 0x0 KECCAK256 PUSH1 0x1 DUP1 PUSH1 0xA0 SHL SUB DUP1 SWAP4 AND PUSH1 0x0 MSTORE DUP2 MSTORE PUSH1 0x40 PUSH1 0x0 KECCAK256 PUSH1 0x40 MLOAD SWAP2 PUSH2 0x7E9 DUP4 PUSH2 0x4507 JUMP JUMPDEST DUP2 SLOAD SWAP4 DUP5 DUP5 MSTORE DUP1 PUSH1 0x1 DUP5 ADD SLOAD AND SWAP2 DUP1 DUP6 ADD SWAP3 DUP4 MSTORE PUSH1 0x2 DUP5 ADD SLOAD SWAP1 PUSH1 0x40 DUP7 ADD SWAP2 DUP3 MSTORE PUSH1 0x3 DUP6 ADD SLOAD SWAP3 PUSH1 0x60 DUP8 ADD SWAP4 DUP5 MSTORE PUSH1 0x4 DUP7 ADD SLOAD SWAP5 PUSH1 0x80 DUP9 ADD SWAP6 DUP7 MSTORE PUSH1 0xC0 PUSH1 0xFF PUSH1 0x6 PUSH1 0x5 DUP11 ADD SLOAD SWAP10 PUSH1 0xA0 DUP13 ADD SWAP11 DUP12 MSTORE ADD SLOAD AND SWAP9 ADD SWAP8 ISZERO ISZERO DUP9 MSTORE PUSH1 0x40 MLOAD SWAP9 DUP10 MSTORE MLOAD AND SWAP1 DUP8 ADD MSTORE MLOAD PUSH1 0x40 DUP7 ADD MSTORE MLOAD PUSH1 0x60 DUP6 ADD MSTORE MLOAD PUSH1 0x80 DUP5 ADD MSTORE MLOAD PUSH1 0xA0 DUP4 ADD MSTORE MLOAD ISZERO ISZERO PUSH1 0xC0 DUP3 ADD MSTORE RETURN JUMPDEST PUSH2 0x878 CALLDATASIZE PUSH2 0x4659 JUMP JUMPDEST PUSH2 0x892 PUSH2 0x88A CALLER PUSH2 0xE10 DUP5 DIV DUP6 PUSH2 0x4D55 JUMP JUMPDEST CALLVALUE LT ISZERO PUSH2 0x4FC4 JUMP JUMPDEST PUSH1 0xA SLOAD PUSH1 0xC SLOAD SWAP1 PUSH1 0xD SLOAD SWAP2 PUSH1 0x40 MLOAD SWAP1 PUSH4 0x5D3B1D3 PUSH1 0xE4 SHL DUP3 MSTORE PUSH1 0x4 DUP3 ADD MSTORE PUSH1 0x24 SWAP2 PUSH1 0x1 DUP1 PUSH1 0x40 SHL SUB DUP2 PUSH1 0xA0 SHR AND DUP4 DUP4 ADD MSTORE PUSH1 0x20 SWAP4 PUSH2 0xFFFF DUP2 DUP7 SHR AND PUSH1 0x44 DUP5 ADD MSTORE PUSH4 0xFFFFFFFF SWAP1 DUP2 DUP2 AND PUSH1 0x64 DUP6 ADD MSTORE PUSH1 0x30 SHR AND PUSH1 0x84 DUP4 ADD MSTORE DUP4 DUP3 PUSH1 0xA4 DUP2 PUSH1 0x0 PUSH1 0x1 DUP1 PUSH1 0xA0 SHL SUB DUP1 SWAP7 AND GAS CALL SWAP2 DUP3 ISZERO PUSH2 0xAC0 JUMPI PUSH1 0x0 SWAP3 PUSH2 0xA91 JUMPI JUMPDEST POP PUSH1 0x40 MLOAD PUSH2 0x918 DUP2 PUSH2 0x44B5 JUMP JUMPDEST PUSH1 0x2 DUP2 MSTORE DUP5 DUP2 ADD SWAP1 CALLER DUP3 MSTORE PUSH1 0x40 DUP2 ADD PUSH1 0x0 DUP2 MSTORE PUSH1 0x60 DUP3 ADD SWAP4 PUSH1 0x0 DUP6 MSTORE PUSH1 0x80 DUP4 ADD SWAP4 PUSH1 0x0 DUP6 MSTORE PUSH1 0x15 SLOAD PUSH1 0x1 PUSH1 0x40 SHL DUP2 LT ISZERO PUSH2 0xA7C JUMPI DUP1 PUSH1 0x1 PUSH2 0x95C SWAP3 ADD PUSH1 0x15 SSTORE PUSH2 0x446D JUMP JUMPDEST SWAP5 SWAP1 SWAP5 PUSH2 0xA67 JUMPI MLOAD PUSH1 0x3 DUP2 LT ISZERO PUSH2 0xA52 JUMPI SWAP2 PUSH2 0x98B SWAP2 PUSH1 0x2 SWAP6 SWAP5 SWAP4 PUSH1 0xFF DUP1 NOT DUP8 SLOAD AND SWAP2 AND OR DUP6 SSTORE MLOAD AND DUP4 PUSH2 0x4E24 JUMP JUMPDEST MLOAD PUSH1 0x1 DUP3 ADD SSTORE ADD SWAP2 MLOAD PUSH1 0x4 DUP2 LT ISZERO PUSH2 0xA3D JUMPI PUSH2 0x9A7 SWAP1 DUP4 PUSH2 0x4E0C JUMP JUMPDEST MLOAD PUSH1 0x4 DUP2 LT ISZERO PUSH2 0xA28 JUMPI DUP2 SLOAD PUSH2 0xFF00 NOT AND PUSH1 0x8 SWAP2 SWAP1 SWAP2 SHL PUSH2 0xFF00 AND OR SWAP1 SSTORE PUSH1 0x15 SLOAD PUSH1 0x0 NOT DUP2 ADD SWAP3 SWAP1 DUP4 GT PUSH2 0xA14 JUMPI POP PUSH1 0x0 MSTORE PUSH1 0x10 DUP3 MSTORE PUSH1 0x40 PUSH1 0x0 KECCAK256 SSTORE PUSH1 0x40 MLOAD SWAP3 DUP4 MSTORE DUP3 ADD MSTORE PUSH32 0x236EA7D9908E78AE51AA5C8C4F7C86966899C44C432A0E0D009EBBBB83755404 PUSH1 0x40 CALLER SWAP3 LOG2 STOP JUMPDEST PUSH4 0x4E487B71 PUSH1 0xE0 SHL PUSH1 0x0 SWAP1 DUP2 MSTORE PUSH1 0x11 PUSH1 0x4 MSTORE REVERT JUMPDEST DUP4 PUSH4 0x4E487B71 PUSH1 0xE0 SHL PUSH1 0x0 MSTORE PUSH1 0x21 PUSH1 0x4 MSTORE PUSH1 0x0 REVERT JUMPDEST DUP5 PUSH4 0x4E487B71 PUSH1 0xE0 SHL PUSH1 0x0 MSTORE PUSH1 0x21 PUSH1 0x4 MSTORE PUSH1 0x0 REVERT JUMPDEST DUP9 PUSH4 0x4E487B71 PUSH1 0xE0 SHL PUSH1 0x0 MSTORE PUSH1 0x21 PUSH1 0x4 MSTORE PUSH1 0x0 REVERT JUMPDEST DUP9 PUSH4 0x4E487B71 PUSH1 0xE0 SHL PUSH1 0x0 MSTORE PUSH1 0x0 PUSH1 0x4 MSTORE PUSH1 0x0 REVERT JUMPDEST DUP9 PUSH4 0x4E487B71 PUSH1 0xE0 SHL PUSH1 0x0 MSTORE PUSH1 0x41 PUSH1 0x4 MSTORE PUSH1 0x0 REVERT JUMPDEST SWAP1 SWAP2 POP DUP4 DUP2 DUP2 RETURNDATASIZE DUP4 GT PUSH2 0xAB9 JUMPI JUMPDEST PUSH2 0xAA9 DUP2 DUP4 PUSH2 0x4558 JUMP JUMPDEST DUP2 ADD SUB SLT PUSH2 0x3BD JUMPI MLOAD SWAP1 DUP7 PUSH2 0x90B JUMP JUMPDEST POP RETURNDATASIZE PUSH2 0xA9F JUMP JUMPDEST PUSH1 0x40 MLOAD RETURNDATASIZE PUSH1 0x0 DUP3 RETURNDATACOPY RETURNDATASIZE SWAP1 REVERT JUMPDEST CALLVALUE PUSH2 0x3BD JUMPI PUSH1 0x60 CALLDATASIZE PUSH1 0x3 NOT ADD SLT PUSH2 0x3BD JUMPI PUSH1 0x4 CALLDATALOAD PUSH1 0x44 CALLDATALOAD PUSH1 0x1 PUSH1 0x1 PUSH1 0x40 SHL SUB DUP2 GT PUSH2 0x3BD JUMPI PUSH2 0xAFF SWAP1 CALLDATASIZE SWAP1 PUSH1 0x4 ADD PUSH2 0x4619 JUMP JUMPDEST POP PUSH2 0xB08 PUSH2 0x47BB JUMP JUMPDEST DUP1 PUSH1 0x0 MSTORE PUSH1 0xF PUSH1 0x20 MSTORE PUSH1 0x1 PUSH1 0x40 PUSH1 0x0 KECCAK256 ADD PUSH2 0xB26 PUSH1 0x24 CALLDATALOAD DUP3 SLOAD PUSH2 0x5003 JUMP JUMPDEST SWAP1 SSTORE DUP1 PUSH1 0x0 MSTORE PUSH1 0xF PUSH1 0x20 MSTORE PUSH1 0x64 PUSH1 0x1 PUSH1 0x40 PUSH1 0x0 KECCAK256 ADD SLOAD DIV SWAP1 PUSH1 0x1 DUP3 ADD DUP1 SWAP3 GT PUSH2 0xB6C JUMPI PUSH1 0x0 MSTORE PUSH1 0xF PUSH1 0x20 MSTORE PUSH1 0x40 PUSH1 0x0 KECCAK256 SWAP1 DUP2 SLOAD DUP2 GT PUSH2 0xB61 JUMPI STOP JUMPDEST DUP2 SSTORE TIMESTAMP PUSH1 0x3 SWAP1 SWAP2 ADD SSTORE STOP JUMPDEST PUSH4 0x4E487B71 PUSH1 0xE0 SHL PUSH1 0x0 MSTORE PUSH1 0x11 PUSH1 0x4 MSTORE PUSH1 0x24 PUSH1 0x0 REVERT JUMPDEST CALLVALUE PUSH2 0x3BD JUMPI PUSH1 0x20 CALLDATASIZE PUSH1 0x3 NOT ADD SLT PUSH2 0x3BD JUMPI PUSH1 0x4 CALLDATALOAD PUSH1 0x0 MSTORE PUSH1 0x1D PUSH1 0x20 MSTORE PUSH1 0xA0 PUSH1 0x40 PUSH1 0x0 KECCAK256 DUP1 SLOAD SWAP1 PUSH1 0x1 DUP1 DUP5 SHL SUB PUSH1 0x1 DUP3 ADD SLOAD AND SWAP1 PUSH1 0x2 DUP2 ADD SLOAD PUSH1 0x4 PUSH1 0x3 DUP4 ADD SLOAD SWAP3 ADD SLOAD SWAP3 PUSH1 0x40 MLOAD SWAP5 DUP6 MSTORE PUSH1 0x20 DUP6 ADD MSTORE PUSH1 0x40 DUP5 ADD MSTORE PUSH1 0x60 DUP4 ADD MSTORE PUSH1 0x80 DUP3 ADD MSTORE RETURN JUMPDEST CALLVALUE PUSH2 0x3BD JUMPI PUSH1 0x0 CALLDATASIZE PUSH1 0x3 NOT ADD SLT PUSH2 0x3BD JUMPI PUSH1 0x20 PUSH1 0x22 SLOAD PUSH1 0x40 MLOAD SWAP1 DUP2 MSTORE RETURN JUMPDEST CALLVALUE PUSH2 0x3BD JUMPI PUSH1 0x20 CALLDATASIZE PUSH1 0x3 NOT ADD SLT PUSH2 0x3BD JUMPI PUSH1 0x0 PUSH1 0x60 PUSH1 0x40 MLOAD PUSH2 0xC20 DUP2 PUSH2 0x44EC JUMP JUMPDEST DUP3 DUP2 MSTORE DUP3 PUSH1 0x20 DUP3 ADD MSTORE DUP3 PUSH1 0x40 DUP3 ADD MSTORE ADD MSTORE PUSH1 0x4 CALLDATALOAD PUSH1 0x0 MSTORE PUSH1 0xF PUSH1 0x20 MSTORE PUSH1 0x80 PUSH1 0x40 PUSH1 0x0 KECCAK256 PUSH1 0x40 MLOAD PUSH2 0xC4F DUP2 PUSH2 0x44EC JUMP JUMPDEST DUP2 SLOAD SWAP2 DUP3 DUP3 MSTORE PUSH1 0x1 DUP2 ADD SLOAD PUSH1 0x20 DUP4 ADD SWAP1 DUP2 MSTORE PUSH1 0x60 PUSH1 0x3 PUSH1 0x2 DUP5 ADD SLOAD SWAP4 PUSH1 0x40 DUP7 ADD SWAP5 DUP6 MSTORE ADD SLOAD SWAP4 ADD SWAP3 DUP4 MSTORE PUSH1 0x40 MLOAD SWAP4 DUP5 MSTORE MLOAD PUSH1 0x20 DUP5 ADD MSTORE MLOAD PUSH1 0x40 DUP4 ADD MSTORE MLOAD PUSH1 0x60 DUP3 ADD MSTORE RETURN JUMPDEST PUSH1 0x20 DUP1 PUSH1 0x3 NOT CALLDATASIZE ADD SLT PUSH2 0x3BD JUMPI PUSH1 0x4 CALLDATALOAD SWAP1 PUSH2 0xCAC PUSH2 0x4E6C JUMP JUMPDEST DUP2 PUSH1 0x0 MSTORE PUSH1 0x16 DUP2 MSTORE PUSH1 0x40 PUSH1 0x0 KECCAK256 PUSH1 0xFF PUSH1 0x7 DUP3 ADD SLOAD AND ISZERO PUSH2 0xEC2 JUMPI PUSH1 0x4 DUP2 ADD SLOAD TIMESTAMP LT ISZERO PUSH2 0xE8A JUMPI PUSH1 0x2 DUP2 ADD SLOAD CALLVALUE LT PUSH2 0xE4C JUMPI PUSH1 0x0 SWAP1 PUSH1 0x6 DUP2 ADD DUP1 SLOAD SWAP3 JUMPDEST DUP4 DUP2 LT PUSH2 0xDE6 JUMPI POP PUSH1 0x1 PUSH1 0x40 SHL DUP4 LT ISZERO PUSH2 0xDD0 JUMPI DUP3 PUSH2 0xD0E SWAP2 PUSH1 0x1 PUSH1 0x5 SWAP6 ADD DUP2 SSTORE PUSH2 0x478A JUMP JUMPDEST DUP2 SLOAD SWAP1 PUSH1 0x3 SHL SWAP1 CALLER DUP3 SHL SWAP2 PUSH1 0x1 DUP1 PUSH1 0xA0 SHL SUB SWAP1 SHL NOT AND OR SWAP1 SSTORE ADD PUSH2 0xD33 CALLVALUE DUP3 SLOAD PUSH2 0x5003 JUMP JUMPDEST SWAP1 SSTORE CALLER PUSH1 0x0 MSTORE PUSH1 0x17 DUP2 MSTORE PUSH2 0xD4B DUP3 PUSH1 0x40 PUSH1 0x0 KECCAK256 PUSH2 0x4E49 JUMP JUMPDEST PUSH1 0x22 SLOAD DUP1 ISZERO ISZERO DUP1 PUSH2 0xDB6 JUMPI JUMPDEST PUSH2 0xD8A JUMPI JUMPDEST CALLER DUP4 PUSH32 0x89CA95D0269F7F17639B228EF19CF566AAC5EC3343BF708A77A0B924AB96AB8 PUSH1 0x0 DUP1 LOG3 PUSH1 0x1 PUSH1 0x8 SSTORE STOP JUMPDEST PUSH1 0x0 MSTORE DUP1 DUP1 MSTORE PUSH1 0x40 PUSH1 0x0 KECCAK256 SWAP1 CALLER PUSH1 0x0 MSTORE MSTORE PUSH1 0x2 PUSH1 0x40 PUSH1 0x0 KECCAK256 ADD PUSH2 0xDAD DUP2 SLOAD PUSH2 0x5172 JUMP JUMPDEST SWAP1 SSTORE DUP2 DUP1 PUSH2 0xD5C JUMP JUMPDEST POP DUP1 PUSH1 0x0 MSTORE PUSH1 0x1F DUP3 MSTORE PUSH1 0xFF PUSH1 0x8 PUSH1 0x40 PUSH1 0x0 KECCAK256 ADD SLOAD AND PUSH2 0xD57 JUMP JUMPDEST PUSH4 0x4E487B71 PUSH1 0xE0 SHL PUSH1 0x0 MSTORE PUSH1 0x41 PUSH1 0x4 MSTORE PUSH1 0x24 PUSH1 0x0 REVERT JUMPDEST PUSH2 0xDF0 DUP2 DUP4 PUSH2 0x478A JUMP JUMPDEST SWAP1 SLOAD PUSH1 0x3 SWAP2 SWAP1 SWAP2 SHL SHR PUSH1 0x1 PUSH1 0x1 PUSH1 0xA0 SHL SUB AND CALLER EQ PUSH2 0xE16 JUMPI PUSH2 0xE11 SWAP1 PUSH2 0x5172 JUMP JUMPDEST PUSH2 0xCE8 JUMP JUMPDEST PUSH1 0x40 MLOAD PUSH3 0x461BCD PUSH1 0xE5 SHL DUP2 MSTORE PUSH1 0x4 DUP2 ADD DUP7 SWAP1 MSTORE PUSH1 0xE PUSH1 0x24 DUP3 ADD MSTORE PUSH14 0x105B1C9958591E481A9BDA5B9959 PUSH1 0x92 SHL PUSH1 0x44 DUP3 ADD MSTORE PUSH1 0x64 SWAP1 REVERT JUMPDEST PUSH1 0x40 MLOAD PUSH3 0x461BCD PUSH1 0xE5 SHL DUP2 MSTORE PUSH1 0x4 DUP2 ADD DUP4 SWAP1 MSTORE PUSH1 0x16 PUSH1 0x24 DUP3 ADD MSTORE PUSH22 0x496E73756666696369656E7420656E74727920666565 PUSH1 0x50 SHL PUSH1 0x44 DUP3 ADD MSTORE PUSH1 0x64 SWAP1 REVERT JUMPDEST PUSH1 0x40 MLOAD PUSH3 0x461BCD PUSH1 0xE5 SHL DUP2 MSTORE PUSH1 0x4 DUP2 ADD DUP4 SWAP1 MSTORE PUSH1 0x10 PUSH1 0x24 DUP3 ADD MSTORE PUSH16 0x151BDD5C9B985B595B9D08195B991959 PUSH1 0x82 SHL PUSH1 0x44 DUP3 ADD MSTORE PUSH1 0x64 SWAP1 REVERT JUMPDEST PUSH1 0x40 MLOAD PUSH3 0x461BCD PUSH1 0xE5 SHL DUP2 MSTORE PUSH1 0x4 DUP2 ADD DUP4 SWAP1 MSTORE PUSH1 0x15 PUSH1 0x24 DUP3 ADD MSTORE PUSH21 0x546F75726E616D656E74206E6F7420616374697665 PUSH1 0x58 SHL PUSH1 0x44 DUP3 ADD MSTORE PUSH1 0x64 SWAP1 REVERT JUMPDEST CALLVALUE PUSH2 0x3BD JUMPI PUSH1 0x20 CALLDATASIZE PUSH1 0x3 NOT ADD SLT PUSH2 0x3BD JUMPI PUSH1 0x4 CALLDATALOAD PUSH1 0x4 DUP2 LT ISZERO PUSH2 0x3BD JUMPI PUSH2 0xF27 PUSH1 0x20 SWAP2 PUSH2 0x47A2 JUMP JUMPDEST SLOAD PUSH1 0x40 MLOAD SWAP1 DUP2 MSTORE RETURN JUMPDEST CALLVALUE PUSH2 0x3BD JUMPI PUSH1 0x20 DUP1 PUSH1 0x3 NOT CALLDATASIZE ADD SLT PUSH2 0x3BD JUMPI PUSH1 0x4 CALLDATALOAD PUSH1 0x0 DUP2 DUP2 MSTORE PUSH1 0x2 DUP4 MSTORE PUSH1 0x40 SWAP1 KECCAK256 SLOAD PUSH1 0x1 PUSH1 0x1 PUSH1 0xA0 SHL SUB AND ISZERO PUSH2 0x100D JUMPI PUSH2 0xF6A SWAP1 PUSH2 0x5010 JUMP JUMPDEST SWAP1 PUSH2 0xFF5 PUSH1 0x48 PUSH2 0xF79 TIMESTAMP PUSH2 0x5010 JUMP JUMPDEST SWAP4 PUSH1 0x40 MLOAD SWAP5 DUP6 SWAP2 PUSH32 0x68747470733A2F2F7661756C74776172732E76657263656C2E6170702F617069 DUP7 DUP5 ADD MSTORE PUSH5 0x2F6E66742F PUSH1 0xD8 SHL PUSH1 0x40 DUP5 ADD MSTORE PUSH2 0xFC6 DUP2 MLOAD DUP1 SWAP3 DUP9 PUSH1 0x45 DUP8 ADD SWAP2 ADD PUSH2 0x43F9 JUMP JUMPDEST DUP3 ADD PUSH3 0x3F763D PUSH1 0xE8 SHL PUSH1 0x45 DUP3 ADD MSTORE PUSH2 0xFE6 DUP3 MLOAD DUP1 SWAP4 DUP9 DUP8 DUP6 ADD SWAP2 ADD PUSH2 0x43F9 JUMP JUMPDEST ADD SUB PUSH1 0x28 DUP2 ADD DUP6 MSTORE ADD DUP4 PUSH2 0x4558 JUMP JUMPDEST PUSH2 0x1009 PUSH1 0x40 MLOAD SWAP3 DUP3 DUP5 SWAP4 DUP5 MSTORE DUP4 ADD SWAP1 PUSH2 0x441C JUMP JUMPDEST SUB SWAP1 RETURN JUMPDEST PUSH1 0x40 MLOAD PUSH3 0x461BCD PUSH1 0xE5 SHL DUP2 MSTORE PUSH1 0x4 DUP2 ADD DUP4 SWAP1 MSTORE PUSH1 0x14 PUSH1 0x24 DUP3 ADD MSTORE PUSH20 0x151BDAD95B88191BD95CC81B9BDD08195E1A5CDD PUSH1 0x62 SHL PUSH1 0x44 DUP3 ADD MSTORE PUSH1 0x64 SWAP1 REVERT JUMPDEST CALLVALUE PUSH2 0x3BD JUMPI PUSH1 0x40 CALLDATASIZE PUSH1 0x3 NOT ADD SLT PUSH2 0x3BD JUMPI PUSH2 0x1062 PUSH2 0x4441 JUMP JUMPDEST PUSH1 0x24 CALLDATALOAD PUSH2 0x106D PUSH2 0x47BB JUMP JUMPDEST DUP1 PUSH1 0x0 MSTORE PUSH1 0x20 SWAP2 PUSH1 0x1F DUP4 MSTORE PUSH1 0xFF PUSH1 0x8 PUSH1 0x40 PUSH1 0x0 KECCAK256 ADD SLOAD AND ISZERO PUSH2 0x1283 JUMPI DUP2 PUSH1 0x0 MSTORE PUSH1 0x1F DUP4 MSTORE PUSH1 0x40 PUSH1 0x0 KECCAK256 PUSH1 0xA PUSH1 0x9 DUP3 ADD SLOAD SWAP2 ADD SLOAD GT ISZERO PUSH2 0x1243 JUMPI PUSH1 0x9 SLOAD SWAP2 PUSH1 0x1 DUP4 ADD PUSH1 0x9 SSTORE DUP1 PUSH1 0x0 MSTORE PUSH1 0x1F DUP5 MSTORE PUSH1 0x9 PUSH1 0x40 PUSH1 0x0 KECCAK256 ADD PUSH2 0x10CB DUP2 SLOAD PUSH2 0x5172 JUMP JUMPDEST SWAP1 SSTORE PUSH2 0x10D7 DUP4 DUP4 PUSH2 0x4F0D JUMP JUMPDEST PUSH1 0x40 MLOAD DUP5 DUP2 ADD SWAP2 PUSH17 0x14DC1958DA585B08115D995B9D08139195 PUSH1 0x7A SHL DUP4 MSTORE PUSH1 0x31 DUP3 ADD MSTORE DUP4 PUSH1 0x51 DUP3 ADD MSTORE PUSH1 0x51 DUP2 MSTORE PUSH2 0x110D DUP2 PUSH2 0x44EC JUMP JUMPDEST MLOAD SWAP1 KECCAK256 SWAP1 PUSH1 0x40 MLOAD PUSH2 0x111D DUP2 PUSH2 0x44D0 JUMP JUMPDEST DUP4 DUP2 MSTORE DUP5 DUP2 ADD PUSH1 0x3 DUP2 MSTORE PUSH1 0x40 DUP3 ADD SWAP1 PUSH1 0x5 DUP3 MSTORE PUSH1 0x60 DUP4 ADD SWAP5 DUP6 MSTORE PUSH1 0x80 DUP4 ADD ADDRESS DUP2 MSTORE PUSH1 0xA0 DUP5 ADD SWAP6 TIMESTAMP DUP8 MSTORE PUSH1 0xC0 DUP6 ADD PUSH1 0x0 DUP2 MSTORE PUSH1 0xE0 DUP7 ADD SWAP3 PUSH1 0x0 DUP5 MSTORE PUSH2 0x100 DUP8 ADD SWAP4 PUSH1 0x0 DUP6 MSTORE PUSH2 0x120 DUP9 ADD SWAP6 PUSH1 0x64 DUP8 MSTORE DUP12 PUSH1 0x0 MSTORE PUSH1 0xE DUP14 MSTORE PUSH1 0x40 PUSH1 0x0 KECCAK256 SWAP9 MLOAD DUP10 SSTORE MLOAD SWAP4 PUSH1 0x4 DUP6 LT ISZERO PUSH2 0x122D JUMPI PUSH1 0x8 SWAP8 PUSH2 0x119A PUSH2 0x11EA SWAP7 PUSH1 0x1 DUP13 ADD PUSH2 0x4E0C JUMP JUMPDEST MLOAD PUSH1 0x2 DUP11 ADD SSTORE MLOAD PUSH1 0x3 DUP10 ADD SSTORE SWAP1 MLOAD PUSH1 0x4 DUP9 ADD DUP1 SLOAD PUSH1 0x1 PUSH1 0x1 PUSH1 0xA0 SHL SUB NOT AND PUSH1 0x1 PUSH1 0x1 PUSH1 0xA0 SHL SUB SWAP3 DUP4 AND OR SWAP1 SSTORE SWAP9 MLOAD PUSH1 0x5 DUP9 ADD SSTORE SWAP1 MLOAD PUSH1 0x6 DUP8 ADD SWAP2 DUP10 SWAP2 PUSH2 0x11E2 SWAP1 ISZERO ISZERO DUP5 PUSH2 0x4B46 JUMP JUMPDEST MLOAD AND SWAP1 PUSH2 0x4E24 JUMP JUMPDEST MLOAD PUSH1 0x7 DUP5 ADD SSTORE MLOAD SWAP2 ADD SSTORE AND PUSH1 0x0 MSTORE PUSH1 0x13 DUP3 MSTORE PUSH2 0x120A DUP2 PUSH1 0x40 PUSH1 0x0 KECCAK256 PUSH2 0x4E49 JUMP JUMPDEST PUSH1 0x5 PUSH1 0x40 MLOAD SWAP3 PUSH1 0x3 DUP5 MSTORE DUP4 ADD MSTORE PUSH1 0x0 DUP1 MLOAD PUSH1 0x20 PUSH2 0x5290 DUP4 CODECOPY DUP2 MLOAD SWAP2 MSTORE PUSH1 0x40 ADDRESS SWAP4 LOG3 STOP JUMPDEST PUSH4 0x4E487B71 PUSH1 0xE0 SHL PUSH1 0x0 MSTORE PUSH1 0x21 PUSH1 0x4 MSTORE PUSH1 0x24 PUSH1 0x0 REVERT JUMPDEST PUSH1 0x40 MLOAD PUSH3 0x461BCD PUSH1 0xE5 SHL DUP2 MSTORE PUSH1 0x4 DUP2 ADD DUP5 SWAP1 MSTORE PUSH1 0x18 PUSH1 0x24 DUP3 ADD MSTORE PUSH24 0x13585E081CDC1958DA585B081391951CC81C995858DA1959 PUSH1 0x42 SHL PUSH1 0x44 DUP3 ADD MSTORE PUSH1 0x64 SWAP1 REVERT JUMPDEST PUSH1 0x40 MLOAD PUSH3 0x461BCD PUSH1 0xE5 SHL DUP2 MSTORE PUSH1 0x4 DUP2 ADD DUP5 SWAP1 MSTORE PUSH1 0x10 PUSH1 0x24 DUP3 ADD MSTORE PUSH16 0x4576656E74206E6F7420616374697665 PUSH1 0x80 SHL PUSH1 0x44 DUP3 ADD MSTORE PUSH1 0x64 SWAP1 REVERT JUMPDEST CALLVALUE PUSH2 0x3BD JUMPI PUSH1 0x20 DUP1 PUSH1 0x3 NOT CALLDATASIZE ADD SLT PUSH2 0x3BD JUMPI PUSH1 0x4 CALLDATALOAD PUSH1 0x0 MSTORE PUSH1 0x16 DUP2 MSTORE PUSH1 0x6 PUSH1 0x40 PUSH1 0x0 KECCAK256 ADD PUSH1 0x40 MLOAD SWAP1 DUP2 DUP4 DUP3 SLOAD SWAP2 DUP3 DUP2 MSTORE ADD SWAP1 DUP2 SWAP3 PUSH1 0x0 MSTORE DUP5 PUSH1 0x0 KECCAK256 SWAP1 PUSH1 0x0 JUMPDEST DUP7 DUP3 DUP3 LT PUSH2 0x1359 JUMPI DUP7 DUP7 PUSH2 0x1310 DUP3 DUP9 SUB DUP4 PUSH2 0x4558 JUMP JUMPDEST PUSH1 0x40 MLOAD SWAP3 DUP4 SWAP3 DUP2 DUP5 ADD SWAP1 DUP3 DUP6 MSTORE MLOAD DUP1 SWAP2 MSTORE PUSH1 0x40 DUP5 ADD SWAP3 SWAP2 PUSH1 0x0 JUMPDEST DUP3 DUP2 LT PUSH2 0x1339 JUMPI POP POP POP POP SUB SWAP1 RETURN JUMPDEST DUP4 MLOAD PUSH1 0x1 PUSH1 0x1 PUSH1 0xA0 SHL SUB AND DUP6 MSTORE DUP7 SWAP6 POP SWAP4 DUP2 ADD SWAP4 SWAP3 DUP2 ADD SWAP3 PUSH1 0x1 ADD PUSH2 0x132A JUMP JUMPDEST DUP4 SLOAD PUSH1 0x1 PUSH1 0x1 PUSH1 0xA0 SHL SUB AND DUP6 MSTORE SWAP1 SWAP4 ADD SWAP3 PUSH1 0x1 SWAP3 DUP4 ADD SWAP3 ADD PUSH2 0x12FA JUMP JUMPDEST CALLVALUE PUSH2 0x3BD JUMPI PUSH1 0x20 DUP1 PUSH1 0x3 NOT CALLDATASIZE ADD SLT PUSH2 0x3BD JUMPI PUSH1 0x4 CALLDATALOAD SWAP1 DUP2 PUSH1 0x0 MSTORE PUSH1 0x1D DUP2 MSTORE PUSH1 0x40 PUSH1 0x0 KECCAK256 SWAP2 PUSH1 0x40 MLOAD SWAP2 PUSH2 0x13A7 DUP4 PUSH2 0x44B5 JUMP JUMPDEST DUP4 SLOAD DUP4 MSTORE PUSH1 0x1 SWAP3 PUSH1 0x1 DUP1 PUSH1 0xA0 SHL SUB DUP5 DUP7 ADD SLOAD AND SWAP5 DUP6 DUP4 DUP4 ADD MSTORE PUSH1 0x2 DUP2 ADD SLOAD PUSH1 0x40 DUP4 ADD SWAP1 DUP2 MSTORE PUSH1 0x3 SWAP7 PUSH1 0x80 PUSH1 0x4 DUP10 DUP6 ADD SLOAD SWAP5 PUSH1 0x60 DUP8 ADD SWAP6 DUP7 MSTORE ADD SLOAD SWAP5 ADD SWAP4 DUP5 MSTORE CALLER SUB PUSH2 0x15CF JUMPI MLOAD SWAP1 MLOAD PUSH2 0x13F8 SWAP2 PUSH2 0x5003 JUMP JUMPDEST TIMESTAMP LT PUSH2 0x158C JUMPI MLOAD PUSH7 0x38D7EA4C68000 SWAP1 DUP2 DUP2 MUL SWAP2 DUP2 DUP4 DIV EQ SWAP1 ISZERO OR ISZERO PUSH2 0xB6C JUMPI PUSH1 0x64 SWAP1 DIV SWAP4 DUP5 PUSH1 0x0 DUP2 ISZERO PUSH2 0x1583 JUMPI JUMPDEST PUSH1 0x0 DUP1 DUP1 SWAP4 DUP2 SWAP4 CALLER SWAP1 CALL ISZERO PUSH2 0xAC0 JUMPI DUP3 PUSH1 0x0 MSTORE PUSH1 0x1D DUP3 MSTORE PUSH1 0x0 PUSH1 0x4 PUSH1 0x40 DUP3 KECCAK256 DUP3 DUP2 SSTORE DUP3 DUP8 DUP3 ADD SSTORE DUP3 PUSH1 0x2 DUP3 ADD SSTORE DUP3 DUP5 DUP3 ADD SSTORE ADD SSTORE DUP4 PUSH1 0x0 SWAP1 JUMPDEST PUSH2 0x1482 JUMPI JUMPDEST DUP6 DUP5 PUSH1 0x0 DUP1 MLOAD PUSH1 0x20 PUSH2 0x5270 DUP4 CODECOPY DUP2 MLOAD SWAP2 MSTORE DUP6 PUSH1 0x40 MLOAD SWAP4 DUP5 MSTORE CALLER SWAP4 LOG3 STOP JUMPDEST CALLER PUSH1 0x0 MSTORE PUSH1 0x1E DUP1 DUP5 MSTORE PUSH1 0x40 PUSH1 0x0 KECCAK256 DUP1 SLOAD DUP4 LT ISZERO PUSH2 0x157C JUMPI PUSH2 0x14A4 DUP4 DUP8 SWAP3 PUSH2 0x478A JUMP JUMPDEST SWAP1 SLOAD SWAP1 DUP6 SHL SHR EQ PUSH2 0x14BF JUMPI POP PUSH2 0x14B9 SWAP1 PUSH2 0x5172 JUMP JUMPDEST DUP5 PUSH2 0x1460 JUMP JUMPDEST SWAP1 SWAP4 SWAP5 POP CALLER PUSH1 0x0 MSTORE DUP1 DUP4 MSTORE PUSH1 0x40 PUSH1 0x0 KECCAK256 DUP1 SLOAD SWAP5 PUSH1 0x0 NOT SWAP6 DUP7 DUP2 ADD SWAP1 DUP2 GT PUSH2 0xB6C JUMPI PUSH2 0x14F0 PUSH2 0x1508 SWAP2 PUSH2 0x1521 SWAP5 PUSH2 0x478A JUMP JUMPDEST SWAP1 SLOAD SWAP1 DUP7 SHL SHR SWAP2 CALLER PUSH1 0x0 MSTORE DUP5 DUP8 MSTORE PUSH1 0x40 PUSH1 0x0 KECCAK256 PUSH2 0x478A JUMP JUMPDEST SWAP1 SWAP2 SWAP1 DUP3 SLOAD SWAP1 PUSH1 0x3 SHL SWAP2 DUP3 SHL SWAP2 PUSH1 0x0 NOT SWAP1 SHL NOT AND OR SWAP1 SSTORE JUMP JUMPDEST CALLER PUSH1 0x0 MSTORE DUP3 MSTORE PUSH1 0x40 PUSH1 0x0 KECCAK256 DUP1 SLOAD SWAP4 DUP5 ISZERO PUSH2 0x1566 JUMPI DUP1 PUSH1 0x0 DUP1 MLOAD PUSH1 0x20 PUSH2 0x5270 DUP4 CODECOPY DUP2 MLOAD SWAP2 MSTORE SWAP6 ADD SWAP3 PUSH2 0x1552 DUP5 DUP5 PUSH2 0x478A JUMP JUMPDEST DUP2 SWAP4 SWAP2 SLOAD SWAP3 SHL SHL NOT AND SWAP1 SSTORE SSTORE DUP3 SWAP2 DUP6 PUSH2 0x1465 JUMP JUMPDEST PUSH4 0x4E487B71 PUSH1 0xE0 SHL PUSH1 0x0 MSTORE PUSH1 0x31 PUSH1 0x4 MSTORE PUSH1 0x24 PUSH1 0x0 REVERT JUMPDEST POP POP PUSH2 0x1465 JUMP JUMPDEST POP PUSH2 0x8FC PUSH2 0x1427 JUMP JUMPDEST PUSH1 0x40 MLOAD PUSH3 0x461BCD PUSH1 0xE5 SHL DUP2 MSTORE PUSH1 0x4 DUP2 ADD DUP4 SWAP1 MSTORE PUSH1 0x1B PUSH1 0x24 DUP3 ADD MSTORE PUSH27 0x5374616B696E6720706572696F64206E6F7420636F6D706C657465 PUSH1 0x28 SHL PUSH1 0x44 DUP3 ADD MSTORE PUSH1 0x64 SWAP1 REVERT JUMPDEST PUSH1 0x40 MLOAD PUSH3 0x461BCD PUSH1 0xE5 SHL DUP2 MSTORE PUSH1 0x4 DUP2 ADD DUP6 SWAP1 MSTORE PUSH1 0xA PUSH1 0x24 DUP3 ADD MSTORE PUSH10 0x2737BA1039BA30B5B2B9 PUSH1 0xB1 SHL PUSH1 0x44 DUP3 ADD MSTORE PUSH1 0x64 SWAP1 REVERT JUMPDEST CALLVALUE PUSH2 0x3BD JUMPI PUSH1 0x0 CALLDATASIZE PUSH1 0x3 NOT ADD SLT PUSH2 0x3BD JUMPI PUSH2 0x161A PUSH2 0x47BB JUMP JUMPDEST PUSH2 0x1625 PUSH1 0x24 SLOAD PUSH2 0x5172 JUMP JUMPDEST PUSH1 0x24 SSTORE STOP JUMPDEST CALLVALUE PUSH2 0x3BD JUMPI PUSH1 0x0 CALLDATASIZE PUSH1 0x3 NOT ADD SLT PUSH2 0x3BD JUMPI PUSH1 0x20 PUSH1 0x40 MLOAD PUSH7 0x2386F26FC10000 DUP2 MSTORE RETURN JUMPDEST CALLVALUE PUSH2 0x3BD JUMPI PUSH1 0x40 CALLDATASIZE PUSH1 0x3 NOT ADD SLT PUSH2 0x3BD JUMPI PUSH2 0x1665 PUSH2 0x4441 JUMP JUMPDEST PUSH2 0x166D PUSH2 0x4457 JUMP JUMPDEST SWAP1 PUSH2 0x1676 PUSH2 0x47BB JUMP JUMPDEST PUSH1 0x1 PUSH1 0x1 PUSH1 0xA0 SHL SUB SWAP1 DUP2 AND PUSH1 0x0 DUP2 DUP2 MSTORE PUSH1 0x1A PUSH1 0x20 MSTORE PUSH1 0x40 SWAP1 KECCAK256 SLOAD DUP3 AND PUSH2 0x16B9 JUMPI PUSH1 0x0 SWAP1 DUP2 MSTORE PUSH1 0x1A PUSH1 0x20 MSTORE PUSH1 0x40 SWAP1 KECCAK256 DUP1 SLOAD PUSH1 0x1 PUSH1 0x1 PUSH1 0xA0 SHL SUB NOT AND SWAP2 SWAP1 SWAP3 AND OR SWAP1 SSTORE STOP JUMPDEST PUSH1 0x40 MLOAD PUSH3 0x461BCD PUSH1 0xE5 SHL DUP2 MSTORE PUSH1 0x20 PUSH1 0x4 DUP3 ADD MSTORE PUSH1 0x14 PUSH1 0x24 DUP3 ADD MSTORE PUSH20 0x149959995C9C995C88185B1C9958591E481CD95D PUSH1 0x62 SHL PUSH1 0x44 DUP3 ADD MSTORE PUSH1 0x64 SWAP1 REVERT JUMPDEST CALLVALUE PUSH2 0x3BD JUMPI PUSH1 0x80 CALLDATASIZE PUSH1 0x3 NOT ADD SLT PUSH2 0x3BD JUMPI PUSH2 0x170E PUSH2 0x4441 JUMP JUMPDEST PUSH2 0x1716 PUSH2 0x4457 JUMP JUMPDEST SWAP1 PUSH1 0x64 CALLDATALOAD SWAP1 PUSH1 0x44 CALLDATALOAD PUSH1 0x1 PUSH1 0x1 PUSH1 0x40 SHL SUB DUP4 GT PUSH2 0x3BD JUMPI CALLDATASIZE PUSH1 0x23 DUP5 ADD SLT ISZERO PUSH2 0x3BD JUMPI PUSH2 0x177A SWAP4 PUSH2 0x1752 PUSH2 0x1775 SWAP5 CALLDATASIZE SWAP1 PUSH1 0x24 DUP2 PUSH1 0x4 ADD CALLDATALOAD SWAP2 ADD PUSH2 0x45E2 JUMP JUMPDEST SWAP3 PUSH2 0x1765 PUSH2 0x1760 DUP5 CALLER PUSH2 0x4982 JUMP JUMPDEST PUSH2 0x48A9 JUMP JUMPDEST PUSH2 0x1770 DUP4 DUP4 DUP4 PUSH2 0x4A4A JUMP JUMPDEST PUSH2 0x4C94 JUMP JUMPDEST PUSH2 0x495E JUMP JUMPDEST STOP JUMPDEST CALLVALUE PUSH2 0x3BD JUMPI PUSH1 0x40 CALLDATASIZE PUSH1 0x3 NOT ADD SLT PUSH2 0x3BD JUMPI PUSH2 0x1795 PUSH2 0x4441 JUMP JUMPDEST PUSH1 0x1 PUSH1 0x1 PUSH1 0xA0 SHL SUB AND PUSH1 0x0 SWAP1 DUP2 MSTORE PUSH1 0x1E PUSH1 0x20 MSTORE PUSH1 0x40 SWAP1 KECCAK256 DUP1 SLOAD PUSH1 0x24 CALLDATALOAD SWAP2 SWAP1 DUP3 LT ISZERO PUSH2 0x3BD JUMPI PUSH1 0x20 SWAP2 PUSH2 0x552 SWAP2 PUSH2 0x478A JUMP JUMPDEST CALLVALUE PUSH2 0x3BD JUMPI PUSH1 0x60 CALLDATASIZE PUSH1 0x3 NOT ADD SLT PUSH2 0x3BD JUMPI PUSH1 0x1 PUSH1 0x1 PUSH1 0x40 SHL SUB PUSH1 0x4 CALLDATALOAD DUP2 DUP2 GT PUSH2 0x3BD JUMPI PUSH2 0x17F7 SWAP1 CALLDATASIZE SWAP1 PUSH1 0x4 ADD PUSH2 0x4619 JUMP JUMPDEST SWAP1 PUSH2 0x1800 PUSH2 0x47BB JUMP JUMPDEST PUSH1 0x24 SLOAD SWAP1 PUSH1 0x40 MLOAD SWAP3 PUSH2 0x1811 DUP5 PUSH2 0x4507 JUMP JUMPDEST DUP3 DUP5 MSTORE PUSH1 0x20 SWAP1 DUP2 DUP6 ADD SWAP1 DUP2 MSTORE PUSH1 0x40 DUP6 ADD PUSH1 0x24 CALLDATALOAD DUP2 MSTORE PUSH1 0x60 DUP7 ADD SWAP2 PUSH1 0x44 CALLDATALOAD DUP4 MSTORE PUSH1 0x80 DUP8 ADD SWAP5 PUSH1 0x1 DUP1 DUP8 MSTORE PUSH1 0xA0 DUP10 ADD SWAP6 PUSH1 0x0 DUP8 MSTORE PUSH1 0xC0 DUP11 ADD SWAP9 PUSH1 0x0 DUP11 MSTORE PUSH1 0x0 MSTORE PUSH1 0x18 DUP2 MSTORE PUSH1 0x40 PUSH1 0x0 KECCAK256 SWAP10 MLOAD DUP11 SSTORE DUP2 DUP11 ADD SWAP4 MLOAD DUP1 MLOAD SWAP4 DUP5 GT PUSH2 0xDD0 JUMPI PUSH2 0x1874 DUP6 SLOAD PUSH2 0x466F JUMP JUMPDEST PUSH1 0x1F DUP2 GT PUSH2 0x1969 JUMPI JUMPDEST POP DUP2 PUSH1 0x1F DUP6 GT PUSH1 0x1 EQ PUSH2 0x18F4 JUMPI POP SWAP3 DUP1 PUSH1 0x5 SWAP11 SWAP10 SWAP8 SWAP6 SWAP4 DUP2 SWAP4 PUSH2 0x18E3 SWAP11 SWAP9 SWAP7 PUSH1 0x0 SWAP5 PUSH2 0x18E9 JUMPI JUMPDEST POP POP SHL SWAP2 PUSH1 0x0 NOT SWAP1 PUSH1 0x3 SHL SHR NOT AND OR SWAP1 SSTORE JUMPDEST MLOAD PUSH1 0x2 DUP9 ADD SSTORE MLOAD PUSH1 0x3 DUP8 ADD SSTORE PUSH2 0x18D3 PUSH1 0x4 DUP8 ADD SWAP3 MLOAD ISZERO ISZERO DUP4 PUSH2 0x4B46 JUMP JUMPDEST MLOAD PUSH1 0x1 PUSH1 0x1 PUSH1 0xA0 SHL SUB AND SWAP1 PUSH2 0x4E24 JUMP JUMPDEST MLOAD SWAP2 ADD SSTORE STOP JUMPDEST ADD MLOAD SWAP3 POP DUP14 DUP1 PUSH2 0x18A4 JUMP JUMPDEST SWAP2 SWAP1 PUSH1 0x1F SWAP5 SWAP4 SWAP5 NOT DUP5 AND DUP7 PUSH1 0x0 MSTORE DUP4 PUSH1 0x0 KECCAK256 SWAP4 PUSH1 0x0 SWAP1 JUMPDEST DUP3 DUP3 LT PUSH2 0x1952 JUMPI POP POP SWAP2 PUSH2 0x18E3 SWAP10 SWAP8 SWAP6 SWAP4 SWAP2 DUP6 PUSH1 0x5 SWAP14 SWAP13 SWAP11 SWAP9 SWAP7 SWAP5 LT PUSH2 0x1939 JUMPI JUMPDEST POP POP POP DUP2 SHL ADD SWAP1 SSTORE PUSH2 0x18B6 JUMP JUMPDEST ADD MLOAD PUSH1 0x0 NOT PUSH1 0xF8 DUP5 PUSH1 0x3 SHL AND SHR NOT AND SWAP1 SSTORE DUP12 DUP1 DUP1 PUSH2 0x192C JUMP JUMPDEST DUP1 DUP9 DUP7 SWAP8 DUP3 SWAP5 SWAP8 DUP8 ADD MLOAD DUP2 SSTORE ADD SWAP7 ADD SWAP5 ADD SWAP1 PUSH2 0x190B JUMP JUMPDEST PUSH2 0x1994 SWAP1 DUP7 PUSH1 0x0 MSTORE DUP4 PUSH1 0x0 KECCAK256 PUSH1 0x1F DUP8 ADD PUSH1 0x5 SHR DUP2 ADD SWAP2 DUP6 DUP9 LT PUSH2 0x199A JUMPI JUMPDEST PUSH1 0x1F ADD PUSH1 0x5 SHR ADD SWAP1 PUSH2 0x5181 JUMP JUMPDEST DUP12 PUSH2 0x187D JUMP JUMPDEST SWAP1 SWAP2 POP DUP2 SWAP1 PUSH2 0x1987 JUMP JUMPDEST CALLVALUE PUSH2 0x3BD JUMPI PUSH1 0x40 CALLDATASIZE PUSH1 0x3 NOT ADD SLT PUSH2 0x3BD JUMPI PUSH1 0xE0 PUSH2 0x19BF PUSH2 0x4457 JUMP JUMPDEST PUSH1 0x4 CALLDATALOAD PUSH1 0x0 MSTORE PUSH1 0x20 DUP1 MSTORE PUSH1 0x40 PUSH1 0x0 KECCAK256 PUSH1 0x1 DUP1 PUSH1 0xA0 SHL SUB DUP1 SWAP3 AND PUSH1 0x0 MSTORE PUSH1 0x20 MSTORE PUSH1 0x40 PUSH1 0x0 KECCAK256 DUP1 SLOAD SWAP2 PUSH1 0x1 DUP3 ADD SLOAD AND SWAP1 PUSH1 0x2 DUP2 ADD SLOAD PUSH1 0x3 DUP3 ADD SLOAD PUSH1 0x4 DUP4 ADD SLOAD SWAP2 PUSH1 0xFF PUSH1 0x6 PUSH1 0x5 DUP7 ADD SLOAD SWAP6 ADD SLOAD AND SWAP5 PUSH1 0x40 MLOAD SWAP7 DUP8 MSTORE PUSH1 0x20 DUP8 ADD MSTORE PUSH1 0x40 DUP7 ADD MSTORE PUSH1 0x60 DUP6 ADD MSTORE PUSH1 0x80 DUP5 ADD MSTORE PUSH1 0xA0 DUP4 ADD MSTORE ISZERO ISZERO PUSH1 0xC0 DUP3 ADD MSTORE RETURN JUMPDEST CALLVALUE PUSH2 0x3BD JUMPI PUSH1 0x20 DUP1 PUSH1 0x3 NOT CALLDATASIZE ADD SLT PUSH2 0x3BD JUMPI PUSH1 0x4 CALLDATALOAD PUSH2 0x1A50 PUSH2 0x47BB JUMP JUMPDEST DUP1 PUSH1 0x0 MSTORE PUSH1 0x16 DUP3 MSTORE PUSH1 0x40 PUSH1 0x0 KECCAK256 SWAP2 PUSH1 0x7 DUP4 ADD SWAP1 DUP2 SLOAD PUSH1 0xFF DUP2 AND ISZERO PUSH2 0x1BBB JUMPI PUSH1 0x4 DUP6 ADD SLOAD TIMESTAMP LT DUP1 ISZERO SWAP1 PUSH2 0x1BAC JUMPI JUMPDEST ISZERO PUSH2 0x1B6C JUMPI PUSH1 0xFF NOT AND DUP3 SSTORE PUSH1 0x6 DUP5 ADD DUP1 SLOAD SWAP1 DUP2 ISZERO SWAP1 DUP2 ISZERO PUSH2 0x1A9A JUMPI STOP JUMPDEST PUSH1 0x40 DUP1 MLOAD TIMESTAMP DUP7 DUP3 ADD SWAP1 DUP2 MSTORE DUP2 DUP4 ADD DUP10 SWAP1 MSTORE SWAP2 DUP2 MSTORE PUSH1 0x60 DUP2 ADD PUSH1 0x1 PUSH1 0x1 PUSH1 0x40 SHL SUB DUP2 GT DUP3 DUP3 LT OR PUSH2 0xDD0 JUMPI PUSH1 0x40 MSTORE MLOAD SWAP1 KECCAK256 SWAP2 PUSH2 0x1B56 JUMPI PUSH2 0x1AF6 SWAP3 PUSH2 0x1ADE SWAP3 MOD SWAP1 PUSH2 0x478A JUMP JUMPDEST SWAP1 SLOAD PUSH1 0x1 PUSH1 0x1 PUSH1 0xA0 SHL SUB SWAP3 SWAP2 PUSH1 0x3 SHL SHR DUP3 AND DUP5 PUSH2 0x4E24 JUMP JUMPDEST PUSH1 0x0 DUP1 DUP1 DUP1 PUSH1 0x5 DUP8 SLOAD SWAP10 ADD SWAP9 DUP10 SLOAD SWAP1 DUP7 DUP4 SWAP2 DUP4 ISZERO PUSH2 0x1B4C JUMPI JUMPDEST PUSH1 0x8 SHR AND SWAP1 CALL ISZERO PUSH2 0xAC0 JUMPI PUSH32 0x8941BADE03A3D102784A43EF492D1A5DC2AD4F31419C6F7786234532B108D099 SWAP3 SLOAD PUSH1 0x8 SHR AND SWAP4 SLOAD PUSH1 0x40 MLOAD SWAP1 DUP2 MSTORE LOG3 STOP JUMPDEST PUSH2 0x8FC SWAP3 POP PUSH2 0x1B0F JUMP JUMPDEST PUSH4 0x4E487B71 PUSH1 0xE0 SHL PUSH1 0x0 MSTORE PUSH1 0x12 PUSH1 0x4 MSTORE PUSH1 0x24 PUSH1 0x0 REVERT JUMPDEST PUSH1 0x40 MLOAD PUSH3 0x461BCD PUSH1 0xE5 SHL DUP2 MSTORE PUSH1 0x4 DUP2 ADD DUP4 SWAP1 MSTORE PUSH1 0x18 PUSH1 0x24 DUP3 ADD MSTORE PUSH24 0x546F75726E616D656E74207374696C6C2072756E6E696E67 PUSH1 0x40 SHL PUSH1 0x44 DUP3 ADD MSTORE PUSH1 0x64 SWAP1 REVERT JUMPDEST POP PUSH1 0xA PUSH1 0x6 DUP7 ADD SLOAD LT ISZERO PUSH2 0x1A7D JUMP JUMPDEST PUSH1 0x40 MLOAD PUSH3 0x461BCD PUSH1 0xE5 SHL DUP2 MSTORE PUSH1 0x4 DUP2 ADD DUP4 SWAP1 MSTORE PUSH1 0x18 PUSH1 0x24 DUP3 ADD MSTORE PUSH24 0x151BDD5C9B985B595B9D08185B1C9958591E48195B991959 PUSH1 0x42 SHL PUSH1 0x44 DUP3 ADD MSTORE PUSH1 0x64 SWAP1 REVERT JUMPDEST CALLVALUE PUSH2 0x3BD JUMPI PUSH1 0x20 DUP1 PUSH1 0x3 NOT CALLDATASIZE ADD SLT PUSH2 0x3BD JUMPI PUSH1 0x1 PUSH1 0x1 PUSH1 0xA0 SHL SUB PUSH2 0x1C1D PUSH2 0x4441 JUMP JUMPDEST AND PUSH1 0x0 MSTORE PUSH1 0x13 DUP2 MSTORE PUSH1 0x40 PUSH1 0x0 KECCAK256 SWAP1 PUSH1 0x40 MLOAD SWAP1 DUP2 DUP2 DUP5 SLOAD SWAP2 DUP3 DUP2 MSTORE ADD SWAP4 PUSH1 0x0 MSTORE DUP2 PUSH1 0x0 KECCAK256 SWAP2 PUSH1 0x0 SWAP1 JUMPDEST DUP3 DUP3 LT PUSH2 0x1C68 JUMPI PUSH2 0x1009 DUP6 PUSH2 0x1C5C DUP2 DUP10 SUB DUP3 PUSH2 0x4558 JUMP JUMPDEST PUSH1 0x40 MLOAD SWAP2 DUP3 SWAP2 DUP3 PUSH2 0x474F JUMP JUMPDEST DUP4 SLOAD DUP7 MSTORE SWAP5 DUP6 ADD SWAP5 PUSH1 0x1 SWAP4 DUP5 ADD SWAP4 SWAP1 SWAP2 ADD SWAP1 PUSH2 0x1C45 JUMP JUMPDEST CALLVALUE PUSH2 0x3BD JUMPI PUSH1 0x40 CALLDATASIZE PUSH1 0x3 NOT ADD SLT PUSH2 0x3BD JUMPI PUSH2 0x1C98 PUSH2 0x4441 JUMP JUMPDEST PUSH1 0x24 CALLDATALOAD SWAP1 DUP2 ISZERO ISZERO SWAP1 DUP2 DUP4 SUB PUSH2 0x3BD JUMPI PUSH1 0x1 PUSH1 0x1 PUSH1 0xA0 SHL SUB AND SWAP2 CALLER DUP4 EQ PUSH2 0x1D09 JUMPI PUSH2 0x1CDB SWAP1 CALLER PUSH1 0x0 MSTORE PUSH1 0x5 PUSH1 0x20 MSTORE PUSH1 0x40 PUSH1 0x0 KECCAK256 DUP5 PUSH1 0x0 MSTORE PUSH1 0x20 MSTORE PUSH1 0x40 PUSH1 0x0 KECCAK256 PUSH2 0x4B46 JUMP JUMPDEST PUSH1 0x40 MLOAD SWAP1 DUP2 MSTORE PUSH32 0x17307EAB39AB6107E8899845AD3D59BD9653F200F220920489CA2B5937696C31 PUSH1 0x20 CALLER SWAP3 LOG3 STOP JUMPDEST PUSH1 0x40 MLOAD PUSH3 0x461BCD PUSH1 0xE5 SHL DUP2 MSTORE PUSH1 0x20 PUSH1 0x4 DUP3 ADD MSTORE PUSH1 0x19 PUSH1 0x24 DUP3 ADD MSTORE PUSH25 0x22A9219B99189D1030B8383937BB32903A379031B0B63632B9 PUSH1 0x39 SHL PUSH1 0x44 DUP3 ADD MSTORE PUSH1 0x64 SWAP1 REVERT JUMPDEST CALLVALUE PUSH2 0x3BD JUMPI PUSH1 0x20 CALLDATASIZE PUSH1 0x3 NOT ADD SLT PUSH2 0x3BD JUMPI PUSH1 0x4 CALLDATALOAD PUSH1 0x0 MSTORE PUSH1 0x10 PUSH1 0x20 MSTORE PUSH1 0x20 PUSH1 0x40 PUSH1 0x0 KECCAK256 SLOAD PUSH1 0x40 MLOAD SWAP1 DUP2 MSTORE RETURN JUMPDEST CALLVALUE PUSH2 0x3BD JUMPI PUSH1 0x0 CALLDATASIZE PUSH1 0x3 NOT ADD SLT PUSH2 0x3BD JUMPI PUSH1 0x20 PUSH1 0x21 SLOAD PUSH1 0x40 MLOAD SWAP1 DUP2 MSTORE RETURN JUMPDEST CALLVALUE PUSH2 0x3BD JUMPI PUSH1 0x0 CALLDATASIZE PUSH1 0x3 NOT ADD SLT PUSH2 0x3BD JUMPI CALLER PUSH1 0x0 MSTORE PUSH1 0x20 PUSH1 0x1A DUP2 MSTORE PUSH1 0x1 DUP1 PUSH1 0xA0 SHL SUB SWAP1 DUP2 PUSH1 0x40 PUSH1 0x0 KECCAK256 SLOAD AND ISZERO PUSH2 0x1E3E JUMPI CALLER PUSH1 0x0 MSTORE PUSH1 0x1B DUP2 MSTORE PUSH2 0x1DDB PUSH1 0x40 PUSH1 0x0 KECCAK256 SLOAD ISZERO PUSH2 0x5198 JUMP JUMPDEST CALLER PUSH1 0x0 MSTORE PUSH1 0x1B DUP2 MSTORE PUSH7 0x38D7EA4C68000 SWAP2 DUP3 PUSH1 0x40 PUSH1 0x0 KECCAK256 SSTORE PUSH1 0x0 DUP1 DUP1 DUP1 DUP7 CALLER DUP3 CALL ISZERO PUSH2 0xAC0 JUMPI PUSH32 0x53958B9C644A1D5529DA7C36929D59417EB9A996F08E02A52632BFE20C92EF48 SWAP1 CALLER PUSH1 0x0 MSTORE PUSH1 0x1A DUP4 MSTORE PUSH1 0x40 PUSH1 0x0 KECCAK256 SLOAD AND SWAP2 PUSH1 0x40 MLOAD SWAP4 DUP5 MSTORE CALLER SWAP4 LOG3 STOP JUMPDEST PUSH1 0x64 SWAP1 PUSH1 0x40 MLOAD SWAP1 PUSH3 0x461BCD PUSH1 0xE5 SHL DUP3 MSTORE PUSH1 0x4 DUP3 ADD MSTORE PUSH1 0xF PUSH1 0x24 DUP3 ADD MSTORE PUSH15 0x139BC81C9959995C9C995C881CD95D PUSH1 0x8A SHL PUSH1 0x44 DUP3 ADD MSTORE REVERT JUMPDEST CALLVALUE PUSH2 0x3BD JUMPI PUSH1 0x20 CALLDATASIZE PUSH1 0x3 NOT ADD SLT PUSH2 0x3BD JUMPI PUSH1 0x1 PUSH1 0x1 PUSH1 0xA0 SHL SUB PUSH2 0x1E95 PUSH2 0x4441 JUMP JUMPDEST AND PUSH1 0x0 MSTORE PUSH1 0x14 PUSH1 0x20 MSTORE PUSH1 0x20 PUSH1 0x40 PUSH1 0x0 KECCAK256 SLOAD PUSH1 0x40 MLOAD SWAP1 DUP2 MSTORE RETURN JUMPDEST CALLVALUE PUSH2 0x3BD JUMPI PUSH1 0x0 CALLDATASIZE PUSH1 0x3 NOT ADD SLT PUSH2 0x3BD JUMPI PUSH1 0x40 MLOAD PUSH1 0x0 SWAP1 PUSH1 0x1 DUP1 SLOAD PUSH2 0x1ED2 DUP2 PUSH2 0x466F JUMP JUMPDEST DUP1 DUP5 MSTORE SWAP1 DUP3 DUP2 AND SWAP1 DUP2 ISZERO PUSH2 0x1F4B JUMPI POP PUSH1 0x1 EQ PUSH2 0x1F0D JUMPI JUMPDEST PUSH2 0x1009 DUP4 PUSH2 0x1EF9 DUP2 DUP8 SUB DUP3 PUSH2 0x4558 JUMP JUMPDEST PUSH1 0x40 MLOAD SWAP2 DUP3 SWAP2 PUSH1 0x20 DUP4 MSTORE PUSH1 0x20 DUP4 ADD SWAP1 PUSH2 0x441C JUMP JUMPDEST SWAP3 POP DUP1 PUSH1 0x0 MSTORE PUSH1 0x20 SWAP3 DUP4 PUSH1 0x0 KECCAK256 SWAP2 PUSH1 0x0 SWAP3 JUMPDEST DUP3 DUP5 LT PUSH2 0x1F38 JUMPI POP POP POP DUP2 ADD SWAP1 SWAP2 ADD SWAP1 PUSH2 0x1EF9 DUP2 PUSH2 0x1EE9 JUMP JUMPDEST DUP1 SLOAD DUP6 DUP6 ADD DUP8 ADD MSTORE SWAP3 DUP6 ADD SWAP3 DUP2 ADD PUSH2 0x1F1F JUMP JUMPDEST PUSH2 0x1009 SWAP6 POP PUSH2 0x1EF9 SWAP4 POP PUSH1 0x20 SWAP2 POP SWAP2 DUP5 SWAP3 PUSH1 0xFF NOT AND DUP3 DUP5 ADD MSTORE ISZERO ISZERO PUSH1 0x5 SHL DUP3 ADD ADD SWAP4 POP PUSH2 0x1EE9 JUMP JUMPDEST CALLVALUE PUSH2 0x3BD JUMPI PUSH2 0x1F81 CALLDATASIZE PUSH2 0x4659 JUMP JUMPDEST SWAP1 PUSH2 0x1F8B DUP2 PUSH2 0x485A JUMP JUMPDEST PUSH1 0x1 PUSH1 0x1 PUSH1 0xA0 SHL SUB SWAP1 PUSH2 0x1FA1 SWAP1 DUP3 AND CALLER EQ PUSH2 0x51DD JUMP JUMPDEST DUP3 ISZERO PUSH2 0x203A JUMPI PUSH2 0x200C SWAP1 PUSH1 0x3 PUSH1 0x40 MLOAD SWAP2 PUSH2 0x1FBA DUP4 PUSH2 0x44EC JUMP JUMPDEST DUP5 DUP4 MSTORE PUSH1 0x20 DUP4 ADD CALLER DUP2 MSTORE PUSH1 0x40 DUP5 ADD SWAP1 DUP8 DUP3 MSTORE PUSH1 0x60 DUP6 ADD SWAP3 PUSH1 0x1 DUP5 MSTORE DUP8 PUSH1 0x0 MSTORE PUSH1 0x1C PUSH1 0x20 MSTORE PUSH1 0x40 PUSH1 0x0 KECCAK256 SWAP6 MLOAD DUP7 SSTORE PUSH1 0x1 DUP7 ADD SWAP2 MLOAD AND PUSH1 0x1 DUP1 PUSH1 0xA0 SHL SUB NOT DUP3 SLOAD AND OR SWAP1 SSTORE MLOAD PUSH1 0x2 DUP5 ADD SSTORE MLOAD ISZERO ISZERO SWAP2 ADD PUSH2 0x4B46 JUMP JUMPDEST PUSH1 0x40 MLOAD SWAP2 DUP3 MSTORE PUSH32 0x5F9C03DE076F5063CD3EBCFE8EF7AA8AF378E4B35A83C77BA9777E97083879A2 PUSH1 0x20 CALLER SWAP4 LOG3 STOP JUMPDEST PUSH1 0x40 MLOAD PUSH3 0x461BCD PUSH1 0xE5 SHL DUP2 MSTORE PUSH1 0x20 PUSH1 0x4 DUP3 ADD MSTORE PUSH1 0x1C PUSH1 0x24 DUP3 ADD MSTORE PUSH28 0x5072696365206D7573742062652067726561746572207468616E203 PUSH1 0x24 SHL PUSH1 0x44 DUP3 ADD MSTORE PUSH1 0x64 SWAP1 REVERT JUMPDEST PUSH1 0x20 CALLDATASIZE PUSH1 0x3 NOT ADD SLT PUSH2 0x3BD JUMPI PUSH1 0x4 CALLDATALOAD PUSH2 0x209E PUSH2 0x88A CALLER PUSH2 0xE10 DUP5 DIV PUSH2 0x4DB0 JUMP JUMPDEST PUSH1 0x40 MLOAD SWAP1 DUP2 MSTORE PUSH32 0xEE8CFDA0C67F1ACD18FF57B5828F18514D204F62F1A359E195515A940A2B77A PUSH1 0x20 CALLER SWAP3 LOG2 STOP JUMPDEST CALLVALUE PUSH2 0x3BD JUMPI PUSH1 0x0 CALLDATASIZE PUSH1 0x3 NOT ADD SLT PUSH2 0x3BD JUMPI PUSH1 0x7 SLOAD PUSH1 0x40 MLOAD PUSH1 0x1 PUSH1 0x1 PUSH1 0xA0 SHL SUB SWAP1 SWAP2 AND DUP2 MSTORE PUSH1 0x20 SWAP1 RETURN JUMPDEST CALLVALUE PUSH2 0x3BD JUMPI PUSH1 0x20 DUP1 PUSH1 0x3 NOT CALLDATASIZE ADD SLT PUSH2 0x3BD JUMPI PUSH1 0x4 CALLDATALOAD PUSH1 0x1 PUSH1 0x1 PUSH1 0x40 SHL SUB DUP2 GT PUSH2 0x3BD JUMPI PUSH2 0x2126 SWAP1 CALLDATASIZE SWAP1 PUSH1 0x4 ADD PUSH2 0x4619 JUMP JUMPDEST PUSH1 0x24 SWAP1 DUP2 SLOAD SWAP1 DUP2 PUSH1 0x0 MSTORE PUSH1 0x18 DUP5 MSTORE PUSH1 0x40 PUSH1 0x0 KECCAK256 SWAP2 PUSH1 0x4 DUP4 ADD SWAP2 DUP3 SLOAD SWAP2 PUSH1 0xFF DUP4 AND ISZERO PUSH2 0x233A JUMPI CALLER PUSH1 0x0 MSTORE PUSH1 0x19 DUP8 MSTORE PUSH1 0x40 PUSH1 0x0 KECCAK256 SLOAD LT ISZERO PUSH2 0x22FC JUMPI PUSH1 0x40 MLOAD PUSH2 0x2188 DUP8 DUP3 DUP2 PUSH2 0x217B DUP2 DUP4 ADD SWAP7 DUP8 DUP2 MLOAD SWAP4 DUP5 SWAP3 ADD PUSH2 0x43F9 JUMP JUMPDEST DUP2 ADD SUB DUP1 DUP5 MSTORE ADD DUP3 PUSH2 0x4558 JUMP JUMPDEST MLOAD SWAP1 KECCAK256 PUSH1 0x2 DUP5 ADD SLOAD SUB PUSH2 0x22C7 JUMPI PUSH1 0xFF NOT AND DUP2 SSTORE PUSH1 0x3 SWAP2 SWAP1 PUSH2 0x21AA SWAP1 CALLER SWAP1 PUSH2 0x4E24 JUMP JUMPDEST TIMESTAMP PUSH1 0x5 DUP3 ADD SSTORE DUP3 SLOAD CALLER PUSH1 0x0 MSTORE PUSH1 0x19 DUP6 MSTORE PUSH1 0x40 PUSH1 0x0 KECCAK256 SSTORE ADD SWAP1 DUP2 SLOAD SWAP2 PUSH1 0x22 SLOAD SWAP1 DUP2 ISZERO ISZERO DUP1 PUSH2 0x22AD JUMPI JUMPDEST PUSH2 0x222E JUMPI JUMPDEST POP POP DUP2 PUSH1 0x0 DUP2 ISZERO PUSH2 0x2225 JUMPI JUMPDEST PUSH1 0x0 DUP1 DUP1 SWAP4 DUP2 SWAP4 CALLER SWAP1 CALL ISZERO PUSH2 0xAC0 JUMPI SLOAD SWAP2 PUSH1 0x40 MLOAD SWAP3 DUP4 MSTORE DUP3 ADD MSTORE PUSH32 0x523E61D558556AA27AC8542575A674429F457748B192AFB77E231A53F8E1B9B5 PUSH1 0x40 CALLER SWAP3 LOG2 STOP JUMPDEST POP PUSH2 0x8FC PUSH2 0x21E3 JUMP JUMPDEST PUSH1 0x64 PUSH2 0x224F DUP4 SWAP6 PUSH2 0x227D SWAP5 PUSH1 0x0 MSTORE PUSH1 0x1F DUP9 MSTORE PUSH1 0x6 PUSH1 0x40 PUSH1 0x0 KECCAK256 ADD SLOAD SWAP1 PUSH2 0x4D35 JUMP JUMPDEST DIV SWAP4 PUSH1 0x0 MSTORE DUP5 DUP1 MSTORE PUSH1 0x40 PUSH1 0x0 KECCAK256 CALLER PUSH1 0x0 MSTORE DUP6 MSTORE PUSH1 0x3 PUSH1 0x40 PUSH1 0x0 KECCAK256 ADD PUSH2 0x2274 DUP2 SLOAD PUSH2 0x5172 JUMP JUMPDEST SWAP1 SSTORE SLOAD DUP4 PUSH2 0x4D48 JUMP JUMPDEST PUSH1 0x22 SLOAD PUSH1 0x0 MSTORE DUP4 DUP1 MSTORE PUSH1 0x40 PUSH1 0x0 KECCAK256 CALLER PUSH1 0x0 MSTORE DUP5 MSTORE PUSH2 0x22A4 PUSH1 0x5 PUSH1 0x40 PUSH1 0x0 KECCAK256 ADD SWAP2 DUP3 SLOAD PUSH2 0x5003 JUMP JUMPDEST SWAP1 SSTORE DUP4 DUP1 PUSH2 0x21D7 JUMP JUMPDEST POP DUP2 PUSH1 0x0 MSTORE PUSH1 0x1F DUP6 MSTORE PUSH1 0xFF PUSH1 0x8 PUSH1 0x40 PUSH1 0x0 KECCAK256 ADD SLOAD AND PUSH2 0x21D2 JUMP JUMPDEST PUSH1 0x40 MLOAD PUSH3 0x461BCD PUSH1 0xE5 SHL DUP2 MSTORE PUSH1 0x4 DUP2 ADD DUP7 SWAP1 MSTORE PUSH1 0xE DUP2 DUP7 ADD MSTORE PUSH14 0x2BB937B7339039B7B63ABA34B7B7 PUSH1 0x91 SHL PUSH1 0x44 DUP3 ADD MSTORE PUSH1 0x64 SWAP1 REVERT JUMPDEST PUSH1 0x40 MLOAD PUSH3 0x461BCD PUSH1 0xE5 SHL DUP2 MSTORE PUSH1 0x4 DUP2 ADD DUP8 SWAP1 MSTORE PUSH1 0x17 DUP2 DUP8 ADD MSTORE PUSH23 0x416C726561647920636F6D706C6574656420746F646179 PUSH1 0x48 SHL PUSH1 0x44 DUP3 ADD MSTORE PUSH1 0x64 SWAP1 REVERT JUMPDEST PUSH1 0x40 MLOAD PUSH3 0x461BCD PUSH1 0xE5 SHL DUP2 MSTORE PUSH1 0x4 DUP2 ADD DUP9 SWAP1 MSTORE PUSH1 0x13 DUP2 DUP9 ADD MSTORE PUSH19 0x4E6F20616374697665206368616C6C656E6765 PUSH1 0x68 SHL PUSH1 0x44 DUP3 ADD MSTORE PUSH1 0x64 SWAP1 REVERT JUMPDEST CALLVALUE PUSH2 0x3BD JUMPI PUSH1 0x0 CALLDATASIZE PUSH1 0x3 NOT ADD SLT PUSH2 0x3BD JUMPI PUSH1 0x40 MLOAD PUSH2 0xCA0 DUP2 ADD PUSH1 0x1 PUSH1 0x1 PUSH1 0x40 SHL SUB DUP2 GT DUP3 DUP3 LT OR PUSH2 0xDD0 JUMPI PUSH1 0x40 MSTORE PUSH1 0x64 DUP1 DUP3 MSTORE PUSH1 0x20 SWAP2 PUSH2 0xC80 CALLDATASIZE DUP5 DUP4 ADD CALLDATACOPY PUSH1 0x9 SLOAD PUSH1 0x0 SWAP3 PUSH1 0x1 SWAP2 DUP3 DUP1 JUMPDEST PUSH2 0x2430 JUMPI JUMPDEST POP POP POP POP PUSH2 0x23D0 DUP3 PUSH2 0x457B JUMP JUMPDEST SWAP3 PUSH2 0x23DE PUSH1 0x40 MLOAD SWAP5 DUP6 PUSH2 0x4558 JUMP JUMPDEST DUP3 DUP5 MSTORE PUSH1 0x1F NOT PUSH2 0x23ED DUP5 PUSH2 0x457B JUMP JUMPDEST ADD SWAP1 CALLDATASIZE SWAP1 DUP6 ADD CALLDATACOPY PUSH1 0x0 JUMPDEST DUP3 DUP2 LT PUSH2 0x240C JUMPI PUSH1 0x40 MLOAD DUP1 PUSH2 0x1009 DUP7 DUP3 PUSH2 0x474F JUMP JUMPDEST DUP1 PUSH2 0x241A PUSH2 0x242B SWAP3 DUP5 PUSH2 0x521B JUMP JUMPDEST MLOAD PUSH2 0x2425 DUP3 DUP8 PUSH2 0x521B JUMP JUMPDEST MSTORE PUSH2 0x5172 JUMP JUMPDEST PUSH2 0x23F7 JUMP JUMPDEST DUP2 DUP2 GT ISZERO DUP1 PUSH2 0x2487 JUMPI JUMPDEST ISZERO PUSH2 0x2482 JUMPI DUP1 PUSH1 0x0 MSTORE PUSH1 0x1C DUP8 MSTORE PUSH1 0xFF PUSH1 0x3 PUSH1 0x40 PUSH1 0x0 KECCAK256 ADD SLOAD AND PUSH2 0x2467 JUMPI JUMPDEST PUSH2 0x2461 SWAP1 PUSH2 0x5172 JUMP JUMPDEST DUP4 PUSH2 0x23BE JUMP JUMPDEST SWAP5 PUSH2 0x247A DUP2 DUP8 PUSH2 0x2425 PUSH2 0x2461 SWAP5 DUP10 PUSH2 0x521B JUMP JUMPDEST SWAP6 SWAP1 POP PUSH2 0x2458 JUMP JUMPDEST PUSH2 0x23C3 JUMP JUMPDEST POP DUP3 DUP7 LT PUSH2 0x243A JUMP JUMPDEST CALLVALUE PUSH2 0x3BD JUMPI PUSH1 0x0 CALLDATASIZE PUSH1 0x3 NOT ADD SLT PUSH2 0x3BD JUMPI PUSH1 0x20 PUSH1 0x23 SLOAD PUSH1 0x40 MLOAD SWAP1 DUP2 MSTORE RETURN JUMPDEST PUSH2 0x4637 JUMP JUMPDEST CALLVALUE PUSH2 0x3BD JUMPI PUSH1 0x20 DUP1 PUSH1 0x3 NOT CALLDATASIZE ADD SLT PUSH2 0x3BD JUMPI PUSH1 0x1 PUSH1 0x1 PUSH1 0xA0 SHL SUB PUSH2 0x24D5 PUSH2 0x4441 JUMP JUMPDEST AND PUSH1 0x0 MSTORE PUSH1 0x1E DUP2 MSTORE PUSH1 0x40 PUSH1 0x0 KECCAK256 SWAP1 PUSH1 0x40 MLOAD SWAP1 DUP2 DUP2 DUP5 SLOAD SWAP2 DUP3 DUP2 MSTORE ADD SWAP4 PUSH1 0x0 MSTORE DUP2 PUSH1 0x0 KECCAK256 SWAP2 PUSH1 0x0 SWAP1 JUMPDEST DUP3 DUP3 LT PUSH2 0x2514 JUMPI PUSH2 0x1009 DUP6 PUSH2 0x1C5C DUP2 DUP10 SUB DUP3 PUSH2 0x4558 JUMP JUMPDEST DUP4 SLOAD DUP7 MSTORE SWAP5 DUP6 ADD SWAP5 PUSH1 0x1 SWAP4 DUP5 ADD SWAP4 SWAP1 SWAP2 ADD SWAP1 PUSH2 0x24FD JUMP JUMPDEST CALLVALUE PUSH2 0x3BD JUMPI PUSH1 0x40 CALLDATASIZE PUSH1 0x3 NOT ADD SLT PUSH2 0x3BD JUMPI PUSH2 0x2544 PUSH2 0x4441 JUMP JUMPDEST PUSH1 0x1 PUSH1 0x1 PUSH1 0xA0 SHL SUB AND PUSH1 0x0 SWAP1 DUP2 MSTORE PUSH1 0x13 PUSH1 0x20 MSTORE PUSH1 0x40 SWAP1 KECCAK256 DUP1 SLOAD PUSH1 0x24 CALLDATALOAD SWAP2 SWAP1 DUP3 LT ISZERO PUSH2 0x3BD JUMPI PUSH1 0x20 SWAP2 PUSH2 0x552 SWAP2 PUSH2 0x478A JUMP JUMPDEST CALLVALUE PUSH2 0x3BD JUMPI PUSH1 0x20 CALLDATASIZE PUSH1 0x3 NOT ADD SLT PUSH2 0x3BD JUMPI PUSH1 0x1 PUSH1 0x1 PUSH1 0xA0 SHL SUB PUSH2 0x2596 PUSH2 0x4441 JUMP JUMPDEST AND PUSH1 0x0 MSTORE PUSH1 0x19 PUSH1 0x20 MSTORE PUSH1 0x20 PUSH1 0x40 PUSH1 0x0 KECCAK256 SLOAD PUSH1 0x40 MLOAD SWAP1 DUP2 MSTORE RETURN JUMPDEST CALLVALUE PUSH2 0x3BD JUMPI PUSH1 0x20 DUP1 PUSH1 0x3 NOT CALLDATASIZE ADD SLT PUSH2 0x3BD JUMPI PUSH1 0x1 PUSH1 0x1 PUSH1 0xA0 SHL SUB PUSH2 0x25D1 PUSH2 0x4441 JUMP JUMPDEST AND PUSH1 0x0 MSTORE PUSH1 0x17 DUP2 MSTORE PUSH1 0x40 PUSH1 0x0 KECCAK256 SWAP1 PUSH1 0x40 MLOAD SWAP1 DUP2 DUP2 DUP5 SLOAD SWAP2 DUP3 DUP2 MSTORE ADD SWAP4 PUSH1 0x0 MSTORE DUP2 PUSH1 0x0 KECCAK256 SWAP2 PUSH1 0x0 SWAP1 JUMPDEST DUP3 DUP3 LT PUSH2 0x2610 JUMPI PUSH2 0x1009 DUP6 PUSH2 0x1C5C DUP2 DUP10 SUB DUP3 PUSH2 0x4558 JUMP JUMPDEST DUP4 SLOAD DUP7 MSTORE SWAP5 DUP6 ADD SWAP5 PUSH1 0x1 SWAP4 DUP5 ADD SWAP4 SWAP1 SWAP2 ADD SWAP1 PUSH2 0x25F9 JUMP JUMPDEST CALLVALUE PUSH2 0x3BD JUMPI PUSH1 0x20 DUP1 PUSH1 0x3 NOT CALLDATASIZE ADD SLT PUSH2 0x3BD JUMPI PUSH1 0x4 CALLDATALOAD SWAP1 PUSH2 0x2645 PUSH2 0x4E6C JUMP JUMPDEST DUP2 PUSH1 0x0 MSTORE PUSH1 0x1F DUP2 MSTORE PUSH1 0x4 PUSH1 0x40 PUSH1 0x0 KECCAK256 ADD SLOAD TIMESTAMP GT ISZERO PUSH2 0x2739 JUMPI DUP2 PUSH1 0x0 MSTORE DUP1 DUP1 MSTORE PUSH1 0x40 PUSH1 0x0 KECCAK256 CALLER PUSH1 0x0 MSTORE DUP2 MSTORE PUSH1 0x5 PUSH1 0x40 PUSH1 0x0 KECCAK256 ADD SLOAD ISZERO PUSH2 0x26FF JUMPI PUSH1 0x0 DUP1 DUP1 DUP5 DUP2 SWAP5 DUP2 DUP4 MSTORE DUP1 DUP1 MSTORE PUSH1 0x40 DUP4 KECCAK256 CALLER DUP5 MSTORE DUP2 MSTORE PUSH2 0x26A7 PUSH1 0xFF PUSH1 0x6 PUSH1 0x40 DUP7 KECCAK256 ADD SLOAD AND ISZERO PUSH2 0x5198 JUMP JUMPDEST DUP2 DUP4 MSTORE DUP1 DUP1 MSTORE PUSH1 0x40 DUP4 KECCAK256 CALLER DUP5 MSTORE DUP2 MSTORE PUSH1 0x5 PUSH1 0x40 DUP5 KECCAK256 ADD SLOAD SWAP2 DUP4 MSTORE DUP1 DUP1 MSTORE PUSH1 0x40 DUP4 KECCAK256 SWAP1 CALLER DUP5 MSTORE MSTORE PUSH1 0x6 PUSH1 0x40 DUP4 KECCAK256 ADD PUSH1 0x1 PUSH1 0xFF NOT DUP3 SLOAD AND OR SWAP1 SSTORE DUP2 DUP2 ISZERO PUSH2 0x26F6 JUMPI JUMPDEST CALLER SWAP1 CALL ISZERO PUSH2 0xAC0 JUMPI PUSH1 0x1 PUSH1 0x8 SSTORE STOP JUMPDEST POP PUSH2 0x8FC PUSH2 0x26E7 JUMP JUMPDEST PUSH1 0x64 SWAP1 PUSH1 0x40 MLOAD SWAP1 PUSH3 0x461BCD PUSH1 0xE5 SHL DUP3 MSTORE PUSH1 0x4 DUP3 ADD MSTORE PUSH1 0x13 PUSH1 0x24 DUP3 ADD MSTORE PUSH19 0x4E6F207265776172647320746F20636C61696D PUSH1 0x68 SHL PUSH1 0x44 DUP3 ADD MSTORE REVERT JUMPDEST PUSH1 0x64 SWAP1 PUSH1 0x40 MLOAD SWAP1 PUSH3 0x461BCD PUSH1 0xE5 SHL DUP3 MSTORE PUSH1 0x4 DUP3 ADD MSTORE PUSH1 0x12 PUSH1 0x24 DUP3 ADD MSTORE PUSH18 0x4576656E74207374696C6C20616374697665 PUSH1 0x70 SHL PUSH1 0x44 DUP3 ADD MSTORE REVERT JUMPDEST CALLVALUE PUSH2 0x3BD JUMPI PUSH1 0x20 CALLDATASIZE PUSH1 0x3 NOT ADD SLT PUSH2 0x3BD JUMPI PUSH1 0x4 CALLDATALOAD PUSH1 0x0 MSTORE PUSH1 0x16 PUSH1 0x20 MSTORE PUSH1 0x40 PUSH1 0x0 KECCAK256 DUP1 SLOAD PUSH2 0x27A1 PUSH1 0x1 DUP4 ADD PUSH2 0x46A9 JUMP JUMPDEST SWAP2 PUSH1 0x2 DUP2 ADD SLOAD SWAP1 PUSH1 0x3 DUP2 ADD SLOAD SWAP1 PUSH1 0x4 DUP2 ADD SLOAD PUSH1 0x7 PUSH1 0x5 DUP4 ADD SLOAD SWAP3 ADD SLOAD SWAP3 PUSH2 0x27DA PUSH1 0x40 MLOAD SWAP8 DUP9 SWAP8 DUP9 MSTORE PUSH2 0x100 DUP1 PUSH1 0x20 DUP11 ADD MSTORE DUP9 ADD SWAP1 PUSH2 0x441C JUMP JUMPDEST PUSH1 0x40 DUP8 ADD SWAP6 SWAP1 SWAP6 MSTORE PUSH1 0x60 DUP7 ADD MSTORE PUSH1 0x80 DUP6 ADD MSTORE PUSH1 0xA0 DUP5 ADD MSTORE PUSH1 0xFF DUP2 AND ISZERO ISZERO PUSH1 0xC0 DUP5 ADD MSTORE PUSH1 0x8 SHR PUSH1 0x1 PUSH1 0x1 PUSH1 0xA0 SHL SUB AND PUSH1 0xE0 DUP4 ADD MSTORE SUB SWAP1 RETURN JUMPDEST CALLVALUE PUSH2 0x3BD JUMPI PUSH1 0x0 CALLDATASIZE PUSH1 0x3 NOT ADD SLT PUSH2 0x3BD JUMPI PUSH2 0x282A PUSH2 0x47BB JUMP JUMPDEST PUSH1 0x7 DUP1 SLOAD PUSH1 0x1 PUSH1 0x1 PUSH1 0xA0 SHL SUB NOT DUP2 AND SWAP1 SWAP2 SSTORE PUSH1 0x0 SWAP1 PUSH1 0x1 PUSH1 0x1 PUSH1 0xA0 SHL SUB AND PUSH1 0x0 DUP1 MLOAD PUSH1 0x20 PUSH2 0x5230 DUP4 CODECOPY DUP2 MLOAD SWAP2 MSTORE DUP3 DUP1 LOG3 STOP JUMPDEST CALLVALUE PUSH2 0x3BD JUMPI PUSH1 0x20 CALLDATASIZE PUSH1 0x3 NOT ADD SLT PUSH2 0x3BD JUMPI PUSH1 0x1 PUSH1 0x1 PUSH1 0xA0 SHL SUB PUSH2 0x287D PUSH2 0x4441 JUMP JUMPDEST AND DUP1 ISZERO PUSH2 0x289C JUMPI PUSH1 0x0 MSTORE PUSH1 0x3 PUSH1 0x20 MSTORE PUSH1 0x20 PUSH1 0x40 PUSH1 0x0 KECCAK256 SLOAD PUSH1 0x40 MLOAD SWAP1 DUP2 MSTORE RETURN JUMPDEST PUSH1 0x40 MLOAD PUSH3 0x461BCD PUSH1 0xE5 SHL DUP2 MSTORE PUSH1 0x20 PUSH1 0x4 DUP3 ADD MSTORE PUSH1 0x29 PUSH1 0x24 DUP3 ADD MSTORE PUSH32 0x4552433732313A2061646472657373207A65726F206973206E6F742061207661 PUSH1 0x44 DUP3 ADD MSTORE PUSH9 0x3634B21037BBB732B9 PUSH1 0xB9 SHL PUSH1 0x64 DUP3 ADD MSTORE PUSH1 0x84 SWAP1 REVERT JUMPDEST CALLVALUE PUSH2 0x3BD JUMPI PUSH1 0x0 CALLDATASIZE PUSH1 0x3 NOT ADD SLT PUSH2 0x3BD JUMPI PUSH1 0x20 PUSH1 0x40 MLOAD PUSH7 0x71AFD498D0000 DUP2 MSTORE RETURN JUMPDEST CALLVALUE PUSH2 0x3BD JUMPI PUSH1 0x20 DUP1 PUSH1 0x3 NOT CALLDATASIZE ADD SLT PUSH2 0x3BD JUMPI PUSH1 0x4 CALLDATALOAD SWAP1 DUP2 PUSH1 0x0 MSTORE PUSH1 0xE DUP2 MSTORE PUSH1 0x40 PUSH1 0x0 KECCAK256 PUSH1 0x40 MLOAD PUSH2 0x2944 DUP2 PUSH2 0x44D0 JUMP JUMPDEST DUP2 SLOAD DUP2 MSTORE PUSH2 0x120 PUSH1 0x8 PUSH1 0xFF PUSH1 0x1 DUP6 ADD SLOAD AND SWAP4 PUSH2 0x2963 DUP7 DUP6 ADD SWAP6 DUP7 PUSH2 0x4E00 JUMP JUMPDEST PUSH1 0x2 DUP2 ADD SLOAD PUSH1 0x40 DUP6 ADD MSTORE PUSH1 0x3 DUP2 ADD SLOAD PUSH1 0x60 DUP6 ADD MSTORE PUSH1 0x1 DUP1 PUSH1 0xA0 SHL SUB DUP1 PUSH1 0x4 DUP4 ADD SLOAD AND PUSH1 0x80 DUP7 ADD MSTORE PUSH1 0x5 DUP3 ADD SLOAD PUSH1 0xA0 DUP7 ADD MSTORE PUSH1 0x6 DUP3 ADD SLOAD PUSH1 0xFF DUP2 AND ISZERO ISZERO PUSH1 0xC0 DUP8 ADD MSTORE DUP4 SHR AND PUSH1 0xE0 DUP6 ADD MSTORE PUSH1 0x7 DUP2 ADD SLOAD PUSH2 0x100 DUP6 ADD MSTORE ADD SLOAD SWAP2 ADD MSTORE DUP3 PUSH1 0x0 MSTORE PUSH1 0xF DUP3 MSTORE PUSH1 0x40 PUSH1 0x0 KECCAK256 SWAP1 PUSH1 0x40 MLOAD SWAP1 PUSH2 0x29D7 DUP3 PUSH2 0x44EC JUMP JUMPDEST DUP3 SLOAD DUP3 MSTORE PUSH1 0x3 PUSH1 0x1 DUP5 ADD SLOAD SWAP4 DUP6 DUP5 ADD SWAP5 DUP6 MSTORE PUSH1 0x2 DUP2 ADD SLOAD PUSH1 0x40 DUP6 ADD MSTORE ADD SLOAD PUSH1 0x60 DUP4 ADD MSTORE DUP1 MLOAD PUSH1 0x4 DUP2 LT ISZERO PUSH2 0x122D JUMPI PUSH2 0x2B23 JUMPI POP PUSH1 0x5D SWAP1 PUSH2 0xFF5 SWAP3 PUSH2 0x2A54 PUSH2 0x2A4D PUSH2 0x2A46 PUSH1 0x40 MLOAD PUSH2 0x2A26 DUP2 PUSH2 0x453D JUMP JUMPDEST PUSH1 0xE DUP2 MSTORE PUSH14 0x21B934B6B9B7B7102632B3B4B7B7 PUSH1 0x91 SHL DUP10 DUP3 ADD MSTORE SWAP9 PUSH2 0x5010 JUMP JUMPDEST SWAP4 MLOAD PUSH2 0x5010 JUMP JUMPDEST SWAP2 MLOAD PUSH2 0x5010 JUMP JUMPDEST SWAP1 PUSH1 0x40 MLOAD SWAP7 DUP8 SWAP4 PUSH23 0x7B226E616D65223A2244796E616D696320436C75652023 PUSH1 0x48 SHL DUP9 DUP7 ADD MSTORE PUSH2 0x2A8D DUP2 MLOAD DUP1 SWAP3 DUP11 PUSH1 0x37 DUP10 ADD SWAP2 ADD PUSH2 0x43F9 JUMP JUMPDEST DUP5 ADD PUSH13 0x1116113330B1BA34B7B7111D11 PUSH1 0x99 SHL PUSH1 0x37 DUP3 ADD MSTORE PUSH2 0x2AB8 DUP3 MLOAD DUP1 SWAP4 DUP11 PUSH1 0x44 DUP6 ADD SWAP2 ADD PUSH2 0x43F9 JUMP JUMPDEST ADD PUSH10 0x1116113632BB32B6111D PUSH1 0xB1 SHL PUSH1 0x44 DUP3 ADD MSTORE PUSH2 0x2ADF DUP3 MLOAD DUP1 SWAP4 DUP10 PUSH1 0x4E DUP6 ADD SWAP2 ADD PUSH2 0x43F9 JUMP JUMPDEST ADD PUSH14 0x161132BC3832B934B2B731B2911D PUSH1 0x91 SHL PUSH1 0x4E DUP3 ADD MSTORE PUSH2 0x2B0A DUP3 MLOAD DUP1 SWAP4 DUP9 PUSH1 0x5C DUP6 ADD SWAP2 ADD PUSH2 0x43F9 JUMP JUMPDEST ADD PUSH1 0x7D PUSH1 0xF8 SHL PUSH1 0x5C DUP3 ADD MSTORE SUB PUSH1 0x3D DUP2 ADD DUP6 MSTORE ADD DUP4 PUSH2 0x4558 JUMP JUMPDEST DUP1 MLOAD PUSH1 0x4 DUP2 LT ISZERO PUSH2 0x122D JUMPI PUSH1 0x1 SUB PUSH2 0x2B6F JUMPI POP PUSH1 0x5D SWAP1 PUSH2 0xFF5 SWAP3 PUSH2 0x2A54 PUSH2 0x2A4D PUSH2 0x2A46 PUSH1 0x40 MLOAD PUSH2 0x2B52 DUP2 PUSH2 0x453D JUMP JUMPDEST PUSH1 0xB DUP2 MSTORE PUSH11 0x20BD3AB9329027B93232B9 PUSH1 0xA9 SHL DUP10 DUP3 ADD MSTORE SWAP9 PUSH2 0x5010 JUMP JUMPDEST MLOAD SWAP1 PUSH1 0x4 DUP3 LT ISZERO PUSH2 0x122D JUMPI PUSH2 0xFF5 SWAP3 PUSH1 0x5D SWAP3 PUSH1 0x2 SUB PUSH2 0x2BBF JUMPI PUSH2 0x2A54 PUSH2 0x2A4D PUSH2 0x2A46 PUSH1 0x40 MLOAD PUSH2 0x2B9D DUP2 PUSH2 0x453D JUMP JUMPDEST PUSH1 0x10 DUP2 MSTORE PUSH16 0x56657264616E7420416C6C69616E6365 PUSH1 0x80 SHL DUP10 DUP3 ADD MSTORE SWAP9 PUSH2 0x5010 JUMP JUMPDEST PUSH2 0x2A54 PUSH2 0x2A4D PUSH2 0x2A46 PUSH1 0x40 MLOAD PUSH2 0x2BD4 DUP2 PUSH2 0x453D JUMP JUMPDEST PUSH1 0xF DUP2 MSTORE PUSH15 0x23B7B63232B7102237B6B4B734B7B7 PUSH1 0x89 SHL DUP10 DUP3 ADD MSTORE SWAP9 PUSH2 0x5010 JUMP JUMPDEST CALLVALUE PUSH2 0x3BD JUMPI PUSH1 0x20 DUP1 PUSH1 0x3 NOT CALLDATASIZE ADD SLT PUSH2 0x3BD JUMPI PUSH1 0x1 PUSH1 0x1 PUSH1 0xA0 SHL SUB PUSH2 0x2C17 PUSH2 0x4441 JUMP JUMPDEST AND DUP1 PUSH1 0x0 MSTORE PUSH1 0x13 DUP3 MSTORE PUSH1 0x40 PUSH1 0x0 KECCAK256 SLOAD ISZERO PUSH2 0x2C64 JUMPI PUSH1 0x0 MSTORE PUSH1 0x13 DUP2 MSTORE PUSH1 0x40 PUSH1 0x0 KECCAK256 DUP1 SLOAD ISZERO PUSH2 0x2C4E JUMPI PUSH1 0x0 MSTORE DUP1 PUSH1 0x0 KECCAK256 SLOAD PUSH1 0x40 MLOAD SWAP1 DUP2 MSTORE RETURN JUMPDEST PUSH4 0x4E487B71 PUSH1 0xE0 SHL PUSH1 0x0 MSTORE PUSH1 0x32 PUSH1 0x4 MSTORE PUSH1 0x24 PUSH1 0x0 REVERT JUMPDEST PUSH1 0x40 MLOAD PUSH3 0x461BCD PUSH1 0xE5 SHL DUP2 MSTORE PUSH1 0x4 DUP2 ADD DUP4 SWAP1 MSTORE PUSH1 0x14 PUSH1 0x24 DUP3 ADD MSTORE PUSH20 0x506C6179657220686173206E6F20746F6B656E73 PUSH1 0x60 SHL PUSH1 0x44 DUP3 ADD MSTORE PUSH1 0x64 SWAP1 REVERT JUMPDEST CALLVALUE PUSH2 0x3BD JUMPI PUSH1 0x20 CALLDATASIZE PUSH1 0x3 NOT ADD SLT PUSH2 0x3BD JUMPI PUSH1 0x4 CALLDATALOAD PUSH1 0x0 MSTORE PUSH1 0x1F PUSH1 0x20 MSTORE PUSH1 0x40 PUSH1 0x0 KECCAK256 DUP1 SLOAD PUSH2 0x2CCF PUSH1 0x1 DUP4 ADD PUSH2 0x46A9 JUMP JUMPDEST SWAP2 PUSH2 0x2CDC PUSH1 0x2 DUP3 ADD PUSH2 0x46A9 JUMP JUMPDEST PUSH1 0x3 DUP3 ADD SLOAD SWAP2 PUSH1 0x4 DUP2 ADD SLOAD PUSH1 0x5 DUP3 ADD SLOAD PUSH1 0x6 DUP4 ADD SLOAD PUSH1 0x7 DUP5 ADD SLOAD SWAP2 PUSH1 0xFF PUSH1 0x8 DUP7 ADD SLOAD AND SWAP4 PUSH2 0x2D3A PUSH1 0xA PUSH1 0x9 DUP9 ADD SLOAD SWAP8 ADD SLOAD SWAP8 PUSH2 0x2D2C PUSH1 0x40 MLOAD SWAP13 DUP14 SWAP13 DUP14 MSTORE PUSH1 0x20 DUP14 PUSH2 0x160 SWAP2 DUP3 SWAP2 ADD MSTORE DUP14 ADD SWAP1 PUSH2 0x441C JUMP JUMPDEST SWAP1 DUP12 DUP3 SUB PUSH1 0x40 DUP14 ADD MSTORE PUSH2 0x441C JUMP JUMPDEST SWAP8 PUSH1 0x60 DUP11 ADD MSTORE PUSH1 0x80 DUP10 ADD MSTORE PUSH1 0xA0 DUP9 ADD MSTORE PUSH1 0xC0 DUP8 ADD MSTORE PUSH1 0xE0 DUP7 ADD MSTORE ISZERO ISZERO PUSH2 0x100 DUP6 ADD MSTORE PUSH2 0x120 DUP5 ADD MSTORE PUSH2 0x140 DUP4 ADD MSTORE SUB SWAP1 RETURN JUMPDEST CALLVALUE PUSH2 0x3BD JUMPI PUSH1 0x20 CALLDATASIZE PUSH1 0x3 NOT ADD SLT PUSH2 0x3BD JUMPI PUSH1 0x20 PUSH2 0x2D8A PUSH1 0x4 CALLDATALOAD PUSH2 0x485A JUMP JUMPDEST PUSH1 0x40 MLOAD PUSH1 0x1 PUSH1 0x1 PUSH1 0xA0 SHL SUB SWAP1 SWAP2 AND DUP2 MSTORE RETURN JUMPDEST CALLVALUE PUSH2 0x3BD JUMPI PUSH1 0x0 CALLDATASIZE PUSH1 0x3 NOT ADD SLT PUSH2 0x3BD JUMPI PUSH1 0x20 PUSH1 0x24 SLOAD PUSH1 0x40 MLOAD SWAP1 DUP2 MSTORE RETURN JUMPDEST CALLVALUE PUSH2 0x3BD JUMPI PUSH1 0x20 CALLDATASIZE PUSH1 0x3 NOT ADD SLT PUSH2 0x3BD JUMPI PUSH1 0x1 PUSH1 0x1 PUSH1 0xA0 SHL SUB PUSH2 0x2DDB PUSH2 0x4441 JUMP JUMPDEST AND PUSH1 0x0 MSTORE PUSH1 0x1B PUSH1 0x20 MSTORE PUSH1 0x20 PUSH1 0x40 PUSH1 0x0 KECCAK256 SLOAD PUSH1 0x40 MLOAD SWAP1 DUP2 MSTORE RETURN JUMPDEST CALLVALUE PUSH2 0x3BD JUMPI PUSH1 0x20 CALLDATASIZE PUSH1 0x3 NOT ADD SLT PUSH2 0x3BD JUMPI PUSH1 0x4 CALLDATALOAD PUSH1 0x0 MSTORE PUSH1 0xF PUSH1 0x20 MSTORE PUSH1 0x80 PUSH1 0x40 PUSH1 0x0 KECCAK256 DUP1 SLOAD SWAP1 PUSH1 0x1 DUP2 ADD SLOAD SWAP1 PUSH1 0x3 PUSH1 0x2 DUP3 ADD SLOAD SWAP2 ADD SLOAD SWAP2 PUSH1 0x40 MLOAD SWAP4 DUP5 MSTORE PUSH1 0x20 DUP5 ADD MSTORE PUSH1 0x40 DUP4 ADD MSTORE PUSH1 0x60 DUP3 ADD MSTORE RETURN JUMPDEST PUSH1 0x20 DUP1 PUSH1 0x3 NOT CALLDATASIZE ADD SLT PUSH2 0x3BD JUMPI PUSH1 0x4 CALLDATALOAD SWAP1 PUSH2 0x2E5B PUSH2 0x4E6C JUMP JUMPDEST DUP2 PUSH1 0x0 MSTORE PUSH1 0x1C DUP2 MSTORE PUSH1 0x40 PUSH1 0x0 KECCAK256 SWAP2 PUSH1 0x40 MLOAD PUSH2 0x2E75 DUP2 PUSH2 0x44EC JUMP JUMPDEST DUP4 SLOAD DUP2 MSTORE PUSH1 0x1 DUP1 PUSH1 0xA0 SHL SUB DUP1 PUSH1 0x1 DUP7 ADD SLOAD AND SWAP2 DUP5 DUP2 ADD SWAP3 DUP4 MSTORE PUSH1 0xFF PUSH1 0x3 PUSH1 0x2 DUP9 ADD SLOAD SWAP8 PUSH1 0x40 DUP5 ADD SWAP9 DUP10 MSTORE ADD SLOAD AND ISZERO SWAP1 PUSH1 0x60 DUP3 ISZERO SWAP2 ADD MSTORE PUSH2 0x2FAD JUMPI DUP5 MLOAD CALLVALUE LT PUSH2 0x2F71 JUMPI PUSH2 0x2EC6 DUP4 DUP3 DUP5 MLOAD AND CALLER SWAP1 PUSH2 0x4A4A JUMP JUMPDEST PUSH1 0x0 DUP1 DUP1 DUP1 DUP5 DUP7 MLOAD AND DUP10 MLOAD SWAP1 DUP3 DUP3 ISZERO PUSH2 0x2F68 JUMPI JUMPDEST CALL ISZERO PUSH2 0xAC0 JUMPI DUP5 MLOAD DUP1 CALLVALUE GT PUSH2 0x2F3A JUMPI JUMPDEST POP PUSH32 0x8562EB94748E30BB0071E932744CE902B460C683474FCB3BFD567FFA16B1AFB2 SWAP2 DUP4 PUSH1 0x0 MSTORE PUSH1 0x1C DUP6 MSTORE PUSH1 0x3 PUSH1 0x40 PUSH1 0x0 KECCAK256 ADD PUSH1 0xFF NOT DUP2 SLOAD AND SWAP1 SSTORE MLOAD AND SWAP4 MLOAD SWAP3 PUSH1 0x40 MLOAD SWAP4 DUP5 MSTORE CALLER SWAP4 LOG4 PUSH1 0x1 PUSH1 0x8 SSTORE STOP JUMPDEST PUSH1 0x0 DUP1 DUP1 PUSH2 0x2F49 DUP2 SWAP5 CALLVALUE PUSH2 0x4D48 JUMP JUMPDEST DUP2 DUP2 ISZERO PUSH2 0x2F5F JUMPI JUMPDEST CALLER SWAP1 CALL ISZERO PUSH2 0xAC0 JUMPI DUP6 PUSH2 0x2EEA JUMP JUMPDEST POP PUSH2 0x8FC PUSH2 0x2F51 JUMP JUMPDEST POP PUSH2 0x8FC PUSH2 0x2EDA JUMP JUMPDEST PUSH1 0x40 MLOAD PUSH3 0x461BCD PUSH1 0xE5 SHL DUP2 MSTORE PUSH1 0x4 DUP2 ADD DUP6 SWAP1 MSTORE PUSH1 0x14 PUSH1 0x24 DUP3 ADD MSTORE PUSH20 0x125B9CDD59999A58DA595B9D081C185E5B595B9D PUSH1 0x62 SHL PUSH1 0x44 DUP3 ADD MSTORE PUSH1 0x64 SWAP1 REVERT JUMPDEST PUSH1 0x40 MLOAD PUSH3 0x461BCD PUSH1 0xE5 SHL DUP2 MSTORE PUSH1 0x4 DUP2 ADD DUP6 SWAP1 MSTORE PUSH1 0xE PUSH1 0x24 DUP3 ADD MSTORE PUSH14 0x139195081B9BDD081B1A5CDD1959 PUSH1 0x92 SHL PUSH1 0x44 DUP3 ADD MSTORE PUSH1 0x64 SWAP1 REVERT JUMPDEST CALLVALUE PUSH2 0x3BD JUMPI PUSH2 0x2FF1 CALLDATASIZE PUSH2 0x4659 JUMP JUMPDEST SWAP1 PUSH2 0x2FFB DUP2 PUSH2 0x485A JUMP JUMPDEST PUSH1 0x1 PUSH1 0x1 PUSH1 0xA0 SHL SUB SWAP1 PUSH2 0x3011 SWAP1 DUP3 AND CALLER EQ PUSH2 0x51DD JUMP JUMPDEST PUSH1 0x1 DUP4 LT ISZERO DUP1 PUSH2 0x31A8 JUMPI JUMPDEST ISZERO PUSH2 0x3170 JUMPI DUP3 PUSH1 0xA MUL PUSH1 0xA DUP2 DIV DUP5 SUB PUSH2 0xB6C JUMPI PUSH1 0x22 SLOAD DUP2 DUP2 ISZERO ISZERO DUP1 PUSH2 0x3155 JUMPI JUMPDEST PUSH2 0x3104 JUMPI JUMPDEST POP POP PUSH3 0x15180 SWAP1 DUP2 DUP6 MUL SWAP2 DUP6 DUP4 DIV EQ DUP6 ISZERO OR ISZERO PUSH2 0xB6C JUMPI PUSH1 0x4 SWAP2 PUSH1 0x40 MLOAD SWAP4 PUSH2 0x3068 DUP6 PUSH2 0x44B5 JUMP JUMPDEST DUP6 DUP6 MSTORE PUSH1 0x20 DUP6 ADD CALLER DUP2 MSTORE PUSH1 0x40 DUP7 ADD SWAP2 TIMESTAMP DUP4 MSTORE PUSH1 0x60 DUP8 ADD SWAP4 DUP5 MSTORE PUSH1 0x80 DUP8 ADD SWAP5 DUP6 MSTORE DUP8 PUSH1 0x0 MSTORE PUSH1 0x1D PUSH1 0x20 MSTORE PUSH1 0x40 PUSH1 0x0 KECCAK256 SWAP7 MLOAD DUP8 SSTORE PUSH1 0x1 DUP8 ADD SWAP2 MLOAD AND PUSH1 0x1 DUP1 PUSH1 0xA0 SHL SUB NOT DUP3 SLOAD AND OR SWAP1 SSTORE MLOAD PUSH1 0x2 DUP6 ADD SSTORE MLOAD PUSH1 0x3 DUP5 ADD SSTORE MLOAD SWAP2 ADD SSTORE CALLER PUSH1 0x0 MSTORE PUSH1 0x1E PUSH1 0x20 MSTORE PUSH2 0x30D6 DUP2 PUSH1 0x40 PUSH1 0x0 KECCAK256 PUSH2 0x4E49 JUMP JUMPDEST PUSH1 0x40 MLOAD SWAP2 DUP3 MSTORE PUSH32 0x7C403FEABC47B424CA9FCE0347BA2DBF96BC829F0EA06C10EBC13B50E6F65903 PUSH1 0x20 CALLER SWAP4 LOG3 STOP JUMPDEST DUP2 SWAP3 POP PUSH2 0x3125 SWAP1 PUSH1 0x64 SWAP3 PUSH1 0x0 MSTORE PUSH1 0x1F PUSH1 0x20 MSTORE PUSH1 0x7 PUSH1 0x40 PUSH1 0x0 KECCAK256 ADD SLOAD SWAP1 PUSH2 0x4D35 JUMP JUMPDEST DIV SWAP1 PUSH1 0x0 MSTORE PUSH1 0x20 DUP1 MSTORE PUSH1 0x40 PUSH1 0x0 KECCAK256 CALLER PUSH1 0x0 MSTORE PUSH1 0x20 MSTORE PUSH1 0x4 PUSH1 0x40 PUSH1 0x0 KECCAK256 ADD PUSH2 0x314C DUP2 SLOAD PUSH2 0x5172 JUMP JUMPDEST SWAP1 SSTORE DUP5 DUP1 PUSH2 0x3041 JUMP JUMPDEST POP DUP2 PUSH1 0x0 MSTORE PUSH1 0x1F PUSH1 0x20 MSTORE PUSH1 0xFF PUSH1 0x8 PUSH1 0x40 PUSH1 0x0 KECCAK256 ADD SLOAD AND PUSH2 0x303C JUMP JUMPDEST PUSH1 0x40 MLOAD PUSH3 0x461BCD PUSH1 0xE5 SHL DUP2 MSTORE PUSH1 0x20 PUSH1 0x4 DUP3 ADD MSTORE PUSH1 0x10 PUSH1 0x24 DUP3 ADD MSTORE PUSH16 0x24B73B30B634B210323AB930BA34B7B7 PUSH1 0x81 SHL PUSH1 0x44 DUP3 ADD MSTORE PUSH1 0x64 SWAP1 REVERT JUMPDEST POP PUSH2 0x16D DUP4 GT ISZERO PUSH2 0x301C JUMP JUMPDEST CALLVALUE PUSH2 0x3BD JUMPI PUSH1 0x60 CALLDATASIZE PUSH1 0x3 NOT ADD SLT PUSH2 0x3BD JUMPI PUSH1 0x44 CALLDATALOAD PUSH1 0x1 PUSH1 0x1 PUSH1 0xA0 SHL SUB DUP2 AND DUP2 SUB PUSH2 0x3BD JUMPI PUSH2 0x3B5 PUSH1 0x20 SWAP2 PUSH1 0x24 CALLDATALOAD PUSH1 0x4 CALLDATALOAD PUSH2 0x4D55 JUMP JUMPDEST CALLVALUE PUSH2 0x3BD JUMPI PUSH1 0x20 CALLDATASIZE PUSH1 0x3 NOT ADD SLT PUSH2 0x3BD JUMPI PUSH1 0x20 PUSH1 0x1 PUSH1 0x1 PUSH1 0xA0 SHL SUB DUP1 PUSH2 0x320D PUSH2 0x4441 JUMP JUMPDEST AND PUSH1 0x0 MSTORE PUSH1 0x1A DUP3 MSTORE PUSH1 0x40 PUSH1 0x0 KECCAK256 SLOAD AND PUSH1 0x40 MLOAD SWAP1 DUP2 MSTORE RETURN JUMPDEST CALLVALUE PUSH2 0x3BD JUMPI PUSH1 0x60 CALLDATASIZE PUSH1 0x3 NOT ADD SLT PUSH2 0x3BD JUMPI PUSH1 0x4 CALLDATALOAD PUSH1 0x1 PUSH1 0x1 PUSH1 0x40 SHL SUB DUP2 GT PUSH2 0x3BD JUMPI PUSH2 0x3254 SWAP1 CALLDATASIZE SWAP1 PUSH1 0x4 ADD PUSH2 0x4619 JUMP JUMPDEST PUSH1 0x44 CALLDATALOAD SWAP1 PUSH2 0x3260 PUSH2 0x47BB JUMP JUMPDEST PUSH1 0x23 SLOAD SWAP2 PUSH2 0x326D DUP4 PUSH2 0x5172 JUMP JUMPDEST PUSH1 0x23 SSTORE PUSH2 0xE10 SWAP1 DUP2 DUP2 MUL SWAP2 DUP2 DUP4 DIV EQ SWAP1 ISZERO OR ISZERO PUSH2 0xB6C JUMPI PUSH2 0x328E SWAP1 TIMESTAMP PUSH2 0x5003 JUMP JUMPDEST PUSH1 0x40 MLOAD PUSH2 0x329A DUP2 PUSH2 0x4522 JUMP JUMPDEST PUSH1 0x0 DUP2 MSTORE PUSH1 0x40 MLOAD SWAP1 PUSH2 0x120 DUP3 ADD PUSH1 0x1 PUSH1 0x1 PUSH1 0x40 SHL SUB DUP2 GT DUP4 DUP3 LT OR PUSH2 0xDD0 JUMPI PUSH1 0x40 MSTORE DUP5 DUP3 MSTORE PUSH1 0x20 DUP3 ADD SWAP1 DUP5 DUP3 MSTORE PUSH1 0x24 CALLDATALOAD PUSH1 0x40 DUP5 ADD MSTORE TIMESTAMP PUSH1 0x60 DUP5 ADD MSTORE DUP4 PUSH1 0x80 DUP5 ADD MSTORE PUSH1 0x0 PUSH1 0xA0 DUP5 ADD MSTORE PUSH1 0xC0 DUP4 ADD MSTORE PUSH1 0x1 PUSH1 0xE0 DUP4 ADD MSTORE PUSH1 0x0 PUSH2 0x100 DUP4 ADD MSTORE DUP5 PUSH1 0x0 MSTORE PUSH1 0x16 PUSH1 0x20 MSTORE PUSH1 0x40 PUSH1 0x0 KECCAK256 SWAP1 DUP3 MLOAD DUP3 SSTORE MLOAD DUP1 MLOAD SWAP1 PUSH1 0x1 DUP1 PUSH1 0x40 SHL SUB DUP3 GT PUSH2 0xDD0 JUMPI DUP2 SWAP1 PUSH2 0x3329 PUSH1 0x1 DUP6 ADD SLOAD PUSH2 0x466F JUMP JUMPDEST PUSH1 0x1F DUP2 GT PUSH2 0x3506 JUMPI JUMPDEST POP PUSH1 0x20 SWAP1 PUSH1 0x1F DUP4 GT PUSH1 0x1 EQ PUSH2 0x3494 JUMPI PUSH1 0x0 SWAP3 PUSH2 0x3489 JUMPI JUMPDEST POP POP DUP2 PUSH1 0x1 SHL SWAP2 PUSH1 0x0 NOT SWAP1 PUSH1 0x3 SHL SHR NOT AND OR PUSH1 0x1 DUP3 ADD SSTORE JUMPDEST PUSH1 0x40 DUP3 ADD MLOAD PUSH1 0x2 DUP3 ADD SSTORE PUSH1 0x60 DUP3 ADD MLOAD PUSH1 0x3 DUP3 ADD SSTORE PUSH1 0x80 DUP3 ADD MLOAD PUSH1 0x4 DUP3 ADD SSTORE PUSH1 0xA0 DUP3 ADD MLOAD PUSH1 0x5 DUP3 ADD SSTORE PUSH1 0xC0 DUP3 ADD MLOAD DUP1 MLOAD SWAP1 PUSH1 0x6 DUP4 ADD SWAP1 PUSH1 0x1 PUSH1 0x1 PUSH1 0x40 SHL SUB DUP4 GT PUSH2 0xDD0 JUMPI PUSH1 0x1 PUSH1 0x40 SHL DUP4 GT PUSH2 0xDD0 JUMPI PUSH1 0x20 SWAP1 DUP3 SLOAD DUP5 DUP5 SSTORE DUP1 DUP6 LT PUSH2 0x346C JUMPI JUMPDEST POP ADD SWAP1 PUSH1 0x0 MSTORE PUSH1 0x20 PUSH1 0x0 KECCAK256 PUSH1 0x0 JUMPDEST DUP4 DUP2 LT PUSH2 0x344F JUMPI DUP9 PUSH32 0xF921E1476612BFF3A21B96B63AE8A3AC03579129AAD3ED13624285327365837C PUSH2 0x343C DUP11 DUP11 PUSH2 0x3428 DUP12 PUSH1 0x7 DUP13 ADD SWAP1 PUSH2 0x3414 PUSH1 0xE0 DUP3 ADD MLOAD ISZERO ISZERO DUP4 PUSH2 0x4B46 JUMP JUMPDEST PUSH2 0x100 ADD MLOAD PUSH1 0x1 PUSH1 0x1 PUSH1 0xA0 SHL SUB AND SWAP1 PUSH2 0x4E24 JUMP JUMPDEST PUSH1 0x40 MLOAD SWAP3 DUP4 SWAP3 PUSH1 0x60 DUP5 MSTORE PUSH1 0x60 DUP5 ADD SWAP1 PUSH2 0x441C JUMP JUMPDEST SWAP1 PUSH1 0x24 CALLDATALOAD PUSH1 0x20 DUP5 ADD MSTORE PUSH1 0x40 DUP4 ADD MSTORE SUB SWAP1 LOG2 STOP JUMPDEST DUP3 MLOAD PUSH1 0x1 PUSH1 0x1 PUSH1 0xA0 SHL SUB AND DUP2 DUP4 ADD SSTORE PUSH1 0x20 SWAP1 SWAP3 ADD SWAP2 PUSH1 0x1 ADD PUSH2 0x33CD JUMP JUMPDEST PUSH2 0x3483 SWAP1 DUP5 PUSH1 0x0 MSTORE DUP6 DUP5 PUSH1 0x0 KECCAK256 SWAP2 DUP3 ADD SWAP2 ADD PUSH2 0x5181 JUMP JUMPDEST DUP10 PUSH2 0x33BF JUMP JUMPDEST ADD MLOAD SWAP1 POP DUP8 DUP1 PUSH2 0x3349 JUMP JUMPDEST SWAP3 POP PUSH1 0x1 DUP5 ADD PUSH1 0x0 MSTORE PUSH1 0x20 PUSH1 0x0 KECCAK256 SWAP1 PUSH1 0x0 SWAP4 JUMPDEST PUSH1 0x1F NOT DUP5 AND DUP6 LT PUSH2 0x34EB JUMPI PUSH1 0x1 SWAP5 POP DUP4 PUSH1 0x1F NOT DUP2 AND LT PUSH2 0x34D2 JUMPI JUMPDEST POP POP POP DUP2 SHL ADD PUSH1 0x1 DUP3 ADD SSTORE PUSH2 0x3361 JUMP JUMPDEST ADD MLOAD PUSH1 0x0 NOT PUSH1 0xF8 DUP5 PUSH1 0x3 SHL AND SHR NOT AND SWAP1 SSTORE DUP8 DUP1 DUP1 PUSH2 0x34C2 JUMP JUMPDEST DUP2 DUP2 ADD MLOAD DUP4 SSTORE PUSH1 0x20 SWAP5 DUP6 ADD SWAP5 PUSH1 0x1 SWAP1 SWAP4 ADD SWAP3 SWAP1 SWAP2 ADD SWAP1 PUSH2 0x34A7 JUMP JUMPDEST PUSH2 0x3535 SWAP1 PUSH1 0x1 DUP7 ADD PUSH1 0x0 MSTORE PUSH1 0x20 PUSH1 0x0 KECCAK256 PUSH1 0x1F DUP6 ADD PUSH1 0x5 SHR DUP2 ADD SWAP2 PUSH1 0x20 DUP7 LT PUSH2 0x199A JUMPI PUSH1 0x1F ADD PUSH1 0x5 SHR ADD SWAP1 PUSH2 0x5181 JUMP JUMPDEST DUP9 PUSH2 0x3332 JUMP JUMPDEST CALLVALUE PUSH2 0x3BD JUMPI PUSH2 0x177A PUSH2 0x1775 PUSH2 0x354F CALLDATASIZE PUSH2 0x4592 JUMP JUMPDEST SWAP1 PUSH1 0x40 MLOAD SWAP3 PUSH2 0x355D DUP5 PUSH2 0x4522 JUMP JUMPDEST PUSH1 0x0 DUP5 MSTORE PUSH2 0x1765 PUSH2 0x1760 DUP5 CALLER PUSH2 0x4982 JUMP JUMPDEST CALLVALUE PUSH2 0x3BD JUMPI PUSH1 0x0 CALLDATASIZE PUSH1 0x3 NOT ADD SLT PUSH2 0x3BD JUMPI PUSH1 0x20 PUSH1 0x40 MLOAD PUSH1 0x14 DUP2 MSTORE RETURN JUMPDEST PUSH1 0x80 CALLDATASIZE PUSH1 0x3 NOT ADD SLT PUSH2 0x3BD JUMPI PUSH2 0x359E PUSH2 0x4441 JUMP JUMPDEST PUSH1 0x24 CALLDATALOAD PUSH2 0x35A9 PUSH2 0x4E6C JUMP JUMPDEST PUSH7 0x2386F26FC10000 CALLVALUE LT PUSH2 0x37B9 JUMPI PUSH1 0x3 DUP2 GT PUSH2 0x3782 JUMPI PUSH1 0x9 SLOAD SWAP1 PUSH1 0x1 DUP3 ADD PUSH1 0x9 SSTORE PUSH2 0x35F1 PUSH2 0x1775 PUSH1 0x40 MLOAD PUSH2 0x35DC DUP2 PUSH2 0x4522 JUMP JUMPDEST PUSH1 0x0 DUP2 MSTORE PUSH2 0x35EA DUP6 DUP8 PUSH2 0x4F0D JUMP JUMPDEST DUP5 DUP7 PUSH2 0x4B74 JUMP JUMPDEST PUSH1 0x4 DUP2 LT ISZERO PUSH2 0x122D JUMPI PUSH1 0x40 MLOAD PUSH2 0x3606 DUP2 PUSH2 0x44D0 JUMP JUMPDEST DUP3 DUP2 MSTORE PUSH1 0x20 DUP2 ADD SWAP2 PUSH2 0x3618 DUP2 DUP5 PUSH2 0x4E00 JUMP JUMPDEST PUSH1 0x40 DUP3 ADD SWAP2 PUSH1 0x44 CALLDATALOAD DUP4 MSTORE PUSH1 0x60 DUP2 ADD SWAP3 PUSH1 0x64 CALLDATALOAD DUP5 MSTORE PUSH1 0x80 DUP3 ADD SWAP5 PUSH1 0x1 DUP1 PUSH1 0xA0 SHL SUB DUP1 SWAP9 AND SWAP8 DUP9 DUP8 MSTORE PUSH1 0xA0 DUP5 ADD TIMESTAMP DUP2 MSTORE PUSH1 0xC0 DUP6 ADD PUSH1 0x0 DUP2 MSTORE PUSH1 0xE0 DUP7 ADD SWAP3 PUSH1 0x0 DUP5 MSTORE PUSH2 0x100 DUP8 ADD SWAP4 PUSH1 0x0 DUP6 MSTORE PUSH2 0x120 DUP9 ADD SWAP6 PUSH1 0x0 DUP8 MSTORE DUP13 PUSH1 0x0 MSTORE PUSH1 0xE PUSH1 0x20 MSTORE PUSH1 0x40 PUSH1 0x0 KECCAK256 SWAP9 MLOAD DUP10 SSTORE MLOAD SWAP4 PUSH1 0x4 DUP6 LT ISZERO PUSH2 0x122D JUMPI PUSH1 0x0 DUP1 MLOAD PUSH1 0x20 PUSH2 0x5290 DUP4 CODECOPY DUP2 MLOAD SWAP2 MSTORE SWAP12 PUSH1 0x40 SWAP12 PUSH1 0x8 SWAP10 PUSH2 0x36AE PUSH2 0x36E7 SWAP9 PUSH1 0x1 DUP15 ADD PUSH2 0x4E0C JUMP JUMPDEST MLOAD PUSH1 0x2 DUP13 ADD SSTORE MLOAD PUSH1 0x3 DUP12 ADD SSTORE DUP4 PUSH1 0x4 DUP12 ADD SWAP2 MLOAD AND PUSH1 0x1 DUP1 PUSH1 0xA0 SHL SUB NOT DUP3 SLOAD AND OR SWAP1 SSTORE MLOAD PUSH1 0x5 DUP10 ADD SSTORE PUSH2 0x11E2 PUSH1 0x6 DUP10 ADD SWAP4 MLOAD ISZERO ISZERO DUP5 PUSH2 0x4B46 JUMP JUMPDEST MLOAD PUSH1 0x7 DUP5 ADD SSTORE MLOAD SWAP2 ADD SSTORE DUP2 MLOAD PUSH2 0x36FC DUP2 PUSH2 0x44EC JUMP JUMPDEST PUSH1 0x1 DUP2 MSTORE PUSH1 0x3 PUSH1 0x20 DUP3 ADD PUSH1 0x0 DUP2 MSTORE DUP5 DUP4 ADD PUSH1 0x0 DUP2 MSTORE PUSH1 0x60 DUP5 ADD SWAP2 TIMESTAMP DUP4 MSTORE DUP9 PUSH1 0x0 MSTORE PUSH1 0xF PUSH1 0x20 MSTORE DUP7 PUSH1 0x0 KECCAK256 SWAP5 MLOAD DUP6 SSTORE MLOAD PUSH1 0x1 DUP6 ADD SSTORE MLOAD PUSH1 0x2 DUP5 ADD SSTORE MLOAD SWAP2 ADD SSTORE DUP5 PUSH1 0x0 MSTORE PUSH1 0x11 PUSH1 0x20 MSTORE PUSH2 0x3750 DUP2 DUP4 PUSH1 0x0 KECCAK256 PUSH2 0x4E0C JUMP JUMPDEST DUP5 PUSH1 0x0 MSTORE PUSH1 0x13 PUSH1 0x20 MSTORE PUSH2 0x3766 DUP5 DUP4 PUSH1 0x0 KECCAK256 PUSH2 0x4E49 JUMP JUMPDEST PUSH2 0x3772 DUP3 MLOAD DUP1 SWAP3 PUSH2 0x448C JUMP JUMPDEST PUSH1 0x44 CALLDATALOAD PUSH1 0x20 DUP3 ADD MSTORE LOG3 PUSH1 0x1 PUSH1 0x8 SSTORE STOP JUMPDEST PUSH1 0x40 MLOAD PUSH3 0x461BCD PUSH1 0xE5 SHL DUP2 MSTORE PUSH1 0x20 PUSH1 0x4 DUP3 ADD MSTORE PUSH1 0xF PUSH1 0x24 DUP3 ADD MSTORE PUSH15 0x24B73B30B634B2103330B1BA34B7B7 PUSH1 0x89 SHL PUSH1 0x44 DUP3 ADD MSTORE PUSH1 0x64 SWAP1 REVERT JUMPDEST PUSH1 0x40 MLOAD PUSH3 0x461BCD PUSH1 0xE5 SHL DUP2 MSTORE PUSH1 0x20 PUSH1 0x4 DUP3 ADD MSTORE PUSH1 0x17 PUSH1 0x24 DUP3 ADD MSTORE PUSH23 0x496E73756666696369656E74206D696E74207072696365 PUSH1 0x48 SHL PUSH1 0x44 DUP3 ADD MSTORE PUSH1 0x64 SWAP1 REVERT JUMPDEST CALLVALUE PUSH2 0x3BD JUMPI PUSH1 0x20 CALLDATASIZE PUSH1 0x3 NOT ADD SLT PUSH2 0x3BD JUMPI PUSH1 0x1 PUSH1 0x1 PUSH1 0xA0 SHL SUB PUSH2 0x3819 PUSH2 0x4441 JUMP JUMPDEST AND PUSH1 0x0 MSTORE PUSH1 0x11 PUSH1 0x20 MSTORE PUSH1 0x20 PUSH1 0xFF PUSH1 0x40 PUSH1 0x0 KECCAK256 SLOAD AND PUSH2 0x383A PUSH1 0x40 MLOAD DUP1 SWAP3 PUSH2 0x448C JUMP JUMPDEST RETURN JUMPDEST CALLVALUE PUSH2 0x3BD JUMPI PUSH1 0x20 CALLDATASIZE PUSH1 0x3 NOT ADD SLT PUSH2 0x3BD JUMPI PUSH1 0x4 CALLDATALOAD PUSH1 0x0 MSTORE PUSH1 0xE PUSH1 0x20 MSTORE PUSH2 0x140 PUSH1 0x40 PUSH1 0x0 KECCAK256 DUP1 SLOAD SWAP1 PUSH1 0xFF PUSH1 0x1 DUP3 ADD SLOAD AND SWAP1 PUSH1 0x2 DUP2 ADD SLOAD PUSH1 0x3 DUP3 ADD SLOAD SWAP1 PUSH1 0x1 DUP1 PUSH1 0xA0 SHL SUB SWAP2 DUP3 PUSH1 0x4 DUP6 ADD SLOAD AND PUSH1 0x5 DUP6 ADD SLOAD SWAP2 PUSH1 0x6 DUP7 ADD SLOAD SWAP4 PUSH2 0x38B0 PUSH1 0x8 PUSH1 0x7 DUP10 ADD SLOAD SWAP9 ADD SLOAD SWAP9 PUSH1 0x40 MLOAD SWAP11 DUP12 MSTORE PUSH1 0x20 DUP12 ADD SWAP1 PUSH2 0x448C JUMP JUMPDEST PUSH1 0x40 DUP10 ADD MSTORE PUSH1 0x60 DUP9 ADD MSTORE PUSH1 0x80 DUP8 ADD MSTORE PUSH1 0xA0 DUP7 ADD MSTORE PUSH1 0xFF DUP2 AND ISZERO ISZERO PUSH1 0xC0 DUP7 ADD MSTORE PUSH1 0x8 SHR AND PUSH1 0xE0 DUP5 ADD MSTORE PUSH2 0x100 DUP4 ADD MSTORE PUSH2 0x120 DUP3 ADD MSTORE RETURN JUMPDEST CALLVALUE PUSH2 0x3BD JUMPI PUSH1 0x20 CALLDATASIZE PUSH1 0x3 NOT ADD SLT PUSH2 0x3BD JUMPI PUSH1 0x4 CALLDATALOAD PUSH1 0x0 DUP2 DUP2 MSTORE PUSH1 0x1C PUSH1 0x20 MSTORE PUSH1 0x40 SWAP1 KECCAK256 PUSH1 0x1 ADD SLOAD PUSH1 0x1 PUSH1 0x1 PUSH1 0xA0 SHL SUB AND CALLER SUB PUSH2 0x3936 JUMPI PUSH1 0x0 SWAP1 DUP2 MSTORE PUSH1 0x1C PUSH1 0x20 MSTORE PUSH1 0x40 SWAP1 KECCAK256 PUSH1 0x3 ADD DUP1 SLOAD PUSH1 0xFF NOT AND SWAP1 SSTORE STOP JUMPDEST PUSH1 0x40 MLOAD PUSH3 0x461BCD PUSH1 0xE5 SHL DUP2 MSTORE PUSH1 0x20 PUSH1 0x4 DUP3 ADD MSTORE PUSH1 0xA PUSH1 0x24 DUP3 ADD MSTORE PUSH10 0x2737BA1039B2B63632B9 PUSH1 0xB1 SHL PUSH1 0x44 DUP3 ADD MSTORE PUSH1 0x64 SWAP1 REVERT JUMPDEST CALLVALUE PUSH2 0x3BD JUMPI PUSH2 0x100 DUP1 PUSH1 0x3 NOT CALLDATASIZE ADD SLT PUSH2 0x3BD JUMPI PUSH1 0x4 CALLDATALOAD PUSH1 0x1 PUSH1 0x1 PUSH1 0x40 SHL SUB DUP2 GT PUSH2 0x3BD JUMPI PUSH2 0x399A SWAP1 CALLDATASIZE SWAP1 PUSH1 0x4 ADD PUSH2 0x4619 JUMP JUMPDEST SWAP1 PUSH1 0x24 CALLDATALOAD PUSH1 0x1 PUSH1 0x1 PUSH1 0x40 SHL SUB DUP2 GT PUSH2 0x3BD JUMPI PUSH2 0x39BA SWAP1 CALLDATASIZE SWAP1 PUSH1 0x4 ADD PUSH2 0x4619 JUMP JUMPDEST SWAP1 PUSH1 0x44 CALLDATALOAD PUSH1 0x64 CALLDATALOAD PUSH2 0x39C9 PUSH2 0x47BB JUMP JUMPDEST DUP1 DUP3 LT ISZERO PUSH2 0x3CF9 JUMPI TIMESTAMP DUP3 GT ISZERO PUSH2 0x3CB5 JUMPI PUSH1 0x21 SLOAD SWAP2 PUSH1 0x40 MLOAD SWAP5 PUSH2 0x39EA DUP7 PUSH2 0x4499 JUMP JUMPDEST DUP4 DUP7 MSTORE PUSH1 0x20 DUP7 ADD SWAP7 DUP8 MSTORE PUSH1 0x40 DUP7 ADD MSTORE PUSH1 0x60 DUP6 ADD MSTORE PUSH1 0x80 DUP5 ADD MSTORE PUSH1 0x84 CALLDATALOAD PUSH1 0xA0 DUP5 ADD MSTORE PUSH1 0xA4 CALLDATALOAD PUSH1 0xC0 DUP5 ADD MSTORE PUSH1 0xC4 CALLDATALOAD PUSH1 0xE0 DUP5 ADD MSTORE PUSH1 0x0 DUP3 DUP5 ADD MSTORE PUSH1 0x0 PUSH2 0x120 DUP5 ADD MSTORE PUSH1 0xE4 CALLDATALOAD PUSH2 0x140 DUP5 ADD MSTORE PUSH1 0x0 MSTORE PUSH1 0x1F PUSH1 0x20 MSTORE PUSH1 0x40 PUSH1 0x0 KECCAK256 SWAP3 DUP3 MLOAD DUP5 SSTORE MLOAD DUP1 MLOAD SWAP1 PUSH1 0x1 DUP1 PUSH1 0x40 SHL SUB DUP3 GT PUSH2 0xDD0 JUMPI PUSH1 0x1 SWAP2 DUP1 DUP4 DUP8 ADD SWAP3 PUSH2 0x3A67 DUP5 SLOAD PUSH2 0x466F JUMP JUMPDEST PUSH1 0x1F DUP2 GT PUSH2 0x3C83 JUMPI JUMPDEST POP PUSH1 0x20 SWAP1 PUSH1 0x1F DUP4 GT PUSH1 0x1 EQ PUSH2 0x3C1F JUMPI PUSH1 0x0 SWAP3 PUSH2 0x3C14 JUMPI JUMPDEST POP POP PUSH1 0x0 NOT PUSH1 0x3 DUP4 SWAP1 SHL SHR NOT AND SWAP1 DUP4 SHL OR SWAP1 SSTORE JUMPDEST PUSH1 0x40 DUP4 ADD MLOAD DUP1 MLOAD SWAP1 SWAP2 PUSH1 0x1 PUSH1 0x1 PUSH1 0x40 SHL SUB DUP3 GT PUSH2 0xDD0 JUMPI PUSH1 0x2 DUP7 ADD SWAP3 PUSH2 0x3AC1 DUP5 SLOAD PUSH2 0x466F JUMP JUMPDEST PUSH1 0x1F DUP2 GT PUSH2 0x3BE2 JUMPI JUMPDEST POP PUSH1 0x20 SWAP1 PUSH1 0x1F DUP5 GT PUSH1 0x1 EQ PUSH2 0x3B6F JUMPI SWAP3 DUP1 DUP1 PUSH2 0x140 SWAP8 SWAP5 PUSH1 0xA SWAP10 SWAP8 SWAP5 PUSH2 0x3B44 SWAP8 PUSH1 0x0 SWAP5 PUSH2 0x3B64 JUMPI JUMPDEST POP POP SHL SWAP2 PUSH1 0x0 NOT SWAP1 PUSH1 0x3 SHL SHR NOT AND OR SWAP1 SSTORE JUMPDEST PUSH1 0x60 DUP4 ADD MLOAD PUSH1 0x3 DUP8 ADD SSTORE PUSH1 0x80 DUP4 ADD MLOAD PUSH1 0x4 DUP8 ADD SSTORE PUSH1 0xA0 DUP4 ADD MLOAD PUSH1 0x5 DUP8 ADD SSTORE PUSH1 0xC0 DUP4 ADD MLOAD PUSH1 0x6 DUP8 ADD SSTORE PUSH1 0xE0 DUP4 ADD MLOAD PUSH1 0x7 DUP8 ADD SSTORE DUP3 ADD MLOAD ISZERO ISZERO PUSH1 0x8 DUP7 ADD PUSH2 0x4B46 JUMP JUMPDEST PUSH2 0x120 DUP2 ADD MLOAD PUSH1 0x9 DUP6 ADD SSTORE ADD MLOAD SWAP2 ADD SSTORE PUSH2 0x3B5F PUSH1 0x21 SLOAD PUSH2 0x5172 JUMP JUMPDEST PUSH1 0x21 SSTORE STOP JUMPDEST ADD MLOAD SWAP3 POP DUP12 DUP1 PUSH2 0x3AF2 JUMP JUMPDEST SWAP1 PUSH1 0x1F SWAP4 SWAP3 SWAP4 NOT DUP4 AND SWAP2 DUP6 PUSH1 0x0 MSTORE PUSH1 0x20 PUSH1 0x0 KECCAK256 SWAP3 PUSH1 0x0 JUMPDEST DUP2 DUP2 LT PUSH2 0x3BCC JUMPI POP SWAP3 PUSH2 0x3B44 SWAP6 SWAP3 DUP6 SWAP3 PUSH2 0x140 SWAP10 SWAP7 PUSH1 0xA SWAP12 SWAP10 SWAP7 LT PUSH2 0x3BB3 JUMPI JUMPDEST POP POP POP DUP2 SHL ADD SWAP1 SSTORE PUSH2 0x3B04 JUMP JUMPDEST ADD MLOAD PUSH1 0x0 NOT PUSH1 0xF8 DUP5 PUSH1 0x3 SHL AND SHR NOT AND SWAP1 SSTORE DUP10 DUP1 DUP1 PUSH2 0x3BA6 JUMP JUMPDEST DUP3 DUP5 ADD MLOAD DUP6 SSTORE SWAP4 DUP7 ADD SWAP4 PUSH1 0x20 SWAP4 DUP5 ADD SWAP4 ADD PUSH2 0x3B86 JUMP JUMPDEST PUSH2 0x3C0E SWAP1 DUP6 PUSH1 0x0 MSTORE PUSH1 0x20 PUSH1 0x0 KECCAK256 PUSH1 0x1F DUP7 ADD PUSH1 0x5 SHR DUP2 ADD SWAP2 PUSH1 0x20 DUP8 LT PUSH2 0x199A JUMPI PUSH1 0x1F ADD PUSH1 0x5 SHR ADD SWAP1 PUSH2 0x5181 JUMP JUMPDEST DUP8 PUSH2 0x3ACA JUMP JUMPDEST ADD MLOAD SWAP1 POP DUP8 DUP1 PUSH2 0x3A87 JUMP JUMPDEST SWAP1 DUP6 SWAP4 POP DUP5 PUSH1 0x0 MSTORE PUSH1 0x20 PUSH1 0x0 KECCAK256 SWAP2 PUSH1 0x0 PUSH1 0x1F NOT DUP6 AND SWAP1 JUMPDEST DUP2 DUP2 LT PUSH2 0x3C6B JUMPI POP DUP5 GT PUSH2 0x3C52 JUMPI JUMPDEST POP POP POP DUP2 SHL ADD SWAP1 SSTORE PUSH2 0x3A9B JUMP JUMPDEST ADD MLOAD PUSH1 0x0 NOT PUSH1 0xF8 DUP5 PUSH1 0x3 SHL AND SHR NOT AND SWAP1 SSTORE DUP8 DUP1 DUP1 PUSH2 0x3C45 JUMP JUMPDEST DUP3 DUP5 ADD MLOAD DUP6 SSTORE DUP9 SWAP7 SWAP1 SWAP5 ADD SWAP4 PUSH1 0x20 SWAP4 DUP5 ADD SWAP4 ADD PUSH2 0x3C36 JUMP JUMPDEST PUSH2 0x3CAF SWAP1 DUP6 PUSH1 0x0 MSTORE PUSH1 0x20 PUSH1 0x0 KECCAK256 PUSH1 0x1F DUP6 ADD PUSH1 0x5 SHR DUP2 ADD SWAP2 PUSH1 0x20 DUP7 LT PUSH2 0x199A JUMPI PUSH1 0x1F ADD PUSH1 0x5 SHR ADD SWAP1 PUSH2 0x5181 JUMP JUMPDEST DUP9 PUSH2 0x3A70 JUMP JUMPDEST PUSH1 0x40 MLOAD PUSH3 0x461BCD PUSH1 0xE5 SHL DUP2 MSTORE PUSH1 0x20 PUSH1 0x4 DUP3 ADD MSTORE PUSH1 0x1C PUSH1 0x24 DUP3 ADD MSTORE PUSH28 0x53746172742074696D65206D75737420626520696E20667574757265 PUSH1 0x20 SHL PUSH1 0x44 DUP3 ADD MSTORE PUSH1 0x64 SWAP1 REVERT JUMPDEST PUSH1 0x40 MLOAD PUSH3 0x461BCD PUSH1 0xE5 SHL DUP2 MSTORE PUSH1 0x20 PUSH1 0x4 DUP3 ADD MSTORE PUSH1 0x12 PUSH1 0x24 DUP3 ADD MSTORE PUSH18 0x496E76616C69642074696D652072616E6765 PUSH1 0x70 SHL PUSH1 0x44 DUP3 ADD MSTORE PUSH1 0x64 SWAP1 REVERT JUMPDEST CALLVALUE PUSH2 0x3BD JUMPI PUSH2 0x177A PUSH2 0x3D44 CALLDATASIZE PUSH2 0x4592 JUMP JUMPDEST SWAP2 PUSH2 0x3D52 PUSH2 0x1760 DUP5 CALLER PUSH2 0x4982 JUMP JUMPDEST PUSH2 0x4A4A JUMP JUMPDEST CALLVALUE PUSH2 0x3BD JUMPI PUSH1 0x40 CALLDATASIZE PUSH1 0x3 NOT ADD SLT PUSH2 0x3BD JUMPI PUSH1 0x24 DUP1 CALLDATALOAD SWAP1 PUSH1 0x1 PUSH1 0x1 PUSH1 0x40 SHL SUB DUP3 GT PUSH2 0x3BD JUMPI CALLDATASIZE PUSH1 0x23 DUP4 ADD SLT ISZERO PUSH2 0x3BD JUMPI DUP2 PUSH1 0x4 ADD CALLDATALOAD SWAP2 PUSH2 0x3D95 DUP4 PUSH2 0x457B JUMP JUMPDEST SWAP3 PUSH2 0x3DA3 PUSH1 0x40 MLOAD SWAP5 DUP6 PUSH2 0x4558 JUMP JUMPDEST DUP1 DUP5 MSTORE DUP3 PUSH1 0x20 DUP1 SWAP6 ADD SWAP2 PUSH1 0x5 SHL DUP4 ADD ADD SWAP2 CALLDATASIZE DUP4 GT PUSH2 0x3BD JUMPI DUP4 ADD SWAP1 JUMPDEST DUP3 DUP3 LT PUSH2 0x3EC2 JUMPI DUP4 DUP6 PUSH1 0x1 PUSH1 0x1 PUSH1 0xA0 SHL SUB PUSH32 0x0 DUP2 AND CALLER DUP2 SWAP1 SUB PUSH2 0x3EA5 JUMPI POP PUSH1 0x4 CALLDATALOAD PUSH1 0x0 MSTORE PUSH1 0x10 DUP3 MSTORE PUSH2 0x3E14 PUSH1 0x40 PUSH1 0x0 KECCAK256 SLOAD PUSH2 0x446D JUMP JUMPDEST POP SWAP1 PUSH1 0x40 MLOAD SWAP2 PUSH2 0x3E23 DUP4 PUSH2 0x44B5 JUMP JUMPDEST DUP1 SLOAD SWAP1 PUSH1 0xFF DUP3 AND SWAP1 PUSH1 0x3 DUP3 LT ISZERO PUSH2 0x3E90 JUMPI PUSH1 0x3 SWAP6 PUSH2 0x3E73 SWAP5 PUSH1 0xFF SWAP5 PUSH1 0x2 SWAP5 DUP9 MSTORE PUSH1 0x8 SHR AND SWAP1 DUP7 ADD MSTORE PUSH1 0x1 DUP2 ADD SLOAD PUSH1 0x40 DUP7 ADD MSTORE ADD SLOAD PUSH2 0x3E66 DUP3 DUP3 AND PUSH1 0x60 DUP7 ADD PUSH2 0x4E00 JUMP JUMPDEST PUSH1 0x8 SHR AND PUSH1 0x80 DUP4 ADD PUSH2 0x4E00 JUMP JUMPDEST MLOAD LT ISZERO PUSH2 0x3E7C JUMPI STOP JUMPDEST PUSH4 0x4E487B71 PUSH1 0xE0 SHL PUSH1 0x0 SWAP1 DUP2 MSTORE PUSH1 0x21 PUSH1 0x4 MSTORE REVERT JUMPDEST DUP7 PUSH4 0x4E487B71 PUSH1 0xE0 SHL PUSH1 0x0 MSTORE PUSH1 0x21 PUSH1 0x4 MSTORE PUSH1 0x0 REVERT JUMPDEST DUP4 PUSH1 0x44 SWAP2 PUSH1 0x40 MLOAD SWAP2 PUSH4 0x73E64FD PUSH1 0xE2 SHL DUP4 MSTORE CALLER PUSH1 0x4 DUP5 ADD MSTORE DUP3 ADD MSTORE REVERT JUMPDEST DUP2 CALLDATALOAD DUP2 MSTORE SWAP1 DUP5 ADD SWAP1 DUP5 ADD PUSH2 0x3DBF JUMP JUMPDEST CALLVALUE PUSH2 0x3BD JUMPI PUSH1 0x20 CALLDATASIZE PUSH1 0x3 NOT ADD SLT PUSH2 0x3BD JUMPI PUSH1 0x4 CALLDATALOAD PUSH1 0x15 SLOAD DUP2 LT ISZERO PUSH2 0x3BD JUMPI PUSH2 0x3EF8 SWAP1 PUSH2 0x446D JUMP JUMPDEST POP DUP1 SLOAD SWAP1 PUSH1 0xFF DUP3 AND PUSH1 0x2 PUSH1 0x1 DUP4 ADD SLOAD SWAP3 ADD SLOAD PUSH1 0x40 MLOAD SWAP3 PUSH1 0x3 DUP4 LT ISZERO PUSH2 0x122D JUMPI SWAP2 DUP4 MSTORE PUSH1 0x8 SWAP4 SWAP1 SWAP4 SHR PUSH1 0x1 PUSH1 0x1 PUSH1 0xA0 SHL SUB AND PUSH1 0x20 DUP4 ADD MSTORE PUSH1 0x40 DUP3 ADD MSTORE PUSH1 0xA0 SWAP2 PUSH2 0x383A SWAP1 PUSH2 0x3F4A PUSH1 0x60 DUP5 ADD PUSH1 0xFF DUP4 AND PUSH2 0x448C JUMP JUMPDEST PUSH1 0xFF PUSH1 0x80 DUP5 ADD SWAP2 PUSH1 0x8 SHR AND PUSH2 0x448C JUMP JUMPDEST CALLVALUE PUSH2 0x3BD JUMPI PUSH1 0x0 CALLDATASIZE PUSH1 0x3 NOT ADD SLT PUSH2 0x3BD JUMPI PUSH1 0x20 PUSH1 0x40 MLOAD PUSH1 0xA DUP2 MSTORE RETURN JUMPDEST CALLVALUE PUSH2 0x3BD JUMPI PUSH1 0x20 CALLDATASIZE PUSH1 0x3 NOT ADD SLT PUSH2 0x3BD JUMPI PUSH1 0x4 CALLDATALOAD PUSH1 0x4 DUP2 LT ISZERO PUSH2 0x122D JUMPI PUSH2 0xF27 PUSH1 0x20 SWAP2 PUSH2 0x47A2 JUMP JUMPDEST CALLVALUE PUSH2 0x3BD JUMPI PUSH1 0x40 CALLDATASIZE PUSH1 0x3 NOT ADD SLT PUSH2 0x3BD JUMPI PUSH2 0x3FB7 PUSH2 0x4441 JUMP JUMPDEST PUSH1 0x24 CALLDATALOAD SWAP1 PUSH1 0x1 PUSH1 0x1 PUSH1 0xA0 SHL SUB DUP1 DUP1 PUSH2 0x3FCE DUP6 PUSH2 0x485A JUMP JUMPDEST AND SWAP3 AND SWAP2 DUP1 DUP4 EQ PUSH2 0x40C9 JUMPI DUP1 CALLER EQ SWAP1 DUP2 ISZERO PUSH2 0x40A4 JUMPI JUMPDEST POP ISZERO PUSH2 0x4039 JUMPI PUSH1 0x0 DUP4 DUP2 MSTORE PUSH1 0x4 PUSH1 0x20 MSTORE PUSH1 0x40 SWAP1 KECCAK256 DUP1 SLOAD PUSH1 0x1 PUSH1 0x1 PUSH1 0xA0 SHL SUB NOT AND DUP4 OR SWAP1 SSTORE PUSH2 0x4011 DUP4 PUSH2 0x485A JUMP JUMPDEST AND PUSH32 0x8C5BE1E5EBEC7D5BD14F71427D1E84F3DD0314C0F7B2291E5B200AC8C7C3B925 PUSH1 0x0 DUP1 LOG4 STOP JUMPDEST PUSH1 0x40 MLOAD PUSH3 0x461BCD PUSH1 0xE5 SHL DUP2 MSTORE PUSH1 0x20 PUSH1 0x4 DUP3 ADD MSTORE PUSH1 0x3D PUSH1 0x24 DUP3 ADD MSTORE PUSH32 0x4552433732313A20617070726F76652063616C6C6572206973206E6F7420746F PUSH1 0x44 DUP3 ADD MSTORE PUSH32 0x6B656E206F776E6572206F7220617070726F76656420666F7220616C6C000000 PUSH1 0x64 DUP3 ADD MSTORE PUSH1 0x84 SWAP1 REVERT JUMPDEST SWAP1 POP PUSH1 0x0 MSTORE PUSH1 0x5 PUSH1 0x20 MSTORE PUSH1 0x40 PUSH1 0x0 KECCAK256 CALLER PUSH1 0x0 MSTORE PUSH1 0x20 MSTORE PUSH1 0xFF PUSH1 0x40 PUSH1 0x0 KECCAK256 SLOAD AND DUP5 PUSH2 0x3FE4 JUMP JUMPDEST PUSH1 0x40 MLOAD PUSH3 0x461BCD PUSH1 0xE5 SHL DUP2 MSTORE PUSH1 0x20 PUSH1 0x4 DUP3 ADD MSTORE PUSH1 0x21 PUSH1 0x24 DUP3 ADD MSTORE PUSH32 0x4552433732313A20617070726F76616C20746F2063757272656E74206F776E65 PUSH1 0x44 DUP3 ADD MSTORE PUSH1 0x39 PUSH1 0xF9 SHL PUSH1 0x64 DUP3 ADD MSTORE PUSH1 0x84 SWAP1 REVERT JUMPDEST CALLVALUE PUSH2 0x3BD JUMPI PUSH1 0x20 CALLDATASIZE PUSH1 0x3 NOT ADD SLT PUSH2 0x3BD JUMPI PUSH1 0x20 PUSH2 0x2D8A PUSH1 0x4 CALLDATALOAD PUSH2 0x487D JUMP JUMPDEST CALLVALUE PUSH2 0x3BD JUMPI PUSH1 0x0 CALLDATASIZE PUSH1 0x3 NOT ADD SLT PUSH2 0x3BD JUMPI PUSH1 0x40 MLOAD PUSH1 0x0 SWAP1 PUSH1 0x0 SLOAD PUSH2 0x4159 DUP2 PUSH2 0x466F JUMP JUMPDEST DUP1 DUP4 MSTORE PUSH1 0x1 SWAP2 DUP1 DUP4 AND SWAP1 DUP2 ISZERO PUSH2 0x1F4B JUMPI POP PUSH1 0x1 EQ PUSH2 0x4181 JUMPI PUSH2 0x1009 DUP4 PUSH2 0x1EF9 DUP2 DUP8 SUB DUP3 PUSH2 0x4558 JUMP JUMPDEST PUSH1 0x0 DUP1 DUP1 MSTORE PUSH1 0x20 SWAP5 POP SWAP2 PUSH32 0x290DECD9548B62A8D60345A988386FC84BA6BC95484008F6362F93160EF3E563 JUMPDEST DUP3 DUP5 LT PUSH2 0x41C6 JUMPI POP POP POP DUP2 ADD SWAP1 SWAP2 ADD SWAP1 PUSH2 0x1EF9 DUP2 PUSH2 0x1EE9 JUMP JUMPDEST DUP1 SLOAD DUP6 DUP6 ADD DUP8 ADD MSTORE SWAP3 DUP6 ADD SWAP3 DUP2 ADD PUSH2 0x41AD JUMP JUMPDEST CALLVALUE PUSH2 0x3BD JUMPI PUSH1 0x20 CALLDATASIZE PUSH1 0x3 NOT ADD SLT PUSH2 0x3BD JUMPI PUSH1 0x4 CALLDATALOAD PUSH4 0xFFFFFFFF PUSH1 0xE0 SHL DUP2 AND DUP1 SWAP2 SUB PUSH2 0x3BD JUMPI PUSH1 0x20 SWAP1 PUSH4 0x24832483 PUSH1 0xE1 SHL DUP2 EQ SWAP1 DUP2 ISZERO PUSH2 0x421E JUMPI JUMPDEST POP PUSH1 0x40 MLOAD SWAP1 ISZERO ISZERO DUP2 MSTORE RETURN JUMPDEST PUSH4 0x80AC58CD PUSH1 0xE0 SHL DUP2 EQ SWAP2 POP DUP2 ISZERO PUSH2 0x4250 JUMPI JUMPDEST DUP2 ISZERO PUSH2 0x423F JUMPI JUMPDEST POP DUP3 PUSH2 0x4213 JUMP JUMPDEST PUSH4 0x1FFC9A7 PUSH1 0xE0 SHL EQ SWAP1 POP DUP3 PUSH2 0x4238 JUMP JUMPDEST PUSH4 0x5B5E139F PUSH1 0xE0 SHL DUP2 EQ SWAP2 POP PUSH2 0x4231 JUMP JUMPDEST CALLVALUE PUSH2 0x3BD JUMPI PUSH1 0x0 CALLDATASIZE PUSH1 0x3 NOT ADD SLT PUSH2 0x3BD JUMPI PUSH2 0x140 DUP2 PUSH2 0x4281 PUSH1 0x0 SWAP4 PUSH2 0x4499 JUMP JUMPDEST DUP3 DUP2 MSTORE PUSH1 0x60 PUSH1 0x20 DUP3 ADD MSTORE PUSH1 0x60 PUSH1 0x40 DUP3 ADD MSTORE DUP3 PUSH1 0x60 DUP3 ADD MSTORE DUP3 PUSH1 0x80 DUP3 ADD MSTORE DUP3 PUSH1 0xA0 DUP3 ADD MSTORE DUP3 PUSH1 0xC0 DUP3 ADD MSTORE DUP3 PUSH1 0xE0 DUP3 ADD MSTORE DUP3 PUSH2 0x100 DUP3 ADD MSTORE DUP3 PUSH2 0x120 DUP3 ADD MSTORE ADD MSTORE PUSH1 0x22 SLOAD PUSH1 0x0 MSTORE PUSH1 0x1F PUSH1 0x20 MSTORE PUSH1 0x40 PUSH1 0x0 KECCAK256 PUSH1 0xA PUSH1 0x40 MLOAD SWAP2 PUSH2 0x42DF DUP4 PUSH2 0x4499 JUMP JUMPDEST DUP1 SLOAD DUP4 MSTORE PUSH2 0x42EF PUSH1 0x1 DUP3 ADD PUSH2 0x46A9 JUMP JUMPDEST PUSH1 0x20 DUP5 ADD MSTORE PUSH2 0x4300 PUSH1 0x2 DUP3 ADD PUSH2 0x46A9 JUMP JUMPDEST PUSH1 0x40 DUP5 ADD MSTORE PUSH1 0x3 DUP2 ADD SLOAD PUSH1 0x60 DUP5 ADD MSTORE PUSH1 0x4 DUP2 ADD SLOAD PUSH1 0x80 DUP5 ADD MSTORE PUSH1 0x5 DUP2 ADD SLOAD PUSH1 0xA0 DUP5 ADD MSTORE PUSH1 0x6 DUP2 ADD SLOAD PUSH1 0xC0 DUP5 ADD MSTORE PUSH1 0x7 DUP2 ADD SLOAD PUSH1 0xE0 DUP5 ADD MSTORE PUSH1 0xFF PUSH1 0x8 DUP3 ADD SLOAD AND ISZERO ISZERO PUSH2 0x100 DUP5 ADD MSTORE PUSH1 0x9 DUP2 ADD SLOAD PUSH2 0x120 DUP5 ADD MSTORE ADD SLOAD PUSH2 0x140 DUP3 ADD MSTORE PUSH1 0x40 MLOAD DUP1 SWAP2 PUSH1 0x20 DUP3 MSTORE DUP1 MLOAD PUSH1 0x20 DUP4 ADD MSTORE PUSH1 0x20 DUP2 ADD MLOAD PUSH2 0x140 PUSH2 0x43A3 PUSH2 0x438D PUSH2 0x160 SWAP4 DUP5 PUSH1 0x40 DUP9 ADD MSTORE PUSH2 0x180 DUP8 ADD SWAP1 PUSH2 0x441C JUMP JUMPDEST PUSH1 0x40 DUP6 ADD MLOAD DUP7 DUP3 SUB PUSH1 0x1F NOT ADD PUSH1 0x60 DUP9 ADD MSTORE PUSH2 0x441C JUMP JUMPDEST SWAP3 PUSH1 0x60 DUP2 ADD MLOAD PUSH1 0x80 DUP7 ADD MSTORE PUSH1 0x80 DUP2 ADD MLOAD PUSH1 0xA0 DUP7 ADD MSTORE PUSH1 0xA0 DUP2 ADD MLOAD PUSH1 0xC0 DUP7 ADD MSTORE PUSH1 0xC0 DUP2 ADD MLOAD PUSH1 0xE0 DUP7 ADD MSTORE PUSH1 0xE0 DUP2 ADD MLOAD PUSH2 0x100 DUP7 ADD MSTORE PUSH2 0x100 DUP2 ADD MLOAD ISZERO ISZERO PUSH2 0x120 DUP7 ADD MSTORE PUSH2 0x120 DUP2 ADD MLOAD DUP3 DUP7 ADD MSTORE ADD MLOAD SWAP1 DUP4 ADD MSTORE SUB SWAP1 RETURN JUMPDEST PUSH1 0x0 JUMPDEST DUP4 DUP2 LT PUSH2 0x440C JUMPI POP POP PUSH1 0x0 SWAP2 ADD MSTORE JUMP JUMPDEST DUP2 DUP2 ADD MLOAD DUP4 DUP3 ADD MSTORE PUSH1 0x20 ADD PUSH2 0x43FC JUMP JUMPDEST SWAP1 PUSH1 0x20 SWAP2 PUSH2 0x4435 DUP2 MLOAD DUP1 SWAP3 DUP2 DUP6 MSTORE DUP6 DUP1 DUP7 ADD SWAP2 ADD PUSH2 0x43F9 JUMP JUMPDEST PUSH1 0x1F ADD PUSH1 0x1F NOT AND ADD ADD SWAP1 JUMP JUMPDEST PUSH1 0x4 CALLDATALOAD SWAP1 PUSH1 0x1 PUSH1 0x1 PUSH1 0xA0 SHL SUB DUP3 AND DUP3 SUB PUSH2 0x3BD JUMPI JUMP JUMPDEST PUSH1 0x24 CALLDATALOAD SWAP1 PUSH1 0x1 PUSH1 0x1 PUSH1 0xA0 SHL SUB DUP3 AND DUP3 SUB PUSH2 0x3BD JUMPI JUMP JUMPDEST PUSH1 0x15 SLOAD DUP2 LT ISZERO PUSH2 0x2C4E JUMPI PUSH1 0x15 PUSH1 0x0 MSTORE PUSH1 0x3 PUSH1 0x20 PUSH1 0x0 KECCAK256 SWAP2 MUL ADD SWAP1 PUSH1 0x0 SWAP1 JUMP JUMPDEST SWAP1 PUSH1 0x4 DUP3 LT ISZERO PUSH2 0x122D JUMPI MSTORE JUMP JUMPDEST PUSH2 0x160 DUP2 ADD SWAP1 DUP2 LT PUSH1 0x1 PUSH1 0x1 PUSH1 0x40 SHL SUB DUP3 GT OR PUSH2 0xDD0 JUMPI PUSH1 0x40 MSTORE JUMP JUMPDEST PUSH1 0xA0 DUP2 ADD SWAP1 DUP2 LT PUSH1 0x1 PUSH1 0x1 PUSH1 0x40 SHL SUB DUP3 GT OR PUSH2 0xDD0 JUMPI PUSH1 0x40 MSTORE JUMP JUMPDEST PUSH2 0x140 DUP2 ADD SWAP1 DUP2 LT PUSH1 0x1 PUSH1 0x1 PUSH1 0x40 SHL SUB DUP3 GT OR PUSH2 0xDD0 JUMPI PUSH1 0x40 MSTORE JUMP JUMPDEST PUSH1 0x80 DUP2 ADD SWAP1 DUP2 LT PUSH1 0x1 PUSH1 0x1 PUSH1 0x40 SHL SUB DUP3 GT OR PUSH2 0xDD0 JUMPI PUSH1 0x40 MSTORE JUMP JUMPDEST PUSH1 0xE0 DUP2 ADD SWAP1 DUP2 LT PUSH1 0x1 PUSH1 0x1 PUSH1 0x40 SHL SUB DUP3 GT OR PUSH2 0xDD0 JUMPI PUSH1 0x40 MSTORE JUMP JUMPDEST PUSH1 0x20 DUP2 ADD SWAP1 DUP2 LT PUSH1 0x1 PUSH1 0x1 PUSH1 0x40 SHL SUB DUP3 GT OR PUSH2 0xDD0 JUMPI PUSH1 0x40 MSTORE JUMP JUMPDEST PUSH1 0x40 DUP2 ADD SWAP1 DUP2 LT PUSH1 0x1 PUSH1 0x1 PUSH1 0x40 SHL SUB DUP3 GT OR PUSH2 0xDD0 JUMPI PUSH1 0x40 MSTORE JUMP JUMPDEST PUSH1 0x1F SWAP1 SWAP2 ADD PUSH1 0x1F NOT AND DUP2 ADD SWAP1 PUSH1 0x1 PUSH1 0x1 PUSH1 0x40 SHL SUB DUP3 GT SWAP1 DUP3 LT OR PUSH2 0xDD0 JUMPI PUSH1 0x40 MSTORE JUMP JUMPDEST PUSH1 0x1 PUSH1 0x1 PUSH1 0x40 SHL SUB DUP2 GT PUSH2 0xDD0 JUMPI PUSH1 0x5 SHL PUSH1 0x20 ADD SWAP1 JUMP JUMPDEST PUSH1 0x60 SWAP1 PUSH1 0x3 NOT ADD SLT PUSH2 0x3BD JUMPI PUSH1 0x1 PUSH1 0x1 PUSH1 0xA0 SHL SUB SWAP1 PUSH1 0x4 CALLDATALOAD DUP3 DUP2 AND DUP2 SUB PUSH2 0x3BD JUMPI SWAP2 PUSH1 0x24 CALLDATALOAD SWAP1 DUP2 AND DUP2 SUB PUSH2 0x3BD JUMPI SWAP1 PUSH1 0x44 CALLDATALOAD SWAP1 JUMP JUMPDEST PUSH1 0x1 PUSH1 0x1 PUSH1 0x40 SHL SUB DUP2 GT PUSH2 0xDD0 JUMPI PUSH1 0x1F ADD PUSH1 0x1F NOT AND PUSH1 0x20 ADD SWAP1 JUMP JUMPDEST SWAP3 SWAP2 SWAP3 PUSH2 0x45EE DUP3 PUSH2 0x45C7 JUMP JUMPDEST SWAP2 PUSH2 0x45FC PUSH1 0x40 MLOAD SWAP4 DUP5 PUSH2 0x4558 JUMP JUMPDEST DUP3 SWAP5 DUP2 DUP5 MSTORE DUP2 DUP4 ADD GT PUSH2 0x3BD JUMPI DUP3 DUP2 PUSH1 0x20 SWAP4 DUP5 PUSH1 0x0 SWAP7 ADD CALLDATACOPY ADD ADD MSTORE JUMP JUMPDEST SWAP1 DUP1 PUSH1 0x1F DUP4 ADD SLT ISZERO PUSH2 0x3BD JUMPI DUP2 PUSH1 0x20 PUSH2 0x4634 SWAP4 CALLDATALOAD SWAP2 ADD PUSH2 0x45E2 JUMP JUMPDEST SWAP1 JUMP JUMPDEST CALLVALUE PUSH2 0x3BD JUMPI PUSH1 0x0 CALLDATASIZE PUSH1 0x3 NOT ADD SLT PUSH2 0x3BD JUMPI PUSH1 0x20 PUSH1 0x40 MLOAD PUSH7 0x38D7EA4C68000 DUP2 MSTORE RETURN JUMPDEST PUSH1 0x40 SWAP1 PUSH1 0x3 NOT ADD SLT PUSH2 0x3BD JUMPI PUSH1 0x4 CALLDATALOAD SWAP1 PUSH1 0x24 CALLDATALOAD SWAP1 JUMP JUMPDEST SWAP1 PUSH1 0x1 DUP3 DUP2 SHR SWAP3 AND DUP1 ISZERO PUSH2 0x469F JUMPI JUMPDEST PUSH1 0x20 DUP4 LT EQ PUSH2 0x4689 JUMPI JUMP JUMPDEST PUSH4 0x4E487B71 PUSH1 0xE0 SHL PUSH1 0x0 MSTORE PUSH1 0x22 PUSH1 0x4 MSTORE PUSH1 0x24 PUSH1 0x0 REVERT JUMPDEST SWAP2 PUSH1 0x7F AND SWAP2 PUSH2 0x467E JUMP JUMPDEST SWAP1 PUSH1 0x40 MLOAD SWAP2 DUP3 PUSH1 0x0 DUP3 SLOAD SWAP3 PUSH2 0x46BD DUP5 PUSH2 0x466F JUMP JUMPDEST SWAP1 DUP2 DUP5 MSTORE PUSH1 0x1 SWAP5 DUP6 DUP2 AND SWAP1 DUP2 PUSH1 0x0 EQ PUSH2 0x472C JUMPI POP PUSH1 0x1 EQ PUSH2 0x46E9 JUMPI JUMPDEST POP POP PUSH2 0x46E7 SWAP3 POP SUB DUP4 PUSH2 0x4558 JUMP JUMPDEST JUMP JUMPDEST SWAP1 SWAP4 SWAP2 POP PUSH1 0x0 MSTORE PUSH1 0x20 SWAP1 DUP2 PUSH1 0x0 KECCAK256 SWAP4 PUSH1 0x0 SWAP2 JUMPDEST DUP2 DUP4 LT PUSH2 0x4714 JUMPI POP POP PUSH2 0x46E7 SWAP4 POP DUP3 ADD ADD CODESIZE DUP1 PUSH2 0x46D9 JUMP JUMPDEST DUP6 SLOAD DUP9 DUP5 ADD DUP6 ADD MSTORE SWAP5 DUP6 ADD SWAP5 DUP8 SWAP5 POP SWAP2 DUP4 ADD SWAP2 PUSH2 0x46FC JUMP JUMPDEST SWAP2 POP POP PUSH2 0x46E7 SWAP5 POP PUSH1 0x20 SWAP3 POP PUSH1 0xFF NOT AND DUP3 DUP5 ADD MSTORE ISZERO ISZERO PUSH1 0x5 SHL DUP3 ADD ADD CODESIZE DUP1 PUSH2 0x46D9 JUMP JUMPDEST PUSH1 0x20 SWAP1 DUP2 PUSH1 0x40 DUP2 DUP4 ADD SWAP3 DUP3 DUP2 MSTORE DUP6 MLOAD DUP1 SWAP5 MSTORE ADD SWAP4 ADD SWAP2 PUSH1 0x0 JUMPDEST DUP3 DUP2 LT PUSH2 0x4776 JUMPI POP POP POP POP SWAP1 JUMP JUMPDEST DUP4 MLOAD DUP6 MSTORE SWAP4 DUP2 ADD SWAP4 SWAP3 DUP2 ADD SWAP3 PUSH1 0x1 ADD PUSH2 0x4768 JUMP JUMPDEST DUP1 SLOAD DUP3 LT ISZERO PUSH2 0x2C4E JUMPI PUSH1 0x0 MSTORE PUSH1 0x20 PUSH1 0x0 KECCAK256 ADD SWAP1 PUSH1 0x0 SWAP1 JUMP JUMPDEST PUSH1 0x4 DUP2 LT ISZERO PUSH2 0x122D JUMPI PUSH1 0x0 MSTORE PUSH1 0x12 PUSH1 0x20 MSTORE PUSH1 0x40 PUSH1 0x0 KECCAK256 SWAP1 JUMP JUMPDEST PUSH1 0x7 SLOAD PUSH1 0x1 PUSH1 0x1 PUSH1 0xA0 SHL SUB AND CALLER SUB PUSH2 0x47CF JUMPI JUMP JUMPDEST PUSH1 0x64 PUSH1 0x40 MLOAD PUSH3 0x461BCD PUSH1 0xE5 SHL DUP2 MSTORE PUSH1 0x20 PUSH1 0x4 DUP3 ADD MSTORE PUSH1 0x20 PUSH1 0x24 DUP3 ADD MSTORE PUSH32 0x4F776E61626C653A2063616C6C6572206973206E6F7420746865206F776E6572 PUSH1 0x44 DUP3 ADD MSTORE REVERT JUMPDEST ISZERO PUSH2 0x481A JUMPI JUMP JUMPDEST PUSH1 0x40 MLOAD PUSH3 0x461BCD PUSH1 0xE5 SHL DUP2 MSTORE PUSH1 0x20 PUSH1 0x4 DUP3 ADD MSTORE PUSH1 0x18 PUSH1 0x24 DUP3 ADD MSTORE PUSH24 0x115490CDCC8C4E881A5B9D985B1A59081D1BDAD95B881251 PUSH1 0x42 SHL PUSH1 0x44 DUP3 ADD MSTORE PUSH1 0x64 SWAP1 REVERT JUMPDEST PUSH1 0x0 SWAP1 DUP2 MSTORE PUSH1 0x2 PUSH1 0x20 MSTORE PUSH1 0x40 SWAP1 KECCAK256 SLOAD PUSH1 0x1 PUSH1 0x1 PUSH1 0xA0 SHL SUB AND PUSH2 0x4634 DUP2 ISZERO ISZERO PUSH2 0x4813 JUMP JUMPDEST PUSH2 0x488E PUSH2 0x4889 DUP3 PUSH2 0x4B57 JUMP JUMPDEST PUSH2 0x4813 JUMP JUMPDEST PUSH1 0x0 SWAP1 DUP2 MSTORE PUSH1 0x4 PUSH1 0x20 MSTORE PUSH1 0x40 SWAP1 KECCAK256 SLOAD PUSH1 0x1 PUSH1 0x1 PUSH1 0xA0 SHL SUB AND SWAP1 JUMP JUMPDEST ISZERO PUSH2 0x48B0 JUMPI JUMP JUMPDEST PUSH1 0x40 MLOAD PUSH3 0x461BCD PUSH1 0xE5 SHL DUP2 MSTORE PUSH1 0x20 PUSH1 0x4 DUP3 ADD MSTORE PUSH1 0x2D PUSH1 0x24 DUP3 ADD MSTORE PUSH32 0x4552433732313A2063616C6C6572206973206E6F7420746F6B656E206F776E65 PUSH1 0x44 DUP3 ADD MSTORE PUSH13 0x1C881BDC88185C1C1C9BDD9959 PUSH1 0x9A SHL PUSH1 0x64 DUP3 ADD MSTORE PUSH1 0x84 SWAP1 REVERT JUMPDEST PUSH1 0x80 SWAP1 PUSH1 0x20 DUP2 MSTORE PUSH1 0x32 PUSH1 0x20 DUP3 ADD MSTORE PUSH32 0x4552433732313A207472616E7366657220746F206E6F6E204552433732315265 PUSH1 0x40 DUP3 ADD MSTORE PUSH18 0x31B2B4BB32B91034B6B83632B6B2B73A32B9 PUSH1 0x71 SHL PUSH1 0x60 DUP3 ADD MSTORE ADD SWAP1 JUMP JUMPDEST ISZERO PUSH2 0x4965 JUMPI JUMP JUMPDEST PUSH1 0x40 MLOAD PUSH3 0x461BCD PUSH1 0xE5 SHL DUP2 MSTORE DUP1 PUSH2 0x497E PUSH1 0x4 DUP3 ADD PUSH2 0x490B JUMP JUMPDEST SUB SWAP1 REVERT JUMPDEST SWAP1 PUSH1 0x1 PUSH1 0x1 PUSH1 0xA0 SHL SUB DUP1 DUP1 PUSH2 0x4996 DUP5 PUSH2 0x485A JUMP JUMPDEST AND SWAP4 AND SWAP2 DUP4 DUP4 EQ SWAP4 DUP5 ISZERO PUSH2 0x49C9 JUMPI JUMPDEST POP DUP4 ISZERO PUSH2 0x49B3 JUMPI JUMPDEST POP POP POP SWAP1 JUMP JUMPDEST PUSH2 0x49BF SWAP2 SWAP3 SWAP4 POP PUSH2 0x487D JUMP JUMPDEST AND EQ CODESIZE DUP1 DUP1 PUSH2 0x49AD JUMP JUMPDEST SWAP1 SWAP4 POP PUSH1 0x0 MSTORE PUSH1 0x5 PUSH1 0x20 MSTORE PUSH1 0x40 PUSH1 0x0 KECCAK256 DUP3 PUSH1 0x0 MSTORE PUSH1 0x20 MSTORE PUSH1 0xFF PUSH1 0x40 PUSH1 0x0 KECCAK256 SLOAD AND SWAP3 CODESIZE PUSH2 0x49A5 JUMP JUMPDEST ISZERO PUSH2 0x49F7 JUMPI JUMP JUMPDEST PUSH1 0x40 MLOAD PUSH3 0x461BCD PUSH1 0xE5 SHL DUP2 MSTORE PUSH1 0x20 PUSH1 0x4 DUP3 ADD MSTORE PUSH1 0x25 PUSH1 0x24 DUP3 ADD MSTORE PUSH32 0x4552433732313A207472616E736665722066726F6D20696E636F727265637420 PUSH1 0x44 DUP3 ADD MSTORE PUSH5 0x37BBB732B9 PUSH1 0xD9 SHL PUSH1 0x64 DUP3 ADD MSTORE PUSH1 0x84 SWAP1 REVERT JUMPDEST SWAP1 PUSH2 0x4A72 SWAP2 PUSH2 0x4A58 DUP5 PUSH2 0x485A JUMP JUMPDEST PUSH1 0x1 PUSH1 0x1 PUSH1 0xA0 SHL SUB SWAP4 SWAP2 DUP5 AND SWAP3 DUP5 SWAP3 SWAP1 SWAP2 DUP4 AND DUP5 EQ PUSH2 0x49F0 JUMP JUMPDEST AND SWAP2 DUP3 ISZERO PUSH2 0x4AF5 JUMPI DUP2 PUSH2 0x4A8F SWAP2 PUSH2 0x4A88 DUP7 PUSH2 0x485A JUMP JUMPDEST AND EQ PUSH2 0x49F0 JUMP JUMPDEST PUSH1 0x0 DUP1 MLOAD PUSH1 0x20 PUSH2 0x5250 DUP4 CODECOPY DUP2 MLOAD SWAP2 MSTORE PUSH1 0x0 DUP5 DUP2 MSTORE PUSH1 0x4 PUSH1 0x20 MSTORE PUSH1 0x40 DUP2 KECCAK256 PUSH1 0x1 DUP1 PUSH1 0xA0 SHL SUB NOT SWAP1 DUP2 DUP2 SLOAD AND SWAP1 SSTORE DUP4 DUP3 MSTORE PUSH1 0x3 PUSH1 0x20 MSTORE PUSH1 0x40 DUP3 KECCAK256 PUSH1 0x0 NOT DUP2 SLOAD ADD SWAP1 SSTORE DUP5 DUP3 MSTORE PUSH1 0x40 DUP3 KECCAK256 PUSH1 0x1 DUP2 SLOAD ADD SWAP1 SSTORE DUP6 DUP3 MSTORE PUSH1 0x2 PUSH1 0x20 MSTORE DUP5 PUSH1 0x40 DUP4 KECCAK256 SWAP2 DUP3 SLOAD AND OR SWAP1 SSTORE DUP1 LOG4 JUMP JUMPDEST PUSH1 0x40 MLOAD PUSH3 0x461BCD PUSH1 0xE5 SHL DUP2 MSTORE PUSH1 0x20 PUSH1 0x4 DUP3 ADD MSTORE PUSH1 0x24 DUP1 DUP3 ADD MSTORE PUSH32 0x4552433732313A207472616E7366657220746F20746865207A65726F20616464 PUSH1 0x44 DUP3 ADD MSTORE PUSH4 0x72657373 PUSH1 0xE0 SHL PUSH1 0x64 DUP3 ADD MSTORE PUSH1 0x84 SWAP1 REVERT JUMPDEST SWAP1 PUSH1 0xFF DUP1 NOT DUP4 SLOAD AND SWAP2 ISZERO ISZERO AND OR SWAP1 SSTORE JUMP JUMPDEST PUSH1 0x0 SWAP1 DUP2 MSTORE PUSH1 0x2 PUSH1 0x20 MSTORE PUSH1 0x40 SWAP1 KECCAK256 SLOAD PUSH1 0x1 PUSH1 0x1 PUSH1 0xA0 SHL SUB AND ISZERO ISZERO SWAP1 JUMP JUMPDEST SWAP2 SWAP3 PUSH1 0x0 SWAP3 SWAP1 SWAP2 SWAP1 DUP1 EXTCODESIZE ISZERO PUSH2 0x4C8A JUMPI PUSH2 0x4BC2 SWAP5 PUSH1 0x40 MLOAD DUP1 SWAP3 PUSH4 0xA85BD01 PUSH1 0xE1 SHL SWAP5 DUP6 DUP4 MSTORE CALLER PUSH1 0x4 DUP5 ADD MSTORE DUP8 PUSH1 0x24 DUP5 ADD MSTORE PUSH1 0x44 DUP4 ADD MSTORE PUSH1 0x80 PUSH1 0x64 DUP4 ADD MSTORE DUP2 DUP8 DUP2 PUSH1 0x20 SWAP11 DUP12 SWAP7 PUSH1 0x84 DUP4 ADD SWAP1 PUSH2 0x441C JUMP JUMPDEST SUB SWAP3 PUSH1 0x1 PUSH1 0x1 PUSH1 0xA0 SHL SUB AND GAS CALL DUP5 SWAP2 DUP2 PUSH2 0x4C46 JUMPI JUMPDEST POP PUSH2 0x4C35 JUMPI POP POP POP RETURNDATASIZE PUSH1 0x0 EQ PUSH2 0x4C2D JUMPI RETURNDATASIZE PUSH2 0x4BF1 DUP2 PUSH2 0x45C7 JUMP JUMPDEST SWAP1 PUSH2 0x4BFF PUSH1 0x40 MLOAD SWAP3 DUP4 PUSH2 0x4558 JUMP JUMPDEST DUP2 MSTORE DUP1 SWAP2 DUP4 RETURNDATASIZE SWAP3 ADD RETURNDATACOPY JUMPDEST DUP1 MLOAD SWAP2 DUP3 PUSH2 0x4C2A JUMPI PUSH1 0x40 MLOAD PUSH3 0x461BCD PUSH1 0xE5 SHL DUP2 MSTORE DUP1 PUSH2 0x497E PUSH1 0x4 DUP3 ADD PUSH2 0x490B JUMP JUMPDEST ADD REVERT JUMPDEST POP PUSH1 0x60 PUSH2 0x4C09 JUMP JUMPDEST PUSH1 0x1 PUSH1 0x1 PUSH1 0xE0 SHL SUB NOT AND EQ SWAP3 POP SWAP1 POP JUMP JUMPDEST SWAP1 SWAP2 POP DUP6 DUP2 DUP2 RETURNDATASIZE DUP4 GT PUSH2 0x4C83 JUMPI JUMPDEST PUSH2 0x4C5E DUP2 DUP4 PUSH2 0x4558 JUMP JUMPDEST DUP2 ADD SUB SLT PUSH2 0x4C7F JUMPI MLOAD PUSH1 0x1 PUSH1 0x1 PUSH1 0xE0 SHL SUB NOT DUP2 AND DUP2 SUB PUSH2 0x4C7F JUMPI SWAP1 CODESIZE PUSH2 0x4BD7 JUMP JUMPDEST DUP5 DUP1 REVERT JUMPDEST POP RETURNDATASIZE PUSH2 0x4C54 JUMP JUMPDEST POP POP SWAP2 POP POP PUSH1 0x1 SWAP1 JUMP JUMPDEST SWAP3 SWAP4 PUSH1 0x0 SWAP4 SWAP1 SWAP3 SWAP2 DUP1 EXTCODESIZE ISZERO PUSH2 0x4D14 JUMPI SWAP5 DUP5 SWAP2 PUSH2 0x4CEE SWAP7 PUSH1 0x40 MLOAD DUP1 SWAP5 DUP2 SWAP4 PUSH4 0xA85BD01 PUSH1 0xE1 SHL SWAP8 DUP9 DUP5 MSTORE CALLER PUSH1 0x4 DUP6 ADD MSTORE PUSH1 0x1 DUP1 PUSH1 0xA0 SHL SUB DUP1 SWAP3 AND PUSH1 0x24 DUP6 ADD MSTORE PUSH1 0x44 DUP5 ADD MSTORE PUSH1 0x80 PUSH1 0x64 DUP5 ADD MSTORE DUP3 PUSH1 0x20 SWAP12 DUP13 SWAP8 PUSH1 0x84 DUP4 ADD SWAP1 PUSH2 0x441C JUMP JUMPDEST SUB SWAP4 AND GAS CALL DUP5 SWAP2 DUP2 PUSH2 0x4C46 JUMPI POP PUSH2 0x4C35 JUMPI POP POP POP RETURNDATASIZE PUSH1 0x0 EQ PUSH2 0x4C2D JUMPI RETURNDATASIZE PUSH2 0x4BF1 DUP2 PUSH2 0x45C7 JUMP JUMPDEST POP POP POP SWAP2 POP POP PUSH1 0x1 SWAP1 JUMP JUMPDEST SWAP1 PUSH1 0x50 DUP3 MUL SWAP2 DUP1 DUP4 DIV PUSH1 0x50 EQ SWAP1 ISZERO OR ISZERO PUSH2 0xB6C JUMPI JUMP JUMPDEST DUP2 DUP2 MUL SWAP3 SWAP2 DUP2 ISZERO SWAP2 DUP5 DIV EQ OR ISZERO PUSH2 0xB6C JUMPI JUMP JUMPDEST SWAP2 SWAP1 DUP3 SUB SWAP2 DUP3 GT PUSH2 0xB6C JUMPI JUMP JUMPDEST SWAP1 PUSH7 0x38D7EA4C68000 SWAP2 DUP1 DUP4 MUL SWAP3 DUP4 DIV SUB PUSH2 0xB6C JUMPI PUSH2 0x4D73 SWAP2 PUSH2 0x4D35 JUMP JUMPDEST PUSH1 0x1 PUSH1 0x1 PUSH1 0xA0 SHL SUB SWAP1 SWAP2 AND PUSH1 0x0 SWAP1 DUP2 MSTORE PUSH1 0x11 PUSH1 0x20 MSTORE PUSH1 0x40 SWAP1 KECCAK256 SLOAD PUSH1 0xFF AND PUSH1 0x4 DUP2 LT ISZERO PUSH2 0x122D JUMPI ISZERO PUSH2 0x4DA1 JUMPI SWAP1 JUMP JUMPDEST PUSH2 0x4DAC PUSH1 0x64 SWAP2 PUSH2 0x4D1F JUMP JUMPDEST DIV SWAP1 JUMP JUMPDEST PUSH7 0x71AFD498D0000 SWAP1 DUP1 DUP3 MUL SWAP2 DUP3 DIV SUB PUSH2 0xB6C JUMPI DUP1 SWAP2 PUSH1 0x1 DUP1 PUSH1 0xA0 SHL SUB AND PUSH1 0x0 MSTORE PUSH1 0x11 PUSH1 0x20 MSTORE PUSH1 0xFF PUSH1 0x40 PUSH1 0x0 KECCAK256 SLOAD AND PUSH1 0x4 DUP2 LT ISZERO PUSH2 0x122D JUMPI PUSH1 0x1 EQ PUSH2 0x4DF3 JUMPI POP SWAP1 JUMP JUMPDEST PUSH1 0x64 SWAP2 POP PUSH2 0x4DAC SWAP1 PUSH2 0x4D1F JUMP JUMPDEST PUSH1 0x4 DUP3 LT ISZERO PUSH2 0x122D JUMPI MSTORE JUMP JUMPDEST SWAP1 PUSH1 0x4 DUP2 LT ISZERO PUSH2 0x122D JUMPI PUSH1 0xFF DUP1 NOT DUP4 SLOAD AND SWAP2 AND OR SWAP1 SSTORE JUMP JUMPDEST DUP1 SLOAD PUSH2 0x100 PUSH1 0x1 PUSH1 0xA8 SHL SUB NOT AND PUSH1 0x8 SWAP3 SWAP1 SWAP3 SHL PUSH2 0x100 PUSH1 0x1 PUSH1 0xA8 SHL SUB AND SWAP2 SWAP1 SWAP2 OR SWAP1 SSTORE JUMP JUMPDEST DUP1 SLOAD SWAP2 SWAP1 PUSH1 0x1 PUSH1 0x40 SHL DUP4 LT ISZERO PUSH2 0xDD0 JUMPI DUP3 PUSH2 0x1508 SWAP2 PUSH1 0x1 PUSH2 0x46E7 SWAP6 ADD DUP2 SSTORE PUSH2 0x478A JUMP JUMPDEST PUSH1 0x2 PUSH1 0x8 SLOAD EQ PUSH2 0x4E7D JUMPI PUSH1 0x2 PUSH1 0x8 SSTORE JUMP JUMPDEST PUSH1 0x40 MLOAD PUSH3 0x461BCD PUSH1 0xE5 SHL DUP2 MSTORE PUSH1 0x20 PUSH1 0x4 DUP3 ADD MSTORE PUSH1 0x1F PUSH1 0x24 DUP3 ADD MSTORE PUSH32 0x5265656E7472616E637947756172643A207265656E7472616E742063616C6C00 PUSH1 0x44 DUP3 ADD MSTORE PUSH1 0x64 SWAP1 REVERT JUMPDEST ISZERO PUSH2 0x4EC9 JUMPI JUMP JUMPDEST PUSH1 0x40 MLOAD PUSH3 0x461BCD PUSH1 0xE5 SHL DUP2 MSTORE PUSH1 0x20 PUSH1 0x4 DUP3 ADD MSTORE PUSH1 0x1C PUSH1 0x24 DUP3 ADD MSTORE PUSH28 0x115490CDCC8C4E881D1BDAD95B88185B1C9958591E481B5A5B9D1959 PUSH1 0x22 SHL PUSH1 0x44 DUP3 ADD MSTORE PUSH1 0x64 SWAP1 REVERT JUMPDEST PUSH1 0x1 PUSH1 0x1 PUSH1 0xA0 SHL SUB AND DUP1 ISZERO PUSH2 0x4F80 JUMPI PUSH2 0x4F2E PUSH2 0x4F28 DUP4 PUSH2 0x4B57 JUMP JUMPDEST ISZERO PUSH2 0x4EC2 JUMP JUMPDEST PUSH2 0x4F3A PUSH2 0x4F28 DUP4 PUSH2 0x4B57 JUMP JUMPDEST PUSH1 0x0 DUP2 DUP2 MSTORE PUSH1 0x3 PUSH1 0x20 SWAP1 DUP2 MSTORE PUSH1 0x40 DUP1 DUP4 KECCAK256 DUP1 SLOAD PUSH1 0x1 ADD SWAP1 SSTORE DUP5 DUP4 MSTORE PUSH1 0x2 SWAP1 SWAP2 MSTORE DUP2 KECCAK256 DUP1 SLOAD PUSH1 0x1 PUSH1 0x1 PUSH1 0xA0 SHL SUB NOT AND DUP4 OR SWAP1 SSTORE PUSH1 0x0 DUP1 MLOAD PUSH1 0x20 PUSH2 0x5250 DUP4 CODECOPY DUP2 MLOAD SWAP2 MSTORE DUP2 DUP1 LOG4 JUMP JUMPDEST PUSH1 0x64 PUSH1 0x40 MLOAD PUSH3 0x461BCD PUSH1 0xE5 SHL DUP2 MSTORE PUSH1 0x20 PUSH1 0x4 DUP3 ADD MSTORE PUSH1 0x20 PUSH1 0x24 DUP3 ADD MSTORE PUSH32 0x4552433732313A206D696E7420746F20746865207A65726F2061646472657373 PUSH1 0x44 DUP3 ADD MSTORE REVERT JUMPDEST ISZERO PUSH2 0x4FCB JUMPI JUMP JUMPDEST PUSH1 0x40 MLOAD PUSH3 0x461BCD PUSH1 0xE5 SHL DUP2 MSTORE PUSH1 0x20 PUSH1 0x4 DUP3 ADD MSTORE PUSH1 0x10 PUSH1 0x24 DUP3 ADD MSTORE PUSH16 0x496E73756666696369656E7420666565 PUSH1 0x80 SHL PUSH1 0x44 DUP3 ADD MSTORE PUSH1 0x64 SWAP1 REVERT JUMPDEST SWAP2 SWAP1 DUP3 ADD DUP1 SWAP3 GT PUSH2 0xB6C JUMPI JUMP JUMPDEST PUSH1 0x0 SWAP1 DUP1 PUSH19 0x184F03E93FF9F4DAA797ED6E38ED64BF6A1F01 PUSH1 0x40 SHL DUP1 DUP3 LT ISZERO PUSH2 0x5164 JUMPI JUMPDEST POP PUSH10 0x4EE2D6D415B85ACEF81 PUSH1 0x20 SHL DUP1 DUP4 LT ISZERO PUSH2 0x5155 JUMPI JUMPDEST POP PUSH7 0x2386F26FC10000 DUP1 DUP4 LT ISZERO PUSH2 0x5146 JUMPI JUMPDEST POP PUSH4 0x5F5E100 DUP1 DUP4 LT ISZERO PUSH2 0x5137 JUMPI JUMPDEST POP PUSH2 0x2710 DUP1 DUP4 LT ISZERO PUSH2 0x5128 JUMPI JUMPDEST POP PUSH1 0x64 DUP3 LT ISZERO PUSH2 0x5118 JUMPI JUMPDEST PUSH1 0xA DUP1 SWAP3 LT ISZERO PUSH2 0x510E JUMPI JUMPDEST PUSH1 0x1 SWAP1 DUP2 PUSH1 0x21 DUP2 DUP7 ADD SWAP6 PUSH2 0x50A3 DUP8 PUSH2 0x45C7 JUMP JUMPDEST SWAP7 PUSH2 0x50B1 PUSH1 0x40 MLOAD SWAP9 DUP10 PUSH2 0x4558 JUMP JUMPDEST DUP1 DUP9 MSTORE PUSH2 0x50C0 PUSH1 0x1F NOT SWAP2 PUSH2 0x45C7 JUMP JUMPDEST ADD CALLDATASIZE PUSH1 0x20 DUP10 ADD CALLDATACOPY DUP7 ADD ADD SWAP1 JUMPDEST PUSH2 0x50D8 JUMPI JUMPDEST POP POP POP POP SWAP1 JUMP JUMPDEST PUSH1 0x0 NOT ADD SWAP1 DUP4 SWAP1 PUSH16 0x181899199A1A9B1B9C1CB0B131B232B3 PUSH1 0x81 SHL DUP3 DUP3 MOD BYTE DUP4 MSTORE8 DIV SWAP2 DUP3 ISZERO PUSH2 0x5109 JUMPI SWAP2 SWAP1 DUP3 PUSH2 0x50CC JUMP JUMPDEST PUSH2 0x50D1 JUMP JUMPDEST SWAP2 PUSH1 0x1 ADD SWAP2 PUSH2 0x5090 JUMP JUMPDEST SWAP2 SWAP1 PUSH1 0x64 PUSH1 0x2 SWAP2 DIV SWAP2 ADD SWAP2 PUSH2 0x5085 JUMP JUMPDEST PUSH1 0x4 SWAP2 SWAP4 SWAP3 DIV SWAP2 ADD SWAP2 CODESIZE PUSH2 0x507A JUMP JUMPDEST PUSH1 0x8 SWAP2 SWAP4 SWAP3 DIV SWAP2 ADD SWAP2 CODESIZE PUSH2 0x506D JUMP JUMPDEST PUSH1 0x10 SWAP2 SWAP4 SWAP3 DIV SWAP2 ADD SWAP2 CODESIZE PUSH2 0x505E JUMP JUMPDEST PUSH1 0x20 SWAP2 SWAP4 SWAP3 DIV SWAP2 ADD SWAP2 CODESIZE PUSH2 0x504C JUMP JUMPDEST PUSH1 0x40 SWAP4 POP DUP2 DIV SWAP2 POP CODESIZE PUSH2 0x5034 JUMP JUMPDEST PUSH1 0x0 NOT DUP2 EQ PUSH2 0xB6C JUMPI PUSH1 0x1 ADD SWAP1 JUMP JUMPDEST DUP2 DUP2 LT PUSH2 0x518C JUMPI POP POP JUMP JUMPDEST PUSH1 0x0 DUP2 SSTORE PUSH1 0x1 ADD PUSH2 0x5181 JUMP JUMPDEST ISZERO PUSH2 0x519F JUMPI JUMP JUMPDEST PUSH1 0x40 MLOAD PUSH3 0x461BCD PUSH1 0xE5 SHL DUP2 MSTORE PUSH1 0x20 PUSH1 0x4 DUP3 ADD MSTORE PUSH1 0x16 PUSH1 0x24 DUP3 ADD MSTORE PUSH22 0x14995DD85C9908185B1C9958591E4818DB185A5B5959 PUSH1 0x52 SHL PUSH1 0x44 DUP3 ADD MSTORE PUSH1 0x64 SWAP1 REVERT JUMPDEST ISZERO PUSH2 0x51E4 JUMPI JUMP JUMPDEST PUSH1 0x40 MLOAD PUSH3 0x461BCD PUSH1 0xE5 SHL DUP2 MSTORE PUSH1 0x20 PUSH1 0x4 DUP3 ADD MSTORE PUSH1 0xF PUSH1 0x24 DUP3 ADD MSTORE PUSH15 0x2737BA103A37B5B2B71037BBB732B9 PUSH1 0x89 SHL PUSH1 0x44 DUP3 ADD MSTORE PUSH1 0x64 SWAP1 REVERT JUMPDEST DUP1 MLOAD DUP3 LT ISZERO PUSH2 0x2C4E JUMPI PUSH1 0x20 SWAP2 PUSH1 0x5 SHL ADD ADD SWAP1 JUMP INVALID DUP12 0xE0 SMOD SWAP13 MSTORE8 AND MSIZE EQ SGT PREVRANDAO 0xCD 0x1F 0xD0 LOG4 CALLCODE DUP5 NOT 0x49 PUSH32 0x9722A3DAAFE3B4186F6B6457E0DDF252AD1BE2C89B69C2B068FC378DAA952BA7 CALL PUSH4 0xC4A11628 CREATE2 GAS 0x4D CREATE2 0x23 0xB3 0xEF GASPRICE 0xE3 DUP1 0xBB PUSH16 0xBC0CE7BFC28639AE95E9AF825CE794CB PUSH16 0x5A46D4CC13A36ADEC83BA77D621FB0F2 BASEFEE CALLVALUE 0xC2 PUSH19 0x4C3EC9489AA7ABF14A8CB8999794CC14BFAE9A EXTCODEHASH SWAP7 SLOAD LOG2 PUSH5 0x6970667358 0x22 SLT KECCAK256 SWAP4 SDIV PUSH10 0x2DCBC6E7E78A368DB2A5 SMOD PUSH10 0xA22D3B9580446D88E9E1 DUP16 DUP3 PUSH31 0x33DB642E64736F6C6343000813003300000000000000000000000000000000 "},"methodIdentifiers":{"BASE_BLOCK_FEE()":"6f6cb6bc","BASE_REVEAL_FEE()":"431744c3","FACTION_DISCOUNT()":"3f706d91","MINT_PRICE()":"c002d23d","REFERRAL_REWARD()":"84a3a0f3","STAKING_REWARD_RATE()":"0f1a2905","activateEvent(uint256)":"ebf03feb","activeEventId()":"d4d9a7fb","addExperience(uint256,uint256,string)":"d9320985","advanceDay()":"c13d4ec4","approve(address,uint256)":"095ea7b3","balanceOf(address)":"70a08231","blockReveal(uint256)":"8f4d9964","buyNFT(uint256)":"51ed8288","calculateBlockFee(uint256,address)":"f7316de7","calculateFee(uint256,uint256,address)":"4f84d9fd","cancelListing(uint256)":"305a67a8","claimEventReward(uint256)":"7a2bf277","claimReferralReward()":"9b4b2c9c","clues(uint256)":"30f37c7f","createDailyChallenge(string,bytes32,uint256)":"b3cbc19e","createSeasonalEvent(string,string,uint256,uint256,uint256,uint256,uint256,uint256)":"268da74d","createTournament(string,uint256,uint256)":"46be4cb5","currentDay()":"5c9302c9","dailyChallenges(uint256)":"f31229cc","endTournament(uint256)":"aa3b47c0","eventParticipations(uint256,address)":"b06ae5b0","evolutionStates(uint256)":"5223ab2d","factionScores(uint8)":"c8b1f25c","generateSVG(uint256)":"6dcee4ca","getActiveEvent()":"01352be7","getActiveListings()":"87c35bc0","getApproved(uint256)":"081812fc","getEventParticipation(uint256,address)":"dbd486a6","getEvolutionState(uint256)":"d2a3d240","getFactionScore(uint256)":"0d796cb8","getPlayerClues(address)":"a69d25ab","getTournamentParticipants(uint256)":"c2a8b11b","getUserStakes(address)":"842e2981","getUserTournaments(address)":"81872b5e","isApprovedForAll(address,address)":"e985e9c5","joinTournament(uint256)":"d115cac6","lastChallengeCompletion(address)":"81a96af5","listNFT(uint256,uint256)":"94383f14","listings(uint256)":"de74e57b","mintClue(address,uint256,uint256,bytes32)":"394c779a","mintSpecialEventNFT(address,uint256)":"c50a57f3","name()":"06fdde03","nextEventId()":"9f9d903a","nextTournamentId()":"852efc3d","owner()":"8da5cb5b","ownerOf(uint256)":"6352211e","playerClues(address,uint256)":"84147b61","playerFactions(address)":"33ae955e","playerPoints(address)":"9b211fc4","playerToken(address)":"685ad315","randomReveal(uint256,uint256)":"d981cab4","rawFulfillRandomWords(uint256,uint256[])":"1fe543e3","referralRewards(address)":"53aaa63b","referrers(address)":"4a3b68cc","renounceOwnership()":"715018a6","s_requests(uint256)":"a168fa89","safeTransferFrom(address,address,uint256)":"42842e0e","safeTransferFrom(address,address,uint256,bytes)":"b88d4fde","seasonalEvents(uint256)":"65a372e0","setApprovalForAll(address,bool)":"a22cb465","setReferrer(address,address)":"bbddaca3","solveDailyChallenge(string)":"8a78ec4d","stakeNFT(uint256,uint256)":"51cecc80","stakes(uint256)":"d5a44f86","supportsInterface(bytes4)":"01ffc9a7","symbol()":"95d89b41","tokenURI(uint256)":"c87b56dd","tournaments(uint256)":"7503e1b7","transferFrom(address,address,uint256)":"23b872dd","transferOwnership(address)":"f2fde38b","unstakeNFT(uint256)":"c1dfa0bb","userStakes(address,uint256)":"b5d5b5fa","userTournaments(address,uint256)":"eed5e8d6","vrfRequests(uint256)":"1a1d9252"}}}}}