{"contracts/DynamicClueNFT.sol":{"DynamicClueNFT":{"abi":[{"inputs":[{"internalType":"uint64","name":"subscriptionId","type":"uint64"}],"stateMutability":"nonpayable","type":"constructor"},{"inputs":[{"internalType":"address","name":"have","type":"address"},{"internalType":"address","name":"want","type":"address"}],"name":"OnlyCoordinatorCanFulfill","type":"error"},{"anonymous":false,"inputs":[{"indexed":true,"internalType":"address","name":"owner","type":"address"},{"indexed":true,"internalType":"address","name":"approved","type":"address"},{"indexed":true,"internalType":"uint256","name":"tokenId","type":"uint256"}],"name":"Approval","type":"event"},{"anonymous":false,"inputs":[{"indexed":true,"internalType":"address","name":"owner","type":"address"},{"indexed":true,"internalType":"address","name":"operator","type":"address"},{"indexed":false,"internalType":"bool","name":"approved","type":"bool"}],"name":"ApprovalForAll","type":"event"},{"anonymous":false,"inputs":[{"indexed":false,"internalType":"uint256","name":"_fromTokenId","type":"uint256"},{"indexed":false,"internalType":"uint256","name":"_toTokenId","type":"uint256"}],"name":"BatchMetadataUpdate","type":"event"},{"anonymous":false,"inputs":[{"indexed":true,"internalType":"address","name":"requester","type":"address"},{"indexed":false,"internalType":"uint256","name":"durationSeconds","type":"uint256"}],"name":"BlockRevealRequested","type":"event"},{"anonymous":false,"inputs":[{"indexed":true,"internalType":"uint256","name":"tokenId","type":"uint256"},{"indexed":true,"internalType":"address","name":"creator","type":"address"},{"indexed":false,"internalType":"enum DynamicClueNFT.Faction","name":"faction","type":"uint8"},{"indexed":false,"internalType":"enum DynamicClueNFT.Tier","name":"tier","type":"uint8"},{"indexed":false,"internalType":"uint256","name":"difficulty","type":"uint256"}],"name":"ClueMinted","type":"event"},{"anonymous":false,"inputs":[{"indexed":true,"internalType":"uint256","name":"tokenId","type":"uint256"},{"indexed":true,"internalType":"address","name":"solver","type":"address"},{"indexed":false,"internalType":"uint256","name":"points","type":"uint256"}],"name":"ClueSolved","type":"event"},{"anonymous":false,"inputs":[{"indexed":true,"internalType":"uint256","name":"tokenId","type":"uint256"},{"indexed":true,"internalType":"address","name":"stealer","type":"address"},{"indexed":true,"internalType":"address","name":"victim","type":"address"},{"indexed":false,"internalType":"uint256","name":"stolenMultiplier","type":"uint256"}],"name":"ClueStolen","type":"event"},{"anonymous":false,"inputs":[{"indexed":true,"internalType":"address","name":"solver","type":"address"},{"indexed":false,"internalType":"uint256","name":"day","type":"uint256"},{"indexed":false,"internalType":"uint256","name":"reward","type":"uint256"}],"name":"DailyChallengeSolved","type":"event"},{"anonymous":false,"inputs":[{"indexed":false,"internalType":"uint256","name":"newDifficulty","type":"uint256"}],"name":"DifficultyScaled","type":"event"},{"anonymous":false,"inputs":[{"indexed":false,"internalType":"uint256","name":"_tokenId","type":"uint256"}],"name":"MetadataUpdate","type":"event"},{"anonymous":false,"inputs":[{"indexed":true,"internalType":"uint256","name":"tokenId","type":"uint256"},{"indexed":true,"internalType":"address","name":"seller","type":"address"},{"indexed":false,"internalType":"uint256","name":"price","type":"uint256"}],"name":"NFTListed","type":"event"},{"anonymous":false,"inputs":[{"indexed":true,"internalType":"uint256","name":"tokenId","type":"uint256"},{"indexed":true,"internalType":"address","name":"buyer","type":"address"},{"indexed":true,"internalType":"address","name":"seller","type":"address"},{"indexed":false,"internalType":"uint256","name":"price","type":"uint256"}],"name":"NFTSold","type":"event"},{"anonymous":false,"inputs":[{"indexed":true,"internalType":"uint256","name":"tokenId","type":"uint256"},{"indexed":true,"internalType":"address","name":"staker","type":"address"},{"indexed":false,"internalType":"uint256","name":"duration","type":"uint256"}],"name":"NFTStaked","type":"event"},{"anonymous":false,"inputs":[{"indexed":true,"internalType":"uint256","name":"tokenId","type":"uint256"},{"indexed":true,"internalType":"address","name":"staker","type":"address"},{"indexed":false,"internalType":"uint256","name":"reward","type":"uint256"}],"name":"NFTUnstaked","type":"event"},{"anonymous":false,"inputs":[{"indexed":true,"internalType":"address","name":"previousOwner","type":"address"},{"indexed":true,"internalType":"address","name":"newOwner","type":"address"}],"name":"OwnershipTransferred","type":"event"},{"anonymous":false,"inputs":[{"indexed":true,"internalType":"address","name":"requester","type":"address"},{"indexed":false,"internalType":"uint256","name":"numReveals","type":"uint256"},{"indexed":false,"internalType":"uint256","name":"durationSeconds","type":"uint256"}],"name":"RandomRevealRequested","type":"event"},{"anonymous":false,"inputs":[{"indexed":true,"internalType":"address","name":"referrer","type":"address"},{"indexed":true,"internalType":"address","name":"referee","type":"address"},{"indexed":false,"internalType":"uint256","name":"reward","type":"uint256"}],"name":"ReferralReward","type":"event"},{"anonymous":false,"inputs":[{"indexed":true,"internalType":"uint256","name":"tournamentId","type":"uint256"},{"indexed":false,"internalType":"string","name":"name","type":"string"},{"indexed":false,"internalType":"uint256","name":"entryFee","type":"uint256"},{"indexed":false,"internalType":"uint256","name":"endTime","type":"uint256"}],"name":"TournamentCreated","type":"event"},{"anonymous":false,"inputs":[{"indexed":true,"internalType":"uint256","name":"tournamentId","type":"uint256"},{"indexed":true,"internalType":"address","name":"winner","type":"address"},{"indexed":false,"internalType":"uint256","name":"prize","type":"uint256"}],"name":"TournamentEnded","type":"event"},{"anonymous":false,"inputs":[{"indexed":true,"internalType":"uint256","name":"tournamentId","type":"uint256"},{"indexed":true,"internalType":"address","name":"participant","type":"address"}],"name":"TournamentJoined","type":"event"},{"anonymous":false,"inputs":[{"indexed":true,"internalType":"address","name":"from","type":"address"},{"indexed":true,"internalType":"address","name":"to","type":"address"},{"indexed":true,"internalType":"uint256","name":"tokenId","type":"uint256"}],"name":"Transfer","type":"event"},{"inputs":[],"name":"BASE_BLOCK_FEE","outputs":[{"internalType":"uint256","name":"","type":"uint256"}],"stateMutability":"view","type":"function"},{"inputs":[],"name":"BASE_REVEAL_FEE","outputs":[{"internalType":"uint256","name":"","type":"uint256"}],"stateMutability":"view","type":"function"},{"inputs":[],"name":"FACTION_DISCOUNT","outputs":[{"internalType":"uint256","name":"","type":"uint256"}],"stateMutability":"view","type":"function"},{"inputs":[],"name":"MINT_PRICE_BASIC","outputs":[{"internalType":"uint256","name":"","type":"uint256"}],"stateMutability":"view","type":"function"},{"inputs":[],"name":"MINT_PRICE_EPIC","outputs":[{"internalType":"uint256","name":"","type":"uint256"}],"stateMutability":"view","type":"function"},{"inputs":[],"name":"MINT_PRICE_RARE","outputs":[{"internalType":"uint256","name":"","type":"uint256"}],"stateMutability":"view","type":"function"},{"inputs":[],"name":"REFERRAL_REWARD","outputs":[{"internalType":"uint256","name":"","type":"uint256"}],"stateMutability":"view","type":"function"},{"inputs":[],"name":"STAKING_REWARD_RATE","outputs":[{"internalType":"uint256","name":"","type":"uint256"}],"stateMutability":"view","type":"function"},{"inputs":[{"internalType":"uint256","name":"eventId","type":"uint256"}],"name":"activateEvent","outputs":[],"stateMutability":"nonpayable","type":"function"},{"inputs":[],"name":"activeEventId","outputs":[{"internalType":"uint256","name":"","type":"uint256"}],"stateMutability":"view","type":"function"},{"inputs":[{"internalType":"uint256","name":"tokenId","type":"uint256"},{"internalType":"uint256","name":"amount","type":"uint256"},{"internalType":"string","name":"reason","type":"string"}],"name":"addExperience","outputs":[],"stateMutability":"nonpayable","type":"function"},{"inputs":[],"name":"advanceDay","outputs":[],"stateMutability":"nonpayable","type":"function"},{"inputs":[{"internalType":"address","name":"to","type":"address"},{"internalType":"uint256","name":"tokenId","type":"uint256"}],"name":"approve","outputs":[],"stateMutability":"nonpayable","type":"function"},{"inputs":[{"internalType":"address","name":"owner","type":"address"}],"name":"balanceOf","outputs":[{"internalType":"uint256","name":"","type":"uint256"}],"stateMutability":"view","type":"function"},{"inputs":[{"internalType":"uint256","name":"durationSeconds","type":"uint256"}],"name":"blockReveal","outputs":[],"stateMutability":"payable","type":"function"},{"inputs":[{"internalType":"uint256","name":"tokenId","type":"uint256"}],"name":"buyNFT","outputs":[],"stateMutability":"payable","type":"function"},{"inputs":[{"internalType":"uint256","name":"durationHours","type":"uint256"},{"internalType":"address","name":"user","type":"address"}],"name":"calculateBlockFee","outputs":[{"internalType":"uint256","name":"","type":"uint256"}],"stateMutability":"view","type":"function"},{"inputs":[{"internalType":"uint256","name":"numReveals","type":"uint256"},{"internalType":"uint256","name":"durationHours","type":"uint256"},{"internalType":"address","name":"user","type":"address"}],"name":"calculateFee","outputs":[{"internalType":"uint256","name":"","type":"uint256"}],"stateMutability":"view","type":"function"},{"inputs":[{"internalType":"uint256","name":"tokenId","type":"uint256"}],"name":"cancelListing","outputs":[],"stateMutability":"nonpayable","type":"function"},{"inputs":[{"internalType":"uint256","name":"eventId","type":"uint256"}],"name":"claimEventReward","outputs":[],"stateMutability":"nonpayable","type":"function"},{"inputs":[],"name":"claimReferralReward","outputs":[],"stateMutability":"nonpayable","type":"function"},{"inputs":[{"internalType":"uint256","name":"","type":"uint256"}],"name":"clues","outputs":[{"internalType":"uint256","name":"tokenId","type":"uint256"},{"internalType":"enum DynamicClueNFT.Faction","name":"faction","type":"uint8"},{"internalType":"enum DynamicClueNFT.Tier","name":"tier","type":"uint8"},{"internalType":"uint256","name":"difficulty","type":"uint256"},{"internalType":"bytes32","name":"clueHash","type":"bytes32"},{"internalType":"address","name":"creator","type":"address"},{"internalType":"uint256","name":"createdAt","type":"uint256"},{"internalType":"bool","name":"solved","type":"bool"},{"internalType":"address","name":"solver","type":"address"},{"internalType":"uint256","name":"solvedAt","type":"uint256"},{"internalType":"uint256","name":"points","type":"uint256"}],"stateMutability":"view","type":"function"},{"inputs":[{"internalType":"string","name":"description","type":"string"},{"internalType":"bytes32","name":"solutionHash","type":"bytes32"},{"internalType":"uint256","name":"reward","type":"uint256"}],"name":"createDailyChallenge","outputs":[],"stateMutability":"nonpayable","type":"function"},{"inputs":[{"internalType":"string","name":"name","type":"string"},{"internalType":"string","name":"theme","type":"string"},{"internalType":"uint256","name":"startTime","type":"uint256"},{"internalType":"uint256","name":"endTime","type":"uint256"},{"internalType":"uint256","name":"tournamentMultiplier","type":"uint256"},{"internalType":"uint256","name":"challengeMultiplier","type":"uint256"},{"internalType":"uint256","name":"stakingMultiplier","type":"uint256"},{"internalType":"uint256","name":"maxSpecialNFTs","type":"uint256"}],"name":"createSeasonalEvent","outputs":[],"stateMutability":"nonpayable","type":"function"},{"inputs":[{"internalType":"string","name":"name","type":"string"},{"internalType":"uint256","name":"entryFee","type":"uint256"},{"internalType":"uint256","name":"durationHours","type":"uint256"}],"name":"createTournament","outputs":[],"stateMutability":"nonpayable","type":"function"},{"inputs":[],"name":"currentDay","outputs":[{"internalType":"uint256","name":"","type":"uint256"}],"stateMutability":"view","type":"function"},{"inputs":[{"internalType":"uint256","name":"","type":"uint256"}],"name":"dailyChallenges","outputs":[{"internalType":"uint256","name":"day","type":"uint256"},{"internalType":"string","name":"description","type":"string"},{"internalType":"bytes32","name":"solutionHash","type":"bytes32"},{"internalType":"uint256","name":"reward","type":"uint256"},{"internalType":"bool","name":"active","type":"bool"},{"internalType":"address","name":"winner","type":"address"},{"internalType":"uint256","name":"solvedAt","type":"uint256"}],"stateMutability":"view","type":"function"},{"inputs":[{"internalType":"uint256","name":"tournamentId","type":"uint256"}],"name":"endTournament","outputs":[],"stateMutability":"nonpayable","type":"function"},{"inputs":[{"internalType":"uint256","name":"","type":"uint256"},{"internalType":"address","name":"","type":"address"}],"name":"eventParticipations","outputs":[{"internalType":"uint256","name":"eventId","type":"uint256"},{"internalType":"address","name":"participant","type":"address"},{"internalType":"uint256","name":"tournamentsJoined","type":"uint256"},{"internalType":"uint256","name":"challengesCompleted","type":"uint256"},{"internalType":"uint256","name":"nftsStaked","type":"uint256"},{"internalType":"uint256","name":"totalBonusEarned","type":"uint256"},{"internalType":"bool","name":"claimedReward","type":"bool"}],"stateMutability":"view","type":"function"},{"inputs":[{"internalType":"uint256","name":"","type":"uint256"}],"name":"evolutionStates","outputs":[{"internalType":"uint256","name":"level","type":"uint256"},{"internalType":"uint256","name":"experience","type":"uint256"},{"internalType":"uint256","name":"cluesCollected","type":"uint256"},{"internalType":"uint256","name":"lastEvolution","type":"uint256"}],"stateMutability":"view","type":"function"},{"inputs":[{"internalType":"enum DynamicClueNFT.Faction","name":"","type":"uint8"}],"name":"factionScores","outputs":[{"internalType":"uint256","name":"","type":"uint256"}],"stateMutability":"view","type":"function"},{"inputs":[{"internalType":"uint256","name":"tokenId","type":"uint256"}],"name":"generateSVG","outputs":[{"internalType":"string","name":"","type":"string"}],"stateMutability":"view","type":"function"},{"inputs":[],"name":"getActiveEvent","outputs":[{"components":[{"internalType":"uint256","name":"id","type":"uint256"},{"internalType":"string","name":"name","type":"string"},{"internalType":"string","name":"theme","type":"string"},{"internalType":"uint256","name":"startTime","type":"uint256"},{"internalType":"uint256","name":"endTime","type":"uint256"},{"internalType":"uint256","name":"tournamentMultiplier","type":"uint256"},{"internalType":"uint256","name":"challengeMultiplier","type":"uint256"},{"internalType":"uint256","name":"stakingMultiplier","type":"uint256"},{"internalType":"bool","name":"active","type":"bool"},{"internalType":"uint256","name":"specialNFTsMinted","type":"uint256"},{"internalType":"uint256","name":"maxSpecialNFTs","type":"uint256"}],"internalType":"struct DynamicClueNFT.SeasonalEvent","name":"","type":"tuple"}],"stateMutability":"view","type":"function"},{"inputs":[],"name":"getActiveListings","outputs":[{"internalType":"uint256[]","name":"","type":"uint256[]"}],"stateMutability":"view","type":"function"},{"inputs":[{"internalType":"uint256","name":"tokenId","type":"uint256"}],"name":"getApproved","outputs":[{"internalType":"address","name":"","type":"address"}],"stateMutability":"view","type":"function"},{"inputs":[{"internalType":"uint256","name":"eventId","type":"uint256"},{"internalType":"address","name":"participant","type":"address"}],"name":"getEventParticipation","outputs":[{"components":[{"internalType":"uint256","name":"eventId","type":"uint256"},{"internalType":"address","name":"participant","type":"address"},{"internalType":"uint256","name":"tournamentsJoined","type":"uint256"},{"internalType":"uint256","name":"challengesCompleted","type":"uint256"},{"internalType":"uint256","name":"nftsStaked","type":"uint256"},{"internalType":"uint256","name":"totalBonusEarned","type":"uint256"},{"internalType":"bool","name":"claimedReward","type":"bool"}],"internalType":"struct DynamicClueNFT.EventParticipation","name":"","type":"tuple"}],"stateMutability":"view","type":"function"},{"inputs":[{"internalType":"uint256","name":"tokenId","type":"uint256"}],"name":"getEvolutionState","outputs":[{"components":[{"internalType":"uint256","name":"level","type":"uint256"},{"internalType":"uint256","name":"experience","type":"uint256"},{"internalType":"uint256","name":"cluesCollected","type":"uint256"},{"internalType":"uint256","name":"lastEvolution","type":"uint256"}],"internalType":"struct DynamicClueNFT.EvolutionState","name":"","type":"tuple"}],"stateMutability":"view","type":"function"},{"inputs":[{"internalType":"uint256","name":"faction","type":"uint256"}],"name":"getFactionScore","outputs":[{"internalType":"uint256","name":"","type":"uint256"}],"stateMutability":"view","type":"function"},{"inputs":[{"internalType":"enum DynamicClueNFT.Tier","name":"tier","type":"uint8"}],"name":"getMintPrice","outputs":[{"internalType":"uint256","name":"","type":"uint256"}],"stateMutability":"pure","type":"function"},{"inputs":[{"internalType":"address","name":"player","type":"address"}],"name":"getPlayerClues","outputs":[{"internalType":"uint256[]","name":"","type":"uint256[]"}],"stateMutability":"view","type":"function"},{"inputs":[{"internalType":"uint256","name":"tournamentId","type":"uint256"}],"name":"getTournamentParticipants","outputs":[{"internalType":"address[]","name":"","type":"address[]"}],"stateMutability":"view","type":"function"},{"inputs":[{"internalType":"address","name":"user","type":"address"}],"name":"getUserStakes","outputs":[{"internalType":"uint256[]","name":"","type":"uint256[]"}],"stateMutability":"view","type":"function"},{"inputs":[{"internalType":"address","name":"user","type":"address"}],"name":"getUserTournaments","outputs":[{"internalType":"uint256[]","name":"","type":"uint256[]"}],"stateMutability":"view","type":"function"},{"inputs":[{"internalType":"address","name":"owner","type":"address"},{"internalType":"address","name":"operator","type":"address"}],"name":"isApprovedForAll","outputs":[{"internalType":"bool","name":"","type":"bool"}],"stateMutability":"view","type":"function"},{"inputs":[{"internalType":"uint256","name":"tournamentId","type":"uint256"}],"name":"joinTournament","outputs":[],"stateMutability":"payable","type":"function"},{"inputs":[{"internalType":"address","name":"","type":"address"}],"name":"lastChallengeCompletion","outputs":[{"internalType":"uint256","name":"","type":"uint256"}],"stateMutability":"view","type":"function"},{"inputs":[{"internalType":"uint256","name":"tokenId","type":"uint256"},{"internalType":"uint256","name":"price","type":"uint256"}],"name":"listNFT","outputs":[],"stateMutability":"nonpayable","type":"function"},{"inputs":[{"internalType":"uint256","name":"","type":"uint256"}],"name":"listings","outputs":[{"internalType":"uint256","name":"tokenId","type":"uint256"},{"internalType":"address","name":"seller","type":"address"},{"internalType":"uint256","name":"price","type":"uint256"},{"internalType":"bool","name":"active","type":"bool"}],"stateMutability":"view","type":"function"},{"inputs":[{"internalType":"address","name":"to","type":"address"},{"internalType":"uint256","name":"faction","type":"uint256"},{"internalType":"uint256","name":"difficulty","type":"uint256"},{"internalType":"bytes32","name":"clueHash","type":"bytes32"}],"name":"mintClue","outputs":[],"stateMutability":"payable","type":"function"},{"inputs":[{"internalType":"address","name":"to","type":"address"},{"internalType":"uint256","name":"faction","type":"uint256"},{"internalType":"uint256","name":"tier","type":"uint256"},{"internalType":"uint256","name":"difficulty","type":"uint256"},{"internalType":"bytes32","name":"clueHash","type":"bytes32"}],"name":"mintClue","outputs":[],"stateMutability":"payable","type":"function"},{"inputs":[{"internalType":"address","name":"to","type":"address"},{"internalType":"uint256","name":"eventId","type":"uint256"}],"name":"mintSpecialEventNFT","outputs":[],"stateMutability":"nonpayable","type":"function"},{"inputs":[],"name":"name","outputs":[{"internalType":"string","name":"","type":"string"}],"stateMutability":"view","type":"function"},{"inputs":[],"name":"nextEventId","outputs":[{"internalType":"uint256","name":"","type":"uint256"}],"stateMutability":"view","type":"function"},{"inputs":[],"name":"nextTournamentId","outputs":[{"internalType":"uint256","name":"","type":"uint256"}],"stateMutability":"view","type":"function"},{"inputs":[],"name":"owner","outputs":[{"internalType":"address","name":"","type":"address"}],"stateMutability":"view","type":"function"},{"inputs":[{"internalType":"uint256","name":"tokenId","type":"uint256"}],"name":"ownerOf","outputs":[{"internalType":"address","name":"","type":"address"}],"stateMutability":"view","type":"function"},{"inputs":[{"internalType":"address","name":"","type":"address"},{"internalType":"uint256","name":"","type":"uint256"}],"name":"playerClues","outputs":[{"internalType":"uint256","name":"","type":"uint256"}],"stateMutability":"view","type":"function"},{"inputs":[{"internalType":"address","name":"","type":"address"}],"name":"playerFactions","outputs":[{"internalType":"enum DynamicClueNFT.Faction","name":"","type":"uint8"}],"stateMutability":"view","type":"function"},{"inputs":[{"internalType":"address","name":"","type":"address"}],"name":"playerPoints","outputs":[{"internalType":"uint256","name":"","type":"uint256"}],"stateMutability":"view","type":"function"},{"inputs":[{"internalType":"address","name":"player","type":"address"}],"name":"playerToken","outputs":[{"internalType":"uint256","name":"","type":"uint256"}],"stateMutability":"view","type":"function"},{"inputs":[{"internalType":"uint256","name":"numReveals","type":"uint256"},{"internalType":"uint256","name":"durationSeconds","type":"uint256"}],"name":"randomReveal","outputs":[],"stateMutability":"payable","type":"function"},{"inputs":[{"internalType":"uint256","name":"requestId","type":"uint256"},{"internalType":"uint256[]","name":"randomWords","type":"uint256[]"}],"name":"rawFulfillRandomWords","outputs":[],"stateMutability":"nonpayable","type":"function"},{"inputs":[{"internalType":"address","name":"","type":"address"}],"name":"referralRewards","outputs":[{"internalType":"uint256","name":"","type":"uint256"}],"stateMutability":"view","type":"function"},{"inputs":[{"internalType":"address","name":"","type":"address"}],"name":"referrers","outputs":[{"internalType":"address","name":"","type":"address"}],"stateMutability":"view","type":"function"},{"inputs":[],"name":"renounceOwnership","outputs":[],"stateMutability":"nonpayable","type":"function"},{"inputs":[{"internalType":"uint256","name":"","type":"uint256"}],"name":"s_requests","outputs":[{"internalType":"uint256","name":"","type":"uint256"}],"stateMutability":"view","type":"function"},{"inputs":[{"internalType":"address","name":"from","type":"address"},{"internalType":"address","name":"to","type":"address"},{"internalType":"uint256","name":"tokenId","type":"uint256"}],"name":"safeTransferFrom","outputs":[],"stateMutability":"nonpayable","type":"function"},{"inputs":[{"internalType":"address","name":"from","type":"address"},{"internalType":"address","name":"to","type":"address"},{"internalType":"uint256","name":"tokenId","type":"uint256"},{"internalType":"bytes","name":"data","type":"bytes"}],"name":"safeTransferFrom","outputs":[],"stateMutability":"nonpayable","type":"function"},{"inputs":[{"internalType":"uint256","name":"","type":"uint256"}],"name":"seasonalEvents","outputs":[{"internalType":"uint256","name":"id","type":"uint256"},{"internalType":"string","name":"name","type":"string"},{"internalType":"string","name":"theme","type":"string"},{"internalType":"uint256","name":"startTime","type":"uint256"},{"internalType":"uint256","name":"endTime","type":"uint256"},{"internalType":"uint256","name":"tournamentMultiplier","type":"uint256"},{"internalType":"uint256","name":"challengeMultiplier","type":"uint256"},{"internalType":"uint256","name":"stakingMultiplier","type":"uint256"},{"internalType":"bool","name":"active","type":"bool"},{"internalType":"uint256","name":"specialNFTsMinted","type":"uint256"},{"internalType":"uint256","name":"maxSpecialNFTs","type":"uint256"}],"stateMutability":"view","type":"function"},{"inputs":[{"internalType":"address","name":"operator","type":"address"},{"internalType":"bool","name":"approved","type":"bool"}],"name":"setApprovalForAll","outputs":[],"stateMutability":"nonpayable","type":"function"},{"inputs":[{"internalType":"address","name":"referee","type":"address"},{"internalType":"address","name":"referrer","type":"address"}],"name":"setReferrer","outputs":[],"stateMutability":"nonpayable","type":"function"},{"inputs":[{"internalType":"string","name":"solution","type":"string"}],"name":"solveDailyChallenge","outputs":[],"stateMutability":"nonpayable","type":"function"},{"inputs":[{"internalType":"uint256","name":"tokenId","type":"uint256"},{"internalType":"uint256","name":"durationDays","type":"uint256"}],"name":"stakeNFT","outputs":[],"stateMutability":"nonpayable","type":"function"},{"inputs":[{"internalType":"uint256","name":"","type":"uint256"}],"name":"stakes","outputs":[{"internalType":"uint256","name":"tokenId","type":"uint256"},{"internalType":"address","name":"staker","type":"address"},{"internalType":"uint256","name":"stakedAt","type":"uint256"},{"internalType":"uint256","name":"duration","type":"uint256"},{"internalType":"uint256","name":"rewardMultiplier","type":"uint256"}],"stateMutability":"view","type":"function"},{"inputs":[{"internalType":"bytes4","name":"interfaceId","type":"bytes4"}],"name":"supportsInterface","outputs":[{"internalType":"bool","name":"","type":"bool"}],"stateMutability":"view","type":"function"},{"inputs":[],"name":"symbol","outputs":[{"internalType":"string","name":"","type":"string"}],"stateMutability":"view","type":"function"},{"inputs":[{"internalType":"uint256","name":"tokenId","type":"uint256"}],"name":"tokenURI","outputs":[{"internalType":"string","name":"","type":"string"}],"stateMutability":"view","type":"function"},{"inputs":[{"internalType":"uint256","name":"","type":"uint256"}],"name":"tournaments","outputs":[{"internalType":"uint256","name":"id","type":"uint256"},{"internalType":"string","name":"name","type":"string"},{"internalType":"uint256","name":"entryFee","type":"uint256"},{"internalType":"uint256","name":"startTime","type":"uint256"},{"internalType":"uint256","name":"endTime","type":"uint256"},{"internalType":"uint256","name":"prizePool","type":"uint256"},{"internalType":"bool","name":"active","type":"bool"},{"internalType":"address","name":"winner","type":"address"}],"stateMutability":"view","type":"function"},{"inputs":[{"internalType":"address","name":"from","type":"address"},{"internalType":"address","name":"to","type":"address"},{"internalType":"uint256","name":"tokenId","type":"uint256"}],"name":"transferFrom","outputs":[],"stateMutability":"nonpayable","type":"function"},{"inputs":[{"internalType":"address","name":"newOwner","type":"address"}],"name":"transferOwnership","outputs":[],"stateMutability":"nonpayable","type":"function"},{"inputs":[{"internalType":"uint256","name":"tokenId","type":"uint256"}],"name":"unstakeNFT","outputs":[],"stateMutability":"nonpayable","type":"function"},{"inputs":[{"internalType":"address","name":"","type":"address"},{"internalType":"uint256","name":"","type":"uint256"}],"name":"userStakes","outputs":[{"internalType":"uint256","name":"","type":"uint256"}],"stateMutability":"view","type":"function"},{"inputs":[{"internalType":"address","name":"","type":"address"},{"internalType":"uint256","name":"","type":"uint256"}],"name":"userTournaments","outputs":[{"internalType":"uint256","name":"","type":"uint256"}],"stateMutability":"view","type":"function"},{"inputs":[{"internalType":"uint256","name":"","type":"uint256"}],"name":"vrfRequests","outputs":[{"internalType":"enum DynamicClueNFT.RequestType","name":"requestType","type":"uint8"},{"internalType":"address","name":"requester","type":"address"},{"internalType":"uint256","name":"targetTokenId","type":"uint256"},{"internalType":"enum DynamicClueNFT.Faction","name":"targetFaction","type":"uint8"},{"internalType":"enum DynamicClueNFT.Faction","name":"thiefFaction","type":"uint8"}],"stateMutability":"view","type":"function"}],"evm":{"bytecode":{"linkReferences":{},"object":"60a03462000443576001600160401b0390601f1990601f9062005bb13881900383810185168301868111848210176200042d578392829160405283396020928391810103126200044357519184831683036200044357600b546001600160a01b0395908616916200006f62000448565b93600e85526d111e5b985b5a58d0db1d5953919560921b818601526200009462000448565b9060058252641110d3919560da1b818301528551978489116200042d576000988954976001988981811c9116801562000422575b858210146200040e57908187849311620003bb575b5084908783116001146200035a578c926200034e575b5050600019600383901b1c191690881b1789555b82519485116200033a5786548781811c911680156200032f575b838210146200031b57908185879695949311620002c2575b50819385116001146200025d575050879262000251575b5050600019600383901b1c191690831b1782555b608052600780546001600160a01b0319808216339081179093556040519690959291167f8be0079c531659141344cd1fd0a4f28419497f9722a3daafe3b4186f6b6457e08380a381600855735c210ef41cd1a72de73bf76ec39637bb0d3d7bee8094600b541617600b5566010003000186a060018060501b0319600d541617600d558160215560225580602355602455600a5490600160a01b600160e01b039060a01b169063ffffffff60e01b161717600a557f9e1344a1247c8a1785d0a6751e63be47de3e7b5c7fd7e0f24df0e0e1e3f0e8f8600c556157489081620004698239608051816141e30152f35b01519050388062000150565b87959392919316858a52838a20938a905b828210620002a857505084116200028e575b505050811b01825562000164565b015160001960f88460031b161c1916905538808062000280565b84840151865589979095019493840193908101906200026e565b909192939450878a52828a208580880160051c82019285891062000311575b9188978b9297969594930160051c01915b8281106200030257505062000139565b8c81558897508a9101620002f2565b92508192620002e1565b634e487b7160e01b8a52602260045260248afd5b90607f169062000121565b634e487b7160e01b89526041600452602489fd5b015190503880620000f3565b908c91858c9516838052878420935b88828210620003a457505084116200038a575b505050811b01895562000107565b015160001960f88460031b161c191690553880806200037c565b8385015186558e9790950194938401930162000369565b9091508b8052848c208780850160051c82019287861062000404575b918c91869594930160051c01915b828110620003f5575050620000dd565b8e81558594508c9101620003e5565b92508192620003d7565b634e487b7160e01b8c52602260045260248cfd5b90607f1690620000c8565b634e487b7160e01b600052604160045260246000fd5b600080fd5b60408051919082016001600160401b038111838210176200042d5760405256fe608080604052600436101561001357600080fd5b60003560e01c90816301352be7146146465750806301ffc9a7146145be57806306fdde031461451b578063081812fc146144fd578063095ea7b3146143835780630d796cb81461435b5780630f1a29051461433f5780631a1d9252146142bb5780631fe543e31461416857806323b872dd14614144578063268da74d14613d795780632ca021d514613d57578063305a67a814613cd557806330f37c7f14613c1357806333ae955e14613bcf578063394c779a146139695780633f706d911461394d57806342842e0e1461391a578063431744c314611dd457806346be4cb51461360357806348d85ec4146132b85780634a3b68cc1461327d5780634f84d9fd1461324857806351cecc801461307757806351ed828814612ed65780635223ab2d14612e8857806353aaa63b14612e4e5780635c9302c914612e305780636352211e14612e0057806365a372e014612d34578063685ad31514612c895780636dcee4ca146129955780636f6cb6bc1461297357806370a08231146128dc578063715018a6146128915780637503e1b7146127f25780637a2bf277146126a757806381872b5e1461262f57806381a96af5146125f557806384147b61146125ab578063842e29811461253357806384a3a0f314611dd4578063852efc3d1461251557806387c35bc0146123f95780638a78ec4d1461217a5780638da5cb5b146121515780638f4d99641461210357806394383f1414611ff857806395d89b4114611f3357806396d6133014611f115780639b211fc414611ed75780639b4b2c9c14611df75780639f9d903a14611dd9578063a07964e514611dd4578063a168fa8914611da8578063a22cb46514611cdd578063a69d25ab14611c59578063aa3b47c014611a91578063b06ae5b014611a02578063b0e36015146119da578063b3cbc19e146117fc578063b5d5b5fa146117b2578063b88d4fde1461172b578063bbddaca314611682578063c13d4ec414611659578063c1dfa0bb146113ce578063c2a8b11b14611313578063c50a57f314611069578063c87b56dd14610f50578063c8b1f25c14610f1f578063d115cac614610cb3578063d2a3d24014610c1f578063d4d9a7fb14610c01578063d5a44f8614610ba2578063d932098514610aec578063d981cab41461089b578063dbd486a614610795578063de74e57b1461073a578063e985e9c5146106e4578063ebf03feb1461058c578063eed5e8d614610534578063f2fde38b14610483578063f31229cc146103ee5763f7316de7146103bb57600080fd5b346103e95760403660031901126103e95760206103e16103d961483c565b600435615213565b604051908152f35b600080fd5b346103e95760203660031901126103e95760043560005260186020526040600020805461041d60018301614a7c565b916002810154906003810154906005600482015491015491610451604051968796875260e0602088015260e0870190614801565b6040860194909452606085015260ff81161515608085015260081c6001600160a01b031660a084015260c08301520390f35b346103e95760203660031901126103e95761049c614826565b6104a4614b8e565b6001600160a01b039081169081156104e057600780546001600160a01b03198116841790915516600080516020615693833981519152600080a3005b60405162461bcd60e51b815260206004820152602660248201527f4f776e61626c653a206e6577206f776e657220697320746865207a65726f206160448201526564647265737360d01b6064820152608490fd5b346103e95760403660031901126103e95761054d614826565b6001600160a01b03166000908152601760205260409020805460243591908210156103e95760209161057e91614b5d565b90546040519160031b1c8152f35b346103e9576020806003193601126103e957600435906105aa614b8e565b81600052601f8152600360406000200154156106a95781600052601f8152600360406000200154421061066d5781600052601f8152600460406000200154421161063757601f906022548061061b575b5082600052526008604060002001600160ff19825416179055602255600080f35b600052818152600860406000200160ff198154169055836105fa565b6064906040519062461bcd60e51b82526004820152600f60248201526e115d995b9d081a185cc8195b991959608a1b6044820152fd5b6064906040519062461bcd60e51b825260048201526015602482015274115d995b9d081b9bdd081cdd185c9d1959081e595d605a1b6044820152fd5b6064906040519062461bcd60e51b825260048201526014602482015273115d995b9d08191bd95cc81b9bdd08195e1a5cdd60621b6044820152fd5b346103e95760403660031901126103e9576106fd614826565b61070561483c565b9060018060a01b03809116600052600560205260406000209116600052602052602060ff604060002054166040519015158152f35b346103e95760203660031901126103e957600435600052601c6020526080604060002080549060018060a01b036001820154169060ff6003600283015492015416916040519384526020840152604083015215156060820152f35b346103e95760403660031901126103e95760e06107b061483c565b6040516107bc816148da565b60008152600060c060209282848201528260408201528260608201528260808201528260a08201520152600435600052808052604060002060018060a01b038093166000528152604060002060405191610815836148da565b815493848452806001840154169180850192835260028401549060408601918252600385015492606087019384526004860154946080880195865260c060ff600660058a01549960a08c019a8b52015416980197151588526040519889525116908701525160408601525160608501525160808401525160a083015251151560c0820152f35b6108a436614a2c565b6108be6108b633610e108404856151b8565b341015615427565b600a54600c5490600d5491604051906305d3b1d360e41b8252600482015260249160018060401b038160a01c168383015260209361ffff81861c16604484015263ffffffff90818116606485015260301c166084830152838260a481600060018060a01b038096165af1918215610ae057600092610ab1575b50604051610944816148a4565b60028152848101903382526040810160008152606082019360008552608083019360008552601554600160401b811015610a9c578060016109889201601555614852565b949094610a8757916109c0916002959493516109a381614871565b6109ac81614871565b60ff80198754169116178555511683615287565b5160018201550191516004811015610a72576109dc908361526f565b516004811015610a5d57815461ff00191660089190911b61ff0016179055601554600019810192908311610a495750600052601082526040600020556040519283528201527f236ea7d9908e78ae51aa5c8c4f7c86966899c44c432a0e0d009ebbbb8375540460403392a2005b634e487b7160e01b60009081526011600452fd5b83634e487b7160e01b60005260216004526000fd5b84634e487b7160e01b60005260216004526000fd5b88634e487b7160e01b60005260006004526000fd5b88634e487b7160e01b60005260416004526000fd5b9091508381813d8311610ad9575b610ac9818361492b565b810103126103e957519086610937565b503d610abf565b6040513d6000823e3d90fd5b346103e95760603660031901126103e9576004356044356001600160401b0381116103e957610b1f9036906004016149ec565b50610b28614b8e565b80600052600f6020526001604060002001610b466024358254615466565b905580600052600f6020526064600160406000200154049060018201809211610b8c57600052600f60205260406000209081548111610b8157005b815542600390910155005b634e487b7160e01b600052601160045260246000fd5b346103e95760203660031901126103e957600435600052601d60205260a06040600020805490600180841b0360018201541690600281015460046003830154920154926040519485526020850152604084015260608301526080820152f35b346103e95760003660031901126103e9576020602254604051908152f35b346103e95760203660031901126103e95760006060604051610c40816148bf565b8281528260208201528260408201520152600435600052600f60205260806040600020604051610c6f816148bf565b815491828252600181015460208301908152606060036002840154936040860194855201549301928352604051938452516020840152516040830152516060820152f35b6020806003193601126103e95760043590610ccc6152cf565b8160005260168152604060002060ff60078201541615610ee2576004810154421015610eaa5760028101543410610e6c57600090600681018054925b838110610e065750600160401b831015610df05782610d2e916001600595018155614b5d565b81549060031b9033821b9160018060a01b03901b191617905501610d53348254615466565b90553360005260178152610d6b8260406000206152ac565b60225480151580610dd6575b610daa575b33837f089ca95d0269f7f17639b228ef19cf566aac5ec3343bf708a77a0b924ab96ab8600080a36001600855005b60005280805260406000209033600052526002604060002001610dcd81546155d5565b90558180610d7c565b5080600052601f825260ff60086040600020015416610d77565b634e487b7160e01b600052604160045260246000fd5b610e108183614b5d565b905460039190911b1c6001600160a01b03163314610e3657610e31906155d5565b610d08565b60405162461bcd60e51b815260048101869052600e60248201526d105b1c9958591e481a9bda5b995960921b6044820152606490fd5b60405162461bcd60e51b8152600481018390526016602482015275496e73756666696369656e7420656e7472792066656560501b6044820152606490fd5b60405162461bcd60e51b815260048101839052601060248201526f151bdd5c9b985b595b9d08195b99195960821b6044820152606490fd5b60405162461bcd60e51b8152600481018390526015602482015274546f75726e616d656e74206e6f742061637469766560581b6044820152606490fd5b346103e95760203660031901126103e95760043560048110156103e957610f47602091614b75565b54604051908152f35b346103e9576020806003193601126103e95760043560008181526002835260409020546001600160a01b03161561102d57610f8a90615473565b906110156048610f9942615473565b936040519485917f68747470733a2f2f7661756c74776172732e76657263656c2e6170702f61706986840152642f6e66742f60d81b6040840152610fe681518092886045870191016147de565b8201623f763d60e81b6045820152611006825180938887850191016147de565b0103602881018552018361492b565b611029604051928284938452830190614801565b0390f35b60405162461bcd60e51b8152600481018390526014602482015273151bdad95b88191bd95cc81b9bdd08195e1a5cdd60621b6044820152606490fd5b346103e95760403660031901126103e957611082614826565b60243561108d614b8e565b80600052602091601f835260ff60086040600020015416156112db5781600052601f83526040600020600a6009820154910154111561129b57600954916001830160095580600052601f845260096040600020016110eb81546155d5565b90556110f78383615370565b604051848101917014dc1958da585b08115d995b9d08139195607a1b835260318201528360518201526051815261112d816148bf565b5190209060405161113d81614888565b8381528481016003815284866040840192600284526060850196600588526080860190815260a0860130815260c0870198428a5260e08801926000845261010089019160008352600e6101208b0197600089526101408c019960648b5260005252604060002099518a5560018a019551956004871015611285576008996111c761123b988361526f565b516111d181614871565b6111da81614871565b815461ff001916908b1b61ff00161790555160028a015551600389015590516004880180546001600160a01b0319166001600160a01b039283161790559851600588015590516006870191899161123390151584614f15565b511690615287565b51600784015551910155166000526013825261125b8160406000206152ac565b60026040519260038452830152600560408301526000805160206156b383398151915260603093a3005b634e487b7160e01b600052602160045260246000fd5b60405162461bcd60e51b815260048101849052601860248201527713585e081cdc1958da585b081391951cc81c995858da195960421b6044820152606490fd5b60405162461bcd60e51b815260048101849052601060248201526f4576656e74206e6f742061637469766560801b6044820152606490fd5b346103e9576020806003193601126103e95760043560005260168152600660406000200160405190818382549182815201908192600052846000209060005b868282106113b15786866113688288038361492b565b604051928392818401908285525180915260408401929160005b82811061139157505050500390f35b83516001600160a01b031685528695509381019392810192600101611382565b83546001600160a01b031685529093019260019283019201611352565b346103e9576020806003193601126103e9576004359081600052601d8152604060002091604051916113ff836148a4565b8354835260019260018060a01b038486015416948583830152600281015460408301908152600396608060048985015494606087019586520154940193845233036116275751905161145091615466565b42106115e4575166038d7ea4c6800090818102918183041490151715610b8c57606490049384600081156115db575b600080809381933390f115610ae05782600052601d82526000600460408220828155828782015582600282015582848201550155836000905b6114da575b85846000805160206156f3833981519152856040519384523393a3005b33600052601e808452604060002080548310156115d4576114fc838792614b5d565b905490851b1c146115175750611511906155d5565b846114b8565b9093945033600052808352604060002080549460001995868101908111610b8c576115486115609161157994614b5d565b905490861b1c91336000528487526040600020614b5d565b90919082549060031b91821b91600019901b1916179055565b336000528252604060002080549384156115be57806000805160206156f38339815191529501926115aa8484614b5d565b81939154921b1b19169055558291856114bd565b634e487b7160e01b600052603160045260246000fd5b50506114bd565b506108fc61147f565b60405162461bcd60e51b815260048101839052601b60248201527a5374616b696e6720706572696f64206e6f7420636f6d706c65746560281b6044820152606490fd5b60405162461bcd60e51b815260048101859052600a6024820152692737ba1039ba30b5b2b960b11b6044820152606490fd5b346103e95760003660031901126103e957611672614b8e565b61167d6024546155d5565b602455005b346103e95760403660031901126103e95761169b614826565b6116a361483c565b906116ac614b8e565b6001600160a01b039081166000818152601a602052604090205482166116ef576000908152601a6020526040902080546001600160a01b03191691909216179055005b60405162461bcd60e51b8152602060048201526014602482015273149959995c9c995c88185b1c9958591e481cd95d60621b6044820152606490fd5b346103e95760803660031901126103e957611744614826565b61174c61483c565b90606435906044356001600160401b0383116103e957366023840112156103e9576117b0936117886117ab9436906024816004013591016149b5565b9261179b6117968433614d51565b614c7c565b6117a6838383614e19565b615063565b614d31565b005b346103e95760403660031901126103e9576117cb614826565b6001600160a01b03166000908152601e60205260409020805460243591908210156103e95760209161057e91614b5d565b346103e95760603660031901126103e9576001600160401b036004358181116103e95761182d9036906004016149ec565b90611836614b8e565b6024549060405192611847846148da565b828452602090818501908152604085016024358152606086019160443583526080870194600180875260a08901956000875260c08a019860008a5260005260188152604060002099518a55818a0193518051938411610df0576118aa8554614a42565b601f811161199f575b5081601f851160011461192a5750928060059a9997959381936119199a989660009461191f575b50501b916000199060031b1c19161790555b516002880155516003870155611909600487019251151583614f15565b516001600160a01b031690615287565b51910155005b015192508d806118da565b9190601f9493941984168660005283600020936000905b8282106119885750509161191999979593918560059d9c9a9896941061196f575b505050811b0190556118ec565b015160001960f88460031b161c191690558b8080611962565b808886978294978701518155019601940190611941565b6119ca908660005283600020601f870160051c8101918588106119d0575b601f0160051c01906155e4565b8b6118b3565b90915081906119bd565b346103e95760203660031901126103e95760043560038110156103e9576103e1602091615115565b346103e95760403660031901126103e95760e0611a1d61483c565b60043560005260208052604060002060018060a01b038092166000526020526040600020805491600182015416906002810154600382015460048301549160ff600660058601549501541694604051968752602087015260408601526060850152608084015260a0830152151560c0820152f35b346103e9576020806003193601126103e957600435611aae614b8e565b80600052601682526040600020916007830190815460ff811615611c195760048501544210801590611c0a575b15611bca5760ff19168255600684018054908115908115611af857005b6040805142868201908152818301899052918152606081016001600160401b03811182821017610df05760405251902091611bb457611b5492611b3c920690614b5d565b90546001600160a01b03929160031b1c821684615287565b6000808080600587549901988954908683918315611baa575b60081c1690f115610ae0577f8941bade03a3d102784a43ef492d1a5dc2ad4f31419c6f7786234532b108d099925460081c169354604051908152a3005b6108fc9250611b6d565b634e487b7160e01b600052601260045260246000fd5b60405162461bcd60e51b8152600481018390526018602482015277546f75726e616d656e74207374696c6c2072756e6e696e6760401b6044820152606490fd5b50600a60068601541015611adb565b60405162461bcd60e51b8152600481018390526018602482015277151bdd5c9b985b595b9d08185b1c9958591e48195b99195960421b6044820152606490fd5b346103e9576020806003193601126103e9576001600160a01b03611c7b614826565b1660005260138152604060002090604051908181845491828152019360005281600020916000905b828210611cc65761102985611cba8189038261492b565b60405191829182614b22565b835486529485019460019384019390910190611ca3565b346103e95760403660031901126103e957611cf6614826565b60243590811515908183036103e9576001600160a01b031691338314611d6757611d39903360005260056020526040600020846000526020526040600020614f15565b6040519081527f17307eab39ab6107e8899845ad3d59bd9653f200f220920489ca2b5937696c3160203392a3005b60405162461bcd60e51b815260206004820152601960248201527822a9219b99189d1030b8383937bb32903a379031b0b63632b960391b6044820152606490fd5b346103e95760203660031901126103e95760043560005260106020526020604060002054604051908152f35b614a0a565b346103e95760003660031901126103e9576020602154604051908152f35b346103e95760003660031901126103e957336000526020601a815260018060a01b0390816040600020541615611ea15733600052601b8152611e3e604060002054156155fb565b33600052601b815266038d7ea4c6800091826040600020556000808080863382f115610ae0577f53958b9c644a1d5529da7c36929d59417eb9a996f08e02a52632bfe20c92ef489033600052601a835260406000205416916040519384523393a3005b6064906040519062461bcd60e51b82526004820152600f60248201526e139bc81c9959995c9c995c881cd95d608a1b6044820152fd5b346103e95760203660031901126103e9576001600160a01b03611ef8614826565b1660005260146020526020604060002054604051908152f35b346103e95760003660031901126103e95760206040516611c37937e080008152f35b346103e95760003660031901126103e95760405160009060018054611f5781614a42565b80845290828116908115611fd05750600114611f92575b61102983611f7e8187038261492b565b604051918291602083526020830190614801565b92508060005260209283600020916000925b828410611fbd57505050810190910190611f7e81611f6e565b8054858501870152928501928101611fa4565b6110299550611f7e93506020915091849260ff191682840152151560051b8201019350611f6e565b346103e95761200636614a2c565b9061201081614c2d565b6001600160a01b03906120269082163314615640565b82156120bf576120919060036040519161203f836148bf565b84835260208301338152604084019087825260608501926001845287600052601c6020526040600020955186556001860191511660018060a01b03198254161790555160028401555115159101614f15565b6040519182527f5f9c03de076f5063cd3ebcfe8ef7aa8af378e4b35a83c77ba9777e97083879a260203393a3005b60405162461bcd60e51b815260206004820152601c60248201527b05072696365206d7573742062652067726561746572207468616e20360241b6044820152606490fd5b60203660031901126103e9576004356121236108b633610e108404615213565b6040519081527f0ee8cfda0c67f1acd18ff57b5828f18514d204f62f1a359e195515a940a2b77a60203392a2005b346103e95760003660031901126103e9576007546040516001600160a01b039091168152602090f35b346103e9576020806003193601126103e9576004356001600160401b0381116103e9576121ab9036906004016149ec565b6024908154908160005260188452604060002091600483019182549160ff8316156123bf57336000526019875260406000205410156123815760405161220d87828161220081830196878151938492016147de565b810103808452018261492b565b51902060028401540361234c5760ff191681556003919061222f903390615287565b4260058201558254336000526019855260406000205501908154916022549081151580612332575b6122b3575b505081600081156122aa575b600080809381933390f115610ae05754916040519283528201527f523e61d558556aa27ac8542575a674429f457748b192afb77e231a53f8e1b9b560403392a2005b506108fc612268565b60646122d4839561230294600052601f885260066040600020015490615198565b0493600052848052604060002033600052855260036040600020016122f981546155d5565b905554836151ab565b60225460005283805260406000203360005284526123296005604060002001918254615466565b9055838061225c565b5081600052601f855260ff60086040600020015416612257565b60405162461bcd60e51b815260048101869052600e818601526d2bb937b7339039b7b63aba34b7b760911b6044820152606490fd5b60405162461bcd60e51b81526004810187905260178187015276416c726561647920636f6d706c6574656420746f64617960481b6044820152606490fd5b60405162461bcd60e51b815260048101889052601381880152724e6f20616374697665206368616c6c656e676560681b6044820152606490fd5b346103e95760003660031901126103e957604051610ca081016001600160401b03811182821017610df0576040526064808252602091610c80368483013760095460009260019182805b6124b5575b505050506124558261494e565b92612463604051948561492b565b828452601f196124728461494e565b0190369085013760005b82811061249157604051806110298682614b22565b8061249f6124b0928461567e565b516124aa828761567e565b526155d5565b61247c565b818111158061250c575b156125075780600052601c875260ff600360406000200154166124ec575b6124e6906155d5565b83612443565b946124ff81876124aa6124e6948961567e565b9590506124dd565b612448565b508286106124bf565b346103e95760003660031901126103e9576020602354604051908152f35b346103e9576020806003193601126103e9576001600160a01b03612555614826565b16600052601e8152604060002090604051908181845491828152019360005281600020916000905b8282106125945761102985611cba8189038261492b565b83548652948501946001938401939091019061257d565b346103e95760403660031901126103e9576125c4614826565b6001600160a01b03166000908152601360205260409020805460243591908210156103e95760209161057e91614b5d565b346103e95760203660031901126103e9576001600160a01b03612616614826565b1660005260196020526020604060002054604051908152f35b346103e9576020806003193601126103e9576001600160a01b03612651614826565b1660005260178152604060002090604051908181845491828152019360005281600020916000905b8282106126905761102985611cba8189038261492b565b835486529485019460019384019390910190612679565b346103e9576020806003193601126103e957600435906126c56152cf565b81600052601f81526004604060002001544211156127b9578160005280805260406000203360005281526005604060002001541561277f576000808084819481835280805260408320338452815261272760ff600660408620015416156155fb565b818352808052604083203384528152600560408420015491835280805260408320903384525260066040832001600160ff19825416179055818115612776575b3390f115610ae0576001600855005b506108fc612767565b6064906040519062461bcd60e51b8252600482015260136024820152724e6f207265776172647320746f20636c61696d60681b6044820152fd5b6064906040519062461bcd60e51b8252600482015260126024820152714576656e74207374696c6c2061637469766560701b6044820152fd5b346103e95760203660031901126103e95760043560005260166020526040600020805461282160018301614a7c565b916002810154906003810154906004810154600760058301549201549261285a60405197889788526101008060208a0152880190614801565b60408701959095526060860152608085015260a084015260ff8116151560c084015260081c6001600160a01b031660e08301520390f35b346103e95760003660031901126103e9576128aa614b8e565b600780546001600160a01b031981169091556000906001600160a01b03166000805160206156938339815191528280a3005b346103e95760203660031901126103e9576001600160a01b036128fd614826565b16801561291c5760005260036020526020604060002054604051908152f35b60405162461bcd60e51b815260206004820152602960248201527f4552433732313a2061646472657373207a65726f206973206e6f7420612076616044820152683634b21037bbb732b960b91b6064820152608490fd5b346103e95760003660031901126103e957602060405166071afd498d00008152f35b346103e9576020806003193601126103e9576004359081600052600e815260406000206040516129c481614888565b81548152610140600860018401549360ff868501956129e582821688615263565b831c166129f181614871565b6040850152600281015460608501526003810154608085015260018060a01b038060048301541660a0860152600582015460c0860152600682015460ff8116151560e0870152831c166101008501526007810154610120850152015491015282600052600f825260406000209060405190612a6b826148bf565b82548252600360018401549385840194855260028101546040850152015460608301528051600481101561128557612bb75750605d9061101592612ae8612ae1612ada604051612aba81614910565b600e81526d21b934b6b9b7b7102632b3b4b7b760911b8982015298615473565b9351615473565b9151615473565b90604051968793767b226e616d65223a2244796e616d696320436c7565202360481b88860152612b21815180928a6037890191016147de565b84016c1116113330b1ba34b7b7111d1160991b6037820152612b4c825180938a6044850191016147de565b01691116113632bb32b6111d60b11b6044820152612b738251809389604e850191016147de565b016d161132bc3832b934b2b731b2911d60911b604e820152612b9e8251809388605c850191016147de565b01607d60f81b605c82015203603d81018552018361492b565b8051600481101561128557600103612c035750605d9061101592612ae8612ae1612ada604051612be681614910565b600b81526a20bd3ab9329027b93232b960a91b8982015298615473565b519060048210156112855761101592605d92600203612c5357612ae8612ae1612ada604051612c3181614910565b601081526f56657264616e7420416c6c69616e636560801b8982015298615473565b612ae8612ae1612ada604051612c6881614910565b600f81526e23b7b63232b7102237b6b4b734b7b760891b8982015298615473565b346103e9576020806003193601126103e9576001600160a01b03612cab614826565b16806000526013825260406000205415612cf857600052601381526040600020805415612ce2576000528060002054604051908152f35b634e487b7160e01b600052603260045260246000fd5b60405162461bcd60e51b8152600481018390526014602482015273506c6179657220686173206e6f20746f6b656e7360601b6044820152606490fd5b346103e95760203660031901126103e957600435600052601f60205260406000208054612d6360018301614a7c565b91612d7060028201614a7c565b60038201549160048101546005820154600683015460078401549160ff60088601541693612dce600a600988015497015497612dc06040519c8d9c8d5260208d61016091829101528d0190614801565b908b820360408d0152614801565b9760608a0152608089015260a088015260c087015260e086015215156101008501526101208401526101408301520390f35b346103e95760203660031901126103e9576020612e1e600435614c2d565b6040516001600160a01b039091168152f35b346103e95760003660031901126103e9576020602454604051908152f35b346103e95760203660031901126103e9576001600160a01b03612e6f614826565b16600052601b6020526020604060002054604051908152f35b346103e95760203660031901126103e957600435600052600f602052608060406000208054906001810154906003600282015491015491604051938452602084015260408301526060820152f35b6020806003193601126103e95760043590612eef6152cf565b81600052601c8152604060002091604051612f09816148bf565b8354815260018060a01b03806001860154169184810192835260ff600360028801549760408401988952015416159060608215910152613041578451341061300557612f5a83828451163390614e19565b600080808084865116895190828215612ffc575bf115610ae0578451803411612fce575b507f8562eb94748e30bb0071e932744ce902b460c683474fcb3bfd567ffa16b1afb29183600052601c8552600360406000200160ff19815416905551169351926040519384523393a46001600855005b60008080612fdd8194346151ab565b818115612ff3575b3390f115610ae05785612f7e565b506108fc612fe5565b506108fc612f6e565b60405162461bcd60e51b8152600481018590526014602482015273125b9cdd59999a58da595b9d081c185e5b595b9d60621b6044820152606490fd5b60405162461bcd60e51b815260048101859052600e60248201526d139195081b9bdd081b1a5cdd195960921b6044820152606490fd5b346103e95761308536614a2c565b9061308f81614c2d565b6001600160a01b03906130a59082163314615640565b60018310158061323c575b156132045782600a02600a81048403610b8c5760225481811515806131e9575b613198575b50506201518090818502918583041485151715610b8c57600491604051936130fc856148a4565b858552602085013381526040860191428352606087019384526080870194855287600052601d6020526040600020965187556001870191511660018060a01b03198254161790555160028501555160038401555191015533600052601e60205261316a8160406000206152ac565b6040519182527f7c403feabc47b424ca9fce0347ba2dbf96bc829f0ea06c10ebc13b50e6f6590360203393a3005b8192506131b990606492600052601f60205260076040600020015490615198565b04906000526020805260406000203360005260205260046040600020016131e081546155d5565b905584806130d5565b5081600052601f60205260ff600860406000200154166130d0565b60405162461bcd60e51b815260206004820152601060248201526f24b73b30b634b210323ab930ba34b7b760811b6044820152606490fd5b5061016d8311156130b0565b346103e95760603660031901126103e9576044356001600160a01b03811681036103e9576103e16020916024356004356151b8565b346103e95760203660031901126103e95760206001600160a01b03806132a1614826565b16600052601a825260406000205416604051908152f35b60a03660031901126103e9576132cc614826565b6132d46152cf565b6003602435116135cc576002604435116135af576132f3604435614871565b6132fe604435615115565b341061357057600954600181016009556133356117ab604051613320816148f5565b6000815261332e8486615370565b8385614f43565b600460243510156112855760405161334c81614888565b81815261335e60243560208301615263565b613369604435614871565b60443560408201526064356060820152608435608082015260018060a01b03831660a08201524260c0820152600060e082015260006101008201526000610120820152600061014082015281600052600e602052604060002090805182556020810151600481101561128557600891610140916133ea60018601918261526f565b60408201516133f881614871565b61340181614871565b815461ff00191690851b61ff0016179055606081015160028501556080810151600385015560a08101516004850180546001600160a01b0319166001600160a01b039290921691909117905560c0810151600585015560e081015161348690600686019061347190151582614f15565b6101008301516001600160a01b031690615287565b610120810151600785015501519101556040516134a2816148bf565b60018152600360208201600081526040830160008152606084019142835285600052600f6020526040600020945185555160018501555160028401555191015560018060a01b0382166000526011602052613503602435604060002061526f565b60018060a01b03821660005260136020526135228160406000206152ac565b6000805160206156b38339815191526060604051936135438560243561487b565b61354e604435614871565b604435602086015260643560408601526001600160a01b031693a36001600855005b60405162461bcd60e51b8152602060048201526017602482015276496e73756666696369656e74206d696e7420707269636560481b6044820152606490fd5b60405162461bcd60e51b8152806135c8600482016150ee565b0390fd5b60405162461bcd60e51b815260206004820152600f60248201526e24b73b30b634b2103330b1ba34b7b760891b6044820152606490fd5b346103e95760603660031901126103e9576004356001600160401b0381116103e9576136339036906004016149ec565b6044359061363f614b8e565b6023549161364c836155d5565b602355610e1090818102918183041490151715610b8c5761366d9042615466565b604051613679816148f5565b600081526040519061012082016001600160401b03811183821017610df05760405284825260208201908482526024356040840152426060840152836080840152600060a084015260c0830152600160e08301526000610100830152846000526016602052604060002090825182555180519060018060401b038211610df05781906137086001850154614a42565b601f81116138e5575b50602090601f831160011461387357600092613868575b50508160011b916000199060031b1c19161760018201555b60408201516002820155606082015160038201556080820151600482015560a0820151600582015560c082015180519060068301906001600160401b038311610df057600160401b8311610df057602090825484845580851061384b575b500190600052602060002060005b83811061382e57887ff921e1476612bff3a21b96b63ae8a3ac03579129aad3ed13624285327365837c61381b8a8a6138078b60078c01906137f360e0820151151583614f15565b61010001516001600160a01b031690615287565b604051928392606084526060840190614801565b90602435602084015260408301520390a2005b82516001600160a01b0316818301556020909201916001016137ac565b6138629084600052858460002091820191016155e4565b8961379e565b015190508780613728565b9250600184016000526020600020906000935b601f19841685106138ca576001945083601f198116106138b1575b505050811b016001820155613740565b015160001960f88460031b161c191690558780806138a1565b81810151835560209485019460019093019290910190613886565b61391490600186016000526020600020601f850160051c810191602086106119d057601f0160051c01906155e4565b88613711565b346103e9576117b06117ab61392e36614965565b906040519261393c846148f5565b6000845261179b6117968433614d51565b346103e95760003660031901126103e957602060405160148152f35b60803660031901126103e95761397d614826565b6139856152cf565b61398d6152cf565b6003602435116135cc5766038d7ea4c68000341061357057600954600181016009556139c16117ab604051613320816148f5565b60046024351015611285576040516139d881614888565b8181526139ea60243560208301615263565b600060408201526044356060820152606435608082015260018060a01b03831660a08201524260c0820152600060e082015260006101008201526000610120820152600061014082015281600052600e60205260406000209080518255602081015160048110156112855760089161014091613a6a60018601918261526f565b6040820151613a7881614871565b613a8181614871565b815461ff00191690851b61ff0016179055606081015160028501556080810151600385015560a08101516004850180546001600160a01b0319166001600160a01b039290921691909117905560c0810151600585015560e0810151613af190600686019061347190151582614f15565b61012081015160078501550151910155604051613b0d816148bf565b60018152600360208201600081526040830160008152606084019142835285600052600f6020526040600020945185555160018501555160028401555191015560018060a01b0382166000526011602052613b6e602435604060002061526f565b60018060a01b0382166000526013602052613b8d8160406000206152ac565b6000805160206156b3833981519152606060405193613bae8560243561487b565b6000602086015260443560408601526001600160a01b031693a36001600855005b346103e95760203660031901126103e9576001600160a01b03613bf0614826565b166000526011602052602060ff60406000205416613c11604051809261487b565bf35b346103e95760203660031901126103e957600435600052600e602052610160604060002080549060018101549060ff8260081c1660028201549060038301549160018060a01b03928360048601541690600586015492600687015494613c90600860078a0154990154996040519b8c5260ff60208d01911661487b565b613c9981614871565b60408a01526060890152608088015260a087015260c086015260ff8116151560e086015260081c16610100840152610120830152610140820152f35b346103e95760203660031901126103e9576004356000818152601c60205260409020600101546001600160a01b03163303613d25576000908152601c60205260409020600301805460ff19169055005b60405162461bcd60e51b815260206004820152600a6024820152692737ba1039b2b63632b960b11b6044820152606490fd5b346103e95760003660031901126103e9576020604051662386f26fc100008152f35b346103e957610100806003193601126103e9576004356001600160401b0381116103e957613dab9036906004016149ec565b906024356001600160401b0381116103e957613dcb9036906004016149ec565b90604435606435613dda614b8e565b8082101561410a57428211156140c6576021549160405194613dfb86614888565b8386526020860196875260408601526060850152608084015260843560a084015260a43560c084015260c43560e0840152600082840152600061012084015260e435610140840152600052601f602052604060002092825184555180519060018060401b038211610df0576001918083870192613e788454614a42565b601f8111614094575b50602090601f831160011461403057600092614025575b5050600019600383901b1c191690831b1790555b6040830151805190916001600160401b038211610df0576002860192613ed28454614a42565b601f8111613ff3575b50602090601f8411600114613f80579280806101409794600a999794613f5597600094613f75575b50501b916000199060031b1c19161790555b606083015160038701556080830151600487015560a0830151600587015560c0830151600687015560e08301516007870155820151151560088601614f15565b61012081015160098501550151910155613f706021546155d5565b602155005b015192508b80613f03565b90601f939293198316918560005260206000209260005b818110613fdd575092613f55959285926101409996600a9b999610613fc4575b505050811b019055613f15565b015160001960f88460031b161c19169055898080613fb7565b8284015185559386019360209384019301613f97565b61401f90856000526020600020601f860160051c810191602087106119d057601f0160051c01906155e4565b87613edb565b015190508780613e98565b90859350846000526020600020916000601f198516905b81811061407c57508411614063575b505050811b019055613eac565b015160001960f88460031b161c19169055878080614056565b82840151855588969094019360209384019301614047565b6140c090856000526020600020601f850160051c810191602086106119d057601f0160051c01906155e4565b88613e81565b60405162461bcd60e51b815260206004820152601c60248201527b53746172742074696d65206d75737420626520696e2066757475726560201b6044820152606490fd5b60405162461bcd60e51b8152602060048201526012602482015271496e76616c69642074696d652072616e676560701b6044820152606490fd5b346103e9576117b061415536614965565b916141636117968433614d51565b614e19565b346103e95760403660031901126103e9576024356001600160401b0381116103e957366023820112156103e95780600401356141a38161494e565b916141b1604051938461492b565b818352602460208094019260051b820101913683116103e9576024849201905b8382106142ac57826001600160a01b037f000000000000000000000000000000000000000000000000000000000000000081163381900361428e575061427f60ff60026117b09460043560005260108152614230604060002054614852565b50906040519561423f876148a4565b825485811661424d81614871565b885260081c169086015260018101546040860152015461427282821660608601615263565b60081c1660808301615263565b5161428981614871565b614871565b6044906040519063073e64fd60e21b82523360048301526024820152fd5b813581529082019082016141d1565b346103e95760203660031901126103e9576004356015548110156103e9576142e460a091614852565b50613c11815460ff81169260026001820154910154916040519461430781614871565b855260081c6000196001871b01166020850152604084015261432f6060840160ff831661487b565b60ff608084019160081c1661487b565b346103e95760003660031901126103e9576020604051600a8152f35b346103e95760203660031901126103e957600435600481101561128557610f47602091614b75565b346103e95760403660031901126103e95761439c614826565b602435906001600160a01b0380806143b385614c2d565b169216918083146144ae57803314908115614489575b501561441e57600083815260046020526040902080546001600160a01b031916831790556143f683614c2d565b167f8c5be1e5ebec7d5bd14f71427d1e84f3dd0314c0f7b2291e5b200ac8c7c3b925600080a4005b60405162461bcd60e51b815260206004820152603d60248201527f4552433732313a20617070726f76652063616c6c6572206973206e6f7420746f60448201527f6b656e206f776e6572206f7220617070726f76656420666f7220616c6c0000006064820152608490fd5b9050600052600560205260406000203360005260205260ff60406000205416846143c9565b60405162461bcd60e51b815260206004820152602160248201527f4552433732313a20617070726f76616c20746f2063757272656e74206f776e656044820152603960f91b6064820152608490fd5b346103e95760203660031901126103e9576020612e1e600435614c50565b346103e95760003660031901126103e95760405160009060005461453e81614a42565b808352600191808316908115611fd057506001146145665761102983611f7e8187038261492b565b600080805260209450917f290decd9548b62a8d60345a988386fc84ba6bc95484008f6362f93160ef3e5635b8284106145ab57505050810190910190611f7e81611f6e565b8054858501870152928501928101614592565b346103e95760203660031901126103e95760043563ffffffff60e01b81168091036103e957602090632483248360e11b8114908115614603575b506040519015158152f35b6380ac58cd60e01b811491508115614635575b8115614624575b50826145f8565b6301ffc9a760e01b1490508261461d565b635b5e139f60e01b81149150614616565b346103e95760003660031901126103e95761014081614666600093614888565b82815260606020820152606060408201528260608201528260808201528260a08201528260c08201528260e082015282610100820152826101208201520152602254600052601f6020526040600020600a604051916146c483614888565b805483526146d460018201614a7c565b60208401526146e560028201614a7c565b60408401526003810154606084015260048101546080840152600581015460a0840152600681015460c0840152600781015460e084015260ff60088201541615156101008401526009810154610120840152015461014082015260405180916020825280516020830152602081015161014061478861477261016093846040880152610180870190614801565b6040850151868203601f19016060880152614801565b9260608101516080860152608081015160a086015260a081015160c086015260c081015160e086015260e08101516101008601526101008101511515610120860152610120810151828601520151908301520390f35b60005b8381106147f15750506000910152565b81810151838201526020016147e1565b9060209161481a815180928185528580860191016147de565b601f01601f1916010190565b600435906001600160a01b03821682036103e957565b602435906001600160a01b03821682036103e957565b601554811015612ce25760156000526003602060002091020190600090565b6003111561128557565b9060048210156112855752565b61016081019081106001600160401b03821117610df057604052565b60a081019081106001600160401b03821117610df057604052565b608081019081106001600160401b03821117610df057604052565b60e081019081106001600160401b03821117610df057604052565b602081019081106001600160401b03821117610df057604052565b604081019081106001600160401b03821117610df057604052565b601f909101601f19168101906001600160401b03821190821017610df057604052565b6001600160401b038111610df05760051b60200190565b60609060031901126103e9576001600160a01b039060043582811681036103e9579160243590811681036103e9579060443590565b6001600160401b038111610df057601f01601f191660200190565b9291926149c18261499a565b916149cf604051938461492b565b8294818452818301116103e9578281602093846000960137010152565b9080601f830112156103e957816020614a07933591016149b5565b90565b346103e95760003660031901126103e957602060405166038d7ea4c680008152f35b60409060031901126103e9576004359060243590565b90600182811c92168015614a72575b6020831014614a5c57565b634e487b7160e01b600052602260045260246000fd5b91607f1691614a51565b9060405191826000825492614a9084614a42565b908184526001948581169081600014614aff5750600114614abc575b5050614aba9250038361492b565b565b9093915060005260209081600020936000915b818310614ae7575050614aba93508201013880614aac565b85548884018501529485019487945091830191614acf565b915050614aba94506020925060ff191682840152151560051b8201013880614aac565b6020908160408183019282815285518094520193019160005b828110614b49575050505090565b835185529381019392810192600101614b3b565b8054821015612ce25760005260206000200190600090565b6004811015611285576000526012602052604060002090565b6007546001600160a01b03163303614ba257565b606460405162461bcd60e51b815260206004820152602060248201527f4f776e61626c653a2063616c6c6572206973206e6f7420746865206f776e65726044820152fd5b15614bed57565b60405162461bcd60e51b8152602060048201526018602482015277115490cdcc8c4e881a5b9d985b1a59081d1bdad95b88125160421b6044820152606490fd5b6000908152600260205260409020546001600160a01b0316614a07811515614be6565b614c61614c5c82614f26565b614be6565b6000908152600460205260409020546001600160a01b031690565b15614c8357565b60405162461bcd60e51b815260206004820152602d60248201527f4552433732313a2063616c6c6572206973206e6f7420746f6b656e206f776e6560448201526c1c881bdc88185c1c1c9bdd9959609a1b6064820152608490fd5b60809060208152603260208201527f4552433732313a207472616e7366657220746f206e6f6e20455243373231526560408201527131b2b4bb32b91034b6b83632b6b2b73a32b960711b60608201520190565b15614d3857565b60405162461bcd60e51b8152806135c860048201614cde565b906001600160a01b038080614d6584614c2d565b16931691838314938415614d98575b508315614d82575b50505090565b614d8e91929350614c50565b1614388080614d7c565b909350600052600560205260406000208260005260205260ff604060002054169238614d74565b15614dc657565b60405162461bcd60e51b815260206004820152602560248201527f4552433732313a207472616e736665722066726f6d20696e636f72726563742060448201526437bbb732b960d91b6064820152608490fd5b90614e4191614e2784614c2d565b6001600160a01b0393918416928492909183168414614dbf565b16918215614ec45781614e5e91614e5786614c2d565b1614614dbf565b6000805160206156d3833981519152600084815260046020526040812060018060a01b03199081815416905583825260036020526040822060001981540190558482526040822060018154019055858252600260205284604083209182541617905580a4565b60405162461bcd60e51b8152602060048201526024808201527f4552433732313a207472616e7366657220746f20746865207a65726f206164646044820152637265737360e01b6064820152608490fd5b9060ff801983541691151516179055565b6000908152600260205260409020546001600160a01b0316151590565b9192600092909190803b1561505957614f91946040518092630a85bd0160e11b9485835233600484015287602484015260448301526080606483015281878160209a8b966084830190614801565b03926001600160a01b03165af1849181615015575b50615004575050503d600014614ffc573d614fc08161499a565b90614fce604051928361492b565b81528091833d92013e5b80519182614ff95760405162461bcd60e51b8152806135c860048201614cde565b01fd5b506060614fd8565b6001600160e01b0319161492509050565b9091508581813d8311615052575b61502d818361492b565b8101031261504e57516001600160e01b03198116810361504e579038614fa6565b8480fd5b503d615023565b5050915050600190565b9293600093909291803b156150e3579484916150bd9660405180948193630a85bd0160e11b9788845233600485015260018060a01b0380921660248501526044840152608060648401528260209b8c976084830190614801565b0393165af18491816150155750615004575050503d600014614ffc573d614fc08161499a565b505050915050600190565b60609060208152600c60208201526b24b73b30b634b2103a34b2b960a11b60408201520190565b61511e81614871565b80156151765761512d81614871565b6001811461516a5780615141600292614871565b1461515f5760405162461bcd60e51b8152806135c8600482016150ee565b662386f26fc1000090565b506611c37937e0800090565b5066038d7ea4c6800090565b90605082029180830460501490151715610b8c57565b81810292918115918404141715610b8c57565b91908203918211610b8c57565b9066038d7ea4c680009180830292830403610b8c576151d691615198565b6001600160a01b0390911660009081526011602052604090205460ff16600481101561128557156152045790565b61520f606491615182565b0490565b66071afd498d00009080820291820403610b8c57809160018060a01b0316600052601160205260ff60406000205416600481101561128557600114615256575090565b6064915061520f90615182565b60048210156112855752565b9060048110156112855760ff80198354169116179055565b8054610100600160a81b03191660089290921b610100600160a81b0316919091179055565b80549190600160401b831015610df05782611560916001614aba95018155614b5d565b6002600854146152e0576002600855565b60405162461bcd60e51b815260206004820152601f60248201527f5265656e7472616e637947756172643a207265656e7472616e742063616c6c006044820152606490fd5b1561532c57565b60405162461bcd60e51b815260206004820152601c60248201527b115490cdcc8c4e881d1bdad95b88185b1c9958591e481b5a5b9d195960221b6044820152606490fd5b6001600160a01b031680156153e35761539161538b83614f26565b15615325565b61539d61538b83614f26565b6000818152600360209081526040808320805460010190558483526002909152812080546001600160a01b031916831790556000805160206156d38339815191528180a4565b606460405162461bcd60e51b815260206004820152602060248201527f4552433732313a206d696e7420746f20746865207a65726f20616464726573736044820152fd5b1561542e57565b60405162461bcd60e51b815260206004820152601060248201526f496e73756666696369656e742066656560801b6044820152606490fd5b91908201809211610b8c57565b6000908072184f03e93ff9f4daa797ed6e38ed64bf6a1f0160401b808210156155c7575b506904ee2d6d415b85acef8160201b808310156155b8575b50662386f26fc10000808310156155a9575b506305f5e1008083101561559a575b506127108083101561558b575b50606482101561557b575b600a80921015615571575b600190816021818601956155068761499a565b96615514604051988961492b565b808852615523601f199161499a565b01366020890137860101905b61553b575b5050505090565b600019019083906f181899199a1a9b1b9c1cb0b131b232b360811b8282061a83530491821561556c5791908261552f565b615534565b91600101916154f3565b91906064600291049101916154e8565b600491939204910191386154dd565b600891939204910191386154d0565b601091939204910191386154c1565b602091939204910191386154af565b604093508104915038615497565b6000198114610b8c5760010190565b8181106155ef575050565b600081556001016155e4565b1561560257565b60405162461bcd60e51b815260206004820152601660248201527514995dd85c9908185b1c9958591e4818db185a5b595960521b6044820152606490fd5b1561564757565b60405162461bcd60e51b815260206004820152600f60248201526e2737ba103a37b5b2b71037bbb732b960891b6044820152606490fd5b8051821015612ce25760209160051b01019056fe8be0079c531659141344cd1fd0a4f28419497f9722a3daafe3b4186f6b6457e073a1581e7a5609581367c8f8275455c343327f3439c2c5a5e29317441c1a6dd3ddf252ad1be2c89b69c2b068fc378daa952ba7f163c4a11628f55a4df523b3ef3ae380bb6fbc0ce7bfc28639ae95e9af825ce794cb6f5a46d4cc13a36adec83ba2646970667358221220dff3905b6871aea1d7a98e7d0f382cabec51b767d557ed0a2b0dee9b34d2891164736f6c63430008130033","opcodes":"PUSH1 0xA0 CALLVALUE PUSH3 0x443 JUMPI PUSH1 0x1 PUSH1 0x1 PUSH1 0x40 SHL SUB SWAP1 PUSH1 0x1F NOT SWAP1 PUSH1 0x1F SWAP1 PUSH3 0x5BB1 CODESIZE DUP2 SWAP1 SUB DUP4 DUP2 ADD DUP6 AND DUP4 ADD DUP7 DUP2 GT DUP5 DUP3 LT OR PUSH3 0x42D JUMPI DUP4 SWAP3 DUP3 SWAP2 PUSH1 0x40 MSTORE DUP4 CODECOPY PUSH1 0x20 SWAP3 DUP4 SWAP2 DUP2 ADD SUB SLT PUSH3 0x443 JUMPI MLOAD SWAP2 DUP5 DUP4 AND DUP4 SUB PUSH3 0x443 JUMPI PUSH1 0xB SLOAD PUSH1 0x1 PUSH1 0x1 PUSH1 0xA0 SHL SUB SWAP6 SWAP1 DUP7 AND SWAP2 PUSH3 0x6F PUSH3 0x448 JUMP JUMPDEST SWAP4 PUSH1 0xE DUP6 MSTORE PUSH14 0x111E5B985B5A58D0DB1D59539195 PUSH1 0x92 SHL DUP2 DUP7 ADD MSTORE PUSH3 0x94 PUSH3 0x448 JUMP JUMPDEST SWAP1 PUSH1 0x5 DUP3 MSTORE PUSH5 0x1110D39195 PUSH1 0xDA SHL DUP2 DUP4 ADD MSTORE DUP6 MLOAD SWAP8 DUP5 DUP10 GT PUSH3 0x42D JUMPI PUSH1 0x0 SWAP9 DUP10 SLOAD SWAP8 PUSH1 0x1 SWAP9 DUP10 DUP2 DUP2 SHR SWAP2 AND DUP1 ISZERO PUSH3 0x422 JUMPI JUMPDEST DUP6 DUP3 LT EQ PUSH3 0x40E JUMPI SWAP1 DUP2 DUP8 DUP5 SWAP4 GT PUSH3 0x3BB JUMPI JUMPDEST POP DUP5 SWAP1 DUP8 DUP4 GT PUSH1 0x1 EQ PUSH3 0x35A JUMPI DUP13 SWAP3 PUSH3 0x34E JUMPI JUMPDEST POP POP PUSH1 0x0 NOT PUSH1 0x3 DUP4 SWAP1 SHL SHR NOT AND SWAP1 DUP9 SHL OR DUP10 SSTORE JUMPDEST DUP3 MLOAD SWAP5 DUP6 GT PUSH3 0x33A JUMPI DUP7 SLOAD DUP8 DUP2 DUP2 SHR SWAP2 AND DUP1 ISZERO PUSH3 0x32F JUMPI JUMPDEST DUP4 DUP3 LT EQ PUSH3 0x31B JUMPI SWAP1 DUP2 DUP6 DUP8 SWAP7 SWAP6 SWAP5 SWAP4 GT PUSH3 0x2C2 JUMPI JUMPDEST POP DUP2 SWAP4 DUP6 GT PUSH1 0x1 EQ PUSH3 0x25D JUMPI POP POP DUP8 SWAP3 PUSH3 0x251 JUMPI JUMPDEST POP POP PUSH1 0x0 NOT PUSH1 0x3 DUP4 SWAP1 SHL SHR NOT AND SWAP1 DUP4 SHL OR DUP3 SSTORE JUMPDEST PUSH1 0x80 MSTORE PUSH1 0x7 DUP1 SLOAD PUSH1 0x1 PUSH1 0x1 PUSH1 0xA0 SHL SUB NOT DUP1 DUP3 AND CALLER SWAP1 DUP2 OR SWAP1 SWAP4 SSTORE PUSH1 0x40 MLOAD SWAP7 SWAP1 SWAP6 SWAP3 SWAP2 AND PUSH32 0x8BE0079C531659141344CD1FD0A4F28419497F9722A3DAAFE3B4186F6B6457E0 DUP4 DUP1 LOG3 DUP2 PUSH1 0x8 SSTORE PUSH20 0x5C210EF41CD1A72DE73BF76EC39637BB0D3D7BEE DUP1 SWAP5 PUSH1 0xB SLOAD AND OR PUSH1 0xB SSTORE PUSH7 0x10003000186A0 PUSH1 0x1 DUP1 PUSH1 0x50 SHL SUB NOT PUSH1 0xD SLOAD AND OR PUSH1 0xD SSTORE DUP2 PUSH1 0x21 SSTORE PUSH1 0x22 SSTORE DUP1 PUSH1 0x23 SSTORE PUSH1 0x24 SSTORE PUSH1 0xA SLOAD SWAP1 PUSH1 0x1 PUSH1 0xA0 SHL PUSH1 0x1 PUSH1 0xE0 SHL SUB SWAP1 PUSH1 0xA0 SHL AND SWAP1 PUSH4 0xFFFFFFFF PUSH1 0xE0 SHL AND OR OR PUSH1 0xA SSTORE PUSH32 0x9E1344A1247C8A1785D0A6751E63BE47DE3E7B5C7FD7E0F24DF0E0E1E3F0E8F8 PUSH1 0xC SSTORE PUSH2 0x5748 SWAP1 DUP2 PUSH3 0x469 DUP3 CODECOPY PUSH1 0x80 MLOAD DUP2 PUSH2 0x41E3 ADD MSTORE RETURN JUMPDEST ADD MLOAD SWAP1 POP CODESIZE DUP1 PUSH3 0x150 JUMP JUMPDEST DUP8 SWAP6 SWAP4 SWAP3 SWAP2 SWAP4 AND DUP6 DUP11 MSTORE DUP4 DUP11 KECCAK256 SWAP4 DUP11 SWAP1 JUMPDEST DUP3 DUP3 LT PUSH3 0x2A8 JUMPI POP POP DUP5 GT PUSH3 0x28E JUMPI JUMPDEST POP POP POP DUP2 SHL ADD DUP3 SSTORE PUSH3 0x164 JUMP JUMPDEST ADD MLOAD PUSH1 0x0 NOT PUSH1 0xF8 DUP5 PUSH1 0x3 SHL AND SHR NOT AND SWAP1 SSTORE CODESIZE DUP1 DUP1 PUSH3 0x280 JUMP JUMPDEST DUP5 DUP5 ADD MLOAD DUP7 SSTORE DUP10 SWAP8 SWAP1 SWAP6 ADD SWAP5 SWAP4 DUP5 ADD SWAP4 SWAP1 DUP2 ADD SWAP1 PUSH3 0x26E JUMP JUMPDEST SWAP1 SWAP2 SWAP3 SWAP4 SWAP5 POP DUP8 DUP11 MSTORE DUP3 DUP11 KECCAK256 DUP6 DUP1 DUP9 ADD PUSH1 0x5 SHR DUP3 ADD SWAP3 DUP6 DUP10 LT PUSH3 0x311 JUMPI JUMPDEST SWAP2 DUP9 SWAP8 DUP12 SWAP3 SWAP8 SWAP7 SWAP6 SWAP5 SWAP4 ADD PUSH1 0x5 SHR ADD SWAP2 JUMPDEST DUP3 DUP2 LT PUSH3 0x302 JUMPI POP POP PUSH3 0x139 JUMP JUMPDEST DUP13 DUP2 SSTORE DUP9 SWAP8 POP DUP11 SWAP2 ADD PUSH3 0x2F2 JUMP JUMPDEST SWAP3 POP DUP2 SWAP3 PUSH3 0x2E1 JUMP JUMPDEST PUSH4 0x4E487B71 PUSH1 0xE0 SHL DUP11 MSTORE PUSH1 0x22 PUSH1 0x4 MSTORE PUSH1 0x24 DUP11 REVERT JUMPDEST SWAP1 PUSH1 0x7F AND SWAP1 PUSH3 0x121 JUMP JUMPDEST PUSH4 0x4E487B71 PUSH1 0xE0 SHL DUP10 MSTORE PUSH1 0x41 PUSH1 0x4 MSTORE PUSH1 0x24 DUP10 REVERT JUMPDEST ADD MLOAD SWAP1 POP CODESIZE DUP1 PUSH3 0xF3 JUMP JUMPDEST SWAP1 DUP13 SWAP2 DUP6 DUP13 SWAP6 AND DUP4 DUP1 MSTORE DUP8 DUP5 KECCAK256 SWAP4 JUMPDEST DUP9 DUP3 DUP3 LT PUSH3 0x3A4 JUMPI POP POP DUP5 GT PUSH3 0x38A JUMPI JUMPDEST POP POP POP DUP2 SHL ADD DUP10 SSTORE PUSH3 0x107 JUMP JUMPDEST ADD MLOAD PUSH1 0x0 NOT PUSH1 0xF8 DUP5 PUSH1 0x3 SHL AND SHR NOT AND SWAP1 SSTORE CODESIZE DUP1 DUP1 PUSH3 0x37C JUMP JUMPDEST DUP4 DUP6 ADD MLOAD DUP7 SSTORE DUP15 SWAP8 SWAP1 SWAP6 ADD SWAP5 SWAP4 DUP5 ADD SWAP4 ADD PUSH3 0x369 JUMP JUMPDEST SWAP1 SWAP2 POP DUP12 DUP1 MSTORE DUP5 DUP13 KECCAK256 DUP8 DUP1 DUP6 ADD PUSH1 0x5 SHR DUP3 ADD SWAP3 DUP8 DUP7 LT PUSH3 0x404 JUMPI JUMPDEST SWAP2 DUP13 SWAP2 DUP7 SWAP6 SWAP5 SWAP4 ADD PUSH1 0x5 SHR ADD SWAP2 JUMPDEST DUP3 DUP2 LT PUSH3 0x3F5 JUMPI POP POP PUSH3 0xDD JUMP JUMPDEST DUP15 DUP2 SSTORE DUP6 SWAP5 POP DUP13 SWAP2 ADD PUSH3 0x3E5 JUMP JUMPDEST SWAP3 POP DUP2 SWAP3 PUSH3 0x3D7 JUMP JUMPDEST PUSH4 0x4E487B71 PUSH1 0xE0 SHL DUP13 MSTORE PUSH1 0x22 PUSH1 0x4 MSTORE PUSH1 0x24 DUP13 REVERT JUMPDEST SWAP1 PUSH1 0x7F AND SWAP1 PUSH3 0xC8 JUMP JUMPDEST PUSH4 0x4E487B71 PUSH1 0xE0 SHL PUSH1 0x0 MSTORE PUSH1 0x41 PUSH1 0x4 MSTORE PUSH1 0x24 PUSH1 0x0 REVERT JUMPDEST PUSH1 0x0 DUP1 REVERT JUMPDEST PUSH1 0x40 DUP1 MLOAD SWAP2 SWAP1 DUP3 ADD PUSH1 0x1 PUSH1 0x1 PUSH1 0x40 SHL SUB DUP2 GT DUP4 DUP3 LT OR PUSH3 0x42D JUMPI PUSH1 0x40 MSTORE JUMP INVALID PUSH1 0x80 DUP1 PUSH1 0x40 MSTORE PUSH1 0x4 CALLDATASIZE LT ISZERO PUSH2 0x13 JUMPI PUSH1 0x0 DUP1 REVERT JUMPDEST PUSH1 0x0 CALLDATALOAD PUSH1 0xE0 SHR SWAP1 DUP2 PUSH4 0x1352BE7 EQ PUSH2 0x4646 JUMPI POP DUP1 PUSH4 0x1FFC9A7 EQ PUSH2 0x45BE JUMPI DUP1 PUSH4 0x6FDDE03 EQ PUSH2 0x451B JUMPI DUP1 PUSH4 0x81812FC EQ PUSH2 0x44FD JUMPI DUP1 PUSH4 0x95EA7B3 EQ PUSH2 0x4383 JUMPI DUP1 PUSH4 0xD796CB8 EQ PUSH2 0x435B JUMPI DUP1 PUSH4 0xF1A2905 EQ PUSH2 0x433F JUMPI DUP1 PUSH4 0x1A1D9252 EQ PUSH2 0x42BB JUMPI DUP1 PUSH4 0x1FE543E3 EQ PUSH2 0x4168 JUMPI DUP1 PUSH4 0x23B872DD EQ PUSH2 0x4144 JUMPI DUP1 PUSH4 0x268DA74D EQ PUSH2 0x3D79 JUMPI DUP1 PUSH4 0x2CA021D5 EQ PUSH2 0x3D57 JUMPI DUP1 PUSH4 0x305A67A8 EQ PUSH2 0x3CD5 JUMPI DUP1 PUSH4 0x30F37C7F EQ PUSH2 0x3C13 JUMPI DUP1 PUSH4 0x33AE955E EQ PUSH2 0x3BCF JUMPI DUP1 PUSH4 0x394C779A EQ PUSH2 0x3969 JUMPI DUP1 PUSH4 0x3F706D91 EQ PUSH2 0x394D JUMPI DUP1 PUSH4 0x42842E0E EQ PUSH2 0x391A JUMPI DUP1 PUSH4 0x431744C3 EQ PUSH2 0x1DD4 JUMPI DUP1 PUSH4 0x46BE4CB5 EQ PUSH2 0x3603 JUMPI DUP1 PUSH4 0x48D85EC4 EQ PUSH2 0x32B8 JUMPI DUP1 PUSH4 0x4A3B68CC EQ PUSH2 0x327D JUMPI DUP1 PUSH4 0x4F84D9FD EQ PUSH2 0x3248 JUMPI DUP1 PUSH4 0x51CECC80 EQ PUSH2 0x3077 JUMPI DUP1 PUSH4 0x51ED8288 EQ PUSH2 0x2ED6 JUMPI DUP1 PUSH4 0x5223AB2D EQ PUSH2 0x2E88 JUMPI DUP1 PUSH4 0x53AAA63B EQ PUSH2 0x2E4E JUMPI DUP1 PUSH4 0x5C9302C9 EQ PUSH2 0x2E30 JUMPI DUP1 PUSH4 0x6352211E EQ PUSH2 0x2E00 JUMPI DUP1 PUSH4 0x65A372E0 EQ PUSH2 0x2D34 JUMPI DUP1 PUSH4 0x685AD315 EQ PUSH2 0x2C89 JUMPI DUP1 PUSH4 0x6DCEE4CA EQ PUSH2 0x2995 JUMPI DUP1 PUSH4 0x6F6CB6BC EQ PUSH2 0x2973 JUMPI DUP1 PUSH4 0x70A08231 EQ PUSH2 0x28DC JUMPI DUP1 PUSH4 0x715018A6 EQ PUSH2 0x2891 JUMPI DUP1 PUSH4 0x7503E1B7 EQ PUSH2 0x27F2 JUMPI DUP1 PUSH4 0x7A2BF277 EQ PUSH2 0x26A7 JUMPI DUP1 PUSH4 0x81872B5E EQ PUSH2 0x262F JUMPI DUP1 PUSH4 0x81A96AF5 EQ PUSH2 0x25F5 JUMPI DUP1 PUSH4 0x84147B61 EQ PUSH2 0x25AB JUMPI DUP1 PUSH4 0x842E2981 EQ PUSH2 0x2533 JUMPI DUP1 PUSH4 0x84A3A0F3 EQ PUSH2 0x1DD4 JUMPI DUP1 PUSH4 0x852EFC3D EQ PUSH2 0x2515 JUMPI DUP1 PUSH4 0x87C35BC0 EQ PUSH2 0x23F9 JUMPI DUP1 PUSH4 0x8A78EC4D EQ PUSH2 0x217A JUMPI DUP1 PUSH4 0x8DA5CB5B EQ PUSH2 0x2151 JUMPI DUP1 PUSH4 0x8F4D9964 EQ PUSH2 0x2103 JUMPI DUP1 PUSH4 0x94383F14 EQ PUSH2 0x1FF8 JUMPI DUP1 PUSH4 0x95D89B41 EQ PUSH2 0x1F33 JUMPI DUP1 PUSH4 0x96D61330 EQ PUSH2 0x1F11 JUMPI DUP1 PUSH4 0x9B211FC4 EQ PUSH2 0x1ED7 JUMPI DUP1 PUSH4 0x9B4B2C9C EQ PUSH2 0x1DF7 JUMPI DUP1 PUSH4 0x9F9D903A EQ PUSH2 0x1DD9 JUMPI DUP1 PUSH4 0xA07964E5 EQ PUSH2 0x1DD4 JUMPI DUP1 PUSH4 0xA168FA89 EQ PUSH2 0x1DA8 JUMPI DUP1 PUSH4 0xA22CB465 EQ PUSH2 0x1CDD JUMPI DUP1 PUSH4 0xA69D25AB EQ PUSH2 0x1C59 JUMPI DUP1 PUSH4 0xAA3B47C0 EQ PUSH2 0x1A91 JUMPI DUP1 PUSH4 0xB06AE5B0 EQ PUSH2 0x1A02 JUMPI DUP1 PUSH4 0xB0E36015 EQ PUSH2 0x19DA JUMPI DUP1 PUSH4 0xB3CBC19E EQ PUSH2 0x17FC JUMPI DUP1 PUSH4 0xB5D5B5FA EQ PUSH2 0x17B2 JUMPI DUP1 PUSH4 0xB88D4FDE EQ PUSH2 0x172B JUMPI DUP1 PUSH4 0xBBDDACA3 EQ PUSH2 0x1682 JUMPI DUP1 PUSH4 0xC13D4EC4 EQ PUSH2 0x1659 JUMPI DUP1 PUSH4 0xC1DFA0BB EQ PUSH2 0x13CE JUMPI DUP1 PUSH4 0xC2A8B11B EQ PUSH2 0x1313 JUMPI DUP1 PUSH4 0xC50A57F3 EQ PUSH2 0x1069 JUMPI DUP1 PUSH4 0xC87B56DD EQ PUSH2 0xF50 JUMPI DUP1 PUSH4 0xC8B1F25C EQ PUSH2 0xF1F JUMPI DUP1 PUSH4 0xD115CAC6 EQ PUSH2 0xCB3 JUMPI DUP1 PUSH4 0xD2A3D240 EQ PUSH2 0xC1F JUMPI DUP1 PUSH4 0xD4D9A7FB EQ PUSH2 0xC01 JUMPI DUP1 PUSH4 0xD5A44F86 EQ PUSH2 0xBA2 JUMPI DUP1 PUSH4 0xD9320985 EQ PUSH2 0xAEC JUMPI DUP1 PUSH4 0xD981CAB4 EQ PUSH2 0x89B JUMPI DUP1 PUSH4 0xDBD486A6 EQ PUSH2 0x795 JUMPI DUP1 PUSH4 0xDE74E57B EQ PUSH2 0x73A JUMPI DUP1 PUSH4 0xE985E9C5 EQ PUSH2 0x6E4 JUMPI DUP1 PUSH4 0xEBF03FEB EQ PUSH2 0x58C JUMPI DUP1 PUSH4 0xEED5E8D6 EQ PUSH2 0x534 JUMPI DUP1 PUSH4 0xF2FDE38B EQ PUSH2 0x483 JUMPI DUP1 PUSH4 0xF31229CC EQ PUSH2 0x3EE JUMPI PUSH4 0xF7316DE7 EQ PUSH2 0x3BB JUMPI PUSH1 0x0 DUP1 REVERT JUMPDEST CALLVALUE PUSH2 0x3E9 JUMPI PUSH1 0x40 CALLDATASIZE PUSH1 0x3 NOT ADD SLT PUSH2 0x3E9 JUMPI PUSH1 0x20 PUSH2 0x3E1 PUSH2 0x3D9 PUSH2 0x483C JUMP JUMPDEST PUSH1 0x4 CALLDATALOAD PUSH2 0x5213 JUMP JUMPDEST PUSH1 0x40 MLOAD SWAP1 DUP2 MSTORE RETURN JUMPDEST PUSH1 0x0 DUP1 REVERT JUMPDEST CALLVALUE PUSH2 0x3E9 JUMPI PUSH1 0x20 CALLDATASIZE PUSH1 0x3 NOT ADD SLT PUSH2 0x3E9 JUMPI PUSH1 0x4 CALLDATALOAD PUSH1 0x0 MSTORE PUSH1 0x18 PUSH1 0x20 MSTORE PUSH1 0x40 PUSH1 0x0 KECCAK256 DUP1 SLOAD PUSH2 0x41D PUSH1 0x1 DUP4 ADD PUSH2 0x4A7C JUMP JUMPDEST SWAP2 PUSH1 0x2 DUP2 ADD SLOAD SWAP1 PUSH1 0x3 DUP2 ADD SLOAD SWAP1 PUSH1 0x5 PUSH1 0x4 DUP3 ADD SLOAD SWAP2 ADD SLOAD SWAP2 PUSH2 0x451 PUSH1 0x40 MLOAD SWAP7 DUP8 SWAP7 DUP8 MSTORE PUSH1 0xE0 PUSH1 0x20 DUP9 ADD MSTORE PUSH1 0xE0 DUP8 ADD SWAP1 PUSH2 0x4801 JUMP JUMPDEST PUSH1 0x40 DUP7 ADD SWAP5 SWAP1 SWAP5 MSTORE PUSH1 0x60 DUP6 ADD MSTORE PUSH1 0xFF DUP2 AND ISZERO ISZERO PUSH1 0x80 DUP6 ADD MSTORE PUSH1 0x8 SHR PUSH1 0x1 PUSH1 0x1 PUSH1 0xA0 SHL SUB AND PUSH1 0xA0 DUP5 ADD MSTORE PUSH1 0xC0 DUP4 ADD MSTORE SUB SWAP1 RETURN JUMPDEST CALLVALUE PUSH2 0x3E9 JUMPI PUSH1 0x20 CALLDATASIZE PUSH1 0x3 NOT ADD SLT PUSH2 0x3E9 JUMPI PUSH2 0x49C PUSH2 0x4826 JUMP JUMPDEST PUSH2 0x4A4 PUSH2 0x4B8E JUMP JUMPDEST PUSH1 0x1 PUSH1 0x1 PUSH1 0xA0 SHL SUB SWAP1 DUP2 AND SWAP1 DUP2 ISZERO PUSH2 0x4E0 JUMPI PUSH1 0x7 DUP1 SLOAD PUSH1 0x1 PUSH1 0x1 PUSH1 0xA0 SHL SUB NOT DUP2 AND DUP5 OR SWAP1 SWAP2 SSTORE AND PUSH1 0x0 DUP1 MLOAD PUSH1 0x20 PUSH2 0x5693 DUP4 CODECOPY DUP2 MLOAD SWAP2 MSTORE PUSH1 0x0 DUP1 LOG3 STOP JUMPDEST PUSH1 0x40 MLOAD PUSH3 0x461BCD PUSH1 0xE5 SHL DUP2 MSTORE PUSH1 0x20 PUSH1 0x4 DUP3 ADD MSTORE PUSH1 0x26 PUSH1 0x24 DUP3 ADD MSTORE PUSH32 0x4F776E61626C653A206E6577206F776E657220697320746865207A65726F2061 PUSH1 0x44 DUP3 ADD MSTORE PUSH6 0x646472657373 PUSH1 0xD0 SHL PUSH1 0x64 DUP3 ADD MSTORE PUSH1 0x84 SWAP1 REVERT JUMPDEST CALLVALUE PUSH2 0x3E9 JUMPI PUSH1 0x40 CALLDATASIZE PUSH1 0x3 NOT ADD SLT PUSH2 0x3E9 JUMPI PUSH2 0x54D PUSH2 0x4826 JUMP JUMPDEST PUSH1 0x1 PUSH1 0x1 PUSH1 0xA0 SHL SUB AND PUSH1 0x0 SWAP1 DUP2 MSTORE PUSH1 0x17 PUSH1 0x20 MSTORE PUSH1 0x40 SWAP1 KECCAK256 DUP1 SLOAD PUSH1 0x24 CALLDATALOAD SWAP2 SWAP1 DUP3 LT ISZERO PUSH2 0x3E9 JUMPI PUSH1 0x20 SWAP2 PUSH2 0x57E SWAP2 PUSH2 0x4B5D JUMP JUMPDEST SWAP1 SLOAD PUSH1 0x40 MLOAD SWAP2 PUSH1 0x3 SHL SHR DUP2 MSTORE RETURN JUMPDEST CALLVALUE PUSH2 0x3E9 JUMPI PUSH1 0x20 DUP1 PUSH1 0x3 NOT CALLDATASIZE ADD SLT PUSH2 0x3E9 JUMPI PUSH1 0x4 CALLDATALOAD SWAP1 PUSH2 0x5AA PUSH2 0x4B8E JUMP JUMPDEST DUP2 PUSH1 0x0 MSTORE PUSH1 0x1F DUP2 MSTORE PUSH1 0x3 PUSH1 0x40 PUSH1 0x0 KECCAK256 ADD SLOAD ISZERO PUSH2 0x6A9 JUMPI DUP2 PUSH1 0x0 MSTORE PUSH1 0x1F DUP2 MSTORE PUSH1 0x3 PUSH1 0x40 PUSH1 0x0 KECCAK256 ADD SLOAD TIMESTAMP LT PUSH2 0x66D JUMPI DUP2 PUSH1 0x0 MSTORE PUSH1 0x1F DUP2 MSTORE PUSH1 0x4 PUSH1 0x40 PUSH1 0x0 KECCAK256 ADD SLOAD TIMESTAMP GT PUSH2 0x637 JUMPI PUSH1 0x1F SWAP1 PUSH1 0x22 SLOAD DUP1 PUSH2 0x61B JUMPI JUMPDEST POP DUP3 PUSH1 0x0 MSTORE MSTORE PUSH1 0x8 PUSH1 0x40 PUSH1 0x0 KECCAK256 ADD PUSH1 0x1 PUSH1 0xFF NOT DUP3 SLOAD AND OR SWAP1 SSTORE PUSH1 0x22 SSTORE PUSH1 0x0 DUP1 RETURN JUMPDEST PUSH1 0x0 MSTORE DUP2 DUP2 MSTORE PUSH1 0x8 PUSH1 0x40 PUSH1 0x0 KECCAK256 ADD PUSH1 0xFF NOT DUP2 SLOAD AND SWAP1 SSTORE DUP4 PUSH2 0x5FA JUMP JUMPDEST PUSH1 0x64 SWAP1 PUSH1 0x40 MLOAD SWAP1 PUSH3 0x461BCD PUSH1 0xE5 SHL DUP3 MSTORE PUSH1 0x4 DUP3 ADD MSTORE PUSH1 0xF PUSH1 0x24 DUP3 ADD MSTORE PUSH15 0x115D995B9D081A185CC8195B991959 PUSH1 0x8A SHL PUSH1 0x44 DUP3 ADD MSTORE REVERT JUMPDEST PUSH1 0x64 SWAP1 PUSH1 0x40 MLOAD SWAP1 PUSH3 0x461BCD PUSH1 0xE5 SHL DUP3 MSTORE PUSH1 0x4 DUP3 ADD MSTORE PUSH1 0x15 PUSH1 0x24 DUP3 ADD MSTORE PUSH21 0x115D995B9D081B9BDD081CDD185C9D1959081E595D PUSH1 0x5A SHL PUSH1 0x44 DUP3 ADD MSTORE REVERT JUMPDEST PUSH1 0x64 SWAP1 PUSH1 0x40 MLOAD SWAP1 PUSH3 0x461BCD PUSH1 0xE5 SHL DUP3 MSTORE PUSH1 0x4 DUP3 ADD MSTORE PUSH1 0x14 PUSH1 0x24 DUP3 ADD MSTORE PUSH20 0x115D995B9D08191BD95CC81B9BDD08195E1A5CDD PUSH1 0x62 SHL PUSH1 0x44 DUP3 ADD MSTORE REVERT JUMPDEST CALLVALUE PUSH2 0x3E9 JUMPI PUSH1 0x40 CALLDATASIZE PUSH1 0x3 NOT ADD SLT PUSH2 0x3E9 JUMPI PUSH2 0x6FD PUSH2 0x4826 JUMP JUMPDEST PUSH2 0x705 PUSH2 0x483C JUMP JUMPDEST SWAP1 PUSH1 0x1 DUP1 PUSH1 0xA0 SHL SUB DUP1 SWAP2 AND PUSH1 0x0 MSTORE PUSH1 0x5 PUSH1 0x20 MSTORE PUSH1 0x40 PUSH1 0x0 KECCAK256 SWAP2 AND PUSH1 0x0 MSTORE PUSH1 0x20 MSTORE PUSH1 0x20 PUSH1 0xFF PUSH1 0x40 PUSH1 0x0 KECCAK256 SLOAD AND PUSH1 0x40 MLOAD SWAP1 ISZERO ISZERO DUP2 MSTORE RETURN JUMPDEST CALLVALUE PUSH2 0x3E9 JUMPI PUSH1 0x20 CALLDATASIZE PUSH1 0x3 NOT ADD SLT PUSH2 0x3E9 JUMPI PUSH1 0x4 CALLDATALOAD PUSH1 0x0 MSTORE PUSH1 0x1C PUSH1 0x20 MSTORE PUSH1 0x80 PUSH1 0x40 PUSH1 0x0 KECCAK256 DUP1 SLOAD SWAP1 PUSH1 0x1 DUP1 PUSH1 0xA0 SHL SUB PUSH1 0x1 DUP3 ADD SLOAD AND SWAP1 PUSH1 0xFF PUSH1 0x3 PUSH1 0x2 DUP4 ADD SLOAD SWAP3 ADD SLOAD AND SWAP2 PUSH1 0x40 MLOAD SWAP4 DUP5 MSTORE PUSH1 0x20 DUP5 ADD MSTORE PUSH1 0x40 DUP4 ADD MSTORE ISZERO ISZERO PUSH1 0x60 DUP3 ADD MSTORE RETURN JUMPDEST CALLVALUE PUSH2 0x3E9 JUMPI PUSH1 0x40 CALLDATASIZE PUSH1 0x3 NOT ADD SLT PUSH2 0x3E9 JUMPI PUSH1 0xE0 PUSH2 0x7B0 PUSH2 0x483C JUMP JUMPDEST PUSH1 0x40 MLOAD PUSH2 0x7BC DUP2 PUSH2 0x48DA JUMP JUMPDEST PUSH1 0x0 DUP2 MSTORE PUSH1 0x0 PUSH1 0xC0 PUSH1 0x20 SWAP3 DUP3 DUP5 DUP3 ADD MSTORE DUP3 PUSH1 0x40 DUP3 ADD MSTORE DUP3 PUSH1 0x60 DUP3 ADD MSTORE DUP3 PUSH1 0x80 DUP3 ADD MSTORE DUP3 PUSH1 0xA0 DUP3 ADD MSTORE ADD MSTORE PUSH1 0x4 CALLDATALOAD PUSH1 0x0 MSTORE DUP1 DUP1 MSTORE PUSH1 0x40 PUSH1 0x0 KECCAK256 PUSH1 0x1 DUP1 PUSH1 0xA0 SHL SUB DUP1 SWAP4 AND PUSH1 0x0 MSTORE DUP2 MSTORE PUSH1 0x40 PUSH1 0x0 KECCAK256 PUSH1 0x40 MLOAD SWAP2 PUSH2 0x815 DUP4 PUSH2 0x48DA JUMP JUMPDEST DUP2 SLOAD SWAP4 DUP5 DUP5 MSTORE DUP1 PUSH1 0x1 DUP5 ADD SLOAD AND SWAP2 DUP1 DUP6 ADD SWAP3 DUP4 MSTORE PUSH1 0x2 DUP5 ADD SLOAD SWAP1 PUSH1 0x40 DUP7 ADD SWAP2 DUP3 MSTORE PUSH1 0x3 DUP6 ADD SLOAD SWAP3 PUSH1 0x60 DUP8 ADD SWAP4 DUP5 MSTORE PUSH1 0x4 DUP7 ADD SLOAD SWAP5 PUSH1 0x80 DUP9 ADD SWAP6 DUP7 MSTORE PUSH1 0xC0 PUSH1 0xFF PUSH1 0x6 PUSH1 0x5 DUP11 ADD SLOAD SWAP10 PUSH1 0xA0 DUP13 ADD SWAP11 DUP12 MSTORE ADD SLOAD AND SWAP9 ADD SWAP8 ISZERO ISZERO DUP9 MSTORE PUSH1 0x40 MLOAD SWAP9 DUP10 MSTORE MLOAD AND SWAP1 DUP8 ADD MSTORE MLOAD PUSH1 0x40 DUP7 ADD MSTORE MLOAD PUSH1 0x60 DUP6 ADD MSTORE MLOAD PUSH1 0x80 DUP5 ADD MSTORE MLOAD PUSH1 0xA0 DUP4 ADD MSTORE MLOAD ISZERO ISZERO PUSH1 0xC0 DUP3 ADD MSTORE RETURN JUMPDEST PUSH2 0x8A4 CALLDATASIZE PUSH2 0x4A2C JUMP JUMPDEST PUSH2 0x8BE PUSH2 0x8B6 CALLER PUSH2 0xE10 DUP5 DIV DUP6 PUSH2 0x51B8 JUMP JUMPDEST CALLVALUE LT ISZERO PUSH2 0x5427 JUMP JUMPDEST PUSH1 0xA SLOAD PUSH1 0xC SLOAD SWAP1 PUSH1 0xD SLOAD SWAP2 PUSH1 0x40 MLOAD SWAP1 PUSH4 0x5D3B1D3 PUSH1 0xE4 SHL DUP3 MSTORE PUSH1 0x4 DUP3 ADD MSTORE PUSH1 0x24 SWAP2 PUSH1 0x1 DUP1 PUSH1 0x40 SHL SUB DUP2 PUSH1 0xA0 SHR AND DUP4 DUP4 ADD MSTORE PUSH1 0x20 SWAP4 PUSH2 0xFFFF DUP2 DUP7 SHR AND PUSH1 0x44 DUP5 ADD MSTORE PUSH4 0xFFFFFFFF SWAP1 DUP2 DUP2 AND PUSH1 0x64 DUP6 ADD MSTORE PUSH1 0x30 SHR AND PUSH1 0x84 DUP4 ADD MSTORE DUP4 DUP3 PUSH1 0xA4 DUP2 PUSH1 0x0 PUSH1 0x1 DUP1 PUSH1 0xA0 SHL SUB DUP1 SWAP7 AND GAS CALL SWAP2 DUP3 ISZERO PUSH2 0xAE0 JUMPI PUSH1 0x0 SWAP3 PUSH2 0xAB1 JUMPI JUMPDEST POP PUSH1 0x40 MLOAD PUSH2 0x944 DUP2 PUSH2 0x48A4 JUMP JUMPDEST PUSH1 0x2 DUP2 MSTORE DUP5 DUP2 ADD SWAP1 CALLER DUP3 MSTORE PUSH1 0x40 DUP2 ADD PUSH1 0x0 DUP2 MSTORE PUSH1 0x60 DUP3 ADD SWAP4 PUSH1 0x0 DUP6 MSTORE PUSH1 0x80 DUP4 ADD SWAP4 PUSH1 0x0 DUP6 MSTORE PUSH1 0x15 SLOAD PUSH1 0x1 PUSH1 0x40 SHL DUP2 LT ISZERO PUSH2 0xA9C JUMPI DUP1 PUSH1 0x1 PUSH2 0x988 SWAP3 ADD PUSH1 0x15 SSTORE PUSH2 0x4852 JUMP JUMPDEST SWAP5 SWAP1 SWAP5 PUSH2 0xA87 JUMPI SWAP2 PUSH2 0x9C0 SWAP2 PUSH1 0x2 SWAP6 SWAP5 SWAP4 MLOAD PUSH2 0x9A3 DUP2 PUSH2 0x4871 JUMP JUMPDEST PUSH2 0x9AC DUP2 PUSH2 0x4871 JUMP JUMPDEST PUSH1 0xFF DUP1 NOT DUP8 SLOAD AND SWAP2 AND OR DUP6 SSTORE MLOAD AND DUP4 PUSH2 0x5287 JUMP JUMPDEST MLOAD PUSH1 0x1 DUP3 ADD SSTORE ADD SWAP2 MLOAD PUSH1 0x4 DUP2 LT ISZERO PUSH2 0xA72 JUMPI PUSH2 0x9DC SWAP1 DUP4 PUSH2 0x526F JUMP JUMPDEST MLOAD PUSH1 0x4 DUP2 LT ISZERO PUSH2 0xA5D JUMPI DUP2 SLOAD PUSH2 0xFF00 NOT AND PUSH1 0x8 SWAP2 SWAP1 SWAP2 SHL PUSH2 0xFF00 AND OR SWAP1 SSTORE PUSH1 0x15 SLOAD PUSH1 0x0 NOT DUP2 ADD SWAP3 SWAP1 DUP4 GT PUSH2 0xA49 JUMPI POP PUSH1 0x0 MSTORE PUSH1 0x10 DUP3 MSTORE PUSH1 0x40 PUSH1 0x0 KECCAK256 SSTORE PUSH1 0x40 MLOAD SWAP3 DUP4 MSTORE DUP3 ADD MSTORE PUSH32 0x236EA7D9908E78AE51AA5C8C4F7C86966899C44C432A0E0D009EBBBB83755404 PUSH1 0x40 CALLER SWAP3 LOG2 STOP JUMPDEST PUSH4 0x4E487B71 PUSH1 0xE0 SHL PUSH1 0x0 SWAP1 DUP2 MSTORE PUSH1 0x11 PUSH1 0x4 MSTORE REVERT JUMPDEST DUP4 PUSH4 0x4E487B71 PUSH1 0xE0 SHL PUSH1 0x0 MSTORE PUSH1 0x21 PUSH1 0x4 MSTORE PUSH1 0x0 REVERT JUMPDEST DUP5 PUSH4 0x4E487B71 PUSH1 0xE0 SHL PUSH1 0x0 MSTORE PUSH1 0x21 PUSH1 0x4 MSTORE PUSH1 0x0 REVERT JUMPDEST DUP9 PUSH4 0x4E487B71 PUSH1 0xE0 SHL PUSH1 0x0 MSTORE PUSH1 0x0 PUSH1 0x4 MSTORE PUSH1 0x0 REVERT JUMPDEST DUP9 PUSH4 0x4E487B71 PUSH1 0xE0 SHL PUSH1 0x0 MSTORE PUSH1 0x41 PUSH1 0x4 MSTORE PUSH1 0x0 REVERT JUMPDEST SWAP1 SWAP2 POP DUP4 DUP2 DUP2 RETURNDATASIZE DUP4 GT PUSH2 0xAD9 JUMPI JUMPDEST PUSH2 0xAC9 DUP2 DUP4 PUSH2 0x492B JUMP JUMPDEST DUP2 ADD SUB SLT PUSH2 0x3E9 JUMPI MLOAD SWAP1 DUP7 PUSH2 0x937 JUMP JUMPDEST POP RETURNDATASIZE PUSH2 0xABF JUMP JUMPDEST PUSH1 0x40 MLOAD RETURNDATASIZE PUSH1 0x0 DUP3 RETURNDATACOPY RETURNDATASIZE SWAP1 REVERT JUMPDEST CALLVALUE PUSH2 0x3E9 JUMPI PUSH1 0x60 CALLDATASIZE PUSH1 0x3 NOT ADD SLT PUSH2 0x3E9 JUMPI PUSH1 0x4 CALLDATALOAD PUSH1 0x44 CALLDATALOAD PUSH1 0x1 PUSH1 0x1 PUSH1 0x40 SHL SUB DUP2 GT PUSH2 0x3E9 JUMPI PUSH2 0xB1F SWAP1 CALLDATASIZE SWAP1 PUSH1 0x4 ADD PUSH2 0x49EC JUMP JUMPDEST POP PUSH2 0xB28 PUSH2 0x4B8E JUMP JUMPDEST DUP1 PUSH1 0x0 MSTORE PUSH1 0xF PUSH1 0x20 MSTORE PUSH1 0x1 PUSH1 0x40 PUSH1 0x0 KECCAK256 ADD PUSH2 0xB46 PUSH1 0x24 CALLDATALOAD DUP3 SLOAD PUSH2 0x5466 JUMP JUMPDEST SWAP1 SSTORE DUP1 PUSH1 0x0 MSTORE PUSH1 0xF PUSH1 0x20 MSTORE PUSH1 0x64 PUSH1 0x1 PUSH1 0x40 PUSH1 0x0 KECCAK256 ADD SLOAD DIV SWAP1 PUSH1 0x1 DUP3 ADD DUP1 SWAP3 GT PUSH2 0xB8C JUMPI PUSH1 0x0 MSTORE PUSH1 0xF PUSH1 0x20 MSTORE PUSH1 0x40 PUSH1 0x0 KECCAK256 SWAP1 DUP2 SLOAD DUP2 GT PUSH2 0xB81 JUMPI STOP JUMPDEST DUP2 SSTORE TIMESTAMP PUSH1 0x3 SWAP1 SWAP2 ADD SSTORE STOP JUMPDEST PUSH4 0x4E487B71 PUSH1 0xE0 SHL PUSH1 0x0 MSTORE PUSH1 0x11 PUSH1 0x4 MSTORE PUSH1 0x24 PUSH1 0x0 REVERT JUMPDEST CALLVALUE PUSH2 0x3E9 JUMPI PUSH1 0x20 CALLDATASIZE PUSH1 0x3 NOT ADD SLT PUSH2 0x3E9 JUMPI PUSH1 0x4 CALLDATALOAD PUSH1 0x0 MSTORE PUSH1 0x1D PUSH1 0x20 MSTORE PUSH1 0xA0 PUSH1 0x40 PUSH1 0x0 KECCAK256 DUP1 SLOAD SWAP1 PUSH1 0x1 DUP1 DUP5 SHL SUB PUSH1 0x1 DUP3 ADD SLOAD AND SWAP1 PUSH1 0x2 DUP2 ADD SLOAD PUSH1 0x4 PUSH1 0x3 DUP4 ADD SLOAD SWAP3 ADD SLOAD SWAP3 PUSH1 0x40 MLOAD SWAP5 DUP6 MSTORE PUSH1 0x20 DUP6 ADD MSTORE PUSH1 0x40 DUP5 ADD MSTORE PUSH1 0x60 DUP4 ADD MSTORE PUSH1 0x80 DUP3 ADD MSTORE RETURN JUMPDEST CALLVALUE PUSH2 0x3E9 JUMPI PUSH1 0x0 CALLDATASIZE PUSH1 0x3 NOT ADD SLT PUSH2 0x3E9 JUMPI PUSH1 0x20 PUSH1 0x22 SLOAD PUSH1 0x40 MLOAD SWAP1 DUP2 MSTORE RETURN JUMPDEST CALLVALUE PUSH2 0x3E9 JUMPI PUSH1 0x20 CALLDATASIZE PUSH1 0x3 NOT ADD SLT PUSH2 0x3E9 JUMPI PUSH1 0x0 PUSH1 0x60 PUSH1 0x40 MLOAD PUSH2 0xC40 DUP2 PUSH2 0x48BF JUMP JUMPDEST DUP3 DUP2 MSTORE DUP3 PUSH1 0x20 DUP3 ADD MSTORE DUP3 PUSH1 0x40 DUP3 ADD MSTORE ADD MSTORE PUSH1 0x4 CALLDATALOAD PUSH1 0x0 MSTORE PUSH1 0xF PUSH1 0x20 MSTORE PUSH1 0x80 PUSH1 0x40 PUSH1 0x0 KECCAK256 PUSH1 0x40 MLOAD PUSH2 0xC6F DUP2 PUSH2 0x48BF JUMP JUMPDEST DUP2 SLOAD SWAP2 DUP3 DUP3 MSTORE PUSH1 0x1 DUP2 ADD SLOAD PUSH1 0x20 DUP4 ADD SWAP1 DUP2 MSTORE PUSH1 0x60 PUSH1 0x3 PUSH1 0x2 DUP5 ADD SLOAD SWAP4 PUSH1 0x40 DUP7 ADD SWAP5 DUP6 MSTORE ADD SLOAD SWAP4 ADD SWAP3 DUP4 MSTORE PUSH1 0x40 MLOAD SWAP4 DUP5 MSTORE MLOAD PUSH1 0x20 DUP5 ADD MSTORE MLOAD PUSH1 0x40 DUP4 ADD MSTORE MLOAD PUSH1 0x60 DUP3 ADD MSTORE RETURN JUMPDEST PUSH1 0x20 DUP1 PUSH1 0x3 NOT CALLDATASIZE ADD SLT PUSH2 0x3E9 JUMPI PUSH1 0x4 CALLDATALOAD SWAP1 PUSH2 0xCCC PUSH2 0x52CF JUMP JUMPDEST DUP2 PUSH1 0x0 MSTORE PUSH1 0x16 DUP2 MSTORE PUSH1 0x40 PUSH1 0x0 KECCAK256 PUSH1 0xFF PUSH1 0x7 DUP3 ADD SLOAD AND ISZERO PUSH2 0xEE2 JUMPI PUSH1 0x4 DUP2 ADD SLOAD TIMESTAMP LT ISZERO PUSH2 0xEAA JUMPI PUSH1 0x2 DUP2 ADD SLOAD CALLVALUE LT PUSH2 0xE6C JUMPI PUSH1 0x0 SWAP1 PUSH1 0x6 DUP2 ADD DUP1 SLOAD SWAP3 JUMPDEST DUP4 DUP2 LT PUSH2 0xE06 JUMPI POP PUSH1 0x1 PUSH1 0x40 SHL DUP4 LT ISZERO PUSH2 0xDF0 JUMPI DUP3 PUSH2 0xD2E SWAP2 PUSH1 0x1 PUSH1 0x5 SWAP6 ADD DUP2 SSTORE PUSH2 0x4B5D JUMP JUMPDEST DUP2 SLOAD SWAP1 PUSH1 0x3 SHL SWAP1 CALLER DUP3 SHL SWAP2 PUSH1 0x1 DUP1 PUSH1 0xA0 SHL SUB SWAP1 SHL NOT AND OR SWAP1 SSTORE ADD PUSH2 0xD53 CALLVALUE DUP3 SLOAD PUSH2 0x5466 JUMP JUMPDEST SWAP1 SSTORE CALLER PUSH1 0x0 MSTORE PUSH1 0x17 DUP2 MSTORE PUSH2 0xD6B DUP3 PUSH1 0x40 PUSH1 0x0 KECCAK256 PUSH2 0x52AC JUMP JUMPDEST PUSH1 0x22 SLOAD DUP1 ISZERO ISZERO DUP1 PUSH2 0xDD6 JUMPI JUMPDEST PUSH2 0xDAA JUMPI JUMPDEST CALLER DUP4 PUSH32 0x89CA95D0269F7F17639B228EF19CF566AAC5EC3343BF708A77A0B924AB96AB8 PUSH1 0x0 DUP1 LOG3 PUSH1 0x1 PUSH1 0x8 SSTORE STOP JUMPDEST PUSH1 0x0 MSTORE DUP1 DUP1 MSTORE PUSH1 0x40 PUSH1 0x0 KECCAK256 SWAP1 CALLER PUSH1 0x0 MSTORE MSTORE PUSH1 0x2 PUSH1 0x40 PUSH1 0x0 KECCAK256 ADD PUSH2 0xDCD DUP2 SLOAD PUSH2 0x55D5 JUMP JUMPDEST SWAP1 SSTORE DUP2 DUP1 PUSH2 0xD7C JUMP JUMPDEST POP DUP1 PUSH1 0x0 MSTORE PUSH1 0x1F DUP3 MSTORE PUSH1 0xFF PUSH1 0x8 PUSH1 0x40 PUSH1 0x0 KECCAK256 ADD SLOAD AND PUSH2 0xD77 JUMP JUMPDEST PUSH4 0x4E487B71 PUSH1 0xE0 SHL PUSH1 0x0 MSTORE PUSH1 0x41 PUSH1 0x4 MSTORE PUSH1 0x24 PUSH1 0x0 REVERT JUMPDEST PUSH2 0xE10 DUP2 DUP4 PUSH2 0x4B5D JUMP JUMPDEST SWAP1 SLOAD PUSH1 0x3 SWAP2 SWAP1 SWAP2 SHL SHR PUSH1 0x1 PUSH1 0x1 PUSH1 0xA0 SHL SUB AND CALLER EQ PUSH2 0xE36 JUMPI PUSH2 0xE31 SWAP1 PUSH2 0x55D5 JUMP JUMPDEST PUSH2 0xD08 JUMP JUMPDEST PUSH1 0x40 MLOAD PUSH3 0x461BCD PUSH1 0xE5 SHL DUP2 MSTORE PUSH1 0x4 DUP2 ADD DUP7 SWAP1 MSTORE PUSH1 0xE PUSH1 0x24 DUP3 ADD MSTORE PUSH14 0x105B1C9958591E481A9BDA5B9959 PUSH1 0x92 SHL PUSH1 0x44 DUP3 ADD MSTORE PUSH1 0x64 SWAP1 REVERT JUMPDEST PUSH1 0x40 MLOAD PUSH3 0x461BCD PUSH1 0xE5 SHL DUP2 MSTORE PUSH1 0x4 DUP2 ADD DUP4 SWAP1 MSTORE PUSH1 0x16 PUSH1 0x24 DUP3 ADD MSTORE PUSH22 0x496E73756666696369656E7420656E74727920666565 PUSH1 0x50 SHL PUSH1 0x44 DUP3 ADD MSTORE PUSH1 0x64 SWAP1 REVERT JUMPDEST PUSH1 0x40 MLOAD PUSH3 0x461BCD PUSH1 0xE5 SHL DUP2 MSTORE PUSH1 0x4 DUP2 ADD DUP4 SWAP1 MSTORE PUSH1 0x10 PUSH1 0x24 DUP3 ADD MSTORE PUSH16 0x151BDD5C9B985B595B9D08195B991959 PUSH1 0x82 SHL PUSH1 0x44 DUP3 ADD MSTORE PUSH1 0x64 SWAP1 REVERT JUMPDEST PUSH1 0x40 MLOAD PUSH3 0x461BCD PUSH1 0xE5 SHL DUP2 MSTORE PUSH1 0x4 DUP2 ADD DUP4 SWAP1 MSTORE PUSH1 0x15 PUSH1 0x24 DUP3 ADD MSTORE PUSH21 0x546F75726E616D656E74206E6F7420616374697665 PUSH1 0x58 SHL PUSH1 0x44 DUP3 ADD MSTORE PUSH1 0x64 SWAP1 REVERT JUMPDEST CALLVALUE PUSH2 0x3E9 JUMPI PUSH1 0x20 CALLDATASIZE PUSH1 0x3 NOT ADD SLT PUSH2 0x3E9 JUMPI PUSH1 0x4 CALLDATALOAD PUSH1 0x4 DUP2 LT ISZERO PUSH2 0x3E9 JUMPI PUSH2 0xF47 PUSH1 0x20 SWAP2 PUSH2 0x4B75 JUMP JUMPDEST SLOAD PUSH1 0x40 MLOAD SWAP1 DUP2 MSTORE RETURN JUMPDEST CALLVALUE PUSH2 0x3E9 JUMPI PUSH1 0x20 DUP1 PUSH1 0x3 NOT CALLDATASIZE ADD SLT PUSH2 0x3E9 JUMPI PUSH1 0x4 CALLDATALOAD PUSH1 0x0 DUP2 DUP2 MSTORE PUSH1 0x2 DUP4 MSTORE PUSH1 0x40 SWAP1 KECCAK256 SLOAD PUSH1 0x1 PUSH1 0x1 PUSH1 0xA0 SHL SUB AND ISZERO PUSH2 0x102D JUMPI PUSH2 0xF8A SWAP1 PUSH2 0x5473 JUMP JUMPDEST SWAP1 PUSH2 0x1015 PUSH1 0x48 PUSH2 0xF99 TIMESTAMP PUSH2 0x5473 JUMP JUMPDEST SWAP4 PUSH1 0x40 MLOAD SWAP5 DUP6 SWAP2 PUSH32 0x68747470733A2F2F7661756C74776172732E76657263656C2E6170702F617069 DUP7 DUP5 ADD MSTORE PUSH5 0x2F6E66742F PUSH1 0xD8 SHL PUSH1 0x40 DUP5 ADD MSTORE PUSH2 0xFE6 DUP2 MLOAD DUP1 SWAP3 DUP9 PUSH1 0x45 DUP8 ADD SWAP2 ADD PUSH2 0x47DE JUMP JUMPDEST DUP3 ADD PUSH3 0x3F763D PUSH1 0xE8 SHL PUSH1 0x45 DUP3 ADD MSTORE PUSH2 0x1006 DUP3 MLOAD DUP1 SWAP4 DUP9 DUP8 DUP6 ADD SWAP2 ADD PUSH2 0x47DE JUMP JUMPDEST ADD SUB PUSH1 0x28 DUP2 ADD DUP6 MSTORE ADD DUP4 PUSH2 0x492B JUMP JUMPDEST PUSH2 0x1029 PUSH1 0x40 MLOAD SWAP3 DUP3 DUP5 SWAP4 DUP5 MSTORE DUP4 ADD SWAP1 PUSH2 0x4801 JUMP JUMPDEST SUB SWAP1 RETURN JUMPDEST PUSH1 0x40 MLOAD PUSH3 0x461BCD PUSH1 0xE5 SHL DUP2 MSTORE PUSH1 0x4 DUP2 ADD DUP4 SWAP1 MSTORE PUSH1 0x14 PUSH1 0x24 DUP3 ADD MSTORE PUSH20 0x151BDAD95B88191BD95CC81B9BDD08195E1A5CDD PUSH1 0x62 SHL PUSH1 0x44 DUP3 ADD MSTORE PUSH1 0x64 SWAP1 REVERT JUMPDEST CALLVALUE PUSH2 0x3E9 JUMPI PUSH1 0x40 CALLDATASIZE PUSH1 0x3 NOT ADD SLT PUSH2 0x3E9 JUMPI PUSH2 0x1082 PUSH2 0x4826 JUMP JUMPDEST PUSH1 0x24 CALLDATALOAD PUSH2 0x108D PUSH2 0x4B8E JUMP JUMPDEST DUP1 PUSH1 0x0 MSTORE PUSH1 0x20 SWAP2 PUSH1 0x1F DUP4 MSTORE PUSH1 0xFF PUSH1 0x8 PUSH1 0x40 PUSH1 0x0 KECCAK256 ADD SLOAD AND ISZERO PUSH2 0x12DB JUMPI DUP2 PUSH1 0x0 MSTORE PUSH1 0x1F DUP4 MSTORE PUSH1 0x40 PUSH1 0x0 KECCAK256 PUSH1 0xA PUSH1 0x9 DUP3 ADD SLOAD SWAP2 ADD SLOAD GT ISZERO PUSH2 0x129B JUMPI PUSH1 0x9 SLOAD SWAP2 PUSH1 0x1 DUP4 ADD PUSH1 0x9 SSTORE DUP1 PUSH1 0x0 MSTORE PUSH1 0x1F DUP5 MSTORE PUSH1 0x9 PUSH1 0x40 PUSH1 0x0 KECCAK256 ADD PUSH2 0x10EB DUP2 SLOAD PUSH2 0x55D5 JUMP JUMPDEST SWAP1 SSTORE PUSH2 0x10F7 DUP4 DUP4 PUSH2 0x5370 JUMP JUMPDEST PUSH1 0x40 MLOAD DUP5 DUP2 ADD SWAP2 PUSH17 0x14DC1958DA585B08115D995B9D08139195 PUSH1 0x7A SHL DUP4 MSTORE PUSH1 0x31 DUP3 ADD MSTORE DUP4 PUSH1 0x51 DUP3 ADD MSTORE PUSH1 0x51 DUP2 MSTORE PUSH2 0x112D DUP2 PUSH2 0x48BF JUMP JUMPDEST MLOAD SWAP1 KECCAK256 SWAP1 PUSH1 0x40 MLOAD PUSH2 0x113D DUP2 PUSH2 0x4888 JUMP JUMPDEST DUP4 DUP2 MSTORE DUP5 DUP2 ADD PUSH1 0x3 DUP2 MSTORE DUP5 DUP7 PUSH1 0x40 DUP5 ADD SWAP3 PUSH1 0x2 DUP5 MSTORE PUSH1 0x60 DUP6 ADD SWAP7 PUSH1 0x5 DUP9 MSTORE PUSH1 0x80 DUP7 ADD SWAP1 DUP2 MSTORE PUSH1 0xA0 DUP7 ADD ADDRESS DUP2 MSTORE PUSH1 0xC0 DUP8 ADD SWAP9 TIMESTAMP DUP11 MSTORE PUSH1 0xE0 DUP9 ADD SWAP3 PUSH1 0x0 DUP5 MSTORE PUSH2 0x100 DUP10 ADD SWAP2 PUSH1 0x0 DUP4 MSTORE PUSH1 0xE PUSH2 0x120 DUP12 ADD SWAP8 PUSH1 0x0 DUP10 MSTORE PUSH2 0x140 DUP13 ADD SWAP10 PUSH1 0x64 DUP12 MSTORE PUSH1 0x0 MSTORE MSTORE PUSH1 0x40 PUSH1 0x0 KECCAK256 SWAP10 MLOAD DUP11 SSTORE PUSH1 0x1 DUP11 ADD SWAP6 MLOAD SWAP6 PUSH1 0x4 DUP8 LT ISZERO PUSH2 0x1285 JUMPI PUSH1 0x8 SWAP10 PUSH2 0x11C7 PUSH2 0x123B SWAP9 DUP4 PUSH2 0x526F JUMP JUMPDEST MLOAD PUSH2 0x11D1 DUP2 PUSH2 0x4871 JUMP JUMPDEST PUSH2 0x11DA DUP2 PUSH2 0x4871 JUMP JUMPDEST DUP2 SLOAD PUSH2 0xFF00 NOT AND SWAP1 DUP12 SHL PUSH2 0xFF00 AND OR SWAP1 SSTORE MLOAD PUSH1 0x2 DUP11 ADD SSTORE MLOAD PUSH1 0x3 DUP10 ADD SSTORE SWAP1 MLOAD PUSH1 0x4 DUP9 ADD DUP1 SLOAD PUSH1 0x1 PUSH1 0x1 PUSH1 0xA0 SHL SUB NOT AND PUSH1 0x1 PUSH1 0x1 PUSH1 0xA0 SHL SUB SWAP3 DUP4 AND OR SWAP1 SSTORE SWAP9 MLOAD PUSH1 0x5 DUP9 ADD SSTORE SWAP1 MLOAD PUSH1 0x6 DUP8 ADD SWAP2 DUP10 SWAP2 PUSH2 0x1233 SWAP1 ISZERO ISZERO DUP5 PUSH2 0x4F15 JUMP JUMPDEST MLOAD AND SWAP1 PUSH2 0x5287 JUMP JUMPDEST MLOAD PUSH1 0x7 DUP5 ADD SSTORE MLOAD SWAP2 ADD SSTORE AND PUSH1 0x0 MSTORE PUSH1 0x13 DUP3 MSTORE PUSH2 0x125B DUP2 PUSH1 0x40 PUSH1 0x0 KECCAK256 PUSH2 0x52AC JUMP JUMPDEST PUSH1 0x2 PUSH1 0x40 MLOAD SWAP3 PUSH1 0x3 DUP5 MSTORE DUP4 ADD MSTORE PUSH1 0x5 PUSH1 0x40 DUP4 ADD MSTORE PUSH1 0x0 DUP1 MLOAD PUSH1 0x20 PUSH2 0x56B3 DUP4 CODECOPY DUP2 MLOAD SWAP2 MSTORE PUSH1 0x60 ADDRESS SWAP4 LOG3 STOP JUMPDEST PUSH4 0x4E487B71 PUSH1 0xE0 SHL PUSH1 0x0 MSTORE PUSH1 0x21 PUSH1 0x4 MSTORE PUSH1 0x24 PUSH1 0x0 REVERT JUMPDEST PUSH1 0x40 MLOAD PUSH3 0x461BCD PUSH1 0xE5 SHL DUP2 MSTORE PUSH1 0x4 DUP2 ADD DUP5 SWAP1 MSTORE PUSH1 0x18 PUSH1 0x24 DUP3 ADD MSTORE PUSH24 0x13585E081CDC1958DA585B081391951CC81C995858DA1959 PUSH1 0x42 SHL PUSH1 0x44 DUP3 ADD MSTORE PUSH1 0x64 SWAP1 REVERT JUMPDEST PUSH1 0x40 MLOAD PUSH3 0x461BCD PUSH1 0xE5 SHL DUP2 MSTORE PUSH1 0x4 DUP2 ADD DUP5 SWAP1 MSTORE PUSH1 0x10 PUSH1 0x24 DUP3 ADD MSTORE PUSH16 0x4576656E74206E6F7420616374697665 PUSH1 0x80 SHL PUSH1 0x44 DUP3 ADD MSTORE PUSH1 0x64 SWAP1 REVERT JUMPDEST CALLVALUE PUSH2 0x3E9 JUMPI PUSH1 0x20 DUP1 PUSH1 0x3 NOT CALLDATASIZE ADD SLT PUSH2 0x3E9 JUMPI PUSH1 0x4 CALLDATALOAD PUSH1 0x0 MSTORE PUSH1 0x16 DUP2 MSTORE PUSH1 0x6 PUSH1 0x40 PUSH1 0x0 KECCAK256 ADD PUSH1 0x40 MLOAD SWAP1 DUP2 DUP4 DUP3 SLOAD SWAP2 DUP3 DUP2 MSTORE ADD SWAP1 DUP2 SWAP3 PUSH1 0x0 MSTORE DUP5 PUSH1 0x0 KECCAK256 SWAP1 PUSH1 0x0 JUMPDEST DUP7 DUP3 DUP3 LT PUSH2 0x13B1 JUMPI DUP7 DUP7 PUSH2 0x1368 DUP3 DUP9 SUB DUP4 PUSH2 0x492B JUMP JUMPDEST PUSH1 0x40 MLOAD SWAP3 DUP4 SWAP3 DUP2 DUP5 ADD SWAP1 DUP3 DUP6 MSTORE MLOAD DUP1 SWAP2 MSTORE PUSH1 0x40 DUP5 ADD SWAP3 SWAP2 PUSH1 0x0 JUMPDEST DUP3 DUP2 LT PUSH2 0x1391 JUMPI POP POP POP POP SUB SWAP1 RETURN JUMPDEST DUP4 MLOAD PUSH1 0x1 PUSH1 0x1 PUSH1 0xA0 SHL SUB AND DUP6 MSTORE DUP7 SWAP6 POP SWAP4 DUP2 ADD SWAP4 SWAP3 DUP2 ADD SWAP3 PUSH1 0x1 ADD PUSH2 0x1382 JUMP JUMPDEST DUP4 SLOAD PUSH1 0x1 PUSH1 0x1 PUSH1 0xA0 SHL SUB AND DUP6 MSTORE SWAP1 SWAP4 ADD SWAP3 PUSH1 0x1 SWAP3 DUP4 ADD SWAP3 ADD PUSH2 0x1352 JUMP JUMPDEST CALLVALUE PUSH2 0x3E9 JUMPI PUSH1 0x20 DUP1 PUSH1 0x3 NOT CALLDATASIZE ADD SLT PUSH2 0x3E9 JUMPI PUSH1 0x4 CALLDATALOAD SWAP1 DUP2 PUSH1 0x0 MSTORE PUSH1 0x1D DUP2 MSTORE PUSH1 0x40 PUSH1 0x0 KECCAK256 SWAP2 PUSH1 0x40 MLOAD SWAP2 PUSH2 0x13FF DUP4 PUSH2 0x48A4 JUMP JUMPDEST DUP4 SLOAD DUP4 MSTORE PUSH1 0x1 SWAP3 PUSH1 0x1 DUP1 PUSH1 0xA0 SHL SUB DUP5 DUP7 ADD SLOAD AND SWAP5 DUP6 DUP4 DUP4 ADD MSTORE PUSH1 0x2 DUP2 ADD SLOAD PUSH1 0x40 DUP4 ADD SWAP1 DUP2 MSTORE PUSH1 0x3 SWAP7 PUSH1 0x80 PUSH1 0x4 DUP10 DUP6 ADD SLOAD SWAP5 PUSH1 0x60 DUP8 ADD SWAP6 DUP7 MSTORE ADD SLOAD SWAP5 ADD SWAP4 DUP5 MSTORE CALLER SUB PUSH2 0x1627 JUMPI MLOAD SWAP1 MLOAD PUSH2 0x1450 SWAP2 PUSH2 0x5466 JUMP JUMPDEST TIMESTAMP LT PUSH2 0x15E4 JUMPI MLOAD PUSH7 0x38D7EA4C68000 SWAP1 DUP2 DUP2 MUL SWAP2 DUP2 DUP4 DIV EQ SWAP1 ISZERO OR ISZERO PUSH2 0xB8C JUMPI PUSH1 0x64 SWAP1 DIV SWAP4 DUP5 PUSH1 0x0 DUP2 ISZERO PUSH2 0x15DB JUMPI JUMPDEST PUSH1 0x0 DUP1 DUP1 SWAP4 DUP2 SWAP4 CALLER SWAP1 CALL ISZERO PUSH2 0xAE0 JUMPI DUP3 PUSH1 0x0 MSTORE PUSH1 0x1D DUP3 MSTORE PUSH1 0x0 PUSH1 0x4 PUSH1 0x40 DUP3 KECCAK256 DUP3 DUP2 SSTORE DUP3 DUP8 DUP3 ADD SSTORE DUP3 PUSH1 0x2 DUP3 ADD SSTORE DUP3 DUP5 DUP3 ADD SSTORE ADD SSTORE DUP4 PUSH1 0x0 SWAP1 JUMPDEST PUSH2 0x14DA JUMPI JUMPDEST DUP6 DUP5 PUSH1 0x0 DUP1 MLOAD PUSH1 0x20 PUSH2 0x56F3 DUP4 CODECOPY DUP2 MLOAD SWAP2 MSTORE DUP6 PUSH1 0x40 MLOAD SWAP4 DUP5 MSTORE CALLER SWAP4 LOG3 STOP JUMPDEST CALLER PUSH1 0x0 MSTORE PUSH1 0x1E DUP1 DUP5 MSTORE PUSH1 0x40 PUSH1 0x0 KECCAK256 DUP1 SLOAD DUP4 LT ISZERO PUSH2 0x15D4 JUMPI PUSH2 0x14FC DUP4 DUP8 SWAP3 PUSH2 0x4B5D JUMP JUMPDEST SWAP1 SLOAD SWAP1 DUP6 SHL SHR EQ PUSH2 0x1517 JUMPI POP PUSH2 0x1511 SWAP1 PUSH2 0x55D5 JUMP JUMPDEST DUP5 PUSH2 0x14B8 JUMP JUMPDEST SWAP1 SWAP4 SWAP5 POP CALLER PUSH1 0x0 MSTORE DUP1 DUP4 MSTORE PUSH1 0x40 PUSH1 0x0 KECCAK256 DUP1 SLOAD SWAP5 PUSH1 0x0 NOT SWAP6 DUP7 DUP2 ADD SWAP1 DUP2 GT PUSH2 0xB8C JUMPI PUSH2 0x1548 PUSH2 0x1560 SWAP2 PUSH2 0x1579 SWAP5 PUSH2 0x4B5D JUMP JUMPDEST SWAP1 SLOAD SWAP1 DUP7 SHL SHR SWAP2 CALLER PUSH1 0x0 MSTORE DUP5 DUP8 MSTORE PUSH1 0x40 PUSH1 0x0 KECCAK256 PUSH2 0x4B5D JUMP JUMPDEST SWAP1 SWAP2 SWAP1 DUP3 SLOAD SWAP1 PUSH1 0x3 SHL SWAP2 DUP3 SHL SWAP2 PUSH1 0x0 NOT SWAP1 SHL NOT AND OR SWAP1 SSTORE JUMP JUMPDEST CALLER PUSH1 0x0 MSTORE DUP3 MSTORE PUSH1 0x40 PUSH1 0x0 KECCAK256 DUP1 SLOAD SWAP4 DUP5 ISZERO PUSH2 0x15BE JUMPI DUP1 PUSH1 0x0 DUP1 MLOAD PUSH1 0x20 PUSH2 0x56F3 DUP4 CODECOPY DUP2 MLOAD SWAP2 MSTORE SWAP6 ADD SWAP3 PUSH2 0x15AA DUP5 DUP5 PUSH2 0x4B5D JUMP JUMPDEST DUP2 SWAP4 SWAP2 SLOAD SWAP3 SHL SHL NOT AND SWAP1 SSTORE SSTORE DUP3 SWAP2 DUP6 PUSH2 0x14BD JUMP JUMPDEST PUSH4 0x4E487B71 PUSH1 0xE0 SHL PUSH1 0x0 MSTORE PUSH1 0x31 PUSH1 0x4 MSTORE PUSH1 0x24 PUSH1 0x0 REVERT JUMPDEST POP POP PUSH2 0x14BD JUMP JUMPDEST POP PUSH2 0x8FC PUSH2 0x147F JUMP JUMPDEST PUSH1 0x40 MLOAD PUSH3 0x461BCD PUSH1 0xE5 SHL DUP2 MSTORE PUSH1 0x4 DUP2 ADD DUP4 SWAP1 MSTORE PUSH1 0x1B PUSH1 0x24 DUP3 ADD MSTORE PUSH27 0x5374616B696E6720706572696F64206E6F7420636F6D706C657465 PUSH1 0x28 SHL PUSH1 0x44 DUP3 ADD MSTORE PUSH1 0x64 SWAP1 REVERT JUMPDEST PUSH1 0x40 MLOAD PUSH3 0x461BCD PUSH1 0xE5 SHL DUP2 MSTORE PUSH1 0x4 DUP2 ADD DUP6 SWAP1 MSTORE PUSH1 0xA PUSH1 0x24 DUP3 ADD MSTORE PUSH10 0x2737BA1039BA30B5B2B9 PUSH1 0xB1 SHL PUSH1 0x44 DUP3 ADD MSTORE PUSH1 0x64 SWAP1 REVERT JUMPDEST CALLVALUE PUSH2 0x3E9 JUMPI PUSH1 0x0 CALLDATASIZE PUSH1 0x3 NOT ADD SLT PUSH2 0x3E9 JUMPI PUSH2 0x1672 PUSH2 0x4B8E JUMP JUMPDEST PUSH2 0x167D PUSH1 0x24 SLOAD PUSH2 0x55D5 JUMP JUMPDEST PUSH1 0x24 SSTORE STOP JUMPDEST CALLVALUE PUSH2 0x3E9 JUMPI PUSH1 0x40 CALLDATASIZE PUSH1 0x3 NOT ADD SLT PUSH2 0x3E9 JUMPI PUSH2 0x169B PUSH2 0x4826 JUMP JUMPDEST PUSH2 0x16A3 PUSH2 0x483C JUMP JUMPDEST SWAP1 PUSH2 0x16AC PUSH2 0x4B8E JUMP JUMPDEST PUSH1 0x1 PUSH1 0x1 PUSH1 0xA0 SHL SUB SWAP1 DUP2 AND PUSH1 0x0 DUP2 DUP2 MSTORE PUSH1 0x1A PUSH1 0x20 MSTORE PUSH1 0x40 SWAP1 KECCAK256 SLOAD DUP3 AND PUSH2 0x16EF JUMPI PUSH1 0x0 SWAP1 DUP2 MSTORE PUSH1 0x1A PUSH1 0x20 MSTORE PUSH1 0x40 SWAP1 KECCAK256 DUP1 SLOAD PUSH1 0x1 PUSH1 0x1 PUSH1 0xA0 SHL SUB NOT AND SWAP2 SWAP1 SWAP3 AND OR SWAP1 SSTORE STOP JUMPDEST PUSH1 0x40 MLOAD PUSH3 0x461BCD PUSH1 0xE5 SHL DUP2 MSTORE PUSH1 0x20 PUSH1 0x4 DUP3 ADD MSTORE PUSH1 0x14 PUSH1 0x24 DUP3 ADD MSTORE PUSH20 0x149959995C9C995C88185B1C9958591E481CD95D PUSH1 0x62 SHL PUSH1 0x44 DUP3 ADD MSTORE PUSH1 0x64 SWAP1 REVERT JUMPDEST CALLVALUE PUSH2 0x3E9 JUMPI PUSH1 0x80 CALLDATASIZE PUSH1 0x3 NOT ADD SLT PUSH2 0x3E9 JUMPI PUSH2 0x1744 PUSH2 0x4826 JUMP JUMPDEST PUSH2 0x174C PUSH2 0x483C JUMP JUMPDEST SWAP1 PUSH1 0x64 CALLDATALOAD SWAP1 PUSH1 0x44 CALLDATALOAD PUSH1 0x1 PUSH1 0x1 PUSH1 0x40 SHL SUB DUP4 GT PUSH2 0x3E9 JUMPI CALLDATASIZE PUSH1 0x23 DUP5 ADD SLT ISZERO PUSH2 0x3E9 JUMPI PUSH2 0x17B0 SWAP4 PUSH2 0x1788 PUSH2 0x17AB SWAP5 CALLDATASIZE SWAP1 PUSH1 0x24 DUP2 PUSH1 0x4 ADD CALLDATALOAD SWAP2 ADD PUSH2 0x49B5 JUMP JUMPDEST SWAP3 PUSH2 0x179B PUSH2 0x1796 DUP5 CALLER PUSH2 0x4D51 JUMP JUMPDEST PUSH2 0x4C7C JUMP JUMPDEST PUSH2 0x17A6 DUP4 DUP4 DUP4 PUSH2 0x4E19 JUMP JUMPDEST PUSH2 0x5063 JUMP JUMPDEST PUSH2 0x4D31 JUMP JUMPDEST STOP JUMPDEST CALLVALUE PUSH2 0x3E9 JUMPI PUSH1 0x40 CALLDATASIZE PUSH1 0x3 NOT ADD SLT PUSH2 0x3E9 JUMPI PUSH2 0x17CB PUSH2 0x4826 JUMP JUMPDEST PUSH1 0x1 PUSH1 0x1 PUSH1 0xA0 SHL SUB AND PUSH1 0x0 SWAP1 DUP2 MSTORE PUSH1 0x1E PUSH1 0x20 MSTORE PUSH1 0x40 SWAP1 KECCAK256 DUP1 SLOAD PUSH1 0x24 CALLDATALOAD SWAP2 SWAP1 DUP3 LT ISZERO PUSH2 0x3E9 JUMPI PUSH1 0x20 SWAP2 PUSH2 0x57E SWAP2 PUSH2 0x4B5D JUMP JUMPDEST CALLVALUE PUSH2 0x3E9 JUMPI PUSH1 0x60 CALLDATASIZE PUSH1 0x3 NOT ADD SLT PUSH2 0x3E9 JUMPI PUSH1 0x1 PUSH1 0x1 PUSH1 0x40 SHL SUB PUSH1 0x4 CALLDATALOAD DUP2 DUP2 GT PUSH2 0x3E9 JUMPI PUSH2 0x182D SWAP1 CALLDATASIZE SWAP1 PUSH1 0x4 ADD PUSH2 0x49EC JUMP JUMPDEST SWAP1 PUSH2 0x1836 PUSH2 0x4B8E JUMP JUMPDEST PUSH1 0x24 SLOAD SWAP1 PUSH1 0x40 MLOAD SWAP3 PUSH2 0x1847 DUP5 PUSH2 0x48DA JUMP JUMPDEST DUP3 DUP5 MSTORE PUSH1 0x20 SWAP1 DUP2 DUP6 ADD SWAP1 DUP2 MSTORE PUSH1 0x40 DUP6 ADD PUSH1 0x24 CALLDATALOAD DUP2 MSTORE PUSH1 0x60 DUP7 ADD SWAP2 PUSH1 0x44 CALLDATALOAD DUP4 MSTORE PUSH1 0x80 DUP8 ADD SWAP5 PUSH1 0x1 DUP1 DUP8 MSTORE PUSH1 0xA0 DUP10 ADD SWAP6 PUSH1 0x0 DUP8 MSTORE PUSH1 0xC0 DUP11 ADD SWAP9 PUSH1 0x0 DUP11 MSTORE PUSH1 0x0 MSTORE PUSH1 0x18 DUP2 MSTORE PUSH1 0x40 PUSH1 0x0 KECCAK256 SWAP10 MLOAD DUP11 SSTORE DUP2 DUP11 ADD SWAP4 MLOAD DUP1 MLOAD SWAP4 DUP5 GT PUSH2 0xDF0 JUMPI PUSH2 0x18AA DUP6 SLOAD PUSH2 0x4A42 JUMP JUMPDEST PUSH1 0x1F DUP2 GT PUSH2 0x199F JUMPI JUMPDEST POP DUP2 PUSH1 0x1F DUP6 GT PUSH1 0x1 EQ PUSH2 0x192A JUMPI POP SWAP3 DUP1 PUSH1 0x5 SWAP11 SWAP10 SWAP8 SWAP6 SWAP4 DUP2 SWAP4 PUSH2 0x1919 SWAP11 SWAP9 SWAP7 PUSH1 0x0 SWAP5 PUSH2 0x191F JUMPI JUMPDEST POP POP SHL SWAP2 PUSH1 0x0 NOT SWAP1 PUSH1 0x3 SHL SHR NOT AND OR SWAP1 SSTORE JUMPDEST MLOAD PUSH1 0x2 DUP9 ADD SSTORE MLOAD PUSH1 0x3 DUP8 ADD SSTORE PUSH2 0x1909 PUSH1 0x4 DUP8 ADD SWAP3 MLOAD ISZERO ISZERO DUP4 PUSH2 0x4F15 JUMP JUMPDEST MLOAD PUSH1 0x1 PUSH1 0x1 PUSH1 0xA0 SHL SUB AND SWAP1 PUSH2 0x5287 JUMP JUMPDEST MLOAD SWAP2 ADD SSTORE STOP JUMPDEST ADD MLOAD SWAP3 POP DUP14 DUP1 PUSH2 0x18DA JUMP JUMPDEST SWAP2 SWAP1 PUSH1 0x1F SWAP5 SWAP4 SWAP5 NOT DUP5 AND DUP7 PUSH1 0x0 MSTORE DUP4 PUSH1 0x0 KECCAK256 SWAP4 PUSH1 0x0 SWAP1 JUMPDEST DUP3 DUP3 LT PUSH2 0x1988 JUMPI POP POP SWAP2 PUSH2 0x1919 SWAP10 SWAP8 SWAP6 SWAP4 SWAP2 DUP6 PUSH1 0x5 SWAP14 SWAP13 SWAP11 SWAP9 SWAP7 SWAP5 LT PUSH2 0x196F JUMPI JUMPDEST POP POP POP DUP2 SHL ADD SWAP1 SSTORE PUSH2 0x18EC JUMP JUMPDEST ADD MLOAD PUSH1 0x0 NOT PUSH1 0xF8 DUP5 PUSH1 0x3 SHL AND SHR NOT AND SWAP1 SSTORE DUP12 DUP1 DUP1 PUSH2 0x1962 JUMP JUMPDEST DUP1 DUP9 DUP7 SWAP8 DUP3 SWAP5 SWAP8 DUP8 ADD MLOAD DUP2 SSTORE ADD SWAP7 ADD SWAP5 ADD SWAP1 PUSH2 0x1941 JUMP JUMPDEST PUSH2 0x19CA SWAP1 DUP7 PUSH1 0x0 MSTORE DUP4 PUSH1 0x0 KECCAK256 PUSH1 0x1F DUP8 ADD PUSH1 0x5 SHR DUP2 ADD SWAP2 DUP6 DUP9 LT PUSH2 0x19D0 JUMPI JUMPDEST PUSH1 0x1F ADD PUSH1 0x5 SHR ADD SWAP1 PUSH2 0x55E4 JUMP JUMPDEST DUP12 PUSH2 0x18B3 JUMP JUMPDEST SWAP1 SWAP2 POP DUP2 SWAP1 PUSH2 0x19BD JUMP JUMPDEST CALLVALUE PUSH2 0x3E9 JUMPI PUSH1 0x20 CALLDATASIZE PUSH1 0x3 NOT ADD SLT PUSH2 0x3E9 JUMPI PUSH1 0x4 CALLDATALOAD PUSH1 0x3 DUP2 LT ISZERO PUSH2 0x3E9 JUMPI PUSH2 0x3E1 PUSH1 0x20 SWAP2 PUSH2 0x5115 JUMP JUMPDEST CALLVALUE PUSH2 0x3E9 JUMPI PUSH1 0x40 CALLDATASIZE PUSH1 0x3 NOT ADD SLT PUSH2 0x3E9 JUMPI PUSH1 0xE0 PUSH2 0x1A1D PUSH2 0x483C JUMP JUMPDEST PUSH1 0x4 CALLDATALOAD PUSH1 0x0 MSTORE PUSH1 0x20 DUP1 MSTORE PUSH1 0x40 PUSH1 0x0 KECCAK256 PUSH1 0x1 DUP1 PUSH1 0xA0 SHL SUB DUP1 SWAP3 AND PUSH1 0x0 MSTORE PUSH1 0x20 MSTORE PUSH1 0x40 PUSH1 0x0 KECCAK256 DUP1 SLOAD SWAP2 PUSH1 0x1 DUP3 ADD SLOAD AND SWAP1 PUSH1 0x2 DUP2 ADD SLOAD PUSH1 0x3 DUP3 ADD SLOAD PUSH1 0x4 DUP4 ADD SLOAD SWAP2 PUSH1 0xFF PUSH1 0x6 PUSH1 0x5 DUP7 ADD SLOAD SWAP6 ADD SLOAD AND SWAP5 PUSH1 0x40 MLOAD SWAP7 DUP8 MSTORE PUSH1 0x20 DUP8 ADD MSTORE PUSH1 0x40 DUP7 ADD MSTORE PUSH1 0x60 DUP6 ADD MSTORE PUSH1 0x80 DUP5 ADD MSTORE PUSH1 0xA0 DUP4 ADD MSTORE ISZERO ISZERO PUSH1 0xC0 DUP3 ADD MSTORE RETURN JUMPDEST CALLVALUE PUSH2 0x3E9 JUMPI PUSH1 0x20 DUP1 PUSH1 0x3 NOT CALLDATASIZE ADD SLT PUSH2 0x3E9 JUMPI PUSH1 0x4 CALLDATALOAD PUSH2 0x1AAE PUSH2 0x4B8E JUMP JUMPDEST DUP1 PUSH1 0x0 MSTORE PUSH1 0x16 DUP3 MSTORE PUSH1 0x40 PUSH1 0x0 KECCAK256 SWAP2 PUSH1 0x7 DUP4 ADD SWAP1 DUP2 SLOAD PUSH1 0xFF DUP2 AND ISZERO PUSH2 0x1C19 JUMPI PUSH1 0x4 DUP6 ADD SLOAD TIMESTAMP LT DUP1 ISZERO SWAP1 PUSH2 0x1C0A JUMPI JUMPDEST ISZERO PUSH2 0x1BCA JUMPI PUSH1 0xFF NOT AND DUP3 SSTORE PUSH1 0x6 DUP5 ADD DUP1 SLOAD SWAP1 DUP2 ISZERO SWAP1 DUP2 ISZERO PUSH2 0x1AF8 JUMPI STOP JUMPDEST PUSH1 0x40 DUP1 MLOAD TIMESTAMP DUP7 DUP3 ADD SWAP1 DUP2 MSTORE DUP2 DUP4 ADD DUP10 SWAP1 MSTORE SWAP2 DUP2 MSTORE PUSH1 0x60 DUP2 ADD PUSH1 0x1 PUSH1 0x1 PUSH1 0x40 SHL SUB DUP2 GT DUP3 DUP3 LT OR PUSH2 0xDF0 JUMPI PUSH1 0x40 MSTORE MLOAD SWAP1 KECCAK256 SWAP2 PUSH2 0x1BB4 JUMPI PUSH2 0x1B54 SWAP3 PUSH2 0x1B3C SWAP3 MOD SWAP1 PUSH2 0x4B5D JUMP JUMPDEST SWAP1 SLOAD PUSH1 0x1 PUSH1 0x1 PUSH1 0xA0 SHL SUB SWAP3 SWAP2 PUSH1 0x3 SHL SHR DUP3 AND DUP5 PUSH2 0x5287 JUMP JUMPDEST PUSH1 0x0 DUP1 DUP1 DUP1 PUSH1 0x5 DUP8 SLOAD SWAP10 ADD SWAP9 DUP10 SLOAD SWAP1 DUP7 DUP4 SWAP2 DUP4 ISZERO PUSH2 0x1BAA JUMPI JUMPDEST PUSH1 0x8 SHR AND SWAP1 CALL ISZERO PUSH2 0xAE0 JUMPI PUSH32 0x8941BADE03A3D102784A43EF492D1A5DC2AD4F31419C6F7786234532B108D099 SWAP3 SLOAD PUSH1 0x8 SHR AND SWAP4 SLOAD PUSH1 0x40 MLOAD SWAP1 DUP2 MSTORE LOG3 STOP JUMPDEST PUSH2 0x8FC SWAP3 POP PUSH2 0x1B6D JUMP JUMPDEST PUSH4 0x4E487B71 PUSH1 0xE0 SHL PUSH1 0x0 MSTORE PUSH1 0x12 PUSH1 0x4 MSTORE PUSH1 0x24 PUSH1 0x0 REVERT JUMPDEST PUSH1 0x40 MLOAD PUSH3 0x461BCD PUSH1 0xE5 SHL DUP2 MSTORE PUSH1 0x4 DUP2 ADD DUP4 SWAP1 MSTORE PUSH1 0x18 PUSH1 0x24 DUP3 ADD MSTORE PUSH24 0x546F75726E616D656E74207374696C6C2072756E6E696E67 PUSH1 0x40 SHL PUSH1 0x44 DUP3 ADD MSTORE PUSH1 0x64 SWAP1 REVERT JUMPDEST POP PUSH1 0xA PUSH1 0x6 DUP7 ADD SLOAD LT ISZERO PUSH2 0x1ADB JUMP JUMPDEST PUSH1 0x40 MLOAD PUSH3 0x461BCD PUSH1 0xE5 SHL DUP2 MSTORE PUSH1 0x4 DUP2 ADD DUP4 SWAP1 MSTORE PUSH1 0x18 PUSH1 0x24 DUP3 ADD MSTORE PUSH24 0x151BDD5C9B985B595B9D08185B1C9958591E48195B991959 PUSH1 0x42 SHL PUSH1 0x44 DUP3 ADD MSTORE PUSH1 0x64 SWAP1 REVERT JUMPDEST CALLVALUE PUSH2 0x3E9 JUMPI PUSH1 0x20 DUP1 PUSH1 0x3 NOT CALLDATASIZE ADD SLT PUSH2 0x3E9 JUMPI PUSH1 0x1 PUSH1 0x1 PUSH1 0xA0 SHL SUB PUSH2 0x1C7B PUSH2 0x4826 JUMP JUMPDEST AND PUSH1 0x0 MSTORE PUSH1 0x13 DUP2 MSTORE PUSH1 0x40 PUSH1 0x0 KECCAK256 SWAP1 PUSH1 0x40 MLOAD SWAP1 DUP2 DUP2 DUP5 SLOAD SWAP2 DUP3 DUP2 MSTORE ADD SWAP4 PUSH1 0x0 MSTORE DUP2 PUSH1 0x0 KECCAK256 SWAP2 PUSH1 0x0 SWAP1 JUMPDEST DUP3 DUP3 LT PUSH2 0x1CC6 JUMPI PUSH2 0x1029 DUP6 PUSH2 0x1CBA DUP2 DUP10 SUB DUP3 PUSH2 0x492B JUMP JUMPDEST PUSH1 0x40 MLOAD SWAP2 DUP3 SWAP2 DUP3 PUSH2 0x4B22 JUMP JUMPDEST DUP4 SLOAD DUP7 MSTORE SWAP5 DUP6 ADD SWAP5 PUSH1 0x1 SWAP4 DUP5 ADD SWAP4 SWAP1 SWAP2 ADD SWAP1 PUSH2 0x1CA3 JUMP JUMPDEST CALLVALUE PUSH2 0x3E9 JUMPI PUSH1 0x40 CALLDATASIZE PUSH1 0x3 NOT ADD SLT PUSH2 0x3E9 JUMPI PUSH2 0x1CF6 PUSH2 0x4826 JUMP JUMPDEST PUSH1 0x24 CALLDATALOAD SWAP1 DUP2 ISZERO ISZERO SWAP1 DUP2 DUP4 SUB PUSH2 0x3E9 JUMPI PUSH1 0x1 PUSH1 0x1 PUSH1 0xA0 SHL SUB AND SWAP2 CALLER DUP4 EQ PUSH2 0x1D67 JUMPI PUSH2 0x1D39 SWAP1 CALLER PUSH1 0x0 MSTORE PUSH1 0x5 PUSH1 0x20 MSTORE PUSH1 0x40 PUSH1 0x0 KECCAK256 DUP5 PUSH1 0x0 MSTORE PUSH1 0x20 MSTORE PUSH1 0x40 PUSH1 0x0 KECCAK256 PUSH2 0x4F15 JUMP JUMPDEST PUSH1 0x40 MLOAD SWAP1 DUP2 MSTORE PUSH32 0x17307EAB39AB6107E8899845AD3D59BD9653F200F220920489CA2B5937696C31 PUSH1 0x20 CALLER SWAP3 LOG3 STOP JUMPDEST PUSH1 0x40 MLOAD PUSH3 0x461BCD PUSH1 0xE5 SHL DUP2 MSTORE PUSH1 0x20 PUSH1 0x4 DUP3 ADD MSTORE PUSH1 0x19 PUSH1 0x24 DUP3 ADD MSTORE PUSH25 0x22A9219B99189D1030B8383937BB32903A379031B0B63632B9 PUSH1 0x39 SHL PUSH1 0x44 DUP3 ADD MSTORE PUSH1 0x64 SWAP1 REVERT JUMPDEST CALLVALUE PUSH2 0x3E9 JUMPI PUSH1 0x20 CALLDATASIZE PUSH1 0x3 NOT ADD SLT PUSH2 0x3E9 JUMPI PUSH1 0x4 CALLDATALOAD PUSH1 0x0 MSTORE PUSH1 0x10 PUSH1 0x20 MSTORE PUSH1 0x20 PUSH1 0x40 PUSH1 0x0 KECCAK256 SLOAD PUSH1 0x40 MLOAD SWAP1 DUP2 MSTORE RETURN JUMPDEST PUSH2 0x4A0A JUMP JUMPDEST CALLVALUE PUSH2 0x3E9 JUMPI PUSH1 0x0 CALLDATASIZE PUSH1 0x3 NOT ADD SLT PUSH2 0x3E9 JUMPI PUSH1 0x20 PUSH1 0x21 SLOAD PUSH1 0x40 MLOAD SWAP1 DUP2 MSTORE RETURN JUMPDEST CALLVALUE PUSH2 0x3E9 JUMPI PUSH1 0x0 CALLDATASIZE PUSH1 0x3 NOT ADD SLT PUSH2 0x3E9 JUMPI CALLER PUSH1 0x0 MSTORE PUSH1 0x20 PUSH1 0x1A DUP2 MSTORE PUSH1 0x1 DUP1 PUSH1 0xA0 SHL SUB SWAP1 DUP2 PUSH1 0x40 PUSH1 0x0 KECCAK256 SLOAD AND ISZERO PUSH2 0x1EA1 JUMPI CALLER PUSH1 0x0 MSTORE PUSH1 0x1B DUP2 MSTORE PUSH2 0x1E3E PUSH1 0x40 PUSH1 0x0 KECCAK256 SLOAD ISZERO PUSH2 0x55FB JUMP JUMPDEST CALLER PUSH1 0x0 MSTORE PUSH1 0x1B DUP2 MSTORE PUSH7 0x38D7EA4C68000 SWAP2 DUP3 PUSH1 0x40 PUSH1 0x0 KECCAK256 SSTORE PUSH1 0x0 DUP1 DUP1 DUP1 DUP7 CALLER DUP3 CALL ISZERO PUSH2 0xAE0 JUMPI PUSH32 0x53958B9C644A1D5529DA7C36929D59417EB9A996F08E02A52632BFE20C92EF48 SWAP1 CALLER PUSH1 0x0 MSTORE PUSH1 0x1A DUP4 MSTORE PUSH1 0x40 PUSH1 0x0 KECCAK256 SLOAD AND SWAP2 PUSH1 0x40 MLOAD SWAP4 DUP5 MSTORE CALLER SWAP4 LOG3 STOP JUMPDEST PUSH1 0x64 SWAP1 PUSH1 0x40 MLOAD SWAP1 PUSH3 0x461BCD PUSH1 0xE5 SHL DUP3 MSTORE PUSH1 0x4 DUP3 ADD MSTORE PUSH1 0xF PUSH1 0x24 DUP3 ADD MSTORE PUSH15 0x139BC81C9959995C9C995C881CD95D PUSH1 0x8A SHL PUSH1 0x44 DUP3 ADD MSTORE REVERT JUMPDEST CALLVALUE PUSH2 0x3E9 JUMPI PUSH1 0x20 CALLDATASIZE PUSH1 0x3 NOT ADD SLT PUSH2 0x3E9 JUMPI PUSH1 0x1 PUSH1 0x1 PUSH1 0xA0 SHL SUB PUSH2 0x1EF8 PUSH2 0x4826 JUMP JUMPDEST AND PUSH1 0x0 MSTORE PUSH1 0x14 PUSH1 0x20 MSTORE PUSH1 0x20 PUSH1 0x40 PUSH1 0x0 KECCAK256 SLOAD PUSH1 0x40 MLOAD SWAP1 DUP2 MSTORE RETURN JUMPDEST CALLVALUE PUSH2 0x3E9 JUMPI PUSH1 0x0 CALLDATASIZE PUSH1 0x3 NOT ADD SLT PUSH2 0x3E9 JUMPI PUSH1 0x20 PUSH1 0x40 MLOAD PUSH7 0x11C37937E08000 DUP2 MSTORE RETURN JUMPDEST CALLVALUE PUSH2 0x3E9 JUMPI PUSH1 0x0 CALLDATASIZE PUSH1 0x3 NOT ADD SLT PUSH2 0x3E9 JUMPI PUSH1 0x40 MLOAD PUSH1 0x0 SWAP1 PUSH1 0x1 DUP1 SLOAD PUSH2 0x1F57 DUP2 PUSH2 0x4A42 JUMP JUMPDEST DUP1 DUP5 MSTORE SWAP1 DUP3 DUP2 AND SWAP1 DUP2 ISZERO PUSH2 0x1FD0 JUMPI POP PUSH1 0x1 EQ PUSH2 0x1F92 JUMPI JUMPDEST PUSH2 0x1029 DUP4 PUSH2 0x1F7E DUP2 DUP8 SUB DUP3 PUSH2 0x492B JUMP JUMPDEST PUSH1 0x40 MLOAD SWAP2 DUP3 SWAP2 PUSH1 0x20 DUP4 MSTORE PUSH1 0x20 DUP4 ADD SWAP1 PUSH2 0x4801 JUMP JUMPDEST SWAP3 POP DUP1 PUSH1 0x0 MSTORE PUSH1 0x20 SWAP3 DUP4 PUSH1 0x0 KECCAK256 SWAP2 PUSH1 0x0 SWAP3 JUMPDEST DUP3 DUP5 LT PUSH2 0x1FBD JUMPI POP POP POP DUP2 ADD SWAP1 SWAP2 ADD SWAP1 PUSH2 0x1F7E DUP2 PUSH2 0x1F6E JUMP JUMPDEST DUP1 SLOAD DUP6 DUP6 ADD DUP8 ADD MSTORE SWAP3 DUP6 ADD SWAP3 DUP2 ADD PUSH2 0x1FA4 JUMP JUMPDEST PUSH2 0x1029 SWAP6 POP PUSH2 0x1F7E SWAP4 POP PUSH1 0x20 SWAP2 POP SWAP2 DUP5 SWAP3 PUSH1 0xFF NOT AND DUP3 DUP5 ADD MSTORE ISZERO ISZERO PUSH1 0x5 SHL DUP3 ADD ADD SWAP4 POP PUSH2 0x1F6E JUMP JUMPDEST CALLVALUE PUSH2 0x3E9 JUMPI PUSH2 0x2006 CALLDATASIZE PUSH2 0x4A2C JUMP JUMPDEST SWAP1 PUSH2 0x2010 DUP2 PUSH2 0x4C2D JUMP JUMPDEST PUSH1 0x1 PUSH1 0x1 PUSH1 0xA0 SHL SUB SWAP1 PUSH2 0x2026 SWAP1 DUP3 AND CALLER EQ PUSH2 0x5640 JUMP JUMPDEST DUP3 ISZERO PUSH2 0x20BF JUMPI PUSH2 0x2091 SWAP1 PUSH1 0x3 PUSH1 0x40 MLOAD SWAP2 PUSH2 0x203F DUP4 PUSH2 0x48BF JUMP JUMPDEST DUP5 DUP4 MSTORE PUSH1 0x20 DUP4 ADD CALLER DUP2 MSTORE PUSH1 0x40 DUP5 ADD SWAP1 DUP8 DUP3 MSTORE PUSH1 0x60 DUP6 ADD SWAP3 PUSH1 0x1 DUP5 MSTORE DUP8 PUSH1 0x0 MSTORE PUSH1 0x1C PUSH1 0x20 MSTORE PUSH1 0x40 PUSH1 0x0 KECCAK256 SWAP6 MLOAD DUP7 SSTORE PUSH1 0x1 DUP7 ADD SWAP2 MLOAD AND PUSH1 0x1 DUP1 PUSH1 0xA0 SHL SUB NOT DUP3 SLOAD AND OR SWAP1 SSTORE MLOAD PUSH1 0x2 DUP5 ADD SSTORE MLOAD ISZERO ISZERO SWAP2 ADD PUSH2 0x4F15 JUMP JUMPDEST PUSH1 0x40 MLOAD SWAP2 DUP3 MSTORE PUSH32 0x5F9C03DE076F5063CD3EBCFE8EF7AA8AF378E4B35A83C77BA9777E97083879A2 PUSH1 0x20 CALLER SWAP4 LOG3 STOP JUMPDEST PUSH1 0x40 MLOAD PUSH3 0x461BCD PUSH1 0xE5 SHL DUP2 MSTORE PUSH1 0x20 PUSH1 0x4 DUP3 ADD MSTORE PUSH1 0x1C PUSH1 0x24 DUP3 ADD MSTORE PUSH28 0x5072696365206D7573742062652067726561746572207468616E203 PUSH1 0x24 SHL PUSH1 0x44 DUP3 ADD MSTORE PUSH1 0x64 SWAP1 REVERT JUMPDEST PUSH1 0x20 CALLDATASIZE PUSH1 0x3 NOT ADD SLT PUSH2 0x3E9 JUMPI PUSH1 0x4 CALLDATALOAD PUSH2 0x2123 PUSH2 0x8B6 CALLER PUSH2 0xE10 DUP5 DIV PUSH2 0x5213 JUMP JUMPDEST PUSH1 0x40 MLOAD SWAP1 DUP2 MSTORE PUSH32 0xEE8CFDA0C67F1ACD18FF57B5828F18514D204F62F1A359E195515A940A2B77A PUSH1 0x20 CALLER SWAP3 LOG2 STOP JUMPDEST CALLVALUE PUSH2 0x3E9 JUMPI PUSH1 0x0 CALLDATASIZE PUSH1 0x3 NOT ADD SLT PUSH2 0x3E9 JUMPI PUSH1 0x7 SLOAD PUSH1 0x40 MLOAD PUSH1 0x1 PUSH1 0x1 PUSH1 0xA0 SHL SUB SWAP1 SWAP2 AND DUP2 MSTORE PUSH1 0x20 SWAP1 RETURN JUMPDEST CALLVALUE PUSH2 0x3E9 JUMPI PUSH1 0x20 DUP1 PUSH1 0x3 NOT CALLDATASIZE ADD SLT PUSH2 0x3E9 JUMPI PUSH1 0x4 CALLDATALOAD PUSH1 0x1 PUSH1 0x1 PUSH1 0x40 SHL SUB DUP2 GT PUSH2 0x3E9 JUMPI PUSH2 0x21AB SWAP1 CALLDATASIZE SWAP1 PUSH1 0x4 ADD PUSH2 0x49EC JUMP JUMPDEST PUSH1 0x24 SWAP1 DUP2 SLOAD SWAP1 DUP2 PUSH1 0x0 MSTORE PUSH1 0x18 DUP5 MSTORE PUSH1 0x40 PUSH1 0x0 KECCAK256 SWAP2 PUSH1 0x4 DUP4 ADD SWAP2 DUP3 SLOAD SWAP2 PUSH1 0xFF DUP4 AND ISZERO PUSH2 0x23BF JUMPI CALLER PUSH1 0x0 MSTORE PUSH1 0x19 DUP8 MSTORE PUSH1 0x40 PUSH1 0x0 KECCAK256 SLOAD LT ISZERO PUSH2 0x2381 JUMPI PUSH1 0x40 MLOAD PUSH2 0x220D DUP8 DUP3 DUP2 PUSH2 0x2200 DUP2 DUP4 ADD SWAP7 DUP8 DUP2 MLOAD SWAP4 DUP5 SWAP3 ADD PUSH2 0x47DE JUMP JUMPDEST DUP2 ADD SUB DUP1 DUP5 MSTORE ADD DUP3 PUSH2 0x492B JUMP JUMPDEST MLOAD SWAP1 KECCAK256 PUSH1 0x2 DUP5 ADD SLOAD SUB PUSH2 0x234C JUMPI PUSH1 0xFF NOT AND DUP2 SSTORE PUSH1 0x3 SWAP2 SWAP1 PUSH2 0x222F SWAP1 CALLER SWAP1 PUSH2 0x5287 JUMP JUMPDEST TIMESTAMP PUSH1 0x5 DUP3 ADD SSTORE DUP3 SLOAD CALLER PUSH1 0x0 MSTORE PUSH1 0x19 DUP6 MSTORE PUSH1 0x40 PUSH1 0x0 KECCAK256 SSTORE ADD SWAP1 DUP2 SLOAD SWAP2 PUSH1 0x22 SLOAD SWAP1 DUP2 ISZERO ISZERO DUP1 PUSH2 0x2332 JUMPI JUMPDEST PUSH2 0x22B3 JUMPI JUMPDEST POP POP DUP2 PUSH1 0x0 DUP2 ISZERO PUSH2 0x22AA JUMPI JUMPDEST PUSH1 0x0 DUP1 DUP1 SWAP4 DUP2 SWAP4 CALLER SWAP1 CALL ISZERO PUSH2 0xAE0 JUMPI SLOAD SWAP2 PUSH1 0x40 MLOAD SWAP3 DUP4 MSTORE DUP3 ADD MSTORE PUSH32 0x523E61D558556AA27AC8542575A674429F457748B192AFB77E231A53F8E1B9B5 PUSH1 0x40 CALLER SWAP3 LOG2 STOP JUMPDEST POP PUSH2 0x8FC PUSH2 0x2268 JUMP JUMPDEST PUSH1 0x64 PUSH2 0x22D4 DUP4 SWAP6 PUSH2 0x2302 SWAP5 PUSH1 0x0 MSTORE PUSH1 0x1F DUP9 MSTORE PUSH1 0x6 PUSH1 0x40 PUSH1 0x0 KECCAK256 ADD SLOAD SWAP1 PUSH2 0x5198 JUMP JUMPDEST DIV SWAP4 PUSH1 0x0 MSTORE DUP5 DUP1 MSTORE PUSH1 0x40 PUSH1 0x0 KECCAK256 CALLER PUSH1 0x0 MSTORE DUP6 MSTORE PUSH1 0x3 PUSH1 0x40 PUSH1 0x0 KECCAK256 ADD PUSH2 0x22F9 DUP2 SLOAD PUSH2 0x55D5 JUMP JUMPDEST SWAP1 SSTORE SLOAD DUP4 PUSH2 0x51AB JUMP JUMPDEST PUSH1 0x22 SLOAD PUSH1 0x0 MSTORE DUP4 DUP1 MSTORE PUSH1 0x40 PUSH1 0x0 KECCAK256 CALLER PUSH1 0x0 MSTORE DUP5 MSTORE PUSH2 0x2329 PUSH1 0x5 PUSH1 0x40 PUSH1 0x0 KECCAK256 ADD SWAP2 DUP3 SLOAD PUSH2 0x5466 JUMP JUMPDEST SWAP1 SSTORE DUP4 DUP1 PUSH2 0x225C JUMP JUMPDEST POP DUP2 PUSH1 0x0 MSTORE PUSH1 0x1F DUP6 MSTORE PUSH1 0xFF PUSH1 0x8 PUSH1 0x40 PUSH1 0x0 KECCAK256 ADD SLOAD AND PUSH2 0x2257 JUMP JUMPDEST PUSH1 0x40 MLOAD PUSH3 0x461BCD PUSH1 0xE5 SHL DUP2 MSTORE PUSH1 0x4 DUP2 ADD DUP7 SWAP1 MSTORE PUSH1 0xE DUP2 DUP7 ADD MSTORE PUSH14 0x2BB937B7339039B7B63ABA34B7B7 PUSH1 0x91 SHL PUSH1 0x44 DUP3 ADD MSTORE PUSH1 0x64 SWAP1 REVERT JUMPDEST PUSH1 0x40 MLOAD PUSH3 0x461BCD PUSH1 0xE5 SHL DUP2 MSTORE PUSH1 0x4 DUP2 ADD DUP8 SWAP1 MSTORE PUSH1 0x17 DUP2 DUP8 ADD MSTORE PUSH23 0x416C726561647920636F6D706C6574656420746F646179 PUSH1 0x48 SHL PUSH1 0x44 DUP3 ADD MSTORE PUSH1 0x64 SWAP1 REVERT JUMPDEST PUSH1 0x40 MLOAD PUSH3 0x461BCD PUSH1 0xE5 SHL DUP2 MSTORE PUSH1 0x4 DUP2 ADD DUP9 SWAP1 MSTORE PUSH1 0x13 DUP2 DUP9 ADD MSTORE PUSH19 0x4E6F20616374697665206368616C6C656E6765 PUSH1 0x68 SHL PUSH1 0x44 DUP3 ADD MSTORE PUSH1 0x64 SWAP1 REVERT JUMPDEST CALLVALUE PUSH2 0x3E9 JUMPI PUSH1 0x0 CALLDATASIZE PUSH1 0x3 NOT ADD SLT PUSH2 0x3E9 JUMPI PUSH1 0x40 MLOAD PUSH2 0xCA0 DUP2 ADD PUSH1 0x1 PUSH1 0x1 PUSH1 0x40 SHL SUB DUP2 GT DUP3 DUP3 LT OR PUSH2 0xDF0 JUMPI PUSH1 0x40 MSTORE PUSH1 0x64 DUP1 DUP3 MSTORE PUSH1 0x20 SWAP2 PUSH2 0xC80 CALLDATASIZE DUP5 DUP4 ADD CALLDATACOPY PUSH1 0x9 SLOAD PUSH1 0x0 SWAP3 PUSH1 0x1 SWAP2 DUP3 DUP1 JUMPDEST PUSH2 0x24B5 JUMPI JUMPDEST POP POP POP POP PUSH2 0x2455 DUP3 PUSH2 0x494E JUMP JUMPDEST SWAP3 PUSH2 0x2463 PUSH1 0x40 MLOAD SWAP5 DUP6 PUSH2 0x492B JUMP JUMPDEST DUP3 DUP5 MSTORE PUSH1 0x1F NOT PUSH2 0x2472 DUP5 PUSH2 0x494E JUMP JUMPDEST ADD SWAP1 CALLDATASIZE SWAP1 DUP6 ADD CALLDATACOPY PUSH1 0x0 JUMPDEST DUP3 DUP2 LT PUSH2 0x2491 JUMPI PUSH1 0x40 MLOAD DUP1 PUSH2 0x1029 DUP7 DUP3 PUSH2 0x4B22 JUMP JUMPDEST DUP1 PUSH2 0x249F PUSH2 0x24B0 SWAP3 DUP5 PUSH2 0x567E JUMP JUMPDEST MLOAD PUSH2 0x24AA DUP3 DUP8 PUSH2 0x567E JUMP JUMPDEST MSTORE PUSH2 0x55D5 JUMP JUMPDEST PUSH2 0x247C JUMP JUMPDEST DUP2 DUP2 GT ISZERO DUP1 PUSH2 0x250C JUMPI JUMPDEST ISZERO PUSH2 0x2507 JUMPI DUP1 PUSH1 0x0 MSTORE PUSH1 0x1C DUP8 MSTORE PUSH1 0xFF PUSH1 0x3 PUSH1 0x40 PUSH1 0x0 KECCAK256 ADD SLOAD AND PUSH2 0x24EC JUMPI JUMPDEST PUSH2 0x24E6 SWAP1 PUSH2 0x55D5 JUMP JUMPDEST DUP4 PUSH2 0x2443 JUMP JUMPDEST SWAP5 PUSH2 0x24FF DUP2 DUP8 PUSH2 0x24AA PUSH2 0x24E6 SWAP5 DUP10 PUSH2 0x567E JUMP JUMPDEST SWAP6 SWAP1 POP PUSH2 0x24DD JUMP JUMPDEST PUSH2 0x2448 JUMP JUMPDEST POP DUP3 DUP7 LT PUSH2 0x24BF JUMP JUMPDEST CALLVALUE PUSH2 0x3E9 JUMPI PUSH1 0x0 CALLDATASIZE PUSH1 0x3 NOT ADD SLT PUSH2 0x3E9 JUMPI PUSH1 0x20 PUSH1 0x23 SLOAD PUSH1 0x40 MLOAD SWAP1 DUP2 MSTORE RETURN JUMPDEST CALLVALUE PUSH2 0x3E9 JUMPI PUSH1 0x20 DUP1 PUSH1 0x3 NOT CALLDATASIZE ADD SLT PUSH2 0x3E9 JUMPI PUSH1 0x1 PUSH1 0x1 PUSH1 0xA0 SHL SUB PUSH2 0x2555 PUSH2 0x4826 JUMP JUMPDEST AND PUSH1 0x0 MSTORE PUSH1 0x1E DUP2 MSTORE PUSH1 0x40 PUSH1 0x0 KECCAK256 SWAP1 PUSH1 0x40 MLOAD SWAP1 DUP2 DUP2 DUP5 SLOAD SWAP2 DUP3 DUP2 MSTORE ADD SWAP4 PUSH1 0x0 MSTORE DUP2 PUSH1 0x0 KECCAK256 SWAP2 PUSH1 0x0 SWAP1 JUMPDEST DUP3 DUP3 LT PUSH2 0x2594 JUMPI PUSH2 0x1029 DUP6 PUSH2 0x1CBA DUP2 DUP10 SUB DUP3 PUSH2 0x492B JUMP JUMPDEST DUP4 SLOAD DUP7 MSTORE SWAP5 DUP6 ADD SWAP5 PUSH1 0x1 SWAP4 DUP5 ADD SWAP4 SWAP1 SWAP2 ADD SWAP1 PUSH2 0x257D JUMP JUMPDEST CALLVALUE PUSH2 0x3E9 JUMPI PUSH1 0x40 CALLDATASIZE PUSH1 0x3 NOT ADD SLT PUSH2 0x3E9 JUMPI PUSH2 0x25C4 PUSH2 0x4826 JUMP JUMPDEST PUSH1 0x1 PUSH1 0x1 PUSH1 0xA0 SHL SUB AND PUSH1 0x0 SWAP1 DUP2 MSTORE PUSH1 0x13 PUSH1 0x20 MSTORE PUSH1 0x40 SWAP1 KECCAK256 DUP1 SLOAD PUSH1 0x24 CALLDATALOAD SWAP2 SWAP1 DUP3 LT ISZERO PUSH2 0x3E9 JUMPI PUSH1 0x20 SWAP2 PUSH2 0x57E SWAP2 PUSH2 0x4B5D JUMP JUMPDEST CALLVALUE PUSH2 0x3E9 JUMPI PUSH1 0x20 CALLDATASIZE PUSH1 0x3 NOT ADD SLT PUSH2 0x3E9 JUMPI PUSH1 0x1 PUSH1 0x1 PUSH1 0xA0 SHL SUB PUSH2 0x2616 PUSH2 0x4826 JUMP JUMPDEST AND PUSH1 0x0 MSTORE PUSH1 0x19 PUSH1 0x20 MSTORE PUSH1 0x20 PUSH1 0x40 PUSH1 0x0 KECCAK256 SLOAD PUSH1 0x40 MLOAD SWAP1 DUP2 MSTORE RETURN JUMPDEST CALLVALUE PUSH2 0x3E9 JUMPI PUSH1 0x20 DUP1 PUSH1 0x3 NOT CALLDATASIZE ADD SLT PUSH2 0x3E9 JUMPI PUSH1 0x1 PUSH1 0x1 PUSH1 0xA0 SHL SUB PUSH2 0x2651 PUSH2 0x4826 JUMP JUMPDEST AND PUSH1 0x0 MSTORE PUSH1 0x17 DUP2 MSTORE PUSH1 0x40 PUSH1 0x0 KECCAK256 SWAP1 PUSH1 0x40 MLOAD SWAP1 DUP2 DUP2 DUP5 SLOAD SWAP2 DUP3 DUP2 MSTORE ADD SWAP4 PUSH1 0x0 MSTORE DUP2 PUSH1 0x0 KECCAK256 SWAP2 PUSH1 0x0 SWAP1 JUMPDEST DUP3 DUP3 LT PUSH2 0x2690 JUMPI PUSH2 0x1029 DUP6 PUSH2 0x1CBA DUP2 DUP10 SUB DUP3 PUSH2 0x492B JUMP JUMPDEST DUP4 SLOAD DUP7 MSTORE SWAP5 DUP6 ADD SWAP5 PUSH1 0x1 SWAP4 DUP5 ADD SWAP4 SWAP1 SWAP2 ADD SWAP1 PUSH2 0x2679 JUMP JUMPDEST CALLVALUE PUSH2 0x3E9 JUMPI PUSH1 0x20 DUP1 PUSH1 0x3 NOT CALLDATASIZE ADD SLT PUSH2 0x3E9 JUMPI PUSH1 0x4 CALLDATALOAD SWAP1 PUSH2 0x26C5 PUSH2 0x52CF JUMP JUMPDEST DUP2 PUSH1 0x0 MSTORE PUSH1 0x1F DUP2 MSTORE PUSH1 0x4 PUSH1 0x40 PUSH1 0x0 KECCAK256 ADD SLOAD TIMESTAMP GT ISZERO PUSH2 0x27B9 JUMPI DUP2 PUSH1 0x0 MSTORE DUP1 DUP1 MSTORE PUSH1 0x40 PUSH1 0x0 KECCAK256 CALLER PUSH1 0x0 MSTORE DUP2 MSTORE PUSH1 0x5 PUSH1 0x40 PUSH1 0x0 KECCAK256 ADD SLOAD ISZERO PUSH2 0x277F JUMPI PUSH1 0x0 DUP1 DUP1 DUP5 DUP2 SWAP5 DUP2 DUP4 MSTORE DUP1 DUP1 MSTORE PUSH1 0x40 DUP4 KECCAK256 CALLER DUP5 MSTORE DUP2 MSTORE PUSH2 0x2727 PUSH1 0xFF PUSH1 0x6 PUSH1 0x40 DUP7 KECCAK256 ADD SLOAD AND ISZERO PUSH2 0x55FB JUMP JUMPDEST DUP2 DUP4 MSTORE DUP1 DUP1 MSTORE PUSH1 0x40 DUP4 KECCAK256 CALLER DUP5 MSTORE DUP2 MSTORE PUSH1 0x5 PUSH1 0x40 DUP5 KECCAK256 ADD SLOAD SWAP2 DUP4 MSTORE DUP1 DUP1 MSTORE PUSH1 0x40 DUP4 KECCAK256 SWAP1 CALLER DUP5 MSTORE MSTORE PUSH1 0x6 PUSH1 0x40 DUP4 KECCAK256 ADD PUSH1 0x1 PUSH1 0xFF NOT DUP3 SLOAD AND OR SWAP1 SSTORE DUP2 DUP2 ISZERO PUSH2 0x2776 JUMPI JUMPDEST CALLER SWAP1 CALL ISZERO PUSH2 0xAE0 JUMPI PUSH1 0x1 PUSH1 0x8 SSTORE STOP JUMPDEST POP PUSH2 0x8FC PUSH2 0x2767 JUMP JUMPDEST PUSH1 0x64 SWAP1 PUSH1 0x40 MLOAD SWAP1 PUSH3 0x461BCD PUSH1 0xE5 SHL DUP3 MSTORE PUSH1 0x4 DUP3 ADD MSTORE PUSH1 0x13 PUSH1 0x24 DUP3 ADD MSTORE PUSH19 0x4E6F207265776172647320746F20636C61696D PUSH1 0x68 SHL PUSH1 0x44 DUP3 ADD MSTORE REVERT JUMPDEST PUSH1 0x64 SWAP1 PUSH1 0x40 MLOAD SWAP1 PUSH3 0x461BCD PUSH1 0xE5 SHL DUP3 MSTORE PUSH1 0x4 DUP3 ADD MSTORE PUSH1 0x12 PUSH1 0x24 DUP3 ADD MSTORE PUSH18 0x4576656E74207374696C6C20616374697665 PUSH1 0x70 SHL PUSH1 0x44 DUP3 ADD MSTORE REVERT JUMPDEST CALLVALUE PUSH2 0x3E9 JUMPI PUSH1 0x20 CALLDATASIZE PUSH1 0x3 NOT ADD SLT PUSH2 0x3E9 JUMPI PUSH1 0x4 CALLDATALOAD PUSH1 0x0 MSTORE PUSH1 0x16 PUSH1 0x20 MSTORE PUSH1 0x40 PUSH1 0x0 KECCAK256 DUP1 SLOAD PUSH2 0x2821 PUSH1 0x1 DUP4 ADD PUSH2 0x4A7C JUMP JUMPDEST SWAP2 PUSH1 0x2 DUP2 ADD SLOAD SWAP1 PUSH1 0x3 DUP2 ADD SLOAD SWAP1 PUSH1 0x4 DUP2 ADD SLOAD PUSH1 0x7 PUSH1 0x5 DUP4 ADD SLOAD SWAP3 ADD SLOAD SWAP3 PUSH2 0x285A PUSH1 0x40 MLOAD SWAP8 DUP9 SWAP8 DUP9 MSTORE PUSH2 0x100 DUP1 PUSH1 0x20 DUP11 ADD MSTORE DUP9 ADD SWAP1 PUSH2 0x4801 JUMP JUMPDEST PUSH1 0x40 DUP8 ADD SWAP6 SWAP1 SWAP6 MSTORE PUSH1 0x60 DUP7 ADD MSTORE PUSH1 0x80 DUP6 ADD MSTORE PUSH1 0xA0 DUP5 ADD MSTORE PUSH1 0xFF DUP2 AND ISZERO ISZERO PUSH1 0xC0 DUP5 ADD MSTORE PUSH1 0x8 SHR PUSH1 0x1 PUSH1 0x1 PUSH1 0xA0 SHL SUB AND PUSH1 0xE0 DUP4 ADD MSTORE SUB SWAP1 RETURN JUMPDEST CALLVALUE PUSH2 0x3E9 JUMPI PUSH1 0x0 CALLDATASIZE PUSH1 0x3 NOT ADD SLT PUSH2 0x3E9 JUMPI PUSH2 0x28AA PUSH2 0x4B8E JUMP JUMPDEST PUSH1 0x7 DUP1 SLOAD PUSH1 0x1 PUSH1 0x1 PUSH1 0xA0 SHL SUB NOT DUP2 AND SWAP1 SWAP2 SSTORE PUSH1 0x0 SWAP1 PUSH1 0x1 PUSH1 0x1 PUSH1 0xA0 SHL SUB AND PUSH1 0x0 DUP1 MLOAD PUSH1 0x20 PUSH2 0x5693 DUP4 CODECOPY DUP2 MLOAD SWAP2 MSTORE DUP3 DUP1 LOG3 STOP JUMPDEST CALLVALUE PUSH2 0x3E9 JUMPI PUSH1 0x20 CALLDATASIZE PUSH1 0x3 NOT ADD SLT PUSH2 0x3E9 JUMPI PUSH1 0x1 PUSH1 0x1 PUSH1 0xA0 SHL SUB PUSH2 0x28FD PUSH2 0x4826 JUMP JUMPDEST AND DUP1 ISZERO PUSH2 0x291C JUMPI PUSH1 0x0 MSTORE PUSH1 0x3 PUSH1 0x20 MSTORE PUSH1 0x20 PUSH1 0x40 PUSH1 0x0 KECCAK256 SLOAD PUSH1 0x40 MLOAD SWAP1 DUP2 MSTORE RETURN JUMPDEST PUSH1 0x40 MLOAD PUSH3 0x461BCD PUSH1 0xE5 SHL DUP2 MSTORE PUSH1 0x20 PUSH1 0x4 DUP3 ADD MSTORE PUSH1 0x29 PUSH1 0x24 DUP3 ADD MSTORE PUSH32 0x4552433732313A2061646472657373207A65726F206973206E6F742061207661 PUSH1 0x44 DUP3 ADD MSTORE PUSH9 0x3634B21037BBB732B9 PUSH1 0xB9 SHL PUSH1 0x64 DUP3 ADD MSTORE PUSH1 0x84 SWAP1 REVERT JUMPDEST CALLVALUE PUSH2 0x3E9 JUMPI PUSH1 0x0 CALLDATASIZE PUSH1 0x3 NOT ADD SLT PUSH2 0x3E9 JUMPI PUSH1 0x20 PUSH1 0x40 MLOAD PUSH7 0x71AFD498D0000 DUP2 MSTORE RETURN JUMPDEST CALLVALUE PUSH2 0x3E9 JUMPI PUSH1 0x20 DUP1 PUSH1 0x3 NOT CALLDATASIZE ADD SLT PUSH2 0x3E9 JUMPI PUSH1 0x4 CALLDATALOAD SWAP1 DUP2 PUSH1 0x0 MSTORE PUSH1 0xE DUP2 MSTORE PUSH1 0x40 PUSH1 0x0 KECCAK256 PUSH1 0x40 MLOAD PUSH2 0x29C4 DUP2 PUSH2 0x4888 JUMP JUMPDEST DUP2 SLOAD DUP2 MSTORE PUSH2 0x140 PUSH1 0x8 PUSH1 0x1 DUP5 ADD SLOAD SWAP4 PUSH1 0xFF DUP7 DUP6 ADD SWAP6 PUSH2 0x29E5 DUP3 DUP3 AND DUP9 PUSH2 0x5263 JUMP JUMPDEST DUP4 SHR AND PUSH2 0x29F1 DUP2 PUSH2 0x4871 JUMP JUMPDEST PUSH1 0x40 DUP6 ADD MSTORE PUSH1 0x2 DUP2 ADD SLOAD PUSH1 0x60 DUP6 ADD MSTORE PUSH1 0x3 DUP2 ADD SLOAD PUSH1 0x80 DUP6 ADD MSTORE PUSH1 0x1 DUP1 PUSH1 0xA0 SHL SUB DUP1 PUSH1 0x4 DUP4 ADD SLOAD AND PUSH1 0xA0 DUP7 ADD MSTORE PUSH1 0x5 DUP3 ADD SLOAD PUSH1 0xC0 DUP7 ADD MSTORE PUSH1 0x6 DUP3 ADD SLOAD PUSH1 0xFF DUP2 AND ISZERO ISZERO PUSH1 0xE0 DUP8 ADD MSTORE DUP4 SHR AND PUSH2 0x100 DUP6 ADD MSTORE PUSH1 0x7 DUP2 ADD SLOAD PUSH2 0x120 DUP6 ADD MSTORE ADD SLOAD SWAP2 ADD MSTORE DUP3 PUSH1 0x0 MSTORE PUSH1 0xF DUP3 MSTORE PUSH1 0x40 PUSH1 0x0 KECCAK256 SWAP1 PUSH1 0x40 MLOAD SWAP1 PUSH2 0x2A6B DUP3 PUSH2 0x48BF JUMP JUMPDEST DUP3 SLOAD DUP3 MSTORE PUSH1 0x3 PUSH1 0x1 DUP5 ADD SLOAD SWAP4 DUP6 DUP5 ADD SWAP5 DUP6 MSTORE PUSH1 0x2 DUP2 ADD SLOAD PUSH1 0x40 DUP6 ADD MSTORE ADD SLOAD PUSH1 0x60 DUP4 ADD MSTORE DUP1 MLOAD PUSH1 0x4 DUP2 LT ISZERO PUSH2 0x1285 JUMPI PUSH2 0x2BB7 JUMPI POP PUSH1 0x5D SWAP1 PUSH2 0x1015 SWAP3 PUSH2 0x2AE8 PUSH2 0x2AE1 PUSH2 0x2ADA PUSH1 0x40 MLOAD PUSH2 0x2ABA DUP2 PUSH2 0x4910 JUMP JUMPDEST PUSH1 0xE DUP2 MSTORE PUSH14 0x21B934B6B9B7B7102632B3B4B7B7 PUSH1 0x91 SHL DUP10 DUP3 ADD MSTORE SWAP9 PUSH2 0x5473 JUMP JUMPDEST SWAP4 MLOAD PUSH2 0x5473 JUMP JUMPDEST SWAP2 MLOAD PUSH2 0x5473 JUMP JUMPDEST SWAP1 PUSH1 0x40 MLOAD SWAP7 DUP8 SWAP4 PUSH23 0x7B226E616D65223A2244796E616D696320436C75652023 PUSH1 0x48 SHL DUP9 DUP7 ADD MSTORE PUSH2 0x2B21 DUP2 MLOAD DUP1 SWAP3 DUP11 PUSH1 0x37 DUP10 ADD SWAP2 ADD PUSH2 0x47DE JUMP JUMPDEST DUP5 ADD PUSH13 0x1116113330B1BA34B7B7111D11 PUSH1 0x99 SHL PUSH1 0x37 DUP3 ADD MSTORE PUSH2 0x2B4C DUP3 MLOAD DUP1 SWAP4 DUP11 PUSH1 0x44 DUP6 ADD SWAP2 ADD PUSH2 0x47DE JUMP JUMPDEST ADD PUSH10 0x1116113632BB32B6111D PUSH1 0xB1 SHL PUSH1 0x44 DUP3 ADD MSTORE PUSH2 0x2B73 DUP3 MLOAD DUP1 SWAP4 DUP10 PUSH1 0x4E DUP6 ADD SWAP2 ADD PUSH2 0x47DE JUMP JUMPDEST ADD PUSH14 0x161132BC3832B934B2B731B2911D PUSH1 0x91 SHL PUSH1 0x4E DUP3 ADD MSTORE PUSH2 0x2B9E DUP3 MLOAD DUP1 SWAP4 DUP9 PUSH1 0x5C DUP6 ADD SWAP2 ADD PUSH2 0x47DE JUMP JUMPDEST ADD PUSH1 0x7D PUSH1 0xF8 SHL PUSH1 0x5C DUP3 ADD MSTORE SUB PUSH1 0x3D DUP2 ADD DUP6 MSTORE ADD DUP4 PUSH2 0x492B JUMP JUMPDEST DUP1 MLOAD PUSH1 0x4 DUP2 LT ISZERO PUSH2 0x1285 JUMPI PUSH1 0x1 SUB PUSH2 0x2C03 JUMPI POP PUSH1 0x5D SWAP1 PUSH2 0x1015 SWAP3 PUSH2 0x2AE8 PUSH2 0x2AE1 PUSH2 0x2ADA PUSH1 0x40 MLOAD PUSH2 0x2BE6 DUP2 PUSH2 0x4910 JUMP JUMPDEST PUSH1 0xB DUP2 MSTORE PUSH11 0x20BD3AB9329027B93232B9 PUSH1 0xA9 SHL DUP10 DUP3 ADD MSTORE SWAP9 PUSH2 0x5473 JUMP JUMPDEST MLOAD SWAP1 PUSH1 0x4 DUP3 LT ISZERO PUSH2 0x1285 JUMPI PUSH2 0x1015 SWAP3 PUSH1 0x5D SWAP3 PUSH1 0x2 SUB PUSH2 0x2C53 JUMPI PUSH2 0x2AE8 PUSH2 0x2AE1 PUSH2 0x2ADA PUSH1 0x40 MLOAD PUSH2 0x2C31 DUP2 PUSH2 0x4910 JUMP JUMPDEST PUSH1 0x10 DUP2 MSTORE PUSH16 0x56657264616E7420416C6C69616E6365 PUSH1 0x80 SHL DUP10 DUP3 ADD MSTORE SWAP9 PUSH2 0x5473 JUMP JUMPDEST PUSH2 0x2AE8 PUSH2 0x2AE1 PUSH2 0x2ADA PUSH1 0x40 MLOAD PUSH2 0x2C68 DUP2 PUSH2 0x4910 JUMP JUMPDEST PUSH1 0xF DUP2 MSTORE PUSH15 0x23B7B63232B7102237B6B4B734B7B7 PUSH1 0x89 SHL DUP10 DUP3 ADD MSTORE SWAP9 PUSH2 0x5473 JUMP JUMPDEST CALLVALUE PUSH2 0x3E9 JUMPI PUSH1 0x20 DUP1 PUSH1 0x3 NOT CALLDATASIZE ADD SLT PUSH2 0x3E9 JUMPI PUSH1 0x1 PUSH1 0x1 PUSH1 0xA0 SHL SUB PUSH2 0x2CAB PUSH2 0x4826 JUMP JUMPDEST AND DUP1 PUSH1 0x0 MSTORE PUSH1 0x13 DUP3 MSTORE PUSH1 0x40 PUSH1 0x0 KECCAK256 SLOAD ISZERO PUSH2 0x2CF8 JUMPI PUSH1 0x0 MSTORE PUSH1 0x13 DUP2 MSTORE PUSH1 0x40 PUSH1 0x0 KECCAK256 DUP1 SLOAD ISZERO PUSH2 0x2CE2 JUMPI PUSH1 0x0 MSTORE DUP1 PUSH1 0x0 KECCAK256 SLOAD PUSH1 0x40 MLOAD SWAP1 DUP2 MSTORE RETURN JUMPDEST PUSH4 0x4E487B71 PUSH1 0xE0 SHL PUSH1 0x0 MSTORE PUSH1 0x32 PUSH1 0x4 MSTORE PUSH1 0x24 PUSH1 0x0 REVERT JUMPDEST PUSH1 0x40 MLOAD PUSH3 0x461BCD PUSH1 0xE5 SHL DUP2 MSTORE PUSH1 0x4 DUP2 ADD DUP4 SWAP1 MSTORE PUSH1 0x14 PUSH1 0x24 DUP3 ADD MSTORE PUSH20 0x506C6179657220686173206E6F20746F6B656E73 PUSH1 0x60 SHL PUSH1 0x44 DUP3 ADD MSTORE PUSH1 0x64 SWAP1 REVERT JUMPDEST CALLVALUE PUSH2 0x3E9 JUMPI PUSH1 0x20 CALLDATASIZE PUSH1 0x3 NOT ADD SLT PUSH2 0x3E9 JUMPI PUSH1 0x4 CALLDATALOAD PUSH1 0x0 MSTORE PUSH1 0x1F PUSH1 0x20 MSTORE PUSH1 0x40 PUSH1 0x0 KECCAK256 DUP1 SLOAD PUSH2 0x2D63 PUSH1 0x1 DUP4 ADD PUSH2 0x4A7C JUMP JUMPDEST SWAP2 PUSH2 0x2D70 PUSH1 0x2 DUP3 ADD PUSH2 0x4A7C JUMP JUMPDEST PUSH1 0x3 DUP3 ADD SLOAD SWAP2 PUSH1 0x4 DUP2 ADD SLOAD PUSH1 0x5 DUP3 ADD SLOAD PUSH1 0x6 DUP4 ADD SLOAD PUSH1 0x7 DUP5 ADD SLOAD SWAP2 PUSH1 0xFF PUSH1 0x8 DUP7 ADD SLOAD AND SWAP4 PUSH2 0x2DCE PUSH1 0xA PUSH1 0x9 DUP9 ADD SLOAD SWAP8 ADD SLOAD SWAP8 PUSH2 0x2DC0 PUSH1 0x40 MLOAD SWAP13 DUP14 SWAP13 DUP14 MSTORE PUSH1 0x20 DUP14 PUSH2 0x160 SWAP2 DUP3 SWAP2 ADD MSTORE DUP14 ADD SWAP1 PUSH2 0x4801 JUMP JUMPDEST SWAP1 DUP12 DUP3 SUB PUSH1 0x40 DUP14 ADD MSTORE PUSH2 0x4801 JUMP JUMPDEST SWAP8 PUSH1 0x60 DUP11 ADD MSTORE PUSH1 0x80 DUP10 ADD MSTORE PUSH1 0xA0 DUP9 ADD MSTORE PUSH1 0xC0 DUP8 ADD MSTORE PUSH1 0xE0 DUP7 ADD MSTORE ISZERO ISZERO PUSH2 0x100 DUP6 ADD MSTORE PUSH2 0x120 DUP5 ADD MSTORE PUSH2 0x140 DUP4 ADD MSTORE SUB SWAP1 RETURN JUMPDEST CALLVALUE PUSH2 0x3E9 JUMPI PUSH1 0x20 CALLDATASIZE PUSH1 0x3 NOT ADD SLT PUSH2 0x3E9 JUMPI PUSH1 0x20 PUSH2 0x2E1E PUSH1 0x4 CALLDATALOAD PUSH2 0x4C2D JUMP JUMPDEST PUSH1 0x40 MLOAD PUSH1 0x1 PUSH1 0x1 PUSH1 0xA0 SHL SUB SWAP1 SWAP2 AND DUP2 MSTORE RETURN JUMPDEST CALLVALUE PUSH2 0x3E9 JUMPI PUSH1 0x0 CALLDATASIZE PUSH1 0x3 NOT ADD SLT PUSH2 0x3E9 JUMPI PUSH1 0x20 PUSH1 0x24 SLOAD PUSH1 0x40 MLOAD SWAP1 DUP2 MSTORE RETURN JUMPDEST CALLVALUE PUSH2 0x3E9 JUMPI PUSH1 0x20 CALLDATASIZE PUSH1 0x3 NOT ADD SLT PUSH2 0x3E9 JUMPI PUSH1 0x1 PUSH1 0x1 PUSH1 0xA0 SHL SUB PUSH2 0x2E6F PUSH2 0x4826 JUMP JUMPDEST AND PUSH1 0x0 MSTORE PUSH1 0x1B PUSH1 0x20 MSTORE PUSH1 0x20 PUSH1 0x40 PUSH1 0x0 KECCAK256 SLOAD PUSH1 0x40 MLOAD SWAP1 DUP2 MSTORE RETURN JUMPDEST CALLVALUE PUSH2 0x3E9 JUMPI PUSH1 0x20 CALLDATASIZE PUSH1 0x3 NOT ADD SLT PUSH2 0x3E9 JUMPI PUSH1 0x4 CALLDATALOAD PUSH1 0x0 MSTORE PUSH1 0xF PUSH1 0x20 MSTORE PUSH1 0x80 PUSH1 0x40 PUSH1 0x0 KECCAK256 DUP1 SLOAD SWAP1 PUSH1 0x1 DUP2 ADD SLOAD SWAP1 PUSH1 0x3 PUSH1 0x2 DUP3 ADD SLOAD SWAP2 ADD SLOAD SWAP2 PUSH1 0x40 MLOAD SWAP4 DUP5 MSTORE PUSH1 0x20 DUP5 ADD MSTORE PUSH1 0x40 DUP4 ADD MSTORE PUSH1 0x60 DUP3 ADD MSTORE RETURN JUMPDEST PUSH1 0x20 DUP1 PUSH1 0x3 NOT CALLDATASIZE ADD SLT PUSH2 0x3E9 JUMPI PUSH1 0x4 CALLDATALOAD SWAP1 PUSH2 0x2EEF PUSH2 0x52CF JUMP JUMPDEST DUP2 PUSH1 0x0 MSTORE PUSH1 0x1C DUP2 MSTORE PUSH1 0x40 PUSH1 0x0 KECCAK256 SWAP2 PUSH1 0x40 MLOAD PUSH2 0x2F09 DUP2 PUSH2 0x48BF JUMP JUMPDEST DUP4 SLOAD DUP2 MSTORE PUSH1 0x1 DUP1 PUSH1 0xA0 SHL SUB DUP1 PUSH1 0x1 DUP7 ADD SLOAD AND SWAP2 DUP5 DUP2 ADD SWAP3 DUP4 MSTORE PUSH1 0xFF PUSH1 0x3 PUSH1 0x2 DUP9 ADD SLOAD SWAP8 PUSH1 0x40 DUP5 ADD SWAP9 DUP10 MSTORE ADD SLOAD AND ISZERO SWAP1 PUSH1 0x60 DUP3 ISZERO SWAP2 ADD MSTORE PUSH2 0x3041 JUMPI DUP5 MLOAD CALLVALUE LT PUSH2 0x3005 JUMPI PUSH2 0x2F5A DUP4 DUP3 DUP5 MLOAD AND CALLER SWAP1 PUSH2 0x4E19 JUMP JUMPDEST PUSH1 0x0 DUP1 DUP1 DUP1 DUP5 DUP7 MLOAD AND DUP10 MLOAD SWAP1 DUP3 DUP3 ISZERO PUSH2 0x2FFC JUMPI JUMPDEST CALL ISZERO PUSH2 0xAE0 JUMPI DUP5 MLOAD DUP1 CALLVALUE GT PUSH2 0x2FCE JUMPI JUMPDEST POP PUSH32 0x8562EB94748E30BB0071E932744CE902B460C683474FCB3BFD567FFA16B1AFB2 SWAP2 DUP4 PUSH1 0x0 MSTORE PUSH1 0x1C DUP6 MSTORE PUSH1 0x3 PUSH1 0x40 PUSH1 0x0 KECCAK256 ADD PUSH1 0xFF NOT DUP2 SLOAD AND SWAP1 SSTORE MLOAD AND SWAP4 MLOAD SWAP3 PUSH1 0x40 MLOAD SWAP4 DUP5 MSTORE CALLER SWAP4 LOG4 PUSH1 0x1 PUSH1 0x8 SSTORE STOP JUMPDEST PUSH1 0x0 DUP1 DUP1 PUSH2 0x2FDD DUP2 SWAP5 CALLVALUE PUSH2 0x51AB JUMP JUMPDEST DUP2 DUP2 ISZERO PUSH2 0x2FF3 JUMPI JUMPDEST CALLER SWAP1 CALL ISZERO PUSH2 0xAE0 JUMPI DUP6 PUSH2 0x2F7E JUMP JUMPDEST POP PUSH2 0x8FC PUSH2 0x2FE5 JUMP JUMPDEST POP PUSH2 0x8FC PUSH2 0x2F6E JUMP JUMPDEST PUSH1 0x40 MLOAD PUSH3 0x461BCD PUSH1 0xE5 SHL DUP2 MSTORE PUSH1 0x4 DUP2 ADD DUP6 SWAP1 MSTORE PUSH1 0x14 PUSH1 0x24 DUP3 ADD MSTORE PUSH20 0x125B9CDD59999A58DA595B9D081C185E5B595B9D PUSH1 0x62 SHL PUSH1 0x44 DUP3 ADD MSTORE PUSH1 0x64 SWAP1 REVERT JUMPDEST PUSH1 0x40 MLOAD PUSH3 0x461BCD PUSH1 0xE5 SHL DUP2 MSTORE PUSH1 0x4 DUP2 ADD DUP6 SWAP1 MSTORE PUSH1 0xE PUSH1 0x24 DUP3 ADD MSTORE PUSH14 0x139195081B9BDD081B1A5CDD1959 PUSH1 0x92 SHL PUSH1 0x44 DUP3 ADD MSTORE PUSH1 0x64 SWAP1 REVERT JUMPDEST CALLVALUE PUSH2 0x3E9 JUMPI PUSH2 0x3085 CALLDATASIZE PUSH2 0x4A2C JUMP JUMPDEST SWAP1 PUSH2 0x308F DUP2 PUSH2 0x4C2D JUMP JUMPDEST PUSH1 0x1 PUSH1 0x1 PUSH1 0xA0 SHL SUB SWAP1 PUSH2 0x30A5 SWAP1 DUP3 AND CALLER EQ PUSH2 0x5640 JUMP JUMPDEST PUSH1 0x1 DUP4 LT ISZERO DUP1 PUSH2 0x323C JUMPI JUMPDEST ISZERO PUSH2 0x3204 JUMPI DUP3 PUSH1 0xA MUL PUSH1 0xA DUP2 DIV DUP5 SUB PUSH2 0xB8C JUMPI PUSH1 0x22 SLOAD DUP2 DUP2 ISZERO ISZERO DUP1 PUSH2 0x31E9 JUMPI JUMPDEST PUSH2 0x3198 JUMPI JUMPDEST POP POP PUSH3 0x15180 SWAP1 DUP2 DUP6 MUL SWAP2 DUP6 DUP4 DIV EQ DUP6 ISZERO OR ISZERO PUSH2 0xB8C JUMPI PUSH1 0x4 SWAP2 PUSH1 0x40 MLOAD SWAP4 PUSH2 0x30FC DUP6 PUSH2 0x48A4 JUMP JUMPDEST DUP6 DUP6 MSTORE PUSH1 0x20 DUP6 ADD CALLER DUP2 MSTORE PUSH1 0x40 DUP7 ADD SWAP2 TIMESTAMP DUP4 MSTORE PUSH1 0x60 DUP8 ADD SWAP4 DUP5 MSTORE PUSH1 0x80 DUP8 ADD SWAP5 DUP6 MSTORE DUP8 PUSH1 0x0 MSTORE PUSH1 0x1D PUSH1 0x20 MSTORE PUSH1 0x40 PUSH1 0x0 KECCAK256 SWAP7 MLOAD DUP8 SSTORE PUSH1 0x1 DUP8 ADD SWAP2 MLOAD AND PUSH1 0x1 DUP1 PUSH1 0xA0 SHL SUB NOT DUP3 SLOAD AND OR SWAP1 SSTORE MLOAD PUSH1 0x2 DUP6 ADD SSTORE MLOAD PUSH1 0x3 DUP5 ADD SSTORE MLOAD SWAP2 ADD SSTORE CALLER PUSH1 0x0 MSTORE PUSH1 0x1E PUSH1 0x20 MSTORE PUSH2 0x316A DUP2 PUSH1 0x40 PUSH1 0x0 KECCAK256 PUSH2 0x52AC JUMP JUMPDEST PUSH1 0x40 MLOAD SWAP2 DUP3 MSTORE PUSH32 0x7C403FEABC47B424CA9FCE0347BA2DBF96BC829F0EA06C10EBC13B50E6F65903 PUSH1 0x20 CALLER SWAP4 LOG3 STOP JUMPDEST DUP2 SWAP3 POP PUSH2 0x31B9 SWAP1 PUSH1 0x64 SWAP3 PUSH1 0x0 MSTORE PUSH1 0x1F PUSH1 0x20 MSTORE PUSH1 0x7 PUSH1 0x40 PUSH1 0x0 KECCAK256 ADD SLOAD SWAP1 PUSH2 0x5198 JUMP JUMPDEST DIV SWAP1 PUSH1 0x0 MSTORE PUSH1 0x20 DUP1 MSTORE PUSH1 0x40 PUSH1 0x0 KECCAK256 CALLER PUSH1 0x0 MSTORE PUSH1 0x20 MSTORE PUSH1 0x4 PUSH1 0x40 PUSH1 0x0 KECCAK256 ADD PUSH2 0x31E0 DUP2 SLOAD PUSH2 0x55D5 JUMP JUMPDEST SWAP1 SSTORE DUP5 DUP1 PUSH2 0x30D5 JUMP JUMPDEST POP DUP2 PUSH1 0x0 MSTORE PUSH1 0x1F PUSH1 0x20 MSTORE PUSH1 0xFF PUSH1 0x8 PUSH1 0x40 PUSH1 0x0 KECCAK256 ADD SLOAD AND PUSH2 0x30D0 JUMP JUMPDEST PUSH1 0x40 MLOAD PUSH3 0x461BCD PUSH1 0xE5 SHL DUP2 MSTORE PUSH1 0x20 PUSH1 0x4 DUP3 ADD MSTORE PUSH1 0x10 PUSH1 0x24 DUP3 ADD MSTORE PUSH16 0x24B73B30B634B210323AB930BA34B7B7 PUSH1 0x81 SHL PUSH1 0x44 DUP3 ADD MSTORE PUSH1 0x64 SWAP1 REVERT JUMPDEST POP PUSH2 0x16D DUP4 GT ISZERO PUSH2 0x30B0 JUMP JUMPDEST CALLVALUE PUSH2 0x3E9 JUMPI PUSH1 0x60 CALLDATASIZE PUSH1 0x3 NOT ADD SLT PUSH2 0x3E9 JUMPI PUSH1 0x44 CALLDATALOAD PUSH1 0x1 PUSH1 0x1 PUSH1 0xA0 SHL SUB DUP2 AND DUP2 SUB PUSH2 0x3E9 JUMPI PUSH2 0x3E1 PUSH1 0x20 SWAP2 PUSH1 0x24 CALLDATALOAD PUSH1 0x4 CALLDATALOAD PUSH2 0x51B8 JUMP JUMPDEST CALLVALUE PUSH2 0x3E9 JUMPI PUSH1 0x20 CALLDATASIZE PUSH1 0x3 NOT ADD SLT PUSH2 0x3E9 JUMPI PUSH1 0x20 PUSH1 0x1 PUSH1 0x1 PUSH1 0xA0 SHL SUB DUP1 PUSH2 0x32A1 PUSH2 0x4826 JUMP JUMPDEST AND PUSH1 0x0 MSTORE PUSH1 0x1A DUP3 MSTORE PUSH1 0x40 PUSH1 0x0 KECCAK256 SLOAD AND PUSH1 0x40 MLOAD SWAP1 DUP2 MSTORE RETURN JUMPDEST PUSH1 0xA0 CALLDATASIZE PUSH1 0x3 NOT ADD SLT PUSH2 0x3E9 JUMPI PUSH2 0x32CC PUSH2 0x4826 JUMP JUMPDEST PUSH2 0x32D4 PUSH2 0x52CF JUMP JUMPDEST PUSH1 0x3 PUSH1 0x24 CALLDATALOAD GT PUSH2 0x35CC JUMPI PUSH1 0x2 PUSH1 0x44 CALLDATALOAD GT PUSH2 0x35AF JUMPI PUSH2 0x32F3 PUSH1 0x44 CALLDATALOAD PUSH2 0x4871 JUMP JUMPDEST PUSH2 0x32FE PUSH1 0x44 CALLDATALOAD PUSH2 0x5115 JUMP JUMPDEST CALLVALUE LT PUSH2 0x3570 JUMPI PUSH1 0x9 SLOAD PUSH1 0x1 DUP2 ADD PUSH1 0x9 SSTORE PUSH2 0x3335 PUSH2 0x17AB PUSH1 0x40 MLOAD PUSH2 0x3320 DUP2 PUSH2 0x48F5 JUMP JUMPDEST PUSH1 0x0 DUP2 MSTORE PUSH2 0x332E DUP5 DUP7 PUSH2 0x5370 JUMP JUMPDEST DUP4 DUP6 PUSH2 0x4F43 JUMP JUMPDEST PUSH1 0x4 PUSH1 0x24 CALLDATALOAD LT ISZERO PUSH2 0x1285 JUMPI PUSH1 0x40 MLOAD PUSH2 0x334C DUP2 PUSH2 0x4888 JUMP JUMPDEST DUP2 DUP2 MSTORE PUSH2 0x335E PUSH1 0x24 CALLDATALOAD PUSH1 0x20 DUP4 ADD PUSH2 0x5263 JUMP JUMPDEST PUSH2 0x3369 PUSH1 0x44 CALLDATALOAD PUSH2 0x4871 JUMP JUMPDEST PUSH1 0x44 CALLDATALOAD PUSH1 0x40 DUP3 ADD MSTORE PUSH1 0x64 CALLDATALOAD PUSH1 0x60 DUP3 ADD MSTORE PUSH1 0x84 CALLDATALOAD PUSH1 0x80 DUP3 ADD MSTORE PUSH1 0x1 DUP1 PUSH1 0xA0 SHL SUB DUP4 AND PUSH1 0xA0 DUP3 ADD MSTORE TIMESTAMP PUSH1 0xC0 DUP3 ADD MSTORE PUSH1 0x0 PUSH1 0xE0 DUP3 ADD MSTORE PUSH1 0x0 PUSH2 0x100 DUP3 ADD MSTORE PUSH1 0x0 PUSH2 0x120 DUP3 ADD MSTORE PUSH1 0x0 PUSH2 0x140 DUP3 ADD MSTORE DUP2 PUSH1 0x0 MSTORE PUSH1 0xE PUSH1 0x20 MSTORE PUSH1 0x40 PUSH1 0x0 KECCAK256 SWAP1 DUP1 MLOAD DUP3 SSTORE PUSH1 0x20 DUP2 ADD MLOAD PUSH1 0x4 DUP2 LT ISZERO PUSH2 0x1285 JUMPI PUSH1 0x8 SWAP2 PUSH2 0x140 SWAP2 PUSH2 0x33EA PUSH1 0x1 DUP7 ADD SWAP2 DUP3 PUSH2 0x526F JUMP JUMPDEST PUSH1 0x40 DUP3 ADD MLOAD PUSH2 0x33F8 DUP2 PUSH2 0x4871 JUMP JUMPDEST PUSH2 0x3401 DUP2 PUSH2 0x4871 JUMP JUMPDEST DUP2 SLOAD PUSH2 0xFF00 NOT AND SWAP1 DUP6 SHL PUSH2 0xFF00 AND OR SWAP1 SSTORE PUSH1 0x60 DUP2 ADD MLOAD PUSH1 0x2 DUP6 ADD SSTORE PUSH1 0x80 DUP2 ADD MLOAD PUSH1 0x3 DUP6 ADD SSTORE PUSH1 0xA0 DUP2 ADD MLOAD PUSH1 0x4 DUP6 ADD DUP1 SLOAD PUSH1 0x1 PUSH1 0x1 PUSH1 0xA0 SHL SUB NOT AND PUSH1 0x1 PUSH1 0x1 PUSH1 0xA0 SHL SUB SWAP3 SWAP1 SWAP3 AND SWAP2 SWAP1 SWAP2 OR SWAP1 SSTORE PUSH1 0xC0 DUP2 ADD MLOAD PUSH1 0x5 DUP6 ADD SSTORE PUSH1 0xE0 DUP2 ADD MLOAD PUSH2 0x3486 SWAP1 PUSH1 0x6 DUP7 ADD SWAP1 PUSH2 0x3471 SWAP1 ISZERO ISZERO DUP3 PUSH2 0x4F15 JUMP JUMPDEST PUSH2 0x100 DUP4 ADD MLOAD PUSH1 0x1 PUSH1 0x1 PUSH1 0xA0 SHL SUB AND SWAP1 PUSH2 0x5287 JUMP JUMPDEST PUSH2 0x120 DUP2 ADD MLOAD PUSH1 0x7 DUP6 ADD SSTORE ADD MLOAD SWAP2 ADD SSTORE PUSH1 0x40 MLOAD PUSH2 0x34A2 DUP2 PUSH2 0x48BF JUMP JUMPDEST PUSH1 0x1 DUP2 MSTORE PUSH1 0x3 PUSH1 0x20 DUP3 ADD PUSH1 0x0 DUP2 MSTORE PUSH1 0x40 DUP4 ADD PUSH1 0x0 DUP2 MSTORE PUSH1 0x60 DUP5 ADD SWAP2 TIMESTAMP DUP4 MSTORE DUP6 PUSH1 0x0 MSTORE PUSH1 0xF PUSH1 0x20 MSTORE PUSH1 0x40 PUSH1 0x0 KECCAK256 SWAP5 MLOAD DUP6 SSTORE MLOAD PUSH1 0x1 DUP6 ADD SSTORE MLOAD PUSH1 0x2 DUP5 ADD SSTORE MLOAD SWAP2 ADD SSTORE PUSH1 0x1 DUP1 PUSH1 0xA0 SHL SUB DUP3 AND PUSH1 0x0 MSTORE PUSH1 0x11 PUSH1 0x20 MSTORE PUSH2 0x3503 PUSH1 0x24 CALLDATALOAD PUSH1 0x40 PUSH1 0x0 KECCAK256 PUSH2 0x526F JUMP JUMPDEST PUSH1 0x1 DUP1 PUSH1 0xA0 SHL SUB DUP3 AND PUSH1 0x0 MSTORE PUSH1 0x13 PUSH1 0x20 MSTORE PUSH2 0x3522 DUP2 PUSH1 0x40 PUSH1 0x0 KECCAK256 PUSH2 0x52AC JUMP JUMPDEST PUSH1 0x0 DUP1 MLOAD PUSH1 0x20 PUSH2 0x56B3 DUP4 CODECOPY DUP2 MLOAD SWAP2 MSTORE PUSH1 0x60 PUSH1 0x40 MLOAD SWAP4 PUSH2 0x3543 DUP6 PUSH1 0x24 CALLDATALOAD PUSH2 0x487B JUMP JUMPDEST PUSH2 0x354E PUSH1 0x44 CALLDATALOAD PUSH2 0x4871 JUMP JUMPDEST PUSH1 0x44 CALLDATALOAD PUSH1 0x20 DUP7 ADD MSTORE PUSH1 0x64 CALLDATALOAD PUSH1 0x40 DUP7 ADD MSTORE PUSH1 0x1 PUSH1 0x1 PUSH1 0xA0 SHL SUB AND SWAP4 LOG3 PUSH1 0x1 PUSH1 0x8 SSTORE STOP JUMPDEST PUSH1 0x40 MLOAD PUSH3 0x461BCD PUSH1 0xE5 SHL DUP2 MSTORE PUSH1 0x20 PUSH1 0x4 DUP3 ADD MSTORE PUSH1 0x17 PUSH1 0x24 DUP3 ADD MSTORE PUSH23 0x496E73756666696369656E74206D696E74207072696365 PUSH1 0x48 SHL PUSH1 0x44 DUP3 ADD MSTORE PUSH1 0x64 SWAP1 REVERT JUMPDEST PUSH1 0x40 MLOAD PUSH3 0x461BCD PUSH1 0xE5 SHL DUP2 MSTORE DUP1 PUSH2 0x35C8 PUSH1 0x4 DUP3 ADD PUSH2 0x50EE JUMP JUMPDEST SUB SWAP1 REVERT JUMPDEST PUSH1 0x40 MLOAD PUSH3 0x461BCD PUSH1 0xE5 SHL DUP2 MSTORE PUSH1 0x20 PUSH1 0x4 DUP3 ADD MSTORE PUSH1 0xF PUSH1 0x24 DUP3 ADD MSTORE PUSH15 0x24B73B30B634B2103330B1BA34B7B7 PUSH1 0x89 SHL PUSH1 0x44 DUP3 ADD MSTORE PUSH1 0x64 SWAP1 REVERT JUMPDEST CALLVALUE PUSH2 0x3E9 JUMPI PUSH1 0x60 CALLDATASIZE PUSH1 0x3 NOT ADD SLT PUSH2 0x3E9 JUMPI PUSH1 0x4 CALLDATALOAD PUSH1 0x1 PUSH1 0x1 PUSH1 0x40 SHL SUB DUP2 GT PUSH2 0x3E9 JUMPI PUSH2 0x3633 SWAP1 CALLDATASIZE SWAP1 PUSH1 0x4 ADD PUSH2 0x49EC JUMP JUMPDEST PUSH1 0x44 CALLDATALOAD SWAP1 PUSH2 0x363F PUSH2 0x4B8E JUMP JUMPDEST PUSH1 0x23 SLOAD SWAP2 PUSH2 0x364C DUP4 PUSH2 0x55D5 JUMP JUMPDEST PUSH1 0x23 SSTORE PUSH2 0xE10 SWAP1 DUP2 DUP2 MUL SWAP2 DUP2 DUP4 DIV EQ SWAP1 ISZERO OR ISZERO PUSH2 0xB8C JUMPI PUSH2 0x366D SWAP1 TIMESTAMP PUSH2 0x5466 JUMP JUMPDEST PUSH1 0x40 MLOAD PUSH2 0x3679 DUP2 PUSH2 0x48F5 JUMP JUMPDEST PUSH1 0x0 DUP2 MSTORE PUSH1 0x40 MLOAD SWAP1 PUSH2 0x120 DUP3 ADD PUSH1 0x1 PUSH1 0x1 PUSH1 0x40 SHL SUB DUP2 GT DUP4 DUP3 LT OR PUSH2 0xDF0 JUMPI PUSH1 0x40 MSTORE DUP5 DUP3 MSTORE PUSH1 0x20 DUP3 ADD SWAP1 DUP5 DUP3 MSTORE PUSH1 0x24 CALLDATALOAD PUSH1 0x40 DUP5 ADD MSTORE TIMESTAMP PUSH1 0x60 DUP5 ADD MSTORE DUP4 PUSH1 0x80 DUP5 ADD MSTORE PUSH1 0x0 PUSH1 0xA0 DUP5 ADD MSTORE PUSH1 0xC0 DUP4 ADD MSTORE PUSH1 0x1 PUSH1 0xE0 DUP4 ADD MSTORE PUSH1 0x0 PUSH2 0x100 DUP4 ADD MSTORE DUP5 PUSH1 0x0 MSTORE PUSH1 0x16 PUSH1 0x20 MSTORE PUSH1 0x40 PUSH1 0x0 KECCAK256 SWAP1 DUP3 MLOAD DUP3 SSTORE MLOAD DUP1 MLOAD SWAP1 PUSH1 0x1 DUP1 PUSH1 0x40 SHL SUB DUP3 GT PUSH2 0xDF0 JUMPI DUP2 SWAP1 PUSH2 0x3708 PUSH1 0x1 DUP6 ADD SLOAD PUSH2 0x4A42 JUMP JUMPDEST PUSH1 0x1F DUP2 GT PUSH2 0x38E5 JUMPI JUMPDEST POP PUSH1 0x20 SWAP1 PUSH1 0x1F DUP4 GT PUSH1 0x1 EQ PUSH2 0x3873 JUMPI PUSH1 0x0 SWAP3 PUSH2 0x3868 JUMPI JUMPDEST POP POP DUP2 PUSH1 0x1 SHL SWAP2 PUSH1 0x0 NOT SWAP1 PUSH1 0x3 SHL SHR NOT AND OR PUSH1 0x1 DUP3 ADD SSTORE JUMPDEST PUSH1 0x40 DUP3 ADD MLOAD PUSH1 0x2 DUP3 ADD SSTORE PUSH1 0x60 DUP3 ADD MLOAD PUSH1 0x3 DUP3 ADD SSTORE PUSH1 0x80 DUP3 ADD MLOAD PUSH1 0x4 DUP3 ADD SSTORE PUSH1 0xA0 DUP3 ADD MLOAD PUSH1 0x5 DUP3 ADD SSTORE PUSH1 0xC0 DUP3 ADD MLOAD DUP1 MLOAD SWAP1 PUSH1 0x6 DUP4 ADD SWAP1 PUSH1 0x1 PUSH1 0x1 PUSH1 0x40 SHL SUB DUP4 GT PUSH2 0xDF0 JUMPI PUSH1 0x1 PUSH1 0x40 SHL DUP4 GT PUSH2 0xDF0 JUMPI PUSH1 0x20 SWAP1 DUP3 SLOAD DUP5 DUP5 SSTORE DUP1 DUP6 LT PUSH2 0x384B JUMPI JUMPDEST POP ADD SWAP1 PUSH1 0x0 MSTORE PUSH1 0x20 PUSH1 0x0 KECCAK256 PUSH1 0x0 JUMPDEST DUP4 DUP2 LT PUSH2 0x382E JUMPI DUP9 PUSH32 0xF921E1476612BFF3A21B96B63AE8A3AC03579129AAD3ED13624285327365837C PUSH2 0x381B DUP11 DUP11 PUSH2 0x3807 DUP12 PUSH1 0x7 DUP13 ADD SWAP1 PUSH2 0x37F3 PUSH1 0xE0 DUP3 ADD MLOAD ISZERO ISZERO DUP4 PUSH2 0x4F15 JUMP JUMPDEST PUSH2 0x100 ADD MLOAD PUSH1 0x1 PUSH1 0x1 PUSH1 0xA0 SHL SUB AND SWAP1 PUSH2 0x5287 JUMP JUMPDEST PUSH1 0x40 MLOAD SWAP3 DUP4 SWAP3 PUSH1 0x60 DUP5 MSTORE PUSH1 0x60 DUP5 ADD SWAP1 PUSH2 0x4801 JUMP JUMPDEST SWAP1 PUSH1 0x24 CALLDATALOAD PUSH1 0x20 DUP5 ADD MSTORE PUSH1 0x40 DUP4 ADD MSTORE SUB SWAP1 LOG2 STOP JUMPDEST DUP3 MLOAD PUSH1 0x1 PUSH1 0x1 PUSH1 0xA0 SHL SUB AND DUP2 DUP4 ADD SSTORE PUSH1 0x20 SWAP1 SWAP3 ADD SWAP2 PUSH1 0x1 ADD PUSH2 0x37AC JUMP JUMPDEST PUSH2 0x3862 SWAP1 DUP5 PUSH1 0x0 MSTORE DUP6 DUP5 PUSH1 0x0 KECCAK256 SWAP2 DUP3 ADD SWAP2 ADD PUSH2 0x55E4 JUMP JUMPDEST DUP10 PUSH2 0x379E JUMP JUMPDEST ADD MLOAD SWAP1 POP DUP8 DUP1 PUSH2 0x3728 JUMP JUMPDEST SWAP3 POP PUSH1 0x1 DUP5 ADD PUSH1 0x0 MSTORE PUSH1 0x20 PUSH1 0x0 KECCAK256 SWAP1 PUSH1 0x0 SWAP4 JUMPDEST PUSH1 0x1F NOT DUP5 AND DUP6 LT PUSH2 0x38CA JUMPI PUSH1 0x1 SWAP5 POP DUP4 PUSH1 0x1F NOT DUP2 AND LT PUSH2 0x38B1 JUMPI JUMPDEST POP POP POP DUP2 SHL ADD PUSH1 0x1 DUP3 ADD SSTORE PUSH2 0x3740 JUMP JUMPDEST ADD MLOAD PUSH1 0x0 NOT PUSH1 0xF8 DUP5 PUSH1 0x3 SHL AND SHR NOT AND SWAP1 SSTORE DUP8 DUP1 DUP1 PUSH2 0x38A1 JUMP JUMPDEST DUP2 DUP2 ADD MLOAD DUP4 SSTORE PUSH1 0x20 SWAP5 DUP6 ADD SWAP5 PUSH1 0x1 SWAP1 SWAP4 ADD SWAP3 SWAP1 SWAP2 ADD SWAP1 PUSH2 0x3886 JUMP JUMPDEST PUSH2 0x3914 SWAP1 PUSH1 0x1 DUP7 ADD PUSH1 0x0 MSTORE PUSH1 0x20 PUSH1 0x0 KECCAK256 PUSH1 0x1F DUP6 ADD PUSH1 0x5 SHR DUP2 ADD SWAP2 PUSH1 0x20 DUP7 LT PUSH2 0x19D0 JUMPI PUSH1 0x1F ADD PUSH1 0x5 SHR ADD SWAP1 PUSH2 0x55E4 JUMP JUMPDEST DUP9 PUSH2 0x3711 JUMP JUMPDEST CALLVALUE PUSH2 0x3E9 JUMPI PUSH2 0x17B0 PUSH2 0x17AB PUSH2 0x392E CALLDATASIZE PUSH2 0x4965 JUMP JUMPDEST SWAP1 PUSH1 0x40 MLOAD SWAP3 PUSH2 0x393C DUP5 PUSH2 0x48F5 JUMP JUMPDEST PUSH1 0x0 DUP5 MSTORE PUSH2 0x179B PUSH2 0x1796 DUP5 CALLER PUSH2 0x4D51 JUMP JUMPDEST CALLVALUE PUSH2 0x3E9 JUMPI PUSH1 0x0 CALLDATASIZE PUSH1 0x3 NOT ADD SLT PUSH2 0x3E9 JUMPI PUSH1 0x20 PUSH1 0x40 MLOAD PUSH1 0x14 DUP2 MSTORE RETURN JUMPDEST PUSH1 0x80 CALLDATASIZE PUSH1 0x3 NOT ADD SLT PUSH2 0x3E9 JUMPI PUSH2 0x397D PUSH2 0x4826 JUMP JUMPDEST PUSH2 0x3985 PUSH2 0x52CF JUMP JUMPDEST PUSH2 0x398D PUSH2 0x52CF JUMP JUMPDEST PUSH1 0x3 PUSH1 0x24 CALLDATALOAD GT PUSH2 0x35CC JUMPI PUSH7 0x38D7EA4C68000 CALLVALUE LT PUSH2 0x3570 JUMPI PUSH1 0x9 SLOAD PUSH1 0x1 DUP2 ADD PUSH1 0x9 SSTORE PUSH2 0x39C1 PUSH2 0x17AB PUSH1 0x40 MLOAD PUSH2 0x3320 DUP2 PUSH2 0x48F5 JUMP JUMPDEST PUSH1 0x4 PUSH1 0x24 CALLDATALOAD LT ISZERO PUSH2 0x1285 JUMPI PUSH1 0x40 MLOAD PUSH2 0x39D8 DUP2 PUSH2 0x4888 JUMP JUMPDEST DUP2 DUP2 MSTORE PUSH2 0x39EA PUSH1 0x24 CALLDATALOAD PUSH1 0x20 DUP4 ADD PUSH2 0x5263 JUMP JUMPDEST PUSH1 0x0 PUSH1 0x40 DUP3 ADD MSTORE PUSH1 0x44 CALLDATALOAD PUSH1 0x60 DUP3 ADD MSTORE PUSH1 0x64 CALLDATALOAD PUSH1 0x80 DUP3 ADD MSTORE PUSH1 0x1 DUP1 PUSH1 0xA0 SHL SUB DUP4 AND PUSH1 0xA0 DUP3 ADD MSTORE TIMESTAMP PUSH1 0xC0 DUP3 ADD MSTORE PUSH1 0x0 PUSH1 0xE0 DUP3 ADD MSTORE PUSH1 0x0 PUSH2 0x100 DUP3 ADD MSTORE PUSH1 0x0 PUSH2 0x120 DUP3 ADD MSTORE PUSH1 0x0 PUSH2 0x140 DUP3 ADD MSTORE DUP2 PUSH1 0x0 MSTORE PUSH1 0xE PUSH1 0x20 MSTORE PUSH1 0x40 PUSH1 0x0 KECCAK256 SWAP1 DUP1 MLOAD DUP3 SSTORE PUSH1 0x20 DUP2 ADD MLOAD PUSH1 0x4 DUP2 LT ISZERO PUSH2 0x1285 JUMPI PUSH1 0x8 SWAP2 PUSH2 0x140 SWAP2 PUSH2 0x3A6A PUSH1 0x1 DUP7 ADD SWAP2 DUP3 PUSH2 0x526F JUMP JUMPDEST PUSH1 0x40 DUP3 ADD MLOAD PUSH2 0x3A78 DUP2 PUSH2 0x4871 JUMP JUMPDEST PUSH2 0x3A81 DUP2 PUSH2 0x4871 JUMP JUMPDEST DUP2 SLOAD PUSH2 0xFF00 NOT AND SWAP1 DUP6 SHL PUSH2 0xFF00 AND OR SWAP1 SSTORE PUSH1 0x60 DUP2 ADD MLOAD PUSH1 0x2 DUP6 ADD SSTORE PUSH1 0x80 DUP2 ADD MLOAD PUSH1 0x3 DUP6 ADD SSTORE PUSH1 0xA0 DUP2 ADD MLOAD PUSH1 0x4 DUP6 ADD DUP1 SLOAD PUSH1 0x1 PUSH1 0x1 PUSH1 0xA0 SHL SUB NOT AND PUSH1 0x1 PUSH1 0x1 PUSH1 0xA0 SHL SUB SWAP3 SWAP1 SWAP3 AND SWAP2 SWAP1 SWAP2 OR SWAP1 SSTORE PUSH1 0xC0 DUP2 ADD MLOAD PUSH1 0x5 DUP6 ADD SSTORE PUSH1 0xE0 DUP2 ADD MLOAD PUSH2 0x3AF1 SWAP1 PUSH1 0x6 DUP7 ADD SWAP1 PUSH2 0x3471 SWAP1 ISZERO ISZERO DUP3 PUSH2 0x4F15 JUMP JUMPDEST PUSH2 0x120 DUP2 ADD MLOAD PUSH1 0x7 DUP6 ADD SSTORE ADD MLOAD SWAP2 ADD SSTORE PUSH1 0x40 MLOAD PUSH2 0x3B0D DUP2 PUSH2 0x48BF JUMP JUMPDEST PUSH1 0x1 DUP2 MSTORE PUSH1 0x3 PUSH1 0x20 DUP3 ADD PUSH1 0x0 DUP2 MSTORE PUSH1 0x40 DUP4 ADD PUSH1 0x0 DUP2 MSTORE PUSH1 0x60 DUP5 ADD SWAP2 TIMESTAMP DUP4 MSTORE DUP6 PUSH1 0x0 MSTORE PUSH1 0xF PUSH1 0x20 MSTORE PUSH1 0x40 PUSH1 0x0 KECCAK256 SWAP5 MLOAD DUP6 SSTORE MLOAD PUSH1 0x1 DUP6 ADD SSTORE MLOAD PUSH1 0x2 DUP5 ADD SSTORE MLOAD SWAP2 ADD SSTORE PUSH1 0x1 DUP1 PUSH1 0xA0 SHL SUB DUP3 AND PUSH1 0x0 MSTORE PUSH1 0x11 PUSH1 0x20 MSTORE PUSH2 0x3B6E PUSH1 0x24 CALLDATALOAD PUSH1 0x40 PUSH1 0x0 KECCAK256 PUSH2 0x526F JUMP JUMPDEST PUSH1 0x1 DUP1 PUSH1 0xA0 SHL SUB DUP3 AND PUSH1 0x0 MSTORE PUSH1 0x13 PUSH1 0x20 MSTORE PUSH2 0x3B8D DUP2 PUSH1 0x40 PUSH1 0x0 KECCAK256 PUSH2 0x52AC JUMP JUMPDEST PUSH1 0x0 DUP1 MLOAD PUSH1 0x20 PUSH2 0x56B3 DUP4 CODECOPY DUP2 MLOAD SWAP2 MSTORE PUSH1 0x60 PUSH1 0x40 MLOAD SWAP4 PUSH2 0x3BAE DUP6 PUSH1 0x24 CALLDATALOAD PUSH2 0x487B JUMP JUMPDEST PUSH1 0x0 PUSH1 0x20 DUP7 ADD MSTORE PUSH1 0x44 CALLDATALOAD PUSH1 0x40 DUP7 ADD MSTORE PUSH1 0x1 PUSH1 0x1 PUSH1 0xA0 SHL SUB AND SWAP4 LOG3 PUSH1 0x1 PUSH1 0x8 SSTORE STOP JUMPDEST CALLVALUE PUSH2 0x3E9 JUMPI PUSH1 0x20 CALLDATASIZE PUSH1 0x3 NOT ADD SLT PUSH2 0x3E9 JUMPI PUSH1 0x1 PUSH1 0x1 PUSH1 0xA0 SHL SUB PUSH2 0x3BF0 PUSH2 0x4826 JUMP JUMPDEST AND PUSH1 0x0 MSTORE PUSH1 0x11 PUSH1 0x20 MSTORE PUSH1 0x20 PUSH1 0xFF PUSH1 0x40 PUSH1 0x0 KECCAK256 SLOAD AND PUSH2 0x3C11 PUSH1 0x40 MLOAD DUP1 SWAP3 PUSH2 0x487B JUMP JUMPDEST RETURN JUMPDEST CALLVALUE PUSH2 0x3E9 JUMPI PUSH1 0x20 CALLDATASIZE PUSH1 0x3 NOT ADD SLT PUSH2 0x3E9 JUMPI PUSH1 0x4 CALLDATALOAD PUSH1 0x0 MSTORE PUSH1 0xE PUSH1 0x20 MSTORE PUSH2 0x160 PUSH1 0x40 PUSH1 0x0 KECCAK256 DUP1 SLOAD SWAP1 PUSH1 0x1 DUP2 ADD SLOAD SWAP1 PUSH1 0xFF DUP3 PUSH1 0x8 SHR AND PUSH1 0x2 DUP3 ADD SLOAD SWAP1 PUSH1 0x3 DUP4 ADD SLOAD SWAP2 PUSH1 0x1 DUP1 PUSH1 0xA0 SHL SUB SWAP3 DUP4 PUSH1 0x4 DUP7 ADD SLOAD AND SWAP1 PUSH1 0x5 DUP7 ADD SLOAD SWAP3 PUSH1 0x6 DUP8 ADD SLOAD SWAP5 PUSH2 0x3C90 PUSH1 0x8 PUSH1 0x7 DUP11 ADD SLOAD SWAP10 ADD SLOAD SWAP10 PUSH1 0x40 MLOAD SWAP12 DUP13 MSTORE PUSH1 0xFF PUSH1 0x20 DUP14 ADD SWAP2 AND PUSH2 0x487B JUMP JUMPDEST PUSH2 0x3C99 DUP2 PUSH2 0x4871 JUMP JUMPDEST PUSH1 0x40 DUP11 ADD MSTORE PUSH1 0x60 DUP10 ADD MSTORE PUSH1 0x80 DUP9 ADD MSTORE PUSH1 0xA0 DUP8 ADD MSTORE PUSH1 0xC0 DUP7 ADD MSTORE PUSH1 0xFF DUP2 AND ISZERO ISZERO PUSH1 0xE0 DUP7 ADD MSTORE PUSH1 0x8 SHR AND PUSH2 0x100 DUP5 ADD MSTORE PUSH2 0x120 DUP4 ADD MSTORE PUSH2 0x140 DUP3 ADD MSTORE RETURN JUMPDEST CALLVALUE PUSH2 0x3E9 JUMPI PUSH1 0x20 CALLDATASIZE PUSH1 0x3 NOT ADD SLT PUSH2 0x3E9 JUMPI PUSH1 0x4 CALLDATALOAD PUSH1 0x0 DUP2 DUP2 MSTORE PUSH1 0x1C PUSH1 0x20 MSTORE PUSH1 0x40 SWAP1 KECCAK256 PUSH1 0x1 ADD SLOAD PUSH1 0x1 PUSH1 0x1 PUSH1 0xA0 SHL SUB AND CALLER SUB PUSH2 0x3D25 JUMPI PUSH1 0x0 SWAP1 DUP2 MSTORE PUSH1 0x1C PUSH1 0x20 MSTORE PUSH1 0x40 SWAP1 KECCAK256 PUSH1 0x3 ADD DUP1 SLOAD PUSH1 0xFF NOT AND SWAP1 SSTORE STOP JUMPDEST PUSH1 0x40 MLOAD PUSH3 0x461BCD PUSH1 0xE5 SHL DUP2 MSTORE PUSH1 0x20 PUSH1 0x4 DUP3 ADD MSTORE PUSH1 0xA PUSH1 0x24 DUP3 ADD MSTORE PUSH10 0x2737BA1039B2B63632B9 PUSH1 0xB1 SHL PUSH1 0x44 DUP3 ADD MSTORE PUSH1 0x64 SWAP1 REVERT JUMPDEST CALLVALUE PUSH2 0x3E9 JUMPI PUSH1 0x0 CALLDATASIZE PUSH1 0x3 NOT ADD SLT PUSH2 0x3E9 JUMPI PUSH1 0x20 PUSH1 0x40 MLOAD PUSH7 0x2386F26FC10000 DUP2 MSTORE RETURN JUMPDEST CALLVALUE PUSH2 0x3E9 JUMPI PUSH2 0x100 DUP1 PUSH1 0x3 NOT CALLDATASIZE ADD SLT PUSH2 0x3E9 JUMPI PUSH1 0x4 CALLDATALOAD PUSH1 0x1 PUSH1 0x1 PUSH1 0x40 SHL SUB DUP2 GT PUSH2 0x3E9 JUMPI PUSH2 0x3DAB SWAP1 CALLDATASIZE SWAP1 PUSH1 0x4 ADD PUSH2 0x49EC JUMP JUMPDEST SWAP1 PUSH1 0x24 CALLDATALOAD PUSH1 0x1 PUSH1 0x1 PUSH1 0x40 SHL SUB DUP2 GT PUSH2 0x3E9 JUMPI PUSH2 0x3DCB SWAP1 CALLDATASIZE SWAP1 PUSH1 0x4 ADD PUSH2 0x49EC JUMP JUMPDEST SWAP1 PUSH1 0x44 CALLDATALOAD PUSH1 0x64 CALLDATALOAD PUSH2 0x3DDA PUSH2 0x4B8E JUMP JUMPDEST DUP1 DUP3 LT ISZERO PUSH2 0x410A JUMPI TIMESTAMP DUP3 GT ISZERO PUSH2 0x40C6 JUMPI PUSH1 0x21 SLOAD SWAP2 PUSH1 0x40 MLOAD SWAP5 PUSH2 0x3DFB DUP7 PUSH2 0x4888 JUMP JUMPDEST DUP4 DUP7 MSTORE PUSH1 0x20 DUP7 ADD SWAP7 DUP8 MSTORE PUSH1 0x40 DUP7 ADD MSTORE PUSH1 0x60 DUP6 ADD MSTORE PUSH1 0x80 DUP5 ADD MSTORE PUSH1 0x84 CALLDATALOAD PUSH1 0xA0 DUP5 ADD MSTORE PUSH1 0xA4 CALLDATALOAD PUSH1 0xC0 DUP5 ADD MSTORE PUSH1 0xC4 CALLDATALOAD PUSH1 0xE0 DUP5 ADD MSTORE PUSH1 0x0 DUP3 DUP5 ADD MSTORE PUSH1 0x0 PUSH2 0x120 DUP5 ADD MSTORE PUSH1 0xE4 CALLDATALOAD PUSH2 0x140 DUP5 ADD MSTORE PUSH1 0x0 MSTORE PUSH1 0x1F PUSH1 0x20 MSTORE PUSH1 0x40 PUSH1 0x0 KECCAK256 SWAP3 DUP3 MLOAD DUP5 SSTORE MLOAD DUP1 MLOAD SWAP1 PUSH1 0x1 DUP1 PUSH1 0x40 SHL SUB DUP3 GT PUSH2 0xDF0 JUMPI PUSH1 0x1 SWAP2 DUP1 DUP4 DUP8 ADD SWAP3 PUSH2 0x3E78 DUP5 SLOAD PUSH2 0x4A42 JUMP JUMPDEST PUSH1 0x1F DUP2 GT PUSH2 0x4094 JUMPI JUMPDEST POP PUSH1 0x20 SWAP1 PUSH1 0x1F DUP4 GT PUSH1 0x1 EQ PUSH2 0x4030 JUMPI PUSH1 0x0 SWAP3 PUSH2 0x4025 JUMPI JUMPDEST POP POP PUSH1 0x0 NOT PUSH1 0x3 DUP4 SWAP1 SHL SHR NOT AND SWAP1 DUP4 SHL OR SWAP1 SSTORE JUMPDEST PUSH1 0x40 DUP4 ADD MLOAD DUP1 MLOAD SWAP1 SWAP2 PUSH1 0x1 PUSH1 0x1 PUSH1 0x40 SHL SUB DUP3 GT PUSH2 0xDF0 JUMPI PUSH1 0x2 DUP7 ADD SWAP3 PUSH2 0x3ED2 DUP5 SLOAD PUSH2 0x4A42 JUMP JUMPDEST PUSH1 0x1F DUP2 GT PUSH2 0x3FF3 JUMPI JUMPDEST POP PUSH1 0x20 SWAP1 PUSH1 0x1F DUP5 GT PUSH1 0x1 EQ PUSH2 0x3F80 JUMPI SWAP3 DUP1 DUP1 PUSH2 0x140 SWAP8 SWAP5 PUSH1 0xA SWAP10 SWAP8 SWAP5 PUSH2 0x3F55 SWAP8 PUSH1 0x0 SWAP5 PUSH2 0x3F75 JUMPI JUMPDEST POP POP SHL SWAP2 PUSH1 0x0 NOT SWAP1 PUSH1 0x3 SHL SHR NOT AND OR SWAP1 SSTORE JUMPDEST PUSH1 0x60 DUP4 ADD MLOAD PUSH1 0x3 DUP8 ADD SSTORE PUSH1 0x80 DUP4 ADD MLOAD PUSH1 0x4 DUP8 ADD SSTORE PUSH1 0xA0 DUP4 ADD MLOAD PUSH1 0x5 DUP8 ADD SSTORE PUSH1 0xC0 DUP4 ADD MLOAD PUSH1 0x6 DUP8 ADD SSTORE PUSH1 0xE0 DUP4 ADD MLOAD PUSH1 0x7 DUP8 ADD SSTORE DUP3 ADD MLOAD ISZERO ISZERO PUSH1 0x8 DUP7 ADD PUSH2 0x4F15 JUMP JUMPDEST PUSH2 0x120 DUP2 ADD MLOAD PUSH1 0x9 DUP6 ADD SSTORE ADD MLOAD SWAP2 ADD SSTORE PUSH2 0x3F70 PUSH1 0x21 SLOAD PUSH2 0x55D5 JUMP JUMPDEST PUSH1 0x21 SSTORE STOP JUMPDEST ADD MLOAD SWAP3 POP DUP12 DUP1 PUSH2 0x3F03 JUMP JUMPDEST SWAP1 PUSH1 0x1F SWAP4 SWAP3 SWAP4 NOT DUP4 AND SWAP2 DUP6 PUSH1 0x0 MSTORE PUSH1 0x20 PUSH1 0x0 KECCAK256 SWAP3 PUSH1 0x0 JUMPDEST DUP2 DUP2 LT PUSH2 0x3FDD JUMPI POP SWAP3 PUSH2 0x3F55 SWAP6 SWAP3 DUP6 SWAP3 PUSH2 0x140 SWAP10 SWAP7 PUSH1 0xA SWAP12 SWAP10 SWAP7 LT PUSH2 0x3FC4 JUMPI JUMPDEST POP POP POP DUP2 SHL ADD SWAP1 SSTORE PUSH2 0x3F15 JUMP JUMPDEST ADD MLOAD PUSH1 0x0 NOT PUSH1 0xF8 DUP5 PUSH1 0x3 SHL AND SHR NOT AND SWAP1 SSTORE DUP10 DUP1 DUP1 PUSH2 0x3FB7 JUMP JUMPDEST DUP3 DUP5 ADD MLOAD DUP6 SSTORE SWAP4 DUP7 ADD SWAP4 PUSH1 0x20 SWAP4 DUP5 ADD SWAP4 ADD PUSH2 0x3F97 JUMP JUMPDEST PUSH2 0x401F SWAP1 DUP6 PUSH1 0x0 MSTORE PUSH1 0x20 PUSH1 0x0 KECCAK256 PUSH1 0x1F DUP7 ADD PUSH1 0x5 SHR DUP2 ADD SWAP2 PUSH1 0x20 DUP8 LT PUSH2 0x19D0 JUMPI PUSH1 0x1F ADD PUSH1 0x5 SHR ADD SWAP1 PUSH2 0x55E4 JUMP JUMPDEST DUP8 PUSH2 0x3EDB JUMP JUMPDEST ADD MLOAD SWAP1 POP DUP8 DUP1 PUSH2 0x3E98 JUMP JUMPDEST SWAP1 DUP6 SWAP4 POP DUP5 PUSH1 0x0 MSTORE PUSH1 0x20 PUSH1 0x0 KECCAK256 SWAP2 PUSH1 0x0 PUSH1 0x1F NOT DUP6 AND SWAP1 JUMPDEST DUP2 DUP2 LT PUSH2 0x407C JUMPI POP DUP5 GT PUSH2 0x4063 JUMPI JUMPDEST POP POP POP DUP2 SHL ADD SWAP1 SSTORE PUSH2 0x3EAC JUMP JUMPDEST ADD MLOAD PUSH1 0x0 NOT PUSH1 0xF8 DUP5 PUSH1 0x3 SHL AND SHR NOT AND SWAP1 SSTORE DUP8 DUP1 DUP1 PUSH2 0x4056 JUMP JUMPDEST DUP3 DUP5 ADD MLOAD DUP6 SSTORE DUP9 SWAP7 SWAP1 SWAP5 ADD SWAP4 PUSH1 0x20 SWAP4 DUP5 ADD SWAP4 ADD PUSH2 0x4047 JUMP JUMPDEST PUSH2 0x40C0 SWAP1 DUP6 PUSH1 0x0 MSTORE PUSH1 0x20 PUSH1 0x0 KECCAK256 PUSH1 0x1F DUP6 ADD PUSH1 0x5 SHR DUP2 ADD SWAP2 PUSH1 0x20 DUP7 LT PUSH2 0x19D0 JUMPI PUSH1 0x1F ADD PUSH1 0x5 SHR ADD SWAP1 PUSH2 0x55E4 JUMP JUMPDEST DUP9 PUSH2 0x3E81 JUMP JUMPDEST PUSH1 0x40 MLOAD PUSH3 0x461BCD PUSH1 0xE5 SHL DUP2 MSTORE PUSH1 0x20 PUSH1 0x4 DUP3 ADD MSTORE PUSH1 0x1C PUSH1 0x24 DUP3 ADD MSTORE PUSH28 0x53746172742074696D65206D75737420626520696E20667574757265 PUSH1 0x20 SHL PUSH1 0x44 DUP3 ADD MSTORE PUSH1 0x64 SWAP1 REVERT JUMPDEST PUSH1 0x40 MLOAD PUSH3 0x461BCD PUSH1 0xE5 SHL DUP2 MSTORE PUSH1 0x20 PUSH1 0x4 DUP3 ADD MSTORE PUSH1 0x12 PUSH1 0x24 DUP3 ADD MSTORE PUSH18 0x496E76616C69642074696D652072616E6765 PUSH1 0x70 SHL PUSH1 0x44 DUP3 ADD MSTORE PUSH1 0x64 SWAP1 REVERT JUMPDEST CALLVALUE PUSH2 0x3E9 JUMPI PUSH2 0x17B0 PUSH2 0x4155 CALLDATASIZE PUSH2 0x4965 JUMP JUMPDEST SWAP2 PUSH2 0x4163 PUSH2 0x1796 DUP5 CALLER PUSH2 0x4D51 JUMP JUMPDEST PUSH2 0x4E19 JUMP JUMPDEST CALLVALUE PUSH2 0x3E9 JUMPI PUSH1 0x40 CALLDATASIZE PUSH1 0x3 NOT ADD SLT PUSH2 0x3E9 JUMPI PUSH1 0x24 CALLDATALOAD PUSH1 0x1 PUSH1 0x1 PUSH1 0x40 SHL SUB DUP2 GT PUSH2 0x3E9 JUMPI CALLDATASIZE PUSH1 0x23 DUP3 ADD SLT ISZERO PUSH2 0x3E9 JUMPI DUP1 PUSH1 0x4 ADD CALLDATALOAD PUSH2 0x41A3 DUP2 PUSH2 0x494E JUMP JUMPDEST SWAP2 PUSH2 0x41B1 PUSH1 0x40 MLOAD SWAP4 DUP5 PUSH2 0x492B JUMP JUMPDEST DUP2 DUP4 MSTORE PUSH1 0x24 PUSH1 0x20 DUP1 SWAP5 ADD SWAP3 PUSH1 0x5 SHL DUP3 ADD ADD SWAP2 CALLDATASIZE DUP4 GT PUSH2 0x3E9 JUMPI PUSH1 0x24 DUP5 SWAP3 ADD SWAP1 JUMPDEST DUP4 DUP3 LT PUSH2 0x42AC JUMPI DUP3 PUSH1 0x1 PUSH1 0x1 PUSH1 0xA0 SHL SUB PUSH32 0x0 DUP2 AND CALLER DUP2 SWAP1 SUB PUSH2 0x428E JUMPI POP PUSH2 0x427F PUSH1 0xFF PUSH1 0x2 PUSH2 0x17B0 SWAP5 PUSH1 0x4 CALLDATALOAD PUSH1 0x0 MSTORE PUSH1 0x10 DUP2 MSTORE PUSH2 0x4230 PUSH1 0x40 PUSH1 0x0 KECCAK256 SLOAD PUSH2 0x4852 JUMP JUMPDEST POP SWAP1 PUSH1 0x40 MLOAD SWAP6 PUSH2 0x423F DUP8 PUSH2 0x48A4 JUMP JUMPDEST DUP3 SLOAD DUP6 DUP2 AND PUSH2 0x424D DUP2 PUSH2 0x4871 JUMP JUMPDEST DUP9 MSTORE PUSH1 0x8 SHR AND SWAP1 DUP7 ADD MSTORE PUSH1 0x1 DUP2 ADD SLOAD PUSH1 0x40 DUP7 ADD MSTORE ADD SLOAD PUSH2 0x4272 DUP3 DUP3 AND PUSH1 0x60 DUP7 ADD PUSH2 0x5263 JUMP JUMPDEST PUSH1 0x8 SHR AND PUSH1 0x80 DUP4 ADD PUSH2 0x5263 JUMP JUMPDEST MLOAD PUSH2 0x4289 DUP2 PUSH2 0x4871 JUMP JUMPDEST PUSH2 0x4871 JUMP JUMPDEST PUSH1 0x44 SWAP1 PUSH1 0x40 MLOAD SWAP1 PUSH4 0x73E64FD PUSH1 0xE2 SHL DUP3 MSTORE CALLER PUSH1 0x4 DUP4 ADD MSTORE PUSH1 0x24 DUP3 ADD MSTORE REVERT JUMPDEST DUP2 CALLDATALOAD DUP2 MSTORE SWAP1 DUP3 ADD SWAP1 DUP3 ADD PUSH2 0x41D1 JUMP JUMPDEST CALLVALUE PUSH2 0x3E9 JUMPI PUSH1 0x20 CALLDATASIZE PUSH1 0x3 NOT ADD SLT PUSH2 0x3E9 JUMPI PUSH1 0x4 CALLDATALOAD PUSH1 0x15 SLOAD DUP2 LT ISZERO PUSH2 0x3E9 JUMPI PUSH2 0x42E4 PUSH1 0xA0 SWAP2 PUSH2 0x4852 JUMP JUMPDEST POP PUSH2 0x3C11 DUP2 SLOAD PUSH1 0xFF DUP2 AND SWAP3 PUSH1 0x2 PUSH1 0x1 DUP3 ADD SLOAD SWAP2 ADD SLOAD SWAP2 PUSH1 0x40 MLOAD SWAP5 PUSH2 0x4307 DUP2 PUSH2 0x4871 JUMP JUMPDEST DUP6 MSTORE PUSH1 0x8 SHR PUSH1 0x0 NOT PUSH1 0x1 DUP8 SHL ADD AND PUSH1 0x20 DUP6 ADD MSTORE PUSH1 0x40 DUP5 ADD MSTORE PUSH2 0x432F PUSH1 0x60 DUP5 ADD PUSH1 0xFF DUP4 AND PUSH2 0x487B JUMP JUMPDEST PUSH1 0xFF PUSH1 0x80 DUP5 ADD SWAP2 PUSH1 0x8 SHR AND PUSH2 0x487B JUMP JUMPDEST CALLVALUE PUSH2 0x3E9 JUMPI PUSH1 0x0 CALLDATASIZE PUSH1 0x3 NOT ADD SLT PUSH2 0x3E9 JUMPI PUSH1 0x20 PUSH1 0x40 MLOAD PUSH1 0xA DUP2 MSTORE RETURN JUMPDEST CALLVALUE PUSH2 0x3E9 JUMPI PUSH1 0x20 CALLDATASIZE PUSH1 0x3 NOT ADD SLT PUSH2 0x3E9 JUMPI PUSH1 0x4 CALLDATALOAD PUSH1 0x4 DUP2 LT ISZERO PUSH2 0x1285 JUMPI PUSH2 0xF47 PUSH1 0x20 SWAP2 PUSH2 0x4B75 JUMP JUMPDEST CALLVALUE PUSH2 0x3E9 JUMPI PUSH1 0x40 CALLDATASIZE PUSH1 0x3 NOT ADD SLT PUSH2 0x3E9 JUMPI PUSH2 0x439C PUSH2 0x4826 JUMP JUMPDEST PUSH1 0x24 CALLDATALOAD SWAP1 PUSH1 0x1 PUSH1 0x1 PUSH1 0xA0 SHL SUB DUP1 DUP1 PUSH2 0x43B3 DUP6 PUSH2 0x4C2D JUMP JUMPDEST AND SWAP3 AND SWAP2 DUP1 DUP4 EQ PUSH2 0x44AE JUMPI DUP1 CALLER EQ SWAP1 DUP2 ISZERO PUSH2 0x4489 JUMPI JUMPDEST POP ISZERO PUSH2 0x441E JUMPI PUSH1 0x0 DUP4 DUP2 MSTORE PUSH1 0x4 PUSH1 0x20 MSTORE PUSH1 0x40 SWAP1 KECCAK256 DUP1 SLOAD PUSH1 0x1 PUSH1 0x1 PUSH1 0xA0 SHL SUB NOT AND DUP4 OR SWAP1 SSTORE PUSH2 0x43F6 DUP4 PUSH2 0x4C2D JUMP JUMPDEST AND PUSH32 0x8C5BE1E5EBEC7D5BD14F71427D1E84F3DD0314C0F7B2291E5B200AC8C7C3B925 PUSH1 0x0 DUP1 LOG4 STOP JUMPDEST PUSH1 0x40 MLOAD PUSH3 0x461BCD PUSH1 0xE5 SHL DUP2 MSTORE PUSH1 0x20 PUSH1 0x4 DUP3 ADD MSTORE PUSH1 0x3D PUSH1 0x24 DUP3 ADD MSTORE PUSH32 0x4552433732313A20617070726F76652063616C6C6572206973206E6F7420746F PUSH1 0x44 DUP3 ADD MSTORE PUSH32 0x6B656E206F776E6572206F7220617070726F76656420666F7220616C6C000000 PUSH1 0x64 DUP3 ADD MSTORE PUSH1 0x84 SWAP1 REVERT JUMPDEST SWAP1 POP PUSH1 0x0 MSTORE PUSH1 0x5 PUSH1 0x20 MSTORE PUSH1 0x40 PUSH1 0x0 KECCAK256 CALLER PUSH1 0x0 MSTORE PUSH1 0x20 MSTORE PUSH1 0xFF PUSH1 0x40 PUSH1 0x0 KECCAK256 SLOAD AND DUP5 PUSH2 0x43C9 JUMP JUMPDEST PUSH1 0x40 MLOAD PUSH3 0x461BCD PUSH1 0xE5 SHL DUP2 MSTORE PUSH1 0x20 PUSH1 0x4 DUP3 ADD MSTORE PUSH1 0x21 PUSH1 0x24 DUP3 ADD MSTORE PUSH32 0x4552433732313A20617070726F76616C20746F2063757272656E74206F776E65 PUSH1 0x44 DUP3 ADD MSTORE PUSH1 0x39 PUSH1 0xF9 SHL PUSH1 0x64 DUP3 ADD MSTORE PUSH1 0x84 SWAP1 REVERT JUMPDEST CALLVALUE PUSH2 0x3E9 JUMPI PUSH1 0x20 CALLDATASIZE PUSH1 0x3 NOT ADD SLT PUSH2 0x3E9 JUMPI PUSH1 0x20 PUSH2 0x2E1E PUSH1 0x4 CALLDATALOAD PUSH2 0x4C50 JUMP JUMPDEST CALLVALUE PUSH2 0x3E9 JUMPI PUSH1 0x0 CALLDATASIZE PUSH1 0x3 NOT ADD SLT PUSH2 0x3E9 JUMPI PUSH1 0x40 MLOAD PUSH1 0x0 SWAP1 PUSH1 0x0 SLOAD PUSH2 0x453E DUP2 PUSH2 0x4A42 JUMP JUMPDEST DUP1 DUP4 MSTORE PUSH1 0x1 SWAP2 DUP1 DUP4 AND SWAP1 DUP2 ISZERO PUSH2 0x1FD0 JUMPI POP PUSH1 0x1 EQ PUSH2 0x4566 JUMPI PUSH2 0x1029 DUP4 PUSH2 0x1F7E DUP2 DUP8 SUB DUP3 PUSH2 0x492B JUMP JUMPDEST PUSH1 0x0 DUP1 DUP1 MSTORE PUSH1 0x20 SWAP5 POP SWAP2 PUSH32 0x290DECD9548B62A8D60345A988386FC84BA6BC95484008F6362F93160EF3E563 JUMPDEST DUP3 DUP5 LT PUSH2 0x45AB JUMPI POP POP POP DUP2 ADD SWAP1 SWAP2 ADD SWAP1 PUSH2 0x1F7E DUP2 PUSH2 0x1F6E JUMP JUMPDEST DUP1 SLOAD DUP6 DUP6 ADD DUP8 ADD MSTORE SWAP3 DUP6 ADD SWAP3 DUP2 ADD PUSH2 0x4592 JUMP JUMPDEST CALLVALUE PUSH2 0x3E9 JUMPI PUSH1 0x20 CALLDATASIZE PUSH1 0x3 NOT ADD SLT PUSH2 0x3E9 JUMPI PUSH1 0x4 CALLDATALOAD PUSH4 0xFFFFFFFF PUSH1 0xE0 SHL DUP2 AND DUP1 SWAP2 SUB PUSH2 0x3E9 JUMPI PUSH1 0x20 SWAP1 PUSH4 0x24832483 PUSH1 0xE1 SHL DUP2 EQ SWAP1 DUP2 ISZERO PUSH2 0x4603 JUMPI JUMPDEST POP PUSH1 0x40 MLOAD SWAP1 ISZERO ISZERO DUP2 MSTORE RETURN JUMPDEST PUSH4 0x80AC58CD PUSH1 0xE0 SHL DUP2 EQ SWAP2 POP DUP2 ISZERO PUSH2 0x4635 JUMPI JUMPDEST DUP2 ISZERO PUSH2 0x4624 JUMPI JUMPDEST POP DUP3 PUSH2 0x45F8 JUMP JUMPDEST PUSH4 0x1FFC9A7 PUSH1 0xE0 SHL EQ SWAP1 POP DUP3 PUSH2 0x461D JUMP JUMPDEST PUSH4 0x5B5E139F PUSH1 0xE0 SHL DUP2 EQ SWAP2 POP PUSH2 0x4616 JUMP JUMPDEST CALLVALUE PUSH2 0x3E9 JUMPI PUSH1 0x0 CALLDATASIZE PUSH1 0x3 NOT ADD SLT PUSH2 0x3E9 JUMPI PUSH2 0x140 DUP2 PUSH2 0x4666 PUSH1 0x0 SWAP4 PUSH2 0x4888 JUMP JUMPDEST DUP3 DUP2 MSTORE PUSH1 0x60 PUSH1 0x20 DUP3 ADD MSTORE PUSH1 0x60 PUSH1 0x40 DUP3 ADD MSTORE DUP3 PUSH1 0x60 DUP3 ADD MSTORE DUP3 PUSH1 0x80 DUP3 ADD MSTORE DUP3 PUSH1 0xA0 DUP3 ADD MSTORE DUP3 PUSH1 0xC0 DUP3 ADD MSTORE DUP3 PUSH1 0xE0 DUP3 ADD MSTORE DUP3 PUSH2 0x100 DUP3 ADD MSTORE DUP3 PUSH2 0x120 DUP3 ADD MSTORE ADD MSTORE PUSH1 0x22 SLOAD PUSH1 0x0 MSTORE PUSH1 0x1F PUSH1 0x20 MSTORE PUSH1 0x40 PUSH1 0x0 KECCAK256 PUSH1 0xA PUSH1 0x40 MLOAD SWAP2 PUSH2 0x46C4 DUP4 PUSH2 0x4888 JUMP JUMPDEST DUP1 SLOAD DUP4 MSTORE PUSH2 0x46D4 PUSH1 0x1 DUP3 ADD PUSH2 0x4A7C JUMP JUMPDEST PUSH1 0x20 DUP5 ADD MSTORE PUSH2 0x46E5 PUSH1 0x2 DUP3 ADD PUSH2 0x4A7C JUMP JUMPDEST PUSH1 0x40 DUP5 ADD MSTORE PUSH1 0x3 DUP2 ADD SLOAD PUSH1 0x60 DUP5 ADD MSTORE PUSH1 0x4 DUP2 ADD SLOAD PUSH1 0x80 DUP5 ADD MSTORE PUSH1 0x5 DUP2 ADD SLOAD PUSH1 0xA0 DUP5 ADD MSTORE PUSH1 0x6 DUP2 ADD SLOAD PUSH1 0xC0 DUP5 ADD MSTORE PUSH1 0x7 DUP2 ADD SLOAD PUSH1 0xE0 DUP5 ADD MSTORE PUSH1 0xFF PUSH1 0x8 DUP3 ADD SLOAD AND ISZERO ISZERO PUSH2 0x100 DUP5 ADD MSTORE PUSH1 0x9 DUP2 ADD SLOAD PUSH2 0x120 DUP5 ADD MSTORE ADD SLOAD PUSH2 0x140 DUP3 ADD MSTORE PUSH1 0x40 MLOAD DUP1 SWAP2 PUSH1 0x20 DUP3 MSTORE DUP1 MLOAD PUSH1 0x20 DUP4 ADD MSTORE PUSH1 0x20 DUP2 ADD MLOAD PUSH2 0x140 PUSH2 0x4788 PUSH2 0x4772 PUSH2 0x160 SWAP4 DUP5 PUSH1 0x40 DUP9 ADD MSTORE PUSH2 0x180 DUP8 ADD SWAP1 PUSH2 0x4801 JUMP JUMPDEST PUSH1 0x40 DUP6 ADD MLOAD DUP7 DUP3 SUB PUSH1 0x1F NOT ADD PUSH1 0x60 DUP9 ADD MSTORE PUSH2 0x4801 JUMP JUMPDEST SWAP3 PUSH1 0x60 DUP2 ADD MLOAD PUSH1 0x80 DUP7 ADD MSTORE PUSH1 0x80 DUP2 ADD MLOAD PUSH1 0xA0 DUP7 ADD MSTORE PUSH1 0xA0 DUP2 ADD MLOAD PUSH1 0xC0 DUP7 ADD MSTORE PUSH1 0xC0 DUP2 ADD MLOAD PUSH1 0xE0 DUP7 ADD MSTORE PUSH1 0xE0 DUP2 ADD MLOAD PUSH2 0x100 DUP7 ADD MSTORE PUSH2 0x100 DUP2 ADD MLOAD ISZERO ISZERO PUSH2 0x120 DUP7 ADD MSTORE PUSH2 0x120 DUP2 ADD MLOAD DUP3 DUP7 ADD MSTORE ADD MLOAD SWAP1 DUP4 ADD MSTORE SUB SWAP1 RETURN JUMPDEST PUSH1 0x0 JUMPDEST DUP4 DUP2 LT PUSH2 0x47F1 JUMPI POP POP PUSH1 0x0 SWAP2 ADD MSTORE JUMP JUMPDEST DUP2 DUP2 ADD MLOAD DUP4 DUP3 ADD MSTORE PUSH1 0x20 ADD PUSH2 0x47E1 JUMP JUMPDEST SWAP1 PUSH1 0x20 SWAP2 PUSH2 0x481A DUP2 MLOAD DUP1 SWAP3 DUP2 DUP6 MSTORE DUP6 DUP1 DUP7 ADD SWAP2 ADD PUSH2 0x47DE JUMP JUMPDEST PUSH1 0x1F ADD PUSH1 0x1F NOT AND ADD ADD SWAP1 JUMP JUMPDEST PUSH1 0x4 CALLDATALOAD SWAP1 PUSH1 0x1 PUSH1 0x1 PUSH1 0xA0 SHL SUB DUP3 AND DUP3 SUB PUSH2 0x3E9 JUMPI JUMP JUMPDEST PUSH1 0x24 CALLDATALOAD SWAP1 PUSH1 0x1 PUSH1 0x1 PUSH1 0xA0 SHL SUB DUP3 AND DUP3 SUB PUSH2 0x3E9 JUMPI JUMP JUMPDEST PUSH1 0x15 SLOAD DUP2 LT ISZERO PUSH2 0x2CE2 JUMPI PUSH1 0x15 PUSH1 0x0 MSTORE PUSH1 0x3 PUSH1 0x20 PUSH1 0x0 KECCAK256 SWAP2 MUL ADD SWAP1 PUSH1 0x0 SWAP1 JUMP JUMPDEST PUSH1 0x3 GT ISZERO PUSH2 0x1285 JUMPI JUMP JUMPDEST SWAP1 PUSH1 0x4 DUP3 LT ISZERO PUSH2 0x1285 JUMPI MSTORE JUMP JUMPDEST PUSH2 0x160 DUP2 ADD SWAP1 DUP2 LT PUSH1 0x1 PUSH1 0x1 PUSH1 0x40 SHL SUB DUP3 GT OR PUSH2 0xDF0 JUMPI PUSH1 0x40 MSTORE JUMP JUMPDEST PUSH1 0xA0 DUP2 ADD SWAP1 DUP2 LT PUSH1 0x1 PUSH1 0x1 PUSH1 0x40 SHL SUB DUP3 GT OR PUSH2 0xDF0 JUMPI PUSH1 0x40 MSTORE JUMP JUMPDEST PUSH1 0x80 DUP2 ADD SWAP1 DUP2 LT PUSH1 0x1 PUSH1 0x1 PUSH1 0x40 SHL SUB DUP3 GT OR PUSH2 0xDF0 JUMPI PUSH1 0x40 MSTORE JUMP JUMPDEST PUSH1 0xE0 DUP2 ADD SWAP1 DUP2 LT PUSH1 0x1 PUSH1 0x1 PUSH1 0x40 SHL SUB DUP3 GT OR PUSH2 0xDF0 JUMPI PUSH1 0x40 MSTORE JUMP JUMPDEST PUSH1 0x20 DUP2 ADD SWAP1 DUP2 LT PUSH1 0x1 PUSH1 0x1 PUSH1 0x40 SHL SUB DUP3 GT OR PUSH2 0xDF0 JUMPI PUSH1 0x40 MSTORE JUMP JUMPDEST PUSH1 0x40 DUP2 ADD SWAP1 DUP2 LT PUSH1 0x1 PUSH1 0x1 PUSH1 0x40 SHL SUB DUP3 GT OR PUSH2 0xDF0 JUMPI PUSH1 0x40 MSTORE JUMP JUMPDEST PUSH1 0x1F SWAP1 SWAP2 ADD PUSH1 0x1F NOT AND DUP2 ADD SWAP1 PUSH1 0x1 PUSH1 0x1 PUSH1 0x40 SHL SUB DUP3 GT SWAP1 DUP3 LT OR PUSH2 0xDF0 JUMPI PUSH1 0x40 MSTORE JUMP JUMPDEST PUSH1 0x1 PUSH1 0x1 PUSH1 0x40 SHL SUB DUP2 GT PUSH2 0xDF0 JUMPI PUSH1 0x5 SHL PUSH1 0x20 ADD SWAP1 JUMP JUMPDEST PUSH1 0x60 SWAP1 PUSH1 0x3 NOT ADD SLT PUSH2 0x3E9 JUMPI PUSH1 0x1 PUSH1 0x1 PUSH1 0xA0 SHL SUB SWAP1 PUSH1 0x4 CALLDATALOAD DUP3 DUP2 AND DUP2 SUB PUSH2 0x3E9 JUMPI SWAP2 PUSH1 0x24 CALLDATALOAD SWAP1 DUP2 AND DUP2 SUB PUSH2 0x3E9 JUMPI SWAP1 PUSH1 0x44 CALLDATALOAD SWAP1 JUMP JUMPDEST PUSH1 0x1 PUSH1 0x1 PUSH1 0x40 SHL SUB DUP2 GT PUSH2 0xDF0 JUMPI PUSH1 0x1F ADD PUSH1 0x1F NOT AND PUSH1 0x20 ADD SWAP1 JUMP JUMPDEST SWAP3 SWAP2 SWAP3 PUSH2 0x49C1 DUP3 PUSH2 0x499A JUMP JUMPDEST SWAP2 PUSH2 0x49CF PUSH1 0x40 MLOAD SWAP4 DUP5 PUSH2 0x492B JUMP JUMPDEST DUP3 SWAP5 DUP2 DUP5 MSTORE DUP2 DUP4 ADD GT PUSH2 0x3E9 JUMPI DUP3 DUP2 PUSH1 0x20 SWAP4 DUP5 PUSH1 0x0 SWAP7 ADD CALLDATACOPY ADD ADD MSTORE JUMP JUMPDEST SWAP1 DUP1 PUSH1 0x1F DUP4 ADD SLT ISZERO PUSH2 0x3E9 JUMPI DUP2 PUSH1 0x20 PUSH2 0x4A07 SWAP4 CALLDATALOAD SWAP2 ADD PUSH2 0x49B5 JUMP JUMPDEST SWAP1 JUMP JUMPDEST CALLVALUE PUSH2 0x3E9 JUMPI PUSH1 0x0 CALLDATASIZE PUSH1 0x3 NOT ADD SLT PUSH2 0x3E9 JUMPI PUSH1 0x20 PUSH1 0x40 MLOAD PUSH7 0x38D7EA4C68000 DUP2 MSTORE RETURN JUMPDEST PUSH1 0x40 SWAP1 PUSH1 0x3 NOT ADD SLT PUSH2 0x3E9 JUMPI PUSH1 0x4 CALLDATALOAD SWAP1 PUSH1 0x24 CALLDATALOAD SWAP1 JUMP JUMPDEST SWAP1 PUSH1 0x1 DUP3 DUP2 SHR SWAP3 AND DUP1 ISZERO PUSH2 0x4A72 JUMPI JUMPDEST PUSH1 0x20 DUP4 LT EQ PUSH2 0x4A5C JUMPI JUMP JUMPDEST PUSH4 0x4E487B71 PUSH1 0xE0 SHL PUSH1 0x0 MSTORE PUSH1 0x22 PUSH1 0x4 MSTORE PUSH1 0x24 PUSH1 0x0 REVERT JUMPDEST SWAP2 PUSH1 0x7F AND SWAP2 PUSH2 0x4A51 JUMP JUMPDEST SWAP1 PUSH1 0x40 MLOAD SWAP2 DUP3 PUSH1 0x0 DUP3 SLOAD SWAP3 PUSH2 0x4A90 DUP5 PUSH2 0x4A42 JUMP JUMPDEST SWAP1 DUP2 DUP5 MSTORE PUSH1 0x1 SWAP5 DUP6 DUP2 AND SWAP1 DUP2 PUSH1 0x0 EQ PUSH2 0x4AFF JUMPI POP PUSH1 0x1 EQ PUSH2 0x4ABC JUMPI JUMPDEST POP POP PUSH2 0x4ABA SWAP3 POP SUB DUP4 PUSH2 0x492B JUMP JUMPDEST JUMP JUMPDEST SWAP1 SWAP4 SWAP2 POP PUSH1 0x0 MSTORE PUSH1 0x20 SWAP1 DUP2 PUSH1 0x0 KECCAK256 SWAP4 PUSH1 0x0 SWAP2 JUMPDEST DUP2 DUP4 LT PUSH2 0x4AE7 JUMPI POP POP PUSH2 0x4ABA SWAP4 POP DUP3 ADD ADD CODESIZE DUP1 PUSH2 0x4AAC JUMP JUMPDEST DUP6 SLOAD DUP9 DUP5 ADD DUP6 ADD MSTORE SWAP5 DUP6 ADD SWAP5 DUP8 SWAP5 POP SWAP2 DUP4 ADD SWAP2 PUSH2 0x4ACF JUMP JUMPDEST SWAP2 POP POP PUSH2 0x4ABA SWAP5 POP PUSH1 0x20 SWAP3 POP PUSH1 0xFF NOT AND DUP3 DUP5 ADD MSTORE ISZERO ISZERO PUSH1 0x5 SHL DUP3 ADD ADD CODESIZE DUP1 PUSH2 0x4AAC JUMP JUMPDEST PUSH1 0x20 SWAP1 DUP2 PUSH1 0x40 DUP2 DUP4 ADD SWAP3 DUP3 DUP2 MSTORE DUP6 MLOAD DUP1 SWAP5 MSTORE ADD SWAP4 ADD SWAP2 PUSH1 0x0 JUMPDEST DUP3 DUP2 LT PUSH2 0x4B49 JUMPI POP POP POP POP SWAP1 JUMP JUMPDEST DUP4 MLOAD DUP6 MSTORE SWAP4 DUP2 ADD SWAP4 SWAP3 DUP2 ADD SWAP3 PUSH1 0x1 ADD PUSH2 0x4B3B JUMP JUMPDEST DUP1 SLOAD DUP3 LT ISZERO PUSH2 0x2CE2 JUMPI PUSH1 0x0 MSTORE PUSH1 0x20 PUSH1 0x0 KECCAK256 ADD SWAP1 PUSH1 0x0 SWAP1 JUMP JUMPDEST PUSH1 0x4 DUP2 LT ISZERO PUSH2 0x1285 JUMPI PUSH1 0x0 MSTORE PUSH1 0x12 PUSH1 0x20 MSTORE PUSH1 0x40 PUSH1 0x0 KECCAK256 SWAP1 JUMP JUMPDEST PUSH1 0x7 SLOAD PUSH1 0x1 PUSH1 0x1 PUSH1 0xA0 SHL SUB AND CALLER SUB PUSH2 0x4BA2 JUMPI JUMP JUMPDEST PUSH1 0x64 PUSH1 0x40 MLOAD PUSH3 0x461BCD PUSH1 0xE5 SHL DUP2 MSTORE PUSH1 0x20 PUSH1 0x4 DUP3 ADD MSTORE PUSH1 0x20 PUSH1 0x24 DUP3 ADD MSTORE PUSH32 0x4F776E61626C653A2063616C6C6572206973206E6F7420746865206F776E6572 PUSH1 0x44 DUP3 ADD MSTORE REVERT JUMPDEST ISZERO PUSH2 0x4BED JUMPI JUMP JUMPDEST PUSH1 0x40 MLOAD PUSH3 0x461BCD PUSH1 0xE5 SHL DUP2 MSTORE PUSH1 0x20 PUSH1 0x4 DUP3 ADD MSTORE PUSH1 0x18 PUSH1 0x24 DUP3 ADD MSTORE PUSH24 0x115490CDCC8C4E881A5B9D985B1A59081D1BDAD95B881251 PUSH1 0x42 SHL PUSH1 0x44 DUP3 ADD MSTORE PUSH1 0x64 SWAP1 REVERT JUMPDEST PUSH1 0x0 SWAP1 DUP2 MSTORE PUSH1 0x2 PUSH1 0x20 MSTORE PUSH1 0x40 SWAP1 KECCAK256 SLOAD PUSH1 0x1 PUSH1 0x1 PUSH1 0xA0 SHL SUB AND PUSH2 0x4A07 DUP2 ISZERO ISZERO PUSH2 0x4BE6 JUMP JUMPDEST PUSH2 0x4C61 PUSH2 0x4C5C DUP3 PUSH2 0x4F26 JUMP JUMPDEST PUSH2 0x4BE6 JUMP JUMPDEST PUSH1 0x0 SWAP1 DUP2 MSTORE PUSH1 0x4 PUSH1 0x20 MSTORE PUSH1 0x40 SWAP1 KECCAK256 SLOAD PUSH1 0x1 PUSH1 0x1 PUSH1 0xA0 SHL SUB AND SWAP1 JUMP JUMPDEST ISZERO PUSH2 0x4C83 JUMPI JUMP JUMPDEST PUSH1 0x40 MLOAD PUSH3 0x461BCD PUSH1 0xE5 SHL DUP2 MSTORE PUSH1 0x20 PUSH1 0x4 DUP3 ADD MSTORE PUSH1 0x2D PUSH1 0x24 DUP3 ADD MSTORE PUSH32 0x4552433732313A2063616C6C6572206973206E6F7420746F6B656E206F776E65 PUSH1 0x44 DUP3 ADD MSTORE PUSH13 0x1C881BDC88185C1C1C9BDD9959 PUSH1 0x9A SHL PUSH1 0x64 DUP3 ADD MSTORE PUSH1 0x84 SWAP1 REVERT JUMPDEST PUSH1 0x80 SWAP1 PUSH1 0x20 DUP2 MSTORE PUSH1 0x32 PUSH1 0x20 DUP3 ADD MSTORE PUSH32 0x4552433732313A207472616E7366657220746F206E6F6E204552433732315265 PUSH1 0x40 DUP3 ADD MSTORE PUSH18 0x31B2B4BB32B91034B6B83632B6B2B73A32B9 PUSH1 0x71 SHL PUSH1 0x60 DUP3 ADD MSTORE ADD SWAP1 JUMP JUMPDEST ISZERO PUSH2 0x4D38 JUMPI JUMP JUMPDEST PUSH1 0x40 MLOAD PUSH3 0x461BCD PUSH1 0xE5 SHL DUP2 MSTORE DUP1 PUSH2 0x35C8 PUSH1 0x4 DUP3 ADD PUSH2 0x4CDE JUMP JUMPDEST SWAP1 PUSH1 0x1 PUSH1 0x1 PUSH1 0xA0 SHL SUB DUP1 DUP1 PUSH2 0x4D65 DUP5 PUSH2 0x4C2D JUMP JUMPDEST AND SWAP4 AND SWAP2 DUP4 DUP4 EQ SWAP4 DUP5 ISZERO PUSH2 0x4D98 JUMPI JUMPDEST POP DUP4 ISZERO PUSH2 0x4D82 JUMPI JUMPDEST POP POP POP SWAP1 JUMP JUMPDEST PUSH2 0x4D8E SWAP2 SWAP3 SWAP4 POP PUSH2 0x4C50 JUMP JUMPDEST AND EQ CODESIZE DUP1 DUP1 PUSH2 0x4D7C JUMP JUMPDEST SWAP1 SWAP4 POP PUSH1 0x0 MSTORE PUSH1 0x5 PUSH1 0x20 MSTORE PUSH1 0x40 PUSH1 0x0 KECCAK256 DUP3 PUSH1 0x0 MSTORE PUSH1 0x20 MSTORE PUSH1 0xFF PUSH1 0x40 PUSH1 0x0 KECCAK256 SLOAD AND SWAP3 CODESIZE PUSH2 0x4D74 JUMP JUMPDEST ISZERO PUSH2 0x4DC6 JUMPI JUMP JUMPDEST PUSH1 0x40 MLOAD PUSH3 0x461BCD PUSH1 0xE5 SHL DUP2 MSTORE PUSH1 0x20 PUSH1 0x4 DUP3 ADD MSTORE PUSH1 0x25 PUSH1 0x24 DUP3 ADD MSTORE PUSH32 0x4552433732313A207472616E736665722066726F6D20696E636F727265637420 PUSH1 0x44 DUP3 ADD MSTORE PUSH5 0x37BBB732B9 PUSH1 0xD9 SHL PUSH1 0x64 DUP3 ADD MSTORE PUSH1 0x84 SWAP1 REVERT JUMPDEST SWAP1 PUSH2 0x4E41 SWAP2 PUSH2 0x4E27 DUP5 PUSH2 0x4C2D JUMP JUMPDEST PUSH1 0x1 PUSH1 0x1 PUSH1 0xA0 SHL SUB SWAP4 SWAP2 DUP5 AND SWAP3 DUP5 SWAP3 SWAP1 SWAP2 DUP4 AND DUP5 EQ PUSH2 0x4DBF JUMP JUMPDEST AND SWAP2 DUP3 ISZERO PUSH2 0x4EC4 JUMPI DUP2 PUSH2 0x4E5E SWAP2 PUSH2 0x4E57 DUP7 PUSH2 0x4C2D JUMP JUMPDEST AND EQ PUSH2 0x4DBF JUMP JUMPDEST PUSH1 0x0 DUP1 MLOAD PUSH1 0x20 PUSH2 0x56D3 DUP4 CODECOPY DUP2 MLOAD SWAP2 MSTORE PUSH1 0x0 DUP5 DUP2 MSTORE PUSH1 0x4 PUSH1 0x20 MSTORE PUSH1 0x40 DUP2 KECCAK256 PUSH1 0x1 DUP1 PUSH1 0xA0 SHL SUB NOT SWAP1 DUP2 DUP2 SLOAD AND SWAP1 SSTORE DUP4 DUP3 MSTORE PUSH1 0x3 PUSH1 0x20 MSTORE PUSH1 0x40 DUP3 KECCAK256 PUSH1 0x0 NOT DUP2 SLOAD ADD SWAP1 SSTORE DUP5 DUP3 MSTORE PUSH1 0x40 DUP3 KECCAK256 PUSH1 0x1 DUP2 SLOAD ADD SWAP1 SSTORE DUP6 DUP3 MSTORE PUSH1 0x2 PUSH1 0x20 MSTORE DUP5 PUSH1 0x40 DUP4 KECCAK256 SWAP2 DUP3 SLOAD AND OR SWAP1 SSTORE DUP1 LOG4 JUMP JUMPDEST PUSH1 0x40 MLOAD PUSH3 0x461BCD PUSH1 0xE5 SHL DUP2 MSTORE PUSH1 0x20 PUSH1 0x4 DUP3 ADD MSTORE PUSH1 0x24 DUP1 DUP3 ADD MSTORE PUSH32 0x4552433732313A207472616E7366657220746F20746865207A65726F20616464 PUSH1 0x44 DUP3 ADD MSTORE PUSH4 0x72657373 PUSH1 0xE0 SHL PUSH1 0x64 DUP3 ADD MSTORE PUSH1 0x84 SWAP1 REVERT JUMPDEST SWAP1 PUSH1 0xFF DUP1 NOT DUP4 SLOAD AND SWAP2 ISZERO ISZERO AND OR SWAP1 SSTORE JUMP JUMPDEST PUSH1 0x0 SWAP1 DUP2 MSTORE PUSH1 0x2 PUSH1 0x20 MSTORE PUSH1 0x40 SWAP1 KECCAK256 SLOAD PUSH1 0x1 PUSH1 0x1 PUSH1 0xA0 SHL SUB AND ISZERO ISZERO SWAP1 JUMP JUMPDEST SWAP2 SWAP3 PUSH1 0x0 SWAP3 SWAP1 SWAP2 SWAP1 DUP1 EXTCODESIZE ISZERO PUSH2 0x5059 JUMPI PUSH2 0x4F91 SWAP5 PUSH1 0x40 MLOAD DUP1 SWAP3 PUSH4 0xA85BD01 PUSH1 0xE1 SHL SWAP5 DUP6 DUP4 MSTORE CALLER PUSH1 0x4 DUP5 ADD MSTORE DUP8 PUSH1 0x24 DUP5 ADD MSTORE PUSH1 0x44 DUP4 ADD MSTORE PUSH1 0x80 PUSH1 0x64 DUP4 ADD MSTORE DUP2 DUP8 DUP2 PUSH1 0x20 SWAP11 DUP12 SWAP7 PUSH1 0x84 DUP4 ADD SWAP1 PUSH2 0x4801 JUMP JUMPDEST SUB SWAP3 PUSH1 0x1 PUSH1 0x1 PUSH1 0xA0 SHL SUB AND GAS CALL DUP5 SWAP2 DUP2 PUSH2 0x5015 JUMPI JUMPDEST POP PUSH2 0x5004 JUMPI POP POP POP RETURNDATASIZE PUSH1 0x0 EQ PUSH2 0x4FFC JUMPI RETURNDATASIZE PUSH2 0x4FC0 DUP2 PUSH2 0x499A JUMP JUMPDEST SWAP1 PUSH2 0x4FCE PUSH1 0x40 MLOAD SWAP3 DUP4 PUSH2 0x492B JUMP JUMPDEST DUP2 MSTORE DUP1 SWAP2 DUP4 RETURNDATASIZE SWAP3 ADD RETURNDATACOPY JUMPDEST DUP1 MLOAD SWAP2 DUP3 PUSH2 0x4FF9 JUMPI PUSH1 0x40 MLOAD PUSH3 0x461BCD PUSH1 0xE5 SHL DUP2 MSTORE DUP1 PUSH2 0x35C8 PUSH1 0x4 DUP3 ADD PUSH2 0x4CDE JUMP JUMPDEST ADD REVERT JUMPDEST POP PUSH1 0x60 PUSH2 0x4FD8 JUMP JUMPDEST PUSH1 0x1 PUSH1 0x1 PUSH1 0xE0 SHL SUB NOT AND EQ SWAP3 POP SWAP1 POP JUMP JUMPDEST SWAP1 SWAP2 POP DUP6 DUP2 DUP2 RETURNDATASIZE DUP4 GT PUSH2 0x5052 JUMPI JUMPDEST PUSH2 0x502D DUP2 DUP4 PUSH2 0x492B JUMP JUMPDEST DUP2 ADD SUB SLT PUSH2 0x504E JUMPI MLOAD PUSH1 0x1 PUSH1 0x1 PUSH1 0xE0 SHL SUB NOT DUP2 AND DUP2 SUB PUSH2 0x504E JUMPI SWAP1 CODESIZE PUSH2 0x4FA6 JUMP JUMPDEST DUP5 DUP1 REVERT JUMPDEST POP RETURNDATASIZE PUSH2 0x5023 JUMP JUMPDEST POP POP SWAP2 POP POP PUSH1 0x1 SWAP1 JUMP JUMPDEST SWAP3 SWAP4 PUSH1 0x0 SWAP4 SWAP1 SWAP3 SWAP2 DUP1 EXTCODESIZE ISZERO PUSH2 0x50E3 JUMPI SWAP5 DUP5 SWAP2 PUSH2 0x50BD SWAP7 PUSH1 0x40 MLOAD DUP1 SWAP5 DUP2 SWAP4 PUSH4 0xA85BD01 PUSH1 0xE1 SHL SWAP8 DUP9 DUP5 MSTORE CALLER PUSH1 0x4 DUP6 ADD MSTORE PUSH1 0x1 DUP1 PUSH1 0xA0 SHL SUB DUP1 SWAP3 AND PUSH1 0x24 DUP6 ADD MSTORE PUSH1 0x44 DUP5 ADD MSTORE PUSH1 0x80 PUSH1 0x64 DUP5 ADD MSTORE DUP3 PUSH1 0x20 SWAP12 DUP13 SWAP8 PUSH1 0x84 DUP4 ADD SWAP1 PUSH2 0x4801 JUMP JUMPDEST SUB SWAP4 AND GAS CALL DUP5 SWAP2 DUP2 PUSH2 0x5015 JUMPI POP PUSH2 0x5004 JUMPI POP POP POP RETURNDATASIZE PUSH1 0x0 EQ PUSH2 0x4FFC JUMPI RETURNDATASIZE PUSH2 0x4FC0 DUP2 PUSH2 0x499A JUMP JUMPDEST POP POP POP SWAP2 POP POP PUSH1 0x1 SWAP1 JUMP JUMPDEST PUSH1 0x60 SWAP1 PUSH1 0x20 DUP2 MSTORE PUSH1 0xC PUSH1 0x20 DUP3 ADD MSTORE PUSH12 0x24B73B30B634B2103A34B2B9 PUSH1 0xA1 SHL PUSH1 0x40 DUP3 ADD MSTORE ADD SWAP1 JUMP JUMPDEST PUSH2 0x511E DUP2 PUSH2 0x4871 JUMP JUMPDEST DUP1 ISZERO PUSH2 0x5176 JUMPI PUSH2 0x512D DUP2 PUSH2 0x4871 JUMP JUMPDEST PUSH1 0x1 DUP2 EQ PUSH2 0x516A JUMPI DUP1 PUSH2 0x5141 PUSH1 0x2 SWAP3 PUSH2 0x4871 JUMP JUMPDEST EQ PUSH2 0x515F JUMPI PUSH1 0x40 MLOAD PUSH3 0x461BCD PUSH1 0xE5 SHL DUP2 MSTORE DUP1 PUSH2 0x35C8 PUSH1 0x4 DUP3 ADD PUSH2 0x50EE JUMP JUMPDEST PUSH7 0x2386F26FC10000 SWAP1 JUMP JUMPDEST POP PUSH7 0x11C37937E08000 SWAP1 JUMP JUMPDEST POP PUSH7 0x38D7EA4C68000 SWAP1 JUMP JUMPDEST SWAP1 PUSH1 0x50 DUP3 MUL SWAP2 DUP1 DUP4 DIV PUSH1 0x50 EQ SWAP1 ISZERO OR ISZERO PUSH2 0xB8C JUMPI JUMP JUMPDEST DUP2 DUP2 MUL SWAP3 SWAP2 DUP2 ISZERO SWAP2 DUP5 DIV EQ OR ISZERO PUSH2 0xB8C JUMPI JUMP JUMPDEST SWAP2 SWAP1 DUP3 SUB SWAP2 DUP3 GT PUSH2 0xB8C JUMPI JUMP JUMPDEST SWAP1 PUSH7 0x38D7EA4C68000 SWAP2 DUP1 DUP4 MUL SWAP3 DUP4 DIV SUB PUSH2 0xB8C JUMPI PUSH2 0x51D6 SWAP2 PUSH2 0x5198 JUMP JUMPDEST PUSH1 0x1 PUSH1 0x1 PUSH1 0xA0 SHL SUB SWAP1 SWAP2 AND PUSH1 0x0 SWAP1 DUP2 MSTORE PUSH1 0x11 PUSH1 0x20 MSTORE PUSH1 0x40 SWAP1 KECCAK256 SLOAD PUSH1 0xFF AND PUSH1 0x4 DUP2 LT ISZERO PUSH2 0x1285 JUMPI ISZERO PUSH2 0x5204 JUMPI SWAP1 JUMP JUMPDEST PUSH2 0x520F PUSH1 0x64 SWAP2 PUSH2 0x5182 JUMP JUMPDEST DIV SWAP1 JUMP JUMPDEST PUSH7 0x71AFD498D0000 SWAP1 DUP1 DUP3 MUL SWAP2 DUP3 DIV SUB PUSH2 0xB8C JUMPI DUP1 SWAP2 PUSH1 0x1 DUP1 PUSH1 0xA0 SHL SUB AND PUSH1 0x0 MSTORE PUSH1 0x11 PUSH1 0x20 MSTORE PUSH1 0xFF PUSH1 0x40 PUSH1 0x0 KECCAK256 SLOAD AND PUSH1 0x4 DUP2 LT ISZERO PUSH2 0x1285 JUMPI PUSH1 0x1 EQ PUSH2 0x5256 JUMPI POP SWAP1 JUMP JUMPDEST PUSH1 0x64 SWAP2 POP PUSH2 0x520F SWAP1 PUSH2 0x5182 JUMP JUMPDEST PUSH1 0x4 DUP3 LT ISZERO PUSH2 0x1285 JUMPI MSTORE JUMP JUMPDEST SWAP1 PUSH1 0x4 DUP2 LT ISZERO PUSH2 0x1285 JUMPI PUSH1 0xFF DUP1 NOT DUP4 SLOAD AND SWAP2 AND OR SWAP1 SSTORE JUMP JUMPDEST DUP1 SLOAD PUSH2 0x100 PUSH1 0x1 PUSH1 0xA8 SHL SUB NOT AND PUSH1 0x8 SWAP3 SWAP1 SWAP3 SHL PUSH2 0x100 PUSH1 0x1 PUSH1 0xA8 SHL SUB AND SWAP2 SWAP1 SWAP2 OR SWAP1 SSTORE JUMP JUMPDEST DUP1 SLOAD SWAP2 SWAP1 PUSH1 0x1 PUSH1 0x40 SHL DUP4 LT ISZERO PUSH2 0xDF0 JUMPI DUP3 PUSH2 0x1560 SWAP2 PUSH1 0x1 PUSH2 0x4ABA SWAP6 ADD DUP2 SSTORE PUSH2 0x4B5D JUMP JUMPDEST PUSH1 0x2 PUSH1 0x8 SLOAD EQ PUSH2 0x52E0 JUMPI PUSH1 0x2 PUSH1 0x8 SSTORE JUMP JUMPDEST PUSH1 0x40 MLOAD PUSH3 0x461BCD PUSH1 0xE5 SHL DUP2 MSTORE PUSH1 0x20 PUSH1 0x4 DUP3 ADD MSTORE PUSH1 0x1F PUSH1 0x24 DUP3 ADD MSTORE PUSH32 0x5265656E7472616E637947756172643A207265656E7472616E742063616C6C00 PUSH1 0x44 DUP3 ADD MSTORE PUSH1 0x64 SWAP1 REVERT JUMPDEST ISZERO PUSH2 0x532C JUMPI JUMP JUMPDEST PUSH1 0x40 MLOAD PUSH3 0x461BCD PUSH1 0xE5 SHL DUP2 MSTORE PUSH1 0x20 PUSH1 0x4 DUP3 ADD MSTORE PUSH1 0x1C PUSH1 0x24 DUP3 ADD MSTORE PUSH28 0x115490CDCC8C4E881D1BDAD95B88185B1C9958591E481B5A5B9D1959 PUSH1 0x22 SHL PUSH1 0x44 DUP3 ADD MSTORE PUSH1 0x64 SWAP1 REVERT JUMPDEST PUSH1 0x1 PUSH1 0x1 PUSH1 0xA0 SHL SUB AND DUP1 ISZERO PUSH2 0x53E3 JUMPI PUSH2 0x5391 PUSH2 0x538B DUP4 PUSH2 0x4F26 JUMP JUMPDEST ISZERO PUSH2 0x5325 JUMP JUMPDEST PUSH2 0x539D PUSH2 0x538B DUP4 PUSH2 0x4F26 JUMP JUMPDEST PUSH1 0x0 DUP2 DUP2 MSTORE PUSH1 0x3 PUSH1 0x20 SWAP1 DUP2 MSTORE PUSH1 0x40 DUP1 DUP4 KECCAK256 DUP1 SLOAD PUSH1 0x1 ADD SWAP1 SSTORE DUP5 DUP4 MSTORE PUSH1 0x2 SWAP1 SWAP2 MSTORE DUP2 KECCAK256 DUP1 SLOAD PUSH1 0x1 PUSH1 0x1 PUSH1 0xA0 SHL SUB NOT AND DUP4 OR SWAP1 SSTORE PUSH1 0x0 DUP1 MLOAD PUSH1 0x20 PUSH2 0x56D3 DUP4 CODECOPY DUP2 MLOAD SWAP2 MSTORE DUP2 DUP1 LOG4 JUMP JUMPDEST PUSH1 0x64 PUSH1 0x40 MLOAD PUSH3 0x461BCD PUSH1 0xE5 SHL DUP2 MSTORE PUSH1 0x20 PUSH1 0x4 DUP3 ADD MSTORE PUSH1 0x20 PUSH1 0x24 DUP3 ADD MSTORE PUSH32 0x4552433732313A206D696E7420746F20746865207A65726F2061646472657373 PUSH1 0x44 DUP3 ADD MSTORE REVERT JUMPDEST ISZERO PUSH2 0x542E JUMPI JUMP JUMPDEST PUSH1 0x40 MLOAD PUSH3 0x461BCD PUSH1 0xE5 SHL DUP2 MSTORE PUSH1 0x20 PUSH1 0x4 DUP3 ADD MSTORE PUSH1 0x10 PUSH1 0x24 DUP3 ADD MSTORE PUSH16 0x496E73756666696369656E7420666565 PUSH1 0x80 SHL PUSH1 0x44 DUP3 ADD MSTORE PUSH1 0x64 SWAP1 REVERT JUMPDEST SWAP2 SWAP1 DUP3 ADD DUP1 SWAP3 GT PUSH2 0xB8C JUMPI JUMP JUMPDEST PUSH1 0x0 SWAP1 DUP1 PUSH19 0x184F03E93FF9F4DAA797ED6E38ED64BF6A1F01 PUSH1 0x40 SHL DUP1 DUP3 LT ISZERO PUSH2 0x55C7 JUMPI JUMPDEST POP PUSH10 0x4EE2D6D415B85ACEF81 PUSH1 0x20 SHL DUP1 DUP4 LT ISZERO PUSH2 0x55B8 JUMPI JUMPDEST POP PUSH7 0x2386F26FC10000 DUP1 DUP4 LT ISZERO PUSH2 0x55A9 JUMPI JUMPDEST POP PUSH4 0x5F5E100 DUP1 DUP4 LT ISZERO PUSH2 0x559A JUMPI JUMPDEST POP PUSH2 0x2710 DUP1 DUP4 LT ISZERO PUSH2 0x558B JUMPI JUMPDEST POP PUSH1 0x64 DUP3 LT ISZERO PUSH2 0x557B JUMPI JUMPDEST PUSH1 0xA DUP1 SWAP3 LT ISZERO PUSH2 0x5571 JUMPI JUMPDEST PUSH1 0x1 SWAP1 DUP2 PUSH1 0x21 DUP2 DUP7 ADD SWAP6 PUSH2 0x5506 DUP8 PUSH2 0x499A JUMP JUMPDEST SWAP7 PUSH2 0x5514 PUSH1 0x40 MLOAD SWAP9 DUP10 PUSH2 0x492B JUMP JUMPDEST DUP1 DUP9 MSTORE PUSH2 0x5523 PUSH1 0x1F NOT SWAP2 PUSH2 0x499A JUMP JUMPDEST ADD CALLDATASIZE PUSH1 0x20 DUP10 ADD CALLDATACOPY DUP7 ADD ADD SWAP1 JUMPDEST PUSH2 0x553B JUMPI JUMPDEST POP POP POP POP SWAP1 JUMP JUMPDEST PUSH1 0x0 NOT ADD SWAP1 DUP4 SWAP1 PUSH16 0x181899199A1A9B1B9C1CB0B131B232B3 PUSH1 0x81 SHL DUP3 DUP3 MOD BYTE DUP4 MSTORE8 DIV SWAP2 DUP3 ISZERO PUSH2 0x556C JUMPI SWAP2 SWAP1 DUP3 PUSH2 0x552F JUMP JUMPDEST PUSH2 0x5534 JUMP JUMPDEST SWAP2 PUSH1 0x1 ADD SWAP2 PUSH2 0x54F3 JUMP JUMPDEST SWAP2 SWAP1 PUSH1 0x64 PUSH1 0x2 SWAP2 DIV SWAP2 ADD SWAP2 PUSH2 0x54E8 JUMP JUMPDEST PUSH1 0x4 SWAP2 SWAP4 SWAP3 DIV SWAP2 ADD SWAP2 CODESIZE PUSH2 0x54DD JUMP JUMPDEST PUSH1 0x8 SWAP2 SWAP4 SWAP3 DIV SWAP2 ADD SWAP2 CODESIZE PUSH2 0x54D0 JUMP JUMPDEST PUSH1 0x10 SWAP2 SWAP4 SWAP3 DIV SWAP2 ADD SWAP2 CODESIZE PUSH2 0x54C1 JUMP JUMPDEST PUSH1 0x20 SWAP2 SWAP4 SWAP3 DIV SWAP2 ADD SWAP2 CODESIZE PUSH2 0x54AF JUMP JUMPDEST PUSH1 0x40 SWAP4 POP DUP2 DIV SWAP2 POP CODESIZE PUSH2 0x5497 JUMP JUMPDEST PUSH1 0x0 NOT DUP2 EQ PUSH2 0xB8C JUMPI PUSH1 0x1 ADD SWAP1 JUMP JUMPDEST DUP2 DUP2 LT PUSH2 0x55EF JUMPI POP POP JUMP JUMPDEST PUSH1 0x0 DUP2 SSTORE PUSH1 0x1 ADD PUSH2 0x55E4 JUMP JUMPDEST ISZERO PUSH2 0x5602 JUMPI JUMP JUMPDEST PUSH1 0x40 MLOAD PUSH3 0x461BCD PUSH1 0xE5 SHL DUP2 MSTORE PUSH1 0x20 PUSH1 0x4 DUP3 ADD MSTORE PUSH1 0x16 PUSH1 0x24 DUP3 ADD MSTORE PUSH22 0x14995DD85C9908185B1C9958591E4818DB185A5B5959 PUSH1 0x52 SHL PUSH1 0x44 DUP3 ADD MSTORE PUSH1 0x64 SWAP1 REVERT JUMPDEST ISZERO PUSH2 0x5647 JUMPI JUMP JUMPDEST PUSH1 0x40 MLOAD PUSH3 0x461BCD PUSH1 0xE5 SHL DUP2 MSTORE PUSH1 0x20 PUSH1 0x4 DUP3 ADD MSTORE PUSH1 0xF PUSH1 0x24 DUP3 ADD MSTORE PUSH15 0x2737BA103A37B5B2B71037BBB732B9 PUSH1 0x89 SHL PUSH1 0x44 DUP3 ADD MSTORE PUSH1 0x64 SWAP1 REVERT JUMPDEST DUP1 MLOAD DUP3 LT ISZERO PUSH2 0x2CE2 JUMPI PUSH1 0x20 SWAP2 PUSH1 0x5 SHL ADD ADD SWAP1 JUMP INVALID DUP12 0xE0 SMOD SWAP13 MSTORE8 AND MSIZE EQ SGT PREVRANDAO 0xCD 0x1F 0xD0 LOG4 CALLCODE DUP5 NOT 0x49 PUSH32 0x9722A3DAAFE3B4186F6B6457E073A1581E7A5609581367C8F8275455C343327F CALLVALUE CODECOPY 0xC2 0xC5 0xA5 0xE2 SWAP4 OR PREVRANDAO SHR BYTE PUSH14 0xD3DDF252AD1BE2C89B69C2B068FC CALLDATACOPY DUP14 0xAA SWAP6 0x2B 0xA7 CALL PUSH4 0xC4A11628 CREATE2 GAS 0x4D CREATE2 0x23 0xB3 0xEF GASPRICE 0xE3 DUP1 0xBB PUSH16 0xBC0CE7BFC28639AE95E9AF825CE794CB PUSH16 0x5A46D4CC13A36ADEC83BA26469706673 PC 0x22 SLT KECCAK256 0xDF RETURN SWAP1 JUMPDEST PUSH9 0x71AEA1D7A98E7D0F38 0x2C 0xAB 0xEC MLOAD 0xB7 PUSH8 0xD557ED0A2B0DEE9B CALLVALUE 0xD2 DUP10 GT PUSH5 0x736F6C6343 STOP ADDMOD SGT STOP CALLER "},"methodIdentifiers":{"BASE_BLOCK_FEE()":"6f6cb6bc","BASE_REVEAL_FEE()":"431744c3","FACTION_DISCOUNT()":"3f706d91","MINT_PRICE_BASIC()":"a07964e5","MINT_PRICE_EPIC()":"2ca021d5","MINT_PRICE_RARE()":"96d61330","REFERRAL_REWARD()":"84a3a0f3","STAKING_REWARD_RATE()":"0f1a2905","activateEvent(uint256)":"ebf03feb","activeEventId()":"d4d9a7fb","addExperience(uint256,uint256,string)":"d9320985","advanceDay()":"c13d4ec4","approve(address,uint256)":"095ea7b3","balanceOf(address)":"70a08231","blockReveal(uint256)":"8f4d9964","buyNFT(uint256)":"51ed8288","calculateBlockFee(uint256,address)":"f7316de7","calculateFee(uint256,uint256,address)":"4f84d9fd","cancelListing(uint256)":"305a67a8","claimEventReward(uint256)":"7a2bf277","claimReferralReward()":"9b4b2c9c","clues(uint256)":"30f37c7f","createDailyChallenge(string,bytes32,uint256)":"b3cbc19e","createSeasonalEvent(string,string,uint256,uint256,uint256,uint256,uint256,uint256)":"268da74d","createTournament(string,uint256,uint256)":"46be4cb5","currentDay()":"5c9302c9","dailyChallenges(uint256)":"f31229cc","endTournament(uint256)":"aa3b47c0","eventParticipations(uint256,address)":"b06ae5b0","evolutionStates(uint256)":"5223ab2d","factionScores(uint8)":"c8b1f25c","generateSVG(uint256)":"6dcee4ca","getActiveEvent()":"01352be7","getActiveListings()":"87c35bc0","getApproved(uint256)":"081812fc","getEventParticipation(uint256,address)":"dbd486a6","getEvolutionState(uint256)":"d2a3d240","getFactionScore(uint256)":"0d796cb8","getMintPrice(uint8)":"b0e36015","getPlayerClues(address)":"a69d25ab","getTournamentParticipants(uint256)":"c2a8b11b","getUserStakes(address)":"842e2981","getUserTournaments(address)":"81872b5e","isApprovedForAll(address,address)":"e985e9c5","joinTournament(uint256)":"d115cac6","lastChallengeCompletion(address)":"81a96af5","listNFT(uint256,uint256)":"94383f14","listings(uint256)":"de74e57b","mintClue(address,uint256,uint256,bytes32)":"394c779a","mintClue(address,uint256,uint256,uint256,bytes32)":"48d85ec4","mintSpecialEventNFT(address,uint256)":"c50a57f3","name()":"06fdde03","nextEventId()":"9f9d903a","nextTournamentId()":"852efc3d","owner()":"8da5cb5b","ownerOf(uint256)":"6352211e","playerClues(address,uint256)":"84147b61","playerFactions(address)":"33ae955e","playerPoints(address)":"9b211fc4","playerToken(address)":"685ad315","randomReveal(uint256,uint256)":"d981cab4","rawFulfillRandomWords(uint256,uint256[])":"1fe543e3","referralRewards(address)":"53aaa63b","referrers(address)":"4a3b68cc","renounceOwnership()":"715018a6","s_requests(uint256)":"a168fa89","safeTransferFrom(address,address,uint256)":"42842e0e","safeTransferFrom(address,address,uint256,bytes)":"b88d4fde","seasonalEvents(uint256)":"65a372e0","setApprovalForAll(address,bool)":"a22cb465","setReferrer(address,address)":"bbddaca3","solveDailyChallenge(string)":"8a78ec4d","stakeNFT(uint256,uint256)":"51cecc80","stakes(uint256)":"d5a44f86","supportsInterface(bytes4)":"01ffc9a7","symbol()":"95d89b41","tokenURI(uint256)":"c87b56dd","tournaments(uint256)":"7503e1b7","transferFrom(address,address,uint256)":"23b872dd","transferOwnership(address)":"f2fde38b","unstakeNFT(uint256)":"c1dfa0bb","userStakes(address,uint256)":"b5d5b5fa","userTournaments(address,uint256)":"eed5e8d6","vrfRequests(uint256)":"1a1d9252"}}}}}