{"contracts/ClueNFT.sol":{"ClueNFT":{"abi":[{"inputs":[{"internalType":"uint64","name":"subscriptionId","type":"uint64"}],"stateMutability":"nonpayable","type":"constructor"},{"inputs":[{"internalType":"address","name":"have","type":"address"},{"internalType":"address","name":"want","type":"address"}],"name":"OnlyCoordinatorCanFulfill","type":"error"},{"anonymous":false,"inputs":[{"indexed":true,"internalType":"address","name":"owner","type":"address"},{"indexed":true,"internalType":"address","name":"approved","type":"address"},{"indexed":true,"internalType":"uint256","name":"tokenId","type":"uint256"}],"name":"Approval","type":"event"},{"anonymous":false,"inputs":[{"indexed":true,"internalType":"address","name":"owner","type":"address"},{"indexed":true,"internalType":"address","name":"operator","type":"address"},{"indexed":false,"internalType":"bool","name":"approved","type":"bool"}],"name":"ApprovalForAll","type":"event"},{"anonymous":false,"inputs":[{"indexed":false,"internalType":"uint256","name":"_fromTokenId","type":"uint256"},{"indexed":false,"internalType":"uint256","name":"_toTokenId","type":"uint256"}],"name":"BatchMetadataUpdate","type":"event"},{"anonymous":false,"inputs":[{"indexed":true,"internalType":"uint256","name":"tokenId","type":"uint256"},{"indexed":true,"internalType":"address","name":"creator","type":"address"},{"indexed":false,"internalType":"enum ClueNFT.Faction","name":"faction","type":"uint8"},{"indexed":false,"internalType":"uint256","name":"difficulty","type":"uint256"}],"name":"ClueMinted","type":"event"},{"anonymous":false,"inputs":[{"indexed":true,"internalType":"uint256","name":"tokenId","type":"uint256"},{"indexed":true,"internalType":"address","name":"solver","type":"address"},{"indexed":false,"internalType":"uint256","name":"points","type":"uint256"}],"name":"ClueSolved","type":"event"},{"anonymous":false,"inputs":[{"indexed":true,"internalType":"uint256","name":"tokenId","type":"uint256"},{"indexed":true,"internalType":"address","name":"stealer","type":"address"},{"indexed":true,"internalType":"address","name":"victim","type":"address"},{"indexed":false,"internalType":"uint256","name":"stolenMultiplier","type":"uint256"}],"name":"ClueStolen","type":"event"},{"anonymous":false,"inputs":[{"indexed":false,"internalType":"uint256","name":"newDifficulty","type":"uint256"}],"name":"DifficultyScaled","type":"event"},{"anonymous":false,"inputs":[{"indexed":false,"internalType":"uint256","name":"_tokenId","type":"uint256"}],"name":"MetadataUpdate","type":"event"},{"anonymous":false,"inputs":[{"indexed":true,"internalType":"address","name":"previousOwner","type":"address"},{"indexed":true,"internalType":"address","name":"newOwner","type":"address"}],"name":"OwnershipTransferred","type":"event"},{"anonymous":false,"inputs":[{"indexed":true,"internalType":"uint256","name":"tokenId","type":"uint256"},{"indexed":false,"internalType":"uint256","name":"revealUntil","type":"uint256"}],"name":"PlayerRevealed","type":"event"},{"anonymous":false,"inputs":[{"indexed":true,"internalType":"uint256","name":"requestId","type":"uint256"},{"indexed":true,"internalType":"address","name":"requester","type":"address"}],"name":"RandomnessRequested","type":"event"},{"anonymous":false,"inputs":[{"indexed":true,"internalType":"uint256","name":"tokenId","type":"uint256"},{"indexed":false,"internalType":"uint256","name":"blockedUntil","type":"uint256"}],"name":"RevealBlocked","type":"event"},{"anonymous":false,"inputs":[{"indexed":true,"internalType":"uint256","name":"tokenId","type":"uint256"},{"indexed":true,"internalType":"address","name":"stealer","type":"address"},{"indexed":true,"internalType":"address","name":"victim","type":"address"}],"name":"StealFailed","type":"event"},{"anonymous":false,"inputs":[{"indexed":true,"internalType":"address","name":"from","type":"address"},{"indexed":true,"internalType":"address","name":"to","type":"address"},{"indexed":true,"internalType":"uint256","name":"tokenId","type":"uint256"}],"name":"Transfer","type":"event"},{"inputs":[],"name":"STEAL_FEE","outputs":[{"internalType":"uint256","name":"","type":"uint256"}],"stateMutability":"view","type":"function"},{"inputs":[],"name":"STEAL_SUCCESS_RATE","outputs":[{"internalType":"uint256","name":"","type":"uint256"}],"stateMutability":"view","type":"function"},{"inputs":[],"name":"activePlayers","outputs":[{"internalType":"uint256","name":"","type":"uint256"}],"stateMutability":"view","type":"function"},{"inputs":[{"internalType":"address","name":"to","type":"address"},{"internalType":"uint256","name":"tokenId","type":"uint256"}],"name":"approve","outputs":[],"stateMutability":"nonpayable","type":"function"},{"inputs":[{"internalType":"address","name":"owner","type":"address"}],"name":"balanceOf","outputs":[{"internalType":"uint256","name":"","type":"uint256"}],"stateMutability":"view","type":"function"},{"inputs":[{"internalType":"uint256","name":"durationHours","type":"uint256"}],"name":"blockReveal","outputs":[],"stateMutability":"payable","type":"function"},{"inputs":[{"internalType":"uint256","name":"durationHours","type":"uint256"}],"name":"calculateBlockFee","outputs":[{"internalType":"uint256","name":"","type":"uint256"}],"stateMutability":"pure","type":"function"},{"inputs":[{"internalType":"uint256","name":"numReveals","type":"uint256"},{"internalType":"uint256","name":"durationHours","type":"uint256"}],"name":"calculateFee","outputs":[{"internalType":"uint256","name":"","type":"uint256"}],"stateMutability":"pure","type":"function"},{"inputs":[{"internalType":"uint256","name":"","type":"uint256"}],"name":"clues","outputs":[{"internalType":"uint256","name":"tokenId","type":"uint256"},{"internalType":"enum ClueNFT.Faction","name":"faction","type":"uint8"},{"internalType":"uint256","name":"difficulty","type":"uint256"},{"internalType":"uint256","name":"multiplier","type":"uint256"},{"internalType":"bool","name":"isActive","type":"bool"},{"internalType":"address","name":"creator","type":"address"},{"internalType":"uint256","name":"createdAt","type":"uint256"},{"internalType":"bytes32","name":"clueHash","type":"bytes32"}],"stateMutability":"view","type":"function"},{"inputs":[{"internalType":"uint256","name":"tokenId","type":"uint256"},{"internalType":"string","name":"encryptedClue","type":"string"}],"name":"collectClue","outputs":[],"stateMutability":"nonpayable","type":"function"},{"inputs":[{"internalType":"enum ClueNFT.Faction","name":"","type":"uint8"}],"name":"factionPots","outputs":[{"internalType":"uint256","name":"","type":"uint256"}],"stateMutability":"view","type":"function"},{"inputs":[{"internalType":"enum ClueNFT.Faction","name":"","type":"uint8"}],"name":"factionScores","outputs":[{"internalType":"uint256","name":"","type":"uint256"}],"stateMutability":"view","type":"function"},{"inputs":[{"internalType":"uint256","name":"tokenId","type":"uint256"}],"name":"getApproved","outputs":[{"internalType":"address","name":"","type":"address"}],"stateMutability":"view","type":"function"},{"inputs":[{"internalType":"uint256","name":"tokenId","type":"uint256"}],"name":"getClue","outputs":[{"components":[{"internalType":"uint256","name":"tokenId","type":"uint256"},{"internalType":"enum ClueNFT.Faction","name":"faction","type":"uint8"},{"internalType":"uint256","name":"difficulty","type":"uint256"},{"internalType":"uint256","name":"multiplier","type":"uint256"},{"internalType":"bool","name":"isActive","type":"bool"},{"internalType":"address","name":"creator","type":"address"},{"internalType":"uint256","name":"createdAt","type":"uint256"},{"internalType":"bytes32","name":"clueHash","type":"bytes32"}],"internalType":"struct ClueNFT.Clue","name":"","type":"tuple"}],"stateMutability":"view","type":"function"},{"inputs":[{"internalType":"uint256","name":"tokenId","type":"uint256"}],"name":"getClues","outputs":[{"internalType":"string[]","name":"","type":"string[]"}],"stateMutability":"view","type":"function"},{"inputs":[{"internalType":"enum ClueNFT.Faction","name":"faction","type":"uint8"}],"name":"getFactionPot","outputs":[{"internalType":"uint256","name":"","type":"uint256"}],"stateMutability":"view","type":"function"},{"inputs":[{"internalType":"enum ClueNFT.Faction","name":"faction","type":"uint8"}],"name":"getFactionScore","outputs":[{"internalType":"uint256","name":"","type":"uint256"}],"stateMutability":"view","type":"function"},{"inputs":[],"name":"getGlobalDifficulty","outputs":[{"internalType":"uint256","name":"","type":"uint256"}],"stateMutability":"view","type":"function"},{"inputs":[{"internalType":"address","name":"player","type":"address"}],"name":"getPlayerClues","outputs":[{"internalType":"uint256[]","name":"","type":"uint256[]"}],"stateMutability":"view","type":"function"},{"inputs":[],"name":"globalDifficulty","outputs":[{"internalType":"uint256","name":"","type":"uint256"}],"stateMutability":"view","type":"function"},{"inputs":[{"internalType":"address","name":"owner","type":"address"},{"internalType":"address","name":"operator","type":"address"}],"name":"isApprovedForAll","outputs":[{"internalType":"bool","name":"","type":"bool"}],"stateMutability":"view","type":"function"},{"inputs":[{"internalType":"address","name":"to","type":"address"},{"internalType":"string","name":"tokenURI","type":"string"},{"internalType":"enum ClueNFT.Faction","name":"faction","type":"uint8"},{"internalType":"uint256","name":"difficulty","type":"uint256"},{"internalType":"bytes32","name":"clueHash","type":"bytes32"}],"name":"mintClue","outputs":[{"internalType":"uint256","name":"","type":"uint256"}],"stateMutability":"nonpayable","type":"function"},{"inputs":[],"name":"name","outputs":[{"internalType":"string","name":"","type":"string"}],"stateMutability":"view","type":"function"},{"inputs":[],"name":"owner","outputs":[{"internalType":"address","name":"","type":"address"}],"stateMutability":"view","type":"function"},{"inputs":[{"internalType":"uint256","name":"tokenId","type":"uint256"}],"name":"ownerOf","outputs":[{"internalType":"address","name":"","type":"address"}],"stateMutability":"view","type":"function"},{"inputs":[],"name":"participationThreshold","outputs":[{"internalType":"uint256","name":"","type":"uint256"}],"stateMutability":"view","type":"function"},{"inputs":[{"internalType":"address","name":"","type":"address"},{"internalType":"uint256","name":"","type":"uint256"}],"name":"playerClues","outputs":[{"internalType":"uint256","name":"","type":"uint256"}],"stateMutability":"view","type":"function"},{"inputs":[{"internalType":"address","name":"","type":"address"}],"name":"playerToken","outputs":[{"internalType":"uint256","name":"","type":"uint256"}],"stateMutability":"view","type":"function"},{"inputs":[{"internalType":"uint256","name":"numReveals","type":"uint256"},{"internalType":"uint256","name":"durationHours","type":"uint256"}],"name":"randomReveal","outputs":[],"stateMutability":"payable","type":"function"},{"inputs":[{"internalType":"uint256","name":"requestId","type":"uint256"},{"internalType":"uint256[]","name":"randomWords","type":"uint256[]"}],"name":"rawFulfillRandomWords","outputs":[],"stateMutability":"nonpayable","type":"function"},{"inputs":[],"name":"renounceOwnership","outputs":[],"stateMutability":"nonpayable","type":"function"},{"inputs":[{"internalType":"uint256","name":"","type":"uint256"}],"name":"requestDetails","outputs":[{"internalType":"enum ClueNFT.RequestType","name":"requestType","type":"uint8"},{"internalType":"address","name":"requester","type":"address"},{"internalType":"uint256","name":"targetTokenId","type":"uint256"},{"internalType":"enum ClueNFT.Faction","name":"targetFaction","type":"uint8"},{"internalType":"enum ClueNFT.Faction","name":"thiefFaction","type":"uint8"}],"stateMutability":"view","type":"function"},{"inputs":[{"internalType":"uint256","name":"tokenId","type":"uint256"}],"name":"requestSolveClue","outputs":[{"internalType":"uint256","name":"requestId","type":"uint256"}],"stateMutability":"nonpayable","type":"function"},{"inputs":[{"internalType":"uint256","name":"","type":"uint256"}],"name":"revealBlockedUntil","outputs":[{"internalType":"uint256","name":"","type":"uint256"}],"stateMutability":"view","type":"function"},{"inputs":[{"internalType":"uint256","name":"","type":"uint256"}],"name":"revealUntil","outputs":[{"internalType":"uint256","name":"","type":"uint256"}],"stateMutability":"view","type":"function"},{"inputs":[{"internalType":"address","name":"from","type":"address"},{"internalType":"address","name":"to","type":"address"},{"internalType":"uint256","name":"tokenId","type":"uint256"}],"name":"safeTransferFrom","outputs":[],"stateMutability":"nonpayable","type":"function"},{"inputs":[{"internalType":"address","name":"from","type":"address"},{"internalType":"address","name":"to","type":"address"},{"internalType":"uint256","name":"tokenId","type":"uint256"},{"internalType":"bytes","name":"data","type":"bytes"}],"name":"safeTransferFrom","outputs":[],"stateMutability":"nonpayable","type":"function"},{"inputs":[{"internalType":"address","name":"operator","type":"address"},{"internalType":"bool","name":"approved","type":"bool"}],"name":"setApprovalForAll","outputs":[],"stateMutability":"nonpayable","type":"function"},{"inputs":[{"internalType":"uint256","name":"tokenId","type":"uint256"},{"internalType":"enum ClueNFT.Faction","name":"thiefFaction","type":"uint8"}],"name":"stealClue","outputs":[{"internalType":"uint256","name":"requestId","type":"uint256"}],"stateMutability":"payable","type":"function"},{"inputs":[{"internalType":"bytes4","name":"interfaceId","type":"bytes4"}],"name":"supportsInterface","outputs":[{"internalType":"bool","name":"","type":"bool"}],"stateMutability":"view","type":"function"},{"inputs":[],"name":"symbol","outputs":[{"internalType":"string","name":"","type":"string"}],"stateMutability":"view","type":"function"},{"inputs":[{"internalType":"uint256","name":"tokenId","type":"uint256"}],"name":"tokenURI","outputs":[{"internalType":"string","name":"","type":"string"}],"stateMutability":"view","type":"function"},{"inputs":[{"internalType":"address","name":"from","type":"address"},{"internalType":"address","name":"to","type":"address"},{"internalType":"uint256","name":"tokenId","type":"uint256"}],"name":"transferFrom","outputs":[],"stateMutability":"nonpayable","type":"function"},{"inputs":[{"internalType":"address","name":"newOwner","type":"address"}],"name":"transferOwnership","outputs":[],"stateMutability":"nonpayable","type":"function"},{"inputs":[{"internalType":"uint256","name":"newCount","type":"uint256"}],"name":"updateParticipation","outputs":[],"stateMutability":"nonpayable","type":"function"},{"inputs":[{"internalType":"enum ClueNFT.Faction","name":"faction","type":"uint8"}],"name":"withdrawFactionPot","outputs":[],"stateMutability":"nonpayable","type":"function"}],"evm":{"bytecode":{"linkReferences":{},"object":"60a0346200043d576001600160401b0390601f90601f196200371238819003848101831684018681118582101762000427578492829160405283396020938491810103126200043d57519184831683036200043d57600b546001600160a01b0395908616946200006e62000442565b92600e84526d5661756c745761727320436c756560901b818501526200009362000442565b906004825263434c554560e01b8183015284519584871162000427576000968754966001978881811c911680156200041c575b858210146200040857908187849311620003b5575b50849087831160011462000354578a9262000348575b5050600019600383901b1c191690871b1787555b8251948511620003345785548681811c9116801562000329575b838210146200031557908185879695949311620002bc575b50819385116001146200025757505085926200024b575b5050600019600383901b1c191690821b1781555b600780546001600160a01b0319808216339081179093556040519790969291167f8be0079c531659141344cd1fd0a4f28419497f9722a3daafe3b4186f6b6457e08580a360805280600855735c210ef41cd1a72de73bf76ec39637bb0d3d7bee8094600b541617600b5566010003000186a060018060501b0319600d541617600d55601755600a601855601955600a5490600160a01b600160e01b039060a01b169063ffffffff60e01b161717600a557e764c9050b7c4b0c7c9c6b0b7c9c6b0b7c9c6b0b7c9c6b0b7c9c6b0b7c9c6b0600c556132af908162000463823960805181611c8f0152f35b0151905038806200014e565b869593929193168588528388209388905b828210620002a2575050841162000288575b505050811b01815562000162565b015160001960f88460031b161c191690553880806200027a565b848401518655889790950194938401939081019062000268565b9091929394508688528288208580880160051c8201928589106200030b575b9188978a9297969594930160051c01915b828110620002fc57505062000137565b8a8155889750899101620002ec565b92508192620002db565b634e487b7160e01b88526022600452602488fd5b90607f16906200011f565b634e487b7160e01b87526041600452602487fd5b015190503880620000f1565b90848a9416918b8052868c20928c5b888282106200039e575050841162000384575b505050811b01875562000105565b015160001960f88460031b161c1916905538808062000376565b8385015186558d9790950194938401930162000363565b909150898052848a208780850160051c820192878610620003fe575b918b91869594930160051c01915b828110620003ef575050620000db565b8c81558594508b9101620003df565b92508192620003d1565b634e487b7160e01b8a52602260045260248afd5b90607f1690620000c6565b634e487b7160e01b600052604160045260246000fd5b600080fd5b60408051919082016001600160401b03811183821017620004275760405256fe6080604081815260048036101561001557600080fd5b60009260e08435811c91826301ffc9a71461251957508163049eeeca146124c357816306fdde031461243b578163081812fc1461241a578163095ea7b3146122ac5781631a79a9131461228c5781631fe543e314611c0a57816323b872dd14611be55781632b809ec414611bc55781632dd7f45a14611b9b57816330f37c7f14611b1357816334aff3b914611aa057816334e7312214611a3857816342842e0e14611a0357816346024df7146119895781634e4500aa146118785781634f37ef0d146118505781635db3040d146118285781636352211e146117f6578163685ad315146117bd57816369b579e1146115a957816370a082311461157b578163715018a6146115305781637615b75d146113ef57816379a5b02a146113cf57816384147b61146113785781638da5cb5b1461134e5781638f4d9964146112175781639131545a146111ed57816395d89b411461112a57816397d09fb914610d9057508063a22cb46514610cc0578063a43b998e14610c97578063a69d25ab14610bea578063b88d4fde14610b5f578063c2ba131614610ac8578063c87b56dd14610a69578063c8b1f25c14610a38578063d14175ee14610a16578063d981cab4146106d2578063e5a7c463146106b3578063e6c1868114610697578063e985e9c514610649578063efa954e6146103bf578063f041d5ad146102d55763f2fde38b1461021f57600080fd5b346102d15760203660031901126102d1576102386125e0565b906102416127f1565b6001600160a01b0391821692831561027f575050600780546001600160a01b031981168417909155166000805160206131fa8339815191528380a380f35b906020608492519162461bcd60e51b8352820152602660248201527f4f776e61626c653a206e6577206f776e657220697320746865207a65726f206160448201526564647265737360d01b6064820152fd5b8280fd5b509190346103bb57806003193601126103bb578235906024356001600160401b0381116103b75761030990369086016127a1565b9161031381612907565b336001600160a01b0390911603610382578352600e6020528220805490600160401b82101561036f579061034c91600182018155612721565b61035d579061035a91612f26565b80f35b634e487b7160e01b8352828452602483fd5b634e487b7160e01b845260418552602484fd5b815162461bcd60e51b8152602081870152600f60248201526e2737ba103a37b5b2b71037bbb732b960891b6044820152606490fd5b8380fd5b5080fd5b50918160031936011261064657823591602492833594808610156103b75766038d7ea4c680003403610609578184526020946012865261040660ff83868820015416613035565b61040f83612907565b6001600160a01b039790881633146105ca578697610473969784600a54600c548b85600d54928c519d8e96879586936305d3b1d360e41b855263ffffffff9261ffff848460301c16948416938d1c169160018060401b038b60a01c16918701613077565b0393165af19687156105c057889761058d575b508488526012895260ff6001878a20015416948651916104a583612611565b600183528a83013381528884019283526104c3606085019889612e92565b6104d1608085019586612e92565b898b5260168c52888b209351600381101561057b579161050491600295949360ff80198754169116178555511683612eb6565b516001820155019351838110156105695761051f9085612e9e565b51918083101561055857505061ff0082549160081b169061ff00191617905551918160008051602061321a833981519152339280a38152f35b634e487b7160e01b87526021905285fd5b634e487b7160e01b8852602184528288fd5b634e487b7160e01b8c5260218852868cfd5b9096508881813d83116105b9575b6105a58183612679565b810103126105b557519538610486565b8780fd5b503d61059b565b86513d8a823e3d90fd5b845162461bcd60e51b8152808401889052601a818401527943616e6e6f7420737465616c20796f7572206f776e20636c756560301b6044820152606490fd5b606490601886602086519362461bcd60e51b8552840152820152774d7573742070617920657861637420737465616c2066656560401b6044820152fd5b80fd5b5050346103bb57806003193601126103bb5760ff816020936106696125e0565b6106716125fb565b6001600160a01b0391821683526005875283832091168252855220549151911615158152f35b5050346103bb57816003193601126103bb576020905160198152f35b5050346103bb57816003193601126103bb576020906017549051908152f35b50906106dd3661270b565b909182151580610a0b575b156109d757600180831015806109cc575b1561099c5783600954106109655766038d7ea4c68000848102908104850361095257601884049082820180921161093f5790610734916130f2565b341061090957855b848110610747578680f35b600a54600c5490600d54908551926305d3b1d360e41b845283806107958c602096879563ffffffff9261ffff848460301c1694841693891c169160018060401b038a60a01c16918701613077565b03818d60018060a01b038096165af19283156108ff578a936108cc575b50610e108088029088820414881517156108b95786518b9392916107d582612611565b6002928383528483013381528a84019283528a606085019780895260166080870198828a528b83525220935160038110156108a45790610824929160ff80198754169116178555511683612eb6565b5187820155019151898110156108915761083e9083612e9e565b518881101561087e57815461ff00191660089190911b61ff00161790556108799190339060008051602061321a8339815191528a80a3613105565b61073c565b634e487b7160e01b8a526021895260248afd5b634e487b7160e01b8b5260218a5260248bfd5b5050634e487b7160e01b8e5260218d5260248efd5b634e487b7160e01b8b5260118a5260248bfd5b9092508181813d83116108f8575b6108e48183612679565b810103126108f4575191386107b2565b8980fd5b503d6108da565b86513d8c823e3d90fd5b815162461bcd60e51b8152602081870152601060248201526f496e73756666696369656e742066656560801b6044820152606490fd5b634e487b7160e01b885260118752602488fd5b634e487b7160e01b875260118652602487fd5b815162461bcd60e51b815260208187015260116024820152704e6f7420656e6f75676820746f6b656e7360781b6044820152606490fd5b815162461bcd60e51b8152602081870152600a602482015269312d373220686f75727360b01b6044820152606490fd5b5060488311156106f9565b5162461bcd60e51b8152602081850152600f60248201526e0625a6a40e4caeccac2d8e640dac2f608b1b6044820152606490fd5b5060058311156106e8565b5050346103bb57816003193601126103bb576020905166038d7ea4c680008152f35b509134610646576020366003190112610646578235928310156106465750610a616020926127d8565b549051908152f35b509190346103bb5760203660031901126103bb57610ac49235610a93610a8e82612cce565b6128c0565b82526006602052610aa5818320612964565b918151610ab18161265e565b52519182916020835260208301906125a0565b0390f35b509190346103bb5760203660031901126103bb5782358252601660205280822080549160ff83169260026001840154930154938251956003821015610b4c57818752600883901c6001600160a01b0316602088015283870185905260a087610b4a88610b3a6060840160ff83166126e8565b60ff608084019160081c166126e8565bf35b634e487b7160e01b815260218852602490fd5b8382346103bb5760803660031901126103bb57610b7a6125e0565b90610b836125fb565b6064359290604435906001600160401b038511610be65736602386011215610be657610bbe610be19486602461035a9836930135910161276a565b92610bd1610bcc8433612b0a565b612a31565b610bdc838383612bd2565b612e07565b612ae6565b8580fd5b82843461064657602090816003193601126106465782906001600160a01b03610c116125e0565b16815260138352818120908251808584549182815201908194845286842090845b818110610c835750505081610c48910382612679565b83519485948186019282875251809352850193925b828110610c6c57505050500390f35b835185528695509381019392810192600101610c5d565b825484529288019260019283019201610c32565b509134610646576020366003190112610646578235928310156106465750610a616020926127bf565b5090346102d157806003193601126102d157610cda6125e0565b9060243580151592838203610be6576001600160a01b031693338514610d515750610d249033865260056020528286208587526020528286209060ff801983541691151516179055565b519081527f17307eab39ab6107e8899845ad3d59bd9653f200f220920489ca2b5937696c3160203392a380f35b606490602084519162461bcd60e51b8352820152601960248201527822a9219b99189d1030b8383937bb32903a379031b0b63632b960391b6044820152fd5b84915083346102d15760a03660031901126102d157610dad6125e0565b9260249283356001600160401b0381116102d157610dce90369088016127a1565b95604435928184101561064657610de36127f1565b60095495600190818801600955865198610dfc8a61265e565b838a526001600160a01b039a818c169182156110e857610e1b8b612cce565b15610e2590612edb565b610e2e8b612cce565b15610e3890612edb565b828652600360209081528a87208054870190558b8752600281528a872080546001600160a01b031916851790559b8b80858960008051602061323a8339815191528180a4610e8592612ceb565b610e8e90612ae6565b610e978a612cce565b1561108f57610eaf908a865260068c52898620612f26565b7ff8e1a15aba9398e019f0b49df1a4fde98ee17ae345cb5f6b5e2c27f5033e8ce78a89518b8152a180845260118a528888852055829560038814611086575b6017546000199788820191821161107457918c8c9d9e610f1389948e9f9d9e966130cf565b9b8d606435809e600a8204610f27916130cf565b91885198610f348a612642565b848a52868a0191610f459083612e92565b808a0192835260608a0193845260808a01968d885260a08b019533875260c08c0199428b528c019a6084358c5252601290528d2098518955518d811015611061579160069796959391610f9e610fce96948e8c01612e9e565b5160028a0155516003890155610fc68d890193511515849060ff801983541691151516179055565b511690612eb6565b51600584015551910155835260138a5287832092835494600160401b86101561105157505050820181556110029190612721565b819291549060031b9187831b921b1916179055611021835180936126e8565b84820152827fa77d621fb0f24834c2724c3ec9489aa7abf14a8cb8999794cc14bfae9a3f9654833393a351908152f35b634e487b7160e01b825260419052fd5b50634e487b7160e01b8c5260218d52898cfd5b634e487b7160e01b8752601188528487fd5b60029650610eee565b885162461bcd60e51b81528087018c9052602e818501527f45524337323155524953746f726167653a2055524920736574206f66206e6f6e60448201526d32bc34b9ba32b73a103a37b5b2b760911b6064820152608490fd5b895162461bcd60e51b81526020818901819052818601527f4552433732313a206d696e7420746f20746865207a65726f20616464726573736044820152606490fd5b505050346103bb57816003193601126103bb5780519082600180549061114f8261292a565b808652918181169081156111c5575060011461118a575b50505061117882610ac4940383612679565b519182916020835260208301906125a0565b80955082526020948583205b8284106111b25750505082610ac4946111789282010194611166565b8054868501880152928601928101611196565b610ac497506111789450602092508693915060ff191682840152151560051b82010194611166565b50509134610646576020366003190112610646578235928310156106465750610a616020926127bf565b8285856020806003193601126102d1573383526011815281832054918435831561131c5760188104600181018091116113095766071afd498d000090808202918204036113095734106112cd57610e10908181029181830414901517156112ba57906112a57fe7374c4883fc65390f1fb7001ea89d0fe268076158dd738e0249e1b1e4428e699392426130cf565b9084865260108352818187205551908152a280f35b634e487b7160e01b855260118652602485fd5b815162461bcd60e51b81528087018490526016602482015275496e73756666696369656e7420626c6f636b2066656560501b6044820152606490fd5b634e487b7160e01b865260118752602486fd5b815162461bcd60e51b8152808701849052600c60248201526b139bc8139195081bdddb995960a21b6044820152606490fd5b505050346103bb57816003193601126103bb5760075490516001600160a01b039091168152602090f35b505050346103bb57806003193601126103bb576113936125e0565b6001600160a01b0316825260136020528082208054602435939084101561064657506020926113c191612721565b91905490519160031b1c8152f35b505050346103bb57816003193601126103bb576020906018549051908152f35b5050346102d15760203660031901126102d1578035818110156103b7576002600854146114ed57600260085561142433612849565b1561149b57611432816127bf565b549182156114665750838080938161144a81956127bf565b553382f11561145c5750600160085580f35b51903d90823e3d90fd5b606490602085519162461bcd60e51b8352820152600f60248201526e139bc8199d5b991cc81a5b881c1bdd608a1b6044820152fd5b506020608492519162461bcd60e51b8352820152602660248201527f4d757374206f776e20636c75657320746f2077697468647261772066616374696044820152651bdb881c1bdd60d21b6064820152fd5b506020606492519162461bcd60e51b8352820152601f60248201527f5265656e7472616e637947756172643a207265656e7472616e742063616c6c006044820152fd5b84346106465780600319360112610646576115496127f1565b600780546001600160a01b0319811690915581906001600160a01b03166000805160206131fa8339815191528280a380f35b505050346103bb5760203660031901126103bb576020906115a261159d6125e0565b612849565b9051908152f35b5050913461064657602091826003193601126103bb57833593848352601284526115da60ff82848620015416613035565b6115e385612907565b6001600160a01b0391908216331461177d5784956116469495600a54600c5490600d5489878951809b819682956305d3b1d360e41b845263ffffffff918c61ffff848460301c16948416938d1c169160018060401b038b60a01c16918701613077565b0393165af1948515611773578695611744575b50835161166581612611565b8681528781019133835285820190815260608201948886526080830193898552888a5260168b52878a209351600381101561173157916116b891600295949360ff80198754169116178555511683612eb6565b5160018201550192518281101561171e576116d39084612e9e565b51908082101561170b575061ff0082549160081b169061ff00191617905551918160008051602061321a833981519152339280a38152f35b634e487b7160e01b865260219052602485fd5b634e487b7160e01b875260218352602487fd5b634e487b7160e01b8b526021875260248bfd5b9094508681813d831161176c575b61175c8183612679565b81010312610be657519338611659565b503d611752565b84513d88823e3d90fd5b825162461bcd60e51b8152908101859052601a60248201527943616e6e6f7420736f6c766520796f7572206f776e20636c756560301b6044820152606490fd5b505050346103bb5760203660031901126103bb5760209181906001600160a01b036117e66125e0565b1681526011845220549051908152f35b50509134610646576020366003190112610646575061181760209235612907565b90516001600160a01b039091168152f35b5050346102d15760203660031901126102d15760209282913581526010845220549051908152f35b5050346102d15760203660031901126102d1576020928291358152600f845220549051908152f35b91929050346103b75760203660031901126103b75780846101009584835161189f81612642565b82815282602082015282858201528260608201528260808201528260a08201528260c08201520152843581526012602052208151936118dd85612642565b8154855260ff600183015416926118f8602087019485612e92565b6002830154908087019182526003840154926060880193845284015492608088019160ff85161515835260a089019360018060a01b03809660081c168552611962600660058901549860c08d01998a520154988a8c01998a5283519b518c525160208c01906126e8565b51908901525160608801525115156080870152511660a08501525160c08401525190820152f35b5050823461064657602091826003193601126103bb576119a99035613114565b9083519280840190808552835180925280868601968360051b870101940192955b8287106119d75785850386f35b9091929382806119f3600193603f198a820301865288516125a0565b96019201960195929190926119ca565b505050346103bb57610be161035a91611a1b366126b3565b91925192611a288461265e565b868452610bd1610bcc8433612b0a565b5050913461064657611a493661270b565b66038d7ea4c680009180830292830403611a8d57601890049160018301809311611a7a576020846115a285856130f2565b634e487b7160e01b815260118552602490fd5b634e487b7160e01b835260118552602483fd5b505090346102d15760203660031901126102d1578135611abe6127f1565b8060195560185410611ace578280f35b6017549160018301809311611b0057508160209160008051602061325a8339815191529360175551908152a138808280f35b634e487b7160e01b845260119052602483fd5b9050346103b75760203660031901126103b75782610100948335815260126020522080549360ff60018301541693600283015460038401549184015492611b6d60066005870154960154978251998a5260208a01906126e8565b870152606086015260ff81161515608086015260081c6001600160a01b031660a085015260c0840152820152f35b50509134610646576020366003190112610646578235928310156106465750610a616020926127d8565b505050346103bb57816003193601126103bb576020906017549051908152f35b84346106465761035a611bf7366126b3565b91611c05610bcc8433612b0a565b612bd2565b828585346103bb57806003193601126103bb576024928335908035906001600160401b0383116122885736602384011215612288578281013590611c4d8261269c565b96611c5a86519889612679565b82885260209485890182819560051b830101913683116108f45783889101915b83831061227857506001600160a01b039250507f0000000000000000000000000000000000000000000000000000000000000000821690503381900361225b575084885260168652868820875194611cd186612611565b81549160ff83166003811015612249578752838988019360081c16835260019b60028d830154928c8a019384520154926060890191611d1360ff861684612e92565b611d2760ff60808c019660081c1686612e92565b51156122375751978051600381101561222557611f4c5750505050511692838852601386528688209087518083898295549384815201908c52898c20928d8d5b8c838210611f365750505050611d7f92500383612679565b815115611f00578151611d91916130af565b8151811015611eee5790869160051b0101519182885260128652868820918183018054611dc060ff8216613035565b60ff19169055611df460ff8b611deb611de260028801546003890154906130f2565b601754906130f2565b950154166127d8565b611dff8482546130cf565b905588895b838110611ecb575060328106159081611ec1575b50611e56575b5050938697949386936016936000805160206131da833981519152848b9860029b51908152a35b845252812091818355820155015580f35b601754918a8301809311611eb057505093600296936016936000805160206131da83398151915288809560008051602061325a8339815191528d9e9b8b8f9c6017558b51908152a19550989b505093509396819550611e1e565b634e487b7160e01b8a526011905288fd5b905015158b611e18565b90611ee3611ee991611edc846127d8565b54906130cf565b91613105565b611e04565b634e487b7160e01b8952603284528289fd5b875162461bcd60e51b8152808501889052601181850152704e6f20636c75657320746f20736f6c766560781b6044820152606490fd5b8654855295820195889550909301928101611d67565b809d9b9a999d9894919692979398516003811015612213578c036120c05750849051169551945196828810156120ae575192828410156120ae576064601991061060001461202f57611faa6005611fa2896127d8565b5404976127d8565b9081549288840393841161201e575050937f3e08524a3ca89a9869fe5c88a516bb9abf6da6e25a77584b709905dad369e3bb888c9d958c6120068f9c999b60029f9e9c819960169d99611ffd92556127d8565b921c82546130cf565b905561201184612907565b16948951908152a4611e45565b634e487b7160e01b8d52601190528bfd5b9150919294612042909a9697989a6127bf565b9081549266038d7ea4c68000840180941161209d57505093601693899a97938a979360029a975561207283612907565b16917f0460a40af6a0b4382c4115e6c523631d74e3541c509050116cfa2f8d20434c078880a4611e45565b634e487b7160e01b8b526011905289fd5b50634e487b7160e01b8b52602182528afd5b939c97505093509150516003811015612201576002146120ef575b505050849550916016859260029594611e45565b6009979697549081156121cd5761210a828a9b9a999a6130af565b995b612169575b50505082600295949287987f53950926db88885e84e7e32de4e3b23c573cc05634c6a42381bad5a3be2dc0ed899661214c60169651426130cf565b838952600f825280888a20558751908152a29294958194506120db565b6121758a999899612cce565b1580156121ba575b156121b257888a01809a116121a05761219a828a9b9a999a6130af565b9961210c565b634e487b7160e01b8852601190528187fd5b979697612111565b508988526010865286882054421061217d565b865162461bcd60e51b8152908101869052600f818401526e139bc81d1bdad95b9cc8195e1a5cdd608a1b6044820152606490fd5b50634e487b7160e01b88526021905286fd5b634e487b7160e01b8e5260218552838efd5b634e487b7160e01b8e5260218952878efd5b634e487b7160e01b8d5260328852868dfd5b634e487b7160e01b8c5260218752858cfd5b875163073e64fd60e21b8152338186015280840191909152604490fd5b8235815291810191889101611c7a565b8480fd5b505050346103bb57816003193601126103bb576020906019549051908152f35b5050346102d157816003193601126102d1576122c66125e0565b6024359290916001600160a01b03919082806122e187612907565b169416938085146123cd578033149081156123ae575b501561234657848652602052842080546001600160a01b0319168317905561231e83612907565b167f8c5be1e5ebec7d5bd14f71427d1e84f3dd0314c0f7b2291e5b200ac8c7c3b9258480a480f35b6020608492519162461bcd60e51b8352820152603d60248201527f4552433732313a20617070726f76652063616c6c6572206973206e6f7420746f60448201527f6b656e206f776e6572206f7220617070726f76656420666f7220616c6c0000006064820152fd5b90508652600560205281862033875260205260ff8287205416386122f7565b506020608492519162461bcd60e51b8352820152602160248201527f4552433732313a20617070726f76616c20746f2063757272656e74206f776e656044820152603960f91b6064820152fd5b50509134610646576020366003190112610646575061181760209235612a0a565b505050346103bb57816003193601126103bb5780519082805461245d8161292a565b808552906001908181169081156111c557506001146124885750505061117882610ac4940383612679565b94508180526020948583205b8284106124b05750505082610ac4946111789282010194611166565b8054868501880152928601928101612494565b828585346103bb5760203660031901126103bb57601883350491600183018093116125065766071afd498d00009280840293840403612506576020838351908152f35b634e487b7160e01b815260118452602490fd5b93505050346102d15760203660031901126102d1573563ffffffff60e01b81168091036102d15760209250632483248360e11b811490811561255d575b5015158152f35b6380ac58cd60e01b81149150811561258f575b811561257e575b5038612556565b6301ffc9a760e01b14905038612577565b635b5e139f60e01b81149150612570565b919082519283825260005b8481106125cc575050826000602080949584010152601f8019910116010190565b6020818301810151848301820152016125ab565b600435906001600160a01b03821682036125f657565b600080fd5b602435906001600160a01b03821682036125f657565b60a081019081106001600160401b0382111761262c57604052565b634e487b7160e01b600052604160045260246000fd5b61010081019081106001600160401b0382111761262c57604052565b602081019081106001600160401b0382111761262c57604052565b601f909101601f19168101906001600160401b0382119082101761262c57604052565b6001600160401b03811161262c5760051b60200190565b60609060031901126125f6576001600160a01b039060043582811681036125f6579160243590811681036125f6579060443590565b9060048210156126f55752565b634e487b7160e01b600052602160045260246000fd5b60409060031901126125f6576004359060243590565b80548210156127395760005260206000200190600090565b634e487b7160e01b600052603260045260246000fd5b6001600160401b03811161262c57601f01601f191660200190565b9291926127768261274f565b916127846040519384612679565b8294818452818301116125f6578281602093846000960137010152565b9080601f830112156125f6578160206127bc9335910161276a565b90565b60048110156126f5576000526015602052604060002090565b60048110156126f5576000526014602052604060002090565b6007546001600160a01b0316330361280557565b606460405162461bcd60e51b815260206004820152602060248201527f4f776e61626c653a2063616c6c6572206973206e6f7420746865206f776e65726044820152fd5b6001600160a01b0316801561286957600052600360205260406000205490565b60405162461bcd60e51b815260206004820152602960248201527f4552433732313a2061646472657373207a65726f206973206e6f7420612076616044820152683634b21037bbb732b960b91b6064820152608490fd5b156128c757565b60405162461bcd60e51b8152602060048201526018602482015277115490cdcc8c4e881a5b9d985b1a59081d1bdad95b88125160421b6044820152606490fd5b6000908152600260205260409020546001600160a01b03166127bc8115156128c0565b90600182811c9216801561295a575b602083101461294457565b634e487b7160e01b600052602260045260246000fd5b91607f1691612939565b90604051918260008254926129788461292a565b9081845260019485811690816000146129e757506001146129a4575b50506129a292500383612679565b565b9093915060005260209081600020936000915b8183106129cf5750506129a293508201013880612994565b855488840185015294850194879450918301916129b7565b9150506129a294506020925060ff191682840152151560051b8201013880612994565b612a16610a8e82612cce565b6000908152600460205260409020546001600160a01b031690565b15612a3857565b60405162461bcd60e51b815260206004820152602d60248201527f4552433732313a2063616c6c6572206973206e6f7420746f6b656e206f776e6560448201526c1c881bdc88185c1c1c9bdd9959609a1b6064820152608490fd5b60809060208152603260208201527f4552433732313a207472616e7366657220746f206e6f6e20455243373231526560408201527131b2b4bb32b91034b6b83632b6b2b73a32b960711b60608201520190565b15612aed57565b60405162461bcd60e51b815280612b0660048201612a93565b0390fd5b906001600160a01b038080612b1e84612907565b16931691838314938415612b51575b508315612b3b575b50505090565b612b4791929350612a0a565b1614388080612b35565b909350600052600560205260406000208260005260205260ff604060002054169238612b2d565b15612b7f57565b60405162461bcd60e51b815260206004820152602560248201527f4552433732313a207472616e736665722066726f6d20696e636f72726563742060448201526437bbb732b960d91b6064820152608490fd5b90612bfa91612be084612907565b6001600160a01b0393918416928492909183168414612b78565b16918215612c7d5781612c1791612c1086612907565b1614612b78565b60008051602061323a833981519152600084815260046020526040812060018060a01b03199081815416905583825260036020526040822060001981540190558482526040822060018154019055858252600260205284604083209182541617905580a4565b60405162461bcd60e51b8152602060048201526024808201527f4552433732313a207472616e7366657220746f20746865207a65726f206164646044820152637265737360e01b6064820152608490fd5b6000908152600260205260409020546001600160a01b0316151590565b9192600092909190803b15612dfd57612d39946040518092630a85bd0160e11b9485835233600484015287602484015260448301526080606483015281878160209a8b9660848301906125a0565b03926001600160a01b03165af1849181612dbd575b50612dac575050503d600014612da4573d612d688161274f565b90612d766040519283612679565b81528091833d92013e5b80519182612da15760405162461bcd60e51b815280612b0660048201612a93565b01fd5b506060612d80565b6001600160e01b0319161492509050565b9091508581813d8311612df6575b612dd58183612679565b8101031261228857516001600160e01b031981168103612288579038612d4e565b503d612dcb565b5050915050600190565b9293600093909291803b15612e8757948491612e619660405180948193630a85bd0160e11b9788845233600485015260018060a01b0380921660248501526044840152608060648401528260209b8c9760848301906125a0565b0393165af1849181612dbd5750612dac575050503d600014612da4573d612d688161274f565b505050915050600190565b60048210156126f55752565b9060048110156126f55760ff80198354169116179055565b8054610100600160a81b03191660089290921b610100600160a81b0316919091179055565b15612ee257565b60405162461bcd60e51b815260206004820152601c60248201527b115490cdcc8c4e881d1bdad95b88185b1c9958591e481b5a5b9d195960221b6044820152606490fd5b81519192916001600160401b03811161262c57612f43825461292a565b601f8111612fed575b50602080601f8311600114612f89575081929394600092612f7e575b50508160011b916000199060031b1c1916179055565b015190503880612f68565b90601f198316958460005282600020926000905b888210612fd557505083600195969710612fbc575b505050811b019055565b015160001960f88460031b161c19169055388080612fb2565b80600185968294968601518155019501930190612f9d565b600083815260208120601f840160051c8101926020851061302b575b601f0160051c01915b828110613020575050612f4c565b818155600101613012565b9092508290613009565b1561303c57565b60405162461bcd60e51b815260206004820152601360248201527210db1d5948185b1c9958591e481cdbdb1d9959606a1b6044820152606490fd5b9081526001600160401b03909116602082015261ffff909116604082015263ffffffff91821660608201529116608082015260a00190565b81156130b9570690565b634e487b7160e01b600052601260045260246000fd5b919082018092116130dc57565b634e487b7160e01b600052601160045260246000fd5b818102929181159184041417156130dc57565b60001981146130dc5760010190565b600090808252602090600f82526040832054421080156131bf575b80156131ab575b15613197578252600e8152604082208054916131518361269c565b9361315f6040519586612679565b8385529182528082208185015b84841061317b57505050505090565b600183819261318985612964565b81520192019301929061316c565b5050604051906131a68261265e565b815290565b508083526010825242604084205410613136565b506001600160a01b036131d182612907565b16331461312f56fe21d16584f0155913109bec6acdf68833081a77bc84f56dd288e258ef6b4b27018be0079c531659141344cd1fd0a4f28419497f9722a3daafe3b4186f6b6457e028f521cf7abd0044cba5bb040c5217ff69a4e5865f5262905018698e68fe7d00ddf252ad1be2c89b69c2b068fc378daa952ba7f163c4a11628f55a4df523b3ef81d9258b132b8ca37e55e5a29d721b84164640cb0ed58cfd430b3f85b8eced89a2646970667358221220ebc29e9d6fdf5da8053505944f560b533aa4d91ea136a04fa5688479b022e33864736f6c63430008130033","opcodes":"PUSH1 0xA0 CALLVALUE PUSH3 0x43D JUMPI PUSH1 0x1 PUSH1 0x1 PUSH1 0x40 SHL SUB SWAP1 PUSH1 0x1F SWAP1 PUSH1 0x1F NOT PUSH3 0x3712 CODESIZE DUP2 SWAP1 SUB DUP5 DUP2 ADD DUP4 AND DUP5 ADD DUP7 DUP2 GT DUP6 DUP3 LT OR PUSH3 0x427 JUMPI DUP5 SWAP3 DUP3 SWAP2 PUSH1 0x40 MSTORE DUP4 CODECOPY PUSH1 0x20 SWAP4 DUP5 SWAP2 DUP2 ADD SUB SLT PUSH3 0x43D JUMPI MLOAD SWAP2 DUP5 DUP4 AND DUP4 SUB PUSH3 0x43D JUMPI PUSH1 0xB SLOAD PUSH1 0x1 PUSH1 0x1 PUSH1 0xA0 SHL SUB SWAP6 SWAP1 DUP7 AND SWAP5 PUSH3 0x6E PUSH3 0x442 JUMP JUMPDEST SWAP3 PUSH1 0xE DUP5 MSTORE PUSH14 0x5661756C745761727320436C7565 PUSH1 0x90 SHL DUP2 DUP6 ADD MSTORE PUSH3 0x93 PUSH3 0x442 JUMP JUMPDEST SWAP1 PUSH1 0x4 DUP3 MSTORE PUSH4 0x434C5545 PUSH1 0xE0 SHL DUP2 DUP4 ADD MSTORE DUP5 MLOAD SWAP6 DUP5 DUP8 GT PUSH3 0x427 JUMPI PUSH1 0x0 SWAP7 DUP8 SLOAD SWAP7 PUSH1 0x1 SWAP8 DUP9 DUP2 DUP2 SHR SWAP2 AND DUP1 ISZERO PUSH3 0x41C JUMPI JUMPDEST DUP6 DUP3 LT EQ PUSH3 0x408 JUMPI SWAP1 DUP2 DUP8 DUP5 SWAP4 GT PUSH3 0x3B5 JUMPI JUMPDEST POP DUP5 SWAP1 DUP8 DUP4 GT PUSH1 0x1 EQ PUSH3 0x354 JUMPI DUP11 SWAP3 PUSH3 0x348 JUMPI JUMPDEST POP POP PUSH1 0x0 NOT PUSH1 0x3 DUP4 SWAP1 SHL SHR NOT AND SWAP1 DUP8 SHL OR DUP8 SSTORE JUMPDEST DUP3 MLOAD SWAP5 DUP6 GT PUSH3 0x334 JUMPI DUP6 SLOAD DUP7 DUP2 DUP2 SHR SWAP2 AND DUP1 ISZERO PUSH3 0x329 JUMPI JUMPDEST DUP4 DUP3 LT EQ PUSH3 0x315 JUMPI SWAP1 DUP2 DUP6 DUP8 SWAP7 SWAP6 SWAP5 SWAP4 GT PUSH3 0x2BC JUMPI JUMPDEST POP DUP2 SWAP4 DUP6 GT PUSH1 0x1 EQ PUSH3 0x257 JUMPI POP POP DUP6 SWAP3 PUSH3 0x24B JUMPI JUMPDEST POP POP PUSH1 0x0 NOT PUSH1 0x3 DUP4 SWAP1 SHL SHR NOT AND SWAP1 DUP3 SHL OR DUP2 SSTORE JUMPDEST PUSH1 0x7 DUP1 SLOAD PUSH1 0x1 PUSH1 0x1 PUSH1 0xA0 SHL SUB NOT DUP1 DUP3 AND CALLER SWAP1 DUP2 OR SWAP1 SWAP4 SSTORE PUSH1 0x40 MLOAD SWAP8 SWAP1 SWAP7 SWAP3 SWAP2 AND PUSH32 0x8BE0079C531659141344CD1FD0A4F28419497F9722A3DAAFE3B4186F6B6457E0 DUP6 DUP1 LOG3 PUSH1 0x80 MSTORE DUP1 PUSH1 0x8 SSTORE PUSH20 0x5C210EF41CD1A72DE73BF76EC39637BB0D3D7BEE DUP1 SWAP5 PUSH1 0xB SLOAD AND OR PUSH1 0xB SSTORE PUSH7 0x10003000186A0 PUSH1 0x1 DUP1 PUSH1 0x50 SHL SUB NOT PUSH1 0xD SLOAD AND OR PUSH1 0xD SSTORE PUSH1 0x17 SSTORE PUSH1 0xA PUSH1 0x18 SSTORE PUSH1 0x19 SSTORE PUSH1 0xA SLOAD SWAP1 PUSH1 0x1 PUSH1 0xA0 SHL PUSH1 0x1 PUSH1 0xE0 SHL SUB SWAP1 PUSH1 0xA0 SHL AND SWAP1 PUSH4 0xFFFFFFFF PUSH1 0xE0 SHL AND OR OR PUSH1 0xA SSTORE PUSH31 0x764C9050B7C4B0C7C9C6B0B7C9C6B0B7C9C6B0B7C9C6B0B7C9C6B0B7C9C6B0 PUSH1 0xC SSTORE PUSH2 0x32AF SWAP1 DUP2 PUSH3 0x463 DUP3 CODECOPY PUSH1 0x80 MLOAD DUP2 PUSH2 0x1C8F ADD MSTORE RETURN JUMPDEST ADD MLOAD SWAP1 POP CODESIZE DUP1 PUSH3 0x14E JUMP JUMPDEST DUP7 SWAP6 SWAP4 SWAP3 SWAP2 SWAP4 AND DUP6 DUP9 MSTORE DUP4 DUP9 KECCAK256 SWAP4 DUP9 SWAP1 JUMPDEST DUP3 DUP3 LT PUSH3 0x2A2 JUMPI POP POP DUP5 GT PUSH3 0x288 JUMPI JUMPDEST POP POP POP DUP2 SHL ADD DUP2 SSTORE PUSH3 0x162 JUMP JUMPDEST ADD MLOAD PUSH1 0x0 NOT PUSH1 0xF8 DUP5 PUSH1 0x3 SHL AND SHR NOT AND SWAP1 SSTORE CODESIZE DUP1 DUP1 PUSH3 0x27A JUMP JUMPDEST DUP5 DUP5 ADD MLOAD DUP7 SSTORE DUP9 SWAP8 SWAP1 SWAP6 ADD SWAP5 SWAP4 DUP5 ADD SWAP4 SWAP1 DUP2 ADD SWAP1 PUSH3 0x268 JUMP JUMPDEST SWAP1 SWAP2 SWAP3 SWAP4 SWAP5 POP DUP7 DUP9 MSTORE DUP3 DUP9 KECCAK256 DUP6 DUP1 DUP9 ADD PUSH1 0x5 SHR DUP3 ADD SWAP3 DUP6 DUP10 LT PUSH3 0x30B JUMPI JUMPDEST SWAP2 DUP9 SWAP8 DUP11 SWAP3 SWAP8 SWAP7 SWAP6 SWAP5 SWAP4 ADD PUSH1 0x5 SHR ADD SWAP2 JUMPDEST DUP3 DUP2 LT PUSH3 0x2FC JUMPI POP POP PUSH3 0x137 JUMP JUMPDEST DUP11 DUP2 SSTORE DUP9 SWAP8 POP DUP10 SWAP2 ADD PUSH3 0x2EC JUMP JUMPDEST SWAP3 POP DUP2 SWAP3 PUSH3 0x2DB JUMP JUMPDEST PUSH4 0x4E487B71 PUSH1 0xE0 SHL DUP9 MSTORE PUSH1 0x22 PUSH1 0x4 MSTORE PUSH1 0x24 DUP9 REVERT JUMPDEST SWAP1 PUSH1 0x7F AND SWAP1 PUSH3 0x11F JUMP JUMPDEST PUSH4 0x4E487B71 PUSH1 0xE0 SHL DUP8 MSTORE PUSH1 0x41 PUSH1 0x4 MSTORE PUSH1 0x24 DUP8 REVERT JUMPDEST ADD MLOAD SWAP1 POP CODESIZE DUP1 PUSH3 0xF1 JUMP JUMPDEST SWAP1 DUP5 DUP11 SWAP5 AND SWAP2 DUP12 DUP1 MSTORE DUP7 DUP13 KECCAK256 SWAP3 DUP13 JUMPDEST DUP9 DUP3 DUP3 LT PUSH3 0x39E JUMPI POP POP DUP5 GT PUSH3 0x384 JUMPI JUMPDEST POP POP POP DUP2 SHL ADD DUP8 SSTORE PUSH3 0x105 JUMP JUMPDEST ADD MLOAD PUSH1 0x0 NOT PUSH1 0xF8 DUP5 PUSH1 0x3 SHL AND SHR NOT AND SWAP1 SSTORE CODESIZE DUP1 DUP1 PUSH3 0x376 JUMP JUMPDEST DUP4 DUP6 ADD MLOAD DUP7 SSTORE DUP14 SWAP8 SWAP1 SWAP6 ADD SWAP5 SWAP4 DUP5 ADD SWAP4 ADD PUSH3 0x363 JUMP JUMPDEST SWAP1 SWAP2 POP DUP10 DUP1 MSTORE DUP5 DUP11 KECCAK256 DUP8 DUP1 DUP6 ADD PUSH1 0x5 SHR DUP3 ADD SWAP3 DUP8 DUP7 LT PUSH3 0x3FE JUMPI JUMPDEST SWAP2 DUP12 SWAP2 DUP7 SWAP6 SWAP5 SWAP4 ADD PUSH1 0x5 SHR ADD SWAP2 JUMPDEST DUP3 DUP2 LT PUSH3 0x3EF JUMPI POP POP PUSH3 0xDB JUMP JUMPDEST DUP13 DUP2 SSTORE DUP6 SWAP5 POP DUP12 SWAP2 ADD PUSH3 0x3DF JUMP JUMPDEST SWAP3 POP DUP2 SWAP3 PUSH3 0x3D1 JUMP JUMPDEST PUSH4 0x4E487B71 PUSH1 0xE0 SHL DUP11 MSTORE PUSH1 0x22 PUSH1 0x4 MSTORE PUSH1 0x24 DUP11 REVERT JUMPDEST SWAP1 PUSH1 0x7F AND SWAP1 PUSH3 0xC6 JUMP JUMPDEST PUSH4 0x4E487B71 PUSH1 0xE0 SHL PUSH1 0x0 MSTORE PUSH1 0x41 PUSH1 0x4 MSTORE PUSH1 0x24 PUSH1 0x0 REVERT JUMPDEST PUSH1 0x0 DUP1 REVERT JUMPDEST PUSH1 0x40 DUP1 MLOAD SWAP2 SWAP1 DUP3 ADD PUSH1 0x1 PUSH1 0x1 PUSH1 0x40 SHL SUB DUP2 GT DUP4 DUP3 LT OR PUSH3 0x427 JUMPI PUSH1 0x40 MSTORE JUMP INVALID PUSH1 0x80 PUSH1 0x40 DUP2 DUP2 MSTORE PUSH1 0x4 DUP1 CALLDATASIZE LT ISZERO PUSH2 0x15 JUMPI PUSH1 0x0 DUP1 REVERT JUMPDEST PUSH1 0x0 SWAP3 PUSH1 0xE0 DUP5 CALLDATALOAD DUP2 SHR SWAP2 DUP3 PUSH4 0x1FFC9A7 EQ PUSH2 0x2519 JUMPI POP DUP2 PUSH4 0x49EEECA EQ PUSH2 0x24C3 JUMPI DUP2 PUSH4 0x6FDDE03 EQ PUSH2 0x243B JUMPI DUP2 PUSH4 0x81812FC EQ PUSH2 0x241A JUMPI DUP2 PUSH4 0x95EA7B3 EQ PUSH2 0x22AC JUMPI DUP2 PUSH4 0x1A79A913 EQ PUSH2 0x228C JUMPI DUP2 PUSH4 0x1FE543E3 EQ PUSH2 0x1C0A JUMPI DUP2 PUSH4 0x23B872DD EQ PUSH2 0x1BE5 JUMPI DUP2 PUSH4 0x2B809EC4 EQ PUSH2 0x1BC5 JUMPI DUP2 PUSH4 0x2DD7F45A EQ PUSH2 0x1B9B JUMPI DUP2 PUSH4 0x30F37C7F EQ PUSH2 0x1B13 JUMPI DUP2 PUSH4 0x34AFF3B9 EQ PUSH2 0x1AA0 JUMPI DUP2 PUSH4 0x34E73122 EQ PUSH2 0x1A38 JUMPI DUP2 PUSH4 0x42842E0E EQ PUSH2 0x1A03 JUMPI DUP2 PUSH4 0x46024DF7 EQ PUSH2 0x1989 JUMPI DUP2 PUSH4 0x4E4500AA EQ PUSH2 0x1878 JUMPI DUP2 PUSH4 0x4F37EF0D EQ PUSH2 0x1850 JUMPI DUP2 PUSH4 0x5DB3040D EQ PUSH2 0x1828 JUMPI DUP2 PUSH4 0x6352211E EQ PUSH2 0x17F6 JUMPI DUP2 PUSH4 0x685AD315 EQ PUSH2 0x17BD JUMPI DUP2 PUSH4 0x69B579E1 EQ PUSH2 0x15A9 JUMPI DUP2 PUSH4 0x70A08231 EQ PUSH2 0x157B JUMPI DUP2 PUSH4 0x715018A6 EQ PUSH2 0x1530 JUMPI DUP2 PUSH4 0x7615B75D EQ PUSH2 0x13EF JUMPI DUP2 PUSH4 0x79A5B02A EQ PUSH2 0x13CF JUMPI DUP2 PUSH4 0x84147B61 EQ PUSH2 0x1378 JUMPI DUP2 PUSH4 0x8DA5CB5B EQ PUSH2 0x134E JUMPI DUP2 PUSH4 0x8F4D9964 EQ PUSH2 0x1217 JUMPI DUP2 PUSH4 0x9131545A EQ PUSH2 0x11ED JUMPI DUP2 PUSH4 0x95D89B41 EQ PUSH2 0x112A JUMPI DUP2 PUSH4 0x97D09FB9 EQ PUSH2 0xD90 JUMPI POP DUP1 PUSH4 0xA22CB465 EQ PUSH2 0xCC0 JUMPI DUP1 PUSH4 0xA43B998E EQ PUSH2 0xC97 JUMPI DUP1 PUSH4 0xA69D25AB EQ PUSH2 0xBEA JUMPI DUP1 PUSH4 0xB88D4FDE EQ PUSH2 0xB5F JUMPI DUP1 PUSH4 0xC2BA1316 EQ PUSH2 0xAC8 JUMPI DUP1 PUSH4 0xC87B56DD EQ PUSH2 0xA69 JUMPI DUP1 PUSH4 0xC8B1F25C EQ PUSH2 0xA38 JUMPI DUP1 PUSH4 0xD14175EE EQ PUSH2 0xA16 JUMPI DUP1 PUSH4 0xD981CAB4 EQ PUSH2 0x6D2 JUMPI DUP1 PUSH4 0xE5A7C463 EQ PUSH2 0x6B3 JUMPI DUP1 PUSH4 0xE6C18681 EQ PUSH2 0x697 JUMPI DUP1 PUSH4 0xE985E9C5 EQ PUSH2 0x649 JUMPI DUP1 PUSH4 0xEFA954E6 EQ PUSH2 0x3BF JUMPI DUP1 PUSH4 0xF041D5AD EQ PUSH2 0x2D5 JUMPI PUSH4 0xF2FDE38B EQ PUSH2 0x21F JUMPI PUSH1 0x0 DUP1 REVERT JUMPDEST CALLVALUE PUSH2 0x2D1 JUMPI PUSH1 0x20 CALLDATASIZE PUSH1 0x3 NOT ADD SLT PUSH2 0x2D1 JUMPI PUSH2 0x238 PUSH2 0x25E0 JUMP JUMPDEST SWAP1 PUSH2 0x241 PUSH2 0x27F1 JUMP JUMPDEST PUSH1 0x1 PUSH1 0x1 PUSH1 0xA0 SHL SUB SWAP2 DUP3 AND SWAP3 DUP4 ISZERO PUSH2 0x27F JUMPI POP POP PUSH1 0x7 DUP1 SLOAD PUSH1 0x1 PUSH1 0x1 PUSH1 0xA0 SHL SUB NOT DUP2 AND DUP5 OR SWAP1 SWAP2 SSTORE AND PUSH1 0x0 DUP1 MLOAD PUSH1 0x20 PUSH2 0x31FA DUP4 CODECOPY DUP2 MLOAD SWAP2 MSTORE DUP4 DUP1 LOG3 DUP1 RETURN JUMPDEST SWAP1 PUSH1 0x20 PUSH1 0x84 SWAP3 MLOAD SWAP2 PUSH3 0x461BCD PUSH1 0xE5 SHL DUP4 MSTORE DUP3 ADD MSTORE PUSH1 0x26 PUSH1 0x24 DUP3 ADD MSTORE PUSH32 0x4F776E61626C653A206E6577206F776E657220697320746865207A65726F2061 PUSH1 0x44 DUP3 ADD MSTORE PUSH6 0x646472657373 PUSH1 0xD0 SHL PUSH1 0x64 DUP3 ADD MSTORE REVERT JUMPDEST DUP3 DUP1 REVERT JUMPDEST POP SWAP2 SWAP1 CALLVALUE PUSH2 0x3BB JUMPI DUP1 PUSH1 0x3 NOT CALLDATASIZE ADD SLT PUSH2 0x3BB JUMPI DUP3 CALLDATALOAD SWAP1 PUSH1 0x24 CALLDATALOAD PUSH1 0x1 PUSH1 0x1 PUSH1 0x40 SHL SUB DUP2 GT PUSH2 0x3B7 JUMPI PUSH2 0x309 SWAP1 CALLDATASIZE SWAP1 DUP7 ADD PUSH2 0x27A1 JUMP JUMPDEST SWAP2 PUSH2 0x313 DUP2 PUSH2 0x2907 JUMP JUMPDEST CALLER PUSH1 0x1 PUSH1 0x1 PUSH1 0xA0 SHL SUB SWAP1 SWAP2 AND SUB PUSH2 0x382 JUMPI DUP4 MSTORE PUSH1 0xE PUSH1 0x20 MSTORE DUP3 KECCAK256 DUP1 SLOAD SWAP1 PUSH1 0x1 PUSH1 0x40 SHL DUP3 LT ISZERO PUSH2 0x36F JUMPI SWAP1 PUSH2 0x34C SWAP2 PUSH1 0x1 DUP3 ADD DUP2 SSTORE PUSH2 0x2721 JUMP JUMPDEST PUSH2 0x35D JUMPI SWAP1 PUSH2 0x35A SWAP2 PUSH2 0x2F26 JUMP JUMPDEST DUP1 RETURN JUMPDEST PUSH4 0x4E487B71 PUSH1 0xE0 SHL DUP4 MSTORE DUP3 DUP5 MSTORE PUSH1 0x24 DUP4 REVERT JUMPDEST PUSH4 0x4E487B71 PUSH1 0xE0 SHL DUP5 MSTORE PUSH1 0x41 DUP6 MSTORE PUSH1 0x24 DUP5 REVERT JUMPDEST DUP2 MLOAD PUSH3 0x461BCD PUSH1 0xE5 SHL DUP2 MSTORE PUSH1 0x20 DUP2 DUP8 ADD MSTORE PUSH1 0xF PUSH1 0x24 DUP3 ADD MSTORE PUSH15 0x2737BA103A37B5B2B71037BBB732B9 PUSH1 0x89 SHL PUSH1 0x44 DUP3 ADD MSTORE PUSH1 0x64 SWAP1 REVERT JUMPDEST DUP4 DUP1 REVERT JUMPDEST POP DUP1 REVERT JUMPDEST POP SWAP2 DUP2 PUSH1 0x3 NOT CALLDATASIZE ADD SLT PUSH2 0x646 JUMPI DUP3 CALLDATALOAD SWAP2 PUSH1 0x24 SWAP3 DUP4 CALLDATALOAD SWAP5 DUP1 DUP7 LT ISZERO PUSH2 0x3B7 JUMPI PUSH7 0x38D7EA4C68000 CALLVALUE SUB PUSH2 0x609 JUMPI DUP2 DUP5 MSTORE PUSH1 0x20 SWAP5 PUSH1 0x12 DUP7 MSTORE PUSH2 0x406 PUSH1 0xFF DUP4 DUP7 DUP9 KECCAK256 ADD SLOAD AND PUSH2 0x3035 JUMP JUMPDEST PUSH2 0x40F DUP4 PUSH2 0x2907 JUMP JUMPDEST PUSH1 0x1 PUSH1 0x1 PUSH1 0xA0 SHL SUB SWAP8 SWAP1 DUP9 AND CALLER EQ PUSH2 0x5CA JUMPI DUP7 SWAP8 PUSH2 0x473 SWAP7 SWAP8 DUP5 PUSH1 0xA SLOAD PUSH1 0xC SLOAD DUP12 DUP6 PUSH1 0xD SLOAD SWAP3 DUP13 MLOAD SWAP14 DUP15 SWAP7 DUP8 SWAP6 DUP7 SWAP4 PUSH4 0x5D3B1D3 PUSH1 0xE4 SHL DUP6 MSTORE PUSH4 0xFFFFFFFF SWAP3 PUSH2 0xFFFF DUP5 DUP5 PUSH1 0x30 SHR AND SWAP5 DUP5 AND SWAP4 DUP14 SHR AND SWAP2 PUSH1 0x1 DUP1 PUSH1 0x40 SHL SUB DUP12 PUSH1 0xA0 SHR AND SWAP2 DUP8 ADD PUSH2 0x3077 JUMP JUMPDEST SUB SWAP4 AND GAS CALL SWAP7 DUP8 ISZERO PUSH2 0x5C0 JUMPI DUP9 SWAP8 PUSH2 0x58D JUMPI JUMPDEST POP DUP5 DUP9 MSTORE PUSH1 0x12 DUP10 MSTORE PUSH1 0xFF PUSH1 0x1 DUP8 DUP11 KECCAK256 ADD SLOAD AND SWAP5 DUP7 MLOAD SWAP2 PUSH2 0x4A5 DUP4 PUSH2 0x2611 JUMP JUMPDEST PUSH1 0x1 DUP4 MSTORE DUP11 DUP4 ADD CALLER DUP2 MSTORE DUP9 DUP5 ADD SWAP3 DUP4 MSTORE PUSH2 0x4C3 PUSH1 0x60 DUP6 ADD SWAP9 DUP10 PUSH2 0x2E92 JUMP JUMPDEST PUSH2 0x4D1 PUSH1 0x80 DUP6 ADD SWAP6 DUP7 PUSH2 0x2E92 JUMP JUMPDEST DUP10 DUP12 MSTORE PUSH1 0x16 DUP13 MSTORE DUP9 DUP12 KECCAK256 SWAP4 MLOAD PUSH1 0x3 DUP2 LT ISZERO PUSH2 0x57B JUMPI SWAP2 PUSH2 0x504 SWAP2 PUSH1 0x2 SWAP6 SWAP5 SWAP4 PUSH1 0xFF DUP1 NOT DUP8 SLOAD AND SWAP2 AND OR DUP6 SSTORE MLOAD AND DUP4 PUSH2 0x2EB6 JUMP JUMPDEST MLOAD PUSH1 0x1 DUP3 ADD SSTORE ADD SWAP4 MLOAD DUP4 DUP2 LT ISZERO PUSH2 0x569 JUMPI PUSH2 0x51F SWAP1 DUP6 PUSH2 0x2E9E JUMP JUMPDEST MLOAD SWAP2 DUP1 DUP4 LT ISZERO PUSH2 0x558 JUMPI POP POP PUSH2 0xFF00 DUP3 SLOAD SWAP2 PUSH1 0x8 SHL AND SWAP1 PUSH2 0xFF00 NOT AND OR SWAP1 SSTORE MLOAD SWAP2 DUP2 PUSH1 0x0 DUP1 MLOAD PUSH1 0x20 PUSH2 0x321A DUP4 CODECOPY DUP2 MLOAD SWAP2 MSTORE CALLER SWAP3 DUP1 LOG3 DUP2 MSTORE RETURN JUMPDEST PUSH4 0x4E487B71 PUSH1 0xE0 SHL DUP8 MSTORE PUSH1 0x21 SWAP1 MSTORE DUP6 REVERT JUMPDEST PUSH4 0x4E487B71 PUSH1 0xE0 SHL DUP9 MSTORE PUSH1 0x21 DUP5 MSTORE DUP3 DUP9 REVERT JUMPDEST PUSH4 0x4E487B71 PUSH1 0xE0 SHL DUP13 MSTORE PUSH1 0x21 DUP9 MSTORE DUP7 DUP13 REVERT JUMPDEST SWAP1 SWAP7 POP DUP9 DUP2 DUP2 RETURNDATASIZE DUP4 GT PUSH2 0x5B9 JUMPI JUMPDEST PUSH2 0x5A5 DUP2 DUP4 PUSH2 0x2679 JUMP JUMPDEST DUP2 ADD SUB SLT PUSH2 0x5B5 JUMPI MLOAD SWAP6 CODESIZE PUSH2 0x486 JUMP JUMPDEST DUP8 DUP1 REVERT JUMPDEST POP RETURNDATASIZE PUSH2 0x59B JUMP JUMPDEST DUP7 MLOAD RETURNDATASIZE DUP11 DUP3 RETURNDATACOPY RETURNDATASIZE SWAP1 REVERT JUMPDEST DUP5 MLOAD PUSH3 0x461BCD PUSH1 0xE5 SHL DUP2 MSTORE DUP1 DUP5 ADD DUP9 SWAP1 MSTORE PUSH1 0x1A DUP2 DUP5 ADD MSTORE PUSH26 0x43616E6E6F7420737465616C20796F7572206F776E20636C7565 PUSH1 0x30 SHL PUSH1 0x44 DUP3 ADD MSTORE PUSH1 0x64 SWAP1 REVERT JUMPDEST PUSH1 0x64 SWAP1 PUSH1 0x18 DUP7 PUSH1 0x20 DUP7 MLOAD SWAP4 PUSH3 0x461BCD PUSH1 0xE5 SHL DUP6 MSTORE DUP5 ADD MSTORE DUP3 ADD MSTORE PUSH24 0x4D7573742070617920657861637420737465616C20666565 PUSH1 0x40 SHL PUSH1 0x44 DUP3 ADD MSTORE REVERT JUMPDEST DUP1 REVERT JUMPDEST POP POP CALLVALUE PUSH2 0x3BB JUMPI DUP1 PUSH1 0x3 NOT CALLDATASIZE ADD SLT PUSH2 0x3BB JUMPI PUSH1 0xFF DUP2 PUSH1 0x20 SWAP4 PUSH2 0x669 PUSH2 0x25E0 JUMP JUMPDEST PUSH2 0x671 PUSH2 0x25FB JUMP JUMPDEST PUSH1 0x1 PUSH1 0x1 PUSH1 0xA0 SHL SUB SWAP2 DUP3 AND DUP4 MSTORE PUSH1 0x5 DUP8 MSTORE DUP4 DUP4 KECCAK256 SWAP2 AND DUP3 MSTORE DUP6 MSTORE KECCAK256 SLOAD SWAP2 MLOAD SWAP2 AND ISZERO ISZERO DUP2 MSTORE RETURN JUMPDEST POP POP CALLVALUE PUSH2 0x3BB JUMPI DUP2 PUSH1 0x3 NOT CALLDATASIZE ADD SLT PUSH2 0x3BB JUMPI PUSH1 0x20 SWAP1 MLOAD PUSH1 0x19 DUP2 MSTORE RETURN JUMPDEST POP POP CALLVALUE PUSH2 0x3BB JUMPI DUP2 PUSH1 0x3 NOT CALLDATASIZE ADD SLT PUSH2 0x3BB JUMPI PUSH1 0x20 SWAP1 PUSH1 0x17 SLOAD SWAP1 MLOAD SWAP1 DUP2 MSTORE RETURN JUMPDEST POP SWAP1 PUSH2 0x6DD CALLDATASIZE PUSH2 0x270B JUMP JUMPDEST SWAP1 SWAP2 DUP3 ISZERO ISZERO DUP1 PUSH2 0xA0B JUMPI JUMPDEST ISZERO PUSH2 0x9D7 JUMPI PUSH1 0x1 DUP1 DUP4 LT ISZERO DUP1 PUSH2 0x9CC JUMPI JUMPDEST ISZERO PUSH2 0x99C JUMPI DUP4 PUSH1 0x9 SLOAD LT PUSH2 0x965 JUMPI PUSH7 0x38D7EA4C68000 DUP5 DUP2 MUL SWAP1 DUP2 DIV DUP6 SUB PUSH2 0x952 JUMPI PUSH1 0x18 DUP5 DIV SWAP1 DUP3 DUP3 ADD DUP1 SWAP3 GT PUSH2 0x93F JUMPI SWAP1 PUSH2 0x734 SWAP2 PUSH2 0x30F2 JUMP JUMPDEST CALLVALUE LT PUSH2 0x909 JUMPI DUP6 JUMPDEST DUP5 DUP2 LT PUSH2 0x747 JUMPI DUP7 DUP1 RETURN JUMPDEST PUSH1 0xA SLOAD PUSH1 0xC SLOAD SWAP1 PUSH1 0xD SLOAD SWAP1 DUP6 MLOAD SWAP3 PUSH4 0x5D3B1D3 PUSH1 0xE4 SHL DUP5 MSTORE DUP4 DUP1 PUSH2 0x795 DUP13 PUSH1 0x20 SWAP7 DUP8 SWAP6 PUSH4 0xFFFFFFFF SWAP3 PUSH2 0xFFFF DUP5 DUP5 PUSH1 0x30 SHR AND SWAP5 DUP5 AND SWAP4 DUP10 SHR AND SWAP2 PUSH1 0x1 DUP1 PUSH1 0x40 SHL SUB DUP11 PUSH1 0xA0 SHR AND SWAP2 DUP8 ADD PUSH2 0x3077 JUMP JUMPDEST SUB DUP2 DUP14 PUSH1 0x1 DUP1 PUSH1 0xA0 SHL SUB DUP1 SWAP7 AND GAS CALL SWAP3 DUP4 ISZERO PUSH2 0x8FF JUMPI DUP11 SWAP4 PUSH2 0x8CC JUMPI JUMPDEST POP PUSH2 0xE10 DUP1 DUP9 MUL SWAP1 DUP9 DUP3 DIV EQ DUP9 ISZERO OR ISZERO PUSH2 0x8B9 JUMPI DUP7 MLOAD DUP12 SWAP4 SWAP3 SWAP2 PUSH2 0x7D5 DUP3 PUSH2 0x2611 JUMP JUMPDEST PUSH1 0x2 SWAP3 DUP4 DUP4 MSTORE DUP5 DUP4 ADD CALLER DUP2 MSTORE DUP11 DUP5 ADD SWAP3 DUP4 MSTORE DUP11 PUSH1 0x60 DUP6 ADD SWAP8 DUP1 DUP10 MSTORE PUSH1 0x16 PUSH1 0x80 DUP8 ADD SWAP9 DUP3 DUP11 MSTORE DUP12 DUP4 MSTORE MSTORE KECCAK256 SWAP4 MLOAD PUSH1 0x3 DUP2 LT ISZERO PUSH2 0x8A4 JUMPI SWAP1 PUSH2 0x824 SWAP3 SWAP2 PUSH1 0xFF DUP1 NOT DUP8 SLOAD AND SWAP2 AND OR DUP6 SSTORE MLOAD AND DUP4 PUSH2 0x2EB6 JUMP JUMPDEST MLOAD DUP8 DUP3 ADD SSTORE ADD SWAP2 MLOAD DUP10 DUP2 LT ISZERO PUSH2 0x891 JUMPI PUSH2 0x83E SWAP1 DUP4 PUSH2 0x2E9E JUMP JUMPDEST MLOAD DUP9 DUP2 LT ISZERO PUSH2 0x87E JUMPI DUP2 SLOAD PUSH2 0xFF00 NOT AND PUSH1 0x8 SWAP2 SWAP1 SWAP2 SHL PUSH2 0xFF00 AND OR SWAP1 SSTORE PUSH2 0x879 SWAP2 SWAP1 CALLER SWAP1 PUSH1 0x0 DUP1 MLOAD PUSH1 0x20 PUSH2 0x321A DUP4 CODECOPY DUP2 MLOAD SWAP2 MSTORE DUP11 DUP1 LOG3 PUSH2 0x3105 JUMP JUMPDEST PUSH2 0x73C JUMP JUMPDEST PUSH4 0x4E487B71 PUSH1 0xE0 SHL DUP11 MSTORE PUSH1 0x21 DUP10 MSTORE PUSH1 0x24 DUP11 REVERT JUMPDEST PUSH4 0x4E487B71 PUSH1 0xE0 SHL DUP12 MSTORE PUSH1 0x21 DUP11 MSTORE PUSH1 0x24 DUP12 REVERT JUMPDEST POP POP PUSH4 0x4E487B71 PUSH1 0xE0 SHL DUP15 MSTORE PUSH1 0x21 DUP14 MSTORE PUSH1 0x24 DUP15 REVERT JUMPDEST PUSH4 0x4E487B71 PUSH1 0xE0 SHL DUP12 MSTORE PUSH1 0x11 DUP11 MSTORE PUSH1 0x24 DUP12 REVERT JUMPDEST SWAP1 SWAP3 POP DUP2 DUP2 DUP2 RETURNDATASIZE DUP4 GT PUSH2 0x8F8 JUMPI JUMPDEST PUSH2 0x8E4 DUP2 DUP4 PUSH2 0x2679 JUMP JUMPDEST DUP2 ADD SUB SLT PUSH2 0x8F4 JUMPI MLOAD SWAP2 CODESIZE PUSH2 0x7B2 JUMP JUMPDEST DUP10 DUP1 REVERT JUMPDEST POP RETURNDATASIZE PUSH2 0x8DA JUMP JUMPDEST DUP7 MLOAD RETURNDATASIZE DUP13 DUP3 RETURNDATACOPY RETURNDATASIZE SWAP1 REVERT JUMPDEST DUP2 MLOAD PUSH3 0x461BCD PUSH1 0xE5 SHL DUP2 MSTORE PUSH1 0x20 DUP2 DUP8 ADD MSTORE PUSH1 0x10 PUSH1 0x24 DUP3 ADD MSTORE PUSH16 0x496E73756666696369656E7420666565 PUSH1 0x80 SHL PUSH1 0x44 DUP3 ADD MSTORE PUSH1 0x64 SWAP1 REVERT JUMPDEST PUSH4 0x4E487B71 PUSH1 0xE0 SHL DUP9 MSTORE PUSH1 0x11 DUP8 MSTORE PUSH1 0x24 DUP9 REVERT JUMPDEST PUSH4 0x4E487B71 PUSH1 0xE0 SHL DUP8 MSTORE PUSH1 0x11 DUP7 MSTORE PUSH1 0x24 DUP8 REVERT JUMPDEST DUP2 MLOAD PUSH3 0x461BCD PUSH1 0xE5 SHL DUP2 MSTORE PUSH1 0x20 DUP2 DUP8 ADD MSTORE PUSH1 0x11 PUSH1 0x24 DUP3 ADD MSTORE PUSH17 0x4E6F7420656E6F75676820746F6B656E73 PUSH1 0x78 SHL PUSH1 0x44 DUP3 ADD MSTORE PUSH1 0x64 SWAP1 REVERT JUMPDEST DUP2 MLOAD PUSH3 0x461BCD PUSH1 0xE5 SHL DUP2 MSTORE PUSH1 0x20 DUP2 DUP8 ADD MSTORE PUSH1 0xA PUSH1 0x24 DUP3 ADD MSTORE PUSH10 0x312D373220686F757273 PUSH1 0xB0 SHL PUSH1 0x44 DUP3 ADD MSTORE PUSH1 0x64 SWAP1 REVERT JUMPDEST POP PUSH1 0x48 DUP4 GT ISZERO PUSH2 0x6F9 JUMP JUMPDEST MLOAD PUSH3 0x461BCD PUSH1 0xE5 SHL DUP2 MSTORE PUSH1 0x20 DUP2 DUP6 ADD MSTORE PUSH1 0xF PUSH1 0x24 DUP3 ADD MSTORE PUSH15 0x625A6A40E4CAECCAC2D8E640DAC2F PUSH1 0x8B SHL PUSH1 0x44 DUP3 ADD MSTORE PUSH1 0x64 SWAP1 REVERT JUMPDEST POP PUSH1 0x5 DUP4 GT ISZERO PUSH2 0x6E8 JUMP JUMPDEST POP POP CALLVALUE PUSH2 0x3BB JUMPI DUP2 PUSH1 0x3 NOT CALLDATASIZE ADD SLT PUSH2 0x3BB JUMPI PUSH1 0x20 SWAP1 MLOAD PUSH7 0x38D7EA4C68000 DUP2 MSTORE RETURN JUMPDEST POP SWAP2 CALLVALUE PUSH2 0x646 JUMPI PUSH1 0x20 CALLDATASIZE PUSH1 0x3 NOT ADD SLT PUSH2 0x646 JUMPI DUP3 CALLDATALOAD SWAP3 DUP4 LT ISZERO PUSH2 0x646 JUMPI POP PUSH2 0xA61 PUSH1 0x20 SWAP3 PUSH2 0x27D8 JUMP JUMPDEST SLOAD SWAP1 MLOAD SWAP1 DUP2 MSTORE RETURN JUMPDEST POP SWAP2 SWAP1 CALLVALUE PUSH2 0x3BB JUMPI PUSH1 0x20 CALLDATASIZE PUSH1 0x3 NOT ADD SLT PUSH2 0x3BB JUMPI PUSH2 0xAC4 SWAP3 CALLDATALOAD PUSH2 0xA93 PUSH2 0xA8E DUP3 PUSH2 0x2CCE JUMP JUMPDEST PUSH2 0x28C0 JUMP JUMPDEST DUP3 MSTORE PUSH1 0x6 PUSH1 0x20 MSTORE PUSH2 0xAA5 DUP2 DUP4 KECCAK256 PUSH2 0x2964 JUMP JUMPDEST SWAP2 DUP2 MLOAD PUSH2 0xAB1 DUP2 PUSH2 0x265E JUMP JUMPDEST MSTORE MLOAD SWAP2 DUP3 SWAP2 PUSH1 0x20 DUP4 MSTORE PUSH1 0x20 DUP4 ADD SWAP1 PUSH2 0x25A0 JUMP JUMPDEST SUB SWAP1 RETURN JUMPDEST POP SWAP2 SWAP1 CALLVALUE PUSH2 0x3BB JUMPI PUSH1 0x20 CALLDATASIZE PUSH1 0x3 NOT ADD SLT PUSH2 0x3BB JUMPI DUP3 CALLDATALOAD DUP3 MSTORE PUSH1 0x16 PUSH1 0x20 MSTORE DUP1 DUP3 KECCAK256 DUP1 SLOAD SWAP2 PUSH1 0xFF DUP4 AND SWAP3 PUSH1 0x2 PUSH1 0x1 DUP5 ADD SLOAD SWAP4 ADD SLOAD SWAP4 DUP3 MLOAD SWAP6 PUSH1 0x3 DUP3 LT ISZERO PUSH2 0xB4C JUMPI DUP2 DUP8 MSTORE PUSH1 0x8 DUP4 SWAP1 SHR PUSH1 0x1 PUSH1 0x1 PUSH1 0xA0 SHL SUB AND PUSH1 0x20 DUP9 ADD MSTORE DUP4 DUP8 ADD DUP6 SWAP1 MSTORE PUSH1 0xA0 DUP8 PUSH2 0xB4A DUP9 PUSH2 0xB3A PUSH1 0x60 DUP5 ADD PUSH1 0xFF DUP4 AND PUSH2 0x26E8 JUMP JUMPDEST PUSH1 0xFF PUSH1 0x80 DUP5 ADD SWAP2 PUSH1 0x8 SHR AND PUSH2 0x26E8 JUMP JUMPDEST RETURN JUMPDEST PUSH4 0x4E487B71 PUSH1 0xE0 SHL DUP2 MSTORE PUSH1 0x21 DUP9 MSTORE PUSH1 0x24 SWAP1 REVERT JUMPDEST DUP4 DUP3 CALLVALUE PUSH2 0x3BB JUMPI PUSH1 0x80 CALLDATASIZE PUSH1 0x3 NOT ADD SLT PUSH2 0x3BB JUMPI PUSH2 0xB7A PUSH2 0x25E0 JUMP JUMPDEST SWAP1 PUSH2 0xB83 PUSH2 0x25FB JUMP JUMPDEST PUSH1 0x64 CALLDATALOAD SWAP3 SWAP1 PUSH1 0x44 CALLDATALOAD SWAP1 PUSH1 0x1 PUSH1 0x1 PUSH1 0x40 SHL SUB DUP6 GT PUSH2 0xBE6 JUMPI CALLDATASIZE PUSH1 0x23 DUP7 ADD SLT ISZERO PUSH2 0xBE6 JUMPI PUSH2 0xBBE PUSH2 0xBE1 SWAP5 DUP7 PUSH1 0x24 PUSH2 0x35A SWAP9 CALLDATASIZE SWAP4 ADD CALLDATALOAD SWAP2 ADD PUSH2 0x276A JUMP JUMPDEST SWAP3 PUSH2 0xBD1 PUSH2 0xBCC DUP5 CALLER PUSH2 0x2B0A JUMP JUMPDEST PUSH2 0x2A31 JUMP JUMPDEST PUSH2 0xBDC DUP4 DUP4 DUP4 PUSH2 0x2BD2 JUMP JUMPDEST PUSH2 0x2E07 JUMP JUMPDEST PUSH2 0x2AE6 JUMP JUMPDEST DUP6 DUP1 REVERT JUMPDEST DUP3 DUP5 CALLVALUE PUSH2 0x646 JUMPI PUSH1 0x20 SWAP1 DUP2 PUSH1 0x3 NOT CALLDATASIZE ADD SLT PUSH2 0x646 JUMPI DUP3 SWAP1 PUSH1 0x1 PUSH1 0x1 PUSH1 0xA0 SHL SUB PUSH2 0xC11 PUSH2 0x25E0 JUMP JUMPDEST AND DUP2 MSTORE PUSH1 0x13 DUP4 MSTORE DUP2 DUP2 KECCAK256 SWAP1 DUP3 MLOAD DUP1 DUP6 DUP5 SLOAD SWAP2 DUP3 DUP2 MSTORE ADD SWAP1 DUP2 SWAP5 DUP5 MSTORE DUP7 DUP5 KECCAK256 SWAP1 DUP5 JUMPDEST DUP2 DUP2 LT PUSH2 0xC83 JUMPI POP POP POP DUP2 PUSH2 0xC48 SWAP2 SUB DUP3 PUSH2 0x2679 JUMP JUMPDEST DUP4 MLOAD SWAP5 DUP6 SWAP5 DUP2 DUP7 ADD SWAP3 DUP3 DUP8 MSTORE MLOAD DUP1 SWAP4 MSTORE DUP6 ADD SWAP4 SWAP3 JUMPDEST DUP3 DUP2 LT PUSH2 0xC6C JUMPI POP POP POP POP SUB SWAP1 RETURN JUMPDEST DUP4 MLOAD DUP6 MSTORE DUP7 SWAP6 POP SWAP4 DUP2 ADD SWAP4 SWAP3 DUP2 ADD SWAP3 PUSH1 0x1 ADD PUSH2 0xC5D JUMP JUMPDEST DUP3 SLOAD DUP5 MSTORE SWAP3 DUP9 ADD SWAP3 PUSH1 0x1 SWAP3 DUP4 ADD SWAP3 ADD PUSH2 0xC32 JUMP JUMPDEST POP SWAP2 CALLVALUE PUSH2 0x646 JUMPI PUSH1 0x20 CALLDATASIZE PUSH1 0x3 NOT ADD SLT PUSH2 0x646 JUMPI DUP3 CALLDATALOAD SWAP3 DUP4 LT ISZERO PUSH2 0x646 JUMPI POP PUSH2 0xA61 PUSH1 0x20 SWAP3 PUSH2 0x27BF JUMP JUMPDEST POP SWAP1 CALLVALUE PUSH2 0x2D1 JUMPI DUP1 PUSH1 0x3 NOT CALLDATASIZE ADD SLT PUSH2 0x2D1 JUMPI PUSH2 0xCDA PUSH2 0x25E0 JUMP JUMPDEST SWAP1 PUSH1 0x24 CALLDATALOAD DUP1 ISZERO ISZERO SWAP3 DUP4 DUP3 SUB PUSH2 0xBE6 JUMPI PUSH1 0x1 PUSH1 0x1 PUSH1 0xA0 SHL SUB AND SWAP4 CALLER DUP6 EQ PUSH2 0xD51 JUMPI POP PUSH2 0xD24 SWAP1 CALLER DUP7 MSTORE PUSH1 0x5 PUSH1 0x20 MSTORE DUP3 DUP7 KECCAK256 DUP6 DUP8 MSTORE PUSH1 0x20 MSTORE DUP3 DUP7 KECCAK256 SWAP1 PUSH1 0xFF DUP1 NOT DUP4 SLOAD AND SWAP2 ISZERO ISZERO AND OR SWAP1 SSTORE JUMP JUMPDEST MLOAD SWAP1 DUP2 MSTORE PUSH32 0x17307EAB39AB6107E8899845AD3D59BD9653F200F220920489CA2B5937696C31 PUSH1 0x20 CALLER SWAP3 LOG3 DUP1 RETURN JUMPDEST PUSH1 0x64 SWAP1 PUSH1 0x20 DUP5 MLOAD SWAP2 PUSH3 0x461BCD PUSH1 0xE5 SHL DUP4 MSTORE DUP3 ADD MSTORE PUSH1 0x19 PUSH1 0x24 DUP3 ADD MSTORE PUSH25 0x22A9219B99189D1030B8383937BB32903A379031B0B63632B9 PUSH1 0x39 SHL PUSH1 0x44 DUP3 ADD MSTORE REVERT JUMPDEST DUP5 SWAP2 POP DUP4 CALLVALUE PUSH2 0x2D1 JUMPI PUSH1 0xA0 CALLDATASIZE PUSH1 0x3 NOT ADD SLT PUSH2 0x2D1 JUMPI PUSH2 0xDAD PUSH2 0x25E0 JUMP JUMPDEST SWAP3 PUSH1 0x24 SWAP3 DUP4 CALLDATALOAD PUSH1 0x1 PUSH1 0x1 PUSH1 0x40 SHL SUB DUP2 GT PUSH2 0x2D1 JUMPI PUSH2 0xDCE SWAP1 CALLDATASIZE SWAP1 DUP9 ADD PUSH2 0x27A1 JUMP JUMPDEST SWAP6 PUSH1 0x44 CALLDATALOAD SWAP3 DUP2 DUP5 LT ISZERO PUSH2 0x646 JUMPI PUSH2 0xDE3 PUSH2 0x27F1 JUMP JUMPDEST PUSH1 0x9 SLOAD SWAP6 PUSH1 0x1 SWAP1 DUP2 DUP9 ADD PUSH1 0x9 SSTORE DUP7 MLOAD SWAP9 PUSH2 0xDFC DUP11 PUSH2 0x265E JUMP JUMPDEST DUP4 DUP11 MSTORE PUSH1 0x1 PUSH1 0x1 PUSH1 0xA0 SHL SUB SWAP11 DUP2 DUP13 AND SWAP2 DUP3 ISZERO PUSH2 0x10E8 JUMPI PUSH2 0xE1B DUP12 PUSH2 0x2CCE JUMP JUMPDEST ISZERO PUSH2 0xE25 SWAP1 PUSH2 0x2EDB JUMP JUMPDEST PUSH2 0xE2E DUP12 PUSH2 0x2CCE JUMP JUMPDEST ISZERO PUSH2 0xE38 SWAP1 PUSH2 0x2EDB JUMP JUMPDEST DUP3 DUP7 MSTORE PUSH1 0x3 PUSH1 0x20 SWAP1 DUP2 MSTORE DUP11 DUP8 KECCAK256 DUP1 SLOAD DUP8 ADD SWAP1 SSTORE DUP12 DUP8 MSTORE PUSH1 0x2 DUP2 MSTORE DUP11 DUP8 KECCAK256 DUP1 SLOAD PUSH1 0x1 PUSH1 0x1 PUSH1 0xA0 SHL SUB NOT AND DUP6 OR SWAP1 SSTORE SWAP12 DUP12 DUP1 DUP6 DUP10 PUSH1 0x0 DUP1 MLOAD PUSH1 0x20 PUSH2 0x323A DUP4 CODECOPY DUP2 MLOAD SWAP2 MSTORE DUP2 DUP1 LOG4 PUSH2 0xE85 SWAP3 PUSH2 0x2CEB JUMP JUMPDEST PUSH2 0xE8E SWAP1 PUSH2 0x2AE6 JUMP JUMPDEST PUSH2 0xE97 DUP11 PUSH2 0x2CCE JUMP JUMPDEST ISZERO PUSH2 0x108F JUMPI PUSH2 0xEAF SWAP1 DUP11 DUP7 MSTORE PUSH1 0x6 DUP13 MSTORE DUP10 DUP7 KECCAK256 PUSH2 0x2F26 JUMP JUMPDEST PUSH32 0xF8E1A15ABA9398E019F0B49DF1A4FDE98EE17AE345CB5F6B5E2C27F5033E8CE7 DUP11 DUP10 MLOAD DUP12 DUP2 MSTORE LOG1 DUP1 DUP5 MSTORE PUSH1 0x11 DUP11 MSTORE DUP9 DUP9 DUP6 KECCAK256 SSTORE DUP3 SWAP6 PUSH1 0x3 DUP9 EQ PUSH2 0x1086 JUMPI JUMPDEST PUSH1 0x17 SLOAD PUSH1 0x0 NOT SWAP8 DUP9 DUP3 ADD SWAP2 DUP3 GT PUSH2 0x1074 JUMPI SWAP2 DUP13 DUP13 SWAP14 SWAP15 PUSH2 0xF13 DUP10 SWAP5 DUP15 SWAP16 SWAP14 SWAP15 SWAP7 PUSH2 0x30CF JUMP JUMPDEST SWAP12 DUP14 PUSH1 0x64 CALLDATALOAD DUP1 SWAP15 PUSH1 0xA DUP3 DIV PUSH2 0xF27 SWAP2 PUSH2 0x30CF JUMP JUMPDEST SWAP2 DUP9 MLOAD SWAP9 PUSH2 0xF34 DUP11 PUSH2 0x2642 JUMP JUMPDEST DUP5 DUP11 MSTORE DUP7 DUP11 ADD SWAP2 PUSH2 0xF45 SWAP1 DUP4 PUSH2 0x2E92 JUMP JUMPDEST DUP1 DUP11 ADD SWAP3 DUP4 MSTORE PUSH1 0x60 DUP11 ADD SWAP4 DUP5 MSTORE PUSH1 0x80 DUP11 ADD SWAP7 DUP14 DUP9 MSTORE PUSH1 0xA0 DUP12 ADD SWAP6 CALLER DUP8 MSTORE PUSH1 0xC0 DUP13 ADD SWAP10 TIMESTAMP DUP12 MSTORE DUP13 ADD SWAP11 PUSH1 0x84 CALLDATALOAD DUP13 MSTORE MSTORE PUSH1 0x12 SWAP1 MSTORE DUP14 KECCAK256 SWAP9 MLOAD DUP10 SSTORE MLOAD DUP14 DUP2 LT ISZERO PUSH2 0x1061 JUMPI SWAP2 PUSH1 0x6 SWAP8 SWAP7 SWAP6 SWAP4 SWAP2 PUSH2 0xF9E PUSH2 0xFCE SWAP7 SWAP5 DUP15 DUP13 ADD PUSH2 0x2E9E JUMP JUMPDEST MLOAD PUSH1 0x2 DUP11 ADD SSTORE MLOAD PUSH1 0x3 DUP10 ADD SSTORE PUSH2 0xFC6 DUP14 DUP10 ADD SWAP4 MLOAD ISZERO ISZERO DUP5 SWAP1 PUSH1 0xFF DUP1 NOT DUP4 SLOAD AND SWAP2 ISZERO ISZERO AND OR SWAP1 SSTORE JUMP JUMPDEST MLOAD AND SWAP1 PUSH2 0x2EB6 JUMP JUMPDEST MLOAD PUSH1 0x5 DUP5 ADD SSTORE MLOAD SWAP2 ADD SSTORE DUP4 MSTORE PUSH1 0x13 DUP11 MSTORE DUP8 DUP4 KECCAK256 SWAP3 DUP4 SLOAD SWAP5 PUSH1 0x1 PUSH1 0x40 SHL DUP7 LT ISZERO PUSH2 0x1051 JUMPI POP POP POP DUP3 ADD DUP2 SSTORE PUSH2 0x1002 SWAP2 SWAP1 PUSH2 0x2721 JUMP JUMPDEST DUP2 SWAP3 SWAP2 SLOAD SWAP1 PUSH1 0x3 SHL SWAP2 DUP8 DUP4 SHL SWAP3 SHL NOT AND OR SWAP1 SSTORE PUSH2 0x1021 DUP4 MLOAD DUP1 SWAP4 PUSH2 0x26E8 JUMP JUMPDEST DUP5 DUP3 ADD MSTORE DUP3 PUSH32 0xA77D621FB0F24834C2724C3EC9489AA7ABF14A8CB8999794CC14BFAE9A3F9654 DUP4 CALLER SWAP4 LOG3 MLOAD SWAP1 DUP2 MSTORE RETURN JUMPDEST PUSH4 0x4E487B71 PUSH1 0xE0 SHL DUP3 MSTORE PUSH1 0x41 SWAP1 MSTORE REVERT JUMPDEST POP PUSH4 0x4E487B71 PUSH1 0xE0 SHL DUP13 MSTORE PUSH1 0x21 DUP14 MSTORE DUP10 DUP13 REVERT JUMPDEST PUSH4 0x4E487B71 PUSH1 0xE0 SHL DUP8 MSTORE PUSH1 0x11 DUP9 MSTORE DUP5 DUP8 REVERT JUMPDEST PUSH1 0x2 SWAP7 POP PUSH2 0xEEE JUMP JUMPDEST DUP9 MLOAD PUSH3 0x461BCD PUSH1 0xE5 SHL DUP2 MSTORE DUP1 DUP8 ADD DUP13 SWAP1 MSTORE PUSH1 0x2E DUP2 DUP6 ADD MSTORE PUSH32 0x45524337323155524953746F726167653A2055524920736574206F66206E6F6E PUSH1 0x44 DUP3 ADD MSTORE PUSH14 0x32BC34B9BA32B73A103A37B5B2B7 PUSH1 0x91 SHL PUSH1 0x64 DUP3 ADD MSTORE PUSH1 0x84 SWAP1 REVERT JUMPDEST DUP10 MLOAD PUSH3 0x461BCD PUSH1 0xE5 SHL DUP2 MSTORE PUSH1 0x20 DUP2 DUP10 ADD DUP2 SWAP1 MSTORE DUP2 DUP7 ADD MSTORE PUSH32 0x4552433732313A206D696E7420746F20746865207A65726F2061646472657373 PUSH1 0x44 DUP3 ADD MSTORE PUSH1 0x64 SWAP1 REVERT JUMPDEST POP POP POP CALLVALUE PUSH2 0x3BB JUMPI DUP2 PUSH1 0x3 NOT CALLDATASIZE ADD SLT PUSH2 0x3BB JUMPI DUP1 MLOAD SWAP1 DUP3 PUSH1 0x1 DUP1 SLOAD SWAP1 PUSH2 0x114F DUP3 PUSH2 0x292A JUMP JUMPDEST DUP1 DUP7 MSTORE SWAP2 DUP2 DUP2 AND SWAP1 DUP2 ISZERO PUSH2 0x11C5 JUMPI POP PUSH1 0x1 EQ PUSH2 0x118A JUMPI JUMPDEST POP POP POP PUSH2 0x1178 DUP3 PUSH2 0xAC4 SWAP5 SUB DUP4 PUSH2 0x2679 JUMP JUMPDEST MLOAD SWAP2 DUP3 SWAP2 PUSH1 0x20 DUP4 MSTORE PUSH1 0x20 DUP4 ADD SWAP1 PUSH2 0x25A0 JUMP JUMPDEST DUP1 SWAP6 POP DUP3 MSTORE PUSH1 0x20 SWAP5 DUP6 DUP4 KECCAK256 JUMPDEST DUP3 DUP5 LT PUSH2 0x11B2 JUMPI POP POP POP DUP3 PUSH2 0xAC4 SWAP5 PUSH2 0x1178 SWAP3 DUP3 ADD ADD SWAP5 PUSH2 0x1166 JUMP JUMPDEST DUP1 SLOAD DUP7 DUP6 ADD DUP9 ADD MSTORE SWAP3 DUP7 ADD SWAP3 DUP2 ADD PUSH2 0x1196 JUMP JUMPDEST PUSH2 0xAC4 SWAP8 POP PUSH2 0x1178 SWAP5 POP PUSH1 0x20 SWAP3 POP DUP7 SWAP4 SWAP2 POP PUSH1 0xFF NOT AND DUP3 DUP5 ADD MSTORE ISZERO ISZERO PUSH1 0x5 SHL DUP3 ADD ADD SWAP5 PUSH2 0x1166 JUMP JUMPDEST POP POP SWAP2 CALLVALUE PUSH2 0x646 JUMPI PUSH1 0x20 CALLDATASIZE PUSH1 0x3 NOT ADD SLT PUSH2 0x646 JUMPI DUP3 CALLDATALOAD SWAP3 DUP4 LT ISZERO PUSH2 0x646 JUMPI POP PUSH2 0xA61 PUSH1 0x20 SWAP3 PUSH2 0x27BF JUMP JUMPDEST DUP3 DUP6 DUP6 PUSH1 0x20 DUP1 PUSH1 0x3 NOT CALLDATASIZE ADD SLT PUSH2 0x2D1 JUMPI CALLER DUP4 MSTORE PUSH1 0x11 DUP2 MSTORE DUP2 DUP4 KECCAK256 SLOAD SWAP2 DUP5 CALLDATALOAD DUP4 ISZERO PUSH2 0x131C JUMPI PUSH1 0x18 DUP2 DIV PUSH1 0x1 DUP2 ADD DUP1 SWAP2 GT PUSH2 0x1309 JUMPI PUSH7 0x71AFD498D0000 SWAP1 DUP1 DUP3 MUL SWAP2 DUP3 DIV SUB PUSH2 0x1309 JUMPI CALLVALUE LT PUSH2 0x12CD JUMPI PUSH2 0xE10 SWAP1 DUP2 DUP2 MUL SWAP2 DUP2 DUP4 DIV EQ SWAP1 ISZERO OR ISZERO PUSH2 0x12BA JUMPI SWAP1 PUSH2 0x12A5 PUSH32 0xE7374C4883FC65390F1FB7001EA89D0FE268076158DD738E0249E1B1E4428E69 SWAP4 SWAP3 TIMESTAMP PUSH2 0x30CF JUMP JUMPDEST SWAP1 DUP5 DUP7 MSTORE PUSH1 0x10 DUP4 MSTORE DUP2 DUP2 DUP8 KECCAK256 SSTORE MLOAD SWAP1 DUP2 MSTORE LOG2 DUP1 RETURN JUMPDEST PUSH4 0x4E487B71 PUSH1 0xE0 SHL DUP6 MSTORE PUSH1 0x11 DUP7 MSTORE PUSH1 0x24 DUP6 REVERT JUMPDEST DUP2 MLOAD PUSH3 0x461BCD PUSH1 0xE5 SHL DUP2 MSTORE DUP1 DUP8 ADD DUP5 SWAP1 MSTORE PUSH1 0x16 PUSH1 0x24 DUP3 ADD MSTORE PUSH22 0x496E73756666696369656E7420626C6F636B20666565 PUSH1 0x50 SHL PUSH1 0x44 DUP3 ADD MSTORE PUSH1 0x64 SWAP1 REVERT JUMPDEST PUSH4 0x4E487B71 PUSH1 0xE0 SHL DUP7 MSTORE PUSH1 0x11 DUP8 MSTORE PUSH1 0x24 DUP7 REVERT JUMPDEST DUP2 MLOAD PUSH3 0x461BCD PUSH1 0xE5 SHL DUP2 MSTORE DUP1 DUP8 ADD DUP5 SWAP1 MSTORE PUSH1 0xC PUSH1 0x24 DUP3 ADD MSTORE PUSH12 0x139BC8139195081BDDDB9959 PUSH1 0xA2 SHL PUSH1 0x44 DUP3 ADD MSTORE PUSH1 0x64 SWAP1 REVERT JUMPDEST POP POP POP CALLVALUE PUSH2 0x3BB JUMPI DUP2 PUSH1 0x3 NOT CALLDATASIZE ADD SLT PUSH2 0x3BB JUMPI PUSH1 0x7 SLOAD SWAP1 MLOAD PUSH1 0x1 PUSH1 0x1 PUSH1 0xA0 SHL SUB SWAP1 SWAP2 AND DUP2 MSTORE PUSH1 0x20 SWAP1 RETURN JUMPDEST POP POP POP CALLVALUE PUSH2 0x3BB JUMPI DUP1 PUSH1 0x3 NOT CALLDATASIZE ADD SLT PUSH2 0x3BB JUMPI PUSH2 0x1393 PUSH2 0x25E0 JUMP JUMPDEST PUSH1 0x1 PUSH1 0x1 PUSH1 0xA0 SHL SUB AND DUP3 MSTORE PUSH1 0x13 PUSH1 0x20 MSTORE DUP1 DUP3 KECCAK256 DUP1 SLOAD PUSH1 0x24 CALLDATALOAD SWAP4 SWAP1 DUP5 LT ISZERO PUSH2 0x646 JUMPI POP PUSH1 0x20 SWAP3 PUSH2 0x13C1 SWAP2 PUSH2 0x2721 JUMP JUMPDEST SWAP2 SWAP1 SLOAD SWAP1 MLOAD SWAP2 PUSH1 0x3 SHL SHR DUP2 MSTORE RETURN JUMPDEST POP POP POP CALLVALUE PUSH2 0x3BB JUMPI DUP2 PUSH1 0x3 NOT CALLDATASIZE ADD SLT PUSH2 0x3BB JUMPI PUSH1 0x20 SWAP1 PUSH1 0x18 SLOAD SWAP1 MLOAD SWAP1 DUP2 MSTORE RETURN JUMPDEST POP POP CALLVALUE PUSH2 0x2D1 JUMPI PUSH1 0x20 CALLDATASIZE PUSH1 0x3 NOT ADD SLT PUSH2 0x2D1 JUMPI DUP1 CALLDATALOAD DUP2 DUP2 LT ISZERO PUSH2 0x3B7 JUMPI PUSH1 0x2 PUSH1 0x8 SLOAD EQ PUSH2 0x14ED JUMPI PUSH1 0x2 PUSH1 0x8 SSTORE PUSH2 0x1424 CALLER PUSH2 0x2849 JUMP JUMPDEST ISZERO PUSH2 0x149B JUMPI PUSH2 0x1432 DUP2 PUSH2 0x27BF JUMP JUMPDEST SLOAD SWAP2 DUP3 ISZERO PUSH2 0x1466 JUMPI POP DUP4 DUP1 DUP1 SWAP4 DUP2 PUSH2 0x144A DUP2 SWAP6 PUSH2 0x27BF JUMP JUMPDEST SSTORE CALLER DUP3 CALL ISZERO PUSH2 0x145C JUMPI POP PUSH1 0x1 PUSH1 0x8 SSTORE DUP1 RETURN JUMPDEST MLOAD SWAP1 RETURNDATASIZE SWAP1 DUP3 RETURNDATACOPY RETURNDATASIZE SWAP1 REVERT JUMPDEST PUSH1 0x64 SWAP1 PUSH1 0x20 DUP6 MLOAD SWAP2 PUSH3 0x461BCD PUSH1 0xE5 SHL DUP4 MSTORE DUP3 ADD MSTORE PUSH1 0xF PUSH1 0x24 DUP3 ADD MSTORE PUSH15 0x139BC8199D5B991CC81A5B881C1BDD PUSH1 0x8A SHL PUSH1 0x44 DUP3 ADD MSTORE REVERT JUMPDEST POP PUSH1 0x20 PUSH1 0x84 SWAP3 MLOAD SWAP2 PUSH3 0x461BCD PUSH1 0xE5 SHL DUP4 MSTORE DUP3 ADD MSTORE PUSH1 0x26 PUSH1 0x24 DUP3 ADD MSTORE PUSH32 0x4D757374206F776E20636C75657320746F207769746864726177206661637469 PUSH1 0x44 DUP3 ADD MSTORE PUSH6 0x1BDB881C1BDD PUSH1 0xD2 SHL PUSH1 0x64 DUP3 ADD MSTORE REVERT JUMPDEST POP PUSH1 0x20 PUSH1 0x64 SWAP3 MLOAD SWAP2 PUSH3 0x461BCD PUSH1 0xE5 SHL DUP4 MSTORE DUP3 ADD MSTORE PUSH1 0x1F PUSH1 0x24 DUP3 ADD MSTORE PUSH32 0x5265656E7472616E637947756172643A207265656E7472616E742063616C6C00 PUSH1 0x44 DUP3 ADD MSTORE REVERT JUMPDEST DUP5 CALLVALUE PUSH2 0x646 JUMPI DUP1 PUSH1 0x3 NOT CALLDATASIZE ADD SLT PUSH2 0x646 JUMPI PUSH2 0x1549 PUSH2 0x27F1 JUMP JUMPDEST PUSH1 0x7 DUP1 SLOAD PUSH1 0x1 PUSH1 0x1 PUSH1 0xA0 SHL SUB NOT DUP2 AND SWAP1 SWAP2 SSTORE DUP2 SWAP1 PUSH1 0x1 PUSH1 0x1 PUSH1 0xA0 SHL SUB AND PUSH1 0x0 DUP1 MLOAD PUSH1 0x20 PUSH2 0x31FA DUP4 CODECOPY DUP2 MLOAD SWAP2 MSTORE DUP3 DUP1 LOG3 DUP1 RETURN JUMPDEST POP POP POP CALLVALUE PUSH2 0x3BB JUMPI PUSH1 0x20 CALLDATASIZE PUSH1 0x3 NOT ADD SLT PUSH2 0x3BB JUMPI PUSH1 0x20 SWAP1 PUSH2 0x15A2 PUSH2 0x159D PUSH2 0x25E0 JUMP JUMPDEST PUSH2 0x2849 JUMP JUMPDEST SWAP1 MLOAD SWAP1 DUP2 MSTORE RETURN JUMPDEST POP POP SWAP2 CALLVALUE PUSH2 0x646 JUMPI PUSH1 0x20 SWAP2 DUP3 PUSH1 0x3 NOT CALLDATASIZE ADD SLT PUSH2 0x3BB JUMPI DUP4 CALLDATALOAD SWAP4 DUP5 DUP4 MSTORE PUSH1 0x12 DUP5 MSTORE PUSH2 0x15DA PUSH1 0xFF DUP3 DUP5 DUP7 KECCAK256 ADD SLOAD AND PUSH2 0x3035 JUMP JUMPDEST PUSH2 0x15E3 DUP6 PUSH2 0x2907 JUMP JUMPDEST PUSH1 0x1 PUSH1 0x1 PUSH1 0xA0 SHL SUB SWAP2 SWAP1 DUP3 AND CALLER EQ PUSH2 0x177D JUMPI DUP5 SWAP6 PUSH2 0x1646 SWAP5 SWAP6 PUSH1 0xA SLOAD PUSH1 0xC SLOAD SWAP1 PUSH1 0xD SLOAD DUP10 DUP8 DUP10 MLOAD DUP1 SWAP12 DUP2 SWAP7 DUP3 SWAP6 PUSH4 0x5D3B1D3 PUSH1 0xE4 SHL DUP5 MSTORE PUSH4 0xFFFFFFFF SWAP2 DUP13 PUSH2 0xFFFF DUP5 DUP5 PUSH1 0x30 SHR AND SWAP5 DUP5 AND SWAP4 DUP14 SHR AND SWAP2 PUSH1 0x1 DUP1 PUSH1 0x40 SHL SUB DUP12 PUSH1 0xA0 SHR AND SWAP2 DUP8 ADD PUSH2 0x3077 JUMP JUMPDEST SUB SWAP4 AND GAS CALL SWAP5 DUP6 ISZERO PUSH2 0x1773 JUMPI DUP7 SWAP6 PUSH2 0x1744 JUMPI JUMPDEST POP DUP4 MLOAD PUSH2 0x1665 DUP2 PUSH2 0x2611 JUMP JUMPDEST DUP7 DUP2 MSTORE DUP8 DUP2 ADD SWAP2 CALLER DUP4 MSTORE DUP6 DUP3 ADD SWAP1 DUP2 MSTORE PUSH1 0x60 DUP3 ADD SWAP5 DUP9 DUP7 MSTORE PUSH1 0x80 DUP4 ADD SWAP4 DUP10 DUP6 MSTORE DUP9 DUP11 MSTORE PUSH1 0x16 DUP12 MSTORE DUP8 DUP11 KECCAK256 SWAP4 MLOAD PUSH1 0x3 DUP2 LT ISZERO PUSH2 0x1731 JUMPI SWAP2 PUSH2 0x16B8 SWAP2 PUSH1 0x2 SWAP6 SWAP5 SWAP4 PUSH1 0xFF DUP1 NOT DUP8 SLOAD AND SWAP2 AND OR DUP6 SSTORE MLOAD AND DUP4 PUSH2 0x2EB6 JUMP JUMPDEST MLOAD PUSH1 0x1 DUP3 ADD SSTORE ADD SWAP3 MLOAD DUP3 DUP2 LT ISZERO PUSH2 0x171E JUMPI PUSH2 0x16D3 SWAP1 DUP5 PUSH2 0x2E9E JUMP JUMPDEST MLOAD SWAP1 DUP1 DUP3 LT ISZERO PUSH2 0x170B JUMPI POP PUSH2 0xFF00 DUP3 SLOAD SWAP2 PUSH1 0x8 SHL AND SWAP1 PUSH2 0xFF00 NOT AND OR SWAP1 SSTORE MLOAD SWAP2 DUP2 PUSH1 0x0 DUP1 MLOAD PUSH1 0x20 PUSH2 0x321A DUP4 CODECOPY DUP2 MLOAD SWAP2 MSTORE CALLER SWAP3 DUP1 LOG3 DUP2 MSTORE RETURN JUMPDEST PUSH4 0x4E487B71 PUSH1 0xE0 SHL DUP7 MSTORE PUSH1 0x21 SWAP1 MSTORE PUSH1 0x24 DUP6 REVERT JUMPDEST PUSH4 0x4E487B71 PUSH1 0xE0 SHL DUP8 MSTORE PUSH1 0x21 DUP4 MSTORE PUSH1 0x24 DUP8 REVERT JUMPDEST PUSH4 0x4E487B71 PUSH1 0xE0 SHL DUP12 MSTORE PUSH1 0x21 DUP8 MSTORE PUSH1 0x24 DUP12 REVERT JUMPDEST SWAP1 SWAP5 POP DUP7 DUP2 DUP2 RETURNDATASIZE DUP4 GT PUSH2 0x176C JUMPI JUMPDEST PUSH2 0x175C DUP2 DUP4 PUSH2 0x2679 JUMP JUMPDEST DUP2 ADD SUB SLT PUSH2 0xBE6 JUMPI MLOAD SWAP4 CODESIZE PUSH2 0x1659 JUMP JUMPDEST POP RETURNDATASIZE PUSH2 0x1752 JUMP JUMPDEST DUP5 MLOAD RETURNDATASIZE DUP9 DUP3 RETURNDATACOPY RETURNDATASIZE SWAP1 REVERT JUMPDEST DUP3 MLOAD PUSH3 0x461BCD PUSH1 0xE5 SHL DUP2 MSTORE SWAP1 DUP2 ADD DUP6 SWAP1 MSTORE PUSH1 0x1A PUSH1 0x24 DUP3 ADD MSTORE PUSH26 0x43616E6E6F7420736F6C766520796F7572206F776E20636C7565 PUSH1 0x30 SHL PUSH1 0x44 DUP3 ADD MSTORE PUSH1 0x64 SWAP1 REVERT JUMPDEST POP POP POP CALLVALUE PUSH2 0x3BB JUMPI PUSH1 0x20 CALLDATASIZE PUSH1 0x3 NOT ADD SLT PUSH2 0x3BB JUMPI PUSH1 0x20 SWAP2 DUP2 SWAP1 PUSH1 0x1 PUSH1 0x1 PUSH1 0xA0 SHL SUB PUSH2 0x17E6 PUSH2 0x25E0 JUMP JUMPDEST AND DUP2 MSTORE PUSH1 0x11 DUP5 MSTORE KECCAK256 SLOAD SWAP1 MLOAD SWAP1 DUP2 MSTORE RETURN JUMPDEST POP POP SWAP2 CALLVALUE PUSH2 0x646 JUMPI PUSH1 0x20 CALLDATASIZE PUSH1 0x3 NOT ADD SLT PUSH2 0x646 JUMPI POP PUSH2 0x1817 PUSH1 0x20 SWAP3 CALLDATALOAD PUSH2 0x2907 JUMP JUMPDEST SWAP1 MLOAD PUSH1 0x1 PUSH1 0x1 PUSH1 0xA0 SHL SUB SWAP1 SWAP2 AND DUP2 MSTORE RETURN JUMPDEST POP POP CALLVALUE PUSH2 0x2D1 JUMPI PUSH1 0x20 CALLDATASIZE PUSH1 0x3 NOT ADD SLT PUSH2 0x2D1 JUMPI PUSH1 0x20 SWAP3 DUP3 SWAP2 CALLDATALOAD DUP2 MSTORE PUSH1 0x10 DUP5 MSTORE KECCAK256 SLOAD SWAP1 MLOAD SWAP1 DUP2 MSTORE RETURN JUMPDEST POP POP CALLVALUE PUSH2 0x2D1 JUMPI PUSH1 0x20 CALLDATASIZE PUSH1 0x3 NOT ADD SLT PUSH2 0x2D1 JUMPI PUSH1 0x20 SWAP3 DUP3 SWAP2 CALLDATALOAD DUP2 MSTORE PUSH1 0xF DUP5 MSTORE KECCAK256 SLOAD SWAP1 MLOAD SWAP1 DUP2 MSTORE RETURN JUMPDEST SWAP2 SWAP3 SWAP1 POP CALLVALUE PUSH2 0x3B7 JUMPI PUSH1 0x20 CALLDATASIZE PUSH1 0x3 NOT ADD SLT PUSH2 0x3B7 JUMPI DUP1 DUP5 PUSH2 0x100 SWAP6 DUP5 DUP4 MLOAD PUSH2 0x189F DUP2 PUSH2 0x2642 JUMP JUMPDEST DUP3 DUP2 MSTORE DUP3 PUSH1 0x20 DUP3 ADD MSTORE DUP3 DUP6 DUP3 ADD MSTORE DUP3 PUSH1 0x60 DUP3 ADD MSTORE DUP3 PUSH1 0x80 DUP3 ADD MSTORE DUP3 PUSH1 0xA0 DUP3 ADD MSTORE DUP3 PUSH1 0xC0 DUP3 ADD MSTORE ADD MSTORE DUP5 CALLDATALOAD DUP2 MSTORE PUSH1 0x12 PUSH1 0x20 MSTORE KECCAK256 DUP2 MLOAD SWAP4 PUSH2 0x18DD DUP6 PUSH2 0x2642 JUMP JUMPDEST DUP2 SLOAD DUP6 MSTORE PUSH1 0xFF PUSH1 0x1 DUP4 ADD SLOAD AND SWAP3 PUSH2 0x18F8 PUSH1 0x20 DUP8 ADD SWAP5 DUP6 PUSH2 0x2E92 JUMP JUMPDEST PUSH1 0x2 DUP4 ADD SLOAD SWAP1 DUP1 DUP8 ADD SWAP2 DUP3 MSTORE PUSH1 0x3 DUP5 ADD SLOAD SWAP3 PUSH1 0x60 DUP9 ADD SWAP4 DUP5 MSTORE DUP5 ADD SLOAD SWAP3 PUSH1 0x80 DUP9 ADD SWAP2 PUSH1 0xFF DUP6 AND ISZERO ISZERO DUP4 MSTORE PUSH1 0xA0 DUP10 ADD SWAP4 PUSH1 0x1 DUP1 PUSH1 0xA0 SHL SUB DUP1 SWAP7 PUSH1 0x8 SHR AND DUP6 MSTORE PUSH2 0x1962 PUSH1 0x6 PUSH1 0x5 DUP10 ADD SLOAD SWAP9 PUSH1 0xC0 DUP14 ADD SWAP10 DUP11 MSTORE ADD SLOAD SWAP9 DUP11 DUP13 ADD SWAP10 DUP11 MSTORE DUP4 MLOAD SWAP12 MLOAD DUP13 MSTORE MLOAD PUSH1 0x20 DUP13 ADD SWAP1 PUSH2 0x26E8 JUMP JUMPDEST MLOAD SWAP1 DUP10 ADD MSTORE MLOAD PUSH1 0x60 DUP9 ADD MSTORE MLOAD ISZERO ISZERO PUSH1 0x80 DUP8 ADD MSTORE MLOAD AND PUSH1 0xA0 DUP6 ADD MSTORE MLOAD PUSH1 0xC0 DUP5 ADD MSTORE MLOAD SWAP1 DUP3 ADD MSTORE RETURN JUMPDEST POP POP DUP3 CALLVALUE PUSH2 0x646 JUMPI PUSH1 0x20 SWAP2 DUP3 PUSH1 0x3 NOT CALLDATASIZE ADD SLT PUSH2 0x3BB JUMPI PUSH2 0x19A9 SWAP1 CALLDATALOAD PUSH2 0x3114 JUMP JUMPDEST SWAP1 DUP4 MLOAD SWAP3 DUP1 DUP5 ADD SWAP1 DUP1 DUP6 MSTORE DUP4 MLOAD DUP1 SWAP3 MSTORE DUP1 DUP7 DUP7 ADD SWAP7 DUP4 PUSH1 0x5 SHL DUP8 ADD ADD SWAP5 ADD SWAP3 SWAP6 JUMPDEST DUP3 DUP8 LT PUSH2 0x19D7 JUMPI DUP6 DUP6 SUB DUP7 RETURN JUMPDEST SWAP1 SWAP2 SWAP3 SWAP4 DUP3 DUP1 PUSH2 0x19F3 PUSH1 0x1 SWAP4 PUSH1 0x3F NOT DUP11 DUP3 SUB ADD DUP7 MSTORE DUP9 MLOAD PUSH2 0x25A0 JUMP JUMPDEST SWAP7 ADD SWAP3 ADD SWAP7 ADD SWAP6 SWAP3 SWAP2 SWAP1 SWAP3 PUSH2 0x19CA JUMP JUMPDEST POP POP POP CALLVALUE PUSH2 0x3BB JUMPI PUSH2 0xBE1 PUSH2 0x35A SWAP2 PUSH2 0x1A1B CALLDATASIZE PUSH2 0x26B3 JUMP JUMPDEST SWAP2 SWAP3 MLOAD SWAP3 PUSH2 0x1A28 DUP5 PUSH2 0x265E JUMP JUMPDEST DUP7 DUP5 MSTORE PUSH2 0xBD1 PUSH2 0xBCC DUP5 CALLER PUSH2 0x2B0A JUMP JUMPDEST POP POP SWAP2 CALLVALUE PUSH2 0x646 JUMPI PUSH2 0x1A49 CALLDATASIZE PUSH2 0x270B JUMP JUMPDEST PUSH7 0x38D7EA4C68000 SWAP2 DUP1 DUP4 MUL SWAP3 DUP4 DIV SUB PUSH2 0x1A8D JUMPI PUSH1 0x18 SWAP1 DIV SWAP2 PUSH1 0x1 DUP4 ADD DUP1 SWAP4 GT PUSH2 0x1A7A JUMPI PUSH1 0x20 DUP5 PUSH2 0x15A2 DUP6 DUP6 PUSH2 0x30F2 JUMP JUMPDEST PUSH4 0x4E487B71 PUSH1 0xE0 SHL DUP2 MSTORE PUSH1 0x11 DUP6 MSTORE PUSH1 0x24 SWAP1 REVERT JUMPDEST PUSH4 0x4E487B71 PUSH1 0xE0 SHL DUP4 MSTORE PUSH1 0x11 DUP6 MSTORE PUSH1 0x24 DUP4 REVERT JUMPDEST POP POP SWAP1 CALLVALUE PUSH2 0x2D1 JUMPI PUSH1 0x20 CALLDATASIZE PUSH1 0x3 NOT ADD SLT PUSH2 0x2D1 JUMPI DUP2 CALLDATALOAD PUSH2 0x1ABE PUSH2 0x27F1 JUMP JUMPDEST DUP1 PUSH1 0x19 SSTORE PUSH1 0x18 SLOAD LT PUSH2 0x1ACE JUMPI DUP3 DUP1 RETURN JUMPDEST PUSH1 0x17 SLOAD SWAP2 PUSH1 0x1 DUP4 ADD DUP1 SWAP4 GT PUSH2 0x1B00 JUMPI POP DUP2 PUSH1 0x20 SWAP2 PUSH1 0x0 DUP1 MLOAD PUSH1 0x20 PUSH2 0x325A DUP4 CODECOPY DUP2 MLOAD SWAP2 MSTORE SWAP4 PUSH1 0x17 SSTORE MLOAD SWAP1 DUP2 MSTORE LOG1 CODESIZE DUP1 DUP3 DUP1 RETURN JUMPDEST PUSH4 0x4E487B71 PUSH1 0xE0 SHL DUP5 MSTORE PUSH1 0x11 SWAP1 MSTORE PUSH1 0x24 DUP4 REVERT JUMPDEST SWAP1 POP CALLVALUE PUSH2 0x3B7 JUMPI PUSH1 0x20 CALLDATASIZE PUSH1 0x3 NOT ADD SLT PUSH2 0x3B7 JUMPI DUP3 PUSH2 0x100 SWAP5 DUP4 CALLDATALOAD DUP2 MSTORE PUSH1 0x12 PUSH1 0x20 MSTORE KECCAK256 DUP1 SLOAD SWAP4 PUSH1 0xFF PUSH1 0x1 DUP4 ADD SLOAD AND SWAP4 PUSH1 0x2 DUP4 ADD SLOAD PUSH1 0x3 DUP5 ADD SLOAD SWAP2 DUP5 ADD SLOAD SWAP3 PUSH2 0x1B6D PUSH1 0x6 PUSH1 0x5 DUP8 ADD SLOAD SWAP7 ADD SLOAD SWAP8 DUP3 MLOAD SWAP10 DUP11 MSTORE PUSH1 0x20 DUP11 ADD SWAP1 PUSH2 0x26E8 JUMP JUMPDEST DUP8 ADD MSTORE PUSH1 0x60 DUP7 ADD MSTORE PUSH1 0xFF DUP2 AND ISZERO ISZERO PUSH1 0x80 DUP7 ADD MSTORE PUSH1 0x8 SHR PUSH1 0x1 PUSH1 0x1 PUSH1 0xA0 SHL SUB AND PUSH1 0xA0 DUP6 ADD MSTORE PUSH1 0xC0 DUP5 ADD MSTORE DUP3 ADD MSTORE RETURN JUMPDEST POP POP SWAP2 CALLVALUE PUSH2 0x646 JUMPI PUSH1 0x20 CALLDATASIZE PUSH1 0x3 NOT ADD SLT PUSH2 0x646 JUMPI DUP3 CALLDATALOAD SWAP3 DUP4 LT ISZERO PUSH2 0x646 JUMPI POP PUSH2 0xA61 PUSH1 0x20 SWAP3 PUSH2 0x27D8 JUMP JUMPDEST POP POP POP CALLVALUE PUSH2 0x3BB JUMPI DUP2 PUSH1 0x3 NOT CALLDATASIZE ADD SLT PUSH2 0x3BB JUMPI PUSH1 0x20 SWAP1 PUSH1 0x17 SLOAD SWAP1 MLOAD SWAP1 DUP2 MSTORE RETURN JUMPDEST DUP5 CALLVALUE PUSH2 0x646 JUMPI PUSH2 0x35A PUSH2 0x1BF7 CALLDATASIZE PUSH2 0x26B3 JUMP JUMPDEST SWAP2 PUSH2 0x1C05 PUSH2 0xBCC DUP5 CALLER PUSH2 0x2B0A JUMP JUMPDEST PUSH2 0x2BD2 JUMP JUMPDEST DUP3 DUP6 DUP6 CALLVALUE PUSH2 0x3BB JUMPI DUP1 PUSH1 0x3 NOT CALLDATASIZE ADD SLT PUSH2 0x3BB JUMPI PUSH1 0x24 SWAP3 DUP4 CALLDATALOAD SWAP1 DUP1 CALLDATALOAD SWAP1 PUSH1 0x1 PUSH1 0x1 PUSH1 0x40 SHL SUB DUP4 GT PUSH2 0x2288 JUMPI CALLDATASIZE PUSH1 0x23 DUP5 ADD SLT ISZERO PUSH2 0x2288 JUMPI DUP3 DUP2 ADD CALLDATALOAD SWAP1 PUSH2 0x1C4D DUP3 PUSH2 0x269C JUMP JUMPDEST SWAP7 PUSH2 0x1C5A DUP7 MLOAD SWAP9 DUP10 PUSH2 0x2679 JUMP JUMPDEST DUP3 DUP9 MSTORE PUSH1 0x20 SWAP5 DUP6 DUP10 ADD DUP3 DUP2 SWAP6 PUSH1 0x5 SHL DUP4 ADD ADD SWAP2 CALLDATASIZE DUP4 GT PUSH2 0x8F4 JUMPI DUP4 DUP9 SWAP2 ADD SWAP2 JUMPDEST DUP4 DUP4 LT PUSH2 0x2278 JUMPI POP PUSH1 0x1 PUSH1 0x1 PUSH1 0xA0 SHL SUB SWAP3 POP POP PUSH32 0x0 DUP3 AND SWAP1 POP CALLER DUP2 SWAP1 SUB PUSH2 0x225B JUMPI POP DUP5 DUP9 MSTORE PUSH1 0x16 DUP7 MSTORE DUP7 DUP9 KECCAK256 DUP8 MLOAD SWAP5 PUSH2 0x1CD1 DUP7 PUSH2 0x2611 JUMP JUMPDEST DUP2 SLOAD SWAP2 PUSH1 0xFF DUP4 AND PUSH1 0x3 DUP2 LT ISZERO PUSH2 0x2249 JUMPI DUP8 MSTORE DUP4 DUP10 DUP9 ADD SWAP4 PUSH1 0x8 SHR AND DUP4 MSTORE PUSH1 0x1 SWAP12 PUSH1 0x2 DUP14 DUP4 ADD SLOAD SWAP3 DUP13 DUP11 ADD SWAP4 DUP5 MSTORE ADD SLOAD SWAP3 PUSH1 0x60 DUP10 ADD SWAP2 PUSH2 0x1D13 PUSH1 0xFF DUP7 AND DUP5 PUSH2 0x2E92 JUMP JUMPDEST PUSH2 0x1D27 PUSH1 0xFF PUSH1 0x80 DUP13 ADD SWAP7 PUSH1 0x8 SHR AND DUP7 PUSH2 0x2E92 JUMP JUMPDEST MLOAD ISZERO PUSH2 0x2237 JUMPI MLOAD SWAP8 DUP1 MLOAD PUSH1 0x3 DUP2 LT ISZERO PUSH2 0x2225 JUMPI PUSH2 0x1F4C JUMPI POP POP POP POP MLOAD AND SWAP3 DUP4 DUP9 MSTORE PUSH1 0x13 DUP7 MSTORE DUP7 DUP9 KECCAK256 SWAP1 DUP8 MLOAD DUP1 DUP4 DUP10 DUP3 SWAP6 SLOAD SWAP4 DUP5 DUP2 MSTORE ADD SWAP1 DUP13 MSTORE DUP10 DUP13 KECCAK256 SWAP3 DUP14 DUP14 JUMPDEST DUP13 DUP4 DUP3 LT PUSH2 0x1F36 JUMPI POP POP POP POP PUSH2 0x1D7F SWAP3 POP SUB DUP4 PUSH2 0x2679 JUMP JUMPDEST DUP2 MLOAD ISZERO PUSH2 0x1F00 JUMPI DUP2 MLOAD PUSH2 0x1D91 SWAP2 PUSH2 0x30AF JUMP JUMPDEST DUP2 MLOAD DUP2 LT ISZERO PUSH2 0x1EEE JUMPI SWAP1 DUP7 SWAP2 PUSH1 0x5 SHL ADD ADD MLOAD SWAP2 DUP3 DUP9 MSTORE PUSH1 0x12 DUP7 MSTORE DUP7 DUP9 KECCAK256 SWAP2 DUP2 DUP4 ADD DUP1 SLOAD PUSH2 0x1DC0 PUSH1 0xFF DUP3 AND PUSH2 0x3035 JUMP JUMPDEST PUSH1 0xFF NOT AND SWAP1 SSTORE PUSH2 0x1DF4 PUSH1 0xFF DUP12 PUSH2 0x1DEB PUSH2 0x1DE2 PUSH1 0x2 DUP9 ADD SLOAD PUSH1 0x3 DUP10 ADD SLOAD SWAP1 PUSH2 0x30F2 JUMP JUMPDEST PUSH1 0x17 SLOAD SWAP1 PUSH2 0x30F2 JUMP JUMPDEST SWAP6 ADD SLOAD AND PUSH2 0x27D8 JUMP JUMPDEST PUSH2 0x1DFF DUP5 DUP3 SLOAD PUSH2 0x30CF JUMP JUMPDEST SWAP1 SSTORE DUP9 DUP10 JUMPDEST DUP4 DUP2 LT PUSH2 0x1ECB JUMPI POP PUSH1 0x32 DUP2 MOD ISZERO SWAP1 DUP2 PUSH2 0x1EC1 JUMPI JUMPDEST POP PUSH2 0x1E56 JUMPI JUMPDEST POP POP SWAP4 DUP7 SWAP8 SWAP5 SWAP4 DUP7 SWAP4 PUSH1 0x16 SWAP4 PUSH1 0x0 DUP1 MLOAD PUSH1 0x20 PUSH2 0x31DA DUP4 CODECOPY DUP2 MLOAD SWAP2 MSTORE DUP5 DUP12 SWAP9 PUSH1 0x2 SWAP12 MLOAD SWAP1 DUP2 MSTORE LOG3 JUMPDEST DUP5 MSTORE MSTORE DUP2 KECCAK256 SWAP2 DUP2 DUP4 SSTORE DUP3 ADD SSTORE ADD SSTORE DUP1 RETURN JUMPDEST PUSH1 0x17 SLOAD SWAP2 DUP11 DUP4 ADD DUP1 SWAP4 GT PUSH2 0x1EB0 JUMPI POP POP SWAP4 PUSH1 0x2 SWAP7 SWAP4 PUSH1 0x16 SWAP4 PUSH1 0x0 DUP1 MLOAD PUSH1 0x20 PUSH2 0x31DA DUP4 CODECOPY DUP2 MLOAD SWAP2 MSTORE DUP9 DUP1 SWAP6 PUSH1 0x0 DUP1 MLOAD PUSH1 0x20 PUSH2 0x325A DUP4 CODECOPY DUP2 MLOAD SWAP2 MSTORE DUP14 SWAP15 SWAP12 DUP12 DUP16 SWAP13 PUSH1 0x17 SSTORE DUP12 MLOAD SWAP1 DUP2 MSTORE LOG1 SWAP6 POP SWAP9 SWAP12 POP POP SWAP4 POP SWAP4 SWAP7 DUP2 SWAP6 POP PUSH2 0x1E1E JUMP JUMPDEST PUSH4 0x4E487B71 PUSH1 0xE0 SHL DUP11 MSTORE PUSH1 0x11 SWAP1 MSTORE DUP9 REVERT JUMPDEST SWAP1 POP ISZERO ISZERO DUP12 PUSH2 0x1E18 JUMP JUMPDEST SWAP1 PUSH2 0x1EE3 PUSH2 0x1EE9 SWAP2 PUSH2 0x1EDC DUP5 PUSH2 0x27D8 JUMP JUMPDEST SLOAD SWAP1 PUSH2 0x30CF JUMP JUMPDEST SWAP2 PUSH2 0x3105 JUMP JUMPDEST PUSH2 0x1E04 JUMP JUMPDEST PUSH4 0x4E487B71 PUSH1 0xE0 SHL DUP10 MSTORE PUSH1 0x32 DUP5 MSTORE DUP3 DUP10 REVERT JUMPDEST DUP8 MLOAD PUSH3 0x461BCD PUSH1 0xE5 SHL DUP2 MSTORE DUP1 DUP6 ADD DUP9 SWAP1 MSTORE PUSH1 0x11 DUP2 DUP6 ADD MSTORE PUSH17 0x4E6F20636C75657320746F20736F6C7665 PUSH1 0x78 SHL PUSH1 0x44 DUP3 ADD MSTORE PUSH1 0x64 SWAP1 REVERT JUMPDEST DUP7 SLOAD DUP6 MSTORE SWAP6 DUP3 ADD SWAP6 DUP9 SWAP6 POP SWAP1 SWAP4 ADD SWAP3 DUP2 ADD PUSH2 0x1D67 JUMP JUMPDEST DUP1 SWAP14 SWAP12 SWAP11 SWAP10 SWAP14 SWAP9 SWAP5 SWAP2 SWAP7 SWAP3 SWAP8 SWAP4 SWAP9 MLOAD PUSH1 0x3 DUP2 LT ISZERO PUSH2 0x2213 JUMPI DUP13 SUB PUSH2 0x20C0 JUMPI POP DUP5 SWAP1 MLOAD AND SWAP6 MLOAD SWAP5 MLOAD SWAP7 DUP3 DUP9 LT ISZERO PUSH2 0x20AE JUMPI MLOAD SWAP3 DUP3 DUP5 LT ISZERO PUSH2 0x20AE JUMPI PUSH1 0x64 PUSH1 0x19 SWAP2 MOD LT PUSH1 0x0 EQ PUSH2 0x202F JUMPI PUSH2 0x1FAA PUSH1 0x5 PUSH2 0x1FA2 DUP10 PUSH2 0x27D8 JUMP JUMPDEST SLOAD DIV SWAP8 PUSH2 0x27D8 JUMP JUMPDEST SWAP1 DUP2 SLOAD SWAP3 DUP9 DUP5 SUB SWAP4 DUP5 GT PUSH2 0x201E JUMPI POP POP SWAP4 PUSH32 0x3E08524A3CA89A9869FE5C88A516BB9ABF6DA6E25A77584B709905DAD369E3BB DUP9 DUP13 SWAP14 SWAP6 DUP13 PUSH2 0x2006 DUP16 SWAP13 SWAP10 SWAP12 PUSH1 0x2 SWAP16 SWAP15 SWAP13 DUP2 SWAP10 PUSH1 0x16 SWAP14 SWAP10 PUSH2 0x1FFD SWAP3 SSTORE PUSH2 0x27D8 JUMP JUMPDEST SWAP3 SHR DUP3 SLOAD PUSH2 0x30CF JUMP JUMPDEST SWAP1 SSTORE PUSH2 0x2011 DUP5 PUSH2 0x2907 JUMP JUMPDEST AND SWAP5 DUP10 MLOAD SWAP1 DUP2 MSTORE LOG4 PUSH2 0x1E45 JUMP JUMPDEST PUSH4 0x4E487B71 PUSH1 0xE0 SHL DUP14 MSTORE PUSH1 0x11 SWAP1 MSTORE DUP12 REVERT JUMPDEST SWAP2 POP SWAP2 SWAP3 SWAP5 PUSH2 0x2042 SWAP1 SWAP11 SWAP7 SWAP8 SWAP9 SWAP11 PUSH2 0x27BF JUMP JUMPDEST SWAP1 DUP2 SLOAD SWAP3 PUSH7 0x38D7EA4C68000 DUP5 ADD DUP1 SWAP5 GT PUSH2 0x209D JUMPI POP POP SWAP4 PUSH1 0x16 SWAP4 DUP10 SWAP11 SWAP8 SWAP4 DUP11 SWAP8 SWAP4 PUSH1 0x2 SWAP11 SWAP8 SSTORE PUSH2 0x2072 DUP4 PUSH2 0x2907 JUMP JUMPDEST AND SWAP2 PUSH32 0x460A40AF6A0B4382C4115E6C523631D74E3541C509050116CFA2F8D20434C07 DUP9 DUP1 LOG4 PUSH2 0x1E45 JUMP JUMPDEST PUSH4 0x4E487B71 PUSH1 0xE0 SHL DUP12 MSTORE PUSH1 0x11 SWAP1 MSTORE DUP10 REVERT JUMPDEST POP PUSH4 0x4E487B71 PUSH1 0xE0 SHL DUP12 MSTORE PUSH1 0x21 DUP3 MSTORE DUP11 REVERT JUMPDEST SWAP4 SWAP13 SWAP8 POP POP SWAP4 POP SWAP2 POP MLOAD PUSH1 0x3 DUP2 LT ISZERO PUSH2 0x2201 JUMPI PUSH1 0x2 EQ PUSH2 0x20EF JUMPI JUMPDEST POP POP POP DUP5 SWAP6 POP SWAP2 PUSH1 0x16 DUP6 SWAP3 PUSH1 0x2 SWAP6 SWAP5 PUSH2 0x1E45 JUMP JUMPDEST PUSH1 0x9 SWAP8 SWAP7 SWAP8 SLOAD SWAP1 DUP2 ISZERO PUSH2 0x21CD JUMPI PUSH2 0x210A DUP3 DUP11 SWAP12 SWAP11 SWAP10 SWAP11 PUSH2 0x30AF JUMP JUMPDEST SWAP10 JUMPDEST PUSH2 0x2169 JUMPI JUMPDEST POP POP POP DUP3 PUSH1 0x2 SWAP6 SWAP5 SWAP3 DUP8 SWAP9 PUSH32 0x53950926DB88885E84E7E32DE4E3B23C573CC05634C6A42381BAD5A3BE2DC0ED DUP10 SWAP7 PUSH2 0x214C PUSH1 0x16 SWAP7 MLOAD TIMESTAMP PUSH2 0x30CF JUMP JUMPDEST DUP4 DUP10 MSTORE PUSH1 0xF DUP3 MSTORE DUP1 DUP9 DUP11 KECCAK256 SSTORE DUP8 MLOAD SWAP1 DUP2 MSTORE LOG2 SWAP3 SWAP5 SWAP6 DUP2 SWAP5 POP PUSH2 0x20DB JUMP JUMPDEST PUSH2 0x2175 DUP11 SWAP10 SWAP9 SWAP10 PUSH2 0x2CCE JUMP JUMPDEST ISZERO DUP1 ISZERO PUSH2 0x21BA JUMPI JUMPDEST ISZERO PUSH2 0x21B2 JUMPI DUP9 DUP11 ADD DUP1 SWAP11 GT PUSH2 0x21A0 JUMPI PUSH2 0x219A DUP3 DUP11 SWAP12 SWAP11 SWAP10 SWAP11 PUSH2 0x30AF JUMP JUMPDEST SWAP10 PUSH2 0x210C JUMP JUMPDEST PUSH4 0x4E487B71 PUSH1 0xE0 SHL DUP9 MSTORE PUSH1 0x11 SWAP1 MSTORE DUP2 DUP8 REVERT JUMPDEST SWAP8 SWAP7 SWAP8 PUSH2 0x2111 JUMP JUMPDEST POP DUP10 DUP9 MSTORE PUSH1 0x10 DUP7 MSTORE DUP7 DUP9 KECCAK256 SLOAD TIMESTAMP LT PUSH2 0x217D JUMP JUMPDEST DUP7 MLOAD PUSH3 0x461BCD PUSH1 0xE5 SHL DUP2 MSTORE SWAP1 DUP2 ADD DUP7 SWAP1 MSTORE PUSH1 0xF DUP2 DUP5 ADD MSTORE PUSH15 0x139BC81D1BDAD95B9CC8195E1A5CDD PUSH1 0x8A SHL PUSH1 0x44 DUP3 ADD MSTORE PUSH1 0x64 SWAP1 REVERT JUMPDEST POP PUSH4 0x4E487B71 PUSH1 0xE0 SHL DUP9 MSTORE PUSH1 0x21 SWAP1 MSTORE DUP7 REVERT JUMPDEST PUSH4 0x4E487B71 PUSH1 0xE0 SHL DUP15 MSTORE PUSH1 0x21 DUP6 MSTORE DUP4 DUP15 REVERT JUMPDEST PUSH4 0x4E487B71 PUSH1 0xE0 SHL DUP15 MSTORE PUSH1 0x21 DUP10 MSTORE DUP8 DUP15 REVERT JUMPDEST PUSH4 0x4E487B71 PUSH1 0xE0 SHL DUP14 MSTORE PUSH1 0x32 DUP9 MSTORE DUP7 DUP14 REVERT JUMPDEST PUSH4 0x4E487B71 PUSH1 0xE0 SHL DUP13 MSTORE PUSH1 0x21 DUP8 MSTORE DUP6 DUP13 REVERT JUMPDEST DUP8 MLOAD PUSH4 0x73E64FD PUSH1 0xE2 SHL DUP2 MSTORE CALLER DUP2 DUP7 ADD MSTORE DUP1 DUP5 ADD SWAP2 SWAP1 SWAP2 MSTORE PUSH1 0x44 SWAP1 REVERT JUMPDEST DUP3 CALLDATALOAD DUP2 MSTORE SWAP2 DUP2 ADD SWAP2 DUP9 SWAP2 ADD PUSH2 0x1C7A JUMP JUMPDEST DUP5 DUP1 REVERT JUMPDEST POP POP POP CALLVALUE PUSH2 0x3BB JUMPI DUP2 PUSH1 0x3 NOT CALLDATASIZE ADD SLT PUSH2 0x3BB JUMPI PUSH1 0x20 SWAP1 PUSH1 0x19 SLOAD SWAP1 MLOAD SWAP1 DUP2 MSTORE RETURN JUMPDEST POP POP CALLVALUE PUSH2 0x2D1 JUMPI DUP2 PUSH1 0x3 NOT CALLDATASIZE ADD SLT PUSH2 0x2D1 JUMPI PUSH2 0x22C6 PUSH2 0x25E0 JUMP JUMPDEST PUSH1 0x24 CALLDATALOAD SWAP3 SWAP1 SWAP2 PUSH1 0x1 PUSH1 0x1 PUSH1 0xA0 SHL SUB SWAP2 SWAP1 DUP3 DUP1 PUSH2 0x22E1 DUP8 PUSH2 0x2907 JUMP JUMPDEST AND SWAP5 AND SWAP4 DUP1 DUP6 EQ PUSH2 0x23CD JUMPI DUP1 CALLER EQ SWAP1 DUP2 ISZERO PUSH2 0x23AE JUMPI JUMPDEST POP ISZERO PUSH2 0x2346 JUMPI DUP5 DUP7 MSTORE PUSH1 0x20 MSTORE DUP5 KECCAK256 DUP1 SLOAD PUSH1 0x1 PUSH1 0x1 PUSH1 0xA0 SHL SUB NOT AND DUP4 OR SWAP1 SSTORE PUSH2 0x231E DUP4 PUSH2 0x2907 JUMP JUMPDEST AND PUSH32 0x8C5BE1E5EBEC7D5BD14F71427D1E84F3DD0314C0F7B2291E5B200AC8C7C3B925 DUP5 DUP1 LOG4 DUP1 RETURN JUMPDEST PUSH1 0x20 PUSH1 0x84 SWAP3 MLOAD SWAP2 PUSH3 0x461BCD PUSH1 0xE5 SHL DUP4 MSTORE DUP3 ADD MSTORE PUSH1 0x3D PUSH1 0x24 DUP3 ADD MSTORE PUSH32 0x4552433732313A20617070726F76652063616C6C6572206973206E6F7420746F PUSH1 0x44 DUP3 ADD MSTORE PUSH32 0x6B656E206F776E6572206F7220617070726F76656420666F7220616C6C000000 PUSH1 0x64 DUP3 ADD MSTORE REVERT JUMPDEST SWAP1 POP DUP7 MSTORE PUSH1 0x5 PUSH1 0x20 MSTORE DUP2 DUP7 KECCAK256 CALLER DUP8 MSTORE PUSH1 0x20 MSTORE PUSH1 0xFF DUP3 DUP8 KECCAK256 SLOAD AND CODESIZE PUSH2 0x22F7 JUMP JUMPDEST POP PUSH1 0x20 PUSH1 0x84 SWAP3 MLOAD SWAP2 PUSH3 0x461BCD PUSH1 0xE5 SHL DUP4 MSTORE DUP3 ADD MSTORE PUSH1 0x21 PUSH1 0x24 DUP3 ADD MSTORE PUSH32 0x4552433732313A20617070726F76616C20746F2063757272656E74206F776E65 PUSH1 0x44 DUP3 ADD MSTORE PUSH1 0x39 PUSH1 0xF9 SHL PUSH1 0x64 DUP3 ADD MSTORE REVERT JUMPDEST POP POP SWAP2 CALLVALUE PUSH2 0x646 JUMPI PUSH1 0x20 CALLDATASIZE PUSH1 0x3 NOT ADD SLT PUSH2 0x646 JUMPI POP PUSH2 0x1817 PUSH1 0x20 SWAP3 CALLDATALOAD PUSH2 0x2A0A JUMP JUMPDEST POP POP POP CALLVALUE PUSH2 0x3BB JUMPI DUP2 PUSH1 0x3 NOT CALLDATASIZE ADD SLT PUSH2 0x3BB JUMPI DUP1 MLOAD SWAP1 DUP3 DUP1 SLOAD PUSH2 0x245D DUP2 PUSH2 0x292A JUMP JUMPDEST DUP1 DUP6 MSTORE SWAP1 PUSH1 0x1 SWAP1 DUP2 DUP2 AND SWAP1 DUP2 ISZERO PUSH2 0x11C5 JUMPI POP PUSH1 0x1 EQ PUSH2 0x2488 JUMPI POP POP POP PUSH2 0x1178 DUP3 PUSH2 0xAC4 SWAP5 SUB DUP4 PUSH2 0x2679 JUMP JUMPDEST SWAP5 POP DUP2 DUP1 MSTORE PUSH1 0x20 SWAP5 DUP6 DUP4 KECCAK256 JUMPDEST DUP3 DUP5 LT PUSH2 0x24B0 JUMPI POP POP POP DUP3 PUSH2 0xAC4 SWAP5 PUSH2 0x1178 SWAP3 DUP3 ADD ADD SWAP5 PUSH2 0x1166 JUMP JUMPDEST DUP1 SLOAD DUP7 DUP6 ADD DUP9 ADD MSTORE SWAP3 DUP7 ADD SWAP3 DUP2 ADD PUSH2 0x2494 JUMP JUMPDEST DUP3 DUP6 DUP6 CALLVALUE PUSH2 0x3BB JUMPI PUSH1 0x20 CALLDATASIZE PUSH1 0x3 NOT ADD SLT PUSH2 0x3BB JUMPI PUSH1 0x18 DUP4 CALLDATALOAD DIV SWAP2 PUSH1 0x1 DUP4 ADD DUP1 SWAP4 GT PUSH2 0x2506 JUMPI PUSH7 0x71AFD498D0000 SWAP3 DUP1 DUP5 MUL SWAP4 DUP5 DIV SUB PUSH2 0x2506 JUMPI PUSH1 0x20 DUP4 DUP4 MLOAD SWAP1 DUP2 MSTORE RETURN JUMPDEST PUSH4 0x4E487B71 PUSH1 0xE0 SHL DUP2 MSTORE PUSH1 0x11 DUP5 MSTORE PUSH1 0x24 SWAP1 REVERT JUMPDEST SWAP4 POP POP POP CALLVALUE PUSH2 0x2D1 JUMPI PUSH1 0x20 CALLDATASIZE PUSH1 0x3 NOT ADD SLT PUSH2 0x2D1 JUMPI CALLDATALOAD PUSH4 0xFFFFFFFF PUSH1 0xE0 SHL DUP2 AND DUP1 SWAP2 SUB PUSH2 0x2D1 JUMPI PUSH1 0x20 SWAP3 POP PUSH4 0x24832483 PUSH1 0xE1 SHL DUP2 EQ SWAP1 DUP2 ISZERO PUSH2 0x255D JUMPI JUMPDEST POP ISZERO ISZERO DUP2 MSTORE RETURN JUMPDEST PUSH4 0x80AC58CD PUSH1 0xE0 SHL DUP2 EQ SWAP2 POP DUP2 ISZERO PUSH2 0x258F JUMPI JUMPDEST DUP2 ISZERO PUSH2 0x257E JUMPI JUMPDEST POP CODESIZE PUSH2 0x2556 JUMP JUMPDEST PUSH4 0x1FFC9A7 PUSH1 0xE0 SHL EQ SWAP1 POP CODESIZE PUSH2 0x2577 JUMP JUMPDEST PUSH4 0x5B5E139F PUSH1 0xE0 SHL DUP2 EQ SWAP2 POP PUSH2 0x2570 JUMP JUMPDEST SWAP2 SWAP1 DUP3 MLOAD SWAP3 DUP4 DUP3 MSTORE PUSH1 0x0 JUMPDEST DUP5 DUP2 LT PUSH2 0x25CC JUMPI POP POP DUP3 PUSH1 0x0 PUSH1 0x20 DUP1 SWAP5 SWAP6 DUP5 ADD ADD MSTORE PUSH1 0x1F DUP1 NOT SWAP2 ADD AND ADD ADD SWAP1 JUMP JUMPDEST PUSH1 0x20 DUP2 DUP4 ADD DUP2 ADD MLOAD DUP5 DUP4 ADD DUP3 ADD MSTORE ADD PUSH2 0x25AB JUMP JUMPDEST PUSH1 0x4 CALLDATALOAD SWAP1 PUSH1 0x1 PUSH1 0x1 PUSH1 0xA0 SHL SUB DUP3 AND DUP3 SUB PUSH2 0x25F6 JUMPI JUMP JUMPDEST PUSH1 0x0 DUP1 REVERT JUMPDEST PUSH1 0x24 CALLDATALOAD SWAP1 PUSH1 0x1 PUSH1 0x1 PUSH1 0xA0 SHL SUB DUP3 AND DUP3 SUB PUSH2 0x25F6 JUMPI JUMP JUMPDEST PUSH1 0xA0 DUP2 ADD SWAP1 DUP2 LT PUSH1 0x1 PUSH1 0x1 PUSH1 0x40 SHL SUB DUP3 GT OR PUSH2 0x262C JUMPI PUSH1 0x40 MSTORE JUMP JUMPDEST PUSH4 0x4E487B71 PUSH1 0xE0 SHL PUSH1 0x0 MSTORE PUSH1 0x41 PUSH1 0x4 MSTORE PUSH1 0x24 PUSH1 0x0 REVERT JUMPDEST PUSH2 0x100 DUP2 ADD SWAP1 DUP2 LT PUSH1 0x1 PUSH1 0x1 PUSH1 0x40 SHL SUB DUP3 GT OR PUSH2 0x262C JUMPI PUSH1 0x40 MSTORE JUMP JUMPDEST PUSH1 0x20 DUP2 ADD SWAP1 DUP2 LT PUSH1 0x1 PUSH1 0x1 PUSH1 0x40 SHL SUB DUP3 GT OR PUSH2 0x262C JUMPI PUSH1 0x40 MSTORE JUMP JUMPDEST PUSH1 0x1F SWAP1 SWAP2 ADD PUSH1 0x1F NOT AND DUP2 ADD SWAP1 PUSH1 0x1 PUSH1 0x1 PUSH1 0x40 SHL SUB DUP3 GT SWAP1 DUP3 LT OR PUSH2 0x262C JUMPI PUSH1 0x40 MSTORE JUMP JUMPDEST PUSH1 0x1 PUSH1 0x1 PUSH1 0x40 SHL SUB DUP2 GT PUSH2 0x262C JUMPI PUSH1 0x5 SHL PUSH1 0x20 ADD SWAP1 JUMP JUMPDEST PUSH1 0x60 SWAP1 PUSH1 0x3 NOT ADD SLT PUSH2 0x25F6 JUMPI PUSH1 0x1 PUSH1 0x1 PUSH1 0xA0 SHL SUB SWAP1 PUSH1 0x4 CALLDATALOAD DUP3 DUP2 AND DUP2 SUB PUSH2 0x25F6 JUMPI SWAP2 PUSH1 0x24 CALLDATALOAD SWAP1 DUP2 AND DUP2 SUB PUSH2 0x25F6 JUMPI SWAP1 PUSH1 0x44 CALLDATALOAD SWAP1 JUMP JUMPDEST SWAP1 PUSH1 0x4 DUP3 LT ISZERO PUSH2 0x26F5 JUMPI MSTORE JUMP JUMPDEST PUSH4 0x4E487B71 PUSH1 0xE0 SHL PUSH1 0x0 MSTORE PUSH1 0x21 PUSH1 0x4 MSTORE PUSH1 0x24 PUSH1 0x0 REVERT JUMPDEST PUSH1 0x40 SWAP1 PUSH1 0x3 NOT ADD SLT PUSH2 0x25F6 JUMPI PUSH1 0x4 CALLDATALOAD SWAP1 PUSH1 0x24 CALLDATALOAD SWAP1 JUMP JUMPDEST DUP1 SLOAD DUP3 LT ISZERO PUSH2 0x2739 JUMPI PUSH1 0x0 MSTORE PUSH1 0x20 PUSH1 0x0 KECCAK256 ADD SWAP1 PUSH1 0x0 SWAP1 JUMP JUMPDEST PUSH4 0x4E487B71 PUSH1 0xE0 SHL PUSH1 0x0 MSTORE PUSH1 0x32 PUSH1 0x4 MSTORE PUSH1 0x24 PUSH1 0x0 REVERT JUMPDEST PUSH1 0x1 PUSH1 0x1 PUSH1 0x40 SHL SUB DUP2 GT PUSH2 0x262C JUMPI PUSH1 0x1F ADD PUSH1 0x1F NOT AND PUSH1 0x20 ADD SWAP1 JUMP JUMPDEST SWAP3 SWAP2 SWAP3 PUSH2 0x2776 DUP3 PUSH2 0x274F JUMP JUMPDEST SWAP2 PUSH2 0x2784 PUSH1 0x40 MLOAD SWAP4 DUP5 PUSH2 0x2679 JUMP JUMPDEST DUP3 SWAP5 DUP2 DUP5 MSTORE DUP2 DUP4 ADD GT PUSH2 0x25F6 JUMPI DUP3 DUP2 PUSH1 0x20 SWAP4 DUP5 PUSH1 0x0 SWAP7 ADD CALLDATACOPY ADD ADD MSTORE JUMP JUMPDEST SWAP1 DUP1 PUSH1 0x1F DUP4 ADD SLT ISZERO PUSH2 0x25F6 JUMPI DUP2 PUSH1 0x20 PUSH2 0x27BC SWAP4 CALLDATALOAD SWAP2 ADD PUSH2 0x276A JUMP JUMPDEST SWAP1 JUMP JUMPDEST PUSH1 0x4 DUP2 LT ISZERO PUSH2 0x26F5 JUMPI PUSH1 0x0 MSTORE PUSH1 0x15 PUSH1 0x20 MSTORE PUSH1 0x40 PUSH1 0x0 KECCAK256 SWAP1 JUMP JUMPDEST PUSH1 0x4 DUP2 LT ISZERO PUSH2 0x26F5 JUMPI PUSH1 0x0 MSTORE PUSH1 0x14 PUSH1 0x20 MSTORE PUSH1 0x40 PUSH1 0x0 KECCAK256 SWAP1 JUMP JUMPDEST PUSH1 0x7 SLOAD PUSH1 0x1 PUSH1 0x1 PUSH1 0xA0 SHL SUB AND CALLER SUB PUSH2 0x2805 JUMPI JUMP JUMPDEST PUSH1 0x64 PUSH1 0x40 MLOAD PUSH3 0x461BCD PUSH1 0xE5 SHL DUP2 MSTORE PUSH1 0x20 PUSH1 0x4 DUP3 ADD MSTORE PUSH1 0x20 PUSH1 0x24 DUP3 ADD MSTORE PUSH32 0x4F776E61626C653A2063616C6C6572206973206E6F7420746865206F776E6572 PUSH1 0x44 DUP3 ADD MSTORE REVERT JUMPDEST PUSH1 0x1 PUSH1 0x1 PUSH1 0xA0 SHL SUB AND DUP1 ISZERO PUSH2 0x2869 JUMPI PUSH1 0x0 MSTORE PUSH1 0x3 PUSH1 0x20 MSTORE PUSH1 0x40 PUSH1 0x0 KECCAK256 SLOAD SWAP1 JUMP JUMPDEST PUSH1 0x40 MLOAD PUSH3 0x461BCD PUSH1 0xE5 SHL DUP2 MSTORE PUSH1 0x20 PUSH1 0x4 DUP3 ADD MSTORE PUSH1 0x29 PUSH1 0x24 DUP3 ADD MSTORE PUSH32 0x4552433732313A2061646472657373207A65726F206973206E6F742061207661 PUSH1 0x44 DUP3 ADD MSTORE PUSH9 0x3634B21037BBB732B9 PUSH1 0xB9 SHL PUSH1 0x64 DUP3 ADD MSTORE PUSH1 0x84 SWAP1 REVERT JUMPDEST ISZERO PUSH2 0x28C7 JUMPI JUMP JUMPDEST PUSH1 0x40 MLOAD PUSH3 0x461BCD PUSH1 0xE5 SHL DUP2 MSTORE PUSH1 0x20 PUSH1 0x4 DUP3 ADD MSTORE PUSH1 0x18 PUSH1 0x24 DUP3 ADD MSTORE PUSH24 0x115490CDCC8C4E881A5B9D985B1A59081D1BDAD95B881251 PUSH1 0x42 SHL PUSH1 0x44 DUP3 ADD MSTORE PUSH1 0x64 SWAP1 REVERT JUMPDEST PUSH1 0x0 SWAP1 DUP2 MSTORE PUSH1 0x2 PUSH1 0x20 MSTORE PUSH1 0x40 SWAP1 KECCAK256 SLOAD PUSH1 0x1 PUSH1 0x1 PUSH1 0xA0 SHL SUB AND PUSH2 0x27BC DUP2 ISZERO ISZERO PUSH2 0x28C0 JUMP JUMPDEST SWAP1 PUSH1 0x1 DUP3 DUP2 SHR SWAP3 AND DUP1 ISZERO PUSH2 0x295A JUMPI JUMPDEST PUSH1 0x20 DUP4 LT EQ PUSH2 0x2944 JUMPI JUMP JUMPDEST PUSH4 0x4E487B71 PUSH1 0xE0 SHL PUSH1 0x0 MSTORE PUSH1 0x22 PUSH1 0x4 MSTORE PUSH1 0x24 PUSH1 0x0 REVERT JUMPDEST SWAP2 PUSH1 0x7F AND SWAP2 PUSH2 0x2939 JUMP JUMPDEST SWAP1 PUSH1 0x40 MLOAD SWAP2 DUP3 PUSH1 0x0 DUP3 SLOAD SWAP3 PUSH2 0x2978 DUP5 PUSH2 0x292A JUMP JUMPDEST SWAP1 DUP2 DUP5 MSTORE PUSH1 0x1 SWAP5 DUP6 DUP2 AND SWAP1 DUP2 PUSH1 0x0 EQ PUSH2 0x29E7 JUMPI POP PUSH1 0x1 EQ PUSH2 0x29A4 JUMPI JUMPDEST POP POP PUSH2 0x29A2 SWAP3 POP SUB DUP4 PUSH2 0x2679 JUMP JUMPDEST JUMP JUMPDEST SWAP1 SWAP4 SWAP2 POP PUSH1 0x0 MSTORE PUSH1 0x20 SWAP1 DUP2 PUSH1 0x0 KECCAK256 SWAP4 PUSH1 0x0 SWAP2 JUMPDEST DUP2 DUP4 LT PUSH2 0x29CF JUMPI POP POP PUSH2 0x29A2 SWAP4 POP DUP3 ADD ADD CODESIZE DUP1 PUSH2 0x2994 JUMP JUMPDEST DUP6 SLOAD DUP9 DUP5 ADD DUP6 ADD MSTORE SWAP5 DUP6 ADD SWAP5 DUP8 SWAP5 POP SWAP2 DUP4 ADD SWAP2 PUSH2 0x29B7 JUMP JUMPDEST SWAP2 POP POP PUSH2 0x29A2 SWAP5 POP PUSH1 0x20 SWAP3 POP PUSH1 0xFF NOT AND DUP3 DUP5 ADD MSTORE ISZERO ISZERO PUSH1 0x5 SHL DUP3 ADD ADD CODESIZE DUP1 PUSH2 0x2994 JUMP JUMPDEST PUSH2 0x2A16 PUSH2 0xA8E DUP3 PUSH2 0x2CCE JUMP JUMPDEST PUSH1 0x0 SWAP1 DUP2 MSTORE PUSH1 0x4 PUSH1 0x20 MSTORE PUSH1 0x40 SWAP1 KECCAK256 SLOAD PUSH1 0x1 PUSH1 0x1 PUSH1 0xA0 SHL SUB AND SWAP1 JUMP JUMPDEST ISZERO PUSH2 0x2A38 JUMPI JUMP JUMPDEST PUSH1 0x40 MLOAD PUSH3 0x461BCD PUSH1 0xE5 SHL DUP2 MSTORE PUSH1 0x20 PUSH1 0x4 DUP3 ADD MSTORE PUSH1 0x2D PUSH1 0x24 DUP3 ADD MSTORE PUSH32 0x4552433732313A2063616C6C6572206973206E6F7420746F6B656E206F776E65 PUSH1 0x44 DUP3 ADD MSTORE PUSH13 0x1C881BDC88185C1C1C9BDD9959 PUSH1 0x9A SHL PUSH1 0x64 DUP3 ADD MSTORE PUSH1 0x84 SWAP1 REVERT JUMPDEST PUSH1 0x80 SWAP1 PUSH1 0x20 DUP2 MSTORE PUSH1 0x32 PUSH1 0x20 DUP3 ADD MSTORE PUSH32 0x4552433732313A207472616E7366657220746F206E6F6E204552433732315265 PUSH1 0x40 DUP3 ADD MSTORE PUSH18 0x31B2B4BB32B91034B6B83632B6B2B73A32B9 PUSH1 0x71 SHL PUSH1 0x60 DUP3 ADD MSTORE ADD SWAP1 JUMP JUMPDEST ISZERO PUSH2 0x2AED JUMPI JUMP JUMPDEST PUSH1 0x40 MLOAD PUSH3 0x461BCD PUSH1 0xE5 SHL DUP2 MSTORE DUP1 PUSH2 0x2B06 PUSH1 0x4 DUP3 ADD PUSH2 0x2A93 JUMP JUMPDEST SUB SWAP1 REVERT JUMPDEST SWAP1 PUSH1 0x1 PUSH1 0x1 PUSH1 0xA0 SHL SUB DUP1 DUP1 PUSH2 0x2B1E DUP5 PUSH2 0x2907 JUMP JUMPDEST AND SWAP4 AND SWAP2 DUP4 DUP4 EQ SWAP4 DUP5 ISZERO PUSH2 0x2B51 JUMPI JUMPDEST POP DUP4 ISZERO PUSH2 0x2B3B JUMPI JUMPDEST POP POP POP SWAP1 JUMP JUMPDEST PUSH2 0x2B47 SWAP2 SWAP3 SWAP4 POP PUSH2 0x2A0A JUMP JUMPDEST AND EQ CODESIZE DUP1 DUP1 PUSH2 0x2B35 JUMP JUMPDEST SWAP1 SWAP4 POP PUSH1 0x0 MSTORE PUSH1 0x5 PUSH1 0x20 MSTORE PUSH1 0x40 PUSH1 0x0 KECCAK256 DUP3 PUSH1 0x0 MSTORE PUSH1 0x20 MSTORE PUSH1 0xFF PUSH1 0x40 PUSH1 0x0 KECCAK256 SLOAD AND SWAP3 CODESIZE PUSH2 0x2B2D JUMP JUMPDEST ISZERO PUSH2 0x2B7F JUMPI JUMP JUMPDEST PUSH1 0x40 MLOAD PUSH3 0x461BCD PUSH1 0xE5 SHL DUP2 MSTORE PUSH1 0x20 PUSH1 0x4 DUP3 ADD MSTORE PUSH1 0x25 PUSH1 0x24 DUP3 ADD MSTORE PUSH32 0x4552433732313A207472616E736665722066726F6D20696E636F727265637420 PUSH1 0x44 DUP3 ADD MSTORE PUSH5 0x37BBB732B9 PUSH1 0xD9 SHL PUSH1 0x64 DUP3 ADD MSTORE PUSH1 0x84 SWAP1 REVERT JUMPDEST SWAP1 PUSH2 0x2BFA SWAP2 PUSH2 0x2BE0 DUP5 PUSH2 0x2907 JUMP JUMPDEST PUSH1 0x1 PUSH1 0x1 PUSH1 0xA0 SHL SUB SWAP4 SWAP2 DUP5 AND SWAP3 DUP5 SWAP3 SWAP1 SWAP2 DUP4 AND DUP5 EQ PUSH2 0x2B78 JUMP JUMPDEST AND SWAP2 DUP3 ISZERO PUSH2 0x2C7D JUMPI DUP2 PUSH2 0x2C17 SWAP2 PUSH2 0x2C10 DUP7 PUSH2 0x2907 JUMP JUMPDEST AND EQ PUSH2 0x2B78 JUMP JUMPDEST PUSH1 0x0 DUP1 MLOAD PUSH1 0x20 PUSH2 0x323A DUP4 CODECOPY DUP2 MLOAD SWAP2 MSTORE PUSH1 0x0 DUP5 DUP2 MSTORE PUSH1 0x4 PUSH1 0x20 MSTORE PUSH1 0x40 DUP2 KECCAK256 PUSH1 0x1 DUP1 PUSH1 0xA0 SHL SUB NOT SWAP1 DUP2 DUP2 SLOAD AND SWAP1 SSTORE DUP4 DUP3 MSTORE PUSH1 0x3 PUSH1 0x20 MSTORE PUSH1 0x40 DUP3 KECCAK256 PUSH1 0x0 NOT DUP2 SLOAD ADD SWAP1 SSTORE DUP5 DUP3 MSTORE PUSH1 0x40 DUP3 KECCAK256 PUSH1 0x1 DUP2 SLOAD ADD SWAP1 SSTORE DUP6 DUP3 MSTORE PUSH1 0x2 PUSH1 0x20 MSTORE DUP5 PUSH1 0x40 DUP4 KECCAK256 SWAP2 DUP3 SLOAD AND OR SWAP1 SSTORE DUP1 LOG4 JUMP JUMPDEST PUSH1 0x40 MLOAD PUSH3 0x461BCD PUSH1 0xE5 SHL DUP2 MSTORE PUSH1 0x20 PUSH1 0x4 DUP3 ADD MSTORE PUSH1 0x24 DUP1 DUP3 ADD MSTORE PUSH32 0x4552433732313A207472616E7366657220746F20746865207A65726F20616464 PUSH1 0x44 DUP3 ADD MSTORE PUSH4 0x72657373 PUSH1 0xE0 SHL PUSH1 0x64 DUP3 ADD MSTORE PUSH1 0x84 SWAP1 REVERT JUMPDEST PUSH1 0x0 SWAP1 DUP2 MSTORE PUSH1 0x2 PUSH1 0x20 MSTORE PUSH1 0x40 SWAP1 KECCAK256 SLOAD PUSH1 0x1 PUSH1 0x1 PUSH1 0xA0 SHL SUB AND ISZERO ISZERO SWAP1 JUMP JUMPDEST SWAP2 SWAP3 PUSH1 0x0 SWAP3 SWAP1 SWAP2 SWAP1 DUP1 EXTCODESIZE ISZERO PUSH2 0x2DFD JUMPI PUSH2 0x2D39 SWAP5 PUSH1 0x40 MLOAD DUP1 SWAP3 PUSH4 0xA85BD01 PUSH1 0xE1 SHL SWAP5 DUP6 DUP4 MSTORE CALLER PUSH1 0x4 DUP5 ADD MSTORE DUP8 PUSH1 0x24 DUP5 ADD MSTORE PUSH1 0x44 DUP4 ADD MSTORE PUSH1 0x80 PUSH1 0x64 DUP4 ADD MSTORE DUP2 DUP8 DUP2 PUSH1 0x20 SWAP11 DUP12 SWAP7 PUSH1 0x84 DUP4 ADD SWAP1 PUSH2 0x25A0 JUMP JUMPDEST SUB SWAP3 PUSH1 0x1 PUSH1 0x1 PUSH1 0xA0 SHL SUB AND GAS CALL DUP5 SWAP2 DUP2 PUSH2 0x2DBD JUMPI JUMPDEST POP PUSH2 0x2DAC JUMPI POP POP POP RETURNDATASIZE PUSH1 0x0 EQ PUSH2 0x2DA4 JUMPI RETURNDATASIZE PUSH2 0x2D68 DUP2 PUSH2 0x274F JUMP JUMPDEST SWAP1 PUSH2 0x2D76 PUSH1 0x40 MLOAD SWAP3 DUP4 PUSH2 0x2679 JUMP JUMPDEST DUP2 MSTORE DUP1 SWAP2 DUP4 RETURNDATASIZE SWAP3 ADD RETURNDATACOPY JUMPDEST DUP1 MLOAD SWAP2 DUP3 PUSH2 0x2DA1 JUMPI PUSH1 0x40 MLOAD PUSH3 0x461BCD PUSH1 0xE5 SHL DUP2 MSTORE DUP1 PUSH2 0x2B06 PUSH1 0x4 DUP3 ADD PUSH2 0x2A93 JUMP JUMPDEST ADD REVERT JUMPDEST POP PUSH1 0x60 PUSH2 0x2D80 JUMP JUMPDEST PUSH1 0x1 PUSH1 0x1 PUSH1 0xE0 SHL SUB NOT AND EQ SWAP3 POP SWAP1 POP JUMP JUMPDEST SWAP1 SWAP2 POP DUP6 DUP2 DUP2 RETURNDATASIZE DUP4 GT PUSH2 0x2DF6 JUMPI JUMPDEST PUSH2 0x2DD5 DUP2 DUP4 PUSH2 0x2679 JUMP JUMPDEST DUP2 ADD SUB SLT PUSH2 0x2288 JUMPI MLOAD PUSH1 0x1 PUSH1 0x1 PUSH1 0xE0 SHL SUB NOT DUP2 AND DUP2 SUB PUSH2 0x2288 JUMPI SWAP1 CODESIZE PUSH2 0x2D4E JUMP JUMPDEST POP RETURNDATASIZE PUSH2 0x2DCB JUMP JUMPDEST POP POP SWAP2 POP POP PUSH1 0x1 SWAP1 JUMP JUMPDEST SWAP3 SWAP4 PUSH1 0x0 SWAP4 SWAP1 SWAP3 SWAP2 DUP1 EXTCODESIZE ISZERO PUSH2 0x2E87 JUMPI SWAP5 DUP5 SWAP2 PUSH2 0x2E61 SWAP7 PUSH1 0x40 MLOAD DUP1 SWAP5 DUP2 SWAP4 PUSH4 0xA85BD01 PUSH1 0xE1 SHL SWAP8 DUP9 DUP5 MSTORE CALLER PUSH1 0x4 DUP6 ADD MSTORE PUSH1 0x1 DUP1 PUSH1 0xA0 SHL SUB DUP1 SWAP3 AND PUSH1 0x24 DUP6 ADD MSTORE PUSH1 0x44 DUP5 ADD MSTORE PUSH1 0x80 PUSH1 0x64 DUP5 ADD MSTORE DUP3 PUSH1 0x20 SWAP12 DUP13 SWAP8 PUSH1 0x84 DUP4 ADD SWAP1 PUSH2 0x25A0 JUMP JUMPDEST SUB SWAP4 AND GAS CALL DUP5 SWAP2 DUP2 PUSH2 0x2DBD JUMPI POP PUSH2 0x2DAC JUMPI POP POP POP RETURNDATASIZE PUSH1 0x0 EQ PUSH2 0x2DA4 JUMPI RETURNDATASIZE PUSH2 0x2D68 DUP2 PUSH2 0x274F JUMP JUMPDEST POP POP POP SWAP2 POP POP PUSH1 0x1 SWAP1 JUMP JUMPDEST PUSH1 0x4 DUP3 LT ISZERO PUSH2 0x26F5 JUMPI MSTORE JUMP JUMPDEST SWAP1 PUSH1 0x4 DUP2 LT ISZERO PUSH2 0x26F5 JUMPI PUSH1 0xFF DUP1 NOT DUP4 SLOAD AND SWAP2 AND OR SWAP1 SSTORE JUMP JUMPDEST DUP1 SLOAD PUSH2 0x100 PUSH1 0x1 PUSH1 0xA8 SHL SUB NOT AND PUSH1 0x8 SWAP3 SWAP1 SWAP3 SHL PUSH2 0x100 PUSH1 0x1 PUSH1 0xA8 SHL SUB AND SWAP2 SWAP1 SWAP2 OR SWAP1 SSTORE JUMP JUMPDEST ISZERO PUSH2 0x2EE2 JUMPI JUMP JUMPDEST PUSH1 0x40 MLOAD PUSH3 0x461BCD PUSH1 0xE5 SHL DUP2 MSTORE PUSH1 0x20 PUSH1 0x4 DUP3 ADD MSTORE PUSH1 0x1C PUSH1 0x24 DUP3 ADD MSTORE PUSH28 0x115490CDCC8C4E881D1BDAD95B88185B1C9958591E481B5A5B9D1959 PUSH1 0x22 SHL PUSH1 0x44 DUP3 ADD MSTORE PUSH1 0x64 SWAP1 REVERT JUMPDEST DUP2 MLOAD SWAP2 SWAP3 SWAP2 PUSH1 0x1 PUSH1 0x1 PUSH1 0x40 SHL SUB DUP2 GT PUSH2 0x262C JUMPI PUSH2 0x2F43 DUP3 SLOAD PUSH2 0x292A JUMP JUMPDEST PUSH1 0x1F DUP2 GT PUSH2 0x2FED JUMPI JUMPDEST POP PUSH1 0x20 DUP1 PUSH1 0x1F DUP4 GT PUSH1 0x1 EQ PUSH2 0x2F89 JUMPI POP DUP2 SWAP3 SWAP4 SWAP5 PUSH1 0x0 SWAP3 PUSH2 0x2F7E JUMPI JUMPDEST POP POP DUP2 PUSH1 0x1 SHL SWAP2 PUSH1 0x0 NOT SWAP1 PUSH1 0x3 SHL SHR NOT AND OR SWAP1 SSTORE JUMP JUMPDEST ADD MLOAD SWAP1 POP CODESIZE DUP1 PUSH2 0x2F68 JUMP JUMPDEST SWAP1 PUSH1 0x1F NOT DUP4 AND SWAP6 DUP5 PUSH1 0x0 MSTORE DUP3 PUSH1 0x0 KECCAK256 SWAP3 PUSH1 0x0 SWAP1 JUMPDEST DUP9 DUP3 LT PUSH2 0x2FD5 JUMPI POP POP DUP4 PUSH1 0x1 SWAP6 SWAP7 SWAP8 LT PUSH2 0x2FBC JUMPI JUMPDEST POP POP POP DUP2 SHL ADD SWAP1 SSTORE JUMP JUMPDEST ADD MLOAD PUSH1 0x0 NOT PUSH1 0xF8 DUP5 PUSH1 0x3 SHL AND SHR NOT AND SWAP1 SSTORE CODESIZE DUP1 DUP1 PUSH2 0x2FB2 JUMP JUMPDEST DUP1 PUSH1 0x1 DUP6 SWAP7 DUP3 SWAP5 SWAP7 DUP7 ADD MLOAD DUP2 SSTORE ADD SWAP6 ADD SWAP4 ADD SWAP1 PUSH2 0x2F9D JUMP JUMPDEST PUSH1 0x0 DUP4 DUP2 MSTORE PUSH1 0x20 DUP2 KECCAK256 PUSH1 0x1F DUP5 ADD PUSH1 0x5 SHR DUP2 ADD SWAP3 PUSH1 0x20 DUP6 LT PUSH2 0x302B JUMPI JUMPDEST PUSH1 0x1F ADD PUSH1 0x5 SHR ADD SWAP2 JUMPDEST DUP3 DUP2 LT PUSH2 0x3020 JUMPI POP POP PUSH2 0x2F4C JUMP JUMPDEST DUP2 DUP2 SSTORE PUSH1 0x1 ADD PUSH2 0x3012 JUMP JUMPDEST SWAP1 SWAP3 POP DUP3 SWAP1 PUSH2 0x3009 JUMP JUMPDEST ISZERO PUSH2 0x303C JUMPI JUMP JUMPDEST PUSH1 0x40 MLOAD PUSH3 0x461BCD PUSH1 0xE5 SHL DUP2 MSTORE PUSH1 0x20 PUSH1 0x4 DUP3 ADD MSTORE PUSH1 0x13 PUSH1 0x24 DUP3 ADD MSTORE PUSH19 0x10DB1D5948185B1C9958591E481CDBDB1D9959 PUSH1 0x6A SHL PUSH1 0x44 DUP3 ADD MSTORE PUSH1 0x64 SWAP1 REVERT JUMPDEST SWAP1 DUP2 MSTORE PUSH1 0x1 PUSH1 0x1 PUSH1 0x40 SHL SUB SWAP1 SWAP2 AND PUSH1 0x20 DUP3 ADD MSTORE PUSH2 0xFFFF SWAP1 SWAP2 AND PUSH1 0x40 DUP3 ADD MSTORE PUSH4 0xFFFFFFFF SWAP2 DUP3 AND PUSH1 0x60 DUP3 ADD MSTORE SWAP2 AND PUSH1 0x80 DUP3 ADD MSTORE PUSH1 0xA0 ADD SWAP1 JUMP JUMPDEST DUP2 ISZERO PUSH2 0x30B9 JUMPI MOD SWAP1 JUMP JUMPDEST PUSH4 0x4E487B71 PUSH1 0xE0 SHL PUSH1 0x0 MSTORE PUSH1 0x12 PUSH1 0x4 MSTORE PUSH1 0x24 PUSH1 0x0 REVERT JUMPDEST SWAP2 SWAP1 DUP3 ADD DUP1 SWAP3 GT PUSH2 0x30DC JUMPI JUMP JUMPDEST PUSH4 0x4E487B71 PUSH1 0xE0 SHL PUSH1 0x0 MSTORE PUSH1 0x11 PUSH1 0x4 MSTORE PUSH1 0x24 PUSH1 0x0 REVERT JUMPDEST DUP2 DUP2 MUL SWAP3 SWAP2 DUP2 ISZERO SWAP2 DUP5 DIV EQ OR ISZERO PUSH2 0x30DC JUMPI JUMP JUMPDEST PUSH1 0x0 NOT DUP2 EQ PUSH2 0x30DC JUMPI PUSH1 0x1 ADD SWAP1 JUMP JUMPDEST PUSH1 0x0 SWAP1 DUP1 DUP3 MSTORE PUSH1 0x20 SWAP1 PUSH1 0xF DUP3 MSTORE PUSH1 0x40 DUP4 KECCAK256 SLOAD TIMESTAMP LT DUP1 ISZERO PUSH2 0x31BF JUMPI JUMPDEST DUP1 ISZERO PUSH2 0x31AB JUMPI JUMPDEST ISZERO PUSH2 0x3197 JUMPI DUP3 MSTORE PUSH1 0xE DUP2 MSTORE PUSH1 0x40 DUP3 KECCAK256 DUP1 SLOAD SWAP2 PUSH2 0x3151 DUP4 PUSH2 0x269C JUMP JUMPDEST SWAP4 PUSH2 0x315F PUSH1 0x40 MLOAD SWAP6 DUP7 PUSH2 0x2679 JUMP JUMPDEST DUP4 DUP6 MSTORE SWAP2 DUP3 MSTORE DUP1 DUP3 KECCAK256 DUP2 DUP6 ADD JUMPDEST DUP5 DUP5 LT PUSH2 0x317B JUMPI POP POP POP POP POP SWAP1 JUMP JUMPDEST PUSH1 0x1 DUP4 DUP2 SWAP3 PUSH2 0x3189 DUP6 PUSH2 0x2964 JUMP JUMPDEST DUP2 MSTORE ADD SWAP3 ADD SWAP4 ADD SWAP3 SWAP1 PUSH2 0x316C JUMP JUMPDEST POP POP PUSH1 0x40 MLOAD SWAP1 PUSH2 0x31A6 DUP3 PUSH2 0x265E JUMP JUMPDEST DUP2 MSTORE SWAP1 JUMP JUMPDEST POP DUP1 DUP4 MSTORE PUSH1 0x10 DUP3 MSTORE TIMESTAMP PUSH1 0x40 DUP5 KECCAK256 SLOAD LT PUSH2 0x3136 JUMP JUMPDEST POP PUSH1 0x1 PUSH1 0x1 PUSH1 0xA0 SHL SUB PUSH2 0x31D1 DUP3 PUSH2 0x2907 JUMP JUMPDEST AND CALLER EQ PUSH2 0x312F JUMP INVALID 0x21 0xD1 PUSH6 0x84F015591310 SWAP12 0xEC PUSH11 0xCDF68833081A77BC84F56D 0xD2 DUP9 0xE2 PC 0xEF PUSH12 0x4B27018BE0079C5316591413 PREVRANDAO 0xCD 0x1F 0xD0 LOG4 CALLCODE DUP5 NOT 0x49 PUSH32 0x9722A3DAAFE3B4186F6B6457E028F521CF7ABD0044CBA5BB040C5217FF69A4E5 DUP7 0x5F MSTORE PUSH3 0x905018 PUSH10 0x8E68FE7D00DDF252AD1B 0xE2 0xC8 SWAP12 PUSH10 0xC2B068FC378DAA952BA7 CALL PUSH4 0xC4A11628 CREATE2 GAS 0x4D CREATE2 0x23 0xB3 0xEF DUP2 0xD9 0x25 DUP12 SGT 0x2B DUP13 LOG3 PUSH31 0x55E5A29D721B84164640CB0ED58CFD430B3F85B8ECED89A264697066735822 SLT KECCAK256 0xEB 0xC2 SWAP15 SWAP14 PUSH16 0xDF5DA8053505944F560B533AA4D91EA1 CALLDATASIZE LOG0 0x4F 0xA5 PUSH9 0x8479B022E33864736F PUSH13 0x63430008130033000000000000 "},"methodIdentifiers":{"STEAL_FEE()":"d14175ee","STEAL_SUCCESS_RATE()":"e6c18681","activePlayers()":"1a79a913","approve(address,uint256)":"095ea7b3","balanceOf(address)":"70a08231","blockReveal(uint256)":"8f4d9964","calculateBlockFee(uint256)":"049eeeca","calculateFee(uint256,uint256)":"34e73122","clues(uint256)":"30f37c7f","collectClue(uint256,string)":"f041d5ad","factionPots(uint8)":"a43b998e","factionScores(uint8)":"c8b1f25c","getApproved(uint256)":"081812fc","getClue(uint256)":"4e4500aa","getClues(uint256)":"46024df7","getFactionPot(uint8)":"9131545a","getFactionScore(uint8)":"2dd7f45a","getGlobalDifficulty()":"2b809ec4","getPlayerClues(address)":"a69d25ab","globalDifficulty()":"e5a7c463","isApprovedForAll(address,address)":"e985e9c5","mintClue(address,string,uint8,uint256,bytes32)":"97d09fb9","name()":"06fdde03","owner()":"8da5cb5b","ownerOf(uint256)":"6352211e","participationThreshold()":"79a5b02a","playerClues(address,uint256)":"84147b61","playerToken(address)":"685ad315","randomReveal(uint256,uint256)":"d981cab4","rawFulfillRandomWords(uint256,uint256[])":"1fe543e3","renounceOwnership()":"715018a6","requestDetails(uint256)":"c2ba1316","requestSolveClue(uint256)":"69b579e1","revealBlockedUntil(uint256)":"5db3040d","revealUntil(uint256)":"4f37ef0d","safeTransferFrom(address,address,uint256)":"42842e0e","safeTransferFrom(address,address,uint256,bytes)":"b88d4fde","setApprovalForAll(address,bool)":"a22cb465","stealClue(uint256,uint8)":"efa954e6","supportsInterface(bytes4)":"01ffc9a7","symbol()":"95d89b41","tokenURI(uint256)":"c87b56dd","transferFrom(address,address,uint256)":"23b872dd","transferOwnership(address)":"f2fde38b","updateParticipation(uint256)":"34aff3b9","withdrawFactionPot(uint8)":"7615b75d"}}}}}