{
  "_format": "hh-sol-artifact-1",
  "contractName": "DynamicClueNFT",
  "sourceName": "contracts/DynamicClueNFT.sol",
  "abi": [
    {
      "inputs": [
        {
          "internalType": "uint64",
          "name": "subscriptionId",
          "type": "uint64"
        }
      ],
      "stateMutability": "nonpayable",
      "type": "constructor"
    },
    {
      "inputs": [
        {
          "internalType": "address",
          "name": "have",
          "type": "address"
        },
        {
          "internalType": "address",
          "name": "want",
          "type": "address"
        }
      ],
      "name": "OnlyCoordinatorCanFulfill",
      "type": "error"
    },
    {
      "anonymous": false,
      "inputs": [
        {
          "indexed": true,
          "internalType": "address",
          "name": "owner",
          "type": "address"
        },
        {
          "indexed": true,
          "internalType": "address",
          "name": "approved",
          "type": "address"
        },
        {
          "indexed": true,
          "internalType": "uint256",
          "name": "tokenId",
          "type": "uint256"
        }
      ],
      "name": "Approval",
      "type": "event"
    },
    {
      "anonymous": false,
      "inputs": [
        {
          "indexed": true,
          "internalType": "address",
          "name": "owner",
          "type": "address"
        },
        {
          "indexed": true,
          "internalType": "address",
          "name": "operator",
          "type": "address"
        },
        {
          "indexed": false,
          "internalType": "bool",
          "name": "approved",
          "type": "bool"
        }
      ],
      "name": "ApprovalForAll",
      "type": "event"
    },
    {
      "anonymous": false,
      "inputs": [
        {
          "indexed": false,
          "internalType": "uint256",
          "name": "_fromTokenId",
          "type": "uint256"
        },
        {
          "indexed": false,
          "internalType": "uint256",
          "name": "_toTokenId",
          "type": "uint256"
        }
      ],
      "name": "BatchMetadataUpdate",
      "type": "event"
    },
    {
      "anonymous": false,
      "inputs": [
        {
          "indexed": true,
          "internalType": "address",
          "name": "requester",
          "type": "address"
        },
        {
          "indexed": false,
          "internalType": "uint256",
          "name": "durationSeconds",
          "type": "uint256"
        }
      ],
      "name": "BlockRevealRequested",
      "type": "event"
    },
    {
      "anonymous": false,
      "inputs": [
        {
          "indexed": true,
          "internalType": "uint256",
          "name": "tokenId",
          "type": "uint256"
        },
        {
          "indexed": true,
          "internalType": "address",
          "name": "creator",
          "type": "address"
        },
        {
          "indexed": false,
          "internalType": "enum DynamicClueNFT.Faction",
          "name": "faction",
          "type": "uint8"
        },
        {
          "indexed": false,
          "internalType": "uint256",
          "name": "difficulty",
          "type": "uint256"
        }
      ],
      "name": "ClueMinted",
      "type": "event"
    },
    {
      "anonymous": false,
      "inputs": [
        {
          "indexed": true,
          "internalType": "uint256",
          "name": "tokenId",
          "type": "uint256"
        },
        {
          "indexed": true,
          "internalType": "address",
          "name": "solver",
          "type": "address"
        },
        {
          "indexed": false,
          "internalType": "uint256",
          "name": "points",
          "type": "uint256"
        }
      ],
      "name": "ClueSolved",
      "type": "event"
    },
    {
      "anonymous": false,
      "inputs": [
        {
          "indexed": true,
          "internalType": "uint256",
          "name": "tokenId",
          "type": "uint256"
        },
        {
          "indexed": true,
          "internalType": "address",
          "name": "stealer",
          "type": "address"
        },
        {
          "indexed": true,
          "internalType": "address",
          "name": "victim",
          "type": "address"
        },
        {
          "indexed": false,
          "internalType": "uint256",
          "name": "stolenMultiplier",
          "type": "uint256"
        }
      ],
      "name": "ClueStolen",
      "type": "event"
    },
    {
      "anonymous": false,
      "inputs": [
        {
          "indexed": true,
          "internalType": "address",
          "name": "solver",
          "type": "address"
        },
        {
          "indexed": false,
          "internalType": "uint256",
          "name": "day",
          "type": "uint256"
        },
        {
          "indexed": false,
          "internalType": "uint256",
          "name": "reward",
          "type": "uint256"
        }
      ],
      "name": "DailyChallengeSolved",
      "type": "event"
    },
    {
      "anonymous": false,
      "inputs": [
        {
          "indexed": false,
          "internalType": "uint256",
          "name": "newDifficulty",
          "type": "uint256"
        }
      ],
      "name": "DifficultyScaled",
      "type": "event"
    },
    {
      "anonymous": false,
      "inputs": [
        {
          "indexed": false,
          "internalType": "uint256",
          "name": "_tokenId",
          "type": "uint256"
        }
      ],
      "name": "MetadataUpdate",
      "type": "event"
    },
    {
      "anonymous": false,
      "inputs": [
        {
          "indexed": true,
          "internalType": "uint256",
          "name": "tokenId",
          "type": "uint256"
        },
        {
          "indexed": true,
          "internalType": "address",
          "name": "seller",
          "type": "address"
        },
        {
          "indexed": false,
          "internalType": "uint256",
          "name": "price",
          "type": "uint256"
        }
      ],
      "name": "NFTListed",
      "type": "event"
    },
    {
      "anonymous": false,
      "inputs": [
        {
          "indexed": true,
          "internalType": "uint256",
          "name": "tokenId",
          "type": "uint256"
        },
        {
          "indexed": true,
          "internalType": "address",
          "name": "buyer",
          "type": "address"
        },
        {
          "indexed": true,
          "internalType": "address",
          "name": "seller",
          "type": "address"
        },
        {
          "indexed": false,
          "internalType": "uint256",
          "name": "price",
          "type": "uint256"
        }
      ],
      "name": "NFTSold",
      "type": "event"
    },
    {
      "anonymous": false,
      "inputs": [
        {
          "indexed": true,
          "internalType": "uint256",
          "name": "tokenId",
          "type": "uint256"
        },
        {
          "indexed": true,
          "internalType": "address",
          "name": "staker",
          "type": "address"
        },
        {
          "indexed": false,
          "internalType": "uint256",
          "name": "duration",
          "type": "uint256"
        }
      ],
      "name": "NFTStaked",
      "type": "event"
    },
    {
      "anonymous": false,
      "inputs": [
        {
          "indexed": true,
          "internalType": "uint256",
          "name": "tokenId",
          "type": "uint256"
        },
        {
          "indexed": true,
          "internalType": "address",
          "name": "staker",
          "type": "address"
        },
        {
          "indexed": false,
          "internalType": "uint256",
          "name": "reward",
          "type": "uint256"
        }
      ],
      "name": "NFTUnstaked",
      "type": "event"
    },
    {
      "anonymous": false,
      "inputs": [
        {
          "indexed": true,
          "internalType": "address",
          "name": "previousOwner",
          "type": "address"
        },
        {
          "indexed": true,
          "internalType": "address",
          "name": "newOwner",
          "type": "address"
        }
      ],
      "name": "OwnershipTransferred",
      "type": "event"
    },
    {
      "anonymous": false,
      "inputs": [
        {
          "indexed": true,
          "internalType": "address",
          "name": "requester",
          "type": "address"
        },
        {
          "indexed": false,
          "internalType": "uint256",
          "name": "numReveals",
          "type": "uint256"
        },
        {
          "indexed": false,
          "internalType": "uint256",
          "name": "durationSeconds",
          "type": "uint256"
        }
      ],
      "name": "RandomRevealRequested",
      "type": "event"
    },
    {
      "anonymous": false,
      "inputs": [
        {
          "indexed": true,
          "internalType": "address",
          "name": "referrer",
          "type": "address"
        },
        {
          "indexed": true,
          "internalType": "address",
          "name": "referee",
          "type": "address"
        },
        {
          "indexed": false,
          "internalType": "uint256",
          "name": "reward",
          "type": "uint256"
        }
      ],
      "name": "ReferralReward",
      "type": "event"
    },
    {
      "anonymous": false,
      "inputs": [
        {
          "indexed": true,
          "internalType": "uint256",
          "name": "tournamentId",
          "type": "uint256"
        },
        {
          "indexed": false,
          "internalType": "string",
          "name": "name",
          "type": "string"
        },
        {
          "indexed": false,
          "internalType": "uint256",
          "name": "entryFee",
          "type": "uint256"
        },
        {
          "indexed": false,
          "internalType": "uint256",
          "name": "endTime",
          "type": "uint256"
        }
      ],
      "name": "TournamentCreated",
      "type": "event"
    },
    {
      "anonymous": false,
      "inputs": [
        {
          "indexed": true,
          "internalType": "uint256",
          "name": "tournamentId",
          "type": "uint256"
        },
        {
          "indexed": true,
          "internalType": "address",
          "name": "winner",
          "type": "address"
        },
        {
          "indexed": false,
          "internalType": "uint256",
          "name": "prize",
          "type": "uint256"
        }
      ],
      "name": "TournamentEnded",
      "type": "event"
    },
    {
      "anonymous": false,
      "inputs": [
        {
          "indexed": true,
          "internalType": "uint256",
          "name": "tournamentId",
          "type": "uint256"
        },
        {
          "indexed": true,
          "internalType": "address",
          "name": "participant",
          "type": "address"
        }
      ],
      "name": "TournamentJoined",
      "type": "event"
    },
    {
      "anonymous": false,
      "inputs": [
        {
          "indexed": true,
          "internalType": "address",
          "name": "from",
          "type": "address"
        },
        {
          "indexed": true,
          "internalType": "address",
          "name": "to",
          "type": "address"
        },
        {
          "indexed": true,
          "internalType": "uint256",
          "name": "tokenId",
          "type": "uint256"
        }
      ],
      "name": "Transfer",
      "type": "event"
    },
    {
      "inputs": [],
      "name": "BASE_BLOCK_FEE",
      "outputs": [
        {
          "internalType": "uint256",
          "name": "",
          "type": "uint256"
        }
      ],
      "stateMutability": "view",
      "type": "function"
    },
    {
      "inputs": [],
      "name": "BASE_REVEAL_FEE",
      "outputs": [
        {
          "internalType": "uint256",
          "name": "",
          "type": "uint256"
        }
      ],
      "stateMutability": "view",
      "type": "function"
    },
    {
      "inputs": [],
      "name": "FACTION_DISCOUNT",
      "outputs": [
        {
          "internalType": "uint256",
          "name": "",
          "type": "uint256"
        }
      ],
      "stateMutability": "view",
      "type": "function"
    },
    {
      "inputs": [],
      "name": "MINT_PRICE",
      "outputs": [
        {
          "internalType": "uint256",
          "name": "",
          "type": "uint256"
        }
      ],
      "stateMutability": "view",
      "type": "function"
    },
    {
      "inputs": [],
      "name": "REFERRAL_REWARD",
      "outputs": [
        {
          "internalType": "uint256",
          "name": "",
          "type": "uint256"
        }
      ],
      "stateMutability": "view",
      "type": "function"
    },
    {
      "inputs": [],
      "name": "STAKING_REWARD_RATE",
      "outputs": [
        {
          "internalType": "uint256",
          "name": "",
          "type": "uint256"
        }
      ],
      "stateMutability": "view",
      "type": "function"
    },
    {
      "inputs": [
        {
          "internalType": "uint256",
          "name": "eventId",
          "type": "uint256"
        }
      ],
      "name": "activateEvent",
      "outputs": [],
      "stateMutability": "nonpayable",
      "type": "function"
    },
    {
      "inputs": [],
      "name": "activeEventId",
      "outputs": [
        {
          "internalType": "uint256",
          "name": "",
          "type": "uint256"
        }
      ],
      "stateMutability": "view",
      "type": "function"
    },
    {
      "inputs": [
        {
          "internalType": "uint256",
          "name": "tokenId",
          "type": "uint256"
        },
        {
          "internalType": "uint256",
          "name": "amount",
          "type": "uint256"
        },
        {
          "internalType": "string",
          "name": "reason",
          "type": "string"
        }
      ],
      "name": "addExperience",
      "outputs": [],
      "stateMutability": "nonpayable",
      "type": "function"
    },
    {
      "inputs": [],
      "name": "advanceDay",
      "outputs": [],
      "stateMutability": "nonpayable",
      "type": "function"
    },
    {
      "inputs": [
        {
          "internalType": "address",
          "name": "to",
          "type": "address"
        },
        {
          "internalType": "uint256",
          "name": "tokenId",
          "type": "uint256"
        }
      ],
      "name": "approve",
      "outputs": [],
      "stateMutability": "nonpayable",
      "type": "function"
    },
    {
      "inputs": [
        {
          "internalType": "address",
          "name": "owner",
          "type": "address"
        }
      ],
      "name": "balanceOf",
      "outputs": [
        {
          "internalType": "uint256",
          "name": "",
          "type": "uint256"
        }
      ],
      "stateMutability": "view",
      "type": "function"
    },
    {
      "inputs": [
        {
          "internalType": "uint256",
          "name": "durationSeconds",
          "type": "uint256"
        }
      ],
      "name": "blockReveal",
      "outputs": [],
      "stateMutability": "payable",
      "type": "function"
    },
    {
      "inputs": [
        {
          "internalType": "uint256",
          "name": "tokenId",
          "type": "uint256"
        }
      ],
      "name": "buyNFT",
      "outputs": [],
      "stateMutability": "payable",
      "type": "function"
    },
    {
      "inputs": [
        {
          "internalType": "uint256",
          "name": "durationHours",
          "type": "uint256"
        },
        {
          "internalType": "address",
          "name": "user",
          "type": "address"
        }
      ],
      "name": "calculateBlockFee",
      "outputs": [
        {
          "internalType": "uint256",
          "name": "",
          "type": "uint256"
        }
      ],
      "stateMutability": "view",
      "type": "function"
    },
    {
      "inputs": [
        {
          "internalType": "uint256",
          "name": "numReveals",
          "type": "uint256"
        },
        {
          "internalType": "uint256",
          "name": "durationHours",
          "type": "uint256"
        },
        {
          "internalType": "address",
          "name": "user",
          "type": "address"
        }
      ],
      "name": "calculateFee",
      "outputs": [
        {
          "internalType": "uint256",
          "name": "",
          "type": "uint256"
        }
      ],
      "stateMutability": "view",
      "type": "function"
    },
    {
      "inputs": [
        {
          "internalType": "uint256",
          "name": "tokenId",
          "type": "uint256"
        }
      ],
      "name": "cancelListing",
      "outputs": [],
      "stateMutability": "nonpayable",
      "type": "function"
    },
    {
      "inputs": [
        {
          "internalType": "uint256",
          "name": "eventId",
          "type": "uint256"
        }
      ],
      "name": "claimEventReward",
      "outputs": [],
      "stateMutability": "nonpayable",
      "type": "function"
    },
    {
      "inputs": [],
      "name": "claimReferralReward",
      "outputs": [],
      "stateMutability": "nonpayable",
      "type": "function"
    },
    {
      "inputs": [
        {
          "internalType": "uint256",
          "name": "",
          "type": "uint256"
        }
      ],
      "name": "clues",
      "outputs": [
        {
          "internalType": "uint256",
          "name": "tokenId",
          "type": "uint256"
        },
        {
          "internalType": "enum DynamicClueNFT.Faction",
          "name": "faction",
          "type": "uint8"
        },
        {
          "internalType": "uint256",
          "name": "difficulty",
          "type": "uint256"
        },
        {
          "internalType": "bytes32",
          "name": "clueHash",
          "type": "bytes32"
        },
        {
          "internalType": "address",
          "name": "creator",
          "type": "address"
        },
        {
          "internalType": "uint256",
          "name": "createdAt",
          "type": "uint256"
        },
        {
          "internalType": "bool",
          "name": "solved",
          "type": "bool"
        },
        {
          "internalType": "address",
          "name": "solver",
          "type": "address"
        },
        {
          "internalType": "uint256",
          "name": "solvedAt",
          "type": "uint256"
        },
        {
          "internalType": "uint256",
          "name": "points",
          "type": "uint256"
        }
      ],
      "stateMutability": "view",
      "type": "function"
    },
    {
      "inputs": [
        {
          "internalType": "string",
          "name": "description",
          "type": "string"
        },
        {
          "internalType": "bytes32",
          "name": "solutionHash",
          "type": "bytes32"
        },
        {
          "internalType": "uint256",
          "name": "reward",
          "type": "uint256"
        }
      ],
      "name": "createDailyChallenge",
      "outputs": [],
      "stateMutability": "nonpayable",
      "type": "function"
    },
    {
      "inputs": [
        {
          "internalType": "string",
          "name": "name",
          "type": "string"
        },
        {
          "internalType": "string",
          "name": "theme",
          "type": "string"
        },
        {
          "internalType": "uint256",
          "name": "startTime",
          "type": "uint256"
        },
        {
          "internalType": "uint256",
          "name": "endTime",
          "type": "uint256"
        },
        {
          "internalType": "uint256",
          "name": "tournamentMultiplier",
          "type": "uint256"
        },
        {
          "internalType": "uint256",
          "name": "challengeMultiplier",
          "type": "uint256"
        },
        {
          "internalType": "uint256",
          "name": "stakingMultiplier",
          "type": "uint256"
        },
        {
          "internalType": "uint256",
          "name": "maxSpecialNFTs",
          "type": "uint256"
        }
      ],
      "name": "createSeasonalEvent",
      "outputs": [],
      "stateMutability": "nonpayable",
      "type": "function"
    },
    {
      "inputs": [
        {
          "internalType": "string",
          "name": "name",
          "type": "string"
        },
        {
          "internalType": "uint256",
          "name": "entryFee",
          "type": "uint256"
        },
        {
          "internalType": "uint256",
          "name": "durationHours",
          "type": "uint256"
        }
      ],
      "name": "createTournament",
      "outputs": [],
      "stateMutability": "nonpayable",
      "type": "function"
    },
    {
      "inputs": [],
      "name": "currentDay",
      "outputs": [
        {
          "internalType": "uint256",
          "name": "",
          "type": "uint256"
        }
      ],
      "stateMutability": "view",
      "type": "function"
    },
    {
      "inputs": [
        {
          "internalType": "uint256",
          "name": "",
          "type": "uint256"
        }
      ],
      "name": "dailyChallenges",
      "outputs": [
        {
          "internalType": "uint256",
          "name": "day",
          "type": "uint256"
        },
        {
          "internalType": "string",
          "name": "description",
          "type": "string"
        },
        {
          "internalType": "bytes32",
          "name": "solutionHash",
          "type": "bytes32"
        },
        {
          "internalType": "uint256",
          "name": "reward",
          "type": "uint256"
        },
        {
          "internalType": "bool",
          "name": "active",
          "type": "bool"
        },
        {
          "internalType": "address",
          "name": "winner",
          "type": "address"
        },
        {
          "internalType": "uint256",
          "name": "solvedAt",
          "type": "uint256"
        }
      ],
      "stateMutability": "view",
      "type": "function"
    },
    {
      "inputs": [
        {
          "internalType": "uint256",
          "name": "tournamentId",
          "type": "uint256"
        }
      ],
      "name": "endTournament",
      "outputs": [],
      "stateMutability": "nonpayable",
      "type": "function"
    },
    {
      "inputs": [
        {
          "internalType": "uint256",
          "name": "",
          "type": "uint256"
        },
        {
          "internalType": "address",
          "name": "",
          "type": "address"
        }
      ],
      "name": "eventParticipations",
      "outputs": [
        {
          "internalType": "uint256",
          "name": "eventId",
          "type": "uint256"
        },
        {
          "internalType": "address",
          "name": "participant",
          "type": "address"
        },
        {
          "internalType": "uint256",
          "name": "tournamentsJoined",
          "type": "uint256"
        },
        {
          "internalType": "uint256",
          "name": "challengesCompleted",
          "type": "uint256"
        },
        {
          "internalType": "uint256",
          "name": "nftsStaked",
          "type": "uint256"
        },
        {
          "internalType": "uint256",
          "name": "totalBonusEarned",
          "type": "uint256"
        },
        {
          "internalType": "bool",
          "name": "claimedReward",
          "type": "bool"
        }
      ],
      "stateMutability": "view",
      "type": "function"
    },
    {
      "inputs": [
        {
          "internalType": "uint256",
          "name": "",
          "type": "uint256"
        }
      ],
      "name": "evolutionStates",
      "outputs": [
        {
          "internalType": "uint256",
          "name": "level",
          "type": "uint256"
        },
        {
          "internalType": "uint256",
          "name": "experience",
          "type": "uint256"
        },
        {
          "internalType": "uint256",
          "name": "cluesCollected",
          "type": "uint256"
        },
        {
          "internalType": "uint256",
          "name": "lastEvolution",
          "type": "uint256"
        }
      ],
      "stateMutability": "view",
      "type": "function"
    },
    {
      "inputs": [
        {
          "internalType": "enum DynamicClueNFT.Faction",
          "name": "",
          "type": "uint8"
        }
      ],
      "name": "factionScores",
      "outputs": [
        {
          "internalType": "uint256",
          "name": "",
          "type": "uint256"
        }
      ],
      "stateMutability": "view",
      "type": "function"
    },
    {
      "inputs": [
        {
          "internalType": "uint256",
          "name": "tokenId",
          "type": "uint256"
        }
      ],
      "name": "generateSVG",
      "outputs": [
        {
          "internalType": "string",
          "name": "",
          "type": "string"
        }
      ],
      "stateMutability": "view",
      "type": "function"
    },
    {
      "inputs": [],
      "name": "getActiveEvent",
      "outputs": [
        {
          "components": [
            {
              "internalType": "uint256",
              "name": "id",
              "type": "uint256"
            },
            {
              "internalType": "string",
              "name": "name",
              "type": "string"
            },
            {
              "internalType": "string",
              "name": "theme",
              "type": "string"
            },
            {
              "internalType": "uint256",
              "name": "startTime",
              "type": "uint256"
            },
            {
              "internalType": "uint256",
              "name": "endTime",
              "type": "uint256"
            },
            {
              "internalType": "uint256",
              "name": "tournamentMultiplier",
              "type": "uint256"
            },
            {
              "internalType": "uint256",
              "name": "challengeMultiplier",
              "type": "uint256"
            },
            {
              "internalType": "uint256",
              "name": "stakingMultiplier",
              "type": "uint256"
            },
            {
              "internalType": "bool",
              "name": "active",
              "type": "bool"
            },
            {
              "internalType": "uint256",
              "name": "specialNFTsMinted",
              "type": "uint256"
            },
            {
              "internalType": "uint256",
              "name": "maxSpecialNFTs",
              "type": "uint256"
            }
          ],
          "internalType": "struct DynamicClueNFT.SeasonalEvent",
          "name": "",
          "type": "tuple"
        }
      ],
      "stateMutability": "view",
      "type": "function"
    },
    {
      "inputs": [],
      "name": "getActiveListings",
      "outputs": [
        {
          "internalType": "uint256[]",
          "name": "",
          "type": "uint256[]"
        }
      ],
      "stateMutability": "view",
      "type": "function"
    },
    {
      "inputs": [
        {
          "internalType": "uint256",
          "name": "tokenId",
          "type": "uint256"
        }
      ],
      "name": "getApproved",
      "outputs": [
        {
          "internalType": "address",
          "name": "",
          "type": "address"
        }
      ],
      "stateMutability": "view",
      "type": "function"
    },
    {
      "inputs": [
        {
          "internalType": "uint256",
          "name": "eventId",
          "type": "uint256"
        },
        {
          "internalType": "address",
          "name": "participant",
          "type": "address"
        }
      ],
      "name": "getEventParticipation",
      "outputs": [
        {
          "components": [
            {
              "internalType": "uint256",
              "name": "eventId",
              "type": "uint256"
            },
            {
              "internalType": "address",
              "name": "participant",
              "type": "address"
            },
            {
              "internalType": "uint256",
              "name": "tournamentsJoined",
              "type": "uint256"
            },
            {
              "internalType": "uint256",
              "name": "challengesCompleted",
              "type": "uint256"
            },
            {
              "internalType": "uint256",
              "name": "nftsStaked",
              "type": "uint256"
            },
            {
              "internalType": "uint256",
              "name": "totalBonusEarned",
              "type": "uint256"
            },
            {
              "internalType": "bool",
              "name": "claimedReward",
              "type": "bool"
            }
          ],
          "internalType": "struct DynamicClueNFT.EventParticipation",
          "name": "",
          "type": "tuple"
        }
      ],
      "stateMutability": "view",
      "type": "function"
    },
    {
      "inputs": [
        {
          "internalType": "uint256",
          "name": "tokenId",
          "type": "uint256"
        }
      ],
      "name": "getEvolutionState",
      "outputs": [
        {
          "components": [
            {
              "internalType": "uint256",
              "name": "level",
              "type": "uint256"
            },
            {
              "internalType": "uint256",
              "name": "experience",
              "type": "uint256"
            },
            {
              "internalType": "uint256",
              "name": "cluesCollected",
              "type": "uint256"
            },
            {
              "internalType": "uint256",
              "name": "lastEvolution",
              "type": "uint256"
            }
          ],
          "internalType": "struct DynamicClueNFT.EvolutionState",
          "name": "",
          "type": "tuple"
        }
      ],
      "stateMutability": "view",
      "type": "function"
    },
    {
      "inputs": [
        {
          "internalType": "uint256",
          "name": "faction",
          "type": "uint256"
        }
      ],
      "name": "getFactionScore",
      "outputs": [
        {
          "internalType": "uint256",
          "name": "",
          "type": "uint256"
        }
      ],
      "stateMutability": "view",
      "type": "function"
    },
    {
      "inputs": [
        {
          "internalType": "address",
          "name": "player",
          "type": "address"
        }
      ],
      "name": "getPlayerClues",
      "outputs": [
        {
          "internalType": "uint256[]",
          "name": "",
          "type": "uint256[]"
        }
      ],
      "stateMutability": "view",
      "type": "function"
    },
    {
      "inputs": [
        {
          "internalType": "uint256",
          "name": "tournamentId",
          "type": "uint256"
        }
      ],
      "name": "getTournamentParticipants",
      "outputs": [
        {
          "internalType": "address[]",
          "name": "",
          "type": "address[]"
        }
      ],
      "stateMutability": "view",
      "type": "function"
    },
    {
      "inputs": [
        {
          "internalType": "address",
          "name": "user",
          "type": "address"
        }
      ],
      "name": "getUserStakes",
      "outputs": [
        {
          "internalType": "uint256[]",
          "name": "",
          "type": "uint256[]"
        }
      ],
      "stateMutability": "view",
      "type": "function"
    },
    {
      "inputs": [
        {
          "internalType": "address",
          "name": "user",
          "type": "address"
        }
      ],
      "name": "getUserTournaments",
      "outputs": [
        {
          "internalType": "uint256[]",
          "name": "",
          "type": "uint256[]"
        }
      ],
      "stateMutability": "view",
      "type": "function"
    },
    {
      "inputs": [
        {
          "internalType": "address",
          "name": "owner",
          "type": "address"
        },
        {
          "internalType": "address",
          "name": "operator",
          "type": "address"
        }
      ],
      "name": "isApprovedForAll",
      "outputs": [
        {
          "internalType": "bool",
          "name": "",
          "type": "bool"
        }
      ],
      "stateMutability": "view",
      "type": "function"
    },
    {
      "inputs": [
        {
          "internalType": "uint256",
          "name": "tournamentId",
          "type": "uint256"
        }
      ],
      "name": "joinTournament",
      "outputs": [],
      "stateMutability": "payable",
      "type": "function"
    },
    {
      "inputs": [
        {
          "internalType": "address",
          "name": "",
          "type": "address"
        }
      ],
      "name": "lastChallengeCompletion",
      "outputs": [
        {
          "internalType": "uint256",
          "name": "",
          "type": "uint256"
        }
      ],
      "stateMutability": "view",
      "type": "function"
    },
    {
      "inputs": [
        {
          "internalType": "uint256",
          "name": "tokenId",
          "type": "uint256"
        },
        {
          "internalType": "uint256",
          "name": "price",
          "type": "uint256"
        }
      ],
      "name": "listNFT",
      "outputs": [],
      "stateMutability": "nonpayable",
      "type": "function"
    },
    {
      "inputs": [
        {
          "internalType": "uint256",
          "name": "",
          "type": "uint256"
        }
      ],
      "name": "listings",
      "outputs": [
        {
          "internalType": "uint256",
          "name": "tokenId",
          "type": "uint256"
        },
        {
          "internalType": "address",
          "name": "seller",
          "type": "address"
        },
        {
          "internalType": "uint256",
          "name": "price",
          "type": "uint256"
        },
        {
          "internalType": "bool",
          "name": "active",
          "type": "bool"
        }
      ],
      "stateMutability": "view",
      "type": "function"
    },
    {
      "inputs": [
        {
          "internalType": "address",
          "name": "to",
          "type": "address"
        },
        {
          "internalType": "uint256",
          "name": "faction",
          "type": "uint256"
        },
        {
          "internalType": "uint256",
          "name": "difficulty",
          "type": "uint256"
        },
        {
          "internalType": "bytes32",
          "name": "clueHash",
          "type": "bytes32"
        }
      ],
      "name": "mintClue",
      "outputs": [],
      "stateMutability": "payable",
      "type": "function"
    },
    {
      "inputs": [
        {
          "internalType": "address",
          "name": "to",
          "type": "address"
        },
        {
          "internalType": "uint256",
          "name": "eventId",
          "type": "uint256"
        }
      ],
      "name": "mintSpecialEventNFT",
      "outputs": [],
      "stateMutability": "nonpayable",
      "type": "function"
    },
    {
      "inputs": [],
      "name": "name",
      "outputs": [
        {
          "internalType": "string",
          "name": "",
          "type": "string"
        }
      ],
      "stateMutability": "view",
      "type": "function"
    },
    {
      "inputs": [],
      "name": "nextEventId",
      "outputs": [
        {
          "internalType": "uint256",
          "name": "",
          "type": "uint256"
        }
      ],
      "stateMutability": "view",
      "type": "function"
    },
    {
      "inputs": [],
      "name": "nextTournamentId",
      "outputs": [
        {
          "internalType": "uint256",
          "name": "",
          "type": "uint256"
        }
      ],
      "stateMutability": "view",
      "type": "function"
    },
    {
      "inputs": [],
      "name": "owner",
      "outputs": [
        {
          "internalType": "address",
          "name": "",
          "type": "address"
        }
      ],
      "stateMutability": "view",
      "type": "function"
    },
    {
      "inputs": [
        {
          "internalType": "uint256",
          "name": "tokenId",
          "type": "uint256"
        }
      ],
      "name": "ownerOf",
      "outputs": [
        {
          "internalType": "address",
          "name": "",
          "type": "address"
        }
      ],
      "stateMutability": "view",
      "type": "function"
    },
    {
      "inputs": [
        {
          "internalType": "address",
          "name": "",
          "type": "address"
        },
        {
          "internalType": "uint256",
          "name": "",
          "type": "uint256"
        }
      ],
      "name": "playerClues",
      "outputs": [
        {
          "internalType": "uint256",
          "name": "",
          "type": "uint256"
        }
      ],
      "stateMutability": "view",
      "type": "function"
    },
    {
      "inputs": [
        {
          "internalType": "address",
          "name": "",
          "type": "address"
        }
      ],
      "name": "playerFactions",
      "outputs": [
        {
          "internalType": "enum DynamicClueNFT.Faction",
          "name": "",
          "type": "uint8"
        }
      ],
      "stateMutability": "view",
      "type": "function"
    },
    {
      "inputs": [
        {
          "internalType": "address",
          "name": "",
          "type": "address"
        }
      ],
      "name": "playerPoints",
      "outputs": [
        {
          "internalType": "uint256",
          "name": "",
          "type": "uint256"
        }
      ],
      "stateMutability": "view",
      "type": "function"
    },
    {
      "inputs": [
        {
          "internalType": "address",
          "name": "player",
          "type": "address"
        }
      ],
      "name": "playerToken",
      "outputs": [
        {
          "internalType": "uint256",
          "name": "",
          "type": "uint256"
        }
      ],
      "stateMutability": "view",
      "type": "function"
    },
    {
      "inputs": [
        {
          "internalType": "uint256",
          "name": "numReveals",
          "type": "uint256"
        },
        {
          "internalType": "uint256",
          "name": "durationSeconds",
          "type": "uint256"
        }
      ],
      "name": "randomReveal",
      "outputs": [],
      "stateMutability": "payable",
      "type": "function"
    },
    {
      "inputs": [
        {
          "internalType": "uint256",
          "name": "requestId",
          "type": "uint256"
        },
        {
          "internalType": "uint256[]",
          "name": "randomWords",
          "type": "uint256[]"
        }
      ],
      "name": "rawFulfillRandomWords",
      "outputs": [],
      "stateMutability": "nonpayable",
      "type": "function"
    },
    {
      "inputs": [
        {
          "internalType": "address",
          "name": "",
          "type": "address"
        }
      ],
      "name": "referralRewards",
      "outputs": [
        {
          "internalType": "uint256",
          "name": "",
          "type": "uint256"
        }
      ],
      "stateMutability": "view",
      "type": "function"
    },
    {
      "inputs": [
        {
          "internalType": "address",
          "name": "",
          "type": "address"
        }
      ],
      "name": "referrers",
      "outputs": [
        {
          "internalType": "address",
          "name": "",
          "type": "address"
        }
      ],
      "stateMutability": "view",
      "type": "function"
    },
    {
      "inputs": [],
      "name": "renounceOwnership",
      "outputs": [],
      "stateMutability": "nonpayable",
      "type": "function"
    },
    {
      "inputs": [
        {
          "internalType": "uint256",
          "name": "",
          "type": "uint256"
        }
      ],
      "name": "s_requests",
      "outputs": [
        {
          "internalType": "uint256",
          "name": "",
          "type": "uint256"
        }
      ],
      "stateMutability": "view",
      "type": "function"
    },
    {
      "inputs": [
        {
          "internalType": "address",
          "name": "from",
          "type": "address"
        },
        {
          "internalType": "address",
          "name": "to",
          "type": "address"
        },
        {
          "internalType": "uint256",
          "name": "tokenId",
          "type": "uint256"
        }
      ],
      "name": "safeTransferFrom",
      "outputs": [],
      "stateMutability": "nonpayable",
      "type": "function"
    },
    {
      "inputs": [
        {
          "internalType": "address",
          "name": "from",
          "type": "address"
        },
        {
          "internalType": "address",
          "name": "to",
          "type": "address"
        },
        {
          "internalType": "uint256",
          "name": "tokenId",
          "type": "uint256"
        },
        {
          "internalType": "bytes",
          "name": "data",
          "type": "bytes"
        }
      ],
      "name": "safeTransferFrom",
      "outputs": [],
      "stateMutability": "nonpayable",
      "type": "function"
    },
    {
      "inputs": [
        {
          "internalType": "uint256",
          "name": "",
          "type": "uint256"
        }
      ],
      "name": "seasonalEvents",
      "outputs": [
        {
          "internalType": "uint256",
          "name": "id",
          "type": "uint256"
        },
        {
          "internalType": "string",
          "name": "name",
          "type": "string"
        },
        {
          "internalType": "string",
          "name": "theme",
          "type": "string"
        },
        {
          "internalType": "uint256",
          "name": "startTime",
          "type": "uint256"
        },
        {
          "internalType": "uint256",
          "name": "endTime",
          "type": "uint256"
        },
        {
          "internalType": "uint256",
          "name": "tournamentMultiplier",
          "type": "uint256"
        },
        {
          "internalType": "uint256",
          "name": "challengeMultiplier",
          "type": "uint256"
        },
        {
          "internalType": "uint256",
          "name": "stakingMultiplier",
          "type": "uint256"
        },
        {
          "internalType": "bool",
          "name": "active",
          "type": "bool"
        },
        {
          "internalType": "uint256",
          "name": "specialNFTsMinted",
          "type": "uint256"
        },
        {
          "internalType": "uint256",
          "name": "maxSpecialNFTs",
          "type": "uint256"
        }
      ],
      "stateMutability": "view",
      "type": "function"
    },
    {
      "inputs": [
        {
          "internalType": "address",
          "name": "operator",
          "type": "address"
        },
        {
          "internalType": "bool",
          "name": "approved",
          "type": "bool"
        }
      ],
      "name": "setApprovalForAll",
      "outputs": [],
      "stateMutability": "nonpayable",
      "type": "function"
    },
    {
      "inputs": [
        {
          "internalType": "address",
          "name": "referee",
          "type": "address"
        },
        {
          "internalType": "address",
          "name": "referrer",
          "type": "address"
        }
      ],
      "name": "setReferrer",
      "outputs": [],
      "stateMutability": "nonpayable",
      "type": "function"
    },
    {
      "inputs": [
        {
          "internalType": "string",
          "name": "solution",
          "type": "string"
        }
      ],
      "name": "solveDailyChallenge",
      "outputs": [],
      "stateMutability": "nonpayable",
      "type": "function"
    },
    {
      "inputs": [
        {
          "internalType": "uint256",
          "name": "tokenId",
          "type": "uint256"
        },
        {
          "internalType": "uint256",
          "name": "durationDays",
          "type": "uint256"
        }
      ],
      "name": "stakeNFT",
      "outputs": [],
      "stateMutability": "nonpayable",
      "type": "function"
    },
    {
      "inputs": [
        {
          "internalType": "uint256",
          "name": "",
          "type": "uint256"
        }
      ],
      "name": "stakes",
      "outputs": [
        {
          "internalType": "uint256",
          "name": "tokenId",
          "type": "uint256"
        },
        {
          "internalType": "address",
          "name": "staker",
          "type": "address"
        },
        {
          "internalType": "uint256",
          "name": "stakedAt",
          "type": "uint256"
        },
        {
          "internalType": "uint256",
          "name": "duration",
          "type": "uint256"
        },
        {
          "internalType": "uint256",
          "name": "rewardMultiplier",
          "type": "uint256"
        }
      ],
      "stateMutability": "view",
      "type": "function"
    },
    {
      "inputs": [
        {
          "internalType": "bytes4",
          "name": "interfaceId",
          "type": "bytes4"
        }
      ],
      "name": "supportsInterface",
      "outputs": [
        {
          "internalType": "bool",
          "name": "",
          "type": "bool"
        }
      ],
      "stateMutability": "view",
      "type": "function"
    },
    {
      "inputs": [],
      "name": "symbol",
      "outputs": [
        {
          "internalType": "string",
          "name": "",
          "type": "string"
        }
      ],
      "stateMutability": "view",
      "type": "function"
    },
    {
      "inputs": [
        {
          "internalType": "uint256",
          "name": "tokenId",
          "type": "uint256"
        }
      ],
      "name": "tokenURI",
      "outputs": [
        {
          "internalType": "string",
          "name": "",
          "type": "string"
        }
      ],
      "stateMutability": "view",
      "type": "function"
    },
    {
      "inputs": [
        {
          "internalType": "uint256",
          "name": "",
          "type": "uint256"
        }
      ],
      "name": "tournaments",
      "outputs": [
        {
          "internalType": "uint256",
          "name": "id",
          "type": "uint256"
        },
        {
          "internalType": "string",
          "name": "name",
          "type": "string"
        },
        {
          "internalType": "uint256",
          "name": "entryFee",
          "type": "uint256"
        },
        {
          "internalType": "uint256",
          "name": "startTime",
          "type": "uint256"
        },
        {
          "internalType": "uint256",
          "name": "endTime",
          "type": "uint256"
        },
        {
          "internalType": "uint256",
          "name": "prizePool",
          "type": "uint256"
        },
        {
          "internalType": "bool",
          "name": "active",
          "type": "bool"
        },
        {
          "internalType": "address",
          "name": "winner",
          "type": "address"
        }
      ],
      "stateMutability": "view",
      "type": "function"
    },
    {
      "inputs": [
        {
          "internalType": "address",
          "name": "from",
          "type": "address"
        },
        {
          "internalType": "address",
          "name": "to",
          "type": "address"
        },
        {
          "internalType": "uint256",
          "name": "tokenId",
          "type": "uint256"
        }
      ],
      "name": "transferFrom",
      "outputs": [],
      "stateMutability": "nonpayable",
      "type": "function"
    },
    {
      "inputs": [
        {
          "internalType": "address",
          "name": "newOwner",
          "type": "address"
        }
      ],
      "name": "transferOwnership",
      "outputs": [],
      "stateMutability": "nonpayable",
      "type": "function"
    },
    {
      "inputs": [
        {
          "internalType": "uint256",
          "name": "tokenId",
          "type": "uint256"
        }
      ],
      "name": "unstakeNFT",
      "outputs": [],
      "stateMutability": "nonpayable",
      "type": "function"
    },
    {
      "inputs": [
        {
          "internalType": "address",
          "name": "",
          "type": "address"
        },
        {
          "internalType": "uint256",
          "name": "",
          "type": "uint256"
        }
      ],
      "name": "userStakes",
      "outputs": [
        {
          "internalType": "uint256",
          "name": "",
          "type": "uint256"
        }
      ],
      "stateMutability": "view",
      "type": "function"
    },
    {
      "inputs": [
        {
          "internalType": "address",
          "name": "",
          "type": "address"
        },
        {
          "internalType": "uint256",
          "name": "",
          "type": "uint256"
        }
      ],
      "name": "userTournaments",
      "outputs": [
        {
          "internalType": "uint256",
          "name": "",
          "type": "uint256"
        }
      ],
      "stateMutability": "view",
      "type": "function"
    },
    {
      "inputs": [
        {
          "internalType": "uint256",
          "name": "",
          "type": "uint256"
        }
      ],
      "name": "vrfRequests",
      "outputs": [
        {
          "internalType": "enum DynamicClueNFT.RequestType",
          "name": "requestType",
          "type": "uint8"
        },
        {
          "internalType": "address",
          "name": "requester",
          "type": "address"
        },
        {
          "internalType": "uint256",
          "name": "targetTokenId",
          "type": "uint256"
        },
        {
          "internalType": "enum DynamicClueNFT.Faction",
          "name": "targetFaction",
          "type": "uint8"
        },
        {
          "internalType": "enum DynamicClueNFT.Faction",
          "name": "thiefFaction",
          "type": "uint8"
        }
      ],
      "stateMutability": "view",
      "type": "function"
    }
  ],
  "bytecode": "0x60a03462000443576001600160401b0390601f1990601f906200574e3881900383810185168301868111848210176200042d578392829160405283396020928391810103126200044357519184831683036200044357600b546001600160a01b0395908616916200006f62000448565b93600e85526d111e5b985b5a58d0db1d5953919560921b818601526200009462000448565b9060058252641110d3919560da1b818301528551978489116200042d576000988954976001988981811c9116801562000422575b858210146200040e57908187849311620003bb575b5084908783116001146200035a578c926200034e575b5050600019600383901b1c191690881b1789555b82519485116200033a5786548781811c911680156200032f575b838210146200031b57908185879695949311620002c2575b50819385116001146200025d575050879262000251575b5050600019600383901b1c191690831b1782555b608052600780546001600160a01b0319808216339081179093556040519690959291167f8be0079c531659141344cd1fd0a4f28419497f9722a3daafe3b4186f6b6457e08380a381600855735c210ef41cd1a72de73bf76ec39637bb0d3d7bee8094600b541617600b5566010003000186a060018060501b0319600d541617600d558160215560225580602355602455600a5490600160a01b600160e01b039060a01b169063ffffffff60e01b161717600a557f9e1344a1247c8a1785d0a6751e63be47de3e7b5c7fd7e0f24df0e0e1e3f0e8f8600c556152e5908162000469823960805181613dd20152f35b01519050388062000150565b87959392919316858a52838a20938a905b828210620002a857505084116200028e575b505050811b01825562000164565b015160001960f88460031b161c1916905538808062000280565b84840151865589979095019493840193908101906200026e565b909192939450878a52828a208580880160051c82019285891062000311575b9188978b9297969594930160051c01915b8281106200030257505062000139565b8c81558897508a9101620002f2565b92508192620002e1565b634e487b7160e01b8a52602260045260248afd5b90607f169062000121565b634e487b7160e01b89526041600452602489fd5b015190503880620000f3565b908c91858c9516838052878420935b88828210620003a457505084116200038a575b505050811b01895562000107565b015160001960f88460031b161c191690553880806200037c565b8385015186558e9790950194938401930162000369565b9091508b8052848c208780850160051c82019287861062000404575b918c91869594930160051c01915b828110620003f5575050620000dd565b8e81558594508c9101620003e5565b92508192620003d7565b634e487b7160e01b8c52602260045260248cfd5b90607f1690620000c8565b634e487b7160e01b600052604160045260246000fd5b600080fd5b60408051919082016001600160401b038111838210176200042d5760405256fe608080604052600436101561001357600080fd5b60003560e01c90816301352be7146142615750806301ffc9a7146141d957806306fdde0314614136578063081812fc14614118578063095ea7b314613f9e5780630d796cb814613f765780630f1a290514613f5a5780631a1d925214613ed15780631fe543e314613d5757806323b872dd14613d33578063268da74d14613968578063305a67a8146138e657806330f37c7f1461383c57806333ae955e146137f8578063394c779a1461358a5780633f706d911461356e57806342842e0e1461353b578063431744c3146124ae57806346be4cb5146132245780634a3b68cc146131e95780634f84d9fd146131b457806351cecc8014612fe357806351ed828814612e425780635223ab2d14612df457806353aaa63b14612dba5780635c9302c914612d9c5780636352211e14612d6c57806365a372e014612ca0578063685ad31514612bf55780636dcee4ca146129155780636f6cb6bc146128f357806370a082311461285c578063715018a6146128115780637503e1b7146127725780637a2bf2771461262757806381872b5e146125af57806381a96af51461257557806384147b611461252b578063842e2981146124b357806384a3a0f3146124ae578063852efc3d1461249057806387c35bc0146123745780638a78ec4d146120f55780638da5cb5b146120cc5780638f4d99641461207e57806394383f1414611f7357806395d89b4114611eae5780639b211fc414611e745780639b4b2c9c14611d945780639f9d903a14611d76578063a168fa8914611d4a578063a22cb46514611c7f578063a69d25ab14611bfb578063aa3b47c014611a33578063b06ae5b0146119a4578063b3cbc19e146117c6578063b5d5b5fa1461177c578063b88d4fde146116f5578063bbddaca31461164c578063c002d23d1461162a578063c13d4ec414611601578063c1dfa0bb14611376578063c2a8b11b146112bb578063c50a57f314611049578063c87b56dd14610f30578063c8b1f25c14610eff578063d115cac614610c93578063d2a3d24014610bff578063d4d9a7fb14610be1578063d5a44f8614610b82578063d932098514610acc578063d981cab41461086f578063dbd486a614610769578063de74e57b1461070e578063e985e9c5146106b8578063ebf03feb14610560578063eed5e8d614610508578063f2fde38b14610457578063f31229cc146103c25763f7316de71461038f57600080fd5b346103bd5760403660031901126103bd5760206103b56103ad614457565b600435614db0565b604051908152f35b600080fd5b346103bd5760203660031901126103bd576004356000526018602052604060002080546103f1600183016146a9565b916002810154906003810154906005600482015491015491610425604051968796875260e0602088015260e087019061441c565b6040860194909452606085015260ff81161515608085015260081c6001600160a01b031660a084015260c08301520390f35b346103bd5760203660031901126103bd57610470614441565b6104786147bb565b6001600160a01b039081169081156104b457600780546001600160a01b03198116841790915516600080516020615230833981519152600080a3005b60405162461bcd60e51b815260206004820152602660248201527f4f776e61626c653a206e6577206f776e657220697320746865207a65726f206160448201526564647265737360d01b6064820152608490fd5b346103bd5760403660031901126103bd57610521614441565b6001600160a01b03166000908152601760205260409020805460243591908210156103bd576020916105529161478a565b90546040519160031b1c8152f35b346103bd576020806003193601126103bd576004359061057e6147bb565b81600052601f81526003604060002001541561067d5781600052601f815260036040600020015442106106415781600052601f8152600460406000200154421161060b57601f90602254806105ef575b5082600052526008604060002001600160ff19825416179055602255600080f35b600052818152600860406000200160ff198154169055836105ce565b6064906040519062461bcd60e51b82526004820152600f60248201526e115d995b9d081a185cc8195b991959608a1b6044820152fd5b6064906040519062461bcd60e51b825260048201526015602482015274115d995b9d081b9bdd081cdd185c9d1959081e595d605a1b6044820152fd5b6064906040519062461bcd60e51b825260048201526014602482015273115d995b9d08191bd95cc81b9bdd08195e1a5cdd60621b6044820152fd5b346103bd5760403660031901126103bd576106d1614441565b6106d9614457565b9060018060a01b03809116600052600560205260406000209116600052602052602060ff604060002054166040519015158152f35b346103bd5760203660031901126103bd57600435600052601c6020526080604060002080549060018060a01b036001820154169060ff6003600283015492015416916040519384526020840152604083015215156060820152f35b346103bd5760403660031901126103bd5760e0610784614457565b60405161079081614507565b60008152600060c060209282848201528260408201528260608201528260808201528260a08201520152600435600052808052604060002060018060a01b0380931660005281526040600020604051916107e983614507565b815493848452806001840154169180850192835260028401549060408601918252600385015492606087019384526004860154946080880195865260c060ff600660058a01549960a08c019a8b52015416980197151588526040519889525116908701525160408601525160608501525160808401525160a083015251151560c0820152f35b61087836614659565b61089261088a33610e10840485614d55565b341015614fc4565b600a54600c5490600d5491604051906305d3b1d360e41b8252600482015260249160018060401b038160a01c168383015260209361ffff81861c16604484015263ffffffff90818116606485015260301c166084830152838260a481600060018060a01b038096165af1918215610ac057600092610a91575b50604051610918816144b5565b60028152848101903382526040810160008152606082019360008552608083019360008552601554600160401b811015610a7c5780600161095c920160155561446d565b949094610a6757516003811015610a52579161098b91600295949360ff80198754169116178555511683614e24565b5160018201550191516004811015610a3d576109a79083614e0c565b516004811015610a2857815461ff00191660089190911b61ff0016179055601554600019810192908311610a145750600052601082526040600020556040519283528201527f236ea7d9908e78ae51aa5c8c4f7c86966899c44c432a0e0d009ebbbb8375540460403392a2005b634e487b7160e01b60009081526011600452fd5b83634e487b7160e01b60005260216004526000fd5b84634e487b7160e01b60005260216004526000fd5b88634e487b7160e01b60005260216004526000fd5b88634e487b7160e01b60005260006004526000fd5b88634e487b7160e01b60005260416004526000fd5b9091508381813d8311610ab9575b610aa98183614558565b810103126103bd5751908661090b565b503d610a9f565b6040513d6000823e3d90fd5b346103bd5760603660031901126103bd576004356044356001600160401b0381116103bd57610aff903690600401614619565b50610b086147bb565b80600052600f6020526001604060002001610b266024358254615003565b905580600052600f6020526064600160406000200154049060018201809211610b6c57600052600f60205260406000209081548111610b6157005b815542600390910155005b634e487b7160e01b600052601160045260246000fd5b346103bd5760203660031901126103bd57600435600052601d60205260a06040600020805490600180841b0360018201541690600281015460046003830154920154926040519485526020850152604084015260608301526080820152f35b346103bd5760003660031901126103bd576020602254604051908152f35b346103bd5760203660031901126103bd5760006060604051610c20816144ec565b8281528260208201528260408201520152600435600052600f60205260806040600020604051610c4f816144ec565b815491828252600181015460208301908152606060036002840154936040860194855201549301928352604051938452516020840152516040830152516060820152f35b6020806003193601126103bd5760043590610cac614e6c565b8160005260168152604060002060ff60078201541615610ec2576004810154421015610e8a5760028101543410610e4c57600090600681018054925b838110610de65750600160401b831015610dd05782610d0e91600160059501815561478a565b81549060031b9033821b9160018060a01b03901b191617905501610d33348254615003565b90553360005260178152610d4b826040600020614e49565b60225480151580610db6575b610d8a575b33837f089ca95d0269f7f17639b228ef19cf566aac5ec3343bf708a77a0b924ab96ab8600080a36001600855005b60005280805260406000209033600052526002604060002001610dad8154615172565b90558180610d5c565b5080600052601f825260ff60086040600020015416610d57565b634e487b7160e01b600052604160045260246000fd5b610df0818361478a565b905460039190911b1c6001600160a01b03163314610e1657610e1190615172565b610ce8565b60405162461bcd60e51b815260048101869052600e60248201526d105b1c9958591e481a9bda5b995960921b6044820152606490fd5b60405162461bcd60e51b8152600481018390526016602482015275496e73756666696369656e7420656e7472792066656560501b6044820152606490fd5b60405162461bcd60e51b815260048101839052601060248201526f151bdd5c9b985b595b9d08195b99195960821b6044820152606490fd5b60405162461bcd60e51b8152600481018390526015602482015274546f75726e616d656e74206e6f742061637469766560581b6044820152606490fd5b346103bd5760203660031901126103bd5760043560048110156103bd57610f276020916147a2565b54604051908152f35b346103bd576020806003193601126103bd5760043560008181526002835260409020546001600160a01b03161561100d57610f6a90615010565b90610ff56048610f7942615010565b936040519485917f68747470733a2f2f7661756c74776172732e76657263656c2e6170702f61706986840152642f6e66742f60d81b6040840152610fc681518092886045870191016143f9565b8201623f763d60e81b6045820152610fe6825180938887850191016143f9565b01036028810185520183614558565b61100960405192828493845283019061441c565b0390f35b60405162461bcd60e51b8152600481018390526014602482015273151bdad95b88191bd95cc81b9bdd08195e1a5cdd60621b6044820152606490fd5b346103bd5760403660031901126103bd57611062614441565b60243561106d6147bb565b80600052602091601f835260ff60086040600020015416156112835781600052601f83526040600020600a6009820154910154111561124357600954916001830160095580600052601f845260096040600020016110cb8154615172565b90556110d78383614f0d565b604051848101917014dc1958da585b08115d995b9d08139195607a1b835260318201528360518201526051815261110d816144ec565b5190209060405161111d816144d0565b83815284810160038152604082019060058252606083019485526080830130815260a084019542875260c085016000815260e08601926000845261010087019360008552610120880195606487528b600052600e8d526040600020985189555193600485101561122d5760089761119a6111ea9660018c01614e0c565b5160028a015551600389015590516004880180546001600160a01b0319166001600160a01b03928316179055985160058801559051600687019189916111e290151584614b46565b511690614e24565b51600784015551910155166000526013825261120a816040600020614e49565b6005604051926003845283015260008051602061529083398151915260403093a3005b634e487b7160e01b600052602160045260246000fd5b60405162461bcd60e51b815260048101849052601860248201527713585e081cdc1958da585b081391951cc81c995858da195960421b6044820152606490fd5b60405162461bcd60e51b815260048101849052601060248201526f4576656e74206e6f742061637469766560801b6044820152606490fd5b346103bd576020806003193601126103bd5760043560005260168152600660406000200160405190818382549182815201908192600052846000209060005b8682821061135957868661131082880383614558565b604051928392818401908285525180915260408401929160005b82811061133957505050500390f35b83516001600160a01b03168552869550938101939281019260010161132a565b83546001600160a01b0316855290930192600192830192016112fa565b346103bd576020806003193601126103bd576004359081600052601d8152604060002091604051916113a7836144b5565b8354835260019260018060a01b038486015416948583830152600281015460408301908152600396608060048985015494606087019586520154940193845233036115cf575190516113f891615003565b421061158c575166038d7ea4c6800090818102918183041490151715610b6c5760649004938460008115611583575b600080809381933390f115610ac05782600052601d82526000600460408220828155828782015582600282015582848201550155836000905b611482575b8584600080516020615270833981519152856040519384523393a3005b33600052601e8084526040600020805483101561157c576114a483879261478a565b905490851b1c146114bf57506114b990615172565b84611460565b9093945033600052808352604060002080549460001995868101908111610b6c576114f0611508916115219461478a565b905490861b1c9133600052848752604060002061478a565b90919082549060031b91821b91600019901b1916179055565b336000528252604060002080549384156115665780600080516020615270833981519152950192611552848461478a565b81939154921b1b1916905555829185611465565b634e487b7160e01b600052603160045260246000fd5b5050611465565b506108fc611427565b60405162461bcd60e51b815260048101839052601b60248201527a5374616b696e6720706572696f64206e6f7420636f6d706c65746560281b6044820152606490fd5b60405162461bcd60e51b815260048101859052600a6024820152692737ba1039ba30b5b2b960b11b6044820152606490fd5b346103bd5760003660031901126103bd5761161a6147bb565b611625602454615172565b602455005b346103bd5760003660031901126103bd576020604051662386f26fc100008152f35b346103bd5760403660031901126103bd57611665614441565b61166d614457565b906116766147bb565b6001600160a01b039081166000818152601a602052604090205482166116b9576000908152601a6020526040902080546001600160a01b03191691909216179055005b60405162461bcd60e51b8152602060048201526014602482015273149959995c9c995c88185b1c9958591e481cd95d60621b6044820152606490fd5b346103bd5760803660031901126103bd5761170e614441565b611716614457565b90606435906044356001600160401b0383116103bd57366023840112156103bd5761177a936117526117759436906024816004013591016145e2565b926117656117608433614982565b6148a9565b611770838383614a4a565b614c94565b61495e565b005b346103bd5760403660031901126103bd57611795614441565b6001600160a01b03166000908152601e60205260409020805460243591908210156103bd576020916105529161478a565b346103bd5760603660031901126103bd576001600160401b036004358181116103bd576117f7903690600401614619565b906118006147bb565b602454906040519261181184614507565b828452602090818501908152604085016024358152606086019160443583526080870194600180875260a08901956000875260c08a019860008a5260005260188152604060002099518a55818a0193518051938411610dd057611874855461466f565b601f8111611969575b5081601f85116001146118f45750928060059a9997959381936118e39a98966000946118e9575b50501b916000199060031b1c19161790555b5160028801555160038701556118d3600487019251151583614b46565b516001600160a01b031690614e24565b51910155005b015192508d806118a4565b9190601f9493941984168660005283600020936000905b828210611952575050916118e399979593918560059d9c9a98969410611939575b505050811b0190556118b6565b015160001960f88460031b161c191690558b808061192c565b80888697829497870151815501960194019061190b565b611994908660005283600020601f870160051c81019185881061199a575b601f0160051c0190615181565b8b61187d565b9091508190611987565b346103bd5760403660031901126103bd5760e06119bf614457565b60043560005260208052604060002060018060a01b038092166000526020526040600020805491600182015416906002810154600382015460048301549160ff600660058601549501541694604051968752602087015260408601526060850152608084015260a0830152151560c0820152f35b346103bd576020806003193601126103bd57600435611a506147bb565b80600052601682526040600020916007830190815460ff811615611bbb5760048501544210801590611bac575b15611b6c5760ff19168255600684018054908115908115611a9a57005b6040805142868201908152818301899052918152606081016001600160401b03811182821017610dd05760405251902091611b5657611af692611ade92069061478a565b90546001600160a01b03929160031b1c821684614e24565b6000808080600587549901988954908683918315611b4c575b60081c1690f115610ac0577f8941bade03a3d102784a43ef492d1a5dc2ad4f31419c6f7786234532b108d099925460081c169354604051908152a3005b6108fc9250611b0f565b634e487b7160e01b600052601260045260246000fd5b60405162461bcd60e51b8152600481018390526018602482015277546f75726e616d656e74207374696c6c2072756e6e696e6760401b6044820152606490fd5b50600a60068601541015611a7d565b60405162461bcd60e51b8152600481018390526018602482015277151bdd5c9b985b595b9d08185b1c9958591e48195b99195960421b6044820152606490fd5b346103bd576020806003193601126103bd576001600160a01b03611c1d614441565b1660005260138152604060002090604051908181845491828152019360005281600020916000905b828210611c685761100985611c5c81890382614558565b6040519182918261474f565b835486529485019460019384019390910190611c45565b346103bd5760403660031901126103bd57611c98614441565b60243590811515908183036103bd576001600160a01b031691338314611d0957611cdb903360005260056020526040600020846000526020526040600020614b46565b6040519081527f17307eab39ab6107e8899845ad3d59bd9653f200f220920489ca2b5937696c3160203392a3005b60405162461bcd60e51b815260206004820152601960248201527822a9219b99189d1030b8383937bb32903a379031b0b63632b960391b6044820152606490fd5b346103bd5760203660031901126103bd5760043560005260106020526020604060002054604051908152f35b346103bd5760003660031901126103bd576020602154604051908152f35b346103bd5760003660031901126103bd57336000526020601a815260018060a01b0390816040600020541615611e3e5733600052601b8152611ddb60406000205415615198565b33600052601b815266038d7ea4c6800091826040600020556000808080863382f115610ac0577f53958b9c644a1d5529da7c36929d59417eb9a996f08e02a52632bfe20c92ef489033600052601a835260406000205416916040519384523393a3005b6064906040519062461bcd60e51b82526004820152600f60248201526e139bc81c9959995c9c995c881cd95d608a1b6044820152fd5b346103bd5760203660031901126103bd576001600160a01b03611e95614441565b1660005260146020526020604060002054604051908152f35b346103bd5760003660031901126103bd5760405160009060018054611ed28161466f565b80845290828116908115611f4b5750600114611f0d575b61100983611ef981870382614558565b60405191829160208352602083019061441c565b92508060005260209283600020916000925b828410611f3857505050810190910190611ef981611ee9565b8054858501870152928501928101611f1f565b6110099550611ef993506020915091849260ff191682840152151560051b8201019350611ee9565b346103bd57611f8136614659565b90611f8b8161485a565b6001600160a01b0390611fa190821633146151dd565b821561203a5761200c90600360405191611fba836144ec565b84835260208301338152604084019087825260608501926001845287600052601c6020526040600020955186556001860191511660018060a01b03198254161790555160028401555115159101614b46565b6040519182527f5f9c03de076f5063cd3ebcfe8ef7aa8af378e4b35a83c77ba9777e97083879a260203393a3005b60405162461bcd60e51b815260206004820152601c60248201527b05072696365206d7573742062652067726561746572207468616e20360241b6044820152606490fd5b60203660031901126103bd5760043561209e61088a33610e108404614db0565b6040519081527f0ee8cfda0c67f1acd18ff57b5828f18514d204f62f1a359e195515a940a2b77a60203392a2005b346103bd5760003660031901126103bd576007546040516001600160a01b039091168152602090f35b346103bd576020806003193601126103bd576004356001600160401b0381116103bd57612126903690600401614619565b6024908154908160005260188452604060002091600483019182549160ff83161561233a57336000526019875260406000205410156122fc5760405161218887828161217b81830196878151938492016143f9565b8101038084520182614558565b5190206002840154036122c75760ff19168155600391906121aa903390614e24565b42600582015582543360005260198552604060002055019081549160225490811515806122ad575b61222e575b50508160008115612225575b600080809381933390f115610ac05754916040519283528201527f523e61d558556aa27ac8542575a674429f457748b192afb77e231a53f8e1b9b560403392a2005b506108fc6121e3565b606461224f839561227d94600052601f885260066040600020015490614d35565b0493600052848052604060002033600052855260036040600020016122748154615172565b90555483614d48565b60225460005283805260406000203360005284526122a46005604060002001918254615003565b905583806121d7565b5081600052601f855260ff600860406000200154166121d2565b60405162461bcd60e51b815260048101869052600e818601526d2bb937b7339039b7b63aba34b7b760911b6044820152606490fd5b60405162461bcd60e51b81526004810187905260178187015276416c726561647920636f6d706c6574656420746f64617960481b6044820152606490fd5b60405162461bcd60e51b815260048101889052601381880152724e6f20616374697665206368616c6c656e676560681b6044820152606490fd5b346103bd5760003660031901126103bd57604051610ca081016001600160401b03811182821017610dd0576040526064808252602091610c80368483013760095460009260019182805b612430575b505050506123d08261457b565b926123de6040519485614558565b828452601f196123ed8461457b565b0190369085013760005b82811061240c5760405180611009868261474f565b8061241a61242b928461521b565b51612425828761521b565b52615172565b6123f7565b8181111580612487575b156124825780600052601c875260ff60036040600020015416612467575b61246190615172565b836123be565b9461247a8187612425612461948961521b565b959050612458565b6123c3565b5082861061243a565b346103bd5760003660031901126103bd576020602354604051908152f35b614637565b346103bd576020806003193601126103bd576001600160a01b036124d5614441565b16600052601e8152604060002090604051908181845491828152019360005281600020916000905b8282106125145761100985611c5c81890382614558565b8354865294850194600193840193909101906124fd565b346103bd5760403660031901126103bd57612544614441565b6001600160a01b03166000908152601360205260409020805460243591908210156103bd576020916105529161478a565b346103bd5760203660031901126103bd576001600160a01b03612596614441565b1660005260196020526020604060002054604051908152f35b346103bd576020806003193601126103bd576001600160a01b036125d1614441565b1660005260178152604060002090604051908181845491828152019360005281600020916000905b8282106126105761100985611c5c81890382614558565b8354865294850194600193840193909101906125f9565b346103bd576020806003193601126103bd5760043590612645614e6c565b81600052601f815260046040600020015442111561273957816000528080526040600020336000528152600560406000200154156126ff57600080808481948183528080526040832033845281526126a760ff60066040862001541615615198565b818352808052604083203384528152600560408420015491835280805260408320903384525260066040832001600160ff198254161790558181156126f6575b3390f115610ac0576001600855005b506108fc6126e7565b6064906040519062461bcd60e51b8252600482015260136024820152724e6f207265776172647320746f20636c61696d60681b6044820152fd5b6064906040519062461bcd60e51b8252600482015260126024820152714576656e74207374696c6c2061637469766560701b6044820152fd5b346103bd5760203660031901126103bd576004356000526016602052604060002080546127a1600183016146a9565b91600281015490600381015490600481015460076005830154920154926127da60405197889788526101008060208a015288019061441c565b60408701959095526060860152608085015260a084015260ff8116151560c084015260081c6001600160a01b031660e08301520390f35b346103bd5760003660031901126103bd5761282a6147bb565b600780546001600160a01b031981169091556000906001600160a01b03166000805160206152308339815191528280a3005b346103bd5760203660031901126103bd576001600160a01b0361287d614441565b16801561289c5760005260036020526020604060002054604051908152f35b60405162461bcd60e51b815260206004820152602960248201527f4552433732313a2061646472657373207a65726f206973206e6f7420612076616044820152683634b21037bbb732b960b91b6064820152608490fd5b346103bd5760003660031901126103bd57602060405166071afd498d00008152f35b346103bd576020806003193601126103bd576004359081600052600e81526040600020604051612944816144d0565b81548152610120600860ff600185015416936129638685019586614e00565b600281015460408501526003810154606085015260018060a01b03806004830154166080860152600582015460a0860152600682015460ff8116151560c0870152831c1660e08501526007810154610100850152015491015282600052600f8252604060002090604051906129d7826144ec565b82548252600360018401549385840194855260028101546040850152015460608301528051600481101561122d57612b235750605d90610ff592612a54612a4d612a46604051612a268161453d565b600e81526d21b934b6b9b7b7102632b3b4b7b760911b8982015298615010565b9351615010565b9151615010565b90604051968793767b226e616d65223a2244796e616d696320436c7565202360481b88860152612a8d815180928a6037890191016143f9565b84016c1116113330b1ba34b7b7111d1160991b6037820152612ab8825180938a6044850191016143f9565b01691116113632bb32b6111d60b11b6044820152612adf8251809389604e850191016143f9565b016d161132bc3832b934b2b731b2911d60911b604e820152612b0a8251809388605c850191016143f9565b01607d60f81b605c82015203603d810185520183614558565b8051600481101561122d57600103612b6f5750605d90610ff592612a54612a4d612a46604051612b528161453d565b600b81526a20bd3ab9329027b93232b960a91b8982015298615010565b5190600482101561122d57610ff592605d92600203612bbf57612a54612a4d612a46604051612b9d8161453d565b601081526f56657264616e7420416c6c69616e636560801b8982015298615010565b612a54612a4d612a46604051612bd48161453d565b600f81526e23b7b63232b7102237b6b4b734b7b760891b8982015298615010565b346103bd576020806003193601126103bd576001600160a01b03612c17614441565b16806000526013825260406000205415612c6457600052601381526040600020805415612c4e576000528060002054604051908152f35b634e487b7160e01b600052603260045260246000fd5b60405162461bcd60e51b8152600481018390526014602482015273506c6179657220686173206e6f20746f6b656e7360601b6044820152606490fd5b346103bd5760203660031901126103bd57600435600052601f60205260406000208054612ccf600183016146a9565b91612cdc600282016146a9565b60038201549160048101546005820154600683015460078401549160ff60088601541693612d3a600a600988015497015497612d2c6040519c8d9c8d5260208d61016091829101528d019061441c565b908b820360408d015261441c565b9760608a0152608089015260a088015260c087015260e086015215156101008501526101208401526101408301520390f35b346103bd5760203660031901126103bd576020612d8a60043561485a565b6040516001600160a01b039091168152f35b346103bd5760003660031901126103bd576020602454604051908152f35b346103bd5760203660031901126103bd576001600160a01b03612ddb614441565b16600052601b6020526020604060002054604051908152f35b346103bd5760203660031901126103bd57600435600052600f602052608060406000208054906001810154906003600282015491015491604051938452602084015260408301526060820152f35b6020806003193601126103bd5760043590612e5b614e6c565b81600052601c8152604060002091604051612e75816144ec565b8354815260018060a01b03806001860154169184810192835260ff600360028801549760408401988952015416159060608215910152612fad5784513410612f7157612ec683828451163390614a4a565b600080808084865116895190828215612f68575bf115610ac0578451803411612f3a575b507f8562eb94748e30bb0071e932744ce902b460c683474fcb3bfd567ffa16b1afb29183600052601c8552600360406000200160ff19815416905551169351926040519384523393a46001600855005b60008080612f49819434614d48565b818115612f5f575b3390f115610ac05785612eea565b506108fc612f51565b506108fc612eda565b60405162461bcd60e51b8152600481018590526014602482015273125b9cdd59999a58da595b9d081c185e5b595b9d60621b6044820152606490fd5b60405162461bcd60e51b815260048101859052600e60248201526d139195081b9bdd081b1a5cdd195960921b6044820152606490fd5b346103bd57612ff136614659565b90612ffb8161485a565b6001600160a01b039061301190821633146151dd565b6001831015806131a8575b156131705782600a02600a81048403610b6c576022548181151580613155575b613104575b50506201518090818502918583041485151715610b6c5760049160405193613068856144b5565b858552602085013381526040860191428352606087019384526080870194855287600052601d6020526040600020965187556001870191511660018060a01b03198254161790555160028501555160038401555191015533600052601e6020526130d6816040600020614e49565b6040519182527f7c403feabc47b424ca9fce0347ba2dbf96bc829f0ea06c10ebc13b50e6f6590360203393a3005b81925061312590606492600052601f60205260076040600020015490614d35565b049060005260208052604060002033600052602052600460406000200161314c8154615172565b90558480613041565b5081600052601f60205260ff6008604060002001541661303c565b60405162461bcd60e51b815260206004820152601060248201526f24b73b30b634b210323ab930ba34b7b760811b6044820152606490fd5b5061016d83111561301c565b346103bd5760603660031901126103bd576044356001600160a01b03811681036103bd576103b5602091602435600435614d55565b346103bd5760203660031901126103bd5760206001600160a01b038061320d614441565b16600052601a825260406000205416604051908152f35b346103bd5760603660031901126103bd576004356001600160401b0381116103bd57613254903690600401614619565b604435906132606147bb565b6023549161326d83615172565b602355610e1090818102918183041490151715610b6c5761328e9042615003565b60405161329a81614522565b600081526040519061012082016001600160401b03811183821017610dd05760405284825260208201908482526024356040840152426060840152836080840152600060a084015260c0830152600160e08301526000610100830152846000526016602052604060002090825182555180519060018060401b038211610dd0578190613329600185015461466f565b601f8111613506575b50602090601f831160011461349457600092613489575b50508160011b916000199060031b1c19161760018201555b60408201516002820155606082015160038201556080820151600482015560a0820151600582015560c082015180519060068301906001600160401b038311610dd057600160401b8311610dd057602090825484845580851061346c575b500190600052602060002060005b83811061344f57887ff921e1476612bff3a21b96b63ae8a3ac03579129aad3ed13624285327365837c61343c8a8a6134288b60078c019061341460e0820151151583614b46565b61010001516001600160a01b031690614e24565b60405192839260608452606084019061441c565b90602435602084015260408301520390a2005b82516001600160a01b0316818301556020909201916001016133cd565b613483908460005285846000209182019101615181565b896133bf565b015190508780613349565b9250600184016000526020600020906000935b601f19841685106134eb576001945083601f198116106134d2575b505050811b016001820155613361565b015160001960f88460031b161c191690558780806134c2565b818101518355602094850194600190930192909101906134a7565b61353590600186016000526020600020601f850160051c8101916020861061199a57601f0160051c0190615181565b88613332565b346103bd5761177a61177561354f36614592565b906040519261355d84614522565b600084526117656117608433614982565b346103bd5760003660031901126103bd57602060405160148152f35b60803660031901126103bd5761359e614441565b6024356135a9614e6c565b662386f26fc1000034106137b957600381116137825760095490600182016009556135f16117756040516135dc81614522565b600081526135ea8587614f0d565b8486614b74565b600481101561122d57604051613606816144d0565b82815260208101916136188184614e00565b6040820191604435835260608101926064358452608082019460018060a01b038098169788875260a0840142815260c085016000815260e08601926000845261010087019360008552610120880195600087528c600052600e6020526040600020985189555193600485101561122d576000805160206152908339815191529b60409b6008996136ae6136e79860018e01614e0c565b5160028c01555160038b01558360048b0191511660018060a01b03198254161790555160058901556111e2600689019351151584614b46565b5160078401555191015581516136fc816144ec565b600181526003602082016000815284830160008152606084019142835288600052600f6020528660002094518555516001850155516002840155519101558460005260116020526137508183600020614e0c565b8460005260136020526137668483600020614e49565b6137728251809261448c565b6044356020820152a36001600855005b60405162461bcd60e51b815260206004820152600f60248201526e24b73b30b634b2103330b1ba34b7b760891b6044820152606490fd5b60405162461bcd60e51b8152602060048201526017602482015276496e73756666696369656e74206d696e7420707269636560481b6044820152606490fd5b346103bd5760203660031901126103bd576001600160a01b03613819614441565b166000526011602052602060ff6040600020541661383a604051809261448c565bf35b346103bd5760203660031901126103bd57600435600052600e602052610140604060002080549060ff60018201541690600281015460038201549060018060a01b0391826004850154166005850154916006860154936138b060086007890154980154986040519a8b5260208b019061448c565b60408901526060880152608087015260a086015260ff8116151560c086015260081c1660e0840152610100830152610120820152f35b346103bd5760203660031901126103bd576004356000818152601c60205260409020600101546001600160a01b03163303613936576000908152601c60205260409020600301805460ff19169055005b60405162461bcd60e51b815260206004820152600a6024820152692737ba1039b2b63632b960b11b6044820152606490fd5b346103bd57610100806003193601126103bd576004356001600160401b0381116103bd5761399a903690600401614619565b906024356001600160401b0381116103bd576139ba903690600401614619565b906044356064356139c96147bb565b80821015613cf95742821115613cb55760215491604051946139ea86614499565b8386526020860196875260408601526060850152608084015260843560a084015260a43560c084015260c43560e0840152600082840152600061012084015260e435610140840152600052601f602052604060002092825184555180519060018060401b038211610dd0576001918083870192613a67845461466f565b601f8111613c83575b50602090601f8311600114613c1f57600092613c14575b5050600019600383901b1c191690831b1790555b6040830151805190916001600160401b038211610dd0576002860192613ac1845461466f565b601f8111613be2575b50602090601f8411600114613b6f579280806101409794600a999794613b4497600094613b64575b50501b916000199060031b1c19161790555b606083015160038701556080830151600487015560a0830151600587015560c0830151600687015560e08301516007870155820151151560088601614b46565b61012081015160098501550151910155613b5f602154615172565b602155005b015192508b80613af2565b90601f939293198316918560005260206000209260005b818110613bcc575092613b44959285926101409996600a9b999610613bb3575b505050811b019055613b04565b015160001960f88460031b161c19169055898080613ba6565b8284015185559386019360209384019301613b86565b613c0e90856000526020600020601f860160051c8101916020871061199a57601f0160051c0190615181565b87613aca565b015190508780613a87565b90859350846000526020600020916000601f198516905b818110613c6b57508411613c52575b505050811b019055613a9b565b015160001960f88460031b161c19169055878080613c45565b82840151855588969094019360209384019301613c36565b613caf90856000526020600020601f850160051c8101916020861061199a57601f0160051c0190615181565b88613a70565b60405162461bcd60e51b815260206004820152601c60248201527b53746172742074696d65206d75737420626520696e2066757475726560201b6044820152606490fd5b60405162461bcd60e51b8152602060048201526012602482015271496e76616c69642074696d652072616e676560701b6044820152606490fd5b346103bd5761177a613d4436614592565b91613d526117608433614982565b614a4a565b346103bd5760403660031901126103bd5760248035906001600160401b0382116103bd57366023830112156103bd57816004013591613d958361457b565b92613da36040519485614558565b8084528260208095019160051b830101913683116103bd578301905b828210613ec25783856001600160a01b037f0000000000000000000000000000000000000000000000000000000000000000811633819003613ea5575060043560005260108252613e1460406000205461446d565b509060405191613e23836144b5565b80549060ff8216906003821015613e9057600395613e739460ff94600294885260081c1690860152600181015460408601520154613e6682821660608601614e00565b60081c1660808301614e00565b511015613e7c57005b634e487b7160e01b60009081526021600452fd5b86634e487b7160e01b60005260216004526000fd5b836044916040519163073e64fd60e21b8352336004840152820152fd5b81358152908401908401613dbf565b346103bd5760203660031901126103bd576004356015548110156103bd57613ef89061446d565b5080549060ff82166002600183015492015460405192600383101561122d5791835260089390931c6001600160a01b03166020830152604082015260a09161383a90613f4a6060840160ff831661448c565b60ff608084019160081c1661448c565b346103bd5760003660031901126103bd576020604051600a8152f35b346103bd5760203660031901126103bd57600435600481101561122d57610f276020916147a2565b346103bd5760403660031901126103bd57613fb7614441565b602435906001600160a01b038080613fce8561485a565b169216918083146140c9578033149081156140a4575b501561403957600083815260046020526040902080546001600160a01b031916831790556140118361485a565b167f8c5be1e5ebec7d5bd14f71427d1e84f3dd0314c0f7b2291e5b200ac8c7c3b925600080a4005b60405162461bcd60e51b815260206004820152603d60248201527f4552433732313a20617070726f76652063616c6c6572206973206e6f7420746f60448201527f6b656e206f776e6572206f7220617070726f76656420666f7220616c6c0000006064820152608490fd5b9050600052600560205260406000203360005260205260ff6040600020541684613fe4565b60405162461bcd60e51b815260206004820152602160248201527f4552433732313a20617070726f76616c20746f2063757272656e74206f776e656044820152603960f91b6064820152608490fd5b346103bd5760203660031901126103bd576020612d8a60043561487d565b346103bd5760003660031901126103bd576040516000906000546141598161466f565b808352600191808316908115611f4b57506001146141815761100983611ef981870382614558565b600080805260209450917f290decd9548b62a8d60345a988386fc84ba6bc95484008f6362f93160ef3e5635b8284106141c657505050810190910190611ef981611ee9565b80548585018701529285019281016141ad565b346103bd5760203660031901126103bd5760043563ffffffff60e01b81168091036103bd57602090632483248360e11b811490811561421e575b506040519015158152f35b6380ac58cd60e01b811491508115614250575b811561423f575b5082614213565b6301ffc9a760e01b14905082614238565b635b5e139f60e01b81149150614231565b346103bd5760003660031901126103bd5761014081614281600093614499565b82815260606020820152606060408201528260608201528260808201528260a08201528260c08201528260e082015282610100820152826101208201520152602254600052601f6020526040600020600a604051916142df83614499565b805483526142ef600182016146a9565b6020840152614300600282016146a9565b60408401526003810154606084015260048101546080840152600581015460a0840152600681015460c0840152600781015460e084015260ff6008820154161515610100840152600981015461012084015201546101408201526040518091602082528051602083015260208101516101406143a361438d6101609384604088015261018087019061441c565b6040850151868203601f1901606088015261441c565b9260608101516080860152608081015160a086015260a081015160c086015260c081015160e086015260e08101516101008601526101008101511515610120860152610120810151828601520151908301520390f35b60005b83811061440c5750506000910152565b81810151838201526020016143fc565b90602091614435815180928185528580860191016143f9565b601f01601f1916010190565b600435906001600160a01b03821682036103bd57565b602435906001600160a01b03821682036103bd57565b601554811015612c4e5760156000526003602060002091020190600090565b90600482101561122d5752565b61016081019081106001600160401b03821117610dd057604052565b60a081019081106001600160401b03821117610dd057604052565b61014081019081106001600160401b03821117610dd057604052565b608081019081106001600160401b03821117610dd057604052565b60e081019081106001600160401b03821117610dd057604052565b602081019081106001600160401b03821117610dd057604052565b604081019081106001600160401b03821117610dd057604052565b601f909101601f19168101906001600160401b03821190821017610dd057604052565b6001600160401b038111610dd05760051b60200190565b60609060031901126103bd576001600160a01b039060043582811681036103bd579160243590811681036103bd579060443590565b6001600160401b038111610dd057601f01601f191660200190565b9291926145ee826145c7565b916145fc6040519384614558565b8294818452818301116103bd578281602093846000960137010152565b9080601f830112156103bd57816020614634933591016145e2565b90565b346103bd5760003660031901126103bd57602060405166038d7ea4c680008152f35b60409060031901126103bd576004359060243590565b90600182811c9216801561469f575b602083101461468957565b634e487b7160e01b600052602260045260246000fd5b91607f169161467e565b90604051918260008254926146bd8461466f565b90818452600194858116908160001461472c57506001146146e9575b50506146e792500383614558565b565b9093915060005260209081600020936000915b8183106147145750506146e7935082010138806146d9565b855488840185015294850194879450918301916146fc565b9150506146e794506020925060ff191682840152151560051b82010138806146d9565b6020908160408183019282815285518094520193019160005b828110614776575050505090565b835185529381019392810192600101614768565b8054821015612c4e5760005260206000200190600090565b600481101561122d576000526012602052604060002090565b6007546001600160a01b031633036147cf57565b606460405162461bcd60e51b815260206004820152602060248201527f4f776e61626c653a2063616c6c6572206973206e6f7420746865206f776e65726044820152fd5b1561481a57565b60405162461bcd60e51b8152602060048201526018602482015277115490cdcc8c4e881a5b9d985b1a59081d1bdad95b88125160421b6044820152606490fd5b6000908152600260205260409020546001600160a01b0316614634811515614813565b61488e61488982614b57565b614813565b6000908152600460205260409020546001600160a01b031690565b156148b057565b60405162461bcd60e51b815260206004820152602d60248201527f4552433732313a2063616c6c6572206973206e6f7420746f6b656e206f776e6560448201526c1c881bdc88185c1c1c9bdd9959609a1b6064820152608490fd5b60809060208152603260208201527f4552433732313a207472616e7366657220746f206e6f6e20455243373231526560408201527131b2b4bb32b91034b6b83632b6b2b73a32b960711b60608201520190565b1561496557565b60405162461bcd60e51b81528061497e6004820161490b565b0390fd5b906001600160a01b0380806149968461485a565b169316918383149384156149c9575b5083156149b3575b50505090565b6149bf9192935061487d565b16143880806149ad565b909350600052600560205260406000208260005260205260ff6040600020541692386149a5565b156149f757565b60405162461bcd60e51b815260206004820152602560248201527f4552433732313a207472616e736665722066726f6d20696e636f72726563742060448201526437bbb732b960d91b6064820152608490fd5b90614a7291614a588461485a565b6001600160a01b03939184169284929091831684146149f0565b16918215614af55781614a8f91614a888661485a565b16146149f0565b600080516020615250833981519152600084815260046020526040812060018060a01b03199081815416905583825260036020526040822060001981540190558482526040822060018154019055858252600260205284604083209182541617905580a4565b60405162461bcd60e51b8152602060048201526024808201527f4552433732313a207472616e7366657220746f20746865207a65726f206164646044820152637265737360e01b6064820152608490fd5b9060ff801983541691151516179055565b6000908152600260205260409020546001600160a01b0316151590565b9192600092909190803b15614c8a57614bc2946040518092630a85bd0160e11b9485835233600484015287602484015260448301526080606483015281878160209a8b96608483019061441c565b03926001600160a01b03165af1849181614c46575b50614c35575050503d600014614c2d573d614bf1816145c7565b90614bff6040519283614558565b81528091833d92013e5b80519182614c2a5760405162461bcd60e51b81528061497e6004820161490b565b01fd5b506060614c09565b6001600160e01b0319161492509050565b9091508581813d8311614c83575b614c5e8183614558565b81010312614c7f57516001600160e01b031981168103614c7f579038614bd7565b8480fd5b503d614c54565b5050915050600190565b9293600093909291803b15614d1457948491614cee9660405180948193630a85bd0160e11b9788845233600485015260018060a01b0380921660248501526044840152608060648401528260209b8c97608483019061441c565b0393165af1849181614c465750614c35575050503d600014614c2d573d614bf1816145c7565b505050915050600190565b90605082029180830460501490151715610b6c57565b81810292918115918404141715610b6c57565b91908203918211610b6c57565b9066038d7ea4c680009180830292830403610b6c57614d7391614d35565b6001600160a01b0390911660009081526011602052604090205460ff16600481101561122d5715614da15790565b614dac606491614d1f565b0490565b66071afd498d00009080820291820403610b6c57809160018060a01b0316600052601160205260ff60406000205416600481101561122d57600114614df3575090565b60649150614dac90614d1f565b600482101561122d5752565b90600481101561122d5760ff80198354169116179055565b8054610100600160a81b03191660089290921b610100600160a81b0316919091179055565b80549190600160401b831015610dd057826115089160016146e79501815561478a565b600260085414614e7d576002600855565b60405162461bcd60e51b815260206004820152601f60248201527f5265656e7472616e637947756172643a207265656e7472616e742063616c6c006044820152606490fd5b15614ec957565b60405162461bcd60e51b815260206004820152601c60248201527b115490cdcc8c4e881d1bdad95b88185b1c9958591e481b5a5b9d195960221b6044820152606490fd5b6001600160a01b03168015614f8057614f2e614f2883614b57565b15614ec2565b614f3a614f2883614b57565b6000818152600360209081526040808320805460010190558483526002909152812080546001600160a01b031916831790556000805160206152508339815191528180a4565b606460405162461bcd60e51b815260206004820152602060248201527f4552433732313a206d696e7420746f20746865207a65726f20616464726573736044820152fd5b15614fcb57565b60405162461bcd60e51b815260206004820152601060248201526f496e73756666696369656e742066656560801b6044820152606490fd5b91908201809211610b6c57565b6000908072184f03e93ff9f4daa797ed6e38ed64bf6a1f0160401b80821015615164575b506904ee2d6d415b85acef8160201b80831015615155575b50662386f26fc1000080831015615146575b506305f5e10080831015615137575b5061271080831015615128575b506064821015615118575b600a8092101561510e575b600190816021818601956150a3876145c7565b966150b16040519889614558565b8088526150c0601f19916145c7565b01366020890137860101905b6150d8575b5050505090565b600019019083906f181899199a1a9b1b9c1cb0b131b232b360811b8282061a835304918215615109579190826150cc565b6150d1565b9160010191615090565b9190606460029104910191615085565b6004919392049101913861507a565b6008919392049101913861506d565b6010919392049101913861505e565b6020919392049101913861504c565b604093508104915038615034565b6000198114610b6c5760010190565b81811061518c575050565b60008155600101615181565b1561519f57565b60405162461bcd60e51b815260206004820152601660248201527514995dd85c9908185b1c9958591e4818db185a5b595960521b6044820152606490fd5b156151e457565b60405162461bcd60e51b815260206004820152600f60248201526e2737ba103a37b5b2b71037bbb732b960891b6044820152606490fd5b8051821015612c4e5760209160051b01019056fe8be0079c531659141344cd1fd0a4f28419497f9722a3daafe3b4186f6b6457e0ddf252ad1be2c89b69c2b068fc378daa952ba7f163c4a11628f55a4df523b3ef3ae380bb6fbc0ce7bfc28639ae95e9af825ce794cb6f5a46d4cc13a36adec83ba77d621fb0f24834c2724c3ec9489aa7abf14a8cb8999794cc14bfae9a3f9654a26469706673582212209305692dcbc6e7e78a368db2a50769a22d3b9580446d88e9e18f827e33db642e64736f6c63430008130033",
  "linkReferences": {},
  "deployedLinkReferences": {}
}